{
  "_format": "hh-sol-artifact-1",
  "contractName": "FirstAvalancheValidatorSettersAndGettersFacet",
  "sourceName": "contracts/validator/facets/FirstAvalancheValidatorSettersAndGettersFacet.sol",
  "abi": [
    {
      "anonymous": false,
      "inputs": [
        {
          "indexed": true,
          "internalType": "uint256",
          "name": "timeInSecond",
          "type": "uint256"
        },
        {
          "indexed": false,
          "internalType": "uint256",
          "name": "time",
          "type": "uint256"
        }
      ],
      "name": "settedActivityPeriod",
      "type": "event"
    },
    {
      "anonymous": false,
      "inputs": [
        {
          "indexed": false,
          "internalType": "uint256",
          "name": "coolingPeriodInSecond",
          "type": "uint256"
        },
        {
          "indexed": false,
          "internalType": "uint256",
          "name": "coolingPeriodStartInSecond",
          "type": "uint256"
        }
      ],
      "name": "settedCoolingPeriod",
      "type": "event"
    },
    {
      "anonymous": false,
      "inputs": [
        {
          "indexed": true,
          "internalType": "address",
          "name": "receiver",
          "type": "address"
        },
        {
          "indexed": false,
          "internalType": "uint96",
          "name": "feeNumerator",
          "type": "uint96"
        }
      ],
      "name": "settedDefaultRoyalty",
      "type": "event"
    },
    {
      "anonymous": false,
      "inputs": [
        {
          "indexed": false,
          "internalType": "contract FirstERC1155Facet",
          "name": "_firstERC1155Facet",
          "type": "address"
        },
        {
          "indexed": false,
          "internalType": "contract FirstAvalancheValidatorFacet",
          "name": "_firstAvalancheValidatorFacet",
          "type": "address"
        },
        {
          "indexed": false,
          "internalType": "contract FirstAvalancheValidatorDepositFacet",
          "name": "_firstAvalancheValidatorDepositFacet",
          "type": "address"
        },
        {
          "indexed": false,
          "internalType": "contract FirstAvalancheValidatorSettersAndGettersFacet",
          "name": "_firstAvalancheValidatorSettersAndGettersFacet",
          "type": "address"
        },
        {
          "indexed": false,
          "internalType": "contract FirstAvalancheValidatorHealthAndUpgradesFacet",
          "name": "_firstAvalancheValidatorHealthAndUpgradesFacet",
          "type": "address"
        }
      ],
      "name": "settedNewFacetsAddresses",
      "type": "event"
    },
    {
      "anonymous": false,
      "inputs": [
        {
          "indexed": false,
          "internalType": "address",
          "name": "_receiver",
          "type": "address"
        },
        {
          "indexed": true,
          "internalType": "uint256",
          "name": "time",
          "type": "uint256"
        }
      ],
      "name": "settedNextValidatorIsCompleted",
      "type": "event"
    },
    {
      "anonymous": false,
      "inputs": [
        {
          "indexed": true,
          "internalType": "uint256",
          "name": "_newRefundsPercentageInBPS",
          "type": "uint256"
        },
        {
          "indexed": true,
          "internalType": "uint256",
          "name": "_newRefundsManagerPercentageInBPS",
          "type": "uint256"
        },
        {
          "indexed": false,
          "internalType": "uint256",
          "name": "time",
          "type": "uint256"
        }
      ],
      "name": "settedRefundsAndRefundsManagerPercentage",
      "type": "event"
    },
    {
      "anonymous": false,
      "inputs": [
        {
          "indexed": true,
          "internalType": "uint256",
          "name": "costInWei",
          "type": "uint256"
        },
        {
          "indexed": false,
          "internalType": "uint256",
          "name": "time",
          "type": "uint256"
        }
      ],
      "name": "settedShareCost",
      "type": "event"
    },
    {
      "inputs": [
        {
          "internalType": "uint256[]",
          "name": "_ids",
          "type": "uint256[]"
        }
      ],
      "name": "cleanRedeemedMappingExternal",
      "outputs": [
        {
          "internalType": "bool",
          "name": "",
          "type": "bool"
        }
      ],
      "stateMutability": "nonpayable",
      "type": "function"
    },
    {
      "inputs": [],
      "name": "getActivityPeriod",
      "outputs": [
        {
          "internalType": "uint256",
          "name": "",
          "type": "uint256"
        }
      ],
      "stateMutability": "view",
      "type": "function"
    },
    {
      "inputs": [
        {
          "internalType": "address",
          "name": "_owner",
          "type": "address"
        }
      ],
      "name": "getAllOwnerRewards",
      "outputs": [
        {
          "internalType": "uint256[5]",
          "name": "",
          "type": "uint256[5]"
        }
      ],
      "stateMutability": "view",
      "type": "function"
    },
    {
      "inputs": [],
      "name": "getAvaxToStake",
      "outputs": [
        {
          "internalType": "uint256",
          "name": "",
          "type": "uint256"
        }
      ],
      "stateMutability": "view",
      "type": "function"
    },
    {
      "inputs": [],
      "name": "getCoolingPeriodAndCoolingPeriodStart",
      "outputs": [
        {
          "internalType": "uint256",
          "name": "",
          "type": "uint256"
        },
        {
          "internalType": "uint256",
          "name": "",
          "type": "uint256"
        }
      ],
      "stateMutability": "view",
      "type": "function"
    },
    {
      "inputs": [],
      "name": "getCurrentActiveSupplies",
      "outputs": [
        {
          "internalType": "uint256[5]",
          "name": "AV_ACTIVE_SUPPLIES",
          "type": "uint256[5]"
        }
      ],
      "stateMutability": "view",
      "type": "function"
    },
    {
      "inputs": [
        {
          "internalType": "uint256",
          "name": "_id",
          "type": "uint256"
        }
      ],
      "name": "getCurrentCoolingSupply",
      "outputs": [
        {
          "internalType": "uint256",
          "name": "",
          "type": "uint256"
        }
      ],
      "stateMutability": "view",
      "type": "function"
    },
    {
      "inputs": [],
      "name": "getCurrentSupplies",
      "outputs": [
        {
          "internalType": "uint256[5]",
          "name": "AV_CURRENT_SUPPLIES",
          "type": "uint256[5]"
        }
      ],
      "stateMutability": "view",
      "type": "function"
    },
    {
      "inputs": [],
      "name": "getFeesAndPercentageProportion",
      "outputs": [
        {
          "internalType": "uint256",
          "name": "",
          "type": "uint256"
        },
        {
          "internalType": "uint256",
          "name": "",
          "type": "uint256"
        },
        {
          "internalType": "uint256",
          "name": "",
          "type": "uint256"
        }
      ],
      "stateMutability": "view",
      "type": "function"
    },
    {
      "inputs": [
        {
          "internalType": "address",
          "name": "_redeemer",
          "type": "address"
        },
        {
          "internalType": "uint256",
          "name": "_id",
          "type": "uint256"
        }
      ],
      "name": "getHasRedeemed",
      "outputs": [
        {
          "internalType": "bool",
          "name": "",
          "type": "bool"
        }
      ],
      "stateMutability": "view",
      "type": "function"
    },
    {
      "inputs": [],
      "name": "getIdRewardsAndQDFee",
      "outputs": [
        {
          "internalType": "uint256",
          "name": "",
          "type": "uint256"
        },
        {
          "internalType": "uint256",
          "name": "",
          "type": "uint256"
        },
        {
          "internalType": "uint256",
          "name": "",
          "type": "uint256"
        },
        {
          "internalType": "uint256",
          "name": "",
          "type": "uint256"
        },
        {
          "internalType": "uint256",
          "name": "",
          "type": "uint256"
        },
        {
          "internalType": "uint256",
          "name": "",
          "type": "uint256"
        }
      ],
      "stateMutability": "view",
      "type": "function"
    },
    {
      "inputs": [],
      "name": "getIncentivesStats",
      "outputs": [
        {
          "internalType": "uint256",
          "name": "",
          "type": "uint256"
        },
        {
          "internalType": "bool",
          "name": "",
          "type": "bool"
        },
        {
          "internalType": "uint256",
          "name": "",
          "type": "uint256"
        },
        {
          "internalType": "uint256",
          "name": "",
          "type": "uint256"
        }
      ],
      "stateMutability": "view",
      "type": "function"
    },
    {
      "inputs": [],
      "name": "getIsNextValidatorCompleted",
      "outputs": [
        {
          "internalType": "bool",
          "name": "",
          "type": "bool"
        }
      ],
      "stateMutability": "view",
      "type": "function"
    },
    {
      "inputs": [
        {
          "internalType": "address",
          "name": "_owner",
          "type": "address"
        },
        {
          "internalType": "uint256",
          "name": "_id",
          "type": "uint256"
        }
      ],
      "name": "getIsUnderCoolingPeriod",
      "outputs": [
        {
          "internalType": "bool",
          "name": "",
          "type": "bool"
        },
        {
          "internalType": "uint256",
          "name": "",
          "type": "uint256"
        }
      ],
      "stateMutability": "view",
      "type": "function"
    },
    {
      "inputs": [
        {
          "internalType": "address",
          "name": "_owner",
          "type": "address"
        },
        {
          "internalType": "uint256",
          "name": "_id",
          "type": "uint256"
        }
      ],
      "name": "getOwnerHealth",
      "outputs": [
        {
          "internalType": "uint256",
          "name": "",
          "type": "uint256"
        }
      ],
      "stateMutability": "view",
      "type": "function"
    },
    {
      "inputs": [
        {
          "internalType": "address",
          "name": "owner",
          "type": "address"
        },
        {
          "internalType": "uint256",
          "name": "id",
          "type": "uint256"
        }
      ],
      "name": "getOwnerRewards",
      "outputs": [
        {
          "internalType": "uint256",
          "name": "",
          "type": "uint256"
        }
      ],
      "stateMutability": "view",
      "type": "function"
    },
    {
      "inputs": [],
      "name": "getRefundsStats",
      "outputs": [
        {
          "internalType": "uint256",
          "name": "",
          "type": "uint256"
        },
        {
          "internalType": "uint256",
          "name": "",
          "type": "uint256"
        },
        {
          "internalType": "uint256",
          "name": "",
          "type": "uint256"
        },
        {
          "internalType": "uint256",
          "name": "",
          "type": "uint256"
        },
        {
          "internalType": "bytes32",
          "name": "",
          "type": "bytes32"
        },
        {
          "internalType": "uint256",
          "name": "",
          "type": "uint256"
        }
      ],
      "stateMutability": "view",
      "type": "function"
    },
    {
      "inputs": [],
      "name": "getRewardPerTokeID",
      "outputs": [
        {
          "internalType": "uint256[5]",
          "name": "",
          "type": "uint256[5]"
        }
      ],
      "stateMutability": "view",
      "type": "function"
    },
    {
      "inputs": [
        {
          "internalType": "uint256",
          "name": "_tokenId",
          "type": "uint256"
        }
      ],
      "name": "getRoyaltyInfo",
      "outputs": [
        {
          "internalType": "address",
          "name": "",
          "type": "address"
        },
        {
          "internalType": "uint96",
          "name": "",
          "type": "uint96"
        }
      ],
      "stateMutability": "view",
      "type": "function"
    },
    {
      "inputs": [],
      "name": "getShareCost",
      "outputs": [
        {
          "internalType": "uint256",
          "name": "",
          "type": "uint256"
        }
      ],
      "stateMutability": "view",
      "type": "function"
    },
    {
      "inputs": [],
      "name": "getTime",
      "outputs": [
        {
          "internalType": "uint256",
          "name": "",
          "type": "uint256"
        }
      ],
      "stateMutability": "view",
      "type": "function"
    },
    {
      "inputs": [],
      "name": "getTotalCurrentSupplyPondered",
      "outputs": [
        {
          "internalType": "uint256",
          "name": "AV_ACTIVE_SUPPLIES",
          "type": "uint256"
        }
      ],
      "stateMutability": "view",
      "type": "function"
    },
    {
      "inputs": [
        {
          "internalType": "uint256",
          "name": "_timeInSecond",
          "type": "uint256"
        }
      ],
      "name": "setActivityPeriodManual",
      "outputs": [
        {
          "internalType": "bool",
          "name": "",
          "type": "bool"
        }
      ],
      "stateMutability": "nonpayable",
      "type": "function"
    },
    {
      "inputs": [
        {
          "internalType": "uint256",
          "name": "_coolingPeriodInSecond",
          "type": "uint256"
        }
      ],
      "name": "setCoolingPeriodManual",
      "outputs": [
        {
          "internalType": "bool",
          "name": "",
          "type": "bool"
        }
      ],
      "stateMutability": "nonpayable",
      "type": "function"
    },
    {
      "inputs": [
        {
          "internalType": "address",
          "name": "_receiver",
          "type": "address"
        },
        {
          "internalType": "uint96",
          "name": "feeNumeratorInBPS",
          "type": "uint96"
        }
      ],
      "name": "setDefaultRoyaltyManual",
      "outputs": [
        {
          "internalType": "bool",
          "name": "",
          "type": "bool"
        }
      ],
      "stateMutability": "nonpayable",
      "type": "function"
    },
    {
      "inputs": [
        {
          "internalType": "address",
          "name": "_receiver",
          "type": "address"
        }
      ],
      "name": "setNextValidatorCompletedManual",
      "outputs": [
        {
          "internalType": "bool",
          "name": "",
          "type": "bool"
        }
      ],
      "stateMutability": "nonpayable",
      "type": "function"
    },
    {
      "inputs": [
        {
          "internalType": "uint256",
          "name": "_newRefundsPercentageInBPS",
          "type": "uint256"
        },
        {
          "internalType": "uint256",
          "name": "_newManagerRefundsPercentageInBPS",
          "type": "uint256"
        }
      ],
      "name": "setRefundsAndRefundsManagerPercentageManual",
      "outputs": [
        {
          "internalType": "bool",
          "name": "",
          "type": "bool"
        }
      ],
      "stateMutability": "nonpayable",
      "type": "function"
    },
    {
      "inputs": [
        {
          "internalType": "uint256",
          "name": "_durationInSecond",
          "type": "uint256"
        }
      ],
      "name": "setRewardsDurationManual",
      "outputs": [
        {
          "internalType": "bool",
          "name": "",
          "type": "bool"
        }
      ],
      "stateMutability": "nonpayable",
      "type": "function"
    },
    {
      "inputs": [
        {
          "internalType": "uint256",
          "name": "_costInWei",
          "type": "uint256"
        }
      ],
      "name": "setShareCostManual",
      "outputs": [
        {
          "internalType": "bool",
          "name": "",
          "type": "bool"
        }
      ],
      "stateMutability": "nonpayable",
      "type": "function"
    }
  ],
  "bytecode": "0x608060405234801561001057600080fd5b506121d6806100206000396000f3fe608060405234801561001057600080fd5b50600436106101cf5760003560e01c80638f77e47f11610104578063c52389b4116100a2578063f115b9e511610071578063f115b9e514610936578063f81baaf914610949578063fb0bf27814610998578063fc2aaa58146109a057600080fd5b8063c52389b41461081c578063d168601f14610824578063db2358a9146108cd578063e0c1d6ec146108d557600080fd5b8063b749cf76116100de578063b749cf7614610797578063b76c632b146107aa578063c301c74f146107f6578063c44354451461080957600080fd5b80638f77e47f146106205780639b727e831461066f578063b44013ce1461074557600080fd5b8063557ed1ba116101715780637d8027691161014b5780637d80276914610434578063883526401461052d5780638b679c78146105ac5780638ccb2d5a1461060d57600080fd5b8063557ed1ba14610406578063570329d11461040c57806363f298421461041f57600080fd5b80633b6b9ba1116101ad5780633b6b9ba1146103485780633e427c081461035b5780634175b5bf1461036e5780635494a02f146103c757600080fd5b806308f33f73146101d4578063128df49d146102035780632581080b14610325575b600080fd5b6101e76101e2366004611e97565b610a04565b6040805192151583526020830191909152015b60405180910390f35b7f6a9bc420b86e76a70c8775bb928f426c8672475ae9ac0c18839667ff52736969547f76c44b48022412b5a57973509d328330231e7f44f676d68a889d4d84e5d3e7b7547fad37d0fd5b225dc30446bab09c4036554fa76a4b96ef9dc00df950487ebba0cd547f06af98ad1bde68e90cb369d6905e400c85b7d492e93062065dcbb5832522c9bc547f7893d81639e573db1755729e9c8083bafdeb6ede945ce5c8172d14fc152a7dda54600080527f66bd28df09c9271bd5696185e1f2db071a0ed825a4f7df621c22ef195c811e9f6020527ffd49e457eed3de8d2ad7359e3503e84f3f0c2ba2be33f317d5850642629ff936545b604080519687526020870195909552938501929092526060840152608083015260a082015260c0016101fa565b610338610333366004611ec1565b610a92565b60405190151581526020016101fa565b610338610356366004611f38565b610c5b565b610338610369366004612014565b610c6c565b600080527f66bd28df09c9271bd5696185e1f2db071a0ed825a4f7df621c22ef195c811e9f6020527ffd49e457eed3de8d2ad7359e3503e84f3f0c2ba2be33f317d5850642629ff928545b6040519081526020016101fa565b6103b96103d5366004612036565b60009081527ffd49e457eed3de8d2ad7359e3503e84f3f0c2ba2be33f317d5850642629ff927602052604090205490565b426103b9565b61033861041a366004612036565b610d8e565b610427610e23565b6040516101fa919061204f565b600080527f66bd28df09c9271bd5696185e1f2db071a0ed825a4f7df621c22ef195c811e9f6020527ffd49e457eed3de8d2ad7359e3503e84f3f0c2ba2be33f317d5850642629ff93f547ffd49e457eed3de8d2ad7359e3503e84f3f0c2ba2be33f317d5850642629ff940547ffd49e457eed3de8d2ad7359e3503e84f3f0c2ba2be33f317d5850642629ff941547ffd49e457eed3de8d2ad7359e3503e84f3f0c2ba2be33f317d5850642629ff942547ffd49e457eed3de8d2ad7359e3503e84f3f0c2ba2be33f317d5850642629ff943547ffd49e457eed3de8d2ad7359e3503e84f3f0c2ba2be33f317d5850642629ff944546102f8565b600080527f66bd28df09c9271bd5696185e1f2db071a0ed825a4f7df621c22ef195c811e9f60209081527ffd49e457eed3de8d2ad7359e3503e84f3f0c2ba2be33f317d5850642629ff929547ffd49e457eed3de8d2ad7359e3503e84f3f0c2ba2be33f317d5850642629ff92a546040805192835292820152016101fa565b6103b96105ba366004611e97565b60009081527ffd49e457eed3de8d2ad7359e3503e84f3f0c2ba2be33f317d5850642629ff9466020908152604080832073ffffffffffffffffffffffffffffffffffffffff949094168352929052205490565b61042761061b366004612080565b610e38565b600080527f66bd28df09c9271bd5696185e1f2db071a0ed825a4f7df621c22ef195c811e9f6020527ffd49e457eed3de8d2ad7359e3503e84f3f0c2ba2be33f317d5850642629ff92c546103b9565b600080527f66bd28df09c9271bd5696185e1f2db071a0ed825a4f7df621c22ef195c811e9f6020527ffd49e457eed3de8d2ad7359e3503e84f3f0c2ba2be33f317d5850642629ff932547ffd49e457eed3de8d2ad7359e3503e84f3f0c2ba2be33f317d5850642629ff931547ffd49e457eed3de8d2ad7359e3503e84f3f0c2ba2be33f317d5850642629ff933547ffd49e457eed3de8d2ad7359e3503e84f3f0c2ba2be33f317d5850642629ff9345460ff909216916040805194855292151560208501529183015260608201526080016101fa565b600080527f66bd28df09c9271bd5696185e1f2db071a0ed825a4f7df621c22ef195c811e9f6020527ffd49e457eed3de8d2ad7359e3503e84f3f0c2ba2be33f317d5850642629ff9175460ff16610338565b6103386107a5366004612080565b610e49565b6107bd6107b8366004612036565b611085565b6040805173ffffffffffffffffffffffffffffffffffffffff90931683526bffffffffffffffffffffffff9091166020830152016101fa565b610338610804366004612036565b6111a3565b610338610817366004612036565b611263565b6103b96112eb565b600080527f66bd28df09c9271bd5696185e1f2db071a0ed825a4f7df621c22ef195c811e9f6020527ffd49e457eed3de8d2ad7359e3503e84f3f0c2ba2be33f317d5850642629ff92d547ffd49e457eed3de8d2ad7359e3503e84f3f0c2ba2be33f317d5850642629ff92e547ffd49e457eed3de8d2ad7359e3503e84f3f0c2ba2be33f317d5850642629ff92f54604080519384526020840192909252908201526060016101fa565b6104276112f5565b6103b96108e3366004611e97565b60009081527ffd49e457eed3de8d2ad7359e3503e84f3f0c2ba2be33f317d5850642629ff93d6020908152604080832073ffffffffffffffffffffffffffffffffffffffff949094168352929052205490565b610338610944366004612036565b611305565b600080527f66bd28df09c9271bd5696185e1f2db071a0ed825a4f7df621c22ef195c811e9f6020527ffd49e457eed3de8d2ad7359e3503e84f3f0c2ba2be33f317d5850642629ff930546103b9565b610427611320565b6103386109ae366004611e97565b60009081527ffd49e457eed3de8d2ad7359e3503e84f3f0c2ba2be33f317d5850642629ff9456020908152604080832073ffffffffffffffffffffffffffffffffffffffff949094168352929052205460ff1690565b6000807f66bd28df09c9271bd5696185e1f2db071a0ed825a4f7df621c22ef195c811e9f4282610a348787611330565b905060008115610a85576000808052602085815260408083208a8452602f01825280832073ffffffffffffffffffffffffffffffffffffffff8c168452909152902054610a829084906120ca565b90505b9097909650945050505050565b6000610a9c6113c0565b7f66bd28df09c9271bd5696185e1f2db071a0ed825a4f7df621c22ef195c811e9f73ffffffffffffffffffffffffffffffffffffffff8416610b3f576040517f08c379a000000000000000000000000000000000000000000000000000000000815260206004820152601960248201527f455243323938313a20696e76616c69642072656365697665720000000000000060448201526064015b60405180910390fd5b6000808052602082905260409020601801546bffffffffffffffffffffffff84161115610bee576040517f08c379a000000000000000000000000000000000000000000000000000000000815260206004820152602a60248201527f455243323938313a20726f79616c7479206665652077696c6c2065786365656460448201527f2073616c655072696365000000000000000000000000000000000000000000006064820152608401610b36565b610bf8848461148b565b6040516bffffffffffffffffffffffff8416815273ffffffffffffffffffffffffffffffffffffffff8516907fc10e00c73ad5dafdfc2e87d997fb9ee3ee22e775655791c7a7969c26809411fc9060200160405180910390a25060019392505050565b6000610c6682611670565b92915050565b6000610c766113c0565b600080527f66bd28df09c9271bd5696185e1f2db071a0ed825a4f7df621c22ef195c811e9f60208190527ffd49e457eed3de8d2ad7359e3503e84f3f0c2ba2be33f317d5850642629ff92f54610ccc84866120e1565b14610d33576040517f08c379a000000000000000000000000000000000000000000000000000000000815260206004820152601e60248201527f4e6f7420636f6d706c6573736976656c792031303025206f72206d6f726500006044820152606401610b36565b6000808052602082815260409182902060298101879055602a018590559051428152849186917fb0ee204ceffd796f5937db9f918fa7a6294cfd0855067aeae9703d992bd1cc06910160405180910390a35060019392505050565b6000610d986113c0565b600080527f66bd28df09c9271bd5696185e1f2db071a0ed825a4f7df621c22ef195c811e9f60208181527ffd49e457eed3de8d2ad7359e3503e84f3f0c2ba2be33f317d5850642629ff92c84905560405142815284917fe55ab7179555660372d28e7c1a19429a1ffe3d2ae796b1c36b95f62f3bc40d2e91015b60405180910390a250600192915050565b610e2b611e50565b610e336117be565b905090565b610e40611e50565b610c6682611849565b6000610e536113c0565b600080527f66bd28df09c9271bd5696185e1f2db071a0ed825a4f7df621c22ef195c811e9f60208190527ffd49e457eed3de8d2ad7359e3503e84f3f0c2ba2be33f317d5850642629ff91780547fffffffffffffffffffffffffffffffffffffffffffffffffffffffffffffff0016600117905573ffffffffffffffffffffffffffffffffffffffff8316610f44576040517f08c379a000000000000000000000000000000000000000000000000000000000815260206004820152601960248201527f455243323938313a20696e76616c6964207265636569766572000000000000006044820152606401610b36565b60008080526020829052604090206018015460641115610fe6576040517f08c379a000000000000000000000000000000000000000000000000000000000815260206004820152602a60248201527f455243323938313a20726f79616c7479206665652077696c6c2065786365656460448201527f2073616c655072696365000000000000000000000000000000000000000000006064820152608401610b36565b610ff183606461148b565b6040516064815273ffffffffffffffffffffffffffffffffffffffff8416907fc10e00c73ad5dafdfc2e87d997fb9ee3ee22e775655791c7a7969c26809411fc9060200160405180910390a260405173ffffffffffffffffffffffffffffffffffffffff8416815242907fd936045e72b1a7950ee5b5fca2996de29c3b095c4e5700e29be396991ba9e11690602001610e12565b60008181527ffd49e457eed3de8d2ad7359e3503e84f3f0c2ba2be33f317d5850642629ff91f6020908152604080832081518083019092525473ffffffffffffffffffffffffffffffffffffffff8116808352740100000000000000000000000000000000000000009091046bffffffffffffffffffffffff169282019290925282917f66bd28df09c9271bd5696185e1f2db071a0ed825a4f7df621c22ef195c811e9f919061119057506000808052602082815260409182902082518084019093526007015473ffffffffffffffffffffffffffffffffffffffff811683527401000000000000000000000000000000000000000090046bffffffffffffffffffffffff16908201525b8051602090910151909590945092505050565b60006111ad6113c0565b600080527f66bd28df09c9271bd5696185e1f2db071a0ed825a4f7df621c22ef195c811e9f60208181527ffd49e457eed3de8d2ad7359e3503e84f3f0c2ba2be33f317d5850642629ff929849055427ffd49e457eed3de8d2ad7359e3503e84f3f0c2ba2be33f317d5850642629ff92a819055604080518681529283019190915280517f100e26aa9fb47eb030d3493fbbb073fc4a7342c3b364a5ffd3574065590efee59281900390910190a150600192915050565b600061126d6113c0565b600080527f66bd28df09c9271bd5696185e1f2db071a0ed825a4f7df621c22ef195c811e9f60208181527ffd49e457eed3de8d2ad7359e3503e84f3f0c2ba2be33f317d5850642629ff92884905560405142815284917f7818ab41a4086cdde76d71c6ae504b306bddc48226f17a8bdaa13e3b90d192629101610e12565b6000610e33611991565b6112fd611e50565b610e33611a1c565b600061130f6113c0565b61131882611a8b565b506001919050565b611328611e50565b610e33611b59565b60008181527ffd49e457eed3de8d2ad7359e3503e84f3f0c2ba2be33f317d5850642629ff9466020908152604080832073ffffffffffffffffffffffffffffffffffffffff861684529091528120547f66bd28df09c9271bd5696185e1f2db071a0ed825a4f7df621c22ef195c811e9f9042908110156113b357600192506113b8565b600092505b505092915050565b7fc8fcad8db84d3cc18b4c41d551ea0ee66dd599cde068d998e57d5e09332c131c6004015473ffffffffffffffffffffffffffffffffffffffff163314611489576040517f08c379a000000000000000000000000000000000000000000000000000000000815260206004820152602260248201527f4c69624469616d6f6e643a204d75737420626520636f6e7472616374206f776e60448201527f65720000000000000000000000000000000000000000000000000000000000006064820152608401610b36565b565b7f66bd28df09c9271bd5696185e1f2db071a0ed825a4f7df621c22ef195c811e9f6114fc600080527f66bd28df09c9271bd5696185e1f2db071a0ed825a4f7df621c22ef195c811e9f6020527ffd49e457eed3de8d2ad7359e3503e84f3f0c2ba2be33f317d5850642629ff92f5490565b826bffffffffffffffffffffffff161115611599576040517f08c379a000000000000000000000000000000000000000000000000000000000815260206004820152602a60248201527f455243323938313a20726f79616c7479206665652077696c6c2065786365656460448201527f2073616c655072696365000000000000000000000000000000000000000000006064820152608401610b36565b73ffffffffffffffffffffffffffffffffffffffff8316611616576040517f08c379a000000000000000000000000000000000000000000000000000000000815260206004820152601960248201527f455243323938313a20696e76616c6964207265636569766572000000000000006044820152606401610b36565b6000808052602091909152604090206bffffffffffffffffffffffff909116740100000000000000000000000000000000000000000273ffffffffffffffffffffffffffffffffffffffff90921691909117600790910155565b60008080527f66bd28df09c9271bd5696185e1f2db071a0ed825a4f7df621c22ef195c811e9f60208190527ffd49e457eed3de8d2ad7359e3503e84f3f0c2ba2be33f317d5850642629ff93e5460ff1615611727576040517f08c379a000000000000000000000000000000000000000000000000000000000815260206004820152601460248201527f52656465656d73206e6f742066696e69736865640000000000000000000000006044820152606401610b36565b60005b83518110156117b457816000016000808152602001908152602001600020602e01600085838151811061175f5761175f6120f9565b60209081029190910181015182528181019290925260409081016000908120338252909252902080547fffffffffffffffffffffffffffffffffffffffffffffffffffffffffffffff0016905560010161172a565b5060019392505050565b6117c6611e50565b7f66bd28df09c9271bd5696185e1f2db071a0ed825a4f7df621c22ef195c811e9f60005b60058110156118445760008080526020838152604080832084845260108101835281842054600f9091019092529091205461182591906120ca565b838260058110611837576118376120f9565b60200201526001016117ea565b505090565b611851611e50565b7f66bd28df09c9271bd5696185e1f2db071a0ed825a4f7df621c22ef195c811e9f600061187c611b59565b905060005b60058110156119895773ffffffffffffffffffffffffffffffffffffffff85166118c35760008482600581106118b9576118b96120f9565b6020020152611981565b60008080526020848152604080832084845260268101835281842073ffffffffffffffffffffffffffffffffffffffff8a16808652908452828520548686526025909201845282852090855290925290912054670de0b6b3a764000090848460058110611932576119326120f9565b602002015161194191906120ca565b61194b8885611ce0565b6119559190612128565b61195f9190612165565b61196991906120e1565b84826005811061197b5761197b6120f9565b60200201525b600101611881565b505050919050565b60008061199c611a1c565b60808101519091506119b090612710612128565b60608201516119c1906103e8612128565b60408301516119d1906064612128565b60208401516119e190600a612128565b84516119ee906001612128565b6119f891906120e1565b611a0291906120e1565b611a0c91906120e1565b611a1691906120e1565b91505090565b611a24611e50565b7f66bd28df09c9271bd5696185e1f2db071a0ed825a4f7df621c22ef195c811e9f60005b600581101561184457600080805260208381526040808320848452600f01909152902054838260058110611a7e57611a7e6120f9565b6020020152600101611a48565b611a936113c0565b600080527f66bd28df09c9271bd5696185e1f2db071a0ed825a4f7df621c22ef195c811e9f60208190527ffd49e457eed3de8d2ad7359e3503e84f3f0c2ba2be33f317d5850642629ff938544211611b47576040517f08c379a000000000000000000000000000000000000000000000000000000000815260206004820152601c60248201527f726577617264206475726174696f6e206e6f742066696e6973686564000000006044820152606401610b36565b60008080526020918252604090200155565b611b61611e50565b7f66bd28df09c9271bd5696185e1f2db071a0ed825a4f7df621c22ef195c811e9f60005b60058110156118445760008080526020838152604080832084845260108101835281842054600f90910190925290912054611bc091906120ca565b611bfb57600080805260208381526040808320848452602401909152902054838260058110611bf157611bf16120f9565b6020020152611cd8565b60008080526020838152604080832084845260108101835281842054600f90910190925290912054611c2d91906120ca565b600080805260208481526040808320858452602201909152902054611c50611de6565b611c5a91906120ca565b600080805260208581526040808320868452602301909152902054611c7f9190612128565b611c9190670de0b6b3a7640000612128565b611c9b9190612165565b600080805260208481526040808320858452602401909152902054611cc091906120e1565b838260058110611cd257611cd26120f9565b60200201525b600101611b85565b60007f66bd28df09c9271bd5696185e1f2db071a0ed825a4f7df621c22ef195c811e9f73ffffffffffffffffffffffffffffffffffffffff8416611da6576040517f08c379a000000000000000000000000000000000000000000000000000000000815260206004820152602a60248201527f455243313135353a2061646472657373207a65726f206973206e6f742061207660448201527f616c6964206f776e6572000000000000000000000000000000000000000000006064820152608401610b36565b600080805260209182526040808220858352600101835280822073ffffffffffffffffffffffffffffffffffffffff871683529092522054905092915050565b60008080527f66bd28df09c9271bd5696185e1f2db071a0ed825a4f7df621c22ef195c811e9f60208190527ffd49e457eed3de8d2ad7359e3503e84f3f0c2ba2be33f317d5850642629ff93854611a1690428481831115611e475781611e49565b825b9392505050565b6040518060a001604052806005906020820280368337509192915050565b803573ffffffffffffffffffffffffffffffffffffffff81168114611e9257600080fd5b919050565b60008060408385031215611eaa57600080fd5b611eb383611e6e565b946020939093013593505050565b60008060408385031215611ed457600080fd5b611edd83611e6e565b915060208301356bffffffffffffffffffffffff81168114611efe57600080fd5b809150509250929050565b7f4e487b7100000000000000000000000000000000000000000000000000000000600052604160045260246000fd5b60006020808385031215611f4b57600080fd5b823567ffffffffffffffff80821115611f6357600080fd5b818501915085601f830112611f7757600080fd5b813581811115611f8957611f89611f09565b8060051b6040517fffffffffffffffffffffffffffffffffffffffffffffffffffffffffffffffe0603f83011681018181108582111715611fcc57611fcc611f09565b604052918252848201925083810185019188831115611fea57600080fd5b938501935b8285101561200857843584529385019392850192611fef565b98975050505050505050565b6000806040838503121561202757600080fd5b50508035926020909101359150565b60006020828403121561204857600080fd5b5035919050565b60a08101818360005b6005811015612077578151835260209283019290910190600101612058565b50505092915050565b60006020828403121561209257600080fd5b611e4982611e6e565b7f4e487b7100000000000000000000000000000000000000000000000000000000600052601160045260246000fd5b6000828210156120dc576120dc61209b565b500390565b600082198211156120f4576120f461209b565b500190565b7f4e487b7100000000000000000000000000000000000000000000000000000000600052603260045260246000fd5b6000817fffffffffffffffffffffffffffffffffffffffffffffffffffffffffffffffff04831182151516156121605761216061209b565b500290565b60008261219b577f4e487b7100000000000000000000000000000000000000000000000000000000600052601260045260246000fd5b50049056fea2646970667358221220d4fe95e38e8781946e38632064f7c577fe35c91e49ccf2ee78b6fdcaa46eb88064736f6c63430008080033",
  "linkReferences": {},
  "deployedLinkReferences": {}
}