{
  "_format": "hh-sol-artifact-1",
  "contractName": "Test2Facet",
  "sourceName": "contracts/shared/facets/Test2Facet.sol",
  "abi": [
    {
      "inputs": [],
      "name": "test2Func1",
      "outputs": [],
      "stateMutability": "nonpayable",
      "type": "function"
    },
    {
      "inputs": [],
      "name": "test2Func10",
      "outputs": [],
      "stateMutability": "nonpayable",
      "type": "function"
    },
    {
      "inputs": [],
      "name": "test2Func11",
      "outputs": [],
      "stateMutability": "nonpayable",
      "type": "function"
    },
    {
      "inputs": [],
      "name": "test2Func12",
      "outputs": [],
      "stateMutability": "nonpayable",
      "type": "function"
    },
    {
      "inputs": [],
      "name": "test2Func13",
      "outputs": [],
      "stateMutability": "nonpayable",
      "type": "function"
    },
    {
      "inputs": [],
      "name": "test2Func14",
      "outputs": [],
      "stateMutability": "nonpayable",
      "type": "function"
    },
    {
      "inputs": [],
      "name": "test2Func15",
      "outputs": [],
      "stateMutability": "nonpayable",
      "type": "function"
    },
    {
      "inputs": [],
      "name": "test2Func16",
      "outputs": [],
      "stateMutability": "nonpayable",
      "type": "function"
    },
    {
      "inputs": [],
      "name": "test2Func17",
      "outputs": [],
      "stateMutability": "nonpayable",
      "type": "function"
    },
    {
      "inputs": [],
      "name": "test2Func18",
      "outputs": [],
      "stateMutability": "nonpayable",
      "type": "function"
    },
    {
      "inputs": [],
      "name": "test2Func19",
      "outputs": [],
      "stateMutability": "nonpayable",
      "type": "function"
    },
    {
      "inputs": [],
      "name": "test2Func2",
      "outputs": [],
      "stateMutability": "nonpayable",
      "type": "function"
    },
    {
      "inputs": [],
      "name": "test2Func20",
      "outputs": [],
      "stateMutability": "nonpayable",
      "type": "function"
    },
    {
      "inputs": [],
      "name": "test2Func3",
      "outputs": [],
      "stateMutability": "nonpayable",
      "type": "function"
    },
    {
      "inputs": [],
      "name": "test2Func4",
      "outputs": [],
      "stateMutability": "nonpayable",
      "type": "function"
    },
    {
      "inputs": [],
      "name": "test2Func5",
      "outputs": [],
      "stateMutability": "nonpayable",
      "type": "function"
    },
    {
      "inputs": [],
      "name": "test2Func6",
      "outputs": [],
      "stateMutability": "nonpayable",
      "type": "function"
    },
    {
      "inputs": [],
      "name": "test2Func7",
      "outputs": [],
      "stateMutability": "nonpayable",
      "type": "function"
    },
    {
      "inputs": [],
      "name": "test2Func8",
      "outputs": [],
      "stateMutability": "nonpayable",
      "type": "function"
    },
    {
      "inputs": [],
      "name": "test2Func9",
      "outputs": [],
      "stateMutability": "nonpayable",
      "type": "function"
    }
  ],
  "bytecode": "0x608060405234801561001057600080fd5b5061060a806100206000396000f3fe608060405234801561001057600080fd5b506004361061016c5760003560e01c80638ee8be30116100cd578063d2f0c73e11610081578063e7de23a411610066578063e7de23a41461021b578063ea36b55814610225578063ef3f4d781461022f5761016c565b8063d2f0c73e14610207578063e5f687b2146102115761016c565b8063c670641d116100b2578063c670641d146101e9578063ca5fa5c0146101f3578063caae8f23146101fd5761016c565b80638ee8be30146101d557806391d0396b146101df5761016c565b80632e463958116101245780636dc16b01116101095780636dc16b01146101b7578063792a8e2e146101c1578063884280a6146101cb5761016c565b80632e463958146101a35780635fd6312b146101ad5761016c565b80630e4cd7fc116101555780630e4cd7fc14610185578063148843091461018f57806317fd06e7146101995761016c565b806303feeeae146101715780630c103a931461017b575b600080fd5b610179610239565b005b610183610267565b005b61018d610295565b005b6101976102c3565b005b6101a16102f1565b005b6101ab61031f565b005b6101b561034d565b005b6101bf61037b565b005b6101c96103a9565b005b6101d36103d7565b005b6101dd610405565b005b6101e7610433565b005b6101f1610461565b005b6101fb61048f565b005b6102056104bd565b005b61020f6104eb565b005b610219610519565b005b610223610547565b005b61022d610575565b005b6102376105a3565b005b6102657f5fad6a49861bf2490d6e2aff183626ae13a4c24b6de9e20561b202e4c6ab075860001b6105d1565b565b6102937f3e5739f145ea71e4eb7aa8611fd17d66ae282c42c67d646adc41f63b100ddd8360001b6105d1565b565b6102c17f2dc0a11ad8d36d1eb21ed6364fa5e10745c5ee8139414e3bcf0f9c527f91d70d60001b6105d1565b565b6102ef7f914bdef66a04b20e7f15cca30fc58879d25689e8e34388c13b094e5a07868b9560001b6105d1565b565b61031d7ff37f8a003270515df72ce19eba7ab35570cfa519bf0c86cb921cbe01b64f927e60001b6105d1565b565b61034b7f9d3cc0f6e3d3ab4ec8a42140fec2a1590703551ee7f4dd57cf2bc5049d539c9560001b6105d1565b565b6103797fc09fc163e97fb5a8353218fb092691e9e8e1817da04a81d0a2cedee209b5e54960001b6105d1565b565b6103a77f37be38f86eafb77ad68ed0aa52c95f53a840c80670aade84193020d34855275d60001b6105d1565b565b6103d57f7b30924831ff012441d43fc6e22e236340e44f1e9b66726b47edff1e2b64792860001b6105d1565b565b6104037fad38f22a224d1eeb3fcf4d675feda242cd784d3954097d22d44e79611cf4337860001b6105d1565b565b6104317fa582c0d83c5ca4fb9c22a721278511ca9568de178b156d71a0c67808a5a3532b60001b6105d1565b565b61045f7fa323b4fdb882ab8cb2305b28b4be13d73eb0b1841e8ea3e0f7360c0c2c3c3e5160001b6105d1565b565b61048d7fb08589c75b3815a8013802de346053a445043a815672bbaeeb86019ad230674a60001b6105d1565b565b6104bb7f139e18740cae277144b382e1dff549dd9c7cbfe47ffc028bf57c1fdbd54ac3ed60001b6105d1565b565b6104e97f94bb417dc46b0b65a12f2bf0da5f6a49b1c3c1a534620495921ab39a11900f6060001b6105d1565b565b6105177f6a0a0a585739e76fa76ffeeb3aaa0a030d681d521b39563f701eadd8cde2d76160001b6105d1565b565b6105457f5e9a0e1c90b1444805b3a0c7daaee2998a3a12d4af3fd89f60b18bdf864bb43760001b6105d1565b565b6105737f985739badd225a8ade732a9d27c6c0ca0f11152333ef203b62350f2df5b2bfac60001b6105d1565b565b6105a17f2d8ff66157a21d23cf6017413d7809de251dcb5de738563ec3092e01b762dbac60001b6105d1565b565b6105cf7f7479a6384343f5ef13c4fc589d192fdb252033a3927c971e0b824e8b9649957660001b6105d1565b565b5056fea26469706673582212209661d43ff5c9dd5b9cc6d0a8c44f740323806428aab3ab6cad9840c6d642c93264736f6c63430008080033",
  "linkReferences": {},
  "deployedLinkReferences": {}
}