{
  "_format": "hh-sol-artifact-1",
  "contractName": "FirstAvalancheValidatorHealthAndUpgradesFacet",
  "sourceName": "contracts/validator/facets/FirstAvalancheValidatorHealthAndUpgradesFacet.sol",
  "abi": [
    {
      "anonymous": false,
      "inputs": [
        {
          "indexed": true,
          "internalType": "address",
          "name": "owner",
          "type": "address"
        },
        {
          "indexed": true,
          "internalType": "uint256",
          "name": "toLevel",
          "type": "uint256"
        },
        {
          "indexed": true,
          "internalType": "uint256",
          "name": "amountMinted",
          "type": "uint256"
        },
        {
          "indexed": false,
          "internalType": "uint256",
          "name": "fromLevel",
          "type": "uint256"
        },
        {
          "indexed": false,
          "internalType": "uint256",
          "name": "amountBurned",
          "type": "uint256"
        },
        {
          "indexed": false,
          "internalType": "uint256",
          "name": "time",
          "type": "uint256"
        }
      ],
      "name": "upgradedShares",
      "type": "event"
    },
    {
      "inputs": [
        {
          "internalType": "uint256[]",
          "name": "_IDs",
          "type": "uint256[]"
        }
      ],
      "name": "refreshAvalancheValidatorSharesHealth",
      "outputs": [
        {
          "internalType": "bool",
          "name": "",
          "type": "bool"
        }
      ],
      "stateMutability": "nonpayable",
      "type": "function"
    },
    {
      "inputs": [
        {
          "internalType": "uint256[]",
          "name": "_IDs",
          "type": "uint256[]"
        },
        {
          "internalType": "uint256[]",
          "name": "_numberOfUpgrades",
          "type": "uint256[]"
        }
      ],
      "name": "upgradeAvalancheValidatorLevel",
      "outputs": [
        {
          "internalType": "bool",
          "name": "",
          "type": "bool"
        }
      ],
      "stateMutability": "nonpayable",
      "type": "function"
    },
    {
      "inputs": [],
      "name": "withdrawRefunds",
      "outputs": [
        {
          "internalType": "bool",
          "name": "",
          "type": "bool"
        }
      ],
      "stateMutability": "nonpayable",
      "type": "function"
    }
  ],
  "bytecode": "0x608060405234801561001057600080fd5b50612491806100206000396000f3fe608060405234801561001057600080fd5b50600436106100415760003560e01c806324b24e521461004657806395afc05c1461006d5780639676a11d14610075575b600080fd5b610059610054366004612023565b610088565b604051901515815260200160405180910390f35b610059610228565b610059610083366004612116565b6104ca565b60007f66bd28df09c9271bd5696185e1f2db071a0ed825a4f7df621c22ef195c811e9f33825b845181101561014e576100da828683815181106100cd576100cd612182565b6020026020010151610ad6565b15610146576040517f08c379a000000000000000000000000000000000000000000000000000000000815260206004820152601460248201527f556e64657220636f6f6c696e6720706572696f6400000000000000000000000060448201526064015b60405180910390fd5b6001016100ae565b504260005b85518110156102135760016101818488848151811061017457610174612182565b6020026020010151610b66565b1061020b5781846000016000808152602001908152602001600020602f0160008884815181106101b3576101b3612182565b6020026020010151815260200190815260200160002060008573ffffffffffffffffffffffffffffffffffffffff1673ffffffffffffffffffffffffffffffffffffffff168152602001908152602001600020819055505b600101610153565b5061021d82610c6c565b506001949350505050565b7fd5b0c411a6c50ab7237d5bdf5f4be539f3a9603f77c2fe2a10b3944fcb2c324b805460009190600214156102b9576040517f08c379a000000000000000000000000000000000000000000000000000000000815260206004820152601f60248201527f5265656e7472616e637947756172643a207265656e7472616e742063616c6c00604482015260640161013d565b600281556102c5610e55565b600080527f66bd28df09c9271bd5696185e1f2db071a0ed825a4f7df621c22ef195c811e9f60208190527ffd49e457eed3de8d2ad7359e3503e84f3f0c2ba2be33f317d5850642629ff944547ffd49e457eed3de8d2ad7359e3503e84f3f0c2ba2be33f317d5850642629ff942544291908161039d576040517f08c379a000000000000000000000000000000000000000000000000000000000815260206004820152601160248201527f4e6f20726566756e647320616374697665000000000000000000000000000000604482015260640161013d565b818311610406576040517f08c379a000000000000000000000000000000000000000000000000000000000815260206004820152601d60248201527f52656465656d696e672074696d65206973207374696c6c2076616c6964000000604482015260640161013d565b801561046e576040517f08c379a000000000000000000000000000000000000000000000000000000000815260206004820152601760248201527f4e6f7420616c6c20726566756e647320636c61696d6564000000000000000000604482015260640161013d565b505060008080526020929092525060408120602c8101829055602d8101829055602881019190915560270180547fffffffffffffffffffffffffffffffffffffffffffffffffffffffffffffff00169055600191506001905590565b7fd5b0c411a6c50ab7237d5bdf5f4be539f3a9603f77c2fe2a10b3944fcb2c324b8054600091906002141561055b576040517f08c379a000000000000000000000000000000000000000000000000000000000815260206004820152601f60248201527f5265656e7472616e637947756172643a207265656e7472616e742063616c6c00604482015260640161013d565b600281557f66bd28df09c9271bd5696185e1f2db071a0ed825a4f7df621c22ef195c811e9f8386148015610590575060018610155b801561059d575060048611155b610603576040517f08c379a000000000000000000000000000000000000000000000000000000000815260206004820152601760248201527f57726f6e6720696e70757420636f6d706f736974696f6e000000000000000000604482015260640161013d565b60005b868110156106be5787878281811061062057610620612182565b90506020020135600414156106b6576040517f08c379a0000000000000000000000000000000000000000000000000000000008152602060048201526024808201527f4c6576656c203520697320746865206d6178696d756d206c6576656c20616c6c60448201527f6f77656400000000000000000000000000000000000000000000000000000000606482015260840161013d565b600101610606565b5033426106ca82610c6c565b60005b88811015610ab95760008a8a838181106106e9576106e9612182565b905060200201359050600081600161070191906121e0565b905060008a8a8581811061071757610717612182565b90506020020135905080600a61072d91906121f8565b6107378785610b66565b10156107c5576040517f08c379a000000000000000000000000000000000000000000000000000000000815260206004820152602860248201527f4e6f7420656e6f7567682073686172657320666f722074686520616d6f756e7460448201527f20736c6563746564000000000000000000000000000000000000000000000000606482015260840161013d565b600080805260208881526040808320858452600e8101835281842054600f909101909252909120546107f89083906121e0565b1115610860576040517f08c379a000000000000000000000000000000000000000000000000000000000815260206004820152601e60248201527f4578636565646573206e657874206c6576656c206d617820737570706c790000604482015260640161013d565b61086b81600a6121f8565b600080805260208981526040808320878452600f0190915281208054909190610895908490612235565b909155506108a6905081600a6121f8565b600080805260208981526040808320878452600e01909152812080549091906108d0908490612235565b9091555050600080805260208881526040808320858452600f01909152812080548392906108ff9084906121e0565b9091555061090f90508684610ad6565b1561097e5761091f81600a6121f8565b60008080526020898152604080832087845260100190915281208054909190610949908490612235565b9091555050600080805260208881526040808320858452601001909152812080548392906109789084906121e0565b90915550505b60008080526020888152604080832085845260308101835281842073ffffffffffffffffffffffffffffffffffffffff8b1680865290845282852080547fffffffffffffffffffffffffffffffffffffffffffffffffffffffffffffff00166001179055878552602f909101808452828520828652845282852054878652908452828520918552925290912055610a208684610a1b84600a6121f8565b610f20565b610a2a8684611189565b50610a4686838360405180602001604052806000815250611247565b808273ffffffffffffffffffffffffffffffffffffffff88167f50de47ee647563a35c90bc5d81825821e267d6767c79d4ba564e991fe4c6d1b586610a8c85600a6121f8565b60408051928352602083019190915281018a905260600160405180910390a48360010193505050506106cd565b50610ac382610c6c565b6001945050505060019055949350505050565b60008181527ffd49e457eed3de8d2ad7359e3503e84f3f0c2ba2be33f317d5850642629ff9466020908152604080832073ffffffffffffffffffffffffffffffffffffffff861684529091528120547f66bd28df09c9271bd5696185e1f2db071a0ed825a4f7df621c22ef195c811e9f904290811015610b595760019250610b5e565b600092505b505092915050565b60007f66bd28df09c9271bd5696185e1f2db071a0ed825a4f7df621c22ef195c811e9f73ffffffffffffffffffffffffffffffffffffffff8416610c2c576040517f08c379a000000000000000000000000000000000000000000000000000000000815260206004820152602a60248201527f455243313135353a2061646472657373207a65726f206973206e6f742061207660448201527f616c6964206f776e657200000000000000000000000000000000000000000000606482015260840161013d565b600080805260209182526040808220858352600101835280822073ffffffffffffffffffffffffffffffffffffffff871683529092522054905092915050565b7f66bd28df09c9271bd5696185e1f2db071a0ed825a4f7df621c22ef195c811e9f60005b6005811015610cb557610ca38382610ad6565b15610cad57505050565b600101610c90565b506000610cc06113f9565b90506000610ccd84611585565b90506000610cda856116cd565b905060005b6005811015610e4d57610cf06117e9565b600080805260208781526040808320858452602201909152902055838160058110610d1d57610d1d612182565b6020908102919091015160008080528783526040808220858352602401909352919091205573ffffffffffffffffffffffffffffffffffffffff861615610e4557828160058110610d7057610d70612182565b6020908102919091015160008080528783526040808220858352602601845280822073ffffffffffffffffffffffffffffffffffffffff8b1683529093529190912055818160058110610dc557610dc5612182565b6020908102919091015160008080528783526040808220858352601e01909352918220805491929091610df9908490612235565b9091555050600080805260208681526040808320848452602481018352818420546025909101835281842073ffffffffffffffffffffffffffffffffffffffff8b168552909252909120555b600101610cdf565b505050505050565b7fc8fcad8db84d3cc18b4c41d551ea0ee66dd599cde068d998e57d5e09332c131c6004015473ffffffffffffffffffffffffffffffffffffffff163314610f1e576040517f08c379a000000000000000000000000000000000000000000000000000000000815260206004820152602260248201527f4c69624469616d6f6e643a204d75737420626520636f6e7472616374206f776e60448201527f6572000000000000000000000000000000000000000000000000000000000000606482015260840161013d565b565b7f66bd28df09c9271bd5696185e1f2db071a0ed825a4f7df621c22ef195c811e9f73ffffffffffffffffffffffffffffffffffffffff8416610fe4576040517f08c379a000000000000000000000000000000000000000000000000000000000815260206004820152602360248201527f455243313135353a206275726e2066726f6d20746865207a65726f206164647260448201527f6573730000000000000000000000000000000000000000000000000000000000606482015260840161013d565b336000610ff085611846565b90506000610ffd85611846565b905061101d83886000858560405180602001604052806000815250611891565b600080805260208581526040808320898452600101825280832073ffffffffffffffffffffffffffffffffffffffff8b168452909152902054858110156110e5576040517f08c379a0000000000000000000000000000000000000000000000000000000008152602060048201526024808201527f455243313135353a206275726e20616d6f756e7420657863656564732062616c60448201527f616e636500000000000000000000000000000000000000000000000000000000606482015260840161013d565b6000808052602086815260408083208a8452600101825280832073ffffffffffffffffffffffffffffffffffffffff8c81168086529184528285208b8703905582518c81529384018b90529092908816917fc3d58168c5ae7397731d063d5bbf3d657854427343f4c083240f7aacaa2d0f62910160405180910390a461117f84896000868660405180602001604052806000815250611c24565b5050505050505050565b60007f66bd28df09c9271bd5696185e1f2db071a0ed825a4f7df621c22ef195c811e9f816111b78585610b66565b6111bf575060015b801561021d5750600080805260209182526040808220858352602f8101845281832073ffffffffffffffffffffffffffffffffffffffff979097168084529684528183208390559482526030909401825283812094815293905250902080547fffffffffffffffffffffffffffffffffffffffffffffffffffffffffffffff00169055600190565b7f66bd28df09c9271bd5696185e1f2db071a0ed825a4f7df621c22ef195c811e9f73ffffffffffffffffffffffffffffffffffffffff851661130b576040517f08c379a000000000000000000000000000000000000000000000000000000000815260206004820152602160248201527f455243313135353a206d696e7420746f20746865207a65726f2061646472657360448201527f7300000000000000000000000000000000000000000000000000000000000000606482015260840161013d565b33600061131786611846565b9050600061132486611846565b90506113358360008a85858a611891565b6000808052602085815260408083208a8452600101825280832073ffffffffffffffffffffffffffffffffffffffff8c1684529091528120805488929061137d9084906121e0565b9091555050604080518881526020810188905273ffffffffffffffffffffffffffffffffffffffff808b1692600092918716917fc3d58168c5ae7397731d063d5bbf3d657854427343f4c083240f7aacaa2d0f62910160405180910390a46113ea8360008a85858a611c24565b61117f8360008a8a8a8a611cd8565b611401611f8b565b7f66bd28df09c9271bd5696185e1f2db071a0ed825a4f7df621c22ef195c811e9f60005b60058110156115805760008080526020838152604080832084845260108101835281842054600f909101909252909120546114609190612235565b61149b5760008080526020838152604080832084845260240190915290205483826005811061149157611491612182565b6020020152611578565b60008080526020838152604080832084845260108101835281842054600f909101909252909120546114cd9190612235565b6000808052602084815260408083208584526022019091529020546114f06117e9565b6114fa9190612235565b60008080526020858152604080832086845260230190915290205461151f91906121f8565b61153190670de0b6b3a76400006121f8565b61153b919061224c565b60008080526020848152604080832085845260240190915290205461156091906121e0565b83826005811061157257611572612182565b60200201525b600101611425565b505090565b61158d611f8b565b7f66bd28df09c9271bd5696185e1f2db071a0ed825a4f7df621c22ef195c811e9f60006115b86113f9565b905060005b60058110156116c55773ffffffffffffffffffffffffffffffffffffffff85166115ff5760008482600581106115f5576115f5612182565b60200201526116bd565b60008080526020848152604080832084845260268101835281842073ffffffffffffffffffffffffffffffffffffffff8a16808652908452828520548686526025909201845282852090855290925290912054670de0b6b3a76400009084846005811061166e5761166e612182565b602002015161167d9190612235565b6116878885610b66565b61169191906121f8565b61169b919061224c565b6116a591906121e0565b8482600581106116b7576116b7612182565b60200201525b6001016115bd565b505050919050565b6116d5611f8b565b7f66bd28df09c9271bd5696185e1f2db071a0ed825a4f7df621c22ef195c811e9f60006117006113f9565b905060005b60058110156116c55773ffffffffffffffffffffffffffffffffffffffff851661174757600084826005811061173d5761173d612182565b60200201526117e1565b600080805260208481526040808320848452602501825280832073ffffffffffffffffffffffffffffffffffffffff89168452909152902054670de0b6b3a76400009083836005811061179c5761179c612182565b60200201516117ab9190612235565b6117b58784610b66565b6117bf91906121f8565b6117c9919061224c565b8482600581106117db576117db612182565b60200201525b600101611705565b60008080527f66bd28df09c9271bd5696185e1f2db071a0ed825a4f7df621c22ef195c811e9f60208190527ffd49e457eed3de8d2ad7359e3503e84f3f0c2ba2be33f317d5850642629ff938546118409042611f72565b91505090565b6040805160018082528183019092526060916000919060208083019080368337019050509050828160008151811061188057611880612182565b602090810291909101015292915050565b82517f66bd28df09c9271bd5696185e1f2db071a0ed825a4f7df621c22ef195c811e9f9060009042825b82811015611c17578373ffffffffffffffffffffffffffffffffffffffff168a73ffffffffffffffffffffffffffffffffffffffff161415801561192b57508373ffffffffffffffffffffffffffffffffffffffff168973ffffffffffffffffffffffffffffffffffffffff1614155b15611c0f576119468a8983815181106100cd576100cd612182565b1580156119665750611964898983815181106100cd576100cd612182565b155b15611bad5780611982576119798a610c6c565b61198289610c6c565b73ffffffffffffffffffffffffffffffffffffffff8a163b1580156119bc575073ffffffffffffffffffffffffffffffffffffffff89163b155b15611ace5781856000016000808152602001908152602001600020602f0160008a84815181106119ee576119ee612182565b6020026020010151815260200190815260200160002060008c73ffffffffffffffffffffffffffffffffffffffff1673ffffffffffffffffffffffffffffffffffffffff1681526020019081526020016000208190555081856000016000808152602001908152602001600020602f0160008a8481518110611a7257611a72612182565b6020026020010151815260200190815260200160002060008b73ffffffffffffffffffffffffffffffffffffffff1673ffffffffffffffffffffffffffffffffffffffff16815260200190815260200160002081905550611c0f565b73ffffffffffffffffffffffffffffffffffffffff8a163b158015611b09575073ffffffffffffffffffffffffffffffffffffffff89163b15155b15611b3b5781856000016000808152602001908152602001600020602f0160008a84815181106119ee576119ee612182565b73ffffffffffffffffffffffffffffffffffffffff8a163b15158015611b76575073ffffffffffffffffffffffffffffffffffffffff89163b155b15611ba85781856000016000808152602001908152602001600020602f0160008a84815181106119ee576119ee612182565b611c0f565b6040517f08c379a000000000000000000000000000000000000000000000000000000000815260206004820152601460248201527f556e64657220636f6f6c696e6720706572696f64000000000000000000000000604482015260640161013d565b6001016118bb565b5050505050505050505050565b60005b8351811015611ccf5773ffffffffffffffffffffffffffffffffffffffff861615611cc75773ffffffffffffffffffffffffffffffffffffffff861615801590611c86575073ffffffffffffffffffffffffffffffffffffffff851615155b15611ca25780611ca257611c9986610c6c565b611ca285610c6c565b611cc586858381518110611cb857611cb8612182565b6020026020010151611189565b505b600101611c27565b50505050505050565b73ffffffffffffffffffffffffffffffffffffffff84163b15610e4d576040517ff23a6e6100000000000000000000000000000000000000000000000000000000815273ffffffffffffffffffffffffffffffffffffffff85169063f23a6e6190611d4f90899089908890889088906004016122f2565b602060405180830381600087803b158015611d6957600080fd5b505af1925050508015611db7575060408051601f3d9081017fffffffffffffffffffffffffffffffffffffffffffffffffffffffffffffffe0168201909252611db491810190612342565b60015b611ea157611dc3612384565b806308c379a01415611e175750611dd86123a0565b80611de35750611e19565b806040517f08c379a000000000000000000000000000000000000000000000000000000000815260040161013d9190612448565b505b6040517f08c379a000000000000000000000000000000000000000000000000000000000815260206004820152603460248201527f455243313135353a207472616e7366657220746f206e6f6e2d4552433131353560448201527f526563656976657220696d706c656d656e746572000000000000000000000000606482015260840161013d565b7fffffffff0000000000000000000000000000000000000000000000000000000081167ff23a6e610000000000000000000000000000000000000000000000000000000014611ccf576040517f08c379a000000000000000000000000000000000000000000000000000000000815260206004820152602860248201527f455243313135353a204552433131353552656365697665722072656a6563746560448201527f6420746f6b656e73000000000000000000000000000000000000000000000000606482015260840161013d565b600081831115611f825781611f84565b825b9392505050565b6040518060a001604052806005906020820280368337509192915050565b7f4e487b7100000000000000000000000000000000000000000000000000000000600052604160045260246000fd5b7fffffffffffffffffffffffffffffffffffffffffffffffffffffffffffffffe0601f830116810181811067ffffffffffffffff8211171561201c5761201c611fa9565b6040525050565b6000602080838503121561203657600080fd5b823567ffffffffffffffff8082111561204e57600080fd5b818501915085601f83011261206257600080fd5b81358181111561207457612074611fa9565b8060051b915060405161208985840182611fd8565b818152918301840191848101888411156120a257600080fd5b938501935b838510156120be57843581529385019385016120a7565b50979650505050505050565b60008083601f8401126120dc57600080fd5b50813567ffffffffffffffff8111156120f457600080fd5b6020830191508360208260051b850101111561210f57600080fd5b9250929050565b6000806000806040858703121561212c57600080fd5b843567ffffffffffffffff8082111561214457600080fd5b612150888389016120ca565b9096509450602087013591508082111561216957600080fd5b50612176878288016120ca565b95989497509550505050565b7f4e487b7100000000000000000000000000000000000000000000000000000000600052603260045260246000fd5b7f4e487b7100000000000000000000000000000000000000000000000000000000600052601160045260246000fd5b600082198211156121f3576121f36121b1565b500190565b6000817fffffffffffffffffffffffffffffffffffffffffffffffffffffffffffffffff0483118215151615612230576122306121b1565b500290565b600082821015612247576122476121b1565b500390565b600082612282577f4e487b7100000000000000000000000000000000000000000000000000000000600052601260045260246000fd5b500490565b6000815180845260005b818110156122ad57602081850181015186830182015201612291565b818111156122bf576000602083870101525b50601f017fffffffffffffffffffffffffffffffffffffffffffffffffffffffffffffffe0169290920160200192915050565b600073ffffffffffffffffffffffffffffffffffffffff808816835280871660208401525084604083015283606083015260a0608083015261233760a0830184612287565b979650505050505050565b60006020828403121561235457600080fd5b81517fffffffff0000000000000000000000000000000000000000000000000000000081168114611f8457600080fd5b600060033d111561239d5760046000803e5060005160e01c5b90565b600060443d10156123ae5790565b6040517ffffffffffffffffffffffffffffffffffffffffffffffffffffffffffffffffc803d016004833e81513d67ffffffffffffffff81602484011181841117156123fc57505050505090565b82850191508151818111156124145750505050505090565b843d870101602082850101111561242e5750505050505090565b61243d60208286010187611fd8565b509095945050505050565b602081526000611f84602083018461228756fea2646970667358221220505e361b11eecc0221701a5f12aef55a4cfebc5b4d2fcd54320247f1278a425364736f6c63430008080033",
  "linkReferences": {},
  "deployedLinkReferences": {}
}