{
  "_format": "hh-sol-artifact-1",
  "contractName": "DiamondInit",
  "sourceName": "contracts/validator/DiamondInit.sol",
  "abi": [
    {
      "inputs": [
        {
          "internalType": "string",
          "name": "baseURI",
          "type": "string"
        },
        {
          "internalType": "uint256[5]",
          "name": "tokenId",
          "type": "uint256[5]"
        },
        {
          "internalType": "string[5]",
          "name": "tokenURI",
          "type": "string[5]"
        },
        {
          "internalType": "address",
          "name": "owner",
          "type": "address"
        },
        {
          "internalType": "uint96",
          "name": "royialtyFeeInBPS",
          "type": "uint96"
        }
      ],
      "name": "init",
      "outputs": [],
      "stateMutability": "nonpayable",
      "type": "function"
    }
  ],
  "bytecode": "0x608060405234801561001057600080fd5b50610a18806100206000396000f3fe608060405234801561001057600080fd5b506004361061002b5760003560e01c80637454c34314610030575b600080fd5b61004361003e36600461086a565b610045565b005b61004d610547565b7fc8fcad8db84d3cc18b4c41d551ea0ee66dd599cde068d998e57d5e09332c131f60209081527f699d9daa71b280d05a152715774afa0a81a312594b2d731d6b0b2552b7d6f69f805460017fffffffffffffffffffffffffffffffffffffffffffffffffffffffffffffff0091821681179092557ff97e938d8af42f52387bb74b8b526fda8f184cc2aa534340a8d75a88fbecc77580548216831790557f65d510a5d8f7ef134ec444f7f34ee808c8eeb5177cdfd16be0c40fe1ab43369580548216831790557f5622121b47b8cd0120c4efe45dd5483242f54a3d49bd7679be565d47694918c380548216831790557f845f7f8d885943dffdc1524acbd9538b2923f93aad26d306df3b8982c7f0632d80548216831790557fcda23395996795f7b8155822fcc6171125c877448c68566f10ccabd60b06eb2780548216831790557f085d64e5de4e09d30b79d2fad2efb2eca17cc49dfdd6a9b6f0749b3d6bceb10c80548216831790557f2a55205a000000000000000000000000000000000000000000000000000000006000527f0306b2e4a53af38a838ab3669d25ec0c1c034acfdbc7196c0eee0709be2858cc8054909116821790557fd5b0c411a6c50ab7237d5bdf5f4be539f3a9603f77c2fe2a10b3944fcb2c324b90815586517fc8fcad8db84d3cc18b4c41d551ea0ee66dd599cde068d998e57d5e09332c131c927f66bd28df09c9271bd5696185e1f2db071a0ed825a4f7df621c22ef195c811e9f9161029e917f66bd28df09c9271bd5696185e1f2db071a0ed825a4f7df621c22ef195c811ea491908b0190610616565b5060005b6005811015610309578681600581106102bd576102bd61093d565b60200201516006830160008a84600581106102da576102da61093d565b602002015181526020019081526020016000209080519060200190610300929190610616565b506001016102a2565b506bffffffffffffffffffffffff8416740100000000000000000000000000000000000000000273ffffffffffffffffffffffffffffffffffffffff8616176007820155600060098201556001600a8201556002600b8201556003600c8201556004600d820155604080516060810190915260228082526109c16020830139805161039e916003840191602090910190610616565b506040805180820190915260058082527f716441563100000000000000000000000000000000000000000000000000000060209092019182526103e5916004840191610616565b506000808052600e808301602090815260408084206301c9c3809055600180855281852062273af89055600280865282862062032af090556003808752838720613ab69055600480885284882061033c905567016345785d8a000060158a015561213460358a01556105dc60368a01556103e860228a01556109c460238a015561271060248a015561070860118a0181905560128a01554260138a01556104b0602c8a015561025860148a0155878052603f90980190945282862086905590855281852060649055845280842060c8908190559184528084209190915592825282822061012c9081905560058352838320819055600683528383205560078252828220610190908190556008835283832081905560098352838320819055600a835283832055600b82528282206101f490819055600c8352838320819055600d8352838320819055908252828220819055600f82529190205550505050505050565b7fc8fcad8db84d3cc18b4c41d551ea0ee66dd599cde068d998e57d5e09332c131c6004015473ffffffffffffffffffffffffffffffffffffffff163314610614576040517f08c379a000000000000000000000000000000000000000000000000000000000815260206004820152602260248201527f4c69624469616d6f6e643a204d75737420626520636f6e7472616374206f776e60448201527f6572000000000000000000000000000000000000000000000000000000000000606482015260840160405180910390fd5b565b8280546106229061096c565b90600052602060002090601f016020900481019282610644576000855561068a565b82601f1061065d57805160ff191683800117855561068a565b8280016001018555821561068a579182015b8281111561068a57825182559160200191906001019061066f565b5061069692915061069a565b5090565b5b80821115610696576000815560010161069b565b7f4e487b7100000000000000000000000000000000000000000000000000000000600052604160045260246000fd5b60405160a0810167ffffffffffffffff81118282101715610701576107016106af565b60405290565b600082601f83011261071857600080fd5b813567ffffffffffffffff80821115610733576107336106af565b604051601f83017fffffffffffffffffffffffffffffffffffffffffffffffffffffffffffffffe0908116603f01168101908282118183101715610779576107796106af565b8160405283815286602085880101111561079257600080fd5b836020870160208301376000602085830101528094505050505092915050565b600082601f8301126107c357600080fd5b6107cb6106de565b8060a08401858111156107dd57600080fd5b845b8181101561081a57803567ffffffffffffffff8111156107ff5760008081fd5b61080b88828901610707565b855250602093840193016107df565b509095945050505050565b803573ffffffffffffffffffffffffffffffffffffffff8116811461084957600080fd5b919050565b80356bffffffffffffffffffffffff8116811461084957600080fd5b6000806000806000610120868803121561088357600080fd5b853567ffffffffffffffff8082111561089b57600080fd5b6108a789838a01610707565b96506020915088603f8901126108bc57600080fd5b6108c46106de565b8060c08a018b8111156108d657600080fd5b848b015b818110156108f157803584529285019285016108da565b50909750359250508082111561090657600080fd5b50610913888289016107b2565b93505061092260e08701610825565b9150610931610100870161084e565b90509295509295909350565b7f4e487b7100000000000000000000000000000000000000000000000000000000600052603260045260246000fd5b600181811c9082168061098057607f821691505b602082108114156109ba577f4e487b7100000000000000000000000000000000000000000000000000000000600052602260045260246000fd5b5091905056fe51756172727944726177202d204176616c616e6368652056616c696461746f722031a2646970667358221220776ae5973e1a4cb117d8414b3a06d5ebc79c6aa15c7b95e596bbb77d1b4d80a564736f6c63430008080033",
  "linkReferences": {},
  "deployedLinkReferences": {}
}