{
  "_format": "hh-sol-artifact-1",
  "contractName": "DiamondInit",
  "sourceName": "contracts/validator/DiamondInit.sol",
  "abi": [
    {
      "inputs": [
        {
          "internalType": "string",
          "name": "baseURI",
          "type": "string"
        },
        {
          "internalType": "uint256[5]",
          "name": "tokenId",
          "type": "uint256[5]"
        },
        {
          "internalType": "string[5]",
          "name": "tokenURI",
          "type": "string[5]"
        },
        {
          "internalType": "address",
          "name": "owner",
          "type": "address"
        },
        {
          "internalType": "uint96",
          "name": "royialtyFeeInBPS",
          "type": "uint96"
        }
      ],
      "name": "init",
      "outputs": [],
      "stateMutability": "nonpayable",
      "type": "function"
    }
  ],
  "bytecode": "0x608060405234801561001057600080fd5b506128d2806100206000396000f3fe608060405234801561001057600080fd5b506004361061002b5760003560e01c80637454c34314610030575b600080fd5b61004a60048036038101906100459190612692565b61004c565b005b6100787f54c7734d02d5837792ccec4d6ff089dd870658858c1661ffff8756de2039454060001b611e1b565b6100a47fc1722605a8e2aea8f9c0e5221971077905c40b95fbc650c9efa774588d5485e760001b611e1b565b6100d07fb9e7eb7c961564ba659a17c12a956ee61dd40b88ba1c28c62202dec01602498760001b611e1b565b6100d8611e1e565b6101047f85d315602c63fb8da7ab97cb5e7fa4f30fd6c54128fda5bce50a537ef852a15c60001b611e1b565b6101307fa5b1ac1fb8d2ec2dc1b529a7032ac02bfa4d364352b2ce514d36436d2896e58060001b611e1b565b600061013a611f95565b90506101687f0e8300a20440a7d098801e1bb7788d59abae60148b3911ba02031497d2232faf60001b611e1b565b6101947fbaeaead9a340f09cb51754575a433ab828714c2fca8a8de25b46989fd602101b60001b611e1b565b60018160030160007f01ffc9a7000000000000000000000000000000000000000000000000000000007bffffffffffffffffffffffffffffffffffffffffffffffffffffffff19167bffffffffffffffffffffffffffffffffffffffffffffffffffffffff1916815260200190815260200160002060006101000a81548160ff02191690831515021790555061024c7fc7705edfa1d32becd46a329725f222b531e8f7d1e1d314c92843c10cc0c1847560001b611e1b565b6102787f3f141bdd00144d985181ffc3b139c7c57e4ed1556d741cb64b15101b19b307e360001b611e1b565b60018160030160007f1f931c1c000000000000000000000000000000000000000000000000000000007bffffffffffffffffffffffffffffffffffffffffffffffffffffffff19167bffffffffffffffffffffffffffffffffffffffffffffffffffffffff1916815260200190815260200160002060006101000a81548160ff0219169083151502179055506103307f056300a405e99672d72afd1738bcbf9de00de976a40fb6cc568f569b6ca274b860001b611e1b565b61035c7feb484246b57652dc3126918547f5741754d065b36daccf7d649d2fad40b14cc060001b611e1b565b60018160030160007f48e2b093000000000000000000000000000000000000000000000000000000007bffffffffffffffffffffffffffffffffffffffffffffffffffffffff19167bffffffffffffffffffffffffffffffffffffffffffffffffffffffff1916815260200190815260200160002060006101000a81548160ff0219169083151502179055506104147f851b467d3100beb2dbe7a2a278a7dca8fa9b2c20ed65b65f621d581e8bcb9db460001b611e1b565b6104407f2d60bb37f5af165510a92a5af34a538a6138b3fe4b7a37fdedf45574f9125c7760001b611e1b565b60018160030160007f7f5828d0000000000000000000000000000000000000000000000000000000007bffffffffffffffffffffffffffffffffffffffffffffffffffffffff19167bffffffffffffffffffffffffffffffffffffffffffffffffffffffff1916815260200190815260200160002060006101000a81548160ff0219169083151502179055506104f87ff7d2a24ca9b38c48121804fae0f1fe02345bb3b8867ddf179614c1b9bfba75f060001b611e1b565b6105247f99db4f29a7f48b286d70be542c611f972cd53dd38306c5e8a1e7900bc8b5a8f860001b611e1b565b60018160030160007fd9b67a26000000000000000000000000000000000000000000000000000000007bffffffffffffffffffffffffffffffffffffffffffffffffffffffff19167bffffffffffffffffffffffffffffffffffffffffffffffffffffffff1916815260200190815260200160002060006101000a81548160ff0219169083151502179055506105dc7ffbefcc6c3ccff17499a2bd4a244b0cbbdcc10b71a26c7fd753727426daf1b2f060001b611e1b565b6106087f6725f14979f9eb5db65d600cfd516b02a196472dfd331b019721a948cced429c60001b611e1b565b60018160030160007f0e89341c000000000000000000000000000000000000000000000000000000007bffffffffffffffffffffffffffffffffffffffffffffffffffffffff19167bffffffffffffffffffffffffffffffffffffffffffffffffffffffff1916815260200190815260200160002060006101000a81548160ff0219169083151502179055506106c07f25a574737ef7c89c9e10ed8369c00d74406947960e6d57c3f9f8cc441753d27b60001b611e1b565b6106ec7f278beff7c144a3184b89216182aa3ac15a5701ffdfd2a23d2a12f752b48de02a60001b611e1b565b60018160030160007f4e2312e0000000000000000000000000000000000000000000000000000000007bffffffffffffffffffffffffffffffffffffffffffffffffffffffff19167bffffffffffffffffffffffffffffffffffffffffffffffffffffffff1916815260200190815260200160002060006101000a81548160ff0219169083151502179055506107a47fec56eeba5efad28be37210b07673f734864a4cb9ce16192b5692accae7a53b2a60001b611e1b565b6107d07f2aa9963f07d67f73d1490988efaf4ce1dd1ae9a78898dd1d64ea7f561e164bc760001b611e1b565b60018160030160007f2a55205a000000000000000000000000000000000000000000000000000000007bffffffffffffffffffffffffffffffffffffffffffffffffffffffff19167bffffffffffffffffffffffffffffffffffffffffffffffffffffffff1916815260200190815260200160002060006101000a81548160ff0219169083151502179055506108887ffb7e898d3f9339f8d445b7db30e4019bd9d3f4984465f594d0fc5fec01b0b7fc60001b611e1b565b6108b47f72b8164972f75acae7c8c17a6ac719a1b09bf2bb2ae425600a99bd64ed5740aa60001b611e1b565b60006108be612073565b90506108ec7fc795872b7ab10348c334c82ba3e44fea9bf71073a08e65f48e62d0a9ef0af14e60001b611e1b565b6109187f1a9e81b4d5047ec90792461bb40934fbb7645ca7a9f4fa396b0637071040059860001b611e1b565b6001816000018190555061094e7f19a90998f6172128bcad34ab1b6616bd2c2c917fa328fcf391c3017d9ae950c060001b611e1b565b61097a7ffca0561b1822e85d622107a6dc7acce5f92d6ed1103cc857dc8db9dd0a1f537c60001b611e1b565b6000610984612151565b90506109b27f0f079b09ce90506724f88ca02f0a08a6e70ccad75dd6a4ae6dd305866f5ad1d060001b611e1b565b6109de7ffef690fa40dc16643bcec3898532b99bc645c9e90ed6e457e5dd9c0003f29af460001b611e1b565b878160000160050190805190602001906109f9929190612238565b50610a267fcd795f551e28dd69c32cc9f387f3e05fb680e4ea90e4813db72d76a92e1cc5e260001b611e1b565b610a527f0c54722f6149365827d3442e9486e48bef6d30f41a15312ed949704d05c4cc5360001b611e1b565b60005b6005811015610b7457610a8a7fa6cd087a62337b6fee1f1b7a6fc42e0899fa5d0522e0ada803b0e8fa5bac678560001b611e1b565b610ab67f1f3f7175f4360079c6ac74507e0c1fe2094f45b9e1986b6d4bc8727686d4343c60001b611e1b565b868160058110610ac957610ac8612747565b5b60200201518260000160060160008a8460058110610aea57610ae9612747565b5b602002015181526020019081526020016000209080519060200190610b10929190612238565b50610b3d7f717fc6dd6a73bfbe411dbd27e17e1cb435ff133173f51b0cc7f43dbfa20426db60001b611e1b565b610b697ffd581c74dc97ff7b0cba25e2ad40ba037c26873b6454b24288de1d02c01632c460001b611e1b565b806001019050610a55565b50610ba17fbfe37f85b676f3bcd76777a5f6db9f83c91ddf121a926e0e3874b4f14673d2d360001b611e1b565b610bcd7fa28fef432a461297cb9c53ba9528b078a3aa9c37838307c12b85521eef5a4d0560001b611e1b565b848160000160070160000160006101000a81548173ffffffffffffffffffffffffffffffffffffffff021916908373ffffffffffffffffffffffffffffffffffffffff160217905550610c427fd5a926c4915222fdf867c10f0d57f9d1a1a2c3f8c7390d1f3fc11ac82857f05160001b611e1b565b610c6e7f9e466b694dc1afae1d2dcf46017ea78fd721bff5c4f39565ef1e6f13968f7a7e60001b611e1b565b838160000160070160000160146101000a8154816bffffffffffffffffffffffff02191690836bffffffffffffffffffffffff160217905550610cd37fd1c1a463f4180d83712b019ca8894746b12d203f3047eba3f319eec92da79ead60001b611e1b565b610cff7f8f1c7ea3cd27d249a2020492108450ca274266fd6e88f397848a69918ddef75f60001b611e1b565b60008160000160090181905550610d387f3efb2d3d19df0808b55b3a116a93df6c2030a7598be841e337d80014f9d6c29860001b611e1b565b610d647f50401d4996fa3adbe3bd2a3675af14739dfe9cb888d625b78483c5b496e5a88960001b611e1b565b600181600001600a0181905550610d9d7fac551c7c0fb7002e1c34545503208c0f5e65f7041b6b3b442a675f89e6c0abdb60001b611e1b565b610dc97f5a8209ca272ebfb7d00563d00e9353a733ad38f33cff4f5e3547c4df64e5288060001b611e1b565b600281600001600b0181905550610e027fcd66ddeb765c1277360f1be735b52a694a8aadb23493d4930d2dd6ef5c69acba60001b611e1b565b610e2e7fee730ddc6895d3780447ef790e8f86e5b3a32a2a24c9cc0f8a0ef40f75479e3360001b611e1b565b600381600001600c0181905550610e677f082a5de73a42ee2ef95052f98aa94cad2fcd169f29a4dfa1c562c7ebe4e49e3160001b611e1b565b610e937f98f4a8e22f22c324259154605cccfc6a5510754b745f7bf1546bbc3af110273f60001b611e1b565b600481600001600d0181905550610ecc7f8603587969d8ba1ec7e4052e3b6363bbeebffedc2adeb1598fada04864be583260001b611e1b565b610ef87f62f0c7b5907b8985bc81a3289823e9b1ff72e5373b1d02a5e0bb0596a46d8ffb60001b611e1b565b60405180606001604052806022815260200161287b60229139816000016003019080519060200190610f2b929190612238565b50610f587f4092d8affca7e51845df59c44988ac1f66517d9f41f6c1eb71bad585e2ea2e9460001b611e1b565b610f847f12cc25201bca2955b3158c9c902b9cef89f03bd2305d65708644959ae3e918c260001b611e1b565b6040518060400160405280600581526020017f7164415631000000000000000000000000000000000000000000000000000000815250816000016004019080519060200190610fd4929190612238565b506110017fe92781f58b39b3297f154fd4deded60db0c68c06ce34a926fe6db4b9c1b132c360001b611e1b565b61102d7f35c07ff834d5cb5901bb37f8dfca93564d96568d7c9869129b263c206850793d60001b611e1b565b6301c9c38081600001600e0160008081526020019081526020016000208190555061107a7f3e4a370eca416a507f42d7384a94772d227052bdeac344ffc4cb734493c69ba860001b611e1b565b6110a67f42ec15163c01351a6e0ab1bb2906bbedbeb59a5585de726005dce360156180ea60001b611e1b565b62273af881600001600e01600060018152602001908152602001600020819055506110f37f0d062bc3715c4a8554db770012f2e2a39abdbfef400b54ee3ce061c413370cf460001b611e1b565b61111f7fdf4eb8822467a903a8db7b11220adadbc09702ae7092049fe56f74fbcdb1f33260001b611e1b565b62032af081600001600e016000600281526020019081526020016000208190555061116c7ffcf06e6edf3e8375e4e61cf52fcd3d1429511f2a89c67e5d93a96e6250bdc1d360001b611e1b565b6111987f81102186b38aa454d4bc4dbf712f0fc82ccb79d0e732b44bb3aefab9cf227f4960001b611e1b565b613ab681600001600e01600060038152602001908152602001600020819055506111e47f48eb87f7a677a7f5618d232e6d13dfda3a3352b86fe7c1ab8c8c2fbd2878636e60001b611e1b565b6112107ff571b24a262ff82ac9ad786651d0ab46c2923effd6004988253188e79cf4241660001b611e1b565b61033c81600001600e016000600481526020019081526020016000208190555061125c7f77e434487e617a52dc34d05e842d90c0c278e0a82eeb1118cddf8f450c5a77c660001b611e1b565b6112887ffc90b1b0202b33d0b6ddfd35248a7b9f236f855e1b1ecec6822bdee6aa41764360001b611e1b565b67016345785d8a000081600001601501819055506112c87fbb5194a76bdd285367e85a722a1edd880d908bcc4b7b84f40a900790d1b0486060001b611e1b565b6112f47fd1686387445cc081e8a0a477f8ee56ddb48dd44e79e1e0990802b1b99f49846f60001b611e1b565b612134816000016035018190555061132e7fb28a0dd683140468cc768925d236c0b734666f23ba54dd43d2c34c0b9b4237ec60001b611e1b565b61135a7f2b95b8549ae0f4e0f342506a9c7a10ca1f0934527a289bfa1ee3c347b964de1360001b611e1b565b6105dc81600001603601819055506113947f406f9956e46c09a09cc8f79d01cce9e9f3ecfda439ac3288e9cb8b3c650936b660001b611e1b565b6113c07f27dbdd1b30870e41f8b48daf8e81f6ac97656fdfc240008a93e1f41a0671ad9460001b611e1b565b6103e881600001602201819055506113fa7fd32772947d259d5008c2fbb2276d250ac1e5b38fe50079913d97ab9743e6d44e60001b611e1b565b6114267f20fd5fe51fc4e5ac3a395049167edec7c15e57d7c93fb208febae4492a226d0a60001b611e1b565b6109c481600001602301819055506114607f461ef8be7c573c6168f2778a2631322f152bb2c81ab30818bf78b0f48f5bfe5c60001b611e1b565b61148c7fca788ef85e212ba74800d0646cb214974400b3efa262cd31c7db3e0c986d51fa60001b611e1b565b61271081600001602401819055506114c67f514e7c4a05a63086046f902ad04c2e7aeddfa7d4c4e82515e6dd84b21e67920d60001b611e1b565b6114f27f8826d0c29469e21fd9366615891f0959e100e1ceb26b0f442edac32f6ed1683860001b611e1b565b610708816000016011018190555061152c7fcac91c91c42d8dbc0b5c50c974895e873e03ed5595961febe3195f020fee1bb560001b611e1b565b6115587fa3f1028fde5d987a53acef91e3b349c12a04ec39d0451bf42168e03d9230593360001b611e1b565b61070881600001601201819055506115927f93cdcfe97286497865fdc7f7c592805ec79e736db82898fb9969a0ca61d5187060001b611e1b565b6115be7f04166c3c995c6e09ccc70d127997fccbcdbe90e4fb1a140a244409338fa27fdc60001b611e1b565b4281600001601301819055506115f67f625c3daa95ab38c4246520c36bd54d6cfc663037510b46f3e2db7cdc53c33acc60001b611e1b565b6116227f3c90d4b1ed2f3040d07172785b80fac7c2ca43d5af25438958b18826255568f460001b611e1b565b6104b081600001602c018190555061165c7f96bb8054faf798581e5cff9a4003dc4f4384d0f24c9c085294f5feb6637216af60001b611e1b565b6116887fd6dcba8c0283af5d937d79b611058294676ac9119a7b6abdb10f5ed1d6e91c0e60001b611e1b565b61025881600001601401819055506116c27fd8655c4fff0fe80982204e3a42355b1e4b6ee3fe1c2460638a4a572be9d0c37a60001b611e1b565b6116ee7fa150a59ce4ddfe73a61f85f56f66bf6d23c27927020129264f56b9bfb6b9b40660001b611e1b565b600081600001603f016000808152602001908152602001600020819055506117387fb4db49ba56fcef2bd88e5d014eb4d9da7a85bbb5c7e0c09a236d5b67ee6d9b8160001b611e1b565b6117647ff9424ea5ce5cc0200297ed3c996adde845c4d0a2d84220535d77f49f7a04fd2160001b611e1b565b606481600001603f01600060018152602001908152602001600020819055506117af7f47867d8a65c2ea857e87ae5c3230899e85f09f95f438d3f3adfcff435351350460001b611e1b565b6117db7ff7a2293c628f7b90a77614ece25cc69c6c269ed99d28bfb12683dc8e7f855b2c60001b611e1b565b60c881600001603f01600060028152602001908152602001600020819055506118267f82e126d29e8ad9c51a3f5d272e89bfc74c677fc3e3d86f8042d3fb4648a9f39760001b611e1b565b6118527fe7dc860df09ff50c386fc8e077516842e25d68987dd9646d0528cb3aa28f944660001b611e1b565b60c881600001603f016000600381526020019081526020016000208190555061189d7f1c402262fc2c6b1514a6960a482fb7585af20d9d6bd9613c996b4d17d60e76ce60001b611e1b565b6118c97fa70371fcbc137230ced1585d409a39807bd8edc93e6f6954e8b8d66ec934561060001b611e1b565b61012c81600001603f01600060048152602001908152602001600020819055506119157feb1ffd7fdddc6fdd65ff0c1424c79bfd647b55a19d3eaac40f28de85f0affb4260001b611e1b565b6119417f478a12299e0bbf5753c10ffcfa18fa3fdaca9a1eddcaf285decca39ca9d705dd60001b611e1b565b61012c81600001603f016000600581526020019081526020016000208190555061198d7fa9f8c8c12a92369d6de4b10129c3354d4ef4f7f767226211a52ebeabaafafabb60001b611e1b565b6119b97f8ca79cd413c8d47471156a3434e88058f4cc70275895ab719a8f7fc58a788ddd60001b611e1b565b61012c81600001603f0160006006815260200190815260200160002081905550611a057f9739c68a45b0f3671cf70137d4af73cb89effd2f3afebfc97de9de1b87641d3f60001b611e1b565b611a317ffab6fea308c5ec559d2768777bc18882db672c12ca3d6fb521a5c8aa98007c5160001b611e1b565b61019081600001603f0160006007815260200190815260200160002081905550611a7d7f59a5e32cd123762d3fed24174defa533d8c9db2b4b206c7cce622abcfab535fa60001b611e1b565b611aa97f533a86696369bd9357d1506c2f40f4df5d8058cfcba5c4e32dddd2c1612ed83160001b611e1b565b61019081600001603f0160006008815260200190815260200160002081905550611af57f541654ebd3356f7c9c1128e3286d6d2d87200076f9019e679dee86673ef9e0b160001b611e1b565b611b217f8a272a82b8a8bb0769c9f51e663e868c092fb83dbf63b8d4cb3c7ff6244b986360001b611e1b565b61019081600001603f0160006009815260200190815260200160002081905550611b6d7f17f2b54fa8992a3a54fece3e5836b50c8693009b70259f866b6beb8b8cc23fbb60001b611e1b565b611b997f2135e00311a865c3c91925183177ddede9fc2d91d44321fd08fc05c3bd5aa4cf60001b611e1b565b61019081600001603f016000600a815260200190815260200160002081905550611be57f326e3ec99851a1daae70e80563d5b5a017fd07c205d48a7b40cf18a694e5b37d60001b611e1b565b611c117fc7ac2c067f279346cb2bc116662daabf2665436a56c1c8f7ec0e98966a75564360001b611e1b565b6101f481600001603f016000600b815260200190815260200160002081905550611c5d7ff412209cafed43b874cf3cf138303f582a5c5f97c5991e9ff7b66208f843f4d860001b611e1b565b611c897fa24fcbd4cce40836e396c869c73530064779ec5f0a0771f7fcac56e53622c0ff60001b611e1b565b6101f481600001603f016000600c815260200190815260200160002081905550611cd57fd6c2d397283ccb35c3c6e57f6a6847198bd0fe6af6f48e57e3e9779f25b6305a60001b611e1b565b611d017f25db42bbd5df469656ba0928b141357bb04675ab90417e196a877460ca7e6b0d60001b611e1b565b6101f481600001603f016000600d815260200190815260200160002081905550611d4d7f1879dcceb615c6596a635df16b0e3123e063a7aaf48a80345c33d4bf4bc9f76460001b611e1b565b611d797f8ce843e8b088e209722e358f40a73d6d23c5da86b3b66dbad3ce0cfa4410a1a760001b611e1b565b6101f481600001603f016000600e815260200190815260200160002081905550611dc57f0f0145e239e56acecdbaefc11c155e7d4b2634ae6d4a4da01f1a327776d90f7e60001b611e1b565b611df17f66a1e079cd3b73f8fea0eb671ba1acc20eb777d1cdab57f4501049ee486ed7bf60001b611e1b565b6101f481600001603f016000600f8152602001908152602001600020819055505050505050505050565b50565b611e4a7f8ec893aa791af6d537b40b870ff7ef56c54ae8a708be175378c040664553b80460001b61222f565b611e767f824439d7b8ad3ccfc6a7b84ff290c16ad57b8ed19354a8132169fe7b4a23848960001b61222f565b611ea27fde962410e963206a6c991c90517542e866b35c809d27fc95d7790e31e66921ef60001b61222f565b611ece7f52562fb46539559f16c752a8b6ddc12e90d4b756fa35d521eb041d5c22f96f4f60001b61222f565b611ed6611f95565b60040160009054906101000a900473ffffffffffffffffffffffffffffffffffffffff1673ffffffffffffffffffffffffffffffffffffffff163373ffffffffffffffffffffffffffffffffffffffff1614611f67576040517f08c379a0000000000000000000000000000000000000000000000000000000008152600401611f5e906127f9565b60405180910390fd5b611f937f3abeaa9a7a5c31ab81cb64392449308332497436d08567b980542059c6cc865d60001b61222f565b565b6000611fc37f37624c78b12de03a5f297d9c950f3c6fc4b70342068ec5e4685d0b6d5384bc8960001b61222f565b611fef7f6224ad2357ddfdde3d06e7d433de8597a0c802b5961d43d3d5667abb8dcefc1360001b61222f565b61201b7f4ba10ed08791a423d97bea0744f82f3448aa933f5dc1d334f2aa7799e156fba360001b61222f565b60007fc8fcad8db84d3cc18b4c41d551ea0ee66dd599cde068d998e57d5e09332c131c905061206c7f3459e835b9cbe60eac3148958d95eace06d7b6690e6dc02cb6b8a1ff93a77d7660001b61222f565b8091505090565b60006120a17f056d3c331e41d5b766933482247804dd3546d9bcfab987ae9703d1a457e7c6ea60001b612232565b6120cd7f0da131d8f8014c05ef653bc670cf175a0e5cde992a8612ad7ccf33573906d79760001b612232565b6120f97f5bb3f1974d080b77263126d43238ce426edfb2c38411144819732805196616f960001b612232565b60007fd5b0c411a6c50ab7237d5bdf5f4be539f3a9603f77c2fe2a10b3944fcb2c324b905061214a7f7a53e5af97f3281f34529062653a5fc0cb6736ef23b9cec41b16b00384c142cb60001b612232565b8091505090565b600061217f7fcbba79f9261db078091467664d5b84589857124d13216bd4514646c8c76d025a60001b612235565b6121ab7f724646df3e0020e3b200b7c2cdf653dfe7c4d57f2e237999b185e7819550fa2f60001b612235565b6121d77fc9b67fad89b63ae30277c8a003424347566f29554d769ff61cd52986b61de40360001b612235565b60007f66bd28df09c9271bd5696185e1f2db071a0ed825a4f7df621c22ef195c811e9f90506122287fd550276b708b0edc784cb9667d4f336122f90f3c3857eafd0852a0b28138047160001b612235565b8091505090565b50565b50565b50565b82805461224490612848565b90600052602060002090601f01602090048101928261226657600085556122ad565b82601f1061227f57805160ff19168380011785556122ad565b828001600101855582156122ad579182015b828111156122ac578251825591602001919060010190612291565b5b5090506122ba91906122be565b5090565b5b808211156122d75760008160009055506001016122bf565b5090565b6000604051905090565b600080fd5b600080fd5b600080fd5b600080fd5b6000601f19601f8301169050919050565b7f4e487b7100000000000000000000000000000000000000000000000000000000600052604160045260246000fd5b612342826122f9565b810181811067ffffffffffffffff821117156123615761236061230a565b5b80604052505050565b60006123746122db565b90506123808282612339565b919050565b600067ffffffffffffffff8211156123a05761239f61230a565b5b6123a9826122f9565b9050602081019050919050565b82818337600083830152505050565b60006123d86123d384612385565b61236a565b9050828152602081018484840111156123f4576123f36122f4565b5b6123ff8482856123b6565b509392505050565b600082601f83011261241c5761241b6122ef565b5b813561242c8482602086016123c5565b91505092915050565b600067ffffffffffffffff8211156124505761244f61230a565b5b602082029050919050565b600080fd5b6000819050919050565b61247381612460565b811461247e57600080fd5b50565b6000813590506124908161246a565b92915050565b60006124a96124a484612435565b61236a565b905080602084028301858111156124c3576124c261245b565b5b835b818110156124ec57806124d88882612481565b8452602084019350506020810190506124c5565b5050509392505050565b600082601f83011261250b5761250a6122ef565b5b6005612518848285612496565b91505092915050565b600067ffffffffffffffff82111561253c5761253b61230a565b5b602082029050919050565b600061255a61255584612521565b61236a565b905080602084028301858111156125745761257361245b565b5b835b818110156125bb57803567ffffffffffffffff811115612599576125986122ef565b5b8086016125a68982612407565b85526020850194505050602081019050612576565b5050509392505050565b600082601f8301126125da576125d96122ef565b5b60056125e7848285612547565b91505092915050565b600073ffffffffffffffffffffffffffffffffffffffff82169050919050565b600061261b826125f0565b9050919050565b61262b81612610565b811461263657600080fd5b50565b60008135905061264881612622565b92915050565b60006bffffffffffffffffffffffff82169050919050565b61266f8161264e565b811461267a57600080fd5b50565b60008135905061268c81612666565b92915050565b600080600080600061012086880312156126af576126ae6122e5565b5b600086013567ffffffffffffffff8111156126cd576126cc6122ea565b5b6126d988828901612407565b95505060206126ea888289016124f6565b94505060c086013567ffffffffffffffff81111561270b5761270a6122ea565b5b612717888289016125c5565b93505060e061272888828901612639565b92505061010061273a8882890161267d565b9150509295509295909350565b7f4e487b7100000000000000000000000000000000000000000000000000000000600052603260045260246000fd5b600082825260208201905092915050565b7f4c69624469616d6f6e643a204d75737420626520636f6e7472616374206f776e60008201527f6572000000000000000000000000000000000000000000000000000000000000602082015250565b60006127e3602283612776565b91506127ee82612787565b604082019050919050565b60006020820190508181036000830152612812816127d6565b9050919050565b7f4e487b7100000000000000000000000000000000000000000000000000000000600052602260045260246000fd5b6000600282049050600182168061286057607f821691505b6020821081141561287457612873612819565b5b5091905056fe51756172727944726177202d204176616c616e6368652056616c696461746f722031a264697066735822122065da4816847053f922a7f5f1e51aa9949bda39ea2e530bb01c4b629f0054ec4564736f6c63430008080033",
  "linkReferences": {},
  "deployedLinkReferences": {}
}