{
  "_format": "hh-sol-artifact-1",
  "contractName": "AvalancheValidatorTokenFacet",
  "sourceName": "contracts/validator/facets/AvalancheValidatorTokenFacet.sol",
  "abi": [
    {
      "inputs": [],
      "name": "CannotSetMaretPriceWithoutOracleTimestamp",
      "type": "error"
    },
    {
      "inputs": [],
      "name": "PricePerTokenIsNull",
      "type": "error"
    },
    {
      "inputs": [],
      "name": "UpdateNotPossible",
      "type": "error"
    },
    {
      "anonymous": false,
      "inputs": [
        {
          "indexed": true,
          "internalType": "bool",
          "name": "created",
          "type": "bool"
        },
        {
          "indexed": true,
          "internalType": "address",
          "name": "token",
          "type": "address"
        }
      ],
      "name": "Token",
      "type": "event"
    },
    {
      "anonymous": false,
      "inputs": [
        {
          "indexed": false,
          "internalType": "uint256",
          "name": "time",
          "type": "uint256"
        },
        {
          "indexed": false,
          "internalType": "uint256",
          "name": "price",
          "type": "uint256"
        }
      ],
      "name": "TokenFeedUpdated",
      "type": "event"
    },
    {
      "anonymous": false,
      "inputs": [
        {
          "indexed": true,
          "internalType": "address",
          "name": "token",
          "type": "address"
        },
        {
          "indexed": true,
          "internalType": "uint256",
          "name": "price",
          "type": "uint256"
        },
        {
          "indexed": false,
          "internalType": "uint256",
          "name": "oracleTimestamp",
          "type": "uint256"
        },
        {
          "indexed": false,
          "internalType": "bool",
          "name": "_fungible",
          "type": "bool"
        },
        {
          "indexed": false,
          "internalType": "string",
          "name": "data",
          "type": "string"
        }
      ],
      "name": "TokenManaged",
      "type": "event"
    },
    {
      "anonymous": false,
      "inputs": [
        {
          "indexed": true,
          "internalType": "address",
          "name": "costumer",
          "type": "address"
        },
        {
          "indexed": false,
          "internalType": "uint256",
          "name": "amount",
          "type": "uint256"
        },
        {
          "indexed": false,
          "internalType": "uint256",
          "name": "time",
          "type": "uint256"
        }
      ],
      "name": "avalancheValidatorShareSold",
      "type": "event"
    },
    {
      "inputs": [
        {
          "internalType": "address",
          "name": "_oracle",
          "type": "address"
        }
      ],
      "name": "addOracleAddress",
      "outputs": [
        {
          "internalType": "bool",
          "name": "",
          "type": "bool"
        }
      ],
      "stateMutability": "nonpayable",
      "type": "function"
    },
    {
      "inputs": [
        {
          "internalType": "address",
          "name": "_owner",
          "type": "address"
        },
        {
          "internalType": "address",
          "name": "_token",
          "type": "address"
        }
      ],
      "name": "createNewToken",
      "outputs": [
        {
          "internalType": "bool",
          "name": "",
          "type": "bool"
        }
      ],
      "stateMutability": "nonpayable",
      "type": "function"
    },
    {
      "inputs": [
        {
          "internalType": "address",
          "name": "_token",
          "type": "address"
        },
        {
          "internalType": "uint256",
          "name": "_amount",
          "type": "uint256"
        }
      ],
      "name": "mintAvalancheValidatorShareTokenERC20",
      "outputs": [
        {
          "internalType": "bool",
          "name": "",
          "type": "bool"
        }
      ],
      "stateMutability": "payable",
      "type": "function"
    },
    {
      "inputs": [
        {
          "internalType": "address",
          "name": "_token",
          "type": "address"
        },
        {
          "internalType": "uint256[]",
          "name": "_ids",
          "type": "uint256[]"
        }
      ],
      "name": "mintAvalancheValidatorShareTokenERC721",
      "outputs": [
        {
          "internalType": "bool",
          "name": "",
          "type": "bool"
        }
      ],
      "stateMutability": "payable",
      "type": "function"
    },
    {
      "inputs": [
        {
          "internalType": "address",
          "name": "_token",
          "type": "address"
        },
        {
          "internalType": "uint256",
          "name": "_pricePerToken_InTokenOverAvaxERC20_InAvaxOverTokenERC721_InWei",
          "type": "uint256"
        },
        {
          "internalType": "uint256",
          "name": "_newCollateralInWEI",
          "type": "uint256"
        },
        {
          "internalType": "uint240",
          "name": "_newCollateralIncentivesInWEI",
          "type": "uint240"
        },
        {
          "internalType": "uint16",
          "name": "_rebatePercentageInBPS",
          "type": "uint16"
        },
        {
          "internalType": "uint256",
          "name": "_updateTimestampOracle",
          "type": "uint256"
        },
        {
          "internalType": "bool",
          "name": "_fungible",
          "type": "bool"
        },
        {
          "internalType": "string",
          "name": "data",
          "type": "string"
        }
      ],
      "name": "ownerManageToken",
      "outputs": [
        {
          "internalType": "bool",
          "name": "",
          "type": "bool"
        }
      ],
      "stateMutability": "payable",
      "type": "function"
    },
    {
      "inputs": [
        {
          "internalType": "bool",
          "name": "pause",
          "type": "bool"
        }
      ],
      "name": "pauseTokenFacet",
      "outputs": [
        {
          "internalType": "bool",
          "name": "",
          "type": "bool"
        }
      ],
      "stateMutability": "nonpayable",
      "type": "function"
    },
    {
      "inputs": [
        {
          "internalType": "address",
          "name": "_token",
          "type": "address"
        },
        {
          "internalType": "uint256",
          "name": "_newCollateralInWEI",
          "type": "uint256"
        },
        {
          "internalType": "uint240",
          "name": "_newCollateralIncentivesInWEI",
          "type": "uint240"
        },
        {
          "internalType": "uint16",
          "name": "_rebatePercentageInBPS",
          "type": "uint16"
        },
        {
          "internalType": "uint256",
          "name": "_updateTimestampOracle",
          "type": "uint256"
        },
        {
          "internalType": "bool",
          "name": "_fungible",
          "type": "bool"
        },
        {
          "internalType": "string",
          "name": "data",
          "type": "string"
        }
      ],
      "name": "quarryDrawManageToken",
      "outputs": [
        {
          "internalType": "bool",
          "name": "",
          "type": "bool"
        }
      ],
      "stateMutability": "payable",
      "type": "function"
    },
    {
      "inputs": [
        {
          "internalType": "address",
          "name": "_token",
          "type": "address"
        }
      ],
      "name": "removeExistingToken",
      "outputs": [
        {
          "internalType": "bool",
          "name": "",
          "type": "bool"
        }
      ],
      "stateMutability": "nonpayable",
      "type": "function"
    },
    {
      "inputs": [
        {
          "internalType": "address",
          "name": "_oracle",
          "type": "address"
        }
      ],
      "name": "removeOracleAddress",
      "outputs": [
        {
          "internalType": "bool",
          "name": "",
          "type": "bool"
        }
      ],
      "stateMutability": "nonpayable",
      "type": "function"
    },
    {
      "inputs": [
        {
          "internalType": "address",
          "name": "_token",
          "type": "address"
        },
        {
          "internalType": "uint256",
          "name": "_value",
          "type": "uint256"
        }
      ],
      "name": "updateOracleFeed",
      "outputs": [
        {
          "internalType": "bool",
          "name": "",
          "type": "bool"
        }
      ],
      "stateMutability": "nonpayable",
      "type": "function"
    }
  ],
  "bytecode": "0x60806040523480156200001157600080fd5b506201194180620000236000396000f3fe608060405260043610620000c25760003560e01c80639ab72e191162000073578063c38f27921162000055578063c38f27921462000287578063db7c9d2114620002bd578063dd7170ca146200030157620000c2565b80639ab72e19146200020d578063a9dbffce146200025157620000c2565b80634605e1e111620000a95780634605e1e1146200014157806350e9673d146200018557806389ae591214620001c957620000c2565b8063015e571814620000c75780631e4fa4a7146200010b575b600080fd5b348015620000d457600080fd5b50620000f36004803603810190620000ed91906200ffe3565b62000337565b60405162000102919062010032565b60405180910390f35b620001296004803603810190620001239190620101c3565b62000796565b60405162000138919062010032565b60405180910390f35b3480156200014e57600080fd5b506200016d60048036038101906200016791906200ffe3565b62001ead565b6040516200017c919062010032565b60405180910390f35b3480156200019257600080fd5b50620001b16004803603810190620001ab9190620102af565b6200252d565b604051620001c0919062010032565b60405180910390f35b348015620001d657600080fd5b50620001f56004803603810190620001ef9190620102f6565b62002b12565b60405162000204919062010032565b60405180910390f35b3480156200021a57600080fd5b506200023960048036038101906200023391906200ffe3565b62002cf3565b60405162000248919062010032565b60405180910390f35b6200026f600480360381019062000269919062010328565b62003a88565b6040516200027e919062010032565b60405180910390f35b620002a560048036038101906200029f919062010569565b62005048565b604051620002b4919062010032565b60405180910390f35b348015620002ca57600080fd5b50620002e96004803603810190620002e39190620105cf565b62006836565b604051620002f8919062010032565b60405180910390f35b6200031f6004803603810190620003199190620105cf565b620071e0565b6040516200032e919062010032565b60405180910390f35b6000620003677f862fe8002413cb7f5ab545da86aa17ab3a34d1a7782119287851a5c7247f2f7060001b62008798565b620003957f456cbb0f504259afda69628c230ccb425f2d794b02370bad061d7cad9871727f60001b62008798565b620003c37f4ff4552197bf339bad0934e04f911b83f313ec0d0a3fcb15a66e140ec86e44c460001b62008798565b620003cd6200879b565b620003fb7fb8c4d9f8cdb9adbb45a32a120f7244e9f66e740a80843737b40f3c62df3e5c2160001b62008798565b620004297febdee82ace1315598cba76a41e510ecc2e3e31c48adf081f36efc3e997c4223a60001b62008798565b6200043362008946565b620004617f78f5ee4b3dbc7c880aa3a1e2bdf48b100a115549174e1780dd1090ce11d06d3760001b62008798565b6200048f7f51241f093fe1872180df2eb956142820a77f9960ea91ea815bf343d959b3eca960001b62008798565b6200049a8262008acc565b620004c87fea19c6c59999c893aac9902bdd81c316841e1a8ce3f5f7229ce5ffee1aca7fca60001b62008798565b620004f67fb1b5c39cb5d49334ab9b1343b247bd43bb6011719e02d71be057a3b05080179d60001b62008798565b60006200050262008c03565b9050620005327fb5d75cd38961b3b3c53efcf304c51a8379a087c6e5e8dc0fd3805e78724e83b960001b62008798565b620005607f7e10b1841f0bf997dec7d5ea38a51ed775909690903d795a55ab7de24c55307060001b62008798565b600181600001601f0160008573ffffffffffffffffffffffffffffffffffffffff1673ffffffffffffffffffffffffffffffffffffffff16815260200190815260200160002060006101000a81548160ff021916908315150217905550620005eb7f734ee81099a8aec40529eb1d185c0a24377df793de4ece3c58a0d77e31b5143a60001b62008798565b620006197f1440a94c3e8d6bb9e8c35e29ddb8f22eb3ec3a118825a15ce932829c860bb19560001b62008798565b80600001602101805490508160000160200160008573ffffffffffffffffffffffffffffffffffffffff1673ffffffffffffffffffffffffffffffffffffffff168152602001908152602001600020819055506200069a7f527fe1db80d482219db99a435fb3336b9b29826d25895e242bc4c03423b18e0c60001b62008798565b620006c87f1c0dd5de89985dafc84a267181a3465b7d204f07d0544eb0933c2b90b5c9697c60001b62008798565b80600001602101839080600181540180825580915050600190039060005260206000200160009091909190916101000a81548173ffffffffffffffffffffffffffffffffffffffff021916908373ffffffffffffffffffffffffffffffffffffffff1602179055506200075e7f9675a8520163b0c888dc0fce248b13f20c00712c0b4396a32b3c75a1c23cea9f60001b62008798565b6200078c7ff7da20d9bb43d6514c9f95493c3c00b094802fe2a61abc44fa036f4e07291af460001b62008798565b6001915050919050565b6000620007c67f92120479f5a613eaddb85dfb9fe1181340534bf185efd19aa5618bb549fea23460001b62008798565b620007f47f716014550acc11ac31573601a19fd044bd49c5c691c32548c63ff1e68ff9f8ca60001b62008798565b620008227f747327dc86e83f330c40fd69a18d33fe84d638558796a02f571873e3d8dec60860001b62008798565b6200082c6200879b565b6200085a7f1b9a42bd67f35c91f7093b08067d1c414141aa202a5791c422ba3eecce337ec160001b62008798565b620008887f29004822f1ad94b3f6bc97d1485f3498cd995b528eae676cb04c46bb4c029d7060001b62008798565b620008938a62008ce9565b620008c17fec8f1aa23740691a3527416c33a57202a49077263b4da80288fca56d3b26ca7960001b62008798565b620008ef7f0145806761c4a42d6b36ef0df9d6ea9081544e5dc82491287586355a6d01489760001b62008798565b620008fa8a62008e4d565b620009287f13c4392cf59fad7652371c3b7f9bdd3f6a1195e66639427d298bb1d07b0f3b3360001b62008798565b620009567f50400803775e1bb6bcc2abbeda1c3f074e36b58bb7676861d3b418b0e9f64a5260001b62008798565b60006200096262008c03565b9050620009927fdd9479efd5cb5aa44728b6061d4bee4298daa6d0d8ce8b515b74b0305dd1b5ce60001b62008798565b620009c07f4d963768ac24c62a585081fcb71286adcf4e519d160ec7b3932c835a1cfc756a60001b62008798565b6001151581600001601a0160008d73ffffffffffffffffffffffffffffffffffffffff1673ffffffffffffffffffffffffffffffffffffffff16815260200190815260200160002060009054906101000a900460ff161515141562000ade5762000a4d7f2388a6d58b2491d4cd73512005ca1780d7a1bc48a7cb3d04ca57b8f17a48e40d60001b62008798565b62000a7b7f80c954db8932a27a06a1f3539d9b9d088865994058dc560b2d2aea0b4d77ef3260001b62008798565b600081600001601a0160008d73ffffffffffffffffffffffffffffffffffffffff1673ffffffffffffffffffffffffffffffffffffffff16815260200190815260200160002060006101000a81548160ff02191690831515021790555062000b0d565b62000b0c7f20b95109fb8ae5e61038f74517d0e77df0fb173db26f7ef84dcebff5c0edeb8760001b62008798565b5b62000b3b7fe00f714ecdef00f5e99eb66e57fcc99b5c9124f36460a7a679833633f1492a3a60001b62008798565b62000b697f987cd757a8e2464c8a5a85b7607f42ee5e4febe2e51ea09ab6db11ef0445d1d860001b62008798565b62000b977f1d00eaec4bf536c9a40e7be22762f50cc21e576e32496cba6de037be9b298ac160001b62008798565b6127108761ffff16111562000be3576040517f08c379a000000000000000000000000000000000000000000000000000000000815260040162000bda9062010677565b60405180910390fd5b62000c117f5f2d29a3957a88767e54b14720e4c5bf48c683fb9f4b863436359d565fd8861d60001b62008798565b62000c3f7fd4eaa58c417ee82158acbbb06b7c6acd33e58369c3647040a18612995851e82560001b62008798565b62000c6d7f6716e6838a5656baf031ecc3c20888002e3e21cd24aa820d404a6e15263d893d60001b62008798565b62000c9b7f2bd28f48310ab6771781fd8687737751596916108b5c436d25694e5e6d469fa760001b62008798565b877dffffffffffffffffffffffffffffffffffffffffffffffffffffffffffff168962000cc99190620106c8565b34101562000d0e576040517f08c379a000000000000000000000000000000000000000000000000000000000815260040162000d059062010775565b60405180910390fd5b62000d3c7f8a3848e4a757a59410596ede726d089d5fc115f03213a2f5344e2091cad9a06360001b62008798565b62000d6a7f0d9905da246c42f4b475042a5ccd721b8bf737afee6d9735839b45599c626ab960001b62008798565b62000d987f92bd2e5f6cd28da87d1c88556b709524106c11a4b49f29447e6dc27a659b963b60001b62008798565b898160000160170160008d73ffffffffffffffffffffffffffffffffffffffff1673ffffffffffffffffffffffffffffffffffffffff168152602001908152602001600020600101541462000ec35762000e157f9ea9e1fff42054c72399f54d82da67f0ec10c1bb9037809e8668776c9f3a0e7560001b62008798565b62000e437f78394cf20e8326e7f5234bfc08570b2eb74e440f646265476ab199c604bdc3d560001b62008798565b62000e717f0b593cef3d1321a0b4801c1d4037b510bf252d4a121f9f1dab93e228c61f199060001b62008798565b898160000160170160008d73ffffffffffffffffffffffffffffffffffffffff1673ffffffffffffffffffffffffffffffffffffffff1681526020019081526020016000206001018190555062000ef2565b62000ef17f4a09ede9e8eb822ff4566e72cd29b416d062af65e654ac2231299a8e3fdce43e60001b62008798565b5b62000f207f2e0b486ac769097eed0e4d6f87660b0d1273cebc24bd62edf6cc413b6a15593260001b62008798565b62000f4e7f4db82e078107724f066c4b01351ad4b21e03b08e9153a5594b0e4b4ffd667c1660001b62008798565b888160000160170160008d73ffffffffffffffffffffffffffffffffffffffff1673ffffffffffffffffffffffffffffffffffffffff168152602001908152602001600020600201600082825462000fa79190620106c8565b9250508190555062000fdc7fc2b8434c2e52f2a285b3c47e0e618490f38360e8be5f2cbedea6ba27745212af60001b62008798565b6200100a7f8fb9943173a7db32c0365f8fe22f0644b3af9b21f829d4850a5e6f562a45ed4a60001b62008798565b878160000160170160008d73ffffffffffffffffffffffffffffffffffffffff1673ffffffffffffffffffffffffffffffffffffffff16815260200190815260200160002060030160008282829054906101000a90047dffffffffffffffffffffffffffffffffffffffffffffffffffffffffffff166200108c919062010797565b92506101000a8154817dffffffffffffffffffffffffffffffffffffffffffffffffffffffffffff02191690837dffffffffffffffffffffffffffffffffffffffffffffffffffffffffffff1602179055506200110c7f55bf46716762de9e01455c02b4a706daaa09231be92634a1d2e0ad638ebc9c9a60001b62008798565b6200113a7f8f6f3b923c4234c23dfad34137171c3b7f26c3ed3af26545cec115dcb9d74a8060001b62008798565b8661ffff168160000160170160008d73ffffffffffffffffffffffffffffffffffffffff1673ffffffffffffffffffffffffffffffffffffffff168152602001908152602001600020600301601e9054906101000a900461ffff1661ffff16146200129157620011cd7f9b688f5984ac22a15801131dd9619064cc4e5f643aa7fca5bc9ccf988e87354760001b62008798565b620011fb7fbb0bf3c7fdc4193830ea5fb5aadba91781144ad6cb7feb77e41a16a46144a28c60001b62008798565b620012297f92c7d3f6ae95cd225ec1fb14922455e3a4873e0d3f4bb6f0ff6629aefe194acd60001b62008798565b868160000160170160008d73ffffffffffffffffffffffffffffffffffffffff1673ffffffffffffffffffffffffffffffffffffffff168152602001908152602001600020600301601e6101000a81548161ffff021916908361ffff160217905550620012c0565b620012bf7f7746a91b08f03f4a24e64abad3bdcb38145723eff86a40b5e3cf714830517c5960001b62008798565b5b620012ee7f803a4ec79af37fb8ddfc1bd7aa1af4d7c13293108ea699eedc08ae4a8c24546e60001b62008798565b6200131c7f9eaa8631189a41e02f6763682ff3c7a6a77f6f5eb3cb3cb1376bcac0e5b21f4060001b62008798565b60008160000160170160008d73ffffffffffffffffffffffffffffffffffffffff1673ffffffffffffffffffffffffffffffffffffffff1681526020019081526020016000206001015414156200160a576200139b7fad90345b2e51ac2d1dfa54bd2c085aa82773d9955c73d6aa4a710ee14cccb4b460001b62008798565b620013c97f9cb905305afb494ecd46e3acf5798ea12312dc94325c7ff812726cc7b9b2085f60001b62008798565b620013f77f7d68bf5c42eb1b8a970c74bc4004d0bf9e1d17e59e9dcaba4899db4f7ec0cf7560001b62008798565b600181600001601e0160008d73ffffffffffffffffffffffffffffffffffffffff1673ffffffffffffffffffffffffffffffffffffffff16815260200190815260200160002060006101000a81548160ff021916908315150217905550620014827f3cbe6b5a4a081af98e3a52debe847fc08e3020484e11717c9b652b9d15aa858260001b62008798565b620014b07fc8b40e39e18a0c14f8db9d5f863bfa9f9b6ec8a476db427bfec41596c449155f60001b62008798565b8581600001601c0160008d73ffffffffffffffffffffffffffffffffffffffff1673ffffffffffffffffffffffffffffffffffffffff1681526020019081526020016000205414620015d5576200152a7fa4f5906c71e6a91e3424f0f3d8485d4eb707037c9c038a990ab0e02b6dfae09a60001b62008798565b620015587fbfa97c01b18fb765fdbbb56551882e2cca933de762c26c41c7593ed25d33e32260001b62008798565b620015867f542b229ffab03093ee004020dc6c3a4d56c4f91d9be322d1f3036a2bb089ae1960001b62008798565b8581600001601c0160008d73ffffffffffffffffffffffffffffffffffffffff1673ffffffffffffffffffffffffffffffffffffffff1681526020019081526020016000208190555062001604565b620016037ff1f59cf1e0b450aecb505858a544db344b5f6e7b5df1e8e9e6fb5427638ccc2560001b62008798565b5b6200199f565b620016387f372fb6d68112373ca51ce1d2ad9645eba868c860badf6042afac256d8bc1459a60001b62008798565b620016667f1b8cc71aea734ba6dcbae4b6a64f4f6bf49ffeb76591880873ef5837aaacc4b560001b62008798565b600081600001601c0160008d73ffffffffffffffffffffffffffffffffffffffff1673ffffffffffffffffffffffffffffffffffffffff168152602001908152602001600020541415801562001703575060008160000160170160008d73ffffffffffffffffffffffffffffffffffffffff1673ffffffffffffffffffffffffffffffffffffffff16815260200190815260200160002060010154145b15620017e357620017377f1ca0fb23e2731afaa41dabb37a533678c00c7d024623f5e80266611500bd803660001b62008798565b620017657f85cf2c42fc4f031aefe57ecf3deffe066b6750517941c284222f10cc60db431460001b62008798565b620017937ff32d0a8b446c642b278bf2f5f1522fa4dff8de52b7e3badeff68c3e39ec5f24660001b62008798565b600081600001601c0160008d73ffffffffffffffffffffffffffffffffffffffff1673ffffffffffffffffffffffffffffffffffffffff168152602001908152602001600020819055506200199e565b620018117f7a0fb91e583e989045305e9ac62ae8f1242e1fc745dd28e3afab4d182038669360001b62008798565b6200183f7fe75054c7d5accb87902a99f88b8e068881ea0c1b7a162a3ab6189b22c8c3fb2660001b62008798565b600081600001601c0160008d73ffffffffffffffffffffffffffffffffffffffff1673ffffffffffffffffffffffffffffffffffffffff16815260200190815260200160002054148015620018db575060008160000160170160008d73ffffffffffffffffffffffffffffffffffffffff1673ffffffffffffffffffffffffffffffffffffffff16815260200190815260200160002060010154145b156200196f576200190f7f9cc1cf1699e7d0e90c15b6e48e3c047bbb21ecb83e1e082d0b5263e13466f66d60001b62008798565b6200193d7f63f4293c24d83cee6e8e5918a70960572406319c631795f739d32de3e451463460001b62008798565b6040517f56b3653200000000000000000000000000000000000000000000000000000000815260040160405180910390fd5b6200199d7f4e6099ab6d04d20e1579bb5d8aabec2c1fd6015ecccb41df414bc52f6675f92f60001b62008798565b5b5b620019cd7fd007be0fe1beb9e76c51a357fa3196f90074cc879dd432b1d7292c3bb84f535f60001b62008798565b620019fb7f0db3042a62825cb451bb8d5084b8e86916cc69722124113e0af359902be903b060001b62008798565b8415158160000160170160008d73ffffffffffffffffffffffffffffffffffffffff1673ffffffffffffffffffffffffffffffffffffffff16815260200190815260200160002060040160009054906101000a900460ff1615151462001b4a5762001a897fb98ef0d2369eec3ac05f53ebdd6c44cca4cd8580236a63ee33e6b435de748a0960001b62008798565b62001ab77fb1b4659551f050b551f478759920b5a7c031485fb01770f683e87ed83afa922960001b62008798565b62001ae57f7a45823ab4c7a6a1a6c4a99b4eedcd332b07a9e8165de50692891c9ac10e411160001b62008798565b848160000160170160008d73ffffffffffffffffffffffffffffffffffffffff1673ffffffffffffffffffffffffffffffffffffffff16815260200190815260200160002060040160006101000a81548160ff02191690831515021790555062001b79565b62001b787f8996b3aeb5f546a8b26104dcf0f2161df02da6afa52b7dddfb5483b89ca4cf1860001b62008798565b5b62001ba77f092bf2509c13312d148d7b8f9621069187ebb9171533620c26b771803b0abefb60001b62008798565b62001bd57f88ed83d396a61866f4d5dd104d662fcd0c580183a3f6792e5798f1212bc5efaf60001b62008798565b60405160200162001be69062010827565b60405160208183030381529060405280519060200120848460405160200162001c1192919062010876565b604051602081830303815290604052805190602001201462001d165762001c5b7f4f2b6778dec8dfe24a4bf2385028f6374ca17799f029337f2dfb1a0441d9271c60001b62008798565b62001c897f16a3f6b06ebe8f5bdd518ee5b8752abd697bb07ea065c2c220cb01869f888db160001b62008798565b62001cb77fb257d00e68e8430ea11a8bd8fef1f9bf444d545ae3af998aa8b45f63197991d960001b62008798565b83838260000160170160008e73ffffffffffffffffffffffffffffffffffffffff1673ffffffffffffffffffffffffffffffffffffffff168152602001908152602001600020600501919062001d0f9291906200fe1c565b5062001d45565b62001d447fffab91f651166f00a6d483cb6c1b8c540bbe46f142fb870cdf20304d8870597160001b62008798565b5b62001d737f1c38e50d0b216edda8e05d9a0aae0d2cda90254842ad00291aec506f0c8089b460001b62008798565b62001da17fb52f46ba833707621604e11e352dd1aa265aece659976b82ece0091cdfaa18c660001b62008798565b8060000160170160008c73ffffffffffffffffffffffffffffffffffffffff1673ffffffffffffffffffffffffffffffffffffffff168152602001908152602001600020600101548b73ffffffffffffffffffffffffffffffffffffffff167f8fab43684eb05e5e5113cac69af2b47ceef3f9bfe531243aa54fe33fa10c669d8888888860405162001e379493929190620108d5565b60405180910390a362001e6d7ff7ec3c47c364bdb74e45af998fd23e0208f34e7e04bd7bdafdd3e7a1412e684d60001b62008798565b62001e9b7fa8fa5e0bf0b3fa479fd1225da56c1621efff4dadc7451f3acb8e7cd35609bd7160001b62008798565b60019150509998505050505050505050565b600062001edd7fec600d2bd342f88b880976ae5af9f938601f2b94eba486e61e2873ec4f43549760001b62008798565b62001f0b7f27b2544e2e41de6f716cac094cdd4dec1344b7c13c93ee2bfe262938bb2afd1960001b62008798565b62001f397f9098ebc08089541d7de13fbb6f76384422a446c171a939d6fd3fea24aa5348c660001b62008798565b62001f436200879b565b62001f717fdfe6a78562abf7f1a320253c861a9b04702ec3ab86f4a750ae5d7d976406b7b360001b62008798565b62001f9f7fc546b2e7bd7325bd916109e4790e32701d45b5a81ca7b0f57cf680e1ee2649b660001b62008798565b62001fa962008946565b62001fd77f3a64601f35f713a3fa60a9932af8199fe655ec08911ab7e01538ff6dd716172960001b62008798565b620020057fcff4c84e00ccfa9b6fe5351679e93a8dafaeefaba8d4cc83d8cc07fa3d6ab69260001b62008798565b620020108262008fb3565b6200203e7f4aa4175a6d285e8ac003a319f3e5dbb6881d451c18ae9490b178404600c9785860001b62008798565b6200206c7fd33bcedff46e7d55b6f53cf10667de2df8deefb3d4c181944b7679a9db2736f560001b62008798565b60006200207862008c03565b9050620020a87fab871d7f4cf59675f20c685dce039e79064a921bb206e316e3e1b1a418eab6ef60001b62008798565b80600001601f0160008473ffffffffffffffffffffffffffffffffffffffff1673ffffffffffffffffffffffffffffffffffffffff16815260200190815260200160002060006101000a81549060ff02191690556200212a7f4744c0603b7e529e0637f7e8c7ec5a83fd54268446d88f2b78ff47609ead082160001b62008798565b620021587f835470d683fef2e93da1c04eda25e0bf0fdc06721720f0b6ff8ac9d73fbf6c2a60001b62008798565b8060000160200160008473ffffffffffffffffffffffffffffffffffffffff1673ffffffffffffffffffffffffffffffffffffffff168152602001908152602001600020548160000160200160008360000160210160018560000160210180549050620021c691906201091b565b81548110620021da57620021d962010956565b5b9060005260206000200160009054906101000a900473ffffffffffffffffffffffffffffffffffffffff1673ffffffffffffffffffffffffffffffffffffffff1673ffffffffffffffffffffffffffffffffffffffff16815260200190815260200160002081905550620022717f8f2c6b2b8ea1183828366916059e25c5aaf925c79569fb5ac3f9b54cbde3aff260001b62008798565b6200229f7f5214e2c1dab8fc068e5f6e07dd205b6ed7f7765a50ca863c8fa75858307293d860001b62008798565b8060000160210160018260000160210180549050620022bf91906201091b565b81548110620022d357620022d262010956565b5b9060005260206000200160009054906101000a900473ffffffffffffffffffffffffffffffffffffffff16816000016021018260000160200160008673ffffffffffffffffffffffffffffffffffffffff1673ffffffffffffffffffffffffffffffffffffffff16815260200190815260200160002054815481106200235e576200235d62010956565b5b9060005260206000200160006101000a81548173ffffffffffffffffffffffffffffffffffffffff021916908373ffffffffffffffffffffffffffffffffffffffff160217905550620023d47fa25388c2fb257b7a3373fe71d6d67904c0cf6f07ce64092dce4a03b38feb193960001b62008798565b8060000160200160008473ffffffffffffffffffffffffffffffffffffffff1673ffffffffffffffffffffffffffffffffffffffff168152602001908152602001600020600090556200244a7fe807f98548fa90ea14d000735a3e5c08cb53a15f7347e75e56c35f051c16db7560001b62008798565b620024787fbeb0d78a4c0e036f4f1424c326f588d7bd168d5c96779c21e377cecb9837354d60001b62008798565b8060000160210180548062002492576200249162010985565b5b6001900381819060005260206000200160006101000a81549073ffffffffffffffffffffffffffffffffffffffff02191690559055620024f57fb67cf64189efc84df09f18eeb10c93fb002cac22846dfe161ee1e447395ccc0060001b62008798565b620025237f2ed3fbebe27007dffa804ab6e1d6c81da5b9d6d7dbef9565e81bff68400afe1760001b62008798565b6001915050919050565b60006200255d7f60878074535424228050ca19078b513f0d235bef04f442ec9fd186cbfaf8e2d060001b62008798565b6200258b7f150a477d0aa848c4e18b258a56a825d5754d467f62d5dcb59b8606ff8903705c60001b62008798565b620025b97fe61dbf263aa0f5c6327b5705ac4866bd6f2b29daff1431485b949d988336e7ff60001b62008798565b620025c36200879b565b620025f17f1e3bda822c8acd752dfec3946b334f104ff757f4c4bcf36cc66cfd1c9dc614f360001b62008798565b6200261f7fa46ae49085941e8bfe076859d229dcd99aedf202167fcbb0a55c952d5580eb5a60001b62008798565b6200262962008946565b620026577fce3e0bc69d228406bfc7ae42a3f87dc311de23c05391b15570d51e6d3f66da4160001b62008798565b620026857f20dd58e62183db20f86c61cd07786b66ace9d9367b4314556ce72512539998aa60001b62008798565b6200269082620090e9565b620026be7f39bc705594b8f05c9a22d09fd86ed67e21769992952123a85630112a973682d860001b62008798565b620026ec7f34a94053d4b51c2352bba2ba7fbcc13f8ad6ce94e82d6ab5d02b93f9882d66f260001b62008798565b6000620026f862008c03565b9050620027287f6236d90e4be89ab8c54d88c43107c61925d1eebbedbd72fdce1445cfe88d6d9860001b62008798565b620027567f80c3b1bce8b0c6264df3ee688bde06fb4bd4906179e192251c325cdc65ad587160001b62008798565b80600001601801805490508160000160190160008573ffffffffffffffffffffffffffffffffffffffff1673ffffffffffffffffffffffffffffffffffffffff16815260200190815260200160002081905550620027d77fbc322052dfdbc1e201011c04973a714fdf930e4d1bd5eea2a467e85666aa7a8a60001b62008798565b620028057f0e6d3318cb2708c0790226b0578714fc43c8881c7e90d4eb495cdc1bfc3d3cc760001b62008798565b80600001601801839080600181540180825580915050600190039060005260206000200160009091909190916101000a81548173ffffffffffffffffffffffffffffffffffffffff021916908373ffffffffffffffffffffffffffffffffffffffff1602179055506200289b7f28bccc12922494bb883806ecf1c78810d21b8bc94ad3933fd9dff9d54d50b20b60001b62008798565b620028c97f845d0e75ed91bdb7162acda523471bc1fb226121e0065bf968fbeb82259625b460001b62008798565b838160000160170160008573ffffffffffffffffffffffffffffffffffffffff1673ffffffffffffffffffffffffffffffffffffffff16815260200190815260200160002060000160006101000a81548173ffffffffffffffffffffffffffffffffffffffff021916908373ffffffffffffffffffffffffffffffffffffffff1602179055506200297d7fa96afe95947e1a368f1ae7100c7e702bcf099dcb92688c55332dc2a54f96d47760001b62008798565b620029ab7f5c8ed86fb7cf70405c959832d711a308e142c06b52587b4e2e180e12c0a5ebd460001b62008798565b600181600001601a0160008573ffffffffffffffffffffffffffffffffffffffff1673ffffffffffffffffffffffffffffffffffffffff16815260200190815260200160002060006101000a81548160ff02191690831515021790555062002a367f0a19d8dc8517a02648c69e47cd0cc02a39a103c0f87675fbdfe982d810c99a8760001b62008798565b62002a647f651f6c87d9ddbe47d23c7a346645fecfbec0e75371e3054e5ec3d85dfbc2e14160001b62008798565b8273ffffffffffffffffffffffffffffffffffffffff16600115157fdc251b3c8e645ea59e7d61c4630c88b1a81f7edcf3e95ec42e8b7d984f0bd40760405160405180910390a362002ad97faf9ca0d239dc4f46156f11189d7bc190d46cda7c162b9fa467da8f010feade9260001b62008798565b62002b077f57ee476df9fc7ab980f5d6cc07bb0cc8a1012dd6ea339c33eeac9736047d45f260001b62008798565b600191505092915050565b600062002b427f2b8e4be639c2b4e6ecc35c7b4d9bb1680f0800b951ecd92ee289e1a90fe0438c60001b62008798565b62002b707f1e7a90a7361ceb2fdc01b6bf087624de807a10c6b0aea42eb61bd1071b50884c60001b62008798565b62002b9e7fd89989a718660f66d4b6bfb559e655ffc6740a7b7cfc636ea991c8b6e0f47ff160001b62008798565b62002ba862008946565b62002bd67f81cbd639e6c55b0d829f3583174f7825f53343f679a45cfefdd1b5f55c884d0b60001b62008798565b62002c047f272f9f662ea91e05128042d4d61d082faf0f645376d8a1f177745a8e99cce0d660001b62008798565b600062002c1062008c03565b905062002c407f53dd53147eaf49822bf795fa7051bee0c82fa8da05dfd9068f36755d8036fc8c60001b62008798565b62002c6e7fc59c9e9643cf20152415f10f4d9af8e403f5b2bb2f3f1d90dc5c278726d2005c60001b62008798565b828160000160160160006101000a81548160ff02191690831515021790555062002cbb7fc953028b05747391ad5f6dd4fdb797e155221349c0fde3efebd45117db105cf260001b62008798565b62002ce97f7772a312a1dc5933a89c3dba72c17e3ae5da2f8fe0e861c74833bcbcbf271b2a60001b62008798565b6001915050919050565b600062002d237febf9004eff48bf2f0fcc8ba4d5d47166ac2f03fd822c703b2d620d59a02a3ff160001b62008798565b62002d517fd9a0b181a1344d8802f8b438b0e69a0eff276a8312d97798d543b9a268cf146160001b62008798565b62002d7f7ff918fa9de616514caa91ae44dc68ea3e475421a3390c36350ef547bb50660d5860001b62008798565b62002d896200879b565b62002db77fc2a7306e134e4353c602a3868423ec38f59c78b6a984d244f3ebbe902104795060001b62008798565b62002de57f1ad6c7d4e800a22ad5c493900a5cbf999ac282aa9a9669917febab45c7cbf85d60001b62008798565b62002def62008946565b62002e1d7faf7e0ead7263f50885eb8bb1f832ab7dfdc94d10e20fa9823626e80b01c4102860001b62008798565b62002e4b7f7ca63679ac5b9e851ff45cefab04502fb95dd858036b7c66421cb71cb6f50e9f60001b62008798565b62002e568262008e4d565b62002e847f29093e145b6a933d276d2b1667a9173b4b9f67f58e08beb7c5e43c047ca4c6fd60001b62008798565b62002eb27f89007b07ee8f8595b4e1eb1b4efce2182fe848481a14f8b4c58408c9bad1492760001b62008798565b600062002ebe62008c03565b905062002eee7fa563a199d80d352ff833856eb37a842349779a877b8208cd3500624d748accef60001b62008798565b62002f1c7f3fc5efb50014daf313420cd46690b9813b9f8a44db2029af1654521573663b8c60001b62008798565b60008160000160170160008573ffffffffffffffffffffffffffffffffffffffff1673ffffffffffffffffffffffffffffffffffffffff16815260200190815260200160002060030160009054906101000a90047dffffffffffffffffffffffffffffffffffffffffffffffffffffffffffff167dffffffffffffffffffffffffffffffffffffffffffffffffffffffffffff168260000160170160008673ffffffffffffffffffffffffffffffffffffffff1673ffffffffffffffffffffffffffffffffffffffff16815260200190815260200160002060020154620030049190620106c8565b9050620030347f9cecf7ef6e76b10d3ae5027f81badd4b77c5303bc04c6807cfed957c2c0fe17d60001b62008798565b620030627fb2508126f785e7661fed50871c5fae4582785a4c4036e834c7fa6ee586ec31c060001b62008798565b60008260000160170160008673ffffffffffffffffffffffffffffffffffffffff1673ffffffffffffffffffffffffffffffffffffffff16815260200190815260200160002060000160009054906101000a900473ffffffffffffffffffffffffffffffffffffffff1673ffffffffffffffffffffffffffffffffffffffff1682604051620030f190620109e6565b60006040518083038185875af1925050503d806000811462003130576040519150601f19603f3d011682016040523d82523d6000602084013e62003135565b606091505b50509050620031677f8d6a4e544ba836f597451ac5f46e8be9e35c7654896f627ba3a5177db7dce82a60001b62008798565b620031957fee715fd67b8b842a4d7e0307c3aa6472976b63b34ab1130e3824b46b438f067260001b62008798565b620031c37f11b9e594f14da8e57bd609f77e77858bfb44098416edf91982346d6dbac4517160001b62008798565b8062003206576040517f08c379a0000000000000000000000000000000000000000000000000000000008152600401620031fd9062010a4d565b60405180910390fd5b620032347fbf52dfa0d80a961c1f65ab8366e52714b2e8c757bc9afc52d01b12f00c90de3a60001b62008798565b620032627f8c427cda25d220170e252e7cee64bf0285e30a5d3266d7bd7eece2fb367882f560001b62008798565b620032907ffd67671fdb9f637c281f90f47a61c9cd922e5cd453e30c79816b1174a8bda3ec60001b62008798565b8260000160190160008673ffffffffffffffffffffffffffffffffffffffff1673ffffffffffffffffffffffffffffffffffffffff168152602001908152602001600020548360000160190160008560000160180160018760000160180180549050620032fe91906201091b565b8154811062003312576200331162010956565b5b9060005260206000200160009054906101000a900473ffffffffffffffffffffffffffffffffffffffff1673ffffffffffffffffffffffffffffffffffffffff1673ffffffffffffffffffffffffffffffffffffffff16815260200190815260200160002081905550620033a97fbf9468a67e7241fded6c0141e8a8d93e2a2fe71ec8c5920bae72270827de4def60001b62008798565b620033d77fe2ec87cc3e7b0789b5bf6b98659793afa5f63576b1ea1a58a534984ac534d4b260001b62008798565b8260000160180160018460000160180180549050620033f791906201091b565b815481106200340b576200340a62010956565b5b9060005260206000200160009054906101000a900473ffffffffffffffffffffffffffffffffffffffff16836000016018018460000160190160008873ffffffffffffffffffffffffffffffffffffffff1673ffffffffffffffffffffffffffffffffffffffff168152602001908152602001600020548154811062003496576200349562010956565b5b9060005260206000200160006101000a81548173ffffffffffffffffffffffffffffffffffffffff021916908373ffffffffffffffffffffffffffffffffffffffff1602179055506200350c7fbd6e7f163e6fc8eb2980ff555085be83fc5726f99b8d4f0b39575a228d69d5d060001b62008798565b6200353a7f834b942da377a284804b9f4aabc734212cd4e646e6b70c59b28f75ba1906846860001b62008798565b8260000160180180548062003554576200355362010985565b5b6001900381819060005260206000200160006101000a81549073ffffffffffffffffffffffffffffffffffffffff02191690559055620035b77fd0596ff9c9681cefe84c333ba0785796935987b566da769d3200c55a3ccf717e60001b62008798565b8260000160170160008673ffffffffffffffffffffffffffffffffffffffff1673ffffffffffffffffffffffffffffffffffffffff168152602001908152602001600020600080820160006101000a81549073ffffffffffffffffffffffffffffffffffffffff0219169055600182016000905560028201600090556003820160006101000a8154907dffffffffffffffffffffffffffffffffffffffffffffffffffffffffffff021916905560038201601e6101000a81549061ffff02191690556004820160006101000a81549060ff02191690556005820160006200369f91906200fead565b5050620036cf7f783d46fbae334d644d60f6117f266b69fa5068fe0c65181cc041936fb366017460001b62008798565b82600001601c0160008673ffffffffffffffffffffffffffffffffffffffff1673ffffffffffffffffffffffffffffffffffffffff16815260200190815260200160002060009055620037457f7a8b30ebbf3bc62837abfe2ddd669eff8934896e0168bab9ed0b09870d21ad6960001b62008798565b82600001601b0160008673ffffffffffffffffffffffffffffffffffffffff1673ffffffffffffffffffffffffffffffffffffffff16815260200190815260200160002060009055620037bb7f0df87ba266593330bbfd79bcf0557258998003c10633f5af7cb0355285a4e77260001b62008798565b82600001601c0160008673ffffffffffffffffffffffffffffffffffffffff1673ffffffffffffffffffffffffffffffffffffffff16815260200190815260200160002060009055620038317fc6e831adec81d9acd98d85148f90bc8fe32cd55e067b4522e81b5edd171258b760001b62008798565b82600001601d0160008673ffffffffffffffffffffffffffffffffffffffff1673ffffffffffffffffffffffffffffffffffffffff16815260200190815260200160002060009055620038a77ffcf2c75771a1de68aef95f66edb4a137e51ce660de2ded55ceee7a927d33db8060001b62008798565b82600001601e0160008673ffffffffffffffffffffffffffffffffffffffff1673ffffffffffffffffffffffffffffffffffffffff16815260200190815260200160002060006101000a81549060ff0219169055620039297ffe2e911d0c58f570507d445582eb39b8e790fb0d42a56628ba4f9e49d1033e7760001b62008798565b82600001601a0160008673ffffffffffffffffffffffffffffffffffffffff1673ffffffffffffffffffffffffffffffffffffffff16815260200190815260200160002060006101000a81549060ff0219169055620039ab7f261a8490b4ee45518e3699db05c054100728b808a730c8b70fc14db8664b1e4d60001b62008798565b620039d97fba353b35f8ffa2de975315af3a6f3ab2cdb022cbc8fc732dca8f7f883dfef61360001b62008798565b8473ffffffffffffffffffffffffffffffffffffffff16600015157fdc251b3c8e645ea59e7d61c4630c88b1a81f7edcf3e95ec42e8b7d984f0bd40760405160405180910390a362003a4e7ff66dcef0a4860126f6b93b6a206eeadafb120720049521fa0ac7b85604d93db460001b62008798565b62003a7c7f29303b9dd639f0e7b7d8da1c65878c2668f05810774550064e140e7d3a34557660001b62008798565b60019350505050919050565b600062003ab87f4e297dc7764187e2bdd28071f3e8c3bed583267dd498767de8b49859ac32d59c60001b62008798565b62003ae67f681e8c78d6d65fc0a692414c0fd48e7549afe6b8262172e860f308cd79df0f4f60001b62008798565b62003b147f90958fa55e683547d85e45dc49f7af68f7ceb7dd76b1bf5ff73c8b6b91fa60db60001b62008798565b62003b1e6200879b565b62003b4c7f387cbcdaed091353e0347d92a038be415f854bba2272d21fc748eedc8538b81b60001b62008798565b62003b7a7fa414c986eaa2f3a29cb8a6d22b10d54e3fe7370a8ffe2c71392958f34d89308760001b62008798565b62003b8462008946565b62003bb27f2bf4b7aeabe76b42e1370b84ae5e6d1b2965397a3ba9c0b8be19245f6f47123760001b62008798565b62003be07f93804d0c3cfddf1ae5feeb75aecf16bc9fd03d915718576394020206e622d30b60001b62008798565b62003beb8962008e4d565b62003c197fdc0ee8da0ec1c7c603ca19e9855cda3300aab12dc101989c35bab019c1ad714e60001b62008798565b62003c477f6cf6a1dfedee20717e05ac3cdf2487757eafccc2b12495016daf56c2312bfe0c60001b62008798565b600062003c5362008c03565b905062003c837fa8a701fc3e34f328482fd43014257fcd10a560e0fcc540a94f9d2d276191d19060001b62008798565b62003cb17f668976f9945f66f5faad6af00a9e98d5543e4ea1f97596a659fd3dbf2d448bc860001b62008798565b6001151581600001601a0160008c73ffffffffffffffffffffffffffffffffffffffff1673ffffffffffffffffffffffffffffffffffffffff16815260200190815260200160002060009054906101000a900460ff161515141562003dcf5762003d3e7f430f3345617a310f4581a02780d50c75802af5eac8e78659c51b191a85af9bea60001b62008798565b62003d6c7fc8d5ea822760e87059f42e0a8a3480fa1a223b3864497f9fbcb3fb12691a3c5a60001b62008798565b600081600001601a0160008c73ffffffffffffffffffffffffffffffffffffffff1673ffffffffffffffffffffffffffffffffffffffff16815260200190815260200160002060006101000a81548160ff02191690831515021790555062003dfe565b62003dfd7fef902c8b342d49a4cf6869eb4222c6ff29b491563298cda019603d4eda2baab860001b62008798565b5b62003e2c7fb086e28056f0e8e52f7b51ed8a73e112c439dc525ace3859c1434d8c62d627f260001b62008798565b62003e5a7f3f28a78ccf7ada1ccb91a592a3ebeecf78a47a7e3b1b410b604ad50d31dfc60960001b62008798565b62003e887f1e4ce789c908d78ad23d17635f1d98ef6e19afa089bf637c81b4797f8976a61760001b62008798565b6127108761ffff16111562003ed4576040517f08c379a000000000000000000000000000000000000000000000000000000000815260040162003ecb9062010677565b60405180910390fd5b62003f027f8a59dc89bf1f1a5a0a79843cf6a9c9a3dba629260286173f7d172763932038a460001b62008798565b62003f307f87aba7040fd1dbf277e79932bc0d08daec0910030d701f171b8c324bdcd58a0660001b62008798565b62003f5e7fc43ff2eb6d0b7d7d801b831aa6ff9757ea3e55806364bd72222b280231ebe58560001b62008798565b62003f8c7f8d735cf36e6acad7470043e4ed7987785437234fe814ad1f1a9d06a5c24af42460001b62008798565b877dffffffffffffffffffffffffffffffffffffffffffffffffffffffffffff168962003fba9190620106c8565b34101562003fff576040517f08c379a000000000000000000000000000000000000000000000000000000000815260040162003ff69062010775565b60405180910390fd5b6200402d7f96c09ed05bf3d9ee6cde6e3e12b263199c6cebd7737bba688c302a82e19e27ed60001b62008798565b6200405b7f27ceb14a3932cf2709a1ee463f1ba872579c23d90872e224c46afdbff4547c7a60001b62008798565b620040897fcf92fd3da0e4f1927adc912b841e64820b30722f5454af3641ad75332a09222760001b62008798565b888160000160170160008c73ffffffffffffffffffffffffffffffffffffffff1673ffffffffffffffffffffffffffffffffffffffff1681526020019081526020016000206002016000828254620040e29190620106c8565b92505081905550620041177f106e5be69030b55cc0c45811053be52e8a33027647a0111863f5f43afd2c8a7b60001b62008798565b620041457fd88597022632fa84b609c5afce2a20ffc124d214d7d86c3c252c34dd93064ce860001b62008798565b878160000160170160008c73ffffffffffffffffffffffffffffffffffffffff1673ffffffffffffffffffffffffffffffffffffffff16815260200190815260200160002060030160008282829054906101000a90047dffffffffffffffffffffffffffffffffffffffffffffffffffffffffffff16620041c7919062010797565b92506101000a8154817dffffffffffffffffffffffffffffffffffffffffffffffffffffffffffff02191690837dffffffffffffffffffffffffffffffffffffffffffffffffffffffffffff160217905550620042477fc2b528eec54db9b3ab31b590a85b789dd02795952f20f6a71f61251475ca33e260001b62008798565b620042757fcf87ef7943c1e26ac610c624d2f1334ada42bd1c6d43b04459dd870588edbad160001b62008798565b8661ffff168160000160170160008c73ffffffffffffffffffffffffffffffffffffffff1673ffffffffffffffffffffffffffffffffffffffff168152602001908152602001600020600301601e9054906101000a900461ffff1661ffff1614620043cc57620043087f4da603c5aefe5b227ae1d4b97b1d6c484adc14787a6d111d8c813ef4efe36e3e60001b62008798565b620043367f7b35d3596371c01137a53cbc249b864b0a3565822cf14065fcd30de9a8fd1c2060001b62008798565b620043647f62464cb134af44e34470e4e1597d0c74cec61fc3f89799daf95905dccfbe16b560001b62008798565b868160000160170160008c73ffffffffffffffffffffffffffffffffffffffff1673ffffffffffffffffffffffffffffffffffffffff168152602001908152602001600020600301601e6101000a81548161ffff021916908361ffff160217905550620043fb565b620043fa7f2a021dc119cd72d061779266fe7d4518d62e7c947e81b080cbd223d393ef7f2d60001b62008798565b5b620044297fa69e26cfb25fd9b7ee2131b6b275d5c601df1a4b1a56c0312f1ac6f20816db5a60001b62008798565b620044577fe5f0e18c6f6b89d9a3d257eddba0f656ff1aeabb6af49579a481504d631c032760001b62008798565b60008160000160170160008c73ffffffffffffffffffffffffffffffffffffffff1673ffffffffffffffffffffffffffffffffffffffff1681526020019081526020016000206001015414156200474557620044d67ffbc634ac705a14b53b42bc51c41c70d52c66af8655e8ef013aa68682f5764acd60001b62008798565b620045047fe8100c9d9dff3e3a557ac578738be0a51b80ad5cdaef8db392d94660d75c604660001b62008798565b620045327f937f211c65819fc3656084765d66e96370707869c2ade2e3fbb7e472bd9226b760001b62008798565b600181600001601e0160008c73ffffffffffffffffffffffffffffffffffffffff1673ffffffffffffffffffffffffffffffffffffffff16815260200190815260200160002060006101000a81548160ff021916908315150217905550620045bd7fee2b13c758d92c8b0f67259ac982ab25dbf5f5c689957bc48860165b98cb055560001b62008798565b620045eb7f0ec9fe2e8cac63b5adeddc6d9d43d9a64c5344913606b0839aed3fc71e8bceea60001b62008798565b8581600001601c0160008c73ffffffffffffffffffffffffffffffffffffffff1673ffffffffffffffffffffffffffffffffffffffff16815260200190815260200160002054146200471057620046657fe82108843475aa63ca7e14d6d7154513dc135f1227eb08087aae57ee1edf607f60001b62008798565b620046937f1a495f5d7454142a80cddf96409449c47ddf19c3128667acd20c0951e0a1858360001b62008798565b620046c17fb47e9eb1987010d5b0d943c48b476e4dd86dc9431600c19af263a5f847e626af60001b62008798565b8581600001601c0160008c73ffffffffffffffffffffffffffffffffffffffff1673ffffffffffffffffffffffffffffffffffffffff168152602001908152602001600020819055506200473f565b6200473e7fa92dbb55014ab8d39624f57ccf591e50a128b1a2778c8c4394f8750958dafee460001b62008798565b5b62004b3b565b620047737f098438fec71039e78023b32790c077c65fd031c84de26a6c9af7d6bd547ec17260001b62008798565b620047a17fdb71cd02756572fd1291ac0a2dc99a1247ec851c41bec635eb636f010ddd79c560001b62008798565b600081600001601c0160008c73ffffffffffffffffffffffffffffffffffffffff1673ffffffffffffffffffffffffffffffffffffffff16815260200190815260200160002054141580156200483f575060008160000160170160008c73ffffffffffffffffffffffffffffffffffffffff1673ffffffffffffffffffffffffffffffffffffffff1681526020019081526020016000206001015414155b156200497f57620048737f69fc0569558733090b578854c3384e6ea9eb28a351084b0888f0f1cdb58b8dc460001b62008798565b620048a17f13c5b78aaf7d1e0ec36573377aa382179cb905463929eec7b33d93eaf171e9c360001b62008798565b620048cf7fdc6246e59506be346c626fcffe6d843c8caeb11dcfe8b7329c9a2fe9c854886160001b62008798565b600081600001601c0160008c73ffffffffffffffffffffffffffffffffffffffff1673ffffffffffffffffffffffffffffffffffffffff16815260200190815260200160002081905550620049477f963bb980c8657be8323a148fdca645d68a7b8876dfe9b2e409ab95af244c4fb560001b62008798565b620049757f89c60fe9bda5c6db8607663d692df0c97f3f60dd210441dd1933d816d586cbe460001b62008798565b6000955062004b3a565b620049ad7f97b05e354aeee163c4a4b2cafdbae76a047b6d2ec835a579949d88da7316588360001b62008798565b620049db7fe9be7c4f75980ec424b2b2c85be5a8dde59fb555ace7e653b8eae5794d3a553a60001b62008798565b600081600001601c0160008c73ffffffffffffffffffffffffffffffffffffffff1673ffffffffffffffffffffffffffffffffffffffff1681526020019081526020016000205414801562004a77575060008160000160170160008c73ffffffffffffffffffffffffffffffffffffffff1673ffffffffffffffffffffffffffffffffffffffff16815260200190815260200160002060010154145b1562004b0b5762004aab7fde997d3256ab768ae7331c91f2f49c44ca8893a05e7d0cc9be4c33bc24f86de060001b62008798565b62004ad97f782170d9a4585688a62c89016ce6df886978becade43981053bebac884ed03b760001b62008798565b6040517f56b3653200000000000000000000000000000000000000000000000000000000815260040160405180910390fd5b62004b397f769587199bbde4cf306c4c30fe449bed23b4b02bbe616d28c9a8aba31aa3ef6860001b62008798565b5b5b62004b697f41eb2fa818f161cb7bc12ad3827612abd6816121bd64a56ff80aed6b1033eb9460001b62008798565b62004b977f95a81d68f2b202bfa8d9660a5524e77176b992dc481538209bb681f0cdc656a860001b62008798565b8415158160000160170160008c73ffffffffffffffffffffffffffffffffffffffff1673ffffffffffffffffffffffffffffffffffffffff16815260200190815260200160002060040160009054906101000a900460ff1615151462004ce65762004c257fbdbee963e82c8f4d68ddf5bd58526162d7cdbff5ebada9cf7608e3d054ccb3f360001b62008798565b62004c537f3e51d61ba15793078e83e821ad0016ab05d65b74c5bbc6aecc4d44e7853ce12660001b62008798565b62004c817fdadea5b876b979f9b900027a94d09d8e6ef0e059ed9266d2f643b7cdac76bc6560001b62008798565b848160000160170160008c73ffffffffffffffffffffffffffffffffffffffff1673ffffffffffffffffffffffffffffffffffffffff16815260200190815260200160002060040160006101000a81548160ff02191690831515021790555062004d15565b62004d147f0938dc4a016ab4dcb9084f568b1e9e4041b6368d4a80f58f510e251c3b44654f60001b62008798565b5b62004d437f3d29c01e82c320b6d586312091eeca0b33079be5f5f5c17461b938bde5c7487e60001b62008798565b62004d717fa1e9a62a69fab51f506fd72cf588f08f1c6bc28b9e2519eac03f7235f62d40ff60001b62008798565b60405160200162004d829062010827565b60405160208183030381529060405280519060200120848460405160200162004dad92919062010876565b604051602081830303815290604052805190602001201462004eb25762004df77fac881c3441db9e846e4e8297a253de67fd02591982f1e2300ee55f6698704efe60001b62008798565b62004e257fe31e7e828e6af7fb9b1e4e7301a6e31deb2481c2ca14ecdb433cf84a2f335a8460001b62008798565b62004e537f65a7dd5db7b5dcf563307b639f93275d337eefb22dbee438253497af9699db9c60001b62008798565b83838260000160170160008d73ffffffffffffffffffffffffffffffffffffffff1673ffffffffffffffffffffffffffffffffffffffff168152602001908152602001600020600501919062004eab9291906200fe1c565b5062004ee1565b62004ee07f3bd8e409bf96f0050e39b10a823a1a800910f102d2666dfbae57685aa1bf9c2d60001b62008798565b5b62004f0f7fea9116c30dcf739f08d6d263a43efecf5a3e0a1da4381a46cd9e3e03a932a29060001b62008798565b62004f3d7f3e233c36b240b653a6dfc3db2707142ca3a54d8f18dc1786915fc3402d729c9560001b62008798565b8060000160170160008b73ffffffffffffffffffffffffffffffffffffffff1673ffffffffffffffffffffffffffffffffffffffff168152602001908152602001600020600101548a73ffffffffffffffffffffffffffffffffffffffff167f8fab43684eb05e5e5113cac69af2b47ceef3f9bfe531243aa54fe33fa10c669d8888888860405162004fd39493929190620108d5565b60405180910390a3620050097fb176a85725954dc1df6e55c7680f6f4d171fd1289ce33c919285af14221deabe60001b62008798565b620050377f0be2435cde930d7dad2a1e32d5d0ddc91553e2c7bdfd51854e808c89690f8a8d60001b62008798565b600191505098975050505050505050565b6000620050787f07518cca7ebbf4437772fe2cb690ff64777393bd9fd7eb92d0b47588cfe8214160001b6200924e565b620050a67fabc08d8b1539454e09273157f545fe4d0ef7695ab89c1394e5212c033c437e7960001b6200924e565b620050d47f19d77c6eb9bf7fa50665a0969471cf295bfd2c58da71341ebf868c4cfedd5d0360001b6200924e565b6000620050e062009251565b9050620051107f72f69fd9e290e66cfab98577692648fa3d5f8c684e8a73ded40194f628c836e160001b6200924e565b6200513e7f36e3d408aa429b34170b7218918f6c8abf4f6d588a98ff7574bb57bb37afc81460001b6200924e565b6200516c7f28d0b526291cfc9268f4e9e0873a4d41b2d2d897a4d50b193103c6f44f06bc7960001b6200924e565b600281600001541415620051b7576040517f08c379a0000000000000000000000000000000000000000000000000000000008152600401620051ae9062010abf565b60405180910390fd5b620051e57f722cacd14aa9d7e08255167707b50322edd4a13c7bd2d53ffa8637b8bd83971260001b6200924e565b620052137f6ea6194c47f224b0ebc691ec7a019eb110e7ca205f8642da782fedbb941fa78360001b6200924e565b620052417f7bf39aae89ed9f6b7d5c3470b41d26e979f443feb71772d6646fb5723621ef6460001b6200924e565b60028160000181905550620052797f2204524f98dc310b2eff42f1da945fe4e1cd4b391fdce249ec0bedaf99ec918760001b6200924e565b620052a77fb52cd3e1bca2a159f3643212a5c223293d4bde8cd7eb923731e0503e0032620360001b62008798565b620052d57f6013184a04b38cf1d352306d2fc9df3021542834af28794e6a7d4d63c67ebef260001b62008798565b620053037f678724b9bbd9bb2e746956155d7b9dd14c756f51328f634c821f80e3902a3a7760001b62008798565b6200530d6200879b565b6200533b7f4aee738a30b093267da8621f4ca2d140cd3341d8328f98510eb32145752d5e2960001b62008798565b620053697f38a0669436c0269f9646fd1f94988500554c682aacf693e6efec49d4a4d08d0160001b62008798565b620053748462008e4d565b620053a27f11916ca04819e21bcec392abdf1576d2db885c558e23b63cabc0400d1622f2aa60001b62008798565b620053d07f2af023e99fe4a5f814c2314f2c1d1e19b392e23481b904bbf0283da2e52b0c1c60001b62008798565b6000620053dc62008c03565b90506200540c7fdc55a719edf38d8ec49e550a18236029c8d9d6b265eb5a73a8b516719585400f60001b62008798565b6200543a7f3725a23c429fc4dfcc3cf7deeca3cedf06047bcc98b08898805d8d3709d437d260001b62008798565b620054446200fef3565b620054727f34439ff574148fe5ef40f1174c07611a69b49fd67ce73253230f766753c6842860001b62008798565b620054a07fe3eedf9d09c61585d34a10e603eab56fd8f1eec89c4205e66aa558c93b43261f60001b62008798565b620054ce7ff2b8d23862fb5fd24f74bf424f5929cfa545bc134a8e94a981eefbb60857b91b60001b62008798565b600085511162005515576040517f08c379a00000000000000000000000000000000000000000000000000000000081526004016200550c9062010b31565b60405180910390fd5b620055437f8aa6fc7e532f94883e4fd82a828d984b89cac5a6ff78bbc0510d38c7e3e2398860001b62008798565b620055717f20b5ca822b69531148087a8dc587d6e88d32a4df92d2ae6e7ce0c5dc6022ee3f60001b62008798565b6200559f7f302c83012c14c51d04be2d7a539411d1baa23ba9f933808b575b1f97ce7cffaf60001b62008798565b8160000160150154816000018181525050620055de7f6fbad4fe894a97cdf95110dfd84cbfe5048cfe5532c19b7d05c8cbf014809b4260001b62008798565b806020015150620056127f8d0230df2e3dc0bbfd4bcc1eb57cc38760f79bb8b86cbce97235c9ccd0128d4f60001b62008798565b620056407fbf5876dfa0533fa280df82f32c94951b9dead582e5c1fb636150004bc75b8de160001b62008798565b60008260000160170160008873ffffffffffffffffffffffffffffffffffffffff1673ffffffffffffffffffffffffffffffffffffffff1681526020019081526020016000206001015414156200576f57620056bf7f5838403a6be46df7497f0f9101cf965e4ab6eb67fa0a9ed47013c812f6a5081c60001b62008798565b620056ed7fea53e5c754ab9c58d2d59ce19ee2b9dbe6b8ac79919153d6c6803ad537e6ada960001b62008798565b6200571b7f4b3213ef37f6086d82974c13e69f191f950be1322ca83a7656e30174f8ce9c3f60001b62008798565b81600001601b0160008773ffffffffffffffffffffffffffffffffffffffff1673ffffffffffffffffffffffffffffffffffffffff168152602001908152602001600020548160200181815250506200584b565b6200579d7f1d149c5d6647a139e11dc31b7a21c947ec831c2b03d02986061bae85f1898a9a60001b62008798565b620057cb7f7cecf96f53ea382f176bfcc60ee834e1bdbe94bb6c6e29adf602adccfc3c16be60001b62008798565b620057f97fe2585beab69855774bc77f46c1cd8e7a3b939782bedd0710514113852628b34b60001b62008798565b8160000160170160008773ffffffffffffffffffffffffffffffffffffffff1673ffffffffffffffffffffffffffffffffffffffff168152602001908152602001600020600101548160200181815250505b620058797f840df9079fe40a2c82b68589bf85728cfdc434ac8a823572a434b46a141a50aa60001b62008798565b620058a77f857ff80681b81edadf0a6541c027721e3afd991b2cf00900e18a58fbd571758460001b62008798565b6000816020015114156200591557620058e37f3b9cd7054a0e0dfa55963f1358303ff7e3a3a92c70c254c0f7d193a01f92d79660001b62008798565b6040517f4622fb7300000000000000000000000000000000000000000000000000000000815260040160405180910390fd5b620059437fa0ce3d628a7a01890420b3f087b7ee41fe6bee8ebf17d7e8230d76f54b8de1bd60001b62008798565b620059717f127a9c7708873d809919c9092fefe7048a8be5ca5ae7cf763e987ade85b1131c60001b62008798565b6200599f7f91bd6c70e1f5a4ddbb329bd36971b9d1b53183f30aa64b5e65e8683f4837fa7960001b62008798565b806000015181602001518651620059b7919062010b53565b620059c3919062010be3565b816040018181525050620059fa7f0a4cb3d58afe9ce17231413f6c48cb8ea7646e32fe7ded1792e07bf90452f43e60001b62008798565b62005a287fb5c719db8664651ce96b110c7739c69feb00e034d36cea3714f8a094682a028660001b62008798565b62005a567f82099b00fbbb2f0e2f77cde5bb31849125e8cc25ede961197c9eb9c5fbf2b2e960001b62008798565b81600001600e01600080815260200190815260200160002054816040015183600001600f0160008081526020019081526020016000205462005a999190620106c8565b111562005add576040517f08c379a000000000000000000000000000000000000000000000000000000000815260040162005ad49062010c6b565b60405180910390fd5b62005b0b7f78926801e0e8f0fda568c812cb8a6328c84d58c48bfa16687ffb0518af57410360001b62008798565b62005b397f7cc121272d8f440e9d95924d22208cf6700f49af4c1d94f9feab65dab29a9bf960001b62008798565b62005b677f42444c9bf753e4cf591f74398795133f5221df6a1f8de32429d12d053258120f60001b62008798565b8160000160170160008773ffffffffffffffffffffffffffffffffffffffff1673ffffffffffffffffffffffffffffffffffffffff168152602001908152602001600020600301601e9054906101000a900461ffff1661ffff1681606001818152505062005bf87f5b3febe629db6baaece0f07f774470fd49444d45e27deffef0314bcaf461d5d560001b62008798565b62005c267f150b14a4a8b6587f9b25c6143cecc4e59d2abc01a45c3fef02fdb0016b0c6a3560001b62008798565b62005c408160000151826040015183606001518962009337565b81608001818152505062005c777f23404fc4ad06d96081a024786c2990e4f4fe236004efcdaef65c0420f825256d60001b62008798565b62005ca57f8eb9a0c6c33b20057bcb56bbca997950c1011baf3c0278fa42dbb986202690a160001b62008798565b6127108160600151826000015162005cbe919062010b53565b62005cca919062010be3565b816080015162005cdb919062010b53565b8160a001818152505062005d127f5a8c70121905be0918f668a1484a34373779e212b90651c92020c96e73b78fcf60001b62008798565b62005d407f9459ecaf07e2b1c4cc1a689c6039304aa6f2e5e009133512d9e9c9f1c35c5a5760001b62008798565b80600001518160a0015162005d56919062010be3565b816040015162005d679190620106c8565b81604001818152505062005d9e7f0c83b1e410400906bce26b5eadbf74f3dd1df331e66bd6384cf4dee907ffc02f60001b62008798565b62005dcc7f4534205a6181861b59abadb608a33f785199b2c0c89f9c0bf6870eb03dfd62f160001b62008798565b60005b855181101562005f9d5762005e077fe29b39e411c648320c093ab2e06a0e21f6f2d32435b5edf4d838a1ee3d11a91960001b62008798565b62005e357fd1e2a0159a7eb2f8a192e1cc73a41f9900e0930634378c14f440a31dc5e8925660001b62008798565b8673ffffffffffffffffffffffffffffffffffffffff166342842e0e62005e5b620097dd565b8560000160170160008b73ffffffffffffffffffffffffffffffffffffffff1673ffffffffffffffffffffffffffffffffffffffff16815260200190815260200160002060000160009054906101000a900473ffffffffffffffffffffffffffffffffffffffff1689858151811062005ed95762005ed862010956565b5b60200260200101516040518463ffffffff1660e01b815260040162005f019392919062010c9e565b600060405180830381600087803b15801562005f1c57600080fd5b505af115801562005f31573d6000803e3d6000fd5b5050505062005f637fcf4e6d213498b5bfe61e0979dfa1e867ad86423d3bdd0cde5f1a4c03752362b260001b62008798565b62005f917fa3439a5b6c1ba70a75283c77ab8f62ab68786a88ee09642811abf22a070e5d7160001b62008798565b80600101905062005dcf565b5062005fcc7fcbe88813cfbdf1246c9aec339d821dcf8a3d63df6caffb9ac5e3f5ac33102c8860001b62008798565b62005ffa7fee1ed01d0bbc6d10263522aca5ec5da8d6cfe88e8b7c42868f559a553d505b8a60001b62008798565b806000015181600001518260a0015162006015919062010be3565b62006021919062010b53565b8260000160170160008873ffffffffffffffffffffffffffffffffffffffff1673ffffffffffffffffffffffffffffffffffffffff16815260200190815260200160002060030160008282829054906101000a90047dffffffffffffffffffffffffffffffffffffffffffffffffffffffffffff16620060a2919062010cdb565b92506101000a8154817dffffffffffffffffffffffffffffffffffffffffffffffffffffffffffff02191690837dffffffffffffffffffffffffffffffffffffffffffffffffffffffffffff160217905550620061227fafc922a16cfb9e56d810555308bc138f7a6cdb566b8df390c1a1b4f7a0edab7f60001b62008798565b620061507f1fac6a646590fd198dde18e757b19c55b5bf9794c69de52583d346de8b3365a160001b62008798565b6200617e7fd71b15604f00596606a23743bbf2e9086bd5caadc3695efb1eb4b2440e497a5160001b62008798565b8060a001518160000151826040015162006199919062010b53565b620061a591906201091b565b8260000160170160008873ffffffffffffffffffffffffffffffffffffffff1673ffffffffffffffffffffffffffffffffffffffff16815260200190815260200160002060020154101562006231576040517f08c379a0000000000000000000000000000000000000000000000000000000008152600401620062289062010d66565b60405180910390fd5b6200625f7f36500b990c97f2dc913f64c01d7819fb967e64ebf384f419a31cc1d77988ec3260001b62008798565b6200628d7f9176bc1b706dda914a8acebc720e5fbb439ee186ee385197f4c05a1abbb1de4e60001b62008798565b620062bb7f224e7538ba9f1e9316bc5a3989b494b08277405406e7e374e5bb192a7182543560001b62008798565b806000015181600001518260a00151620062d6919062010be3565b620062e2919062010b53565b81600001518260400151620062f8919062010b53565b6200630491906201091b565b8260000160170160008873ffffffffffffffffffffffffffffffffffffffff1673ffffffffffffffffffffffffffffffffffffffff16815260200190815260200160002060020160008282546200635c91906201091b565b92505081905550620063917f63bdf0f3ae09e107d1626096d45e50a6c008ddd6823e2e8e3fab385921afa69c60001b62008798565b620063bf7f9b244105db76d84e991f5cd21430ab3a012e25a40855072f33776f1fc78f783560001b62008798565b80600001518160400151620063d5919062010b53565b826000016025016000828254620063ed9190620106c8565b92505081905550620064227f49171e5e9f4436a547937b3fdd0cda47d54c8a3f321c0c1288ae226db722a14460001b62008798565b620064507f4e4f0211efc171cc66baab69fe032f86936897f9dbe8be3a5e59049e01ee429c60001b62008798565b806040015182600001600f01600080815260200190815260200160002060008282546200647e9190620106c8565b92505081905550620064b37f39700b77be90dcae6f6502992430922283ff6eeea550a2e21ddffc2f9e42cbbe60001b62008798565b620064e17f57f77d910109f4808c53f6280ca0ed41f4f621fb2bcda018959ddaecacbe9fd560001b62008798565b620064eb6200986f565b620065197f5b1692d6990f394af4f06d2214569bba98f7ba8615521a96f87eb7cc53dd3b8160001b62008798565b620065477f638c61d18c34fb0cc24bb37cabc3e4a8c94c31557992751e2211931e3e724dc260001b62008798565b620065757f3eaf3d38fc8d1a2845c1f2e7d658cf2095283740873b34b11e584923eb8d241760001b62008798565b6200658f62006583620097dd565b4283604001516200a7df565b620065d1576040517f08c379a0000000000000000000000000000000000000000000000000000000008152600401620065c89062010dd8565b60405180910390fd5b620065ff7fad6d68452aed7e7b9e0c889b22a1d0e21a93c99378202fbb64ef9cae7eb5bed460001b62008798565b6200662d7f95e1757858bfe7c1309d8f79d84596509b79fee9aacab79b09ad7f1087f43b5760001b62008798565b6200665b7f5f1925eda9e6415bf34f1ccef4cee65b0d70607b001d54c33f0715b10ec88e0d60001b62008798565b620066ac62006669620097dd565b600083604001516040518060400160405280600281526020017f30780000000000000000000000000000000000000000000000000000000000008152506200b547565b620066da7fe3fc973a4f057871b27f880cb4eba6daea81c1dd9b932c097fcca66ba7f6998760001b62008798565b620067087f1f23e6c35f2c3c3798484dad2e55a8f143da1a1eb4febb3eb03abd022c1e245a60001b62008798565b62006712620097dd565b73ffffffffffffffffffffffffffffffffffffffff167f713ad896423a80156e30820a6075c1f3e6565c0278c0a646a549fedadc71272b8260400151426040516200675f92919062010dfa565b60405180910390a2620067957ffa646502e2c5ba7a810e40a7c2dc0b8c561b751653e9ac342099f2c45db2c43960001b62008798565b620067c37f396e9f45a8c80de073ddfc884fb6a34215166abc3fefd3fdeba7efeba44e3ca660001b62008798565b600193505050620067f77fdd8e023589bb1f5964a3b72d19cef9afc68cf0ae7bf78e308304ea652461902d60001b6200924e565b620068257f185fbade08d766ef5c0b5eb0d1f659bf506ff5f70cebf3477019e6c0cb0fb98460001b6200924e565b600181600001819055505092915050565b6000620068667ff84d89311953bd4b7a89324eaf0aed2029e4b62692389683d98e08a03c84ad0060001b62008798565b620068947f065f9dfee82f762c351e44c67c16aafb0a1bfb5d58910d0c0ff7d4d3c4fddb1060001b62008798565b620068c27fdba74d0e2368454a65e9a78d4bf8be491c114dcbfd8cf28e3dcb2899ff67420e60001b62008798565b620068cc6200879b565b620068fa7ff4256599a7c0fed56bcc3db1b379472d120500d5b8db4ff856d6f934727efa1260001b62008798565b620069287facbd7e093e2fba6d78549bc659e05b0f4e0747499106d97cbc4ee129b0c131be60001b62008798565b620069338362008e4d565b620069617f5b1e8dc7a584c7a990438dd4e336d9b13c790cff2e6f02bad773768df74315db60001b62008798565b6200698f7ff577e55004e6ec9ae71d357d9a2f1ead78a9b7ae31f2bd34517a30f817301bd160001b62008798565b6200699a836200bb65565b620069c87f5ebbd586067b6e55521fbaf7bb8e45ec38934205c4fa113acc61d61f6f00830060001b62008798565b620069f67fdcdd2451f5868bae98c758d124744ba761d360140b88ab4fa3d3163a3e13600960001b62008798565b62006a0a62006a04620097dd565b6200bd44565b62006a387f8c14e8150bb5caf8675a3a0f8b28a61181b8b4df1c43f2ec91167df696ced51260001b62008798565b62006a667ff2505dd4a22a68e130c8742337f174402c7deec84862ef386d82ecaf16d6405560001b62008798565b600062006a7262008c03565b905062006aa27f6f153258c90e824522fde301d83bf41e2db5f51e4307f63ac140475cb21d853e60001b62008798565b62006ad07f3ceba720f390b7ccc6f6288242f83ca0c9efb159589102e9ecd4ab112686d0a760001b62008798565b600081600001601e0160008673ffffffffffffffffffffffffffffffffffffffff1673ffffffffffffffffffffffffffffffffffffffff16815260200190815260200160002060009054906101000a900460ff16905062006b547f984379507423e2010f945a8f28a57490fabe6cacbe5398217133639146d2cf5e60001b62008798565b62006b827f97a478f914bd75d2b5345de060c805073d4706d491557b544818aedf0457fe3d60001b62008798565b600082600001601c0160008773ffffffffffffffffffffffffffffffffffffffff1673ffffffffffffffffffffffffffffffffffffffff16815260200190815260200160002054905062006bf97f7f27e3b3ec167056f828e5432a887d6750dc77106a31bbe05fa21fc02b08705560001b62008798565b62006c277fd753d54eed198ba9a2c5c51a7eacd3c917cc316a75ff7d1fe78b9acca6f2d7b860001b62008798565b600083600001601d0160008873ffffffffffffffffffffffffffffffffffffffff1673ffffffffffffffffffffffffffffffffffffffff16815260200190815260200160002054905062006c9e7fbcbc905a49da1377bb6566061cd35eceed0871b0b8b95d9e584fd27c817f5b3860001b62008798565b62006ccc7faeb9a535337e63ba97799240d01aedc1bacf189e2649cef38fc087dce2767ab460001b62008798565b80824262006cdb91906201091b565b10158062006ce65750825b62006d4b5762006d197f6e830f93685dc67eee994f011f9efd4544d89fc0a0b6fbe6bc755b12ad018fdb60001b62008798565b6040517f2c19a59800000000000000000000000000000000000000000000000000000000815260040160405180910390fd5b62006d797f891e67ceff1d8a2cf6eff762b32861765e87b4758fb3d4504306af79ec155c1460001b62008798565b62006da77ff16325a3bda82cf43ad51e12361d469e1d92769a73dfad71127746cdb2d9839f60001b62008798565b62006dd57ff4773b547b01b0b278c64b049628f786196c5f2bd7a317c48ea2cac4f347fab060001b62008798565b821562006e925762006e0a7faefe9cd099e481657faa5dbda000d4656ed52ece5635d6ee7eb21f8fb41429c260001b62008798565b62006e387fc0b5b6c5e1aa29a4561104fd2587b46aeab432c031e2a0159b2962c3d0a9566160001b62008798565b83600001601e0160008873ffffffffffffffffffffffffffffffffffffffff1673ffffffffffffffffffffffffffffffffffffffff16815260200190815260200160002060006101000a81549060ff021916905562006ec1565b62006ec07fed9c70088e7895a3274afe395b2ce78fe05033b304f89b0fc2a5dc039e30178e60001b62008798565b5b62006eef7fa94645f4b2433f15ed747333017049a8dc6c6f86a70bc86007243e12a9d10a1f60001b62008798565b62006f1d7f57d4488a3e6d7472633b959fb1927c2ed7602c505249edef90298f825b74717660001b62008798565b80824262006f2c91906201091b565b106200700b5762006f607f98a8daa1838e03e68be7c7962807ee71be5bcc92a9f4dd8bea3451d2c965d5ad60001b62008798565b62006f8e7faaa7bf0e9744ef29c8bc461db57a51b0404435f08415ff17d2f4a241e479640260001b62008798565b62006fbc7fd9076624f6e9694ca643126fdee0f11aa440c3a9c0a2e787961ac33bce01a1f460001b62008798565b4284600001601d0160008973ffffffffffffffffffffffffffffffffffffffff1673ffffffffffffffffffffffffffffffffffffffff168152602001908152602001600020819055506200703a565b620070397ff34dd318505610afeb850bb7d9b1a60444fe1d60e26678072baf0141373410ea60001b62008798565b5b620070687fb719295e60f835d74328620ae83f2f1e3986d9a109504fc60eb7bcc7d769ccc560001b62008798565b620070967fefa6c9f28fcc6839c7ca221e71e06eb772b461492cbede85686909559b89d74960001b62008798565b8584600001601b0160008973ffffffffffffffffffffffffffffffffffffffff1673ffffffffffffffffffffffffffffffffffffffff168152602001908152602001600020819055506200710d7ffa49cd0901dd32565cb57a661d4f367fcc5c8e849b98bdd1172c3b496e286ec760001b62008798565b6200713b7fab8d1158cd87284ee4e804f6f6648a4ad64fbe9dbea24b1cde48a84080ad33d860001b62008798565b7f8a5afbd673fa3d02cdd20d491ec6235fb03218cac8debc0072715e37419403a442876040516200716e92919062010dfa565b60405180910390a1620071a47fe143ea9cef27bc200ba52d544564821816ee60fe676c94540c9ccd97f464174960001b62008798565b620071d27f5329b75b9fa8ae500eb48fc37a171650f6a27ad019265532572910fcc8445b7660001b62008798565b600194505050505092915050565b6000620072107f07518cca7ebbf4437772fe2cb690ff64777393bd9fd7eb92d0b47588cfe8214160001b6200924e565b6200723e7fabc08d8b1539454e09273157f545fe4d0ef7695ab89c1394e5212c033c437e7960001b6200924e565b6200726c7f19d77c6eb9bf7fa50665a0969471cf295bfd2c58da71341ebf868c4cfedd5d0360001b6200924e565b60006200727862009251565b9050620072a87f72f69fd9e290e66cfab98577692648fa3d5f8c684e8a73ded40194f628c836e160001b6200924e565b620072d67f36e3d408aa429b34170b7218918f6c8abf4f6d588a98ff7574bb57bb37afc81460001b6200924e565b620073047f28d0b526291cfc9268f4e9e0873a4d41b2d2d897a4d50b193103c6f44f06bc7960001b6200924e565b6002816000015414156200734f576040517f08c379a0000000000000000000000000000000000000000000000000000000008152600401620073469062010abf565b60405180910390fd5b6200737d7f722cacd14aa9d7e08255167707b50322edd4a13c7bd2d53ffa8637b8bd83971260001b6200924e565b620073ab7f6ea6194c47f224b0ebc691ec7a019eb110e7ca205f8642da782fedbb941fa78360001b6200924e565b620073d97f7bf39aae89ed9f6b7d5c3470b41d26e979f443feb71772d6646fb5723621ef6460001b6200924e565b60028160000181905550620074117f2204524f98dc310b2eff42f1da945fe4e1cd4b391fdce249ec0bedaf99ec918760001b6200924e565b6200743f7fe9329a713ba8d7ecea6d232fe2177b96f333d7749455c3564b8e19dc45f101f660001b62008798565b6200746d7ffc1de151571cd3fb6ca94844f1054470acd9691cc854da601cb0e658201220fd60001b62008798565b6200749b7fce3be2dcbe8be878b7064e654fd8501742ad860545ee09ab9a5916fd48ce18c160001b62008798565b620074a56200879b565b620074d37f0b64cd10dc556809398920de3444b2a03bcaa5bacdf9c38b5a90621ae4b6bb0960001b62008798565b620075017f283b59bfd240d8f8e6466991c356a6e0ede994f3fe2ecae36f05fcfc0a66f71d60001b62008798565b6200750c8462008e4d565b6200753a7f018187405b5a46d61cd9d7ae6e032cbce530649649ff4bef74519715a5d0c3e160001b62008798565b620075687f298101f8ed204841d6c623f2d2dd48049be5e23c5204ed830862915b282610cd60001b62008798565b60006200757462008c03565b9050620075a47f2b9a52a368232805dce84780226ec646cd9b72969790bfb314c36b70b7ef94d860001b62008798565b620075d27ffdca8518190fe60934b0155d177bd82c4a9def8c76b3a278fb948090367fc67160001b62008798565b620076007f2dde9cfe8ce7710f4115b99d42026d9b9fff7c14c5312aa64a8c6cd84e8246ee60001b62008798565b80600001600e016000808152602001908152602001600020548482600001600f016000808152602001908152602001600020546200763f9190620106c8565b111562007683576040517f08c379a00000000000000000000000000000000000000000000000000000000081526004016200767a9062010c6b565b60405180910390fd5b620076b17f24f574f6ad04d346b22d8276572d567089a36fc1a40c38862e0fb2f37c3b98ab60001b62008798565b620076df7ff9fea992e0842f1805aa91bb528d93ba43bfc0925355bc0ea65833f5f62fa8af60001b62008798565b6200770d7f8a6f156253d924c37f0d6714d07b146518b9a796eb46c808a7673e8c20f512af60001b62008798565b6200773b7f13b6544104805fc749730e00fd77a72a348ec9fc987b811e379d3914a15a1fcc60001b62008798565b6000841162007781576040517f08c379a0000000000000000000000000000000000000000000000000000000008152600401620077789062010b31565b60405180910390fd5b620077af7f5f58f2edb97d96250527f5bc41738499bbf768b209b9833421c37e0d04c198eb60001b62008798565b620077dd7fca8b3be5ee9a6e846517b19814480857243f57d3af279ae5daf0d4dfb6ab8f3b60001b62008798565b6200780b7f1591412ac8eeab0bc16b1a8242b6da6dcbdd66353a8a290a69c05ab1119f860c60001b62008798565b600081600001601501549050620078457f46f1d9f597099f2946b1f3e16f178eefa2b9662b6a5865a3afdd00cf1c971da960001b62008798565b620078737fee9a09244a36932e07beace933a7568102fb57ec552286df61b3a3131170cdf860001b62008798565b6000620078a37f6ca43f6fe89bf9449e56e0617bc0c0db53937c6654b70eb61fa2c5f470ae7af860001b62008798565b620078d17f51bfeaeee7fdba95ba8847e96220aca74967f945ff3c9a98dddf880746a64e5a60001b62008798565b60008360000160170160008973ffffffffffffffffffffffffffffffffffffffff1673ffffffffffffffffffffffffffffffffffffffff168152602001908152602001600020600101541415620079f957620079507ffd2ba75f8beed41d3340146424bbbecc56e758ce20db29850af4d28030d7e8cc60001b62008798565b6200797e7ffe40b7745493704baf92df86b77a2fd62f91b8ed9e6d0942d5e631112d5fcfa760001b62008798565b620079ac7fcaa2e83aede55b755eeb88c5e4597c6f1b20718dfdf8cbb5e275f0a6def8710f60001b62008798565b82600001601b0160008873ffffffffffffffffffffffffffffffffffffffff1673ffffffffffffffffffffffffffffffffffffffff16815260200190815260200160002054905062007ace565b62007a277f74ce6916c99a76fc21d13215c7d98824963463328f7abe1f68fcc3b6933c5dcf60001b62008798565b62007a557f453c6dda2176a08c7fba9221e4c580fc6e791a12b4279fbed5498b4bb1470b2d60001b62008798565b62007a837ff006c15fce3ecd3eebd8a7fe45a36f937da866ceb7929167da8856ed30d4ed7760001b62008798565b8260000160170160008873ffffffffffffffffffffffffffffffffffffffff1673ffffffffffffffffffffffffffffffffffffffff1681526020019081526020016000206001015490505b62007afc7f986a9bcd0dc60f124ef3caaf05cc2e2a50646852b5d45b73c38577d6d18f083b60001b62008798565b62007b2a7f99845db6a8f1af4c065ca0f01d93b3ef231fcc5d82a383fe89f7d197b9f0e31360001b62008798565b600081141562007b945762007b627fb450499dd20b4c4fd7e1861220f33bce11bc19faca9bd12e662f9f76f534cbde60001b62008798565b6040517f4622fb7300000000000000000000000000000000000000000000000000000000815260040160405180910390fd5b62007bc27f0157dc7c26efce1ec5f0912e6718f34759d9a4360518c3207b64235801a1a0ed60001b62008798565b62007bf07fe757a1b8fe562d5af2fba2324d2b3ceea8659f29067a24f62bd0182368d0da0560001b62008798565b62007c1e7fd78bed4fcf27c6dcecb21816883798cbf3afb03abc48118614b5f21629c4aff360001b62008798565b60008360000160170160008973ffffffffffffffffffffffffffffffffffffffff1673ffffffffffffffffffffffffffffffffffffffff168152602001908152602001600020600301601e9054906101000a900461ffff1661ffff16905062007caa7fd03798dd9c1d26fc7a57884cbb0153013fbbcd17d91b52f761a3158e9199d8ae60001b62008798565b62007cd87f320ca1478ab615bd44441d57fb8eaf6f72a611398763878696de95a138deaf4060001b62008798565b600062007ce88489848c62009337565b905062007d187ff3952e251afd0b8a98e567cdc6b433e61ea575c74221a45133c114146132104960001b62008798565b62007d467f82568feebf33a3086f22d6131cdfc0646b6610d2587a474dc81e2d9676c8aa0e60001b62008798565b6000612710838662007d59919062010b53565b62007d65919062010be3565b8262007d72919062010b53565b905062007da27ff4218d22537a53eafff36917f6f9dc8594e6546a3af6a0b29085cf9e09945e0f60001b62008798565b62007dd07fb670103a8a91b3170a089c38f658fccd02b9bc26684d5977e772b5d36b98ba4e60001b62008798565b6000670de0b6b3a764000085838c8962007deb919062010b53565b62007df791906201091b565b62007e03919062010b53565b62007e0f919062010be3565b905062007e3f7f8bcc092693a46e8eefd79eb1c090211fc6cc59c26422cf96142a1c7b397b2a9f60001b62008798565b62007e6d7f09fd3cbe5c93ad8684a10db625d67d79af5e9207c1f7c828c84de74b89d74d7560001b62008798565b8a73ffffffffffffffffffffffffffffffffffffffff166323b872dd62007e93620097dd565b8960000160170160008f73ffffffffffffffffffffffffffffffffffffffff1673ffffffffffffffffffffffffffffffffffffffff16815260200190815260200160002060000160009054906101000a900473ffffffffffffffffffffffffffffffffffffffff16846040518463ffffffff1660e01b815260040162007f1c9392919062010c9e565b602060405180830381600087803b15801562007f3757600080fd5b505af115801562007f4c573d6000803e3d6000fd5b505050506040513d601f19601f8201168201806040525081019062007f72919062010e3e565b5062007fa17fc5426f2bf0aaa70d34426d0fb74327be9a3a7cfd0f0032227276bf1059cf246860001b62008798565b62007fcf7fbbefbf0e64a2968ca02a10bfe5a6835e51c49fcab6c63d4c031fb63cb4e7ac7260001b62008798565b818760000160170160008d73ffffffffffffffffffffffffffffffffffffffff1673ffffffffffffffffffffffffffffffffffffffff16815260200190815260200160002060030160008282829054906101000a90047dffffffffffffffffffffffffffffffffffffffffffffffffffffffffffff1662008051919062010cdb565b92506101000a8154817dffffffffffffffffffffffffffffffffffffffffffffffffffffffffffff02191690837dffffffffffffffffffffffffffffffffffffffffffffffffffffffffffff160217905550620080d17f0b3850a9dff333ac6fe9a07017acbaac4ba00970025174720000d748c1294fd560001b62008798565b620080ff7f0e8ff370c877f25ad9596a5f65d6e4c4a4f6dc07d9add5b01e01cfb7ea3591e660001b62008798565b6200812d7f688e231431a8cc69746b6214db98d8c262a1beb2ee2445f304c0b9f3bce52dce60001b62008798565b81868b6200813c919062010b53565b6200814891906201091b565b8760000160170160008d73ffffffffffffffffffffffffffffffffffffffff1673ffffffffffffffffffffffffffffffffffffffff168152602001908152602001600020600201541015620081d4576040517f08c379a0000000000000000000000000000000000000000000000000000000008152600401620081cb9062010ec0565b60405180910390fd5b620082027f4ed4cb2b830a26a8602bfeb0280146b5a7feb9bb8e7afdc7b966eacdecc420f060001b62008798565b620082307f29091e054439c515e783e9000cfab336377c53a0ba113d242479d2945c1fdf2960001b62008798565b6200825e7fec226d18483db1982cb390ee4b597c8e494835641f14864ad7de4f6740d4e89560001b62008798565b81868b6200826d919062010b53565b6200827991906201091b565b8760000160170160008d73ffffffffffffffffffffffffffffffffffffffff1673ffffffffffffffffffffffffffffffffffffffff1681526020019081526020016000206002016000828254620082d191906201091b565b92505081905550620083067f9243dced44e55aea24aa16dd43c4c4575525dffdf8f0d693362ed0cb9db7254d60001b62008798565b620083347f540eff8116f12e11237726d8bc629656ab6ad06b32eec7d5c350b79e0e61951a60001b62008798565b858a62008342919062010b53565b8760000160250160008282546200835a9190620106c8565b925050819055506200838f7f30508f7ce47c9e68da0fe94f6ef1ec107fdbbbb2f7f83549be485b4a0d47e8a660001b62008798565b620083bd7faab34b6e3829bafaee58819054122e1df7174fce6d20718dcaddf31e7fbdb45c60001b62008798565b8987600001600f0160008081526020019081526020016000206000828254620083e79190620106c8565b925050819055506200841c7fc1daa94d6e015059e5d102aefc18495d72c52088f22b658c7364887fa4ff18d560001b62008798565b6200844a7fe29c81c1b1638777f6827ed778f3a382a5ba557c71fc6d344c7814ba3aaf9f0460001b62008798565b620084546200986f565b620084827f1ce06514c49bd44a2456980bf6cedc667ee27fe31aa2982b3f98553937546a2960001b62008798565b620084b07f5ba8be6cdded0614e0ae610034634a67682b123fbf6a111a04d7856c66e377e160001b62008798565b620084de7f9e202f484258a3463e1ece443f8eb9f0aa70bfb7c179db6b6535fb39d283620c60001b62008798565b620084f4620084ec620097dd565b428c6200a7df565b62008536576040517f08c379a00000000000000000000000000000000000000000000000000000000081526004016200852d9062010dd8565b60405180910390fd5b620085647f87aa562a832d9f702822c336f988ff089540bf45545420398155d43182e9092760001b62008798565b620085927fc3762bd02312a678e32f54902d7dbc936ab2bf36c3c2839c2c2425253dc0b73160001b62008798565b620085c07f649fe387825c6ac63052e31c9d5646ae7728f53febbf17cf220b6514bc8f6ee060001b62008798565b6200860d620085ce620097dd565b60008c6040518060400160405280600281526020017f30780000000000000000000000000000000000000000000000000000000000008152506200b547565b6200863b7f3aadc9fdac9bad54a1d69ce3409f1acb887a045c68f7e02dd4dd35e4a1092b5260001b62008798565b620086697fe2409a34d1455cc5676056e65cfbbe07cf54304238ab42e30dbde81f05fc1be860001b62008798565b62008673620097dd565b73ffffffffffffffffffffffffffffffffffffffff167f713ad896423a80156e30820a6075c1f3e6565c0278c0a646a549fedadc71272b8b42604051620086bc92919062010dfa565b60405180910390a2620086f27f51bb727668e0fd6fc6250456da57ad68ed13a4cb469a83406c3e47cb469322e360001b62008798565b620087207f900ea89f097b958120ab55f24a3dd0947b2b447716e44992389660c121a34b7760001b62008798565b6001985050505050505050620087597fdd8e023589bb1f5964a3b72d19cef9afc68cf0ae7bf78e308304ea652461902d60001b6200924e565b620087877f185fbade08d766ef5c0b5eb0d1f659bf506ff5f70cebf3477019e6c0cb0fb98460001b6200924e565b600181600001819055505092915050565b50565b620087c97f85331a087b8ed9f4bf4ae404b59aec6293efce74366041ba5457c95765c3f26760001b6200be7a565b620087f77f66961f7904a4cc4fca82c48f27f89f81c70712daacda78a91254feac20d89c9260001b6200be7a565b620088257f469d856bf6857d98ea989fc019f8e045e90cb2554a9e286265605e5e05c30bc060001b6200be7a565b60006200883162008c03565b9050620088617f51ca0db405eeba47c5d48a3becb5b776d6909d5629a9548587192e999c7e01ab60001b6200be7a565b6200888f7f93a846c97590ddb844806d7e2a1cd1557e12596bf382ee8bbb7a2137a1e3f84160001b6200be7a565b620088bd7fcdc12fac91d0a2f4f629e62b71ae22e7c066254416eacba7ed259ae22942c4cf60001b6200be7a565b8060000160160160009054906101000a900460ff161562008915576040517f08c379a00000000000000000000000000000000000000000000000000000000081526004016200890c9062010f32565b60405180910390fd5b620089437f61189823ae8d8820cf72e3672e4ac0e14f4fb8af96187cd2d1c18ab58497f7a160001b6200be7a565b50565b620089747f8ec893aa791af6d537b40b870ff7ef56c54ae8a708be175378c040664553b80460001b6200be7d565b620089a27f824439d7b8ad3ccfc6a7b84ff290c16ad57b8ed19354a8132169fe7b4a23848960001b6200be7d565b620089d07fde962410e963206a6c991c90517542e866b35c809d27fc95d7790e31e66921ef60001b6200be7d565b620089fe7f52562fb46539559f16c752a8b6ddc12e90d4b756fa35d521eb041d5c22f96f4f60001b6200be7d565b62008a086200be80565b60040160009054906101000a900473ffffffffffffffffffffffffffffffffffffffff1673ffffffffffffffffffffffffffffffffffffffff163373ffffffffffffffffffffffffffffffffffffffff161462008a9c576040517f08c379a000000000000000000000000000000000000000000000000000000000815260040162008a939062010fca565b60405180910390fd5b62008aca7f3abeaa9a7a5c31ab81cb64392449308332497436d08567b980542059c6cc865d60001b6200be7d565b565b62008afa7fc1a9524078547af9ce244179273b116b34d985d04c20ac99204b1a9ac8ce049360001b6200be7a565b62008b287f0d999c4ab05c25a1d77227895604ce338e8f5bddfef1e8b923fdacac43feb3d560001b6200be7a565b62008b567f1f95ad70244ce953c63952d8286302487d99fde83b4492c98fef3f5dfba7bae060001b6200be7a565b62008b847f42cf94c2dd4ea59cf5ef1c16fcd29fb4637ac4c73d254247f1680761c70a0e0660001b6200be7a565b62008b8f816200bf66565b1562008bd2576040517f08c379a000000000000000000000000000000000000000000000000000000000815260040162008bc9906201103c565b60405180910390fd5b62008c007feccc30bbe514abf767692b3de706bb415b515144fcea26affee174f839b903ab60001b6200be7a565b50565b600062008c337fcbba79f9261db078091467664d5b84589857124d13216bd4514646c8c76d025a60001b6200c0b6565b62008c617f724646df3e0020e3b200b7c2cdf653dfe7c4d57f2e237999b185e7819550fa2f60001b6200c0b6565b62008c8f7fc9b67fad89b63ae30277c8a003424347566f29554d769ff61cd52986b61de40360001b6200c0b6565b60007f66bd28df09c9271bd5696185e1f2db071a0ed825a4f7df621c22ef195c811e9f905062008ce27fd550276b708b0edc784cb9667d4f336122f90f3c3857eafd0852a0b28138047160001b6200c0b6565b8091505090565b62008d177fed8b10f1efff57c736b33c495fe5889a85be78842220db1addc3e75766d3516060001b6200be7a565b62008d457fc960367ad7789fe5b3bd43b665b957370f7aa68a6b8ac5eb732ef4e75c634a7760001b6200be7a565b62008d737f8bbb9485b1eb673f049c1b7e68b6d91533a80541e20fe7f14fb1fa5f6684663560001b6200be7a565b62008da17ff1ec74d0b1ea446481e0ef5f1a21ca37b5c9f310fdfdf3246642fee248f42b0960001b6200be7a565b62008dac816200c0b9565b73ffffffffffffffffffffffffffffffffffffffff163373ffffffffffffffffffffffffffffffffffffffff161462008e1c576040517f08c379a000000000000000000000000000000000000000000000000000000000815260040162008e1390620110ae565b60405180910390fd5b62008e4a7f397144e5cd0b859c88e40362b5b1335e0fb0db06fe7a231b484e401a1bee68bb60001b6200be7a565b50565b62008e7b7f936182a2dedc8d8224a367049175a9d441d533c87c96638e3a524d747ec4dbe560001b6200be7a565b62008ea97fac4da25d765b6494751b9f7e48175510a76d88306429665be00c9fb50b4363c960001b6200be7a565b62008ed77fdcef6f82a6908337d4f5b962e886fdd7947506f731cedd75891bbed765eacd7260001b6200be7a565b62008f057f0aec8dcc5bc1134dd39b150855ec8801512ec33675d3d557f9bedb2c084398f160001b6200be7a565b600073ffffffffffffffffffffffffffffffffffffffff1662008f28826200c0b9565b73ffffffffffffffffffffffffffffffffffffffff16141562008f82576040517f08c379a000000000000000000000000000000000000000000000000000000000815260040162008f799062011120565b60405180910390fd5b62008fb07fedec08fbd605817420c3eb6057a96faa6e1531c8a4431530861f29dfa908b53c60001b6200be7a565b50565b62008fe17fafef8a3232bfcead22c3b280d45014942603646b0b3635b77586f6fab90bdcad60001b6200be7a565b6200900f7f4c293c36f08990dfda383a888e1d473b5051352d74631548d72adc81a2c5749960001b6200be7a565b6200903d7f144cf7c22a29f43ebb18794ee01aff799244fd93ed1f3428916539380e7c6f9b60001b6200be7a565b6200906b7f1440edf26e3712feaafa075ebf45373c97866c98d3e8bc65eb16fc08f63a070260001b6200be7a565b62009076816200bf66565b620090b8576040517f08c379a0000000000000000000000000000000000000000000000000000000008152600401620090af9062011192565b60405180910390fd5b620090e67fb9d3dbac6d3e2a578dca5fe0641e08e7e08f450092888dec5c7b0d2a3184706b60001b6200be7a565b50565b620091177f8719274a074c5128706d25b5fbb7d108ee5ed8621f360c454aed4567a3ff157960001b6200be7a565b620091457fe5e506432cdbc5423e6c2afbc4bcd7d6a3d44459e9a7d252297481c83cff049260001b6200be7a565b620091737f1734315eaeb79c1383e053b649c724acab37602a259d2a7c52b61907e3ba2a9b60001b6200be7a565b620091a17f26174d43f1eae9e3140f029d5953103b5996aab8fb411d7328af7c5c3aa98c5b60001b6200be7a565b600073ffffffffffffffffffffffffffffffffffffffff16620091c4826200c0b9565b73ffffffffffffffffffffffffffffffffffffffff16146200921d576040517f08c379a0000000000000000000000000000000000000000000000000000000008152600401620092149062011204565b60405180910390fd5b6200924b7fbefc3c4fd37495002255e91c06057f0268f987bb75d4f7a2ade3f42c57c1d94360001b6200be7a565b50565b50565b6000620092817f056d3c331e41d5b766933482247804dd3546d9bcfab987ae9703d1a457e7c6ea60001b6200c21f565b620092af7f0da131d8f8014c05ef653bc670cf175a0e5cde992a8612ad7ccf33573906d79760001b6200c21f565b620092dd7f5bb3f1974d080b77263126d43238ce426edfb2c38411144819732805196616f960001b6200c21f565b60007fd5b0c411a6c50ab7237d5bdf5f4be539f3a9603f77c2fe2a10b3944fcb2c324b9050620093307f7a53e5af97f3281f34529062653a5fc0cb6736ef23b9cec41b16b00384c142cb60001b6200c21f565b8091505090565b6000620093677fed3e11dae2800cd8120cd663a4535bf9489f36535be92150563906a6e9224cd060001b6200be7a565b620093957fefdb23cdc2f95add57dec0f1ec0588e4ceb04ae5d02e9aae83dfb8eb78a5b37e60001b6200be7a565b620093c37f86632ed8392351940a76c81d14cc08574335b2a6bc7af082218e42bfa81ac8e360001b6200be7a565b6000620093cf62008c03565b9050620093ff7fcad8f03d488f4799f0d2bc7b3b3a364ab839864c5e0f0db5aa973b48adfabbc860001b6200be7a565b6200942d7ff9b4772f7c0c6e54ee35cf1fb1a337962f095ea1b76b7f9fa8099caec91cb3b360001b6200be7a565b60008160000160170160008573ffffffffffffffffffffffffffffffffffffffff1673ffffffffffffffffffffffffffffffffffffffff16815260200190815260200160002060030160009054906101000a90047dffffffffffffffffffffffffffffffffffffffffffffffffffffffffffff167dffffffffffffffffffffffffffffffffffffffffffffffffffffffffffff169050620094f17ffc968bd51467c36ea0cf0267f1ecc625cd1b9bb45e5eef372a295f514814419160001b6200be7a565b6200951f7fef4f2074f21280fc38647bff16e28c8d7d503ac00b253f37dd88f42b18553ea360001b6200be7a565b60006200954f7fd88c8580f251e5fdbcdd5738edc24d09540fd1a0db96ef4aa7a7e8938ba5aedb60001b6200be7a565b6200957d7fc5f3a90289c43d2877f9102a5b0f2ff0f59169b3434d2acdb97076b835a7ff4e60001b6200be7a565b60005b8781116200977257620095b67fe3bd10e7288bf4f1de9b710b3bd4d8a0cbc100f32420077a9f531e23bbfc5b6860001b6200be7a565b620095e47f559ec19311e868d6f8241811b010174060c5d0425ca5ee0b570b8918a690655260001b6200be7a565b8281612710898c620095f7919062010b53565b62009603919062010be3565b6200960f919062010b53565b11620096a857620096437f3ddb67a35106f688a8b23e6303e5e44584df3deec05f54e31292b3965f7ffbb660001b6200be7a565b620096717f85a5c2ac73fee7f6856d5376839802f83509b6910c9746666b969c2ea551215f60001b6200be7a565b6200969f7fccaf89335bba61e81c1e69c7bd6f5d4d4c894c597fc890da0d5d10a7cb6eec1a60001b6200be7a565b8091506200970a565b620096d67f83fe9e175054ef0fb73414ab95ac92dcf0cf674686f5a5cfeee3c42db1f6f89360001b6200be7a565b620097047f043ea9bdd21dae0ccb01e8cbb569beb9502a7d2fdb2dd328c3b70362d9e2386460001b6200be7a565b62009772565b620097387fe52ccd20110ee0dd812eb7219f2442fae0798ea7a22deeeaae07e2e952be9d1860001b6200be7a565b620097667ff553cfd40620b851b8295d1ce97e1b6e5636476714f06773fbce738b5cf3df3e60001b6200be7a565b80600101905062009580565b50620097a17fc2ecf6ae2fd1d45ef37d701f1b31d2cce9a3370cd6c61edd0333c8da66b8b34260001b6200be7a565b620097cf7ff000e7bb6f4b8074fe83159c372e3a2a37812b4e6cb6532e2cfac3a8fdcbcaf060001b6200be7a565b809350505050949350505050565b60006200980d7f57747667e8b005c2f220a8f765016a543bb7663d4642e3812c95c63061cfcf9460001b6200c222565b6200983b7f98fab446eb66bd64b30c07063f060fe67b4db79ae8837bfcc8c0fa7cb67aabd560001b6200c222565b620098697fd311dd416734c8958feae0b2169e4cc2af1cfc0beb1b7247543c6e415c5e470d60001b6200c222565b33905090565b6200989d7f7551980ace60a3bf4fae98dd843c6d413314148d3b3c889bb44968847ab8e1ad60001b6200c225565b620098cb7f27a8d4b066849e7621c399e856427ad820ec88011f29e5509af9263e406afed060001b6200c225565b620098f97f4017c77e3137d73e0d26d6f3f76b83df5c6359fe228a01c4ba18d1d5b6c8f28160001b6200c225565b60006200990562008c03565b9050620099357f90b1672065d2a71738b193d909f108bd768cdc936ccc414d7b50463b1a7e39a260001b6200c225565b620099637fc96df5235fb32d1cf8f9a565ddd73873b8938f8d310fe5a90d20d647329d20e560001b6200c225565b60006200996f6200c228565b90506200999f7fe570ba589828521391eba380deb6fe8b42d369036d3a4424763498e9362ff95260001b6200c225565b620099cd7f2e720ad83e1a7c8acf135612a9bfe16df3a419e7921a5fae725f893827a6b80f60001b6200c225565b60008260000160220154905062009a077fec97ada47715b23ff07350af9c185e7b114930d77f6d322706bc6c3ef3dc87a860001b6200c225565b62009a357f93d840a7cc0ac191726132b2501612355bdec3546f8233a108e6fb93c2456dca60001b6200c225565b8260000160000160009054906101000a900460ff166200a11c5762009a7d7f8d7986dc9b2e7b20059fb8db7b8999660ea4ca445abc10babff17cceca6d993660001b6200c225565b62009aab7f05db88d4bccef8a6ba4c0cac06aae83db02dc239cfa3f1d96f1b03703583bba660001b6200c225565b62009ad97f3bdc49827dd12d32a633c4d8a1e54ec31dd6285b89579e46cc55fdb16ed4770660001b6200c225565b620927c0821115801562009aef57506103e88114155b1562009b935762009b237fd5b4b97d692e8fe6d13afa4d988e602c0ecff7d885cb9129c78d27063c5c99e560001b6200c225565b62009b517f7f0239e3036b6fa70f0dea2a7349ecb56d7ba91487b81341d514704152ae4e6160001b6200c225565b62009b7f7f54098bf52efb5d1b490e4dbd00a2996867b9abf9217e0f9c7d3b605dc7826f3360001b6200c225565b6103e8836000016022018190555062009bc2565b62009bc17f8f994c9eec1f47ea6e6ef72dbb26143e4fd6eb706cfe59217f4a57ed5f9c6d7d60001b6200c225565b5b62009bf07f07371aa29c7bde731da4970341a1edfdc05d5252abe45d3fde92f92093c0a00460001b6200c225565b62009c1e7f833f323bb84037a38ed0cf46ad87286fec362e31c644c4b973802c88b2a408c260001b6200c225565b81620927c01115801562009c35575062124f808211155b801562009c4457506103848114155b1562009ce85762009c787f3d42f5c256498c1bbbe165cff670fe578fd8cb63a30f9adcd47b7bb745f4a9d560001b6200c225565b62009ca67f7f6784ea1e8201add109817341e3970de7beb36d765f85fd1a0ba4529e8a7a9d60001b6200c225565b62009cd47fd42723a019f8a16c9e40734f992bc8326b942046d1e7b515b3b88afb7409100960001b6200c225565b610384836000016022018190555062009d17565b62009d167f0170ab570284cf20032a32e6a0ae8537e64d98746954b9bba15a263389d43fcc60001b6200c225565b5b62009d457fb46be680ab62f4cd620663e074eaff7e148938eed795212227645fea0888911460001b6200c225565b62009d737f809bd70ba8e77fe3f69603c292d07b9106c19fae7a0ffff4d1704dc0e29fb85a60001b6200c225565b8162124f801115801562009d8a5750621b77408211155b801562009d9957506103208114155b1562009e3d5762009dcd7f6c0fb483826d32dca51af24436418d05c3b81257798a1e8dbddc2984697fd85560001b6200c225565b62009dfb7f54720ccd4239576c2d4ac298bfffb19ac53737db9ae449608c78100dfd8593ab60001b6200c225565b62009e297f9e7af25bacb300df7ac7e7b02c9950b50dc3eb143b9614783dc2b5285308c43860001b6200c225565b610320836000016022018190555062009e6c565b62009e6b7fa69be51a2459997212a62e1ab11c1bef736ac55bf3a43c4382c8be56bfb7a3bb60001b6200c225565b5b62009e9a7f775d41decc83ceea7e912bba4b655605418e8bc51b7435d5051582227d5bb37e60001b6200c225565b62009ec87fbb6a89ee2d7681749ef0ad46cf1ccdd747f53052a8fde8b4537007d357b7429b60001b6200c225565b81621b77401115801562009edf575062249f008211155b801562009eee57506102588114155b1562009f925762009f227f047e51a773cec13c21cc917f4fee6a572bd1c3523374ef84a13a3278083ac35d60001b6200c225565b62009f507ff4b59b28293363350435fa8debd84eca7187080ff0e051a91c13b0995e062f7c60001b6200c225565b62009f7e7f58cce5e1572ade7aec41302387d541e687eda14ad84c9964e90978679d656db260001b6200c225565b610258836000016022018190555062009fc1565b62009fc07fb99c2a7e08e06a71595b0c42446de2532efdb925410b645c200d7022b3364de560001b6200c225565b5b62009fef7fc512ac302ea2972008a18b7c3a813b4b76b9e6177a226716fb7719b59aed8e2260001b6200c225565b6200a01d7fb62334f64affcfce001a1be4a0ce1bbb94b60c99c492a1e85876650c6fb38c1360001b6200c225565b8162249f00111580156200a0345750622dc6c08211155b80156200a04357506101f48114155b156200a0e7576200a0777f30b913d69ed8115787222411bfa5e6e39c9e339282d9c2dd4ea5313ef98f393060001b6200c225565b6200a0a57ffd137c566007c3c79c580883e2600ac02d28d83a42ebb226558cdd807a20657660001b6200c225565b6200a0d37f43b16a2195e0e5f88c4b9340f97f1ce57cd06c635c3f08b3b5719c4f38fe734860001b6200c225565b6101f483600001602201819055506200a116565b6200a1157ffb6a7bd3bf9df6de74c72d428c54d76089a717d60ebb766d8be910694f6c168f60001b6200c225565b5b6200a7da565b6200a14a7f63b2b5aa6a22bc1ffef9b42f2d7730d3c62904b97b5b13fd47404f40172d13cd60001b6200c225565b6200a1787ff0f31ff772c96fc54afb6b44201ee6d82f1e996c1b34662c874f4713edb4490c60001b6200c225565b6200a1a67f18dfdc4295e9b2c3d94df27ed83b0d0c69037e475a1eaf414b706f2c601ce84a60001b6200c225565b620927c082111580156200a1bb575060fa8114155b156200a25e576200a1ef7fbcfec1a3a03abfefb84d8711ab97a737496c28c4fda22e76d6fc7ac7a79e719960001b6200c225565b6200a21d7f7982bd72aca0568b6f953e1a8f04ab2ac19f03edd178c69434ac35448e3d36b860001b6200c225565b6200a24b7f0edae49828509d40e05b149a21f23ab99c31ab795bfaa2fc5b83cfa0abad2e1f60001b6200c225565b60fa83600001602201819055506200a28d565b6200a28c7f45f70ce0a965aad71d88524549f2f17df5136a99dce02e09f7b458417db3dd4e60001b6200c225565b5b6200a2bb7f0e8fad599e40189ae1db6a35dd40b9e328a25b05910b4fb9f139a92a7dfa7ca960001b6200c225565b6200a2e97f6360bb06be6d107b414c4aa61acc042d77b48ca02872c6a742d3ee7bb732b68260001b6200c225565b81620927c0111580156200a300575062124f808211155b80156200a30e575060e18114155b156200a3b1576200a3427f130996626815c9f5c9622c275ec16e57b19d54fea0ca38bae0e44ec3b193765d60001b6200c225565b6200a3707ff64633b6967b99ae9caad4db6c7081877fda775ef85da972680c479546ca373a60001b6200c225565b6200a39e7ff14c86b018c266064c49d9cc402e695d7bf0a547eafd3d2e9517c658370ff4e960001b6200c225565b60e183600001602201819055506200a3e0565b6200a3df7fa5ef89d1e41606d71f8e078f0905683ffaeb3c93cec0790f5b8bc7c72ae6ec9c60001b6200c225565b5b6200a40e7fb41461118abe48b9ec8bb652b17e89d6c24936a7bed8e8f12d8d3c2fa436d1fd60001b6200c225565b6200a43c7f142dee16672d31cc2a2df22145e70053f47dace185778a65ba9398289d8d9f4360001b6200c225565b8162124f80111580156200a4535750621b77408211155b80156200a461575060c88114155b156200a504576200a4957ffa425314085d05ad450527d728c7f05b467230fcfc0193ac7a986d26c2a16abd60001b6200c225565b6200a4c37fd76265f654577caec90cc186392b515ac2bae1bc5889cb421906e83e8752e61c60001b6200c225565b6200a4f17f01e8f554f02f6b45e6cbb1f3b9c1b4a5e86940973dccd17dd030978e4f514df660001b6200c225565b60c883600001602201819055506200a533565b6200a5327ff537bfe1b4524dd4c4bf7dc3deeaf79508594ce6fc4e5f3d92595b6f9fe7a67560001b6200c225565b5b6200a5617f913dd214affd72e1ae3ef78f13bf7c78bdcc498be763fedf1c5524118ccd314060001b6200c225565b6200a58f7f7d6f8f9f95f8dd8f1b7bbb7c699abc957dcfb15b6a227d93f0df678c227011c360001b6200c225565b81621b7740111580156200a5a6575062249f008211155b80156200a5b4575060968114155b156200a657576200a5e87f3ba3c6951d1bd8ef7186d3ff08b91540b172d951d59584472c2e955eb8a6b2ea60001b6200c225565b6200a6167f69830aef5006669869f18edfd5a3f8f7fe26a169e48649548a51684195d1659a60001b6200c225565b6200a6447f3bdf528f72a41e630467281ff0c6b3ca6ceb3c52831949dca921b599d05f615860001b6200c225565b609683600001602201819055506200a686565b6200a6857f381ee473864612efe73e4ee260e3f684b6fb39a3882de76d028b2e8a9a8078b260001b6200c225565b5b6200a6b47f2fdcf08569ea359970eb9e03238f405d8af0b22d45aa523620fdc81bb9601a6760001b6200c225565b6200a6e27f431d4e2356015ddfdbefa899c32a2d33e75e47abf00fc71ea7541031576129d160001b6200c225565b8162249f00111580156200a6f95750622dc6c08211155b80156200a7075750607d8114155b156200a7aa576200a73b7f87a841efdaa71534288afe25b570869ca86436e16abd4c3121fa62e0c0c6f74460001b6200c225565b6200a7697fd9330cb7a8479010f54941a0f620043b8e182ee96ce5a16f30ac6a7e8466058460001b6200c225565b6200a7977f5a9f044f2ef6693e8444d2d1b8948018df9507d9703d159c6587af173144af1360001b6200c225565b607d83600001602201819055506200a7d9565b6200a7d87f3d891ebe66a676f8e612a75df16a76096e24e1f6e044e84e853da5f3beddbc4260001b6200c225565b5b5b505050565b60006200a80f7fb1d488c17a16c1eba2d893149ea8caf29ec7e8a7848edd9c9d12dd4bfea3d5f060001b6200c225565b6200a83d7feae71307a995e652894107e210c5f5765d13d6c57833f156d3d4d5031b3d12ad60001b6200c225565b6200a86b7fffbb726ec766c46acb964190fcbe16a6f788c2750879a2f30e49d82e18ad4f2160001b6200c225565b60006200a87762008c03565b90506200a8a77fae89f71dce30d36ba5a280769c5b84568e0a79c7ac249a53bed7bb0e48f9dea160001b6200c225565b6200a8d57f6dbd5245851c743eb47d98a71cc71ef4e2064a7b95d82b6e9dc10a5a50e7c7fe60001b6200c225565b60006200a9057f1b5cee164a3e27cb90a78d6f17ae14e46b1c3dd2f77d9aea0c0bd08122b919bc60001b6200c225565b6200a9337f9611178ac79e75f7a2d173735fe979845eb0ce0bf051e6eeb5ad0e942e55c78360001b6200c225565b60005b60058110156200b4dc576200a96e7f3b436a98b45ef3ebe946be67fb1e8c284d0a88165e553087339ae250052ef37e60001b6200c225565b6200a99c7fa0042d3e94e680b9e94e8d673e59ba0f2064d168690927abdda233a210cb575d60001b6200c225565b82600001603c01600082815260200190815260200160002060008873ffffffffffffffffffffffffffffffffffffffff1673ffffffffffffffffffffffffffffffffffffffff16815260200190815260200160002060009054906101000a900460ff16156200b03a576200aa337fd7d77ae1e64b194642954a7beb7ee6ae77b59aea94b74773986251dfde69d28660001b6200c225565b6200aa617f7e015e21018a83279a2c68f2834b82bdebfdc3a396777196996863e5c5f52edf60001b6200c225565b6200aa8f7fa1bd7e497f971b63214f9785025276d8c71f153b41f8882c9a783f1d8013bc9160001b6200c225565b6200aa9b87826200c428565b156200ad4e576200aacf7fd35cbe9aaba72332a3c3086b6db8832309da5cce615e81aed8c368f666e4271360001b6200c225565b6200aafd7f37d9e49fd84c7552d7ebbbe9b731b7b91eb742b4bde361cb3ae55a6b22e2211b60001b6200c225565b6200ab2b7f4eacf87eb51035c874864d41e02c6acbed27855fe00ab8050913e151c6fe602b60001b6200c225565b600183600001603c01600080815260200190815260200160002060008973ffffffffffffffffffffffffffffffffffffffff1673ffffffffffffffffffffffffffffffffffffffff16815260200190815260200160002060006101000a81548160ff0219169083151502179055506200abc77f7b77efcf224b256a39c682e98367ffd79af761abadbe514377a7e9460e6635f760001b6200c225565b6200abf57f48a7472500632cab09ac7e658f9dc6bd5add12d3eaea6c936ff4c7661c8ccf2d60001b6200c225565b6200abff6200c6a7565b83600001603b01600080815260200190815260200160002060008973ffffffffffffffffffffffffffffffffffffffff1673ffffffffffffffffffffffffffffffffffffffff168152602001908152602001600020819055506200ac867f02c8874446882f70125939d8c38ba8f6fc7fcf28f4c1809081221b40ee80f97c60001b6200c225565b6200acb47f281ad9a0efe6365c2fd311faef83951440134cf1129031bdda47e86d68d52b1d60001b6200c225565b8483600001601001600080815260200190815260200160002060008282546200acde9190620106c8565b925050819055506200ad137fcb88a0d61762a5e828345b82e3690de3d303605a96a174af4ef8b44d55ff451560001b6200c225565b6200ad417fc333abee4e25afa75c26d56034cc943bc7b391ccd52024a564750c2607f4dfeb60001b6200c225565b600193505050506200b540565b6200ad7c7f696c7d6735378e4710b45a25c4b987d24db491d02d70a6308e3a5bcde24e518b60001b6200c225565b6200adaa7fd60da757bd5eeb83fab90cc2cd44790ae427884d8ec7c7d1072f238f5ba0c11b60001b6200c225565b6200add87f73d1765a35c02042b5819eea15e5eae8cb1faf21c08fb76597019da8d8e38c4960001b6200c225565b600183600001603c01600080815260200190815260200160002060008973ffffffffffffffffffffffffffffffffffffffff1673ffffffffffffffffffffffffffffffffffffffff16815260200190815260200160002060006101000a81548160ff0219169083151502179055506200ae747f83b0ccbfb199b5662998f22fb39ff8071629bc062afe23364fa95ddc8d26a09760001b6200c225565b6200aea27f626dbd4b48258134fd0703494e711cd0a7e1217bd12691437bcc4c773a897fe760001b6200c225565b8583600001603b01600080815260200190815260200160002060008973ffffffffffffffffffffffffffffffffffffffff1673ffffffffffffffffffffffffffffffffffffffff168152602001908152602001600020819055506200af2a7fdc0cf65aee821e2e656f2384dc107fcdf195523249d7d28709dc0914d8f6af4860001b6200c225565b6200af587f3c8b29be2a52e60021cb7611e340802a207ba5bdf758d0b8961525fa339a60cf60001b6200c225565b60006200af6660006200ca18565b90506200af967fe1953e567b24a67aaf5c3d81c01dd6625a30caba991c3375b6dfdfad56784ff460001b6200c225565b6200afc47fdf82b8764ceb6d061f4655d5d538ceca52935f91d2dcfe93792ca3fd64cdcb8e60001b6200c225565b6200afd088826200cbdb565b6200affe7fb63a296aeb5074d6cedc60ea250b14bc2d184cf752ff4656fc6535da1f1c451f60001b6200c225565b6200b02c7f1bdaf25274f424dc99f138ed6b273075aba112c89f72e97658ca42c4921a7b9560001b6200c225565b60019450505050506200b540565b6200b0687fb937bfd2d2bf25c02dd6a69541620bbe797967a7012d7cb33c71b620ce832aa760001b6200c225565b6200b0967f14c90cf6c3ae690f6b03e72ef1722ed013f31e19d5d46beffa72a4e2fdfe2f1660001b6200c225565b60048114156200b446576200b0ce7f21bb241dcedc64bcf5edd1c06582cb368b52ef6283b5ed9fd6c616d5312af01660001b6200c225565b6200b0fc7fe8bb20d33c3e596aa52c9d7f77d100101222b4cad5e2601f0b3f83b5d0bfd72f60001b6200c225565b6200b12a7f407d0fb95bd6ea8d29ecb416e8267315de173ed551097a25ea5e3271c5a0fbb960001b6200c225565b600183600001603c01600080815260200190815260200160002060008973ffffffffffffffffffffffffffffffffffffffff1673ffffffffffffffffffffffffffffffffffffffff16815260200190815260200160002060006101000a81548160ff0219169083151502179055506200b1c67f42e51e9dee00b47e84c8e52456f40b45c393d800e6b3d300744b9dc64d05510560001b6200c225565b6200b1f47f8e420f665dffab7ac6fb1e76f4057931778ad5251b0bb029366ba086afb854dd60001b6200c225565b6200b1fe6200c6a7565b91506200b22e7ffd672ad6f714ca947c9cf0ad497746906f9d57a1cdcf46560619dcb36f7cbe6060001b6200c225565b6200b25c7fc2b292fc667edec8921de5f23493d58a998b3f7b648a83857e1272b0c6f6219860001b6200c225565b8183600001603b01600080815260200190815260200160002060008973ffffffffffffffffffffffffffffffffffffffff1673ffffffffffffffffffffffffffffffffffffffff168152602001908152602001600020819055506200b2e47f4fc7f68e7cdb71bfc643abc27de44ceb450c3598485caa3f4b9108b764a0757c60001b6200c225565b6200b3127fc33d1a28b2e17d13ad48ff0ed4b7607af3474e305f90d8c76e5113560cce7c2f60001b6200c225565b428211156200b3ae576200b3497f92acc378e4fab4f5dec1edd7b9cd11c9dcb7429780733be3ba53bde70b4b49cd60001b6200c225565b6200b3777fcfc3cf0482933c9f4f4c7adacf748a51838e9f32828c54cbc61ebfa4c802481c60001b6200c225565b8483600001601001600080815260200190815260200160002060008282546200b3a19190620106c8565b925050819055506200b3dd565b6200b3dc7f458c2f9b2980bfcd8d03b053fdadbb2aa60835c7064b4fefc62bfa5e2559b6be60001b6200c225565b5b6200b40b7f0ec007e099619509916e639c2e3a5798ce0b98a24443db3d4667975ae23f2c3660001b6200c225565b6200b4397f71e516c4425afca7e1a55bab28ca45032a8e8ba7cd10feb8c99deab90cb2b8fb60001b6200c225565b600193505050506200b540565b6200b4747f79c2dab7bd3f1c45832292cd8346356751205bdd86e54214a1a3a1ac3688b81060001b6200c225565b6200b4a27f21328dc6484abe07526dff1647b6e8fba11d7a6a5dd6f3a7379f7c1ff14d6e2560001b6200c225565b6200b4d07f28d958df3339ff31d7622afbc1f9b652f7dedaba956b941e1304bfba0b2bbdf660001b6200c225565b8060010190506200a936565b506200b50b7f22dc070806824fb8d69605a4b4dcf620f8a892a535ff6d90d3923c50741ac14360001b6200c225565b6200b5397ff7299e77c7791de1192b8953b71e7f3dd1f7b828a07671eccde055cd3097087a60001b6200c225565b6000925050505b9392505050565b6200b5757f1e834b2a9a3090cf656f17c078e058d29e9528201703b797d01353ca32d2131e60001b6200d5ad565b6200b5a37f3b46c0c7d3a0d6bd03222e629913df8922784a30932bd7b9dc2d431b81809a6260001b6200d5ad565b6200b5d17fb202d3d6fb7a49f772f4b8a18d1f0273a7824897811edecea44739372479168460001b6200d5ad565b60006200b5dd62008c03565b90506200b60d7fac5faee795d8714738cf342398e027955f8bbf15b1b4674ea86e301ff3bc30dc60001b6200d5ad565b6200b63b7fcdd784e292a51ffe04d1b079dd1ab645bca7745c8fe5d7ccb604c175a20158f960001b6200d5ad565b6200b6697fcbd1e478a41d520cea1f0e7cc934eb3f4d26843c7c1699f6151c6474c492863060001b6200d5ad565b600073ffffffffffffffffffffffffffffffffffffffff168573ffffffffffffffffffffffffffffffffffffffff1614156200b6dc576040517f08c379a00000000000000000000000000000000000000000000000000000000081526004016200b6d3906201129c565b60405180910390fd5b6200b70a7fb40694681a9d01f5370f15d28fb1fe1c0a2657688a3522a3dd4916a8ea52ed3d60001b6200d5ad565b6200b7387fde97ad692b134d93129f0a0b3dad5b1cb0e1b5f97863da6e98f61d2f48d0822860001b6200d5ad565b6200b7667f31425a0afb9f466629a403b69d863d8785c8c1eac9b20cefe01faacb767d9d4460001b6200d5ad565b60006200b7726200d5b0565b90506200b7a27fe24a7874fe913022356878bb0d861c22347ed1c90a5d007792270c91bbc6b7e260001b6200d5ad565b6200b7d07f3b3ee5e19c25598e8fd3d0f8e87df91bbc505fd7d5828a28042521b4182266fc60001b6200d5ad565b60006200b7dd866200ca18565b90506200b80d7f4d38d7560c5ff32e6b976fc05fde79668d712c364f9dd63ecc5b51da586c944660001b6200d5ad565b6200b83b7f998c7647409f20dffbf54689e0ebaaeba9f65d6d924efe2858cd8029924748f460001b6200d5ad565b60006200b848866200ca18565b90506200b8787f4f3259dbd3fae882e0db39c545a828235ae8db048b8d752ecd2b390686eefb5d60001b6200d5ad565b6200b8a67f43d16a36b5296088a7ab973a5f1569d9fd224b39f032c218bc6482e9a80c2caa60001b6200d5ad565b6200b8b78360008a85858a6200d642565b6200b8e57f01afb2c4ee25906d4f6ab27daf5138d93fcac287c0797d0431be832e3bbfb18f60001b6200d5ad565b6200b9137f698d5937c185f0ab5bbb31f0bccc7d97f5b3437f6648b1f0a6c050a8befa3a8a60001b6200d5ad565b6200b9417fddb271e08d2cbd3d2bdd55e4cf4113e16350eee0dac42a51c0c7d1ed96ce9d4160001b6200d5ad565b8584600001600101600089815260200190815260200160002060008a73ffffffffffffffffffffffffffffffffffffffff1673ffffffffffffffffffffffffffffffffffffffff168152602001908152602001600020600082825401925050819055506200b9d27f76f4274a6bfaac4a6e18d6499ec0ae7b9c8d78674e707ce7f3d6bb7dc92cb9c660001b6200d5ad565b6200ba007f69bf6a5cca21d7a6b8d1af9021bd4d136d561d8a082962aed7e52764349eb43760001b6200d5ad565b8773ffffffffffffffffffffffffffffffffffffffff16600073ffffffffffffffffffffffffffffffffffffffff168473ffffffffffffffffffffffffffffffffffffffff167fc3d58168c5ae7397731d063d5bbf3d657854427343f4c083240f7aacaa2d0f628a8a6040516200ba7992919062010dfa565b60405180910390a46200baaf7f888256ea5b9d4fc0224aac7d33a1ebd2bdc63ac607a1aa0d97cd4079e99f31a360001b6200d5ad565b6200badd7f37605d7ba56fd5783fe573b253384f4ecb46f46fbf2e9f6a33dbd1fa0da8003a60001b6200d5ad565b6200baee8360008a85858a6200dd44565b6200bb1c7f74c63248506be74dee3e5e2c7c47bd9c983105faf4486fda63f555a1f432758b60001b6200d5ad565b6200bb4a7f9ac1e1be24c548455885114445f63d417dc778b6dd47dae589ea095419ae424a60001b6200d5ad565b6200bb5b8360008a8a8a8a6200e05f565b5050505050505050565b6200bb937f189d20e31a797ebf0714ed1c2dda0c9c55a9b937dd536464855fc3d2b85312b360001b6200be7a565b6200bbc17f928cd7014d50807b1518b211b47b8b1404c2dc05e43c4a8d6abf17b0ba9d9d5560001b6200be7a565b6200bbef7f44e45ba63aff70e8c48db6bff6ff1962ffe82974c10ec41a57df6b7f8234968a60001b6200be7a565b60006200bbfb62008c03565b90506200bc2b7f120c1a2c7ca25037fb956887429e00109061ca66f63f125bddfe49c9fd37629660001b6200be7a565b6200bc597fe0120aab346838f29482ee7718b4e1bdefc5614ecf94bd243583168bf3319f9160001b6200be7a565b6200bc877fbcbf7f41d5cfda8b3d3de1f8be30e1d492f4a4abfdbe87c995eb038bfe5d32a260001b6200be7a565b600081600001601c0160008473ffffffffffffffffffffffffffffffffffffffff1673ffffffffffffffffffffffffffffffffffffffff1681526020019081526020016000205414156200bd12576040517f08c379a00000000000000000000000000000000000000000000000000000000081526004016200bd09906201130e565b60405180910390fd5b6200bd407f2308ab2555bfe980a9edaf704d3d11504aaffff304c748b277147b42e624746060001b6200be7a565b5050565b6200bd727f89c36d917ffa01c0d3b6dd0fea88a93b389738ef2ef38178583e4dda95a7c50760001b6200be7a565b6200bda07fe3b61301b21a9ed1b631ba4af45446b4e715039206fb7860bdf45c142952fed160001b6200be7a565b6200bdce7fbd71ceca4b4687b15ff609ba2b4e6fb5b61f84294c720378a2614d5197858a9660001b6200be7a565b6200bdfc7ffcc911c477a44469acd7176a490491b5de10f03612a3348bbd1c060cad27a9bc60001b6200be7a565b6200be07816200bf66565b6200be49576040517f08c379a00000000000000000000000000000000000000000000000000000000081526004016200be409062011380565b60405180910390fd5b6200be777fa10e6496ebc34bb52e0f3bcfabd465b2112c10ca4924408c244a5238c16d6b8760001b6200be7a565b50565b50565b50565b60006200beb07f37624c78b12de03a5f297d9c950f3c6fc4b70342068ec5e4685d0b6d5384bc8960001b6200be7d565b6200bede7f6224ad2357ddfdde3d06e7d433de8597a0c802b5961d43d3d5667abb8dcefc1360001b6200be7d565b6200bf0c7f4ba10ed08791a423d97bea0744f82f3448aa933f5dc1d334f2aa7799e156fba360001b6200be7d565b60007fc8fcad8db84d3cc18b4c41d551ea0ee66dd599cde068d998e57d5e09332c131c90506200bf5f7f3459e835b9cbe60eac3148958d95eace06d7b6690e6dc02cb6b8a1ff93a77d7660001b6200be7d565b8091505090565b60006200bf967f67bebb525cedbc2db0cb1bb6005995fdc0c04076a0da2beb3a3b4cbffef15fa960001b6200c0b6565b6200bfc47fdd9c936333b2fcf609b1b449ab9144a760bf009538a8b8966cc7f39aece380ba60001b6200c0b6565b6200bff27fc7a6dc45cc9ae04190f550db4b9a670a5713a42a1e9ad6a0c812d0a2fdd51bea60001b6200c0b6565b60006200bffe62008c03565b90506200c02e7f62e12311e56b3b1f85eb07a09e26b511bb13c209cb2c2a72a0d87baac0ad387260001b6200c0b6565b6200c05c7f81e0ce7e3e332fb062b5afc47b1fcf8fdb77fcfda82987b29c32979ee89bffe560001b6200c0b6565b80600001601f0160008473ffffffffffffffffffffffffffffffffffffffff1673ffffffffffffffffffffffffffffffffffffffff16815260200190815260200160002060009054906101000a900460ff16915050919050565b50565b60006200c0e97f8117c6ccab828cd8ddc9fbb0767c104de9bdf95503c48765e24af8f1f781dce360001b6200c0b6565b6200c1177f4b7a6ec6d627af0725819f1fbc4ad77a115e269f487ed4a492d71cf9aa42064460001b6200c0b6565b6200c1457f25743e2ace1d023982538db21415d1cc47a3353f8cb4a4c65570b28e2d96a01a60001b6200c0b6565b60006200c15162008c03565b90506200c1817ff4e124420e4ef215e582863d7cf1caf12385f12fc68eefea32519ddec15e50f960001b6200c0b6565b6200c1af7f9dee8f172154e8fe94db19297d2ca72c9055ddae129da50c83a3afe45777b6e560001b6200c0b6565b8060000160170160008473ffffffffffffffffffffffffffffffffffffffff1673ffffffffffffffffffffffffffffffffffffffff16815260200190815260200160002060000160009054906101000a900473ffffffffffffffffffffffffffffffffffffffff16915050919050565b50565b50565b50565b60006200c2587f88db71234ef20e6c7f0c210a2eff32285a83602aea71b76735928b1fec940bd260001b6200c225565b6200c2867f47404897213d514e6f3e46f2bf06eff481bb56dc086749ee0ac46869356eba5260001b6200c225565b6200c2b47f0a90175bec34622f2f68238acc9cd835d65831ef7aa90de9974b5693cf40ae7a60001b6200c225565b60006200c2c06200e572565b90506200c2f07f61b6db5653b1544ecb304c63e268202cc0b2494c113fbcd9f3d8663462239d1d60001b6200c225565b6200c31e7f379a33961ce3dcc1c9b7e8c293cff55d64e383371b97a1643c3c42db33ff710560001b6200c225565b612710816004600581106200c338576200c33762010956565b5b60200201516200c349919062010b53565b6103e8826003600581106200c363576200c36262010956565b5b60200201516200c374919062010b53565b6064836002600581106200c38d576200c38c62010956565b5b60200201516200c39e919062010b53565b600a846001600581106200c3b7576200c3b662010956565b5b60200201516200c3c8919062010b53565b6001856000600581106200c3e1576200c3e062010956565b5b60200201516200c3f2919062010b53565b6200c3fe9190620106c8565b6200c40a9190620106c8565b6200c4169190620106c8565b6200c4229190620106c8565b91505090565b60006200c4587fb01c21a7056d600a8a22cad3056c3c8a2e316e3eeb0fec9a70f671724e81b70060001b6200e7a3565b6200c4867fa1e63d14da21686b7cbbe08c6b7dfeebc05da1bff5022833f88250578638443e60001b6200e7a3565b6200c4b47f5be0227ad81a175b4c99e7b68817f1589b0b9d09dd6419c5d59a3db033b7d02860001b6200e7a3565b60006200c4c062008c03565b90506200c4f07fd786ec36820f436d2a97a321dd23200b38ec5f7c316cbb8d882ec4f2130304c460001b6200e7a3565b6200c51e7f25be3cbf0a78a60569fb7448616a1f0f8c44e0119f1ee2b3de2ffaebefcd9e8460001b6200e7a3565b80600001603b01600084815260200190815260200160002060008573ffffffffffffffffffffffffffffffffffffffff1673ffffffffffffffffffffffffffffffffffffffff168152602001908152602001600020544210156200c611576200c5aa7f6d4c8f9c975b3de7df30a9880637d731c282bd2f66c1e1c11d8deff4e78e207e60001b6200e7a3565b6200c5d87fbeee5774a3c1b6336049ef56efb43440c24da437266f1ffc185c737482fe2c4b60001b6200e7a3565b6200c6067f4d2296860b4cee80c07f222f1d796eacf310d1c690a7e72898d44258935e707b60001b6200e7a3565b60019150506200c6a1565b6200c63f7fc8569885a6563bc8f5e8f4df6b12acc3c6d322faf279e23b55940996d0f455f560001b6200e7a3565b6200c66d7fab432d7a63c40278e9d3ae22e0a07c65e9cb5b62fdc5b4b67510b18d16714f1e60001b6200e7a3565b6200c69b7f5b8162783f1da79d6d3bebc584837af2fec3ebf94de7c7c8e757a4ad1c85a30460001b6200e7a3565b60009150505b92915050565b60006200c6d77f9b4b48d5cb418fa31d325f9d1d859e2ca9033bd49b687625e19c56cd6e439fd560001b6200c225565b6200c7057fc90f9fdef0e4bc8186ecf95cbcafd3947beb057bc0e08b4f47405f70214e0d6c60001b6200c225565b6200c7337fc572a6be3ed6f2c92f0553630ce2dc5681dd713adedcd9ce8817254e6864e16d60001b6200c225565b60006200c73f62008c03565b90506200c76f7fb10e55e55d94361da420037688de48816abeb78cf68c3a653b7f7de6f8f6cd7a60001b6200c225565b6200c79d7fb462e4e5bf3d4a9ded83fa64b97de8a0dd981b226baa3f36b593da989727ab2c60001b6200c225565b6000816000016012015490506200c7d77f7ae3309bbedb5d14565934007d68337e5a6d7b7fb37356d5bf36bd83c007091160001b6200c225565b6200c8057f07f938081449b8333f91d16a9387f4b86b45dca8d52ec87fe14243a9be43f3f060001b6200c225565b6000826000016013015490506200c83f7f04c3eae5872f79c41c3f55ba08384653cb06a5bfb61f0e74c5be1f1ec15f48cd60001b6200c225565b6200c86d7fd4d7feb975782dfe534156b1228c1fd97f11b359e8f4c0542a783058bcf3ec9860001b6200c225565b60004290506200c8a07f0fd7cbeb94dc92dfa2ddae06fabb3922fad294928adfa20ff414dc7bfb07db6360001b6200c225565b6200c8ce7f9d5a5a5b5e4d8388fdf262198a7ff595fbd166cd2a9997ab9b23a4fac0f1d9b160001b6200c225565b82826200c8dc9190620106c8565b81106200c976576200c9117fddb2644f289312d73ab601813838d1860634286646e9b952ad59fcfb6c8bcab760001b6200c225565b6200c93f7f45ccdc926687c707b9b687a55286e91d19cc6851844cc0ea7cca85a3cbf3c98260001b6200c225565b6200c96d7f90508a23e9ba224d4ee540a5aab4d77e77614058664d85f5b13c82ca2837d02160001b6200c225565b8094506200ca11565b6200c9a47fde70ace7877886d4243417396448bed890da76d05e2887bc9de85deb7e6e5c1260001b6200c225565b6200c9d27f405a083e2136c217060dc52b6e7ceeaca2685bbd60f8c4fb9f88cee8300c024d60001b6200c225565b6200ca007faf9e5abd23748c2a99e8762608752e846056217d616652cfca5ad7f2d1630a5f60001b6200c225565b82826200ca0e9190620106c8565b94505b5050505090565b60606200ca487fe806a3ac73bc3e6a2cff8c8058aff4dc8b4834bcad3aba4670c354a85f2ac2c460001b6200d5ad565b6200ca767f692e1b3f0d5c19ad38ef8361c9ef4a1f850b839f1c99423ab38b7dfb5ed9190560001b6200d5ad565b6200caa47f74584b0d012840fb08988ba25745aa3ecc532b04826f6c92e5999fd6d1ff5b5a60001b6200d5ad565b6000600167ffffffffffffffff8111156200cac4576200cac36201040f565b5b6040519080825280602002602001820160405280156200caf35781602001602082028036833780820191505090505b5090506200cb247fdf150e0bef325585ac5862fdf2a2c0f4ad8e20f4694cc3f19184de7df03a186460001b6200d5ad565b6200cb527fee0fb6b5367ce85cb8333f4a587361c9f032a7390b37656e38fdd1c3746239a560001b6200d5ad565b82816000815181106200cb6a576200cb6962010956565b5b6020026020010181815250506200cba47f90f2ac292a4af21a010587bd0a5462cd658ba01fb430cf8239efae68b965354c60001b6200d5ad565b6200cbd27f45a14ed0989745f6983b388fa79b9aa3e065ad5fbf823445feab4c39a67f0e8d60001b6200d5ad565b80915050919050565b6200cc097ff5af116673111d57b570a7ba90df9ed15d12f923b3bb7d905cb1b1de26d7c20c60001b6200e7a3565b6200cc377f130d49108a3d7eb3f19a131e412afac5b84c783794be060933e33fcd8a83494e60001b6200e7a3565b6200cc657fac96e9cf9ddf5b4e4a922221d59f4d0bd3c4e3457c07f31467a4aaa440b7f93960001b6200e7a3565b60006200cc7162008c03565b90506200cca17f31cf970dc48680a44874527d390801bb777a04db28252c19d092b558e68418fb60001b6200e7a3565b6200cccf7f2bf924b8aeda7871f585133551d5aa8104042e14c05492c6d794e2a3335af47460001b6200e7a3565b60005b82518110156200ce8f576200cd0a7f4a71fbf0f6b770393794b274bee4a215244de70628f6ad538550a18d3efd054460001b6200e7a3565b6200cd387f88477b89057a82541b7ea93b25025ea7022a370ca76139fa25daba66de89cf3460001b6200e7a3565b6200cd61848483815181106200cd53576200cd5262010956565b5b60200260200101516200c428565b156200cdf9576200cd957ff98f06a7dcb7e05fae6cd2c4a3046163bb0a21520976fff4c660c40d1a01e54d60001b6200e7a3565b6200cdc37f4a4bf0f84b4936a6879994d4e4e6fec439007aadfcf8b1216b4ec415b01139b960001b6200e7a3565b6200cdf17f8cf2d53de4733a67bc53af2a0937c93b7c3e29730ab57126ebe7b4208098541f60001b6200e7a3565b50506200d5a9565b6200ce277f180f72971cae4e971acdaa54a1f71b752705d52362cd8c5f22b0a4e6d1d8afad60001b6200e7a3565b6200ce557f213d44b3d4c04624bf0471576ae2b73dbe19838066716f9e8d1cd1bf54a36c8160001b6200e7a3565b6200ce837f0d2bf838aa383c945edd0d875b8a4d81c085d6e33e06a7e8d28aa2462046395360001b6200e7a3565b8060010190506200ccd2565b506200cebe7f71d43e55d6fcc969705851c967543b1ffca53ca25431f365b96448c4085d937760001b6200e7a3565b6200ceec7f8e9f593fd6c019d1126dabbcad771261c101d2256827eb4ef74944d3492e217b60001b6200e7a3565b60006200cef9836200e7a6565b90506200cf297f21e311a76e61a65eb8c5d3cf746b86b2d744c865cf2813e1ea9694e6a6476b2e60001b6200e7a3565b6200cf577f47a785345ce8d921146b8d80e89d764db6237026a1fb0febba6e7ce2be71978c60001b6200e7a3565b60006200cf6585856200ee00565b90506200cf957fa374a1fc8979af8f0acf6cf2881b57e575608f983e527b1de570ba558f86d1ff60001b6200e7a3565b6200cfc37f7cb8b9a13bf6989ea708b4fca42c78abc19927337a3c4fc26237266bd9ff111660001b6200e7a3565b60005b84518110156200d5a4576200cffe7f3b916f0c722cf1f67366d133524eac2bf59bc7204e56019603d4e0168832645260001b6200e7a3565b6200d02c7fd378a756ad5b4ad4b5d3f836d1738d4165804e0c15437f1b7f96cdc71bf1063f60001b6200e7a3565b6200d0366200f445565b84600001602e0160008784815181106200d055576200d05462010956565b5b60200260200101518152602001908152602001600020819055506200d09d7f05d0c381ba668d55c9b66840f7c2f503c9c72b9a378d4af575cdb5ee2d6354ac60001b6200e7a3565b6200d0cb7fba55a707c9a7617de5bc59442875d65d3ff4f24055cf75271896833c63a09ea160001b6200e7a3565b8281815181106200d0e1576200d0e062010956565b5b60200260200101518460000160300160008784815181106200d108576200d10762010956565b5b60200260200101518152602001908152602001600020819055506200d1507f39682d3908f4d25026200befede2a775494caa98fa2c2e890d19f038660bf2c260001b6200e7a3565b6200d17e7f6370a2935a25188c3e7cba229d009babf75a9a9bde881e4b23849cb1f90f216060001b6200e7a3565b600073ffffffffffffffffffffffffffffffffffffffff168673ffffffffffffffffffffffffffffffffffffffff16146200d50d576200d1e17facfa823c083ad3b242d047f377c9f85e4362c99af88b77e8dd36dd1a2b4cd4ef60001b6200e7a3565b6200d20f7f9380ea64663e62d9ce29cc31e55d0cc60c3f080d2c0e2a35f6180e8c6c45256860001b6200e7a3565b6200d23d7fbea401ab542ffce18f22d2d8d13430a99ebff078d3d99a05534d3b8155e0ae3660001b6200e7a3565b8360000160320160008683815181106200d25c576200d25b62010956565b5b6020026020010151815260200190815260200160002060008773ffffffffffffffffffffffffffffffffffffffff1673ffffffffffffffffffffffffffffffffffffffff168152602001908152602001600020548282815181106200d2c6576200d2c562010956565b5b60200260200101516200d2da91906201091b565b84600001602a0160008784815181106200d2f9576200d2f862010956565b5b6020026020010151815260200190815260200160002060008282546200d32091906201091b565b925050819055506200d3557f5e2fb39b629af198f8cb2021701d7d0533c6cceb26a9d08769ab208fc27c5bd960001b6200e7a3565b6200d3837ff76b17bc1fe99aad1eeeeab349e9939ba894b062eb68b82bf23de5cdcfc7b90d60001b6200e7a3565b8181815181106200d399576200d39862010956565b5b60200260200101518460000160320160008784815181106200d3c0576200d3bf62010956565b5b6020026020010151815260200190815260200160002060008873ffffffffffffffffffffffffffffffffffffffff1673ffffffffffffffffffffffffffffffffffffffff168152602001908152602001600020819055506200d4457f7e238f55fb8691f543114709a5f7ddc68cd88815c784cc4d017afa9ba7d0216960001b6200e7a3565b6200d4737f1b4f2256071e151879e6f898751c986d8867d59bbf763e10b9df9316e9c3d4f060001b6200e7a3565b8281815181106200d489576200d48862010956565b5b60200260200101518460000160310160008784815181106200d4b0576200d4af62010956565b5b6020026020010151815260200190815260200160002060008873ffffffffffffffffffffffffffffffffffffffff1673ffffffffffffffffffffffffffffffffffffffff168152602001908152602001600020819055506200d53c565b6200d53b7fa738feb75dd52968b140fc03b2952cfac74b009acb05d737a0fddaa4ed093b5160001b6200e7a3565b5b6200d56a7f32070c724ddad8e5131443f492450e9af4bbad01c0f1378663c4c8d47472425d60001b6200e7a3565b6200d5987f75b00caf97654ac33e1e18af856288b9965fb8ee51d972c41c33eaab3131e87f60001b6200e7a3565b8060010190506200cfc6565b505050505b5050565b50565b60006200d5e07f8775e46e92b19633604bdddafe22a84f039e377e8ffb760f236d6f6d8d9a8f1460001b6200f554565b6200d60e7f2dfc240ad7e692692c4de1de543bbe44e8847e19c42756dfca09b5f35c0318cf60001b6200f554565b6200d63c7f4ccd5d6115abe600ce72170e14741c6668e8ced3234c59b0e869a6d68c99146b60001b6200f554565b33905090565b6200d6707f8a6cdcf1cfc3f4527fa9b3638a680b03c801b688e250702053521d8340025dee60001b6200d5ad565b6200d69e7f5b611978bd244375bfddcc28e11bf266e373c2b0bf972be96a57a96de55cb2b660001b6200d5ad565b6200d6cc7f23c6f674250f3ca5611afe0ecea35452acd04bcd35109d1e69c3892543bd389760001b6200d5ad565b60006200d6d862008c03565b90506200d7087f3a5658dd24afce992608146327ab8d1d7cff60b7bf9ddc98660362823e692f7960001b6200d5ad565b6200d7367f4865da54b9e285848e3127674ce57cd7ddb2add893d6aba058c2729a3209472260001b6200d5ad565b60006200d7667f514536d60eda836936487a9b0e5425b50a4528bc6f82c33be10e2f016281eec260001b6200d5ad565b6200d7947f29259c708cf7e5e78c86a80af27d3fe3b7964a98c72067d6f99e807a1697e7ea60001b6200d5ad565b8073ffffffffffffffffffffffffffffffffffffffff168773ffffffffffffffffffffffffffffffffffffffff16141580156200d7fd57508073ffffffffffffffffffffffffffffffffffffffff168673ffffffffffffffffffffffffffffffffffffffff1614155b156200dd0b576200d8317f874dd672dfaa23c22a57ab72327c2c497f7c1038df957ffe676506606a4af62f60001b6200d5ad565b6200d85f7f96aec140d916fbd884704177831209d6ba37e5373be115f34fdb306c15f593dc60001b6200d5ad565b6200d88d7f789a65116764a78c5f782742aeab8947ebddc6d3c4b988c712c7a472e2170d9b60001b6200d5ad565b6200d89987866200cbdb565b6200d8c77fc0970233153641ed7ddbca02070e32d9f35d6184b0b4176b218ae546f6be3ebe60001b6200d5ad565b6200d8f57f7cc888efbdbf32e0a96bf01ddedbaca4e6fb7c21b55d8a00241e0bf1e3d522a960001b6200d5ad565b6200d90186866200cbdb565b6200d92f7f83d4d35c7d922ab70e53492ed83b2781df1419a1e9534a3f2b7030f9e6c248f160001b6200d5ad565b6200d95d7fcd161db8dde7fb4548150a05fa2e028cb6b69a36a88f05f3c4d46af236b42dba60001b6200d5ad565b60005b85518110156200dd04576200d9987f3e98ba2e04128d1e9755daede14fe9bab7693c266cdd9042ad70626196f4332460001b6200d5ad565b6200d9c67fee40af4eef9b8f775fd46340c1819540a1cb4e666b08a3309841a96420b4a92960001b6200d5ad565b6200d9ef888783815181106200d9e1576200d9e062010956565b5b60200260200101516200c428565b1580156200da2357506200da21878783815181106200da13576200da1262010956565b5b60200260200101516200c428565b155b156200dc03576200da577f8257f9d881f176a2625de2fce9a6db89ecee941dcba8f6e8d0ef51ce50972fec60001b6200d5ad565b6200da857f53830e9f24335a1e6c0b4dea2c1ad137c0a1698b77c045025d68d584461e0be660001b6200d5ad565b6200dab37ffe7d52f3d27f2a77d6dc0a876a637382dc60e3b54b78ae582c0c315bd2feec6c60001b6200d5ad565b4283600001603b0160008884815181106200dad3576200dad262010956565b5b6020026020010151815260200190815260200160002060008a73ffffffffffffffffffffffffffffffffffffffff1673ffffffffffffffffffffffffffffffffffffffff168152602001908152602001600020819055506200db587feceb0a8da422835661019f543fed797422d188bbd1118c70d64dcb4a0cd81f7760001b6200d5ad565b6200db867f717591688cf5ae5cd30064b8f23261da3444306f5d6dfbb28083350eac1920a960001b6200d5ad565b4283600001603b0160008884815181106200dba6576200dba562010956565b5b6020026020010151815260200190815260200160002060008973ffffffffffffffffffffffffffffffffffffffff1673ffffffffffffffffffffffffffffffffffffffff168152602001908152602001600020819055506200dc9c565b6200dc317fde10644fa59a2606f285f69b3dc5dcb32b198ab6557aa0de71506c61ef7925ae60001b6200d5ad565b6200dc5f7f7761bd2068d74eac4a14253df98acc6797b484f8c813ac92abc6809d6bf5eafc60001b6200d5ad565b6040517f08c379a00000000000000000000000000000000000000000000000000000000081526004016200dc9390620113f2565b60405180910390fd5b6200dcca7f4e6c61a55d3ac325e669a11a1621fde5d12f1017b9159c9a298276ac5b0a760a60001b6200d5ad565b6200dcf87f86857412262933d7407249e815d7875882bbcf32eaaad28d9085d6c103c97f6d60001b6200d5ad565b8060010190506200d960565b506200dd3a565b6200dd397f822fca795bee80e548bba318733ceaa7041c82557bae89175163d0c19ee559d460001b6200d5ad565b5b5050505050505050565b6200dd727f2f5f6d126acd21bfa757f4df4ab30075339cda7cb55ffa28a0cd4064b67dc4ed60001b6200d5ad565b6200dda07fd29aed85409e6ba0b127ef189174585193246665718746b0d5f006866b14b94e60001b6200d5ad565b6200ddce7fcb6430af5cf24faa7a5d4ec4a133396ed440daca277b2d2831ec2b2402fb388f60001b6200d5ad565b60006200ddfe7f08c9202d483d0860382a98440f4dde32e71901aa3de5787e77235d9fbd4b6b6460001b6200d5ad565b6200de2c7f60250f179debc907f4f01d9f755537d2e95f25b36e8e80d3dec0e706d6ebc7eb60001b6200d5ad565b60005b84518110156200e055576200de677fac1baee88ed9e1699227e12258ddcdec68f8ee960d37d621897633a76f55303860001b6200d5ad565b6200de957f0d2fa3bec8cb29ffb9af2ff33b4b7203685422bb2d7bf90c6b22a61a74dcd9dd60001b6200d5ad565b8173ffffffffffffffffffffffffffffffffffffffff168773ffffffffffffffffffffffffffffffffffffffff16141580156200defe57508173ffffffffffffffffffffffffffffffffffffffff168673ffffffffffffffffffffffffffffffffffffffff1614155b156200dfbe576200df327fe370194391fe1f9a111f09871201e2fe27a207140b5748377141ead668e696ca60001b6200d5ad565b6200df607fabf3baafc913457f88b75eb58bf3bc3afac8412b9f8d2808e90cad3dffa5d17d60001b6200d5ad565b6200df8e7fa7ca4b3fd46bd33cff2c7801e8230b8055dccbbb5cc826bacfd9db2bfe8513d960001b6200d5ad565b6200dfb7878683815181106200dfa9576200dfa862010956565b5b60200260200101516200f557565b506200dfed565b6200dfec7f1b218bfe085b2aa36c9e43c43864addf24034cbe57fb837a333fee4263b013b260001b6200d5ad565b5b6200e01b7f71453d212079a2fd8c082358874869a7a16c097c7f2e393937abe9832a6b39ce60001b6200d5ad565b6200e0497f8805342ff1a140c285690daf44e130e5da555f23b3c566cfd5a37492b010e92860001b6200d5ad565b8060010190506200de2f565b5050505050505050565b6200e08d7fc3fb94a770c9686b37b61dc4378fcc6ab73cf72ee3a824351ca01d132655229160001b6200d5ad565b6200e0bb7fa3b926c4c506ab24c1a2c62e40dfa6f189efa63a2817e22380e4913c1171ff2e60001b6200d5ad565b6200e0e97f6cefb200915781b8cfa0e905f6510034ddbdf44b8c1daa7a66136e6a7392ebdc60001b6200d5ad565b6200e10a8473ffffffffffffffffffffffffffffffffffffffff166200f9cb565b156200e53b576200e13e7f229a442009008317718ee49f02935fdbe5177ec973bb723bcdb7900a75261e9260001b6200d5ad565b6200e16c7f2821aaf5ea59c1b05357e76929bb49fd8f4e0e48aea52476abbf1ecb2e151a7c60001b6200d5ad565b6200e19a7f1df322ecc3cfd274fddede83fae23f3237de183d12548b4a474b45354a1956e360001b6200d5ad565b8373ffffffffffffffffffffffffffffffffffffffff1663f23a6e6187878686866040518663ffffffff1660e01b81526004016200e1dd959493929190620114a7565b602060405180830381600087803b1580156200e1f857600080fd5b505af19250505080156200e22c57506040513d601f19601f820116820180604052508101906200e229919062011568565b60015b6200e396576200e23b620115a7565b806308c379a014156200e2fb57506200e253620115cc565b806200e26057506200e2fd565b6200e28e7faecebf1f8663e1514e169b6e9c81ab1023db9dcba8c30e7ad0d5b39462157c4160001b6200d5ad565b6200e2bc7fed66d880d38a85b8ad241db7102f80d71b5033552bb48b9cbac992e80e8eae7b60001b6200d5ad565b806040517f08c379a00000000000000000000000000000000000000000000000000000000081526004016200e2f29190620116ba565b60405180910390fd5b505b6200e32b7f55551cb0dd580a16058d10291620ed667763c532e641bf45eb7a57b555e8c7ac60001b6200d5ad565b6200e3597f44ec2e364b4fcdaa68d9be27b9ca0e9dade4031e84bebbef7720420c5451622860001b6200d5ad565b6040517f08c379a00000000000000000000000000000000000000000000000000000000081526004016200e38d9062011754565b60405180910390fd5b6200e3c47f54c3662dd22b65609fc0d5b923dd8a19ae394010236db962ca8b2f3df078ba4c60001b6200d5ad565b6200e3f27f78591ad6993b8674f4ee98e725fbecf645dbf762a3e924d04bf58347f6fea22d60001b6200d5ad565b63f23a6e6160e01b7bffffffffffffffffffffffffffffffffffffffffffffffffffffffff1916817bffffffffffffffffffffffffffffffffffffffffffffffffffffffff1916146200e506576200e46d7ffc24a4fdc5e7c699e6e1e6ee81c75ef907705437f15a675f8d8e70ac5085950760001b6200d5ad565b6200e49b7f1809253f037a945bc9ad637d436a753e53f84c5303e6a34cb26ee6452d0dbd7260001b6200d5ad565b6200e4c97f290ffec1bcf5cce5e0790fab9f148d32880b7976258612c5ef491ae910d087ea60001b6200d5ad565b6040517f08c379a00000000000000000000000000000000000000000000000000000000081526004016200e4fd90620117ec565b60405180910390fd5b6200e5347f1451d3a0efb241a2b395689d9d5c11e1fb5cc168378080e55ea33aa28241740660001b6200d5ad565b506200e56a565b6200e5697f56d686c8dda8b69798ef081146879060b0cc15e689ca34f1f7d8b51b05aa15be60001b6200d5ad565b5b505050505050565b6200e57c6200ff29565b6200e5aa7f48bcf299c318e70897b2d65b85cef3de8ca84685ff5b8c66d5c6f09b94c7c14c60001b6200c225565b6200e5d87f3fbc03d188fc5aad5434880ff2edf80d5fc09eead76388e3ca632d1f1b71c0d860001b6200c225565b6200e6067fb96fbcdc418eebef7fddc32ae358aafa158553bf31904f49e3f2574ab4b9a6e460001b6200c225565b60006200e61262008c03565b90506200e6427f036900759c8835409335a4240f369230e3efe16a46040db461b56da206bf937f60001b6200c225565b6200e6707fd7b361150152392d9eb749bea6dce97eaa3d360314c47826e3f4207c9007dfe060001b6200c225565b60005b60058110156200e79e576200e6ab7f7bc164a3c3de82fd4a410db6bad1f0acd82cc22e8c51120ad1e03afa7821786c60001b6200c225565b6200e6d97fe1416da995ce75ac7a767f68c87dbd1910e17a1cae24726b95e19487d9acfd8c60001b6200c225565b8160000160100160008281526020019081526020016000205482600001600f016000838152602001908152602001600020546200e71791906201091b565b8382600581106200e72d576200e72c62010956565b5b6020020181815250506200e7647ff8418338521fc33de1208502415dad49b2f080c7623b2a204607a3c96792600960001b6200c225565b6200e7927f24a3e31cefdc3c051e65a93812ebaad1f78f7eb77757bd49dc89dcb6fcfd749d60001b6200c225565b8060010190506200e673565b505090565b50565b60606200e7d67f8b4fb979e5aafe66c62669dd9702540c8cd51a30a9d5b8ed213fc1ca92c3f89f60001b6200e7a3565b6200e8047f063b201504764c3a27865b3c4459ff6218f8c393d6a599ae390a6dbbc1627cb560001b6200e7a3565b6200e8327f2560162c8e78bc0c9eea14912e734a7837bd131ab0ed0b3ccc360af9cd9ad01760001b6200e7a3565b60006200e83e62008c03565b90506200e86e7f5e15be7c75fda58ddd42c95440fea3de45247915a0e08c6c9f142eb66a9e86f160001b6200e7a3565b6200e89b7ece33fc26bb4ae824ff734f1117244ea60d5ffea217510c1c99ebdb41c2329160001b6200e7a3565b6000835167ffffffffffffffff8111156200e8bb576200e8ba6201040f565b5b6040519080825280602002602001820160405280156200e8ea5781602001602082028036833780820191505090505b5090506200e91b7f8d0172e6c0d43f1ddec9598d552beef86700d61a6be39f878e7a6c699765307c60001b6200e7a3565b6200e9497fb6d30b0a833b49644935ab31c14a14d518ec31a8fbcbe2a53b04d0bc6252adb260001b6200e7a3565b60005b84518110156200ed99576200e9847fe33c2212541881b702e27626f117ed0f87b67d6084c062a252b65bc5a9ffaa4460001b6200e7a3565b6200e9b27fde16a0a2259bde52069f95a7699a39aea986cd76387c1f762b32a70607bf2d1860001b6200e7a3565b60008360000160100160008784815181106200e9d3576200e9d262010956565b5b602002602001015181526020019081526020016000205484600001600f0160008885815181106200ea09576200ea0862010956565b5b60200260200101518152602001908152602001600020546200ea2c91906201091b565b14156200eb1b576200ea617f980cddf182f0ae59e39e9842217e32f8c86bc7c8686690411c48aa377025a5af60001b6200e7a3565b6200ea8f7faf2b78903dd34254d23d2e6803744caa34c97af3318e903288f97dc9b73653df60001b6200e7a3565b6200eabd7f73739410971b947a7ee3d613a852cd05a365075c87a42487b860be1d64df82b960001b6200e7a3565b8260000160300160008683815181106200eadc576200eadb62010956565b5b60200260200101518152602001908152602001600020548282815181106200eb09576200eb0862010956565b5b6020026020010181815250506200ed31565b6200eb497f65e7ed5fa0b306f350835049f8edcb36031145485de198783d75fe255315c5d760001b6200e7a3565b6200eb777ff2aed8bbf54ccd43365c6e4b949a772f31bb0313747e93bde4de6052ac02357a60001b6200e7a3565b6200eba57fa07095a015e17b3038a6453e4684378e0cce67e10eb249a4f839f27e82234ae560001b6200e7a3565b8260000160100160008683815181106200ebc4576200ebc362010956565b5b602002602001015181526020019081526020016000205483600001600f0160008784815181106200ebfa576200ebf962010956565b5b60200260200101518152602001908152602001600020546200ec1d91906201091b565b670de0b6b3a764000084600001602e0160008885815181106200ec45576200ec4462010956565b5b60200260200101518152602001908152602001600020546200ec666200f445565b6200ec7291906201091b565b85600001602f0160008986815181106200ec91576200ec9062010956565b5b60200260200101518152602001908152602001600020546200ecb4919062010b53565b6200ecc0919062010b53565b6200eccc919062010be3565b8360000160300160008784815181106200eceb576200ecea62010956565b5b60200260200101518152602001908152602001600020546200ed0e9190620106c8565b8282815181106200ed24576200ed2362010956565b5b6020026020010181815250505b6200ed5f7fce179defe47607acc6e221dcea563b26c6edc40e606b21063f26ba2f7c15ea1060001b6200e7a3565b6200ed8d7f3b53fa4dbd60bae74b588fb9f6172da68702ee81a9e9abc8ca54106fbc17678660001b6200e7a3565b8060010190506200e94c565b506200edc87f304782d567ec59960167db6ce04f9a906512c249d1de4ee541fe34a84083705160001b6200e7a3565b6200edf67fec101d1eddf24d60106ee97d2e68b55de0794ad9b64fb7cc6943edf957d9c95460001b6200e7a3565b8092505050919050565b60606200ee307f47feacfd039c1ae36a516269ae3182f2f9f7a5b99e5f352f0957111f98d3c7d260001b6200e7a3565b6200ee5e7f037ecf1a65c0501ad8463b97ef40804f2b3d5ce4be2e0fa79fe5849cb839fe6d60001b6200e7a3565b6200ee8c7f81e14ca7a38c77aed905a08f713cebb756e103f6746480632c6249984c9b18a860001b6200e7a3565b60006200ee9862008c03565b90506200eec87f34fba52876a477ebad57ad1e6970253d095c30f2bd0cebc38526b75abd203aa360001b6200e7a3565b6200eef67f628bfb37b06adb269e5d3f5c0cd027267cb7383e07f559cec135e8a78942d12f60001b6200e7a3565b60006200ef03846200e7a6565b90506200ef337feac0d99e0730c1c72a4050e5c25e44f3ecc6402867a24f682e6cf538f6a6664960001b6200e7a3565b6200ef617fe942fd41acb7f43484e161102b89167cdcf2d2b6218e2e3ea5bba2fc79a5b52860001b6200e7a3565b6000845167ffffffffffffffff8111156200ef81576200ef806201040f565b5b6040519080825280602002602001820160405280156200efb05781602001602082028036833780820191505090505b5090506200efe17fca3bac37abb1c3b6795411641b12188fad6daddc4c3d5f4c586d2a460fdfc82860001b6200e7a3565b6200f00e7e54785feafc86359f3c81206962186a4f2eb67a23adccd282a978bbd64d112560001b6200e7a3565b60005b85518110156200f3dc576200f0497ffe8d8202248ddf4979fcb417ad76245dda1c51c62c231b26ed3f9ab573e4c08560001b6200e7a3565b6200f0777fa365d4b518927af92b5beb22779f7dc48a4459b730d2e7d68a7e80a088f82fb360001b6200e7a3565b600073ffffffffffffffffffffffffffffffffffffffff168773ffffffffffffffffffffffffffffffffffffffff1614156200f161576200f0db7f126b47c68f977abf56300ac7d67962da92a164c962756299449310bc4cf7edec60001b6200e7a3565b6200f1097ffc026247c84d9a293150a1ad20b252961c483b8543e33ad0201f229d922dda7260001b6200e7a3565b6200f1377f1b133b6cd0d10778d97fabca45ae875952175cd763178719fa0b29c85b66c97360001b6200e7a3565b60008282815181106200f14f576200f14e62010956565b5b6020026020010181815250506200f374565b6200f18f7f07a6b052cccb0a17f0d670902ebb1ad36614b08ea2b70b3667c5f0cbc530edba60001b6200e7a3565b6200f1bd7f325fd8f39003826381ace245f342293bfa61d16e24c2854bec6691917b7aea8160001b6200e7a3565b6200f1eb7fa823987d834b5afe2f3a2e5381cda6e2beb09c56f23b99ba012d65c3d2b16e6660001b6200e7a3565b8360000160320160008783815181106200f20a576200f20962010956565b5b6020026020010151815260200190815260200160002060008873ffffffffffffffffffffffffffffffffffffffff1673ffffffffffffffffffffffffffffffffffffffff16815260200190815260200160002054670de0b6b3a76400008560000160310160008985815181106200f286576200f28562010956565b5b6020026020010151815260200190815260200160002060008a73ffffffffffffffffffffffffffffffffffffffff1673ffffffffffffffffffffffffffffffffffffffff168152602001908152602001600020548584815181106200f2f0576200f2ef62010956565b5b60200260200101516200f30491906201091b565b6200f32d8a8a86815181106200f31f576200f31e62010956565b5b60200260200101516200faf3565b6200f339919062010b53565b6200f345919062010be3565b6200f3519190620106c8565b8282815181106200f367576200f36662010956565b5b6020026020010181815250505b6200f3a27f61cf0a8518daf53a887fb77612ad50a8972c585b6fa7f9f2be1e23ba118f32c660001b6200e7a3565b6200f3d07f4055ed16b84a4ac65ccb952b2c5d40f9c1910dd5abd3357c21ad47676b97eb7860001b6200e7a3565b8060010190506200f011565b506200f40b7f48250429c4bd3255ca5cde83f20a0e96410688298f07dd5767dd7189dd50edbe60001b6200e7a3565b6200f4397ffe25f2ff139089f61f8bda90e88256551f24d66809800f6699746763d821521360001b6200e7a3565b80935050505092915050565b60006200f4757f7b7afad07a47075f1281e0e0a0f39d352ef8d4b570386a463499c8573079431d60001b6200e7a3565b6200f4a37fe8061d2bc31341c0b52bd88a7ae4b2a4110154106a62e74880c83a9e3680627560001b6200e7a3565b6200f4d17f51b1af4c7d9d9b8d9caa12afc3aa8b63d6268aded5f0263ef24dbe3ce627b0d360001b6200e7a3565b60006200f4dd62008c03565b90506200f50d7fa91165fedbf392c558b87b2fb5d2ab3d55579f50a27030b3037691b06263272360001b6200e7a3565b6200f53b7f21c2b71c932a4cc73921163a959dd0a7a5a36eaf86f75646ac24f3980268bdc360001b6200e7a3565b6200f54e81600001602d0154426200fd73565b91505090565b50565b60006200f5877f7ca22ff2145a2ba6934394d5cbdb2a8604f4c7bdab16888035aaa91aaed3930260001b6200e7a3565b6200f5b57f201983f72007d6df97c4a9bbe055dfae927c85589be923ee211789341be17e7060001b6200e7a3565b6200f5e37fe87a271d1304444f3cf388ec897cdac41138f1af23f5bed2fa2ef9475c2c1a5b60001b6200e7a3565b60006200f5ef62008c03565b90506200f61f7f166f65c925157826b42ca16953067123860da64c9bb19fcaa4e8597e6fcec46060001b6200e7a3565b6200f64d7f7143add1c049e0732835f98f1ede63e581d9c874d9966dd91bfbe0a627a064b060001b6200e7a3565b60006200f67d7fe327f200e17bdd6d69e72510fda6c72fa0161cf45908ad787d3b8e1522e1e29b60001b6200e7a3565b6200f6ab7f9ded2a98e09c066a82ce23f8cb6f3e5d80d3718dd138326108427f6d6bbebbca60001b6200e7a3565b60006200f6b986866200faf3565b14156200f754576200f6ee7f67a12b44b14ee2b39f0e6829779a3e6baad229f4932cdbb98c25ca8e3834c1b960001b6200e7a3565b6200f71c7fcf1ffd5296a4014230c4e9ccebdac95accc701d3664dff4275eb3c6a8b920bc660001b6200e7a3565b6200f74a7f84d8fef28eb1e96a04cf2b1e17b51bac7913da20db7643c9d0b8a95542baaa1d60001b6200e7a3565b600190506200f783565b6200f7827f55cc11dddb19c8ac3397b78450196b21d0d57ee4ee33eb338d4a1ebbf82eeb8460001b6200e7a3565b5b6200f7b17f824b6a53cb3cf968825d103b5600c9cc3fdd32beeaf71ac4a1b2d02de14ec83e60001b6200e7a3565b6200f7df7fbfd91cd2e846ed6c0b974eb0a1de7bb806fef164539f14872028917ec0f5d04160001b6200e7a3565b80156200f934576200f8147f18c3d76ffe8bb05bba868c635df0ab0d922b9d15e9f118e63b3bb0e39efc0dc360001b6200e7a3565b6200f8427fd08c9632a3d555e9e57e10eb952554a5f9ecf42f040da3c06e22e27279c3d62360001b6200e7a3565b81600001603b01600085815260200190815260200160002060008673ffffffffffffffffffffffffffffffffffffffff1673ffffffffffffffffffffffffffffffffffffffff168152602001908152602001600020600090556200f8c97fdbc9fec8b23d27ae51537f1423a8927376f73157e57de82e017d726503523e1c60001b6200e7a3565b81600001603c01600085815260200190815260200160002060008673ffffffffffffffffffffffffffffffffffffffff1673ffffffffffffffffffffffffffffffffffffffff16815260200190815260200160002060006101000a81549060ff02191690556200f963565b6200f9627fa8674b78a4f13bd0549eecd7c513c123f6b9c3e8f549fc800e561af20870c80560001b6200e7a3565b5b6200f9917f88fa3d8a3d8bb7edf553b5e30bcec43e3f5f36e11ccf6914b2fcae3dbc13726e60001b6200e7a3565b6200f9bf7ff09b9571b5e354553ed63efe798a616a339a634d385bf190c0de6728b74f8e8e60001b6200e7a3565b60019250505092915050565b60006200f9fb7f1a3a53b72b674e9fbba2eea506869fc1e832cf52984608e3b6b644c364c38d8460001b6200fe19565b6200fa297fea5248eb53ceca51e9874404db8495bf4bfed79e1e0460d574e8881cc87eb9f160001b6200fe19565b6200fa577f45ca0170411cbadde61381cc1a57b2465e26b279ad899930aff8b5cc0899a67f60001b6200fe19565b60006200fa877f18f085591cd5a42df19ab342b4d38ceb77ed939bd416a8e9b31bc81ea4bf87e460001b6200fe19565b823b90506200fab97f702ad938ce5280224501eb8d9747dd66cde3ea513ef5ab283b87de1921354b1460001b6200fe19565b6200fae77f558ee446ea02a007d77a79cd45635a8601a80b8be39035833c0439e7b35b842360001b6200fe19565b60008111915050919050565b60006200fb237fd249cbeabbe4385464793e60853d09bb165cd9e18021ce415e2161104333190e60001b6200d5ad565b6200fb517fd52601cc2cb3cf20277cd9965b2f6e03dd8507cb343278593d18014bc67c7fc560001b6200d5ad565b6200fb7f7f7ee4b453d759e6dde8a4fa08bb21cf880eb3c769bfbd60ac7d1ae0fe674560c560001b6200d5ad565b60006200fb8b62008c03565b90506200fbbb7f875fa4aa8b319785e25eb06ebec82ae1dc94c1957a032ee358a9ebb7d448893a60001b6200d5ad565b6200fbe97ffebefabc22f8b718c48c6ab8f2a857d7dc6b5db388f2361df3cef561c816379960001b6200d5ad565b6200fc177fd359addff473ba8d99b52eae464c69348e00d802f469ea2d4604bc77eb7aa21c60001b6200d5ad565b600073ffffffffffffffffffffffffffffffffffffffff168473ffffffffffffffffffffffffffffffffffffffff1614156200fc8a576040517f08c379a00000000000000000000000000000000000000000000000000000000081526004016200fc819062011884565b60405180910390fd5b6200fcb87f47609b618f842fa2420d7b52fc0b9d566de006bf97fb02ea86b2a662217d86a860001b6200d5ad565b6200fce67ff17c48cd73553b036e8c7f2f918711efc6f351655cbaa4b442b0ed37bd625c5f60001b6200d5ad565b6200fd147fc4c74da8a581ce5d22d19db1f77a98604cceb7037f1c1d0ff830a70c8ce1b89a60001b6200d5ad565b80600001600101600084815260200190815260200160002060008573ffffffffffffffffffffffffffffffffffffffff1673ffffffffffffffffffffffffffffffffffffffff1681526020019081526020016000205491505092915050565b60006200fda37f09cf066cf4477d51fd8f0ff4ed1b37bdf8b891e521ab608215d27edc787a06b860001b6200e7a3565b6200fdd17f810f3d1c6729b518477eb029da8cb407a29770bdd3640ab9a7e55bec930e777660001b6200e7a3565b6200fdff7fcefed25ed7e609929ecabdbdb19cbd365d7d3fbd094f9806f7253fccfc4a725360001b6200e7a3565b818311156200fe0f57816200fe11565b825b905092915050565b50565b8280546200fe2a90620118d5565b90600052602060002090601f0160209004810192826200fe4e57600085556200fe9a565b82601f106200fe6957803560ff19168380011785556200fe9a565b828001600101855582156200fe9a579182015b828111156200fe995782358255916020019190600101906200fe7c565b5b5090506200fea991906200ff4b565b5090565b5080546200febb90620118d5565b6000825580601f106200fecf57506200fef0565b601f0160209004906000526020600020908101906200feef91906200ff4b565b5b50565b6040518060c001604052806000815260200160008152602001600081526020016000815260200160008152602001600081525090565b6040518060a00160405280600590602082028036833780820191505090505090565b5b808211156200ff665760008160009055506001016200ff4c565b5090565b6000604051905090565b600080fd5b600080fd5b600073ffffffffffffffffffffffffffffffffffffffff82169050919050565b60006200ffab826200ff7e565b9050919050565b6200ffbd816200ff9e565b81146200ffc957600080fd5b50565b6000813590506200ffdd816200ffb2565b92915050565b6000602082840312156200fffc576200fffb6200ff74565b5b60006201000c848285016200ffcc565b91505092915050565b60008115159050919050565b6201002c8162010015565b82525050565b600060208201905062010049600083018462010021565b92915050565b6000819050919050565b62010064816201004f565b81146201007057600080fd5b50565b600081359050620100848162010059565b92915050565b60007dffffffffffffffffffffffffffffffffffffffffffffffffffffffffffff82169050919050565b620100bf816201008a565b8114620100cb57600080fd5b50565b600081359050620100df81620100b4565b92915050565b600061ffff82169050919050565b620100fe81620100e5565b81146201010a57600080fd5b50565b6000813590506201011e81620100f3565b92915050565b6201012f8162010015565b81146201013b57600080fd5b50565b6000813590506201014f8162010124565b92915050565b600080fd5b600080fd5b600080fd5b60008083601f8401126201017d576201017c62010155565b5b8235905067ffffffffffffffff8111156201019d576201019c6201015a565b5b602083019150836001820283011115620101bc57620101bb6201015f565b5b9250929050565b60008060008060008060008060006101008a8c031215620101e957620101e86200ff74565b5b6000620101f98c828d016200ffcc565b99505060206201020c8c828d0162010073565b98505060406201021f8c828d0162010073565b9750506060620102328c828d01620100ce565b9650506080620102458c828d016201010d565b95505060a0620102588c828d0162010073565b94505060c06201026b8c828d016201013e565b93505060e08a013567ffffffffffffffff8111156201028f576201028e6200ff79565b5b6201029d8c828d0162010164565b92509250509295985092959850929598565b60008060408385031215620102c957620102c86200ff74565b5b6000620102d9858286016200ffcc565b9250506020620102ec858286016200ffcc565b9150509250929050565b6000602082840312156201030f576201030e6200ff74565b5b60006201031f848285016201013e565b91505092915050565b60008060008060008060008060e0898b0312156201034b576201034a6200ff74565b5b60006201035b8b828c016200ffcc565b98505060206201036e8b828c0162010073565b9750506040620103818b828c01620100ce565b9650506060620103948b828c016201010d565b9550506080620103a78b828c0162010073565b94505060a0620103ba8b828c016201013e565b93505060c089013567ffffffffffffffff811115620103de57620103dd6200ff79565b5b620103ec8b828c0162010164565b92509250509295985092959890939650565b6000601f19601f8301169050919050565b7f4e487b7100000000000000000000000000000000000000000000000000000000600052604160045260246000fd5b6201044982620103fe565b810181811067ffffffffffffffff821117156201046b576201046a6201040f565b5b80604052505050565b6000620104806200ff6a565b90506201048e82826201043e565b919050565b600067ffffffffffffffff821115620104b157620104b06201040f565b5b602082029050602081019050919050565b6000620104d9620104d38462010493565b62010474565b90508083825260208201905060208402830185811115620104ff57620104fe6201015f565b5b835b818110156201052c578062010517888262010073565b84526020840193505060208101905062010501565b5050509392505050565b600082601f8301126201054e576201054d62010155565b5b813562010560848260208601620104c2565b91505092915050565b600080604083850312156201058357620105826200ff74565b5b600062010593858286016200ffcc565b925050602083013567ffffffffffffffff811115620105b757620105b66200ff79565b5b620105c58582860162010536565b9150509250929050565b60008060408385031215620105e957620105e86200ff74565b5b6000620105f9858286016200ffcc565b92505060206201060c8582860162010073565b9150509250929050565b600082825260208201905092915050565b7f57524f4e475f50455243454e5441474500000000000000000000000000000000600082015250565b60006201065f60108362010616565b91506201066c8262010627565b602082019050919050565b60006020820190508181036000830152620106928162010650565b9050919050565b7f4e487b7100000000000000000000000000000000000000000000000000000000600052601160045260246000fd5b6000620106d5826201004f565b9150620106e2836201004f565b9250827fffffffffffffffffffffffffffffffffffffffffffffffffffffffffffffffff038211156201071a576201071962010699565b5b828201905092915050565b7f57524f4e475f4445504f53495400000000000000000000000000000000000000600082015250565b60006201075d600d8362010616565b91506201076a8262010725565b602082019050919050565b6000602082019050818103600083015262010790816201074e565b9050919050565b6000620107a4826201008a565b9150620107b1836201008a565b9250827dffffffffffffffffffffffffffffffffffffffffffffffffffffffffffff03821115620107e757620107e662010699565b5b828201905092915050565b600081905092915050565b50565b60006201080f600083620107f2565b91506201081c82620107fd565b600082019050919050565b6000620108348262010800565b9150819050919050565b82818337600083830152505050565b60006201085b8385620107f2565b93506201086a8385846201083e565b82840190509392505050565b6000620108858284866201084d565b91508190509392505050565b6201089c816201004f565b82525050565b6000620108b0838562010616565b9350620108bf8385846201083e565b620108ca83620103fe565b840190509392505050565b6000606082019050620108ec600083018762010891565b620108fb602083018662010021565b818103604083015262010910818486620108a2565b905095945050505050565b600062010928826201004f565b915062010935836201004f565b9250828210156201094b576201094a62010699565b5b828203905092915050565b7f4e487b7100000000000000000000000000000000000000000000000000000000600052603260045260246000fd5b7f4e487b7100000000000000000000000000000000000000000000000000000000600052603160045260246000fd5b600081905092915050565b6000620109ce600083620109b4565b9150620109db82620107fd565b600082019050919050565b6000620109f382620109bf565b9150819050919050565b7f5472616e73666572206661696c65642e00000000000000000000000000000000600082015250565b600062010a3560108362010616565b915062010a4282620109fd565b602082019050919050565b6000602082019050818103600083015262010a688162010a26565b9050919050565b7f5265656e7472616e637947756172643a207265656e7472616e742063616c6c00600082015250565b600062010aa7601f8362010616565b915062010ab48262010a6f565b602082019050919050565b6000602082019050818103600083015262010ada8162010a98565b9050919050565b7f4e4f5f414d4f554e540000000000000000000000000000000000000000000000600082015250565b600062010b1960098362010616565b915062010b268262010ae1565b602082019050919050565b6000602082019050818103600083015262010b4c8162010b0a565b9050919050565b600062010b60826201004f565b915062010b6d836201004f565b9250817fffffffffffffffffffffffffffffffffffffffffffffffffffffffffffffffff048311821515161562010ba95762010ba862010699565b5b828202905092915050565b7f4e487b7100000000000000000000000000000000000000000000000000000000600052601260045260246000fd5b600062010bf0826201004f565b915062010bfd836201004f565b92508262010c105762010c0f62010bb4565b5b828204905092915050565b7f4d617820737570706c7920726561636865640000000000000000000000000000600082015250565b600062010c5360128362010616565b915062010c608262010c1b565b602082019050919050565b6000602082019050818103600083015262010c868162010c44565b9050919050565b62010c98816200ff9e565b82525050565b600060608201905062010cb5600083018662010c8d565b62010cc4602083018562010c8d565b62010cd3604083018462010891565b949350505050565b600062010ce8826201008a565b915062010cf5836201008a565b92508282101562010d0b5762010d0a62010699565b5b828203905092915050565b7f494e53554646494349454e545f46554e44530000000000000000000000000000600082015250565b600062010d4e60128362010616565b915062010d5b8262010d16565b602082019050919050565b6000602082019050818103600083015262010d818162010d3f565b9050919050565b7f4865616c7468206e6f742073657474656420636f72726563746c790000000000600082015250565b600062010dc0601b8362010616565b915062010dcd8262010d88565b602082019050919050565b6000602082019050818103600083015262010df38162010db1565b9050919050565b600060408201905062010e11600083018562010891565b62010e20602083018462010891565b9392505050565b60008151905062010e388162010124565b92915050565b60006020828403121562010e575762010e566200ff74565b5b600062010e678482850162010e27565b91505092915050565b7f494e535546494349454e545f46554e4453000000000000000000000000000000600082015250565b600062010ea860118362010616565b915062010eb58262010e70565b602082019050919050565b6000602082019050818103600083015262010edb8162010e99565b9050919050565b7f544f4b454e5f46414345545f5041555345440000000000000000000000000000600082015250565b600062010f1a60128362010616565b915062010f278262010ee2565b602082019050919050565b6000602082019050818103600083015262010f4d8162010f0b565b9050919050565b7f4c69624469616d6f6e643a204d75737420626520636f6e7472616374206f776e60008201527f6572000000000000000000000000000000000000000000000000000000000000602082015250565b600062010fb260228362010616565b915062010fbf8262010f54565b604082019050919050565b6000602082019050818103600083015262010fe58162010fa3565b9050919050565b7f4f5241434c455f414c52454144595f4558495354530000000000000000000000600082015250565b60006201102460158362010616565b9150620110318262010fec565b602082019050919050565b60006020820190508181036000830152620110578162011015565b9050919050565b7f4e4f545f544f4b454e5f4f574e45520000000000000000000000000000000000600082015250565b600062011096600f8362010616565b9150620110a3826201105e565b602082019050919050565b60006020820190508181036000830152620110c98162011087565b9050919050565b7f544f4b454e5f444f45534e545f45584953540000000000000000000000000000600082015250565b60006201110860128362010616565b91506201111582620110d0565b602082019050919050565b600060208201905081810360008301526201113b81620110f9565b9050919050565b7f4f5241434c455f444f45534e545f455849535400000000000000000000000000600082015250565b60006201117a60138362010616565b9150620111878262011142565b602082019050919050565b60006020820190508181036000830152620111ad816201116b565b9050919050565b7f544f4b454e5f414c52454144595f455849535453000000000000000000000000600082015250565b6000620111ec60148362010616565b9150620111f982620111b4565b602082019050919050565b600060208201905081810360008301526201121f81620111dd565b9050919050565b7f455243313135353a206d696e7420746f20746865207a65726f2061646472657360008201527f7300000000000000000000000000000000000000000000000000000000000000602082015250565b60006201128460218362010616565b9150620112918262011226565b604082019050919050565b60006020820190508181036000830152620112b78162011275565b9050919050565b7f544f4b454e5f4e4f545f4f4e5f46454544000000000000000000000000000000600082015250565b6000620112f660118362010616565b91506201130382620112be565b602082019050919050565b600060208201905081810360008301526201132981620112e7565b9050919050565b7f4f5241434c455f4e4f545f414c4c4f5745440000000000000000000000000000600082015250565b60006201136860128362010616565b9150620113758262011330565b602082019050919050565b600060208201905081810360008301526201139b8162011359565b9050919050565b7f556e64657220636f6f6c696e6720706572696f64000000000000000000000000600082015250565b6000620113da60148362010616565b9150620113e782620113a2565b602082019050919050565b600060208201905081810360008301526201140d81620113cb565b9050919050565b600081519050919050565b600082825260208201905092915050565b60005b838110156201145057808201518184015260208101905062011433565b8381111562011460576000848401525b50505050565b6000620114738262011414565b6201147f81856201141f565b93506201149181856020860162011430565b6201149c81620103fe565b840191505092915050565b600060a082019050620114be600083018862010c8d565b620114cd602083018762010c8d565b620114dc604083018662010891565b620114eb606083018562010891565b8181036080830152620114ff818462011466565b90509695505050505050565b60007fffffffff0000000000000000000000000000000000000000000000000000000082169050919050565b62011542816201150b565b81146201154e57600080fd5b50565b600081519050620115628162011537565b92915050565b6000602082840312156201158157620115806200ff74565b5b6000620115918482850162011551565b91505092915050565b60008160e01c9050919050565b600060033d1115620115c95760046000803e620115c66000516201159a565b90505b90565b600060443d1015620115de576201166b565b620115e86200ff6a565b60043d036004823e80513d602482011167ffffffffffffffff82111715620116125750506201166b565b808201805167ffffffffffffffff8111156201163257505050506201166b565b80602083010160043d038501811115620116515750505050506201166b565b62011662826020018501866201043e565b82955050505050505b90565b600081519050919050565b600062011686826201166e565b62011692818562010616565b9350620116a481856020860162011430565b620116af81620103fe565b840191505092915050565b60006020820190508181036000830152620116d6818462011679565b905092915050565b7f455243313135353a207472616e7366657220746f206e6f6e2d4552433131353560008201527f526563656976657220696d706c656d656e746572000000000000000000000000602082015250565b60006201173c60348362010616565b91506201174982620116de565b604082019050919050565b600060208201905081810360008301526201176f816201172d565b9050919050565b7f455243313135353a204552433131353552656365697665722072656a6563746560008201527f6420746f6b656e73000000000000000000000000000000000000000000000000602082015250565b6000620117d460288362010616565b9150620117e18262011776565b604082019050919050565b600060208201905081810360008301526201180781620117c5565b9050919050565b7f455243313135353a2061646472657373207a65726f206973206e6f742061207660008201527f616c6964206f776e657200000000000000000000000000000000000000000000602082015250565b60006201186c602a8362010616565b915062011879826201180e565b604082019050919050565b600060208201905081810360008301526201189f816201185d565b9050919050565b7f4e487b7100000000000000000000000000000000000000000000000000000000600052602260045260246000fd5b60006002820490506001821680620118ee57607f821691505b60208210811415620119055762011904620118a6565b5b5091905056fea26469706673582212208d91e76c4926fe0f0e8db9c2dadd9a3d89813e2e48201579bb5b88339a9cbcc764736f6c63430008080033",
  "linkReferences": {},
  "deployedLinkReferences": {}
}