{
  "_format": "hh-sol-artifact-1",
  "contractName": "AvalancheValidatorTokenFacet",
  "sourceName": "contracts/validator/facets/AvalancheValidatorTokenFacet.sol",
  "abi": [
    {
      "inputs": [],
      "name": "CannotSetMaretPriceWithoutOracleTimestamp",
      "type": "error"
    },
    {
      "inputs": [],
      "name": "PricePerTokenIsNull",
      "type": "error"
    },
    {
      "inputs": [],
      "name": "UpdateNotPossible",
      "type": "error"
    },
    {
      "anonymous": false,
      "inputs": [
        {
          "indexed": true,
          "internalType": "bool",
          "name": "created",
          "type": "bool"
        },
        {
          "indexed": true,
          "internalType": "address",
          "name": "token",
          "type": "address"
        }
      ],
      "name": "Token",
      "type": "event"
    },
    {
      "anonymous": false,
      "inputs": [
        {
          "indexed": false,
          "internalType": "uint256",
          "name": "time",
          "type": "uint256"
        },
        {
          "indexed": false,
          "internalType": "uint256",
          "name": "price",
          "type": "uint256"
        }
      ],
      "name": "TokenFeedUpdated",
      "type": "event"
    },
    {
      "anonymous": false,
      "inputs": [
        {
          "indexed": true,
          "internalType": "address",
          "name": "token",
          "type": "address"
        },
        {
          "indexed": true,
          "internalType": "uint256",
          "name": "price",
          "type": "uint256"
        },
        {
          "indexed": false,
          "internalType": "uint256",
          "name": "oracleTimestamp",
          "type": "uint256"
        },
        {
          "indexed": false,
          "internalType": "bool",
          "name": "_fungible",
          "type": "bool"
        },
        {
          "indexed": false,
          "internalType": "string",
          "name": "data",
          "type": "string"
        }
      ],
      "name": "TokenManaged",
      "type": "event"
    },
    {
      "anonymous": false,
      "inputs": [
        {
          "indexed": true,
          "internalType": "address",
          "name": "costumer",
          "type": "address"
        },
        {
          "indexed": false,
          "internalType": "uint256",
          "name": "amount",
          "type": "uint256"
        },
        {
          "indexed": false,
          "internalType": "uint256",
          "name": "time",
          "type": "uint256"
        }
      ],
      "name": "avalancheValidatorShareSold",
      "type": "event"
    },
    {
      "inputs": [
        {
          "internalType": "address",
          "name": "_oracle",
          "type": "address"
        }
      ],
      "name": "addOracleAddress",
      "outputs": [
        {
          "internalType": "bool",
          "name": "",
          "type": "bool"
        }
      ],
      "stateMutability": "nonpayable",
      "type": "function"
    },
    {
      "inputs": [
        {
          "internalType": "address",
          "name": "_owner",
          "type": "address"
        },
        {
          "internalType": "address",
          "name": "_token",
          "type": "address"
        }
      ],
      "name": "createNewToken",
      "outputs": [
        {
          "internalType": "bool",
          "name": "",
          "type": "bool"
        }
      ],
      "stateMutability": "nonpayable",
      "type": "function"
    },
    {
      "inputs": [
        {
          "internalType": "address",
          "name": "_token",
          "type": "address"
        },
        {
          "internalType": "uint256",
          "name": "_amount",
          "type": "uint256"
        }
      ],
      "name": "mintAvalancheValidatorShareTokenERC20",
      "outputs": [
        {
          "internalType": "bool",
          "name": "",
          "type": "bool"
        }
      ],
      "stateMutability": "payable",
      "type": "function"
    },
    {
      "inputs": [
        {
          "internalType": "address",
          "name": "_token",
          "type": "address"
        },
        {
          "internalType": "uint256[]",
          "name": "_ids",
          "type": "uint256[]"
        }
      ],
      "name": "mintAvalancheValidatorShareTokenERC721",
      "outputs": [
        {
          "internalType": "bool",
          "name": "",
          "type": "bool"
        }
      ],
      "stateMutability": "payable",
      "type": "function"
    },
    {
      "inputs": [
        {
          "internalType": "address",
          "name": "_token",
          "type": "address"
        },
        {
          "internalType": "uint256",
          "name": "_pricePerToken_InTokenOverAvaxERC20_InAvaxOverTokenERC721_InWei",
          "type": "uint256"
        },
        {
          "internalType": "uint256",
          "name": "_newCollateralInWEI",
          "type": "uint256"
        },
        {
          "internalType": "uint240",
          "name": "_newCollateralIncentivesInWEI",
          "type": "uint240"
        },
        {
          "internalType": "uint16",
          "name": "_rebatePercentageInBPS",
          "type": "uint16"
        },
        {
          "internalType": "uint256",
          "name": "_updateTimestampOracle",
          "type": "uint256"
        },
        {
          "internalType": "bool",
          "name": "_fungible",
          "type": "bool"
        },
        {
          "internalType": "string",
          "name": "data",
          "type": "string"
        }
      ],
      "name": "ownerManageToken",
      "outputs": [
        {
          "internalType": "bool",
          "name": "",
          "type": "bool"
        }
      ],
      "stateMutability": "payable",
      "type": "function"
    },
    {
      "inputs": [
        {
          "internalType": "bool",
          "name": "pause",
          "type": "bool"
        }
      ],
      "name": "pauseTokenFacet",
      "outputs": [
        {
          "internalType": "bool",
          "name": "",
          "type": "bool"
        }
      ],
      "stateMutability": "nonpayable",
      "type": "function"
    },
    {
      "inputs": [
        {
          "internalType": "address",
          "name": "_token",
          "type": "address"
        },
        {
          "internalType": "uint256",
          "name": "_newCollateralInWEI",
          "type": "uint256"
        },
        {
          "internalType": "uint240",
          "name": "_newCollateralIncentivesInWEI",
          "type": "uint240"
        },
        {
          "internalType": "uint16",
          "name": "_rebatePercentageInBPS",
          "type": "uint16"
        },
        {
          "internalType": "uint256",
          "name": "_updateTimestampOracle",
          "type": "uint256"
        },
        {
          "internalType": "bool",
          "name": "_fungible",
          "type": "bool"
        },
        {
          "internalType": "string",
          "name": "data",
          "type": "string"
        }
      ],
      "name": "quarryDrawManageToken",
      "outputs": [
        {
          "internalType": "bool",
          "name": "",
          "type": "bool"
        }
      ],
      "stateMutability": "payable",
      "type": "function"
    },
    {
      "inputs": [
        {
          "internalType": "address",
          "name": "_token",
          "type": "address"
        }
      ],
      "name": "removeExistingToken",
      "outputs": [
        {
          "internalType": "bool",
          "name": "",
          "type": "bool"
        }
      ],
      "stateMutability": "nonpayable",
      "type": "function"
    },
    {
      "inputs": [
        {
          "internalType": "address",
          "name": "_oracle",
          "type": "address"
        }
      ],
      "name": "removeOracleAddress",
      "outputs": [
        {
          "internalType": "bool",
          "name": "",
          "type": "bool"
        }
      ],
      "stateMutability": "nonpayable",
      "type": "function"
    },
    {
      "inputs": [
        {
          "internalType": "address",
          "name": "_token",
          "type": "address"
        },
        {
          "internalType": "uint256",
          "name": "_value",
          "type": "uint256"
        }
      ],
      "name": "updateOracleFeed",
      "outputs": [
        {
          "internalType": "bool",
          "name": "",
          "type": "bool"
        }
      ],
      "stateMutability": "nonpayable",
      "type": "function"
    }
  ],
  "bytecode": "0x608060405234801561001057600080fd5b5061521f806100206000396000f3fe6080604052600436106100b15760003560e01c80639ab72e1911610069578063c38f27921161004e578063c38f279214610190578063db7c9d21146101a3578063dd7170ca146101c357600080fd5b80639ab72e191461015d578063a9dbffce1461017d57600080fd5b80634605e1e11161009a5780634605e1e1146100fd57806350e9673d1461011d57806389ae59121461013d57600080fd5b8063015e5718146100b65780631e4fa4a7146100ea575b600080fd5b3480156100c257600080fd5b506100d66100d13660046149df565b6101d6565b604051901515815260200160405180910390f35b6100d66100f8366004614a91565b610307565b34801561010957600080fd5b506100d66101183660046149df565b610a55565b34801561012957600080fd5b506100d6610138366004614b39565b610cde565b34801561014957600080fd5b506100d6610158366004614b6c565b610e96565b34801561016957600080fd5b506100d66101783660046149df565b610ef4565b6100d661018b366004614b89565b611370565b6100d661019e366004614c9e565b611a5d565b3480156101af57600080fd5b506100d66101be366004614d58565b612284565b6100d66101d1366004614d58565b6124b5565b60006101e0612c25565b6101e8612cd6565b6101f182612da1565b5073ffffffffffffffffffffffffffffffffffffffff1660008181527f66bd28df09c9271bd5696185e1f2db071a0ed825a4f7df621c22ef195c811ebe6020908152604080832080547fffffffffffffffffffffffffffffffffffffffffffffffffffffffffffffff001660019081179091557f66bd28df09c9271bd5696185e1f2db071a0ed825a4f7df621c22ef195c811ec080547f66bd28df09c9271bd5696185e1f2db071a0ed825a4f7df621c22ef195c811ebf909452918420839055828101825592527fcea2a1756bd3bc9af84224aa6e9178c812e162b86e333d2f0a2eb47fd279b8850180547fffffffffffffffffffffffff00000000000000000000000000000000000000001690921790915590565b6000610311612c25565b61031a8a612e50565b6103238a612eff565b73ffffffffffffffffffffffffffffffffffffffff8a1660009081527f66bd28df09c9271bd5696185e1f2db071a0ed825a4f7df621c22ef195c811eb960205260409020547f66bd28df09c9271bd5696185e1f2db071a0ed825a4f7df621c22ef195c811e9f9060ff161515600114156103e55773ffffffffffffffffffffffffffffffffffffffff8b166000908152601a82016020526040902080547fffffffffffffffffffffffffffffffffffffffffffffffffffffffffffffff001690555b6127108761ffff16111561045a576040517f08c379a000000000000000000000000000000000000000000000000000000000815260206004820152601060248201527f57524f4e475f50455243454e544147450000000000000000000000000000000060448201526064015b60405180910390fd5b6104847dffffffffffffffffffffffffffffffffffffffffffffffffffffffffffff89168a614db1565b3410156104ed576040517f08c379a000000000000000000000000000000000000000000000000000000000815260206004820152600d60248201527f57524f4e475f4445504f534954000000000000000000000000000000000000006044820152606401610451565b73ffffffffffffffffffffffffffffffffffffffff8b1660009081526017820160205260409020600101548a1461054c5773ffffffffffffffffffffffffffffffffffffffff8b16600090815260178201602052604090206001018a90555b73ffffffffffffffffffffffffffffffffffffffff8b166000908152601782016020526040812060020180548b9290610586908490614db1565b909155505073ffffffffffffffffffffffffffffffffffffffff8b166000908152601782016020526040812060030180548a92906105e59084907dffffffffffffffffffffffffffffffffffffffffffffffffffffffffffff16614dc9565b82547dffffffffffffffffffffffffffffffffffffffffffffffffffffffffffff9182166101009390930a92830291909202199091161790555073ffffffffffffffffffffffffffffffffffffffff8b1660009081526017820160205260409020600301547e01000000000000000000000000000000000000000000000000000000000000900461ffff908116908816146106f05773ffffffffffffffffffffffffffffffffffffffff8b166000908152601782016020526040902060030180547dffffffffffffffffffffffffffffffffffffffffffffffffffffffffffff167e0100000000000000000000000000000000000000000000000000000000000061ffff8a16021790555b73ffffffffffffffffffffffffffffffffffffffff8b1660009081526017820160205260409020600101546107b25773ffffffffffffffffffffffffffffffffffffffff8b166000908152601e82016020908152604080832080547fffffffffffffffffffffffffffffffffffffffffffffffffffffffffffffff00166001179055601c840190915290205486146107ad5773ffffffffffffffffffffffffffffffffffffffff8b166000908152601c8201602052604090208690555b6108d6565b73ffffffffffffffffffffffffffffffffffffffff8b166000908152601c8201602052604090205415801590610810575073ffffffffffffffffffffffffffffffffffffffff8b166000908152601782016020526040902060010154155b156108425773ffffffffffffffffffffffffffffffffffffffff8b166000908152601c820160205260408120556108d6565b73ffffffffffffffffffffffffffffffffffffffff8b166000908152601c8201602052604090205415801561089f575073ffffffffffffffffffffffffffffffffffffffff8b166000908152601782016020526040902060010154155b156108d6576040517f56b3653200000000000000000000000000000000000000000000000000000000815260040160405180910390fd5b73ffffffffffffffffffffffffffffffffffffffff8b16600090815260178201602052604090206004015460ff161515851515146109635773ffffffffffffffffffffffffffffffffffffffff8b166000908152601782016020526040902060040180547fffffffffffffffffffffffffffffffffffffffffffffffffffffffffffffff00168615151790555b6040805160008152602081018083528151902091610985918791879101614e0b565b60405160208183030381529060405280519060200120146109d75773ffffffffffffffffffffffffffffffffffffffff8b16600090815260178201602052604090206109d59060050185856148a7565b505b73ffffffffffffffffffffffffffffffffffffffff8b166000818152601783016020526040908190206001015490519091907f8fab43684eb05e5e5113cac69af2b47ceef3f9bfe531243aa54fe33fa10c669d90610a3c908a908a908a908a90614e1b565b60405180910390a35060019a9950505050505050505050565b6000610a5f612c25565b610a67612cd6565b610a7082612fac565b73ffffffffffffffffffffffffffffffffffffffff821660009081527f66bd28df09c9271bd5696185e1f2db071a0ed825a4f7df621c22ef195c811ebe6020908152604080832080547fffffffffffffffffffffffffffffffffffffffffffffffffffffffffffffff001690557f66bd28df09c9271bd5696185e1f2db071a0ed825a4f7df621c22ef195c811ebf918290528220547f66bd28df09c9271bd5696185e1f2db071a0ed825a4f7df621c22ef195c811ec080547f66bd28df09c9271bd5696185e1f2db071a0ed825a4f7df621c22ef195c811e9f949293929190610b5b90600190614e78565b81548110610b6b57610b6b614e8f565b600091825260208083209091015473ffffffffffffffffffffffffffffffffffffffff168352820192909252604001902055602181018054610baf90600190614e78565b81548110610bbf57610bbf614e8f565b600091825260208083209091015473ffffffffffffffffffffffffffffffffffffffff86811684528483019092526040909220546021840180549290931692918110610c0d57610c0d614e8f565b600091825260208083209190910180547fffffffffffffffffffffffff00000000000000000000000000000000000000001673ffffffffffffffffffffffffffffffffffffffff9485161790559185168152828201909152604081205560218101805480610c7d57610c7d614ebe565b60008281526020902081017fffffffffffffffffffffffffffffffffffffffffffffffffffffffffffffffff90810180547fffffffffffffffffffffffff000000000000000000000000000000000000000016905501905550600192915050565b6000610ce8612c25565b610cf0612cd6565b610cf98261305a565b7f66bd28df09c9271bd5696185e1f2db071a0ed825a4f7df621c22ef195c811eb7805473ffffffffffffffffffffffffffffffffffffffff84811660008181527f66bd28df09c9271bd5696185e1f2db071a0ed825a4f7df621c22ef195c811eb86020908152604080832086905560018087019097557f211606189321c1eb7be88decb7b5b11698508ca60e673367ba946c2c4324c43790950180547fffffffffffffffffffffffff000000000000000000000000000000000000000090811685179091557f66bd28df09c9271bd5696185e1f2db071a0ed825a4f7df621c22ef195c811eb682528583208054909116948a16949094179093557f66bd28df09c9271bd5696185e1f2db071a0ed825a4f7df621c22ef195c811eb990925282822080547fffffffffffffffffffffffffffffffffffffffffffffffffffffffffffffff00168517905591517f66bd28df09c9271bd5696185e1f2db071a0ed825a4f7df621c22ef195c811e9f93917fdc251b3c8e645ea59e7d61c4630c88b1a81f7edcf3e95ec42e8b7d984f0bd40791a360019150505b92915050565b6000610ea0612cd6565b507f66bd28df09c9271bd5696185e1f2db071a0ed825a4f7df621c22ef195c811eb580547fffffffffffffffffffffffffffffffffffffffffffffffffffffffffffffff0016911515919091179055600190565b6000610efe612c25565b610f06612cd6565b610f0f82612eff565b73ffffffffffffffffffffffffffffffffffffffff821660009081527f66bd28df09c9271bd5696185e1f2db071a0ed825a4f7df621c22ef195c811eb66020526040812060038101546002909101547f66bd28df09c9271bd5696185e1f2db071a0ed825a4f7df621c22ef195c811e9f9291610fad917dffffffffffffffffffffffffffffffffffffffffffffffffffffffffffff90911690614db1565b73ffffffffffffffffffffffffffffffffffffffff8581166000908152601785016020526040808220549051939450909291169083908381818185875af1925050503d806000811461101b576040519150601f19603f3d011682016040523d82523d6000602084013e611020565b606091505b505090508061108b576040517f08c379a000000000000000000000000000000000000000000000000000000000815260206004820152601060248201527f5472616e73666572206661696c65642e000000000000000000000000000000006044820152606401610451565b73ffffffffffffffffffffffffffffffffffffffff8516600090815260198401602081905260408220546018860180549193916110ca90600190614e78565b815481106110da576110da614e8f565b600091825260208083209091015473ffffffffffffffffffffffffffffffffffffffff16835282019290925260400190205560188301805461111e90600190614e78565b8154811061112e5761112e614e8f565b600091825260208083209091015473ffffffffffffffffffffffffffffffffffffffff888116845260198701909252604090922054601886018054929093169291811061117d5761117d614e8f565b600091825260209091200180547fffffffffffffffffffffffff00000000000000000000000000000000000000001673ffffffffffffffffffffffffffffffffffffffff92909216919091179055601883018054806111de576111de614ebe565b6000828152602080822083017fffffffffffffffffffffffffffffffffffffffffffffffffffffffffffffffff90810180547fffffffffffffffffffffffff0000000000000000000000000000000000000000908116909155930190935573ffffffffffffffffffffffffffffffffffffffff881681526017860190925260408220805490911681556001810182905560028101829055600381018290556004810180547fffffffffffffffffffffffffffffffffffffffffffffffffffffffffffffff00169055906112b46005830182614949565b505073ffffffffffffffffffffffffffffffffffffffff85166000818152601c850160209081526040808320839055601b87018252808320839055601d87018252808320839055601e8701825280832080547fffffffffffffffffffffffffffffffffffffffffffffffffffffffffffffff00908116909155601a88019092528083208054909216909155517fdc251b3c8e645ea59e7d61c4630c88b1a81f7edcf3e95ec42e8b7d984f0bd407908290a3506001949350505050565b600061137a612c25565b611382612cd6565b61138b89612eff565b73ffffffffffffffffffffffffffffffffffffffff891660009081527f66bd28df09c9271bd5696185e1f2db071a0ed825a4f7df621c22ef195c811eb960205260409020547f66bd28df09c9271bd5696185e1f2db071a0ed825a4f7df621c22ef195c811e9f9060ff1615156001141561144d5773ffffffffffffffffffffffffffffffffffffffff8a166000908152601a82016020526040902080547fffffffffffffffffffffffffffffffffffffffffffffffffffffffffffffff001690555b6127108761ffff1611156114bd576040517f08c379a000000000000000000000000000000000000000000000000000000000815260206004820152601060248201527f57524f4e475f50455243454e54414745000000000000000000000000000000006044820152606401610451565b6114e77dffffffffffffffffffffffffffffffffffffffffffffffffffffffffffff89168a614db1565b341015611550576040517f08c379a000000000000000000000000000000000000000000000000000000000815260206004820152600d60248201527f57524f4e475f4445504f534954000000000000000000000000000000000000006044820152606401610451565b73ffffffffffffffffffffffffffffffffffffffff8a166000908152601782016020526040812060020180548b929061158a908490614db1565b909155505073ffffffffffffffffffffffffffffffffffffffff8a166000908152601782016020526040812060030180548a92906115e99084907dffffffffffffffffffffffffffffffffffffffffffffffffffffffffffff16614dc9565b82547dffffffffffffffffffffffffffffffffffffffffffffffffffffffffffff9182166101009390930a92830291909202199091161790555073ffffffffffffffffffffffffffffffffffffffff8a1660009081526017820160205260409020600301547e01000000000000000000000000000000000000000000000000000000000000900461ffff908116908816146116f45773ffffffffffffffffffffffffffffffffffffffff8a166000908152601782016020526040902060030180547dffffffffffffffffffffffffffffffffffffffffffffffffffffffffffff167e0100000000000000000000000000000000000000000000000000000000000061ffff8a16021790555b73ffffffffffffffffffffffffffffffffffffffff8a1660009081526017820160205260409020600101546117b65773ffffffffffffffffffffffffffffffffffffffff8a166000908152601e82016020908152604080832080547fffffffffffffffffffffffffffffffffffffffffffffffffffffffffffffff00166001179055601c840190915290205486146117b15773ffffffffffffffffffffffffffffffffffffffff8a166000908152601c8201602052604090208690555b6118df565b73ffffffffffffffffffffffffffffffffffffffff8a166000908152601c8201602052604090205415801590611815575073ffffffffffffffffffffffffffffffffffffffff8a16600090815260178201602052604090206001015415155b1561184b5773ffffffffffffffffffffffffffffffffffffffff8a166000908152601c82016020526040812081905595506118df565b73ffffffffffffffffffffffffffffffffffffffff8a166000908152601c820160205260409020541580156118a8575073ffffffffffffffffffffffffffffffffffffffff8a166000908152601782016020526040902060010154155b156118df576040517f56b3653200000000000000000000000000000000000000000000000000000000815260040160405180910390fd5b73ffffffffffffffffffffffffffffffffffffffff8a16600090815260178201602052604090206004015460ff1615158515151461196c5773ffffffffffffffffffffffffffffffffffffffff8a166000908152601782016020526040902060040180547fffffffffffffffffffffffffffffffffffffffffffffffffffffffffffffff00168615151790555b604080516000815260208101808352815190209161198e918791879101614e0b565b60405160208183030381529060405280519060200120146119e05773ffffffffffffffffffffffffffffffffffffffff8a16600090815260178201602052604090206119de9060050185856148a7565b505b73ffffffffffffffffffffffffffffffffffffffff8a166000818152601783016020526040908190206001015490519091907f8fab43684eb05e5e5113cac69af2b47ceef3f9bfe531243aa54fe33fa10c669d90611a45908a908a908a908a90614e1b565b60405180910390a35060019998505050505050505050565b7fd5b0c411a6c50ab7237d5bdf5f4be539f3a9603f77c2fe2a10b3944fcb2c324b80546000919060021415611aee576040517f08c379a000000000000000000000000000000000000000000000000000000000815260206004820152601f60248201527f5265656e7472616e637947756172643a207265656e7472616e742063616c6c006044820152606401610451565b60028155611afa612c25565b611b0384612eff565b60007f66bd28df09c9271bd5696185e1f2db071a0ed825a4f7df621c22ef195c811e9f9050611b616040518060c001604052806000815260200160008152602001600081526020016000815260200160008152602001600081525090565b6000855111611bcc576040517f08c379a000000000000000000000000000000000000000000000000000000000815260206004820152600960248201527f4e4f5f414d4f554e5400000000000000000000000000000000000000000000006044820152606401610451565b6015820154815273ffffffffffffffffffffffffffffffffffffffff86166000908152601783016020526040902060010154611c365773ffffffffffffffffffffffffffffffffffffffff86166000908152601b8301602090815260409091205490820152611c69565b73ffffffffffffffffffffffffffffffffffffffff86166000908152601783016020908152604090912060010154908201525b6020810151611ca4576040517f4622fb7300000000000000000000000000000000000000000000000000000000815260040160405180910390fd5b805160208201518651611cb79190614eed565b611cc19190614f2a565b60408083019182526000808052600e85016020908152828220549351600f870190915291902054611cf29190614db1565b1115611d5a576040517f08c379a000000000000000000000000000000000000000000000000000000000815260206004820152601260248201527f4d617820737570706c79207265616368656400000000000000000000000000006044820152606401610451565b73ffffffffffffffffffffffffffffffffffffffff8616600090815260178301602052604090819020600301547e01000000000000000000000000000000000000000000000000000000000000900461ffff1660608301819052825191830151611dc5929189613108565b60808201526060810151815161271091611dde91614eed565b611de89190614f2a565b8160800151611df79190614eed565b60a082018190528151611e0991614f2a565b8160400151611e189190614db1565b604082015260005b8551811015611f285773ffffffffffffffffffffffffffffffffffffffff87166342842e0e3373ffffffffffffffffffffffffffffffffffffffff808b1660009081526017880160205260409020548a519116908a9086908110611e8657611e86614e8f565b60209081029190910101516040517fffffffff0000000000000000000000000000000000000000000000000000000060e086901b16815273ffffffffffffffffffffffffffffffffffffffff93841660048201529290911660248301526044820152606401600060405180830381600087803b158015611f0557600080fd5b505af1158015611f19573d6000803e3d6000fd5b50505050806001019050611e20565b50805160a0820151611f3b908290614f2a565b611f459190614eed565b73ffffffffffffffffffffffffffffffffffffffff8716600090815260178401602052604081206003018054909190611f9f9084907dffffffffffffffffffffffffffffffffffffffffffffffffffffffffffff16614f65565b92506101000a8154817dffffffffffffffffffffffffffffffffffffffffffffffffffffffffffff02191690837dffffffffffffffffffffffffffffffffffffffffffffffffffffffffffff1602179055508060a001518160000151826040015161200a9190614eed565b6120149190614e78565b73ffffffffffffffffffffffffffffffffffffffff8716600090815260178401602052604090206002015410156120a7576040517f08c379a000000000000000000000000000000000000000000000000000000000815260206004820152601260248201527f494e53554646494349454e545f46554e445300000000000000000000000000006044820152606401610451565b805160a08201516120b9908290614f2a565b6120c39190614eed565b815160408301516120d49190614eed565b6120de9190614e78565b73ffffffffffffffffffffffffffffffffffffffff8716600090815260178401602052604081206002018054909190612118908490614e78565b90915550508051604082015161212e9190614eed565b602583018054600090612142908490614db1565b90915550506040808201516000808052600f850160205291822080549192909161216d908490614db1565b9091555061217b90506131e5565b61218a334283604001516133f7565b6121f0576040517f08c379a000000000000000000000000000000000000000000000000000000000815260206004820152601b60248201527f4865616c7468206e6f742073657474656420636f72726563746c7900000000006044820152606401610451565b61223633600083604001516040518060400160405280600281526020017f307800000000000000000000000000000000000000000000000000000000000081525061363a565b604080820151815190815242602082015233917f713ad896423a80156e30820a6075c1f3e6565c0278c0a646a549fedadc71272b910160405180910390a26001935050506001905592915050565b600061228e612c25565b61229783612eff565b6122a0836137c7565b6122a933613898565b73ffffffffffffffffffffffffffffffffffffffff831660009081527f66bd28df09c9271bd5696185e1f2db071a0ed825a4f7df621c22ef195c811ebd60209081526040808320547f66bd28df09c9271bd5696185e1f2db071a0ed825a4f7df621c22ef195c811ebb8352818420547f66bd28df09c9271bd5696185e1f2db071a0ed825a4f7df621c22ef195c811ebc9093529220547f66bd28df09c9271bd5696185e1f2db071a0ed825a4f7df621c22ef195c811e9f9260ff169190806123718342614e78565b10158061237b5750825b6123b1576040517f2c19a59800000000000000000000000000000000000000000000000000000000815260040160405180910390fd5b82156124095773ffffffffffffffffffffffffffffffffffffffff87166000908152601e85016020526040902080547fffffffffffffffffffffffffffffffffffffffffffffffffffffffffffffff00169055612444565b806124148342614e78565b106124445773ffffffffffffffffffffffffffffffffffffffff87166000908152601d8501602052604090204290555b73ffffffffffffffffffffffffffffffffffffffff87166000908152601b8501602090815260409182902088905581514281529081018890527f8a5afbd673fa3d02cdd20d491ec6235fb03218cac8debc0072715e37419403a4910160405180910390a15060019695505050505050565b7fd5b0c411a6c50ab7237d5bdf5f4be539f3a9603f77c2fe2a10b3944fcb2c324b80546000919060021415612546576040517f08c379a000000000000000000000000000000000000000000000000000000000815260206004820152601f60248201527f5265656e7472616e637947756172643a207265656e7472616e742063616c6c006044820152606401610451565b60028155612552612c25565b61255b84612eff565b600080527fc80dba006960d579a0f3a4e6899774abe428b03691b95261b00d5e17a1901760547f66bd28df09c9271bd5696185e1f2db071a0ed825a4f7df621c22ef195c811eae6020527f7f10944b02d31f22192060d1eaec8ccb2710cf314fa16f90a49dfbaafb5d17f8547f66bd28df09c9271bd5696185e1f2db071a0ed825a4f7df621c22ef195c811e9f91906125f5908690614db1565b111561265d576040517f08c379a000000000000000000000000000000000000000000000000000000000815260206004820152601260248201527f4d617820737570706c79207265616368656400000000000000000000000000006044820152606401610451565b600084116126c7576040517f08c379a000000000000000000000000000000000000000000000000000000000815260206004820152600960248201527f4e4f5f414d4f554e5400000000000000000000000000000000000000000000006044820152606401610451565b601581015473ffffffffffffffffffffffffffffffffffffffff86166000908152601783016020526040812060010154612729575073ffffffffffffffffffffffffffffffffffffffff86166000908152601b83016020526040902054612756565b5073ffffffffffffffffffffffffffffffffffffffff861660009081526017830160205260409020600101545b8061278d576040517f4622fb7300000000000000000000000000000000000000000000000000000000815260040160405180910390fd5b73ffffffffffffffffffffffffffffffffffffffff871660009081526017840160205260408120600301547e01000000000000000000000000000000000000000000000000000000000000900461ffff16906127eb8489848c613108565b905060006127106127fc8487614eed565b6128069190614f2a565b6128109083614eed565b90506000670de0b6b3a764000085836128298d8a614eed565b6128339190614e78565b61283d9190614eed565b6128479190614f2a565b905073ffffffffffffffffffffffffffffffffffffffff8b166323b872dd3373ffffffffffffffffffffffffffffffffffffffff8e8116600090815260178c0160205260409081902054905160e085901b7fffffffff00000000000000000000000000000000000000000000000000000000168152928216600484015216602482015260448101849052606401602060405180830381600087803b1580156128ee57600080fd5b505af1158015612902573d6000803e3d6000fd5b505050506040513d601f19601f820116820180604052508101906129269190614fa4565b5073ffffffffffffffffffffffffffffffffffffffff8b166000908152601788016020526040812060030180548492906129819084907dffffffffffffffffffffffffffffffffffffffffffffffffffffffffffff16614f65565b92506101000a8154817dffffffffffffffffffffffffffffffffffffffffffffffffffffffffffff02191690837dffffffffffffffffffffffffffffffffffffffffffffffffffffffffffff16021790555081868b6129e09190614eed565b6129ea9190614e78565b73ffffffffffffffffffffffffffffffffffffffff8c1660009081526017890160205260409020600201541015612a7d576040517f08c379a000000000000000000000000000000000000000000000000000000000815260206004820152601160248201527f494e535546494349454e545f46554e44530000000000000000000000000000006044820152606401610451565b81612a88878c614eed565b612a929190614e78565b73ffffffffffffffffffffffffffffffffffffffff8c16600090815260178901602052604081206002018054909190612acc908490614e78565b90915550612adc9050868b614eed565b602588018054600090612af0908490614db1565b90915550506000808052600f88016020526040812080548c9290612b15908490614db1565b90915550612b2390506131e5565b612b2e33428c6133f7565b612b94576040517f08c379a000000000000000000000000000000000000000000000000000000000815260206004820152601b60248201527f4865616c7468206e6f742073657474656420636f72726563746c7900000000006044820152606401610451565b612bd63360008c6040518060400160405280600281526020017f307800000000000000000000000000000000000000000000000000000000000081525061363a565b604080518b815242602082015233917f713ad896423a80156e30820a6075c1f3e6565c0278c0a646a549fedadc71272b910160405180910390a260019850505050505050506001905592915050565b7f66bd28df09c9271bd5696185e1f2db071a0ed825a4f7df621c22ef195c811eb5547f66bd28df09c9271bd5696185e1f2db071a0ed825a4f7df621c22ef195c811e9f9060ff1615612cd3576040517f08c379a000000000000000000000000000000000000000000000000000000000815260206004820152601260248201527f544f4b454e5f46414345545f50415553454400000000000000000000000000006044820152606401610451565b50565b7fc8fcad8db84d3cc18b4c41d551ea0ee66dd599cde068d998e57d5e09332c131c6004015473ffffffffffffffffffffffffffffffffffffffff163314612d9f576040517f08c379a000000000000000000000000000000000000000000000000000000000815260206004820152602260248201527f4c69624469616d6f6e643a204d75737420626520636f6e7472616374206f776e60448201527f65720000000000000000000000000000000000000000000000000000000000006064820152608401610451565b565b73ffffffffffffffffffffffffffffffffffffffff811660009081527f66bd28df09c9271bd5696185e1f2db071a0ed825a4f7df621c22ef195c811ebe602052604090205460ff1615612cd3576040517f08c379a000000000000000000000000000000000000000000000000000000000815260206004820152601560248201527f4f5241434c455f414c52454144595f45584953545300000000000000000000006044820152606401610451565b73ffffffffffffffffffffffffffffffffffffffff81811660009081527f66bd28df09c9271bd5696185e1f2db071a0ed825a4f7df621c22ef195c811eb66020526040902054163314612cd3576040517f08c379a000000000000000000000000000000000000000000000000000000000815260206004820152600f60248201527f4e4f545f544f4b454e5f4f574e455200000000000000000000000000000000006044820152606401610451565b73ffffffffffffffffffffffffffffffffffffffff81811660009081527f66bd28df09c9271bd5696185e1f2db071a0ed825a4f7df621c22ef195c811eb6602052604090205416612cd3576040517f08c379a000000000000000000000000000000000000000000000000000000000815260206004820152601260248201527f544f4b454e5f444f45534e545f455849535400000000000000000000000000006044820152606401610451565b73ffffffffffffffffffffffffffffffffffffffff811660009081527f66bd28df09c9271bd5696185e1f2db071a0ed825a4f7df621c22ef195c811ebe602052604090205460ff16612cd3576040517f08c379a000000000000000000000000000000000000000000000000000000000815260206004820152601360248201527f4f5241434c455f444f45534e545f4558495354000000000000000000000000006044820152606401610451565b73ffffffffffffffffffffffffffffffffffffffff81811660009081527f66bd28df09c9271bd5696185e1f2db071a0ed825a4f7df621c22ef195c811eb660205260409020541615612cd3576040517f08c379a000000000000000000000000000000000000000000000000000000000815260206004820152601460248201527f544f4b454e5f414c52454144595f4558495354530000000000000000000000006044820152606401610451565b73ffffffffffffffffffffffffffffffffffffffff811660009081527f66bd28df09c9271bd5696185e1f2db071a0ed825a4f7df621c22ef195c811eb660205260408120600301547f66bd28df09c9271bd5696185e1f2db071a0ed825a4f7df621c22ef195c811e9f907dffffffffffffffffffffffffffffffffffffffffffffffffffffffffffff1682805b8781116131d95782816127106131ab8a8d614eed565b6131b59190614f2a565b6131bf9190614eed565b116131cc578091506131d1565b6131d9565b600101613195565b50979650505050505050565b7f66bd28df09c9271bd5696185e1f2db071a0ed825a4f7df621c22ef195c811e9f6000613210613946565b602283015483549192509060ff1661331257620927c082111580156132375750806103e814155b15613245576103e860228401555b81620927c01115801561325b575062124f808211155b801561326957508061038414155b156132775761038460228401555b8162124f801115801561328d5750621b77408211155b801561329b57508061032014155b156132a95761032060228401555b81621b7740111580156132bf575062249f008211155b80156132cd57508061025814155b156132db5761025860228401555b8162249f00111580156132f15750622dc6c08211155b80156132ff5750806101f414155b1561330d576101f460228401555b505050565b620927c0821115801561332657508060fa14155b156133335760fa60228401555b81620927c011158015613349575062124f808211155b801561335657508060e114155b156133635760e160228401555b8162124f80111580156133795750621b77408211155b801561338657508060c814155b156133935760c860228401555b81621b7740111580156133a9575062249f008211155b80156133b6575080609614155b156133c357609660228401555b8162249f00111580156133d95750622dc6c08211155b80156133e6575080607d14155b1561330d57607d6022840155505050565b60007f66bd28df09c9271bd5696185e1f2db071a0ed825a4f7df621c22ef195c811e9f815b600581101561362c576000818152603c83016020908152604080832073ffffffffffffffffffffffffffffffffffffffff8a16845290915290205460ff16156135b95761346986826139d1565b15613532576000808052603c83016020908152604080832073ffffffffffffffffffffffffffffffffffffffff8a168452909152902080547fffffffffffffffffffffffffffffffffffffffffffffffffffffffffffffff001660011790556134d0613a5d565b6000808052603b84016020908152604080832073ffffffffffffffffffffffffffffffffffffffff8b1684528252808320939093558180526010850190529081208054869290613521908490614db1565b909155506001935061363392505050565b6000808052603c83016020908152604080832073ffffffffffffffffffffffffffffffffffffffff8a1680855290835281842080547fffffffffffffffffffffffffffffffffffffffffffffffffffffffffffffff00166001179055838052603b8601835281842090845290915290208590556135ae86613b99565b600192505050613633565b8060041415613624576000808052603c83016020908152604080832073ffffffffffffffffffffffffffffffffffffffff8a168452909152902080547fffffffffffffffffffffffffffffffffffffffffffffffffffffffffffffff001660011790556134d0613a5d565b60010161341c565b5060009150505b9392505050565b7f66bd28df09c9271bd5696185e1f2db071a0ed825a4f7df621c22ef195c811e9f73ffffffffffffffffffffffffffffffffffffffff85166136fe576040517f08c379a000000000000000000000000000000000000000000000000000000000815260206004820152602160248201527f455243313135353a206d696e7420746f20746865207a65726f2061646472657360448201527f73000000000000000000000000000000000000000000000000000000000000006064820152608401610451565b33600061370a86613d8e565b9050600061371786613d8e565b90506137288360008a85858a613dd9565b6000878152600185016020908152604080832073ffffffffffffffffffffffffffffffffffffffff8c811680865291845282852080548c01905582518c81529384018b9052909392908716917fc3d58168c5ae7397731d063d5bbf3d657854427343f4c083240f7aacaa2d0f62910160405180910390a46137ae8360008a85858a614033565b6137bd8360008a8a8a8a6140da565b5050505050505050565b73ffffffffffffffffffffffffffffffffffffffff811660009081527f66bd28df09c9271bd5696185e1f2db071a0ed825a4f7df621c22ef195c811ebb60205260409020547f66bd28df09c9271bd5696185e1f2db071a0ed825a4f7df621c22ef195c811e9f90613894576040517f08c379a000000000000000000000000000000000000000000000000000000000815260206004820152601160248201527f544f4b454e5f4e4f545f4f4e5f464545440000000000000000000000000000006044820152606401610451565b5050565b73ffffffffffffffffffffffffffffffffffffffff811660009081527f66bd28df09c9271bd5696185e1f2db071a0ed825a4f7df621c22ef195c811ebe602052604090205460ff16612cd3576040517f08c379a000000000000000000000000000000000000000000000000000000000815260206004820152601260248201527f4f5241434c455f4e4f545f414c4c4f57454400000000000000000000000000006044820152606401610451565b60008061395161437e565b608081015190915061396590612710614eed565b6060820151613976906103e8614eed565b6040830151613986906064614eed565b602084015161399690600a614eed565b84516139a3906001614eed565b6139ad9190614db1565b6139b79190614db1565b6139c19190614db1565b6139cb9190614db1565b91505090565b60008181527f66bd28df09c9271bd5696185e1f2db071a0ed825a4f7df621c22ef195c811eda6020908152604080832073ffffffffffffffffffffffffffffffffffffffff861684529091528120547f66bd28df09c9271bd5696185e1f2db071a0ed825a4f7df621c22ef195c811e9f90421015613a53576001915050610e90565b6000915050610e90565b7f66bd28df09c9271bd5696185e1f2db071a0ed825a4f7df621c22ef195c811eb1547f66bd28df09c9271bd5696185e1f2db071a0ed825a4f7df621c22ef195c811eb2546000917f66bd28df09c9271bd5696185e1f2db071a0ed825a4f7df621c22ef195c811e9f9142613ad18383614db1565b811115613af05760138401819055613ae98382614db1565b9450613afd565b613afa8383614db1565b94505b6014840154613b0c8484614db1565b613b169190614e78565b81111580613b2c5750613b298383614db1565b81115b613b92576040517f08c379a000000000000000000000000000000000000000000000000000000000815260206004820152601960248201527f5265776172647320617265206265696e672075706461746564000000000000006044820152606401610451565b5050505090565b7f66bd28df09c9271bd5696185e1f2db071a0ed825a4f7df621c22ef195c811e9f60005b6005811015613be257613bd083826139d1565b15613bda57505050565b600101613bbd565b506000613bed614400565b90506000613bfa8461454d565b905060005b6005811015613d8757613c1061468b565b6000828152602e86016020526040902055828160058110613c3357613c33614e8f565b6020908102919091015160008381526030870190925260409091205573ffffffffffffffffffffffffffffffffffffffff851615613d7f576000818152603285016020908152604080832073ffffffffffffffffffffffffffffffffffffffff89168452909152902054828260058110613caf57613caf614e8f565b6020020151613cbe9190614e78565b6000828152602a8601602052604081208054909190613cde908490614e78565b909155508290508160058110613cf657613cf6614e8f565b602090810291909101516000838152603287018352604080822073ffffffffffffffffffffffffffffffffffffffff8a1683529093529190912055828160058110613d4357613d43614e8f565b602090810291909101516000838152603187018352604080822073ffffffffffffffffffffffffffffffffffffffff8a16835290935291909120555b600101613bff565b5050505050565b60408051600180825281830190925260609160009190602080830190803683370190505090508281600081518110613dc857613dc8614e8f565b602090810291909101015292915050565b7f66bd28df09c9271bd5696185e1f2db071a0ed825a4f7df621c22ef195c811e9f6000805b8551811015614028578173ffffffffffffffffffffffffffffffffffffffff168873ffffffffffffffffffffffffffffffffffffffff1614158015613e6f57508173ffffffffffffffffffffffffffffffffffffffff168773ffffffffffffffffffffffffffffffffffffffff1614155b1561402057613e9788878381518110613e8a57613e8a614e8f565b60200260200101516139d1565b158015613eb75750613eb587878381518110613e8a57613e8a614e8f565b155b15613fbe5780613ed357613eca88613b99565b613ed387613b99565b4283600001603b016000888481518110613eef57613eef614e8f565b6020026020010151815260200190815260200160002060008a73ffffffffffffffffffffffffffffffffffffffff1673ffffffffffffffffffffffffffffffffffffffff168152602001908152602001600020819055504283600001603b016000888481518110613f6257613f62614e8f565b6020026020010151815260200190815260200160002060008973ffffffffffffffffffffffffffffffffffffffff1673ffffffffffffffffffffffffffffffffffffffff16815260200190815260200160002081905550614020565b6040517f08c379a000000000000000000000000000000000000000000000000000000000815260206004820152601460248201527f556e64657220636f6f6c696e6720706572696f640000000000000000000000006044820152606401610451565b600101613dfe565b505050505050505050565b6000805b84518110156137bd578173ffffffffffffffffffffffffffffffffffffffff168773ffffffffffffffffffffffffffffffffffffffff16141580156140a857508173ffffffffffffffffffffffffffffffffffffffff168673ffffffffffffffffffffffffffffffffffffffff1614155b156140d2576140d0878683815181106140c3576140c3614e8f565b60200260200101516146dc565b505b600101614037565b73ffffffffffffffffffffffffffffffffffffffff84163b15614376576040517ff23a6e6100000000000000000000000000000000000000000000000000000000815273ffffffffffffffffffffffffffffffffffffffff85169063f23a6e6190614151908990899088908890889060040161502c565b602060405180830381600087803b15801561416b57600080fd5b505af19250505080156141b9575060408051601f3d9081017fffffffffffffffffffffffffffffffffffffffffffffffffffffffffffffffe01682019092526141b69181019061507c565b60015b6142a3576141c56150be565b806308c379a0141561421957506141da6150da565b806141e5575061421b565b806040517f08c379a00000000000000000000000000000000000000000000000000000000081526004016104519190615182565b505b6040517f08c379a000000000000000000000000000000000000000000000000000000000815260206004820152603460248201527f455243313135353a207472616e7366657220746f206e6f6e2d4552433131353560448201527f526563656976657220696d706c656d656e7465720000000000000000000000006064820152608401610451565b7fffffffff0000000000000000000000000000000000000000000000000000000081167ff23a6e610000000000000000000000000000000000000000000000000000000014614374576040517f08c379a000000000000000000000000000000000000000000000000000000000815260206004820152602860248201527f455243313135353a204552433131353552656365697665722072656a6563746560448201527f6420746f6b656e730000000000000000000000000000000000000000000000006064820152608401610451565b505b505050505050565b614386614983565b7f66bd28df09c9271bd5696185e1f2db071a0ed825a4f7df621c22ef195c811e9f60005b60058110156143fb576000818152601083016020908152604080832054600f8601909252909120546143dc9190614e78565b8382600581106143ee576143ee614e8f565b60200201526001016143aa565b505090565b614408614983565b7f66bd28df09c9271bd5696185e1f2db071a0ed825a4f7df621c22ef195c811e9f60005b60058110156143fb576000818152601083016020908152604080832054600f86019092529091205461445e9190614e78565b61448f57600081815260308301602052604090205483826005811061448557614485614e8f565b6020020152614545565b6000818152601083016020908152604080832054600f8601909252909120546144b89190614e78565b6000828152602e840160205260409020546144d161468b565b6144db9190614e78565b6000838152602f850160205260409020546144f69190614eed565b61450890670de0b6b3a7640000614eed565b6145129190614f2a565b600082815260308401602052604090205461452d9190614db1565b83826005811061453f5761453f614e8f565b60200201525b60010161442c565b614555614983565b7f66bd28df09c9271bd5696185e1f2db071a0ed825a4f7df621c22ef195c811e9f6000614580614400565b905060005b60058110156146835773ffffffffffffffffffffffffffffffffffffffff85166145c75760008482600581106145bd576145bd614e8f565b602002015261467b565b6000818152603284016020908152604080832073ffffffffffffffffffffffffffffffffffffffff891680855290835281842054858552603188018452828520918552925290912054670de0b6b3a76400009084846005811061462c5761462c614e8f565b602002015161463b9190614e78565b6146458885614794565b61464f9190614eed565b6146599190614f2a565b6146639190614db1565b84826005811061467557614675614e8f565b60200201525b600101614585565b505050919050565b7f66bd28df09c9271bd5696185e1f2db071a0ed825a4f7df621c22ef195c811ecc546000907f66bd28df09c9271bd5696185e1f2db071a0ed825a4f7df621c22ef195c811e9f906139cb9042614890565b60007f66bd28df09c9271bd5696185e1f2db071a0ed825a4f7df621c22ef195c811e9f8161470a8585614794565b614712575060015b8015614789576000848152603b83016020908152604080832073ffffffffffffffffffffffffffffffffffffffff8916808552908352818420849055878452603c86018352818420908452909152902080547fffffffffffffffffffffffffffffffffffffffffffffffffffffffffffffff001690555b506001949350505050565b60007f66bd28df09c9271bd5696185e1f2db071a0ed825a4f7df621c22ef195c811e9f73ffffffffffffffffffffffffffffffffffffffff841661485a576040517f08c379a000000000000000000000000000000000000000000000000000000000815260206004820152602a60248201527f455243313135353a2061646472657373207a65726f206973206e6f742061207660448201527f616c6964206f776e6572000000000000000000000000000000000000000000006064820152608401610451565b60009283526001016020908152604080842073ffffffffffffffffffffffffffffffffffffffff95909516845293905250205490565b6000818311156148a05781613633565b5090919050565b8280546148b390615195565b90600052602060002090601f0160209004810192826148d55760008555614939565b82601f1061490c578280017fffffffffffffffffffffffffffffffffffffffffffffffffffffffffffffff00823516178555614939565b82800160010185558215614939579182015b8281111561493957823582559160200191906001019061491e565b506149459291506149a1565b5090565b50805461495590615195565b6000825580601f10614965575050565b601f016020900490600052602060002090810190612cd391906149a1565b6040518060a001604052806005906020820280368337509192915050565b5b8082111561494557600081556001016149a2565b803573ffffffffffffffffffffffffffffffffffffffff811681146149da57600080fd5b919050565b6000602082840312156149f157600080fd5b613633826149b6565b80357dffffffffffffffffffffffffffffffffffffffffffffffffffffffffffff811681146149da57600080fd5b803561ffff811681146149da57600080fd5b8015158114612cd357600080fd5b60008083601f840112614a5a57600080fd5b50813567ffffffffffffffff811115614a7257600080fd5b602083019150836020828501011115614a8a57600080fd5b9250929050565b60008060008060008060008060006101008a8c031215614ab057600080fd5b614ab98a6149b6565b985060208a0135975060408a01359650614ad560608b016149fa565b9550614ae360808b01614a28565b945060a08a0135935060c08a0135614afa81614a3a565b925060e08a013567ffffffffffffffff811115614b1657600080fd5b614b228c828d01614a48565b915080935050809150509295985092959850929598565b60008060408385031215614b4c57600080fd5b614b55836149b6565b9150614b63602084016149b6565b90509250929050565b600060208284031215614b7e57600080fd5b813561363381614a3a565b60008060008060008060008060e0898b031215614ba557600080fd5b614bae896149b6565b975060208901359650614bc360408a016149fa565b9550614bd160608a01614a28565b94506080890135935060a0890135614be881614a3a565b925060c089013567ffffffffffffffff811115614c0457600080fd5b614c108b828c01614a48565b999c989b5096995094979396929594505050565b7f4e487b7100000000000000000000000000000000000000000000000000000000600052604160045260246000fd5b7fffffffffffffffffffffffffffffffffffffffffffffffffffffffffffffffe0601f830116810181811067ffffffffffffffff82111715614c9757614c97614c24565b6040525050565b60008060408385031215614cb157600080fd5b614cba836149b6565b915060208084013567ffffffffffffffff80821115614cd857600080fd5b818601915086601f830112614cec57600080fd5b813581811115614cfe57614cfe614c24565b8060051b9150604051614d1385840182614c53565b81815291830184019184810189841115614d2c57600080fd5b938501935b83851015614d485784358152938501938501614d31565b5080955050505050509250929050565b60008060408385031215614d6b57600080fd5b614d74836149b6565b946020939093013593505050565b7f4e487b7100000000000000000000000000000000000000000000000000000000600052601160045260246000fd5b60008219821115614dc457614dc4614d82565b500190565b60007dffffffffffffffffffffffffffffffffffffffffffffffffffffffffffff808316818516808303821115614e0257614e02614d82565b01949350505050565b8183823760009101908152919050565b848152831515602082015260606040820152816060820152818360808301376000818301608090810191909152601f9092017fffffffffffffffffffffffffffffffffffffffffffffffffffffffffffffffe01601019392505050565b600082821015614e8a57614e8a614d82565b500390565b7f4e487b7100000000000000000000000000000000000000000000000000000000600052603260045260246000fd5b7f4e487b7100000000000000000000000000000000000000000000000000000000600052603160045260246000fd5b6000817fffffffffffffffffffffffffffffffffffffffffffffffffffffffffffffffff0483118215151615614f2557614f25614d82565b500290565b600082614f60577f4e487b7100000000000000000000000000000000000000000000000000000000600052601260045260246000fd5b500490565b60007dffffffffffffffffffffffffffffffffffffffffffffffffffffffffffff83811690831681811015614f9c57614f9c614d82565b039392505050565b600060208284031215614fb657600080fd5b815161363381614a3a565b6000815180845260005b81811015614fe757602081850181015186830182015201614fcb565b81811115614ff9576000602083870101525b50601f017fffffffffffffffffffffffffffffffffffffffffffffffffffffffffffffffe0169290920160200192915050565b600073ffffffffffffffffffffffffffffffffffffffff808816835280871660208401525084604083015283606083015260a0608083015261507160a0830184614fc1565b979650505050505050565b60006020828403121561508e57600080fd5b81517fffffffff000000000000000000000000000000000000000000000000000000008116811461363357600080fd5b600060033d11156150d75760046000803e5060005160e01c5b90565b600060443d10156150e85790565b6040517ffffffffffffffffffffffffffffffffffffffffffffffffffffffffffffffffc803d016004833e81513d67ffffffffffffffff816024840111818411171561513657505050505090565b828501915081518181111561514e5750505050505090565b843d87010160208285010111156151685750505050505090565b61517760208286010187614c53565b509095945050505050565b6020815260006136336020830184614fc1565b600181811c908216806151a957607f821691505b602082108114156151e3577f4e487b7100000000000000000000000000000000000000000000000000000000600052602260045260246000fd5b5091905056fea26469706673582212200c7bf1989111836ce93b33251c311c708fb9278d397b3a2df37767b132758a1764736f6c63430008080033",
  "linkReferences": {},
  "deployedLinkReferences": {}
}