{
  "_format": "hh-sol-artifact-1",
  "contractName": "AvalancheValidatorSettersAndGettersFacet",
  "sourceName": "contracts/validator/facets/AvalancheValidatorSettersAndGettersFacet.sol",
  "abi": [
    {
      "anonymous": false,
      "inputs": [
        {
          "indexed": true,
          "internalType": "uint256",
          "name": "timeInSecond",
          "type": "uint256"
        },
        {
          "indexed": false,
          "internalType": "uint256",
          "name": "time",
          "type": "uint256"
        }
      ],
      "name": "settedActivityPeriod",
      "type": "event"
    },
    {
      "anonymous": false,
      "inputs": [
        {
          "indexed": false,
          "internalType": "uint256",
          "name": "coolingPeriodInSecond",
          "type": "uint256"
        },
        {
          "indexed": false,
          "internalType": "uint256",
          "name": "coolingPeriodStartInSecond",
          "type": "uint256"
        }
      ],
      "name": "settedCoolingPeriod",
      "type": "event"
    },
    {
      "anonymous": false,
      "inputs": [
        {
          "indexed": true,
          "internalType": "address",
          "name": "receiver",
          "type": "address"
        },
        {
          "indexed": false,
          "internalType": "uint96",
          "name": "feeNumerator",
          "type": "uint96"
        }
      ],
      "name": "settedDefaultRoyalty",
      "type": "event"
    },
    {
      "anonymous": false,
      "inputs": [
        {
          "indexed": false,
          "internalType": "address",
          "name": "_receiver",
          "type": "address"
        },
        {
          "indexed": true,
          "internalType": "uint256",
          "name": "time",
          "type": "uint256"
        }
      ],
      "name": "settedNextValidatorIsCompleted",
      "type": "event"
    },
    {
      "anonymous": false,
      "inputs": [
        {
          "indexed": true,
          "internalType": "uint256",
          "name": "_newRefundsPercentageInBPS",
          "type": "uint256"
        },
        {
          "indexed": true,
          "internalType": "uint256",
          "name": "_newRefundsManagerPercentageInBPS",
          "type": "uint256"
        },
        {
          "indexed": false,
          "internalType": "uint256",
          "name": "time",
          "type": "uint256"
        }
      ],
      "name": "settedRefundsAndRefundsManagerPercentage",
      "type": "event"
    },
    {
      "anonymous": false,
      "inputs": [
        {
          "indexed": true,
          "internalType": "uint256",
          "name": "costInWei",
          "type": "uint256"
        },
        {
          "indexed": false,
          "internalType": "uint256",
          "name": "time",
          "type": "uint256"
        }
      ],
      "name": "settedShareCost",
      "type": "event"
    },
    {
      "inputs": [
        {
          "internalType": "uint256[]",
          "name": "_ids",
          "type": "uint256[]"
        }
      ],
      "name": "cleanRedeemedMappingExternal",
      "outputs": [
        {
          "internalType": "bool",
          "name": "",
          "type": "bool"
        }
      ],
      "stateMutability": "nonpayable",
      "type": "function"
    },
    {
      "inputs": [],
      "name": "getActivityPeriod",
      "outputs": [
        {
          "internalType": "uint256",
          "name": "",
          "type": "uint256"
        }
      ],
      "stateMutability": "view",
      "type": "function"
    },
    {
      "inputs": [
        {
          "internalType": "address",
          "name": "_owner",
          "type": "address"
        }
      ],
      "name": "getAllOwnerRewards",
      "outputs": [
        {
          "internalType": "uint256[]",
          "name": "",
          "type": "uint256[]"
        }
      ],
      "stateMutability": "view",
      "type": "function"
    },
    {
      "inputs": [],
      "name": "getAvaxToStake",
      "outputs": [
        {
          "internalType": "uint256",
          "name": "",
          "type": "uint256"
        }
      ],
      "stateMutability": "view",
      "type": "function"
    },
    {
      "inputs": [],
      "name": "getCoolingPeriodAndCoolingPeriodStart",
      "outputs": [
        {
          "internalType": "uint256",
          "name": "",
          "type": "uint256"
        },
        {
          "internalType": "uint256",
          "name": "",
          "type": "uint256"
        }
      ],
      "stateMutability": "view",
      "type": "function"
    },
    {
      "inputs": [],
      "name": "getCurrentActiveSupplies",
      "outputs": [
        {
          "internalType": "uint256[5]",
          "name": "AV_ACTIVE_SUPPLIES",
          "type": "uint256[5]"
        }
      ],
      "stateMutability": "view",
      "type": "function"
    },
    {
      "inputs": [
        {
          "internalType": "uint256",
          "name": "_id",
          "type": "uint256"
        }
      ],
      "name": "getCurrentCoolingSupply",
      "outputs": [
        {
          "internalType": "uint256",
          "name": "",
          "type": "uint256"
        }
      ],
      "stateMutability": "view",
      "type": "function"
    },
    {
      "inputs": [],
      "name": "getCurrentSupplies",
      "outputs": [
        {
          "internalType": "uint256[5]",
          "name": "AV_CURRENT_SUPPLIES",
          "type": "uint256[5]"
        }
      ],
      "stateMutability": "view",
      "type": "function"
    },
    {
      "inputs": [],
      "name": "getFeesAndPercentageProportion",
      "outputs": [
        {
          "internalType": "uint256",
          "name": "",
          "type": "uint256"
        },
        {
          "internalType": "uint256",
          "name": "",
          "type": "uint256"
        },
        {
          "internalType": "uint256",
          "name": "",
          "type": "uint256"
        }
      ],
      "stateMutability": "view",
      "type": "function"
    },
    {
      "inputs": [
        {
          "internalType": "address",
          "name": "_redeemer",
          "type": "address"
        },
        {
          "internalType": "uint256",
          "name": "_id",
          "type": "uint256"
        }
      ],
      "name": "getHasRedeemed",
      "outputs": [
        {
          "internalType": "bool",
          "name": "",
          "type": "bool"
        }
      ],
      "stateMutability": "view",
      "type": "function"
    },
    {
      "inputs": [],
      "name": "getIdRewardsAndQDFee",
      "outputs": [
        {
          "internalType": "uint256",
          "name": "",
          "type": "uint256"
        },
        {
          "internalType": "uint256",
          "name": "",
          "type": "uint256"
        },
        {
          "internalType": "uint256",
          "name": "",
          "type": "uint256"
        },
        {
          "internalType": "uint256",
          "name": "",
          "type": "uint256"
        },
        {
          "internalType": "uint256",
          "name": "",
          "type": "uint256"
        },
        {
          "internalType": "uint256",
          "name": "",
          "type": "uint256"
        }
      ],
      "stateMutability": "view",
      "type": "function"
    },
    {
      "inputs": [],
      "name": "getIncentivesStats",
      "outputs": [
        {
          "internalType": "uint256",
          "name": "",
          "type": "uint256"
        },
        {
          "internalType": "bool",
          "name": "",
          "type": "bool"
        },
        {
          "internalType": "uint256",
          "name": "",
          "type": "uint256"
        },
        {
          "internalType": "uint256",
          "name": "",
          "type": "uint256"
        }
      ],
      "stateMutability": "view",
      "type": "function"
    },
    {
      "inputs": [],
      "name": "getIsNextValidatorCompleted",
      "outputs": [
        {
          "internalType": "bool",
          "name": "",
          "type": "bool"
        }
      ],
      "stateMutability": "view",
      "type": "function"
    },
    {
      "inputs": [
        {
          "internalType": "address",
          "name": "_owner",
          "type": "address"
        },
        {
          "internalType": "uint256",
          "name": "_id",
          "type": "uint256"
        }
      ],
      "name": "getIsUnderCoolingPeriod",
      "outputs": [
        {
          "internalType": "bool",
          "name": "",
          "type": "bool"
        },
        {
          "internalType": "uint256",
          "name": "",
          "type": "uint256"
        }
      ],
      "stateMutability": "view",
      "type": "function"
    },
    {
      "inputs": [
        {
          "internalType": "address",
          "name": "_owner",
          "type": "address"
        },
        {
          "internalType": "uint256",
          "name": "_id",
          "type": "uint256"
        }
      ],
      "name": "getOwnerHealth",
      "outputs": [
        {
          "internalType": "uint256",
          "name": "",
          "type": "uint256"
        }
      ],
      "stateMutability": "view",
      "type": "function"
    },
    {
      "inputs": [
        {
          "internalType": "address",
          "name": "owner",
          "type": "address"
        },
        {
          "internalType": "uint256",
          "name": "id",
          "type": "uint256"
        }
      ],
      "name": "getOwnerRewards",
      "outputs": [
        {
          "internalType": "uint256",
          "name": "",
          "type": "uint256"
        }
      ],
      "stateMutability": "view",
      "type": "function"
    },
    {
      "inputs": [
        {
          "internalType": "address",
          "name": "owner",
          "type": "address"
        }
      ],
      "name": "getReferredAddress",
      "outputs": [
        {
          "internalType": "address",
          "name": "",
          "type": "address"
        }
      ],
      "stateMutability": "view",
      "type": "function"
    },
    {
      "inputs": [],
      "name": "getRefundsStats",
      "outputs": [
        {
          "internalType": "uint256",
          "name": "",
          "type": "uint256"
        },
        {
          "internalType": "uint256",
          "name": "",
          "type": "uint256"
        },
        {
          "internalType": "uint256",
          "name": "",
          "type": "uint256"
        },
        {
          "internalType": "uint256",
          "name": "",
          "type": "uint256"
        },
        {
          "internalType": "bytes32",
          "name": "",
          "type": "bytes32"
        },
        {
          "internalType": "uint256",
          "name": "",
          "type": "uint256"
        }
      ],
      "stateMutability": "view",
      "type": "function"
    },
    {
      "inputs": [
        {
          "internalType": "uint256[]",
          "name": "_ids",
          "type": "uint256[]"
        }
      ],
      "name": "getRewardPerTokenID",
      "outputs": [
        {
          "internalType": "uint256[]",
          "name": "",
          "type": "uint256[]"
        }
      ],
      "stateMutability": "view",
      "type": "function"
    },
    {
      "inputs": [
        {
          "internalType": "uint256",
          "name": "_tokenId",
          "type": "uint256"
        }
      ],
      "name": "getRoyaltyInfo",
      "outputs": [
        {
          "internalType": "address",
          "name": "",
          "type": "address"
        },
        {
          "internalType": "uint96",
          "name": "",
          "type": "uint96"
        }
      ],
      "stateMutability": "view",
      "type": "function"
    },
    {
      "inputs": [],
      "name": "getShareCost",
      "outputs": [
        {
          "internalType": "uint256",
          "name": "",
          "type": "uint256"
        }
      ],
      "stateMutability": "view",
      "type": "function"
    },
    {
      "inputs": [],
      "name": "getTime",
      "outputs": [
        {
          "internalType": "uint256",
          "name": "",
          "type": "uint256"
        }
      ],
      "stateMutability": "view",
      "type": "function"
    },
    {
      "inputs": [],
      "name": "getTotalCurrentSupplyPondered",
      "outputs": [
        {
          "internalType": "uint256",
          "name": "AV_ACTIVE_PONDERED_SUPPLIES",
          "type": "uint256"
        }
      ],
      "stateMutability": "view",
      "type": "function"
    },
    {
      "inputs": [
        {
          "internalType": "uint256",
          "name": "_timeInSecond",
          "type": "uint256"
        }
      ],
      "name": "setActivityPeriodManual",
      "outputs": [
        {
          "internalType": "bool",
          "name": "",
          "type": "bool"
        }
      ],
      "stateMutability": "nonpayable",
      "type": "function"
    },
    {
      "inputs": [
        {
          "internalType": "uint256",
          "name": "_coolingPeriodInSecond",
          "type": "uint256"
        }
      ],
      "name": "setCoolingPeriodManual",
      "outputs": [
        {
          "internalType": "bool",
          "name": "",
          "type": "bool"
        }
      ],
      "stateMutability": "nonpayable",
      "type": "function"
    },
    {
      "inputs": [
        {
          "internalType": "address",
          "name": "_receiver",
          "type": "address"
        },
        {
          "internalType": "uint96",
          "name": "feeNumeratorInBPS",
          "type": "uint96"
        }
      ],
      "name": "setDefaultRoyaltyManual",
      "outputs": [
        {
          "internalType": "bool",
          "name": "",
          "type": "bool"
        }
      ],
      "stateMutability": "nonpayable",
      "type": "function"
    },
    {
      "inputs": [
        {
          "internalType": "address",
          "name": "_receiver",
          "type": "address"
        }
      ],
      "name": "setNextValidatorCompletedManual",
      "outputs": [
        {
          "internalType": "bool",
          "name": "",
          "type": "bool"
        }
      ],
      "stateMutability": "nonpayable",
      "type": "function"
    },
    {
      "inputs": [
        {
          "internalType": "uint256",
          "name": "_newRefundsPercentageInBPS",
          "type": "uint256"
        },
        {
          "internalType": "uint256",
          "name": "_newManagerRefundsPercentageInBPS",
          "type": "uint256"
        }
      ],
      "name": "setRefundsAndRefundsManagerPercentageManual",
      "outputs": [
        {
          "internalType": "bool",
          "name": "",
          "type": "bool"
        }
      ],
      "stateMutability": "nonpayable",
      "type": "function"
    },
    {
      "inputs": [
        {
          "internalType": "uint256",
          "name": "_durationInSecond",
          "type": "uint256"
        }
      ],
      "name": "setRewardsDurationManual",
      "outputs": [
        {
          "internalType": "bool",
          "name": "",
          "type": "bool"
        }
      ],
      "stateMutability": "nonpayable",
      "type": "function"
    },
    {
      "inputs": [
        {
          "internalType": "uint256",
          "name": "_costInWei",
          "type": "uint256"
        }
      ],
      "name": "setShareCostManual",
      "outputs": [
        {
          "internalType": "bool",
          "name": "",
          "type": "bool"
        }
      ],
      "stateMutability": "nonpayable",
      "type": "function"
    }
  ],
  "bytecode": "0x608060405234801561001057600080fd5b50616d9180620000216000396000f3fe608060405234801561001057600080fd5b50600436106101da5760003560e01c80639b727e8311610104578063c52389b4116100a2578063e0c1d6ec11610071578063e0c1d6ec146105f9578063f115b9e514610629578063f81baaf914610659578063fc2aaa5814610677576101da565b8063c52389b41461056d578063d168601f1461058b578063db2358a9146105ab578063dbcf3e77146105c9576101da565b8063b76c632b116100de578063b76c632b146104ac578063beaa89fa146104dd578063c301c74f1461050d578063c44354451461053d576101da565b80639b727e831461043d578063b44013ce1461045e578063b749cf761461047c576101da565b8063557ed1ba1161017c578063883526401161014b57806388352640146103a05780638b679c78146103bf5780638ccb2d5a146103ef5780638f77e47f1461041f576101da565b8063557ed1ba14610311578063570329d11461032f57806363f298421461035f5780637d8027691461037d576101da565b80633b6b9ba1116101b85780633b6b9ba1146102635780633e427c08146102935780634175b5bf146102c35780635494a02f146102e1576101da565b806308f33f73146101df578063128df49d146102105780632581080b14610233575b600080fd5b6101f960048036038101906101f491906160dd565b6106a7565b604051610207929190616147565b60405180910390f35b6102186109d9565b60405161022a96959493929190616170565b60405180910390f35b61024d60048036038101906102489190616215565b610b68565b60405161025a9190616255565b60405180910390f35b61027d600480360381019061027891906163c9565b610fed565b60405161028a9190616255565b60405180910390f35b6102ad60048036038101906102a89190616412565b611083565b6040516102ba9190616255565b60405180910390f35b6102cb611435565b6040516102d89190616452565b60405180910390f35b6102fb60048036038101906102f6919061646d565b61152d565b6040516103089190616452565b60405180910390f35b610319611638565b6040516103269190616452565b60405180910390f35b6103496004803603810190610344919061646d565b6116c4565b6040516103569190616255565b60405180910390f35b61036761190c565b6040516103749190616545565b60405180910390f35b6103856119a5565b60405161039796959493929190616579565b60405180910390f35b6103a8611adb565b6040516103b69291906165da565b60405180910390f35b6103d960048036038101906103d491906160dd565b611bdf565b6040516103e69190616452565b60405180910390f35b61040960048036038101906104049190616603565b611d28565b60405161041691906166c7565b60405180910390f35b610427611fa6565b6040516104349190616452565b60405180910390f35b61044561209e565b60405161045594939291906166e9565b60405180910390f35b6104666121c8565b6040516104739190616255565b60405180910390f35b61049660048036038101906104919190616603565b6122cd565b6040516104a39190616255565b60405180910390f35b6104c660048036038101906104c1919061646d565b61284e565b6040516104d492919061674c565b60405180910390f35b6104f760048036038101906104f291906163c9565b612c50565b60405161050491906166c7565b60405180910390f35b6105276004803603810190610522919061646d565b612ce6565b6040516105349190616255565b60405180910390f35b6105576004803603810190610552919061646d565b612f93565b6040516105649190616255565b60405180910390f35b6105756131db565b6040516105829190616452565b60405180910390f35b61059361326e565b6040516105a293929190616775565b60405180910390f35b6105b361337f565b6040516105c09190616545565b60405180910390f35b6105e360048036038101906105de9190616603565b613418565b6040516105f091906167ac565b60405180910390f35b610613600480360381019061060e91906160dd565b61356f565b6040516106209190616452565b60405180910390f35b610643600480360381019061063e919061646d565b6136b8565b6040516106509190616255565b60405180910390f35b610661613808565b60405161066e9190616452565b60405180910390f35b610691600480360381019061068c91906160dd565b613900565b60405161069e9190616255565b60405180910390f35b6000806106d67f920cdcc0be4d6773fa61f8b0c8636d4e16785e87c1f013874b724636e10efcd960001b613a56565b6107027f2e33179bea0453c2156cbe6e8651650720aa07d13e84282f5c1eac92b061c1ac60001b613a56565b61072e7ff26c6815d15fc09f8253b43c69c28652e6fb4698be718b6985097044447ac61060001b613a56565b6000610738613a59565b90506107667f5371f995abbf459395a1711ca9c95aa48156b7f8ae00fda4ec1cd13c5529518160001b613a56565b6107927f220ee64e9df01c6f3a0abb107105d70321017cf31f8130add059034533d5791a60001b613a56565b600061079e8686613b37565b90506107cc7f1954809bad98aafa5075b28d9a6b86f2c4d56a80e0202a8586d80786b0a8eaf060001b613a56565b6107f87f551a426182e2fc34f734fcc7aeb4d1067e028e706e3a98777dcd0ad418dc2ad760001b613a56565b60006108267f07ac893d606fd6886a8ec5019ad585867800cc173268a364d6fe29f65ed762b960001b613a56565b6108527fc679b36b174c3d9007a60df5e1a331217bd0a68eb46868aca06bb376a1b53c4960001b613a56565b8115610944576108847fe72c10584b604c57e0168866a01b1a2b752ba076916a1b9028f60fcff5db7aee60001b613a56565b6108b07f20055f706dddefcaf6237d50d33ed81e58766c4604b867836cc6a78e900fd52b60001b613a56565b6108dc7f6e21fa92c6a0844b574fcf0305569c5b1c34d45462e2acbe638940c4060b9dbe60001b613a56565b4283600001603b01600088815260200190815260200160002060008973ffffffffffffffffffffffffffffffffffffffff1673ffffffffffffffffffffffffffffffffffffffff1681526020019081526020016000205461093d91906167f6565b9050610971565b6109707f133bd2c29935d6b7b3f8c767ba40585baaa7461917a67d113392c4511a34ec6f60001b613a56565b5b61099d7f44a50f503eeb852357c33d9ffc186077918d85db6927c926e1df41e9d35a92b760001b613a56565b6109c97ff15ea81fbfe150336ea477baccfc6aff2a38bd4ec547856d2569a36c0526176560001b613a56565b8181945094505050509250929050565b600080600080600080610a0e7ff91932c2a22112f2048d3b8d0611c2f76535c6105992d8f712a7157c9541b2d460001b613a56565b610a3a7ff5c45a599ab7ec5e3ac5dbe73d74e2585228461b24125937959b56442febe6ec60001b613a56565b610a667f6b7723e6b94c381fee128003500519c52667da782546164fcb2e87a0145515f960001b613a56565b6000610a70613a59565b9050610a9e7f4250484a2c8613fc5550c2b238d31ea8806bf46c7c72d8a435ead251e27a083860001b613a56565b610aca7ffc12f060b4cb4f2f412ef822addfeb2f210ef4349c50e19f119931b5a76986d260001b613a56565b80600001602a0160008081526020019081526020016000205481600001602a016000600181526020019081526020016000205482600001602a016000600281526020019081526020016000205483600001602a016000600381526020019081526020016000205484600001602a016000600481526020019081526020016000205485600001602b015496509650965096509650965050909192939495565b6000610b967ff342329247eed1ca05776c96fc17ebabb67d2bb282d90421b5cd6a335a900f6960001b613a56565b610bc27f0e7a81c295281843332aef2b57c55c53ff4cea9c98ea08ba143038eb4df3c64660001b613a56565b610bee7f9bc6a0e09a9821b23f667fbd46516607cdbdab96a4732c44c690132f68efff2460001b613a56565b610bf6613d9c565b610c227fac0549c8150f1204b173a4a78c51da2a29c17f3588006a6d0f986543cd6cb21360001b613a56565b610c4e7ff37feae9ed399b25672548ce2c6dc9eb143f57777be74c229edb5d8391745ad660001b613a56565b6000610c58613a59565b9050610c867f656eadeed2617063f96d26b00940c89536c141dd1377b6780085fb3d87c1eeaa60001b613a56565b610cb27f4d0fa67a3282ebf11fc173e14124ffbe26373f2079cd3424502737dfc3b249cc60001b613a56565b610cde7f1712b55f24761d87c727c42ca29de0e5fdddf11c03774b20ff6155840e273e9b60001b613a56565b600073ffffffffffffffffffffffffffffffffffffffff168473ffffffffffffffffffffffffffffffffffffffff161415610d4e576040517f08c379a0000000000000000000000000000000000000000000000000000000008152600401610d4590616887565b60405180910390fd5b610d7a7faafbf8ca3ec59ecb85e8837e8447d071e3fde2838c11df064d569e8cc0790dee60001b613a56565b610da67f6376f266b01a742e1770571a3288bc364164852734250ab0b50264540a9d0ce260001b613a56565b610dd27f879e1eed973a69023a0cff268c0be32efa3b20d7860fbbebe7cdedca20a0592460001b613a56565b610dfe7fef97f6529270c0748beb663f60f429d4394d2bdd2f57f9ed5e2cd6132419c7cb60001b613a56565b8060000160240154836bffffffffffffffffffffffff161115610e56576040517f08c379a0000000000000000000000000000000000000000000000000000000008152600401610e4d90616919565b60405180910390fd5b610e827fff4e97320ada1026b7ffd766373c0f1f0ab7044ee9774470670f0a2a0de86d0160001b613a56565b610eae7f80c58bde97271dca5f94f29c97f5fcb17367b5c7195ad2cd576f7517a35a649c60001b613a56565b610eda7fd8a0ea2b0ad8e9a46a8660f60c5049ed9e836b9c18bbeb531a9e5ecabbba7e3260001b613a56565b610ee48484613f13565b610f107f322136250f2f929b976922ca5db9052a650f27df49464ee788d2a01c7a8939ae60001b613a56565b610f3c7f0a9f9b3503314e37644a31616a50ed140a0bbaf3352fda2a5d1390d6b42500a060001b613a56565b8373ffffffffffffffffffffffffffffffffffffffff167fc10e00c73ad5dafdfc2e87d997fb9ee3ee22e775655791c7a7969c26809411fc84604051610f829190616939565b60405180910390a2610fb67f69028e3d9b6d999c61fd945e6e3c8f887cd2ead8dda4e040607993a97c47471a60001b613a56565b610fe27ff7a739bd59d6ad5d392b84c3ff410f5c01d18c1e9b498ec7c661c7b5dcdbb41b60001b613a56565b600191505092915050565b600061101b7fad20e3e3a9ffb842e9d5f4179adfae21f58bc35f16a430669fca2edb0c5a5e5c60001b613a56565b6110477f2f70ce0fc3a30d1db6cf4b86dd9311dcceb7d6ed4c661f8646b1133a51b9f0ee60001b613a56565b6110737f47eb648112d6bf9f30ab069223c5ea3e7b4a852cab35c90804b6206fb561dbf560001b613a56565b61107c82614302565b9050919050565b60006110b17fe111b6940b2c8178591dc27436f868f055e8ccbe661904687f7bfe95a91317b560001b613a56565b6110dd7f8df57255038d7341143bfb922f7b6698a77c5285d5f49a0bb4b8ef61d57589aa60001b613a56565b6111097fe57394f9ff8c2f21aec24b5f5800970be0de5827706dcb934882598db50d1fec60001b613a56565b611111613d9c565b61113d7f3efd8a0590bcc67d40dd86a3e023bed3ae3c330d4c4173f23ac64485041e120260001b613a56565b6111697f2c99a613f218a4c47a5c161ad641cfbcedf1676e7622860f1bbc9eb2d692ba9d60001b613a56565b6000611173613a59565b90506111a17f6e46657ca0eafde1043c0cac055d4a7bdb5ed0fb780d2ead80c86857c60e42c960001b613a56565b6111cd7f46cc7e8959cbc88d282847dea01e009ea0343b74c433470f917b6ec75550977560001b613a56565b6111f97f071135f45ae0e14de32492fd448b160b4e576bd366669c376c8b03f6522df66860001b613a56565b8060000160240154838561120d9190616954565b1461124d576040517f08c379a0000000000000000000000000000000000000000000000000000000008152600401611244906169f6565b60405180910390fd5b6112797ff0a5c37d717f5550046263390a478929a23c67fca7ab302c0d89118537d4b95d60001b613a56565b6112a57f6818266a921de8334c61c830837db3e3506b4e2bfa538d61f7d24f21765a096060001b613a56565b6112d17f145237534968dca56562a64cd7d4482da6cc8fdfd957cf77c573a4b889d0114360001b613a56565b8381600001603501819055506113097fb52fa876ddc09ae176d344657c3d555146bc5b0763f760270852d1eeb1b023f660001b613a56565b6113357f0d87265378a2edf934f82fc2dd6a73405506e9526449f7670f4ae6afb55251c860001b613a56565b82816000016036018190555061136d7f903eaa0d6c866d7029c89626f4cef1b8546c4f603d1b335ae04714eab81c90c860001b613a56565b6113997fcd9fa242c460271eff0077ee7ad44890af6921ca45a798b3cb8c8678e65c40b760001b613a56565b82847fb0ee204ceffd796f5937db9f918fa7a6294cfd0855067aeae9703d992bd1cc06426040516113ca9190616452565b60405180910390a36113fe7f3ec5597fb55db9c1133dca142b6414f5fcb2cad7739cd972ec00804ed781774160001b613a56565b61142a7f1644a3544c6d5f6e227a4b3114042dfba3851f5f80b6016d466a1d41b72ed7e260001b613a56565b600191505092915050565b60006114637faae2c849f8c697dc0ab675c4974154c13f1d142977a0e4084bbc4ea2bb8a335d60001b613a56565b61148f7f3f14f1403c4dabda82129f872ed37f66d6aa5fd2a1201a94d2b560cfdcc29e0860001b613a56565b6114bb7f8b5e9a10545037290b9de790733e4da6d3b55cd75cce8cd9cb3702261c0ae6e060001b613a56565b60006114c5613a59565b90506114f37f0414f1fe5a597d5d75530f3642cacf9b33e60bc6a533bf3ce63529b79d8e515f60001b613a56565b61151f7f15209446066ff00701bd5aea81f856c5bfca0da25d13dd4f9f98c9981f056b2560001b613a56565b806000016011015491505090565b600061155b7f4ab76069ef4d2f94596ffef0e1174cfd8b04ea68513277d457846d78cf76c7ae60001b613a56565b6115877f848715b93e6c7707c2d1870766eae44983a6a5b30af37330a1c6dd95ad9962f160001b613a56565b6115b37f44a12bd51c2c2e629efa17da2adf00a0a97a318b5113426fd8fe84335ee020f060001b613a56565b60006115bd613a59565b90506115eb7f4de402bb637f88f9d0e2c2b0ee8c0e0b28e7c7bcce164413b507d1c0954655a360001b613a56565b6116177f140f6c63903d08f081bc7969ec869465b18e344b9274293171ce8beec238656660001b613a56565b80600001601001600084815260200190815260200160002054915050919050565b60006116667f3cf6480b457ddf654adb4dd36bf096a32df49d3a0ec7041fc7ce861ef76f407a60001b613a56565b6116927f0c1fb8f0a96f587b5f80cfc5ffa45e8a6ce6e975ab2adaf2416326e0f6c409de60001b613a56565b6116be7f5968eb7438eafb4aa160be5726f83040be5d34210da61a1df672e7cbeeafcb5d60001b613a56565b42905090565b60006116f27f9cf29d2beb92456dd847fa694f35341b5047ed21660e3876e054160223c14d0c60001b613a56565b61171e7fbde5642f967dbd39985528548dad4bd45c1952bb5d5bd07e5945e812146445c660001b613a56565b61174a7f9e6601b1010ef6bf953829c1ae32fdf93d1eaf9eff0a6675bdf76665a2973a3960001b613a56565b611752613d9c565b61177e7f2d9f36b552e664c4daded5b4f78d510af7e393766c2c68ec748e75861927164560001b613a56565b6117aa7f01e23d7b66e9f906e9c6af5d73e8184af895778be941681059841ad00fa2125060001b613a56565b60006117b4613a59565b90506117e27f3da48fe03fe8469be1370395fef5d65e62388f7fe95e52e6e8258295c5592c7660001b613a56565b61180e7fe1929ea4fb6a5bc0b51f7627490bed4c9e094280a67c451d2f1ec28c4b34d32160001b613a56565b8281600001601501819055506118467fb63af9ea3fec28d0f296d5ee1fb3fa2970a68f64e0b3b169ed4e6a8bba212d1860001b613a56565b6118727f05601edb9c5126fd703d32d1527da39ac0ecd6af2c4316be67145b256f320d0760001b613a56565b827fe55ab7179555660372d28e7c1a19429a1ffe3d2ae796b1c36b95f62f3bc40d2e426040516118a29190616452565b60405180910390a26118d67f5e7c28205fed22ec1ff3d4f9b9cf33d0d89811fbcbd2f261f2417d8ad5de56e160001b613a56565b6119027f9a24d5353379fb968d2c86aa45c11dfb1d7a442f663ed7a632f8d66d6a8e4a4560001b613a56565b6001915050919050565b611914616013565b6119407ffaf29d4f4a1bc49188e497ea45e4234fbe4d51dc8ba5c64a894cd17d735613d360001b613a56565b61196c7ff13c6a40e13a67dee5f45c62347d650e7d78e7d82465b22e81f35e03f9517ac260001b613a56565b6119987f2125b5877749ecfd2c7fab3e70a2e2d95806af7bcc8504ad404ebd94ab2cd48560001b613a56565b6119a061466e565b905090565b6000806000806000806119da7fd5ac36b9969708a70d2a70d4acb146193624a5ec8fa1518bfbb10715098a98f460001b613a56565b611a067f7cbf1530732d8c05f5a44c4b134fef05fe97f81dfa719312aac59da88794699f60001b613a56565b611a327f7afbf0ed1d0e3f23a8e402078b915ea6998e486be860b94e8d84fc22e321724960001b613a56565b6000611a3c613a59565b9050611a6a7f875dd6729d13c1df67e9ba9bcf637bc57dbc2d86db43dece03c95d6458f4dd3960001b613a56565b611a967f10505047ff9bd791564733a2e65e0e2b15b40e233e858780bcf207df5d9af10260001b613a56565b80600001603401548160000160350154826000016036015483600001603701548460000160380154856000016039015496509650965096509650965050909192939495565b600080611b0a7f4b0ce3f04d5654f9cf19efd530fc94f9fa904bd18e7b578b069ca58b075d9cfd60001b613a56565b611b367ff4200c9e8264455b53c07ae00eaae393790c483a44272c8f9064da55b7c2f3d460001b613a56565b611b627f09aff78a0bbb77e87bce85589f4668af968046b85f6251f1c8c94f5fe833f83060001b613a56565b6000611b6c613a59565b9050611b9a7f55acc83387bc035e2fc37ca6f41cf8cc8ecae5253dff0742b13884dd957a9a7660001b613a56565b611bc67f1f7ffa05efa0ad5e3674bcd4231c90a3bf65ea88b88139cc9141828a2917aa3560001b613a56565b8060000160120154816000016013015492509250509091565b6000611c0d7f0a23ae87e238dcdeaee4b3a8ef2e07d84da7e4e40fb355606a0a7a81ed5aecba60001b613a56565b611c397fe9c145074c2cec4c23149260e7c6d9003e5d8d8c1d6d3dcc48326666017135f660001b613a56565b611c657f56e01c72b094e36cae8e7d2cc3c51f29f8ae104f2e7295367b4467b7a2b44fbb60001b613a56565b6000611c6f613a59565b9050611c9d7fa52b5315720142062c930c9b3e723b0bf7ce0dbe48707072d93bbb7c475c2eab60001b613a56565b611cc97f817a55cea666f7e187c6af7c79845c2510faa4420bc71951952ec63b936cd38f60001b613a56565b80600001603b01600084815260200190815260200160002060008573ffffffffffffffffffffffffffffffffffffffff1673ffffffffffffffffffffffffffffffffffffffff1681526020019081526020016000205491505092915050565b6060611d567f8cb50d6a0ee73447a4c5580a531bf620935ae0831243a51ef4aa50f27968f18760001b613a56565b611d827fac200c17573710d1e786f6e4003dd2fa03f166c9f7e74faa938e348f63bc34b160001b613a56565b611dae7f8f529af2750c8e7d8160f41afc5d87434033bcfbb777bbb34f2508fecb84215760001b613a56565b6000600567ffffffffffffffff811115611dcb57611dca616286565b5b604051908082528060200260200182016040528015611df95781602001602082028036833780820191505090505b509050611e287f715e67cac5e176d620f876c380d6f73828aee42c0ea77cee5b8a365729da954660001b613a56565b611e547f729ccafe9d128a82f6201cbfe777062d294494c5d2b92f5ffbb7913fda658f1060001b613a56565b60005b6005811015611f3b57611e8c7f997257db1ff5d73a8570d37036c43e012b13c3467120c4d23d13b7c4deb6516c60001b613a56565b611eb87fece3bf25d4b6864e16a0059269a2bf8b1915b273c2731f9bdaa36d70b483fcaf60001b613a56565b80828281518110611ecc57611ecb616a16565b5b602002602001018181525050611f047fbb79622bdbcfb8ebf50e1712d9b33bc789956c41db05014eeb0c5887483f619760001b613a56565b611f307fcab77dcd56467166ba341c8a07af6f2a09b1214795a1db26bbb7e2cfa2ab7c2e60001b613a56565b806001019050611e57565b50611f687f188b46d9cbb2233e431fe3a7e6a7586e04199205ab3223adb0abd37d9024db8260001b613a56565b611f947f2c883d337d61ad5009f0a232224c211053e064216714c9243c5999d301c8e82d60001b613a56565b611f9e8382614882565b915050919050565b6000611fd47f5072a7ebb3213c50638e3915c80933f07cbfb4d84fea4711a4ced7d351fb73cd60001b613a56565b6120007fdae66a1dca3924ed99353a19a972aa5e793a8b8bf000dc757739695cc07542b460001b613a56565b61202c7fb6b61e16663237a1778d0f43e74e7e637c84310968f3a7c8560fcbc0012b45ed60001b613a56565b6000612036613a59565b90506120647fa55087ae16b462be47a3cce4bc449c6e110a4a1896c77494e08e7ad76004b6bb60001b613a56565b6120907f5eb0303ea2f5eebe85365181428bef8e063221a01f7cc99c1afac791931ba85460001b613a56565b806000016015015491505090565b6000806000806120d07f70594e354a9dd5a6fc98ece4ab25d8a6707b81a525c7b4c4243b9fb46f12bb3c60001b613a56565b6120fc7f5e938897d92e47f1ac5d2798b4c24fa38c2c0df7673223d59dab49a852284b0a60001b613a56565b6121287ff009cbe594b112f5fdfaac7f73ea43373687ec4345275fe0b0801b71ea2883fa60001b613a56565b6000612132613a59565b90506121607f05a78ae30d20b363a225eeb51942287ddd11831057ec519cd4223939b3b1c1bc60001b613a56565b61218c7f8d77e1c62cfe82b8168a63447e0985f01cda8c4394fa8ac9791313442057398a60001b613a56565b80600001602701548160000160260160009054906101000a900460ff168260000160280154836000016029015494509450945094505090919293565b60006121f67f20e33edbb393fb7347eb85f358181e87e2552e6402cd3d110e647661df399f3760001b613a56565b6122227f18324ea519e837e6f10730a70140b5cd49e0608243cc0f947d68fd6e212e523660001b613a56565b61224e7f02f8a307a00887e16f4ad1c5242c7f4e18461dd4883d90ef16eff5f2ce0b7b1c60001b613a56565b6000612258613a59565b90506122867f513b9184c07df0b59b5da2a212cb5bfe49069b8ff9bf93e1a464b4034035849360001b613a56565b6122b27f34b8005e54839a36c06a2a29b18c9d223385f87da433bc218389d1d1e9be635060001b613a56565b8060000160000160009054906101000a900460ff1691505090565b60006122fb7f5c852695ab4efc24019ac4dda7ea0e82b5484a9a36ca9ffcf5099dc002d8da9e60001b613a56565b6123277f8749d82a435dae6fc5c971d4ddf5cc8b9bac82877c8d2c7bd4e5d7055dc2283560001b613a56565b6123537ffed51628bfe6e90bb9515a09f8b8adb1723e26755eacfc7215e629cb5b15c39560001b613a56565b61235b613d9c565b6123877f69ecc533d209a4cb5781004a68477d5264f29d11081c65a89a036ebe5272365d60001b613a56565b6123b37f956a8c16bad064e4bc638ba24fec1f0d1281fdaa9301e711512feadcd65673b860001b613a56565b60006123bd613a59565b90506123eb7f7153e8d35e8bdbc37233ab8c99ca00b5f0491ff9a20cc587340dcfbf62a4c21860001b613a56565b6124177fa1059b692f75292ab7f12d1f1da1bb3a82004899071f99053adc9f9a001565ee60001b613a56565b60018160000160000160006101000a81548160ff0219169083151502179055506124637fbef7bc178f80faaa0293a1b7b0824ff83ffc7a4df126f4327f58c33e07c9206f60001b613a56565b61248f7f28678a3c0a5c5f48077c26f53e9afc2c837350a1bac7fe0562f3587d4989b31860001b613a56565b6124bb7f7d4f5bac0d22d36aa276df0a626936f5e879e62aae20d3f7048d198a53b2cac260001b613a56565b600073ffffffffffffffffffffffffffffffffffffffff168373ffffffffffffffffffffffffffffffffffffffff16141561252b576040517f08c379a000000000000000000000000000000000000000000000000000000000815260040161252290616887565b60405180910390fd5b6125577fff0bf31faf906d41bbfeeb379e343c9f576ead6a7d79bc72c026d50f2a633da160001b613a56565b6125837f091dbfc00ea00b45d60caa43a38a8bf6ae8fba06911caf3a19077bac8d28853060001b613a56565b6125af7f5fc07512a3b72ee0b6638f0949ad85a597e55b091b4df31232378c477ef86a4260001b613a56565b6125db7fd972a39a1faba46af5c7c8fe942bdc458c0ef65c5e3ec73817a904213100769b60001b613a56565b806000016024015460641115612626576040517f08c379a000000000000000000000000000000000000000000000000000000000815260040161261d90616919565b60405180910390fd5b6126527faaf3e280bcdf5b285fe9a0755ef719cda0f859c8edd8a7554bba62649957bdf260001b613a56565b61267e7fb2b34b6b5d5a8a499e2df176be07b29a56c87e13d696a8003e975af9b3d7eb5060001b613a56565b6126aa7f0e7a99525ac035b067bd33111e1093280b13a684bd55c06ad21fe101f632098160001b613a56565b6126b5836064613f13565b6126e17f4b0185639467c305676214e126a30b783fe559fe23586f95e25a6b725a747da860001b613a56565b61270d7f34f7c39a6cfde5433023775cebf49e3905a80b649dd088ea86904d0fa4a7a33a60001b613a56565b8273ffffffffffffffffffffffffffffffffffffffff167fc10e00c73ad5dafdfc2e87d997fb9ee3ee22e775655791c7a7969c26809411fc60646040516127549190616a8a565b60405180910390a26127887ff9e0e4c72897635f7cf483a5c1f05fd443e1ee2c62c9e53cabcd9a88f474410e60001b613a56565b6127b47f20e8ca27da9159af9c6150747c5ca4b4ed4966e1b192ae80ee9a2c1109a0bcfe60001b613a56565b427fd936045e72b1a7950ee5b5fca2996de29c3b095c4e5700e29be396991ba9e116846040516127e491906167ac565b60405180910390a26128187f7033c9c52c70b426f8f07fc663bab5e63bbd339563ebdc90cf0ed8d63771bc2a60001b613a56565b6128447faff9ea64648b99b1dc643a805e77b3a2a8a2220af2d38cbf7d8d84f7d58f64ab60001b613a56565b6001915050919050565b60008061287d7f3eb76a5937895f1145abfbfe75d2a2337f8a1f8ccc95b5c76e96111e10757f7560001b613a56565b6128a97fc5767b158102ebd7b89e9bb40744304231a73f061fee1c50811009691159f42160001b613a56565b6128d57feb88042ed949e70f60fa7750d71934b35770251a793c507f449a8e280239ca6c60001b613a56565b60006128df613a59565b905061290d7f8fdabe0ff5c555aedb2547d04b46a55161db174656829d13884cb1ac23bd143660001b613a56565b6129397fdf95a2d96304b5ba1049f38577f8b56ccb6dba4dfd7bf7b19311c908442174c060001b613a56565b60008160000160080160008681526020019081526020016000206040518060400160405290816000820160009054906101000a900473ffffffffffffffffffffffffffffffffffffffff1673ffffffffffffffffffffffffffffffffffffffff1673ffffffffffffffffffffffffffffffffffffffff1681526020016000820160149054906101000a90046bffffffffffffffffffffffff166bffffffffffffffffffffffff166bffffffffffffffffffffffff16815250509050612a207f6f6390a518410cb8e20af9fb88c8315021aa380a8c0d3507990a36b15b6a74d460001b613a56565b612a4c7fc53eff45a200fea86c8a8bac40f5f4eff6ee8c7148774c636bbe320f74a4701360001b613a56565b600073ffffffffffffffffffffffffffffffffffffffff16816000015173ffffffffffffffffffffffffffffffffffffffff161415612bb657612ab17f9c46cc981555590390ee7a070b3c03963ffbaf9819b38fe2223da71fa2ac27cd60001b613a56565b612add7f40bca70f248553b1abfc01b93fb21ef4206b52e1d0b9c004c56af6da69c30b4e60001b613a56565b612b097f15a064ef1399cf8a524b6160451852c9a98c40cb9dd472a2baf5e7df5ac9152d60001b613a56565b816000016007016040518060400160405290816000820160009054906101000a900473ffffffffffffffffffffffffffffffffffffffff1673ffffffffffffffffffffffffffffffffffffffff1673ffffffffffffffffffffffffffffffffffffffff1681526020016000820160149054906101000a90046bffffffffffffffffffffffff166bffffffffffffffffffffffff166bffffffffffffffffffffffff16815250509050612be3565b612be27f477a1cfebdfcd4358347686fd0797c2d60cb70c9de7a40c6c7cafec8374642e960001b613a56565b5b612c0f7f080a142397a88acea7db5ef556a24d0fb1ff27654c96ce19280d7bcea265860c60001b613a56565b612c3b7fcd13e68016ac9a991c350427056158433824d97feecb7e412aa9cd020224822860001b613a56565b80600001518160200151935093505050915091565b6060612c7e7fd9df03e7f16576ab69617fd89e05399d1d8907e2266588903dd84003e0d3fc5560001b613a56565b612caa7f64ec936ec78380dfdbf8ddbdcdfbdb162bee52269220e9eb8a24ce981d645f7360001b613a56565b612cd67f615ffaa36a76e5543ababb4fd4609b9d39142f6a83aee0c1dc4fdb04bc01bedd60001b613a56565b612cdf82614e75565b9050919050565b6000612d147f10886812d864f0b1d171e1fb154aa770e1916c108f1af47d4843fa41ff3390a960001b613a56565b612d407f533f2bfa19748fd4be80737a5212bda709911ef76d2277d63ef0c2730c1ec2c360001b613a56565b612d6c7f638cc64411d50e6021e95a0bc2bd3f014b638434aba9777a0ed011fa060aba9e60001b613a56565b612d74613d9c565b612da07ffd18b938b9c31a1cf557f73189056d048e12d606b58b66f8a5069187472daa0c60001b613a56565b612dcc7f5352d54b1c65bc02d5a196ffa809814b86455fae8da6b388818261e0c046976f60001b613a56565b6000612dd6613a59565b9050612e047fe50ed1b5773be4728a46362c1febccbeea242df9ada1bf6f34271b36d23136ae60001b613a56565b612e307f8a7ade41640a862f917253a9a0ac96e3b6457ce2edf08dd1d99b7c84ff2eb44560001b613a56565b828160000160120181905550612e687f025c2c054260a54ac07b605bc9da3b05cdeea6c4e2baf4fbd7bf37a1c519c25160001b613a56565b612e947f5e87ddba0abbb14ceaf79a64d65142bd4546c29d9688d33535bd17098cfb705e60001b613a56565b428160000160130181905550612ecc7f3fa66e56e91e2d60241aea170225e03ceac4b6e20caa4b3de628e090f2049b7860001b613a56565b612ef87f37aa825db28a4e988aedd1dcd000066c2c5047983f9effdce30a6c233fab5f5460001b613a56565b7f100e26aa9fb47eb030d3493fbbb073fc4a7342c3b364a5ffd3574065590efee58342604051612f299291906165da565b60405180910390a1612f5d7f946de361e4276b2dc8a1ad59e507db9f18803832e97266888a5564ee8e47af4c60001b613a56565b612f897f0142e2a182f07f5ffe7dde2d4ae732ff7320f3e0eec1f4176f4e067dc2d017eb60001b613a56565b6001915050919050565b6000612fc17f1cf9a37acfefd6228e672e0c637320f758e668d5f7535c0b8108fac6e2e3ecb360001b613a56565b612fed7fa9398f65cb7f7e36a297a1b0098bd6f1a481b091cb46241c4aa1566de3a1874260001b613a56565b6130197f5c252f3e64225158582c09a27a9ee972b23753ea62ef821fed5f9cd34048c3a060001b613a56565b613021613d9c565b61304d7f2d5cdfd0f1588a4e47cc1315b3aa269c0e611d9e945b7523f7ed7c09f7020b2d60001b613a56565b6130797f4d05ff54574212ecfc762550edacd1341c7beb110ee116324bc626b09ccf9c6d60001b613a56565b6000613083613a59565b90506130b17f35d6356905d55a442ce4e070a8a3a4c9d0bc08f4dcf35dfb719119aa8f5b48cf60001b613a56565b6130dd7f6f06b56b568f0d88cf60d7b7d1e16c0d91bb535d47a9ca9e2ff05a5d2139022260001b613a56565b8281600001601101819055506131157f05a06dfbc47c28f2a9cec435ab6b8d8d8d46ed88b7fd753d92cd17c9e75798e760001b613a56565b6131417fecb7db828a19fcb500159d26d6ddc6c294840bc82272afb3e1783aaf5ddad93960001b613a56565b827f7818ab41a4086cdde76d71c6ae504b306bddc48226f17a8bdaa13e3b90d19262426040516131719190616452565b60405180910390a26131a57f573813d0f885a4438fb63511d48ef237f2f09c03c54d3527597a3c8fb2deee0260001b613a56565b6131d17f07bca8fb579e7416eb51921efadbf3708fc2099a378d3a3723acaca181e4fe4e60001b613a56565b6001915050919050565b60006132097ff9c951a48a5441f7eef9408882e9a41bb21a0cd2ee52ccc329316bda7afd889560001b613a56565b6132357f8e5247d2cd0fb760307a6063fb0496d93fdc01ae69edf52b5f194d9ac3b8a69760001b613a56565b6132617fe2676dddfa106b2bdcd25c033d32668e4e09ab9ca1d3563f8a56223985fd273260001b613a56565b613269615471565b905090565b600080600061329f7fc2e90de5996d066a5d69e8fcd8d725c8eca3951e9df299d43f4b5accb5d6780d60001b613a56565b6132cb7f692a0316dc2f554ddef5171aa0255c092fdeca7cfba6427bafbcb777bc36b14c60001b613a56565b6132f77fe20cc60c44ac0d2a2976a3795a521b2f6373a1d781a1cf968c3b4fca731dfaac60001b613a56565b6000613301613a59565b905061332f7f79698dfbca85485486b2c49d659138ff8c88359d6448ef2baa3326d548fb7bd760001b613a56565b61335b7f3f24aa151cdb040cee284480f4a8ad2df551b342484279471222e9379a82038e60001b613a56565b80600001602201548160000160230154826000016024015493509350935050909192565b613387616013565b6133b37f80b0f75b9bf213f7b4bcb7aaf6637786882777e6c18bcda6e7b67ce156e8a4d560001b613a56565b6133df7fcdd7fda4fc3c2e847c42645a2c24c2080af063f4c1034d3066de9585639f148d60001b613a56565b61340b7f7e8729690b284be903b1a76151f5618ad1398f7e77c1792c2b028039cdb5795960001b613a56565b613413615644565b905090565b60006134467fe31528f20da5df58b06190b52594db00f8319c05ffe02b78d39005fc08c5539f60001b613a56565b6134727f8e9aab7e7341650ed26ec23c8180c02158edf3c9ea3775e1bb9721dee31453c160001b613a56565b61349e7fde0516e585f596f023c6b217d90fef27f1bcc216ef3246bac9522ce7a705ab2560001b613a56565b60006134a8613a59565b90506134d67fea3f23ba8ec80c7a4138bf2289588bc34924b982bde6117f83275358c6bfa6a360001b613a56565b6135027fb371f7ac54c73a459dc39fb5776ff32c0bb94d81886456f92b7b9280278ba10a60001b613a56565b80600001603d0160008473ffffffffffffffffffffffffffffffffffffffff1673ffffffffffffffffffffffffffffffffffffffff16815260200190815260200160002060009054906101000a900473ffffffffffffffffffffffffffffffffffffffff16915050919050565b600061359d7f1b55099e5adedf4a451e5b5580414519e9af8bbac855e0c36a2bc5ce60cd354d60001b613a56565b6135c97f143e8b57ed727ea7b0c52344a7913b5195a4034c86a6f0323fa1f9d5137dcafb60001b613a56565b6135f57f3be52ea738844e90e692bd0154beef0c5f4b5038a1c56f2ae4dad799a7fe9cdc60001b613a56565b60006135ff613a59565b905061362d7f79243b9185ff840fdb4a8c972805272d7246ac1d10643eda70992e99a84ab9b560001b613a56565b6136597fdb277efbbc800b463e1dc6c717cc212c9bf3e2871099c84a0d88a6cd5febaf5b60001b613a56565b80600001603201600084815260200190815260200160002060008573ffffffffffffffffffffffffffffffffffffffff1673ffffffffffffffffffffffffffffffffffffffff1681526020019081526020016000205491505092915050565b60006136e67fdc86b1e9deb74b3a6e6c8bf69528254c6c8060bdedf183ea309955f55f4eea6960001b613a56565b6137127f2d842a34781798975add9c0e25d12412bd8e80528b7a9a487b3293556357dd6a60001b613a56565b61373e7f71441848abcb16264967ef29649eb3ef3b7c278a194825c37891bdf26607978b60001b613a56565b613746613d9c565b6137727fae2f13655b7f5ecb7a6e6adc785458fa2e7c8728d40dc14208d7d317f45606e360001b613a56565b61379e7f0c1e1b999cc735d0983c4ae0b5f5065348abef08be59a72f01484356f3e7d82360001b613a56565b6137a782615835565b6137d37f6dc236f06c5e7f5b6723564bc4c8b87208140813dd4555be0866de096ae391aa60001b613a56565b6137ff7fcac1f2f3f8954e179d46fd7825a5f7dcc22243708d6772f5e0acfd691c14f5ad60001b613a56565b60019050919050565b60006138367f6f7bd6df0f6cd74961fe5d562e47a72d9f823899f0f9c05b8cb1e14ce044ebfe60001b613a56565b6138627f63b7604b9265af01d5fec75890953521924d28d3ae20a9709518f80d8b572f1560001b613a56565b61388e7fc544b8b892b71bee184d2777a89148402ecd65e0afccdca65aaace2e029403c960001b613a56565b6000613898613a59565b90506138c67f55828514d3478cb34619723a175c4c5b20c7182710d0c41cc5c0e41d3b3f36bd60001b613a56565b6138f27fff759c93c6fd4d000e1273b2526e85169c73bc82bb93361f259a70bac4a429e260001b613a56565b806000016025015491505090565b600061392e7f76a2462b73abdada7445ce6c3c56aca63586d4f58cad387248d63f40ad52451960001b613a56565b61395a7fcc23b78282d868caa63a78242df4247e1dfd26d97f0ea7156948b5fc9954183060001b613a56565b6139867ff63228d03085edaac8a8f54352388ecbaeb818af2044cffd8db086470795bf1860001b613a56565b6000613990613a59565b90506139be7fd914f01234828868c9882635cc56e14df4123d4aa1417bcd155f5c5e0d19105660001b613a56565b6139ea7fde42c8e17d798bdeee20a9974884a734538ede501424eba7f620f26003eb84b260001b613a56565b80600001603a01600084815260200190815260200160002060008573ffffffffffffffffffffffffffffffffffffffff1673ffffffffffffffffffffffffffffffffffffffff16815260200190815260200160002060009054906101000a900460ff1691505092915050565b50565b6000613a877fcbba79f9261db078091467664d5b84589857124d13216bd4514646c8c76d025a60001b615a26565b613ab37f724646df3e0020e3b200b7c2cdf653dfe7c4d57f2e237999b185e7819550fa2f60001b615a26565b613adf7fc9b67fad89b63ae30277c8a003424347566f29554d769ff61cd52986b61de40360001b615a26565b60007f66bd28df09c9271bd5696185e1f2db071a0ed825a4f7df621c22ef195c811e9f9050613b307fd550276b708b0edc784cb9667d4f336122f90f3c3857eafd0852a0b28138047160001b615a26565b8091505090565b6000613b657fb01c21a7056d600a8a22cad3056c3c8a2e316e3eeb0fec9a70f671724e81b70060001b615a29565b613b917fa1e63d14da21686b7cbbe08c6b7dfeebc05da1bff5022833f88250578638443e60001b615a29565b613bbd7f5be0227ad81a175b4c99e7b68817f1589b0b9d09dd6419c5d59a3db033b7d02860001b615a29565b6000613bc7613a59565b9050613bf57fd786ec36820f436d2a97a321dd23200b38ec5f7c316cbb8d882ec4f2130304c460001b615a29565b613c217f25be3cbf0a78a60569fb7448616a1f0f8c44e0119f1ee2b3de2ffaebefcd9e8460001b615a29565b80600001603b01600084815260200190815260200160002060008573ffffffffffffffffffffffffffffffffffffffff1673ffffffffffffffffffffffffffffffffffffffff16815260200190815260200160002054421015613d0c57613caa7f6d4c8f9c975b3de7df30a9880637d731c282bd2f66c1e1c11d8deff4e78e207e60001b615a29565b613cd67fbeee5774a3c1b6336049ef56efb43440c24da437266f1ffc185c737482fe2c4b60001b615a29565b613d027f4d2296860b4cee80c07f222f1d796eacf310d1c690a7e72898d44258935e707b60001b615a29565b6001915050613d96565b613d387fc8569885a6563bc8f5e8f4df6b12acc3c6d322faf279e23b55940996d0f455f560001b615a29565b613d647fab432d7a63c40278e9d3ae22e0a07c65e9cb5b62fdc5b4b67510b18d16714f1e60001b615a29565b613d907f5b8162783f1da79d6d3bebc584837af2fec3ebf94de7c7c8e757a4ad1c85a30460001b615a29565b60009150505b92915050565b613dc87f8ec893aa791af6d537b40b870ff7ef56c54ae8a708be175378c040664553b80460001b615a2c565b613df47f824439d7b8ad3ccfc6a7b84ff290c16ad57b8ed19354a8132169fe7b4a23848960001b615a2c565b613e207fde962410e963206a6c991c90517542e866b35c809d27fc95d7790e31e66921ef60001b615a2c565b613e4c7f52562fb46539559f16c752a8b6ddc12e90d4b756fa35d521eb041d5c22f96f4f60001b615a2c565b613e54615a2f565b60040160009054906101000a900473ffffffffffffffffffffffffffffffffffffffff1673ffffffffffffffffffffffffffffffffffffffff163373ffffffffffffffffffffffffffffffffffffffff1614613ee5576040517f08c379a0000000000000000000000000000000000000000000000000000000008152600401613edc90616b17565b60405180910390fd5b613f117f3abeaa9a7a5c31ab81cb64392449308332497436d08567b980542059c6cc865d60001b615a2c565b565b613f3f7fce1b5f8fd804b70105774f168cf94ac70245c338ff47d7ba16e7cf9b09ad864460001b615b0d565b613f6b7fee683e46d3d79392f94c675f6fa71ae17e407dcc308dbe5d2f673ad09a32571460001b615b0d565b613f977f3cf120b0f5d600f07fcb923cfc870f5b8c1ac817233d28476fc813ed188fe70760001b615b0d565b6000613fa1613a59565b9050613fcf7f2cc74f8eb213c01ea6ce80a5c2a322c21a8a66f36be3405f45d04a5fcbd9c3ea60001b615b0d565b613ffb7f041be381cd1639af5541e9a63557f5881d5f14f4819282711f9234fc9c8fbdc960001b615b0d565b6140277fd2fa9fdbf8667372dea121d12863371b78323b6eb1e3949e5d98e52079d38dee60001b615b0d565b61402f615b10565b826bffffffffffffffffffffffff16111561407f576040517f08c379a000000000000000000000000000000000000000000000000000000000815260040161407690616919565b60405180910390fd5b6140ab7f42a1fab1a1fbc659b45366849914a4396a38dbf92e405591f45241e6495c128d60001b615b0d565b6140d77f16f75353426fb7d7943affb671bf3e813584804f8f0c5a2792eb55d062355d3c60001b615b0d565b6141037f97376dec6c04e16aebed96ebcc6a388f092ab865901a0200d8299f46a6a30f6560001b615b0d565b61412f7f858ee8e131c4249070953a4eb08ce73a5f94f7d61e0d478969518e08ca07391b60001b615b0d565b600073ffffffffffffffffffffffffffffffffffffffff168373ffffffffffffffffffffffffffffffffffffffff16141561419f576040517f08c379a000000000000000000000000000000000000000000000000000000000815260040161419690616887565b60405180910390fd5b6141cb7fef245c943880c6f629e20820fcddaf74cdf85f1adf1262ebce62ab58b7a1a7c660001b615b0d565b6141f77ff6b1e9ed375ea25ce485f8597f1da35499f04822d334ad0f71b8dcf81e2feb1860001b615b0d565b6142237f3b4f659485accf39a8fc6d6e497f52c9afec9e072e4aea308168dc146cc11fd060001b615b0d565b828160000160070160000160006101000a81548173ffffffffffffffffffffffffffffffffffffffff021916908373ffffffffffffffffffffffffffffffffffffffff1602179055506142987f3e1405a5ab2d67c649b5c08010c980bb69352be6b072d70f1d12324a1b2a4cba60001b615b0d565b6142c47fc34652d6923f2adcf73dd3155b0cf08717b353964a31bb3c465a9818ca84afd860001b615b0d565b818160000160070160000160146101000a8154816bffffffffffffffffffffffff02191690836bffffffffffffffffffffffff160217905550505050565b60006143307f3495290c5b51a330840843099703ca488ee7586bcdfa4fcf8829adcb2d49c5bd60001b615a29565b61435c7fa613337b0489e577f87a6d20c09fcad46ca942361b007753ef168f28d85a92ba60001b615a29565b6143887f06c7813bbee2fb6afa3dde9f5a77833047bfcd6781243b078deb10326e26e60c60001b615a29565b6000614392613a59565b90506143c07fe6b02b53f599b7cc0f1f73d1029be1732c13df032daca8a24dc28fc368c0e40b60001b615a29565b6143ec7fe407a1c486dfb55fb8ba4bdfa27999be06152c73c40572a5220941e28187a60360001b615a29565b6144187fabf2fd8e6e03091be2ae55eab7ff3078a90254517594d2edeaf346a79c72fc4860001b615a29565b8060000160330160009054906101000a900460ff161561446d576040517f08c379a000000000000000000000000000000000000000000000000000000000815260040161446490616b83565b60405180910390fd5b6144997f8ac9e48e183181db88e97779acd1040ed3ae23d9dcacb0522d050b1cba20428660001b615a29565b6144c57fafa7cc6167321d968428e0be7559fbd821f28c6c330c5c0960fb62f7b027c6b860001b615a29565b6144f17ff81f9e6bcbecee810504bfb4b25dbc7a16634dfd538d5f22be001cc1bc5e9a9b60001b615a29565b60005b835181101561460b576145297fa9f849bc62ddc010309aad042c8f6675438508b4fadeeec577f9aafece38bdfe60001b615a29565b81600001603a01600085838151811061454557614544616a16565b5b6020026020010151815260200190815260200160002060003373ffffffffffffffffffffffffffffffffffffffff1673ffffffffffffffffffffffffffffffffffffffff16815260200190815260200160002060006101000a81549060ff02191690556145d47f44bc01a444ac0ec530111d795787c517f1841ba8d79e5e5f53d9f7394d67b71f60001b615a29565b6146007fac988f20aa88201e79e1d6e00a11f18ae5ded32cf021ede79cba755c48f88dad60001b615a29565b8060010190506144f4565b506146387f0766d930613190dac1eeb141e69b8c8b6714ca3b09e437cb62dace6960c817ee60001b615a29565b6146647f15be32cbef0eae3cf576543622c0afccb4385136d6ef40a5b2aae329588c1da660001b615a29565b6001915050919050565b614676616013565b6146a27f48bcf299c318e70897b2d65b85cef3de8ca84685ff5b8c66d5c6f09b94c7c14c60001b615c08565b6146ce7f3fbc03d188fc5aad5434880ff2edf80d5fc09eead76388e3ca632d1f1b71c0d860001b615c08565b6146fa7fb96fbcdc418eebef7fddc32ae358aafa158553bf31904f49e3f2574ab4b9a6e460001b615c08565b6000614704613a59565b90506147327f036900759c8835409335a4240f369230e3efe16a46040db461b56da206bf937f60001b615c08565b61475e7fd7b361150152392d9eb749bea6dce97eaa3d360314c47826e3f4207c9007dfe060001b615c08565b60005b600581101561487d576147967f7bc164a3c3de82fd4a410db6bad1f0acd82cc22e8c51120ad1e03afa7821786c60001b615c08565b6147c27fe1416da995ce75ac7a767f68c87dbd1910e17a1cae24726b95e19487d9acfd8c60001b615c08565b8160000160100160008281526020019081526020016000205482600001600f016000838152602001908152602001600020546147fe91906167f6565b83826005811061481157614810616a16565b5b6020020181815250506148467ff8418338521fc33de1208502415dad49b2f080c7623b2a204607a3c96792600960001b615c08565b6148727f24a3e31cefdc3c051e65a93812ebaad1f78f7eb77757bd49dc89dcb6fcfd749d60001b615c08565b806001019050614761565b505090565b60606148b07f47feacfd039c1ae36a516269ae3182f2f9f7a5b99e5f352f0957111f98d3c7d260001b615a29565b6148dc7f037ecf1a65c0501ad8463b97ef40804f2b3d5ce4be2e0fa79fe5849cb839fe6d60001b615a29565b6149087f81e14ca7a38c77aed905a08f713cebb756e103f6746480632c6249984c9b18a860001b615a29565b6000614912613a59565b90506149407f34fba52876a477ebad57ad1e6970253d095c30f2bd0cebc38526b75abd203aa360001b615a29565b61496c7f628bfb37b06adb269e5d3f5c0cd027267cb7383e07f559cec135e8a78942d12f60001b615a29565b600061497784614e75565b90506149a57feac0d99e0730c1c72a4050e5c25e44f3ecc6402867a24f682e6cf538f6a6664960001b615a29565b6149d17fe942fd41acb7f43484e161102b89167cdcf2d2b6218e2e3ea5bba2fc79a5b52860001b615a29565b6000845167ffffffffffffffff8111156149ee576149ed616286565b5b604051908082528060200260200182016040528015614a1c5781602001602082028036833780820191505090505b509050614a4b7fca3bac37abb1c3b6795411641b12188fad6daddc4c3d5f4c586d2a460fdfc82860001b615a29565b614a767e54785feafc86359f3c81206962186a4f2eb67a23adccd282a978bbd64d112560001b615a29565b60005b8551811015614e1057614aae7ffe8d8202248ddf4979fcb417ad76245dda1c51c62c231b26ed3f9ab573e4c08560001b615a29565b614ada7fa365d4b518927af92b5beb22779f7dc48a4459b730d2e7d68a7e80a088f82fb360001b615a29565b600073ffffffffffffffffffffffffffffffffffffffff168773ffffffffffffffffffffffffffffffffffffffff161415614bb957614b3b7f126b47c68f977abf56300ac7d67962da92a164c962756299449310bc4cf7edec60001b615a29565b614b677ffc026247c84d9a293150a1ad20b252961c483b8543e33ad0201f229d922dda7260001b615a29565b614b937f1b133b6cd0d10778d97fabca45ae875952175cd763178719fa0b29c85b66c97360001b615a29565b6000828281518110614ba857614ba7616a16565b5b602002602001018181525050614dad565b614be57f07a6b052cccb0a17f0d670902ebb1ad36614b08ea2b70b3667c5f0cbc530edba60001b615a29565b614c117f325fd8f39003826381ace245f342293bfa61d16e24c2854bec6691917b7aea8160001b615a29565b614c3d7fa823987d834b5afe2f3a2e5381cda6e2beb09c56f23b99ba012d65c3d2b16e6660001b615a29565b836000016032016000878381518110614c5957614c58616a16565b5b6020026020010151815260200190815260200160002060008873ffffffffffffffffffffffffffffffffffffffff1673ffffffffffffffffffffffffffffffffffffffff16815260200190815260200160002054670de0b6b3a7640000856000016031016000898581518110614cd257614cd1616a16565b5b6020026020010151815260200190815260200160002060008a73ffffffffffffffffffffffffffffffffffffffff1673ffffffffffffffffffffffffffffffffffffffff16815260200190815260200160002054858481518110614d3957614d38616a16565b5b6020026020010151614d4b91906167f6565b614d6f8a8a8681518110614d6257614d61616a16565b5b6020026020010151615c0b565b614d799190616ba3565b614d839190616c2c565b614d8d9190616954565b828281518110614da057614d9f616a16565b5b6020026020010181815250505b614dd97f61cf0a8518daf53a887fb77612ad50a8972c585b6fa7f9f2be1e23ba118f32c660001b615a29565b614e057f4055ed16b84a4ac65ccb952b2c5d40f9c1910dd5abd3357c21ad47676b97eb7860001b615a29565b806001019050614a79565b50614e3d7f48250429c4bd3255ca5cde83f20a0e96410688298f07dd5767dd7189dd50edbe60001b615a29565b614e697ffe25f2ff139089f61f8bda90e88256551f24d66809800f6699746763d821521360001b615a29565b80935050505092915050565b6060614ea37f8b4fb979e5aafe66c62669dd9702540c8cd51a30a9d5b8ed213fc1ca92c3f89f60001b615a29565b614ecf7f063b201504764c3a27865b3c4459ff6218f8c393d6a599ae390a6dbbc1627cb560001b615a29565b614efb7f2560162c8e78bc0c9eea14912e734a7837bd131ab0ed0b3ccc360af9cd9ad01760001b615a29565b6000614f05613a59565b9050614f337f5e15be7c75fda58ddd42c95440fea3de45247915a0e08c6c9f142eb66a9e86f160001b615a29565b614f5e7ece33fc26bb4ae824ff734f1117244ea60d5ffea217510c1c99ebdb41c2329160001b615a29565b6000835167ffffffffffffffff811115614f7b57614f7a616286565b5b604051908082528060200260200182016040528015614fa95781602001602082028036833780820191505090505b509050614fd87f8d0172e6c0d43f1ddec9598d552beef86700d61a6be39f878e7a6c699765307c60001b615a29565b6150047fb6d30b0a833b49644935ab31c14a14d518ec31a8fbcbe2a53b04d0bc6252adb260001b615a29565b60005b845181101561540e5761503c7fe33c2212541881b702e27626f117ed0f87b67d6084c062a252b65bc5a9ffaa4460001b615a29565b6150687fde16a0a2259bde52069f95a7699a39aea986cd76387c1f762b32a70607bf2d1860001b615a29565b600083600001601001600087848151811061508657615085616a16565b5b602002602001015181526020019081526020016000205484600001600f0160008885815181106150b9576150b8616a16565b5b60200260200101518152602001908152602001600020546150da91906167f6565b14156151bb5761510c7f980cddf182f0ae59e39e9842217e32f8c86bc7c8686690411c48aa377025a5af60001b615a29565b6151387faf2b78903dd34254d23d2e6803744caa34c97af3318e903288f97dc9b73653df60001b615a29565b6151647f73739410971b947a7ee3d613a852cd05a365075c87a42487b860be1d64df82b960001b615a29565b8260000160300160008683815181106151805761517f616a16565b5b60200260200101518152602001908152602001600020548282815181106151aa576151a9616a16565b5b6020026020010181815250506153ab565b6151e77f65e7ed5fa0b306f350835049f8edcb36031145485de198783d75fe255315c5d760001b615a29565b6152137ff2aed8bbf54ccd43365c6e4b949a772f31bb0313747e93bde4de6052ac02357a60001b615a29565b61523f7fa07095a015e17b3038a6453e4684378e0cce67e10eb249a4f839f27e82234ae560001b615a29565b82600001601001600086838151811061525b5761525a616a16565b5b602002602001015181526020019081526020016000205483600001600f01600087848151811061528e5761528d616a16565b5b60200260200101518152602001908152602001600020546152af91906167f6565b670de0b6b3a764000084600001602e0160008885815181106152d4576152d3616a16565b5b60200260200101518152602001908152602001600020546152f3615e74565b6152fd91906167f6565b85600001602f01600089868151811061531957615318616a16565b5b602002602001015181526020019081526020016000205461533a9190616ba3565b6153449190616ba3565b61534e9190616c2c565b83600001603001600087848151811061536a57615369616a16565b5b602002602001015181526020019081526020016000205461538b9190616954565b82828151811061539e5761539d616a16565b5b6020026020010181815250505b6153d77fce179defe47607acc6e221dcea563b26c6edc40e606b21063f26ba2f7c15ea1060001b615a29565b6154037f3b53fa4dbd60bae74b588fb9f6172da68702ee81a9e9abc8ca54106fbc17678660001b615a29565b806001019050615007565b5061543b7f304782d567ec59960167db6ce04f9a906512c249d1de4ee541fe34a84083705160001b615a29565b6154677fec101d1eddf24d60106ee97d2e68b55de0794ad9b64fb7cc6943edf957d9c95460001b615a29565b8092505050919050565b600061549f7f59a37625f8e79acf51dc43d58d51d57ab918823052b951d2d3320122271f321960001b615c08565b6154cb7f02f878bbd88e8e9121e958ba331e98eb5940be6cc568992ad165bfe98463c9e360001b615c08565b6154f77ff2f78af267cf7f4783452440e4585c45651381335d8b2a2cb690414ebcf9ca8e60001b615c08565b6000615501615644565b905061552f7f2198b0a04f40c2b17a638a779eb68a5b8717bcb17a3ae4253e9fcac2a3d4b37260001b615c08565b61555b7f8757194499d71d1122d8efd7ee9f910438303f6f16e5c3896ce14286d63acba260001b615c08565b6127108160046005811061557257615571616a16565b5b60200201516155819190616ba3565b6103e88260036005811061559857615597616a16565b5b60200201516155a79190616ba3565b6064836002600581106155bd576155bc616a16565b5b60200201516155cc9190616ba3565b600a846001600581106155e2576155e1616a16565b5b60200201516155f19190616ba3565b60018560006005811061560757615606616a16565b5b60200201516156169190616ba3565b6156209190616954565b61562a9190616954565b6156349190616954565b61563e9190616954565b91505090565b61564c616013565b6156787f862ecfb49320b7bc43e1ffdcd9b6526472fa405e21e73bfeff232eff04e6d0dd60001b615c08565b6156a47ffabcd62f889edcda13207c6f1f39009c1cd376d8518ed65f85c8ace6e81042f960001b615c08565b6156d07ffb8d2858fef38ce560c1e61d5c7189ac38352c4219689694a69d7c7357c683bf60001b615c08565b60006156da613a59565b90506157087f6720a069b4a02f2d42febefd39c98be309d0103fbd1b1d1c46dde1ad38323a2260001b615c08565b6157347fc3d761c3bfe5c70d457dba115142bae0ba4fcb338414060f33ed83b10986471c60001b615c08565b60005b60058110156158305761576c7f9d5c01947d68e923d2febcd96a0660f72fa983eed508333a06db893edd83052760001b615c08565b6157987fb2a69a8c02d257f36a38b21cdd3f4ac0a115e50077ae69a2e22e22693c16b89260001b615c08565b81600001600f016000828152602001908152602001600020548382600581106157c4576157c3616a16565b5b6020020181815250506157f97f0c11385eb7f20730b2fcc03bbf1c3aae6b16a8463dd8546bbe148b6eaa56563f60001b615c08565b6158257fc778e9f52b7a13a384fecd2e48d5d2ea19177274600b527ea59832ce2e2b288160001b615c08565b806001019050615737565b505090565b6158617f552c2e5e2f818f4f1f2f59872ef892769042288e7892db99ccfe8e93fc99e31360001b615a29565b61588d7f6cb3e2480465844dc55331dbd4db7e58a7d11959c24ed5e8804dcc66d121000260001b615a29565b6158b97fff2302e8784d2d7c59c63ca59b80e584fa6a485adf81b89e179c9355d1996cf560001b615a29565b60006158c3613a59565b90506158f17f9b2af91f2ca724f82daae9dded38f658631b231adf688bbff230486bec128bf660001b615a29565b61591d7fe5d8ba73a5d4f2fc082d275c448f0321ab3fddd92427461e57303209db67e42160001b615a29565b6159497f8c52e6dd5f21d70ce7cc3133ab674cdcad60f398069c7107a84b9d6640928a5d60001b615a29565b4281600001602d015410615992576040517f08c379a000000000000000000000000000000000000000000000000000000000815260040161598990616ca9565b60405180910390fd5b6159be7fd8ed09c8ab85a71556fc92b0bf5a2357462e7438f5913b1da9dc3b557fae15ea60001b615a29565b6159ea7fbdcf00f512222855eda9d9c7b9537badbaae57e1c04f026a0369ec2d04b6939b60001b615a29565b615a167f9b2722ff260bc5febd8661eabda8faae053d4df77f722a4c58ceecc78f31159960001b615a29565b8181600001602c01819055505050565b50565b50565b50565b6000615a5d7f37624c78b12de03a5f297d9c950f3c6fc4b70342068ec5e4685d0b6d5384bc8960001b615a2c565b615a897f6224ad2357ddfdde3d06e7d433de8597a0c802b5961d43d3d5667abb8dcefc1360001b615a2c565b615ab57f4ba10ed08791a423d97bea0744f82f3448aa933f5dc1d334f2aa7799e156fba360001b615a2c565b60007fc8fcad8db84d3cc18b4c41d551ea0ee66dd599cde068d998e57d5e09332c131c9050615b067f3459e835b9cbe60eac3148958d95eace06d7b6690e6dc02cb6b8a1ff93a77d7660001b615a2c565b8091505090565b50565b6000615b3e7facdc5484979de877ebf0af6c9544423463a8dad346fa4922ba68687f1c56a4a560001b615b0d565b615b6a7f7c13ea7cbb32f5fb835ed0a750cbfa562320cc85b222805634dd7d8e496b6ba760001b615b0d565b615b967f924cc8a7920bc2525851a942d0e0efe4936f7f153139a6edafe7e1213b5d139f60001b615b0d565b6000615ba0613a59565b9050615bce7f8cdea308b606ca964b8c36985a4c5271c4a0105aedc54abb9ac72fadcaf2139160001b615b0d565b615bfa7f10049cc00f88cc9c84593075295b8365ace3d5b5e74d1bc27cc7f32b53f54bc760001b615b0d565b806000016024015491505090565b50565b6000615c397fd249cbeabbe4385464793e60853d09bb165cd9e18021ce415e2161104333190e60001b615b0d565b615c657fd52601cc2cb3cf20277cd9965b2f6e03dd8507cb343278593d18014bc67c7fc560001b615b0d565b615c917f7ee4b453d759e6dde8a4fa08bb21cf880eb3c769bfbd60ac7d1ae0fe674560c560001b615b0d565b6000615c9b613a59565b9050615cc97f875fa4aa8b319785e25eb06ebec82ae1dc94c1957a032ee358a9ebb7d448893a60001b615b0d565b615cf57ffebefabc22f8b718c48c6ab8f2a857d7dc6b5db388f2361df3cef561c816379960001b615b0d565b615d217fd359addff473ba8d99b52eae464c69348e00d802f469ea2d4604bc77eb7aa21c60001b615b0d565b600073ffffffffffffffffffffffffffffffffffffffff168473ffffffffffffffffffffffffffffffffffffffff161415615d91576040517f08c379a0000000000000000000000000000000000000000000000000000000008152600401615d8890616d3b565b60405180910390fd5b615dbd7f47609b618f842fa2420d7b52fc0b9d566de006bf97fb02ea86b2a662217d86a860001b615b0d565b615de97ff17c48cd73553b036e8c7f2f918711efc6f351655cbaa4b442b0ed37bd625c5f60001b615b0d565b615e157fc4c74da8a581ce5d22d19db1f77a98604cceb7037f1c1d0ff830a70c8ce1b89a60001b615b0d565b80600001600101600084815260200190815260200160002060008573ffffffffffffffffffffffffffffffffffffffff1673ffffffffffffffffffffffffffffffffffffffff1681526020019081526020016000205491505092915050565b6000615ea27f7b7afad07a47075f1281e0e0a0f39d352ef8d4b570386a463499c8573079431d60001b615a29565b615ece7fe8061d2bc31341c0b52bd88a7ae4b2a4110154106a62e74880c83a9e3680627560001b615a29565b615efa7f51b1af4c7d9d9b8d9caa12afc3aa8b63d6268aded5f0263ef24dbe3ce627b0d360001b615a29565b6000615f04613a59565b9050615f327fa91165fedbf392c558b87b2fb5d2ab3d55579f50a27030b3037691b06263272360001b615a29565b615f5e7f21c2b71c932a4cc73921163a959dd0a7a5a36eaf86f75646ac24f3980268bdc360001b615a29565b615f6f81600001602d015442615f75565b91505090565b6000615fa37f09cf066cf4477d51fd8f0ff4ed1b37bdf8b891e521ab608215d27edc787a06b860001b615a29565b615fcf7f810f3d1c6729b518477eb029da8cb407a29770bdd3640ab9a7e55bec930e777660001b615a29565b615ffb7fcefed25ed7e609929ecabdbdb19cbd365d7d3fbd094f9806f7253fccfc4a725360001b615a29565b81831115616009578161600b565b825b905092915050565b6040518060a00160405280600590602082028036833780820191505090505090565b6000604051905090565b600080fd5b600080fd5b600073ffffffffffffffffffffffffffffffffffffffff82169050919050565b600061607482616049565b9050919050565b61608481616069565b811461608f57600080fd5b50565b6000813590506160a18161607b565b92915050565b6000819050919050565b6160ba816160a7565b81146160c557600080fd5b50565b6000813590506160d7816160b1565b92915050565b600080604083850312156160f4576160f361603f565b5b600061610285828601616092565b9250506020616113858286016160c8565b9150509250929050565b60008115159050919050565b6161328161611d565b82525050565b616141816160a7565b82525050565b600060408201905061615c6000830185616129565b6161696020830184616138565b9392505050565b600060c0820190506161856000830189616138565b6161926020830188616138565b61619f6040830187616138565b6161ac6060830186616138565b6161b96080830185616138565b6161c660a0830184616138565b979650505050505050565b60006bffffffffffffffffffffffff82169050919050565b6161f2816161d1565b81146161fd57600080fd5b50565b60008135905061620f816161e9565b92915050565b6000806040838503121561622c5761622b61603f565b5b600061623a85828601616092565b925050602061624b85828601616200565b9150509250929050565b600060208201905061626a6000830184616129565b92915050565b600080fd5b6000601f19601f8301169050919050565b7f4e487b7100000000000000000000000000000000000000000000000000000000600052604160045260246000fd5b6162be82616275565b810181811067ffffffffffffffff821117156162dd576162dc616286565b5b80604052505050565b60006162f0616035565b90506162fc82826162b5565b919050565b600067ffffffffffffffff82111561631c5761631b616286565b5b602082029050602081019050919050565b600080fd5b600061634561634084616301565b6162e6565b905080838252602082019050602084028301858111156163685761636761632d565b5b835b81811015616391578061637d88826160c8565b84526020840193505060208101905061636a565b5050509392505050565b600082601f8301126163b0576163af616270565b5b81356163c0848260208601616332565b91505092915050565b6000602082840312156163df576163de61603f565b5b600082013567ffffffffffffffff8111156163fd576163fc616044565b5b6164098482850161639b565b91505092915050565b600080604083850312156164295761642861603f565b5b6000616437858286016160c8565b9250506020616448858286016160c8565b9150509250929050565b60006020820190506164676000830184616138565b92915050565b6000602082840312156164835761648261603f565b5b6000616491848285016160c8565b91505092915050565b600060059050919050565b600081905092915050565b6000819050919050565b6164c3816160a7565b82525050565b60006164d583836164ba565b60208301905092915050565b6000602082019050919050565b6164f78161649a565b61650181846164a5565b925061650c826164b0565b8060005b8381101561653d57815161652487826164c9565b965061652f836164e1565b925050600181019050616510565b505050505050565b600060a08201905061655a60008301846164ee565b92915050565b6000819050919050565b61657381616560565b82525050565b600060c08201905061658e6000830189616138565b61659b6020830188616138565b6165a86040830187616138565b6165b56060830186616138565b6165c2608083018561656a565b6165cf60a0830184616138565b979650505050505050565b60006040820190506165ef6000830185616138565b6165fc6020830184616138565b9392505050565b6000602082840312156166195761661861603f565b5b600061662784828501616092565b91505092915050565b600081519050919050565b600082825260208201905092915050565b6000819050602082019050919050565b6000602082019050919050565b600061667482616630565b61667e818561663b565b93506166898361664c565b8060005b838110156166ba5781516166a188826164c9565b97506166ac8361665c565b92505060018101905061668d565b5085935050505092915050565b600060208201905081810360008301526166e18184616669565b905092915050565b60006080820190506166fe6000830187616138565b61670b6020830186616129565b6167186040830185616138565b6167256060830184616138565b95945050505050565b61673781616069565b82525050565b616746816161d1565b82525050565b6000604082019050616761600083018561672e565b61676e602083018461673d565b9392505050565b600060608201905061678a6000830186616138565b6167976020830185616138565b6167a46040830184616138565b949350505050565b60006020820190506167c1600083018461672e565b92915050565b7f4e487b7100000000000000000000000000000000000000000000000000000000600052601160045260246000fd5b6000616801826160a7565b915061680c836160a7565b92508282101561681f5761681e6167c7565b5b828203905092915050565b600082825260208201905092915050565b7f455243323938313a20696e76616c696420726563656976657200000000000000600082015250565b600061687160198361682a565b915061687c8261683b565b602082019050919050565b600060208201905081810360008301526168a081616864565b9050919050565b7f455243323938313a20726f79616c7479206665652077696c6c2065786365656460008201527f2073616c65507269636500000000000000000000000000000000000000000000602082015250565b6000616903602a8361682a565b915061690e826168a7565b604082019050919050565b60006020820190508181036000830152616932816168f6565b9050919050565b600060208201905061694e600083018461673d565b92915050565b600061695f826160a7565b915061696a836160a7565b9250827fffffffffffffffffffffffffffffffffffffffffffffffffffffffffffffffff0382111561699f5761699e6167c7565b5b828201905092915050565b7f4e6f7420636f6d706c6573736976656c792031303025206f72206d6f72650000600082015250565b60006169e0601e8361682a565b91506169eb826169aa565b602082019050919050565b60006020820190508181036000830152616a0f816169d3565b9050919050565b7f4e487b7100000000000000000000000000000000000000000000000000000000600052603260045260246000fd5b6000819050919050565b6000819050919050565b6000616a74616a6f616a6a84616a45565b616a4f565b6161d1565b9050919050565b616a8481616a59565b82525050565b6000602082019050616a9f6000830184616a7b565b92915050565b7f4c69624469616d6f6e643a204d75737420626520636f6e7472616374206f776e60008201527f6572000000000000000000000000000000000000000000000000000000000000602082015250565b6000616b0160228361682a565b9150616b0c82616aa5565b604082019050919050565b60006020820190508181036000830152616b3081616af4565b9050919050565b7f52656465656d73206e6f742066696e6973686564000000000000000000000000600082015250565b6000616b6d60148361682a565b9150616b7882616b37565b602082019050919050565b60006020820190508181036000830152616b9c81616b60565b9050919050565b6000616bae826160a7565b9150616bb9836160a7565b9250817fffffffffffffffffffffffffffffffffffffffffffffffffffffffffffffffff0483118215151615616bf257616bf16167c7565b5b828202905092915050565b7f4e487b7100000000000000000000000000000000000000000000000000000000600052601260045260246000fd5b6000616c37826160a7565b9150616c42836160a7565b925082616c5257616c51616bfd565b5b828204905092915050565b7f726577617264206475726174696f6e206e6f742066696e697368656400000000600082015250565b6000616c93601c8361682a565b9150616c9e82616c5d565b602082019050919050565b60006020820190508181036000830152616cc281616c86565b9050919050565b7f455243313135353a2061646472657373207a65726f206973206e6f742061207660008201527f616c6964206f776e657200000000000000000000000000000000000000000000602082015250565b6000616d25602a8361682a565b9150616d3082616cc9565b604082019050919050565b60006020820190508181036000830152616d5481616d18565b905091905056fea2646970667358221220ca9b84651275cd0651750742ca56b9f363e7236b73e3743a7f0c5cda0135537164736f6c63430008080033",
  "linkReferences": {},
  "deployedLinkReferences": {}
}