{
  "_format": "hh-sol-artifact-1",
  "contractName": "AvalancheValidatorSettersAndGettersFacet",
  "sourceName": "contracts/validator/facets/AvalancheValidatorSettersAndGettersFacet.sol",
  "abi": [
    {
      "anonymous": false,
      "inputs": [
        {
          "indexed": true,
          "internalType": "uint256",
          "name": "timeInSecond",
          "type": "uint256"
        },
        {
          "indexed": false,
          "internalType": "uint256",
          "name": "time",
          "type": "uint256"
        }
      ],
      "name": "settedActivityPeriod",
      "type": "event"
    },
    {
      "anonymous": false,
      "inputs": [
        {
          "indexed": false,
          "internalType": "uint256",
          "name": "coolingPeriodInSecond",
          "type": "uint256"
        },
        {
          "indexed": false,
          "internalType": "uint256",
          "name": "coolingPeriodStartInSecond",
          "type": "uint256"
        }
      ],
      "name": "settedCoolingPeriod",
      "type": "event"
    },
    {
      "anonymous": false,
      "inputs": [
        {
          "indexed": true,
          "internalType": "address",
          "name": "receiver",
          "type": "address"
        },
        {
          "indexed": false,
          "internalType": "uint96",
          "name": "feeNumerator",
          "type": "uint96"
        }
      ],
      "name": "settedDefaultRoyalty",
      "type": "event"
    },
    {
      "anonymous": false,
      "inputs": [
        {
          "indexed": false,
          "internalType": "address",
          "name": "_receiver",
          "type": "address"
        },
        {
          "indexed": true,
          "internalType": "uint256",
          "name": "time",
          "type": "uint256"
        }
      ],
      "name": "settedNextValidatorIsCompleted",
      "type": "event"
    },
    {
      "anonymous": false,
      "inputs": [
        {
          "indexed": true,
          "internalType": "uint256",
          "name": "_newRefundsPercentageInBPS",
          "type": "uint256"
        },
        {
          "indexed": true,
          "internalType": "uint256",
          "name": "_newRefundsManagerPercentageInBPS",
          "type": "uint256"
        },
        {
          "indexed": false,
          "internalType": "uint256",
          "name": "time",
          "type": "uint256"
        }
      ],
      "name": "settedRefundsAndRefundsManagerPercentage",
      "type": "event"
    },
    {
      "anonymous": false,
      "inputs": [
        {
          "indexed": true,
          "internalType": "uint256",
          "name": "costInWei",
          "type": "uint256"
        },
        {
          "indexed": false,
          "internalType": "uint256",
          "name": "time",
          "type": "uint256"
        }
      ],
      "name": "settedShareCost",
      "type": "event"
    },
    {
      "inputs": [
        {
          "internalType": "uint256[]",
          "name": "_ids",
          "type": "uint256[]"
        }
      ],
      "name": "cleanRedeemedMappingExternal",
      "outputs": [
        {
          "internalType": "bool",
          "name": "",
          "type": "bool"
        }
      ],
      "stateMutability": "nonpayable",
      "type": "function"
    },
    {
      "inputs": [],
      "name": "getActivityPeriod",
      "outputs": [
        {
          "internalType": "uint256",
          "name": "",
          "type": "uint256"
        }
      ],
      "stateMutability": "view",
      "type": "function"
    },
    {
      "inputs": [
        {
          "internalType": "address",
          "name": "_owner",
          "type": "address"
        }
      ],
      "name": "getAllOwnerRewards",
      "outputs": [
        {
          "internalType": "uint256[5]",
          "name": "",
          "type": "uint256[5]"
        }
      ],
      "stateMutability": "view",
      "type": "function"
    },
    {
      "inputs": [],
      "name": "getAvaxToStake",
      "outputs": [
        {
          "internalType": "uint256",
          "name": "",
          "type": "uint256"
        }
      ],
      "stateMutability": "view",
      "type": "function"
    },
    {
      "inputs": [],
      "name": "getCoolingPeriodAndCoolingPeriodStart",
      "outputs": [
        {
          "internalType": "uint256",
          "name": "",
          "type": "uint256"
        },
        {
          "internalType": "uint256",
          "name": "",
          "type": "uint256"
        }
      ],
      "stateMutability": "view",
      "type": "function"
    },
    {
      "inputs": [],
      "name": "getCurrentActiveSupplies",
      "outputs": [
        {
          "internalType": "uint256[5]",
          "name": "AV_ACTIVE_SUPPLIES",
          "type": "uint256[5]"
        }
      ],
      "stateMutability": "view",
      "type": "function"
    },
    {
      "inputs": [
        {
          "internalType": "uint256",
          "name": "_id",
          "type": "uint256"
        }
      ],
      "name": "getCurrentCoolingSupply",
      "outputs": [
        {
          "internalType": "uint256",
          "name": "",
          "type": "uint256"
        }
      ],
      "stateMutability": "view",
      "type": "function"
    },
    {
      "inputs": [],
      "name": "getCurrentSupplies",
      "outputs": [
        {
          "internalType": "uint256[5]",
          "name": "AV_CURRENT_SUPPLIES",
          "type": "uint256[5]"
        }
      ],
      "stateMutability": "view",
      "type": "function"
    },
    {
      "inputs": [],
      "name": "getFeesAndPercentageProportion",
      "outputs": [
        {
          "internalType": "uint256",
          "name": "",
          "type": "uint256"
        },
        {
          "internalType": "uint256",
          "name": "",
          "type": "uint256"
        },
        {
          "internalType": "uint256",
          "name": "",
          "type": "uint256"
        }
      ],
      "stateMutability": "view",
      "type": "function"
    },
    {
      "inputs": [
        {
          "internalType": "address",
          "name": "_redeemer",
          "type": "address"
        },
        {
          "internalType": "uint256",
          "name": "_id",
          "type": "uint256"
        }
      ],
      "name": "getHasRedeemed",
      "outputs": [
        {
          "internalType": "bool",
          "name": "",
          "type": "bool"
        }
      ],
      "stateMutability": "view",
      "type": "function"
    },
    {
      "inputs": [],
      "name": "getIdRewardsAndQDFee",
      "outputs": [
        {
          "internalType": "uint256",
          "name": "",
          "type": "uint256"
        },
        {
          "internalType": "uint256",
          "name": "",
          "type": "uint256"
        },
        {
          "internalType": "uint256",
          "name": "",
          "type": "uint256"
        },
        {
          "internalType": "uint256",
          "name": "",
          "type": "uint256"
        },
        {
          "internalType": "uint256",
          "name": "",
          "type": "uint256"
        },
        {
          "internalType": "uint256",
          "name": "",
          "type": "uint256"
        }
      ],
      "stateMutability": "view",
      "type": "function"
    },
    {
      "inputs": [],
      "name": "getIncentivesStats",
      "outputs": [
        {
          "internalType": "uint256",
          "name": "",
          "type": "uint256"
        },
        {
          "internalType": "bool",
          "name": "",
          "type": "bool"
        },
        {
          "internalType": "uint256",
          "name": "",
          "type": "uint256"
        },
        {
          "internalType": "uint256",
          "name": "",
          "type": "uint256"
        }
      ],
      "stateMutability": "view",
      "type": "function"
    },
    {
      "inputs": [],
      "name": "getIsNextValidatorCompleted",
      "outputs": [
        {
          "internalType": "bool",
          "name": "",
          "type": "bool"
        }
      ],
      "stateMutability": "view",
      "type": "function"
    },
    {
      "inputs": [
        {
          "internalType": "address",
          "name": "_owner",
          "type": "address"
        },
        {
          "internalType": "uint256",
          "name": "_id",
          "type": "uint256"
        }
      ],
      "name": "getIsUnderCoolingPeriod",
      "outputs": [
        {
          "internalType": "bool",
          "name": "",
          "type": "bool"
        },
        {
          "internalType": "uint256",
          "name": "",
          "type": "uint256"
        }
      ],
      "stateMutability": "view",
      "type": "function"
    },
    {
      "inputs": [
        {
          "internalType": "address",
          "name": "_owner",
          "type": "address"
        },
        {
          "internalType": "uint256",
          "name": "_id",
          "type": "uint256"
        }
      ],
      "name": "getOwnerHealth",
      "outputs": [
        {
          "internalType": "uint256",
          "name": "",
          "type": "uint256"
        }
      ],
      "stateMutability": "view",
      "type": "function"
    },
    {
      "inputs": [
        {
          "internalType": "address",
          "name": "owner",
          "type": "address"
        },
        {
          "internalType": "uint256",
          "name": "id",
          "type": "uint256"
        }
      ],
      "name": "getOwnerRewards",
      "outputs": [
        {
          "internalType": "uint256",
          "name": "",
          "type": "uint256"
        }
      ],
      "stateMutability": "view",
      "type": "function"
    },
    {
      "inputs": [
        {
          "internalType": "address",
          "name": "owner",
          "type": "address"
        }
      ],
      "name": "getReferredAddress",
      "outputs": [
        {
          "internalType": "address",
          "name": "",
          "type": "address"
        }
      ],
      "stateMutability": "view",
      "type": "function"
    },
    {
      "inputs": [],
      "name": "getRefundsStats",
      "outputs": [
        {
          "internalType": "uint256",
          "name": "",
          "type": "uint256"
        },
        {
          "internalType": "uint256",
          "name": "",
          "type": "uint256"
        },
        {
          "internalType": "uint256",
          "name": "",
          "type": "uint256"
        },
        {
          "internalType": "uint256",
          "name": "",
          "type": "uint256"
        },
        {
          "internalType": "bytes32",
          "name": "",
          "type": "bytes32"
        },
        {
          "internalType": "uint256",
          "name": "",
          "type": "uint256"
        }
      ],
      "stateMutability": "view",
      "type": "function"
    },
    {
      "inputs": [],
      "name": "getRewardPerTokeID",
      "outputs": [
        {
          "internalType": "uint256[5]",
          "name": "",
          "type": "uint256[5]"
        }
      ],
      "stateMutability": "view",
      "type": "function"
    },
    {
      "inputs": [
        {
          "internalType": "uint256",
          "name": "_tokenId",
          "type": "uint256"
        }
      ],
      "name": "getRoyaltyInfo",
      "outputs": [
        {
          "internalType": "address",
          "name": "",
          "type": "address"
        },
        {
          "internalType": "uint96",
          "name": "",
          "type": "uint96"
        }
      ],
      "stateMutability": "view",
      "type": "function"
    },
    {
      "inputs": [],
      "name": "getShareCost",
      "outputs": [
        {
          "internalType": "uint256",
          "name": "",
          "type": "uint256"
        }
      ],
      "stateMutability": "view",
      "type": "function"
    },
    {
      "inputs": [],
      "name": "getTime",
      "outputs": [
        {
          "internalType": "uint256",
          "name": "",
          "type": "uint256"
        }
      ],
      "stateMutability": "view",
      "type": "function"
    },
    {
      "inputs": [],
      "name": "getTotalCurrentSupplyPondered",
      "outputs": [
        {
          "internalType": "uint256",
          "name": "AV_ACTIVE_PONDERED_SUPPLIES",
          "type": "uint256"
        }
      ],
      "stateMutability": "view",
      "type": "function"
    },
    {
      "inputs": [
        {
          "internalType": "uint256",
          "name": "_timeInSecond",
          "type": "uint256"
        }
      ],
      "name": "setActivityPeriodManual",
      "outputs": [
        {
          "internalType": "bool",
          "name": "",
          "type": "bool"
        }
      ],
      "stateMutability": "nonpayable",
      "type": "function"
    },
    {
      "inputs": [
        {
          "internalType": "uint256",
          "name": "_coolingPeriodInSecond",
          "type": "uint256"
        }
      ],
      "name": "setCoolingPeriodManual",
      "outputs": [
        {
          "internalType": "bool",
          "name": "",
          "type": "bool"
        }
      ],
      "stateMutability": "nonpayable",
      "type": "function"
    },
    {
      "inputs": [
        {
          "internalType": "address",
          "name": "_receiver",
          "type": "address"
        },
        {
          "internalType": "uint96",
          "name": "feeNumeratorInBPS",
          "type": "uint96"
        }
      ],
      "name": "setDefaultRoyaltyManual",
      "outputs": [
        {
          "internalType": "bool",
          "name": "",
          "type": "bool"
        }
      ],
      "stateMutability": "nonpayable",
      "type": "function"
    },
    {
      "inputs": [
        {
          "internalType": "address",
          "name": "_receiver",
          "type": "address"
        }
      ],
      "name": "setNextValidatorCompletedManual",
      "outputs": [
        {
          "internalType": "bool",
          "name": "",
          "type": "bool"
        }
      ],
      "stateMutability": "nonpayable",
      "type": "function"
    },
    {
      "inputs": [
        {
          "internalType": "uint256",
          "name": "_newRefundsPercentageInBPS",
          "type": "uint256"
        },
        {
          "internalType": "uint256",
          "name": "_newManagerRefundsPercentageInBPS",
          "type": "uint256"
        }
      ],
      "name": "setRefundsAndRefundsManagerPercentageManual",
      "outputs": [
        {
          "internalType": "bool",
          "name": "",
          "type": "bool"
        }
      ],
      "stateMutability": "nonpayable",
      "type": "function"
    },
    {
      "inputs": [
        {
          "internalType": "uint256",
          "name": "_durationInSecond",
          "type": "uint256"
        }
      ],
      "name": "setRewardsDurationManual",
      "outputs": [
        {
          "internalType": "bool",
          "name": "",
          "type": "bool"
        }
      ],
      "stateMutability": "nonpayable",
      "type": "function"
    },
    {
      "inputs": [
        {
          "internalType": "uint256",
          "name": "_costInWei",
          "type": "uint256"
        }
      ],
      "name": "setShareCostManual",
      "outputs": [
        {
          "internalType": "bool",
          "name": "",
          "type": "bool"
        }
      ],
      "stateMutability": "nonpayable",
      "type": "function"
    }
  ],
  "bytecode": "0x608060405234801561001057600080fd5b50611fc5806100206000396000f3fe608060405234801561001057600080fd5b50600436106101da5760003560e01c80639b727e8311610104578063d168601f116100a2578063f115b9e511610071578063f115b9e5146108a7578063f81baaf9146108ba578063fb0bf278146108e1578063fc2aaa58146108e957600080fd5b8063d168601f14610740578063db2358a9146107c1578063dbcf3e77146107c9578063e0c1d6ec1461084657600080fd5b8063b76c632b116100de578063b76c632b146106c6578063c301c74f14610712578063c443544514610725578063c52389b41461073857600080fd5b80639b727e83146105dd578063b44013ce14610689578063b749cf76146106b357600080fd5b8063557ed1ba1161017c578063883526401161014b57806388352640146104e95780638b679c78146105425780638ccb2d5a146105a35780638f77e47f146105b657600080fd5b8063557ed1ba146103ea578063570329d1146103f057806363f29842146104035780637d8027691461041857600080fd5b80633b6b9ba1116101b85780633b6b9ba1146103545780633e427c08146103675780634175b5bf1461037a5780635494a02f146103ab57600080fd5b806308f33f73146101df578063128df49d1461020e5780632581080b14610331575b600080fd5b6101f26101ed366004611c86565b61094d565b6040805192151583526020830191909152015b60405180910390f35b7f66bd28df09c9271bd5696185e1f2db071a0ed825a4f7df621c22ef195c811ec96020527f22187fc8358e9018a515ee95283f3efd848822dd7b63131ae4834cab3d27315b547fccecd82af55b59c2edb326dec234a0fcffe2edaa89a2ae307199f76095a8dd63547ffa77884a7df8b91b494833ef4dad4e1fbbb0cb94e47d5f8329d962e2ee38905f547f9dc912c7aac6640a401bb128d53070603d9cb07ae77075cd94a8b3d7594242715460046000527f9eba403e2d9ebf2fb5fe2c117f8aa2fcc9e4b47c28e53dbe84a4cfefe0131dd6547f66bd28df09c9271bd5696185e1f2db071a0ed825a4f7df621c22ef195c811eca545b604080519687526020870195909552938501929092526060840152608083015260a082015260c001610205565b61034461033f366004611cb0565b6109d2565b6040519015158152602001610205565b610344610362366004611d27565b610b90565b610344610375366004611e03565b610b9b565b7f66bd28df09c9271bd5696185e1f2db071a0ed825a4f7df621c22ef195c811eb0545b604051908152602001610205565b61039d6103b9366004611e25565b60009081527f66bd28df09c9271bd5696185e1f2db071a0ed825a4f7df621c22ef195c811eaf602052604090205490565b4261039d565b6103446103fe366004611e25565b610ca9565b61040b610d38565b6040516102059190611e3e565b7f66bd28df09c9271bd5696185e1f2db071a0ed825a4f7df621c22ef195c811ed3547f66bd28df09c9271bd5696185e1f2db071a0ed825a4f7df621c22ef195c811ed4547f66bd28df09c9271bd5696185e1f2db071a0ed825a4f7df621c22ef195c811ed5547f66bd28df09c9271bd5696185e1f2db071a0ed825a4f7df621c22ef195c811ed6547f66bd28df09c9271bd5696185e1f2db071a0ed825a4f7df621c22ef195c811ed7547f66bd28df09c9271bd5696185e1f2db071a0ed825a4f7df621c22ef195c811ed854610304565b7f66bd28df09c9271bd5696185e1f2db071a0ed825a4f7df621c22ef195c811eb1547f66bd28df09c9271bd5696185e1f2db071a0ed825a4f7df621c22ef195c811eb25460408051928352602083019190915201610205565b61039d610550366004611c86565b60009081527f66bd28df09c9271bd5696185e1f2db071a0ed825a4f7df621c22ef195c811eda6020908152604080832073ffffffffffffffffffffffffffffffffffffffff949094168352929052205490565b61040b6105b1366004611e6f565b610d4d565b7f66bd28df09c9271bd5696185e1f2db071a0ed825a4f7df621c22ef195c811eb45461039d565b7f66bd28df09c9271bd5696185e1f2db071a0ed825a4f7df621c22ef195c811ec6547f66bd28df09c9271bd5696185e1f2db071a0ed825a4f7df621c22ef195c811ec5547f66bd28df09c9271bd5696185e1f2db071a0ed825a4f7df621c22ef195c811ec7547f66bd28df09c9271bd5696185e1f2db071a0ed825a4f7df621c22ef195c811ec8546040805194855260ff90931615156020850152918301526060820152608001610205565b7f66bd28df09c9271bd5696185e1f2db071a0ed825a4f7df621c22ef195c811e9f5460ff16610344565b6103446106c1366004611e6f565b610d5e565b6106d96106d4366004611e25565b610f63565b6040805173ffffffffffffffffffffffffffffffffffffffff90931683526bffffffffffffffffffffffff909116602083015201610205565b610344610720366004611e25565b611075565b610344610733366004611e25565b61112d565b61039d6111af565b7f66bd28df09c9271bd5696185e1f2db071a0ed825a4f7df621c22ef195c811ec1547f66bd28df09c9271bd5696185e1f2db071a0ed825a4f7df621c22ef195c811ec2547f66bd28df09c9271bd5696185e1f2db071a0ed825a4f7df621c22ef195c811ec35460408051938452602084019290925290820152606001610205565b61040b6111b9565b6108216107d7366004611e6f565b73ffffffffffffffffffffffffffffffffffffffff90811660009081527f66bd28df09c9271bd5696185e1f2db071a0ed825a4f7df621c22ef195c811edc60205260409020541690565b60405173ffffffffffffffffffffffffffffffffffffffff9091168152602001610205565b61039d610854366004611c86565b60009081527f66bd28df09c9271bd5696185e1f2db071a0ed825a4f7df621c22ef195c811ed16020908152604080832073ffffffffffffffffffffffffffffffffffffffff949094168352929052205490565b6103446108b5366004611e25565b6111c9565b7f66bd28df09c9271bd5696185e1f2db071a0ed825a4f7df621c22ef195c811ec45461039d565b61040b6111e4565b6103446108f7366004611c86565b60009081527f66bd28df09c9271bd5696185e1f2db071a0ed825a4f7df621c22ef195c811ed96020908152604080832073ffffffffffffffffffffffffffffffffffffffff949094168352929052205460ff1690565b6000807f66bd28df09c9271bd5696185e1f2db071a0ed825a4f7df621c22ef195c811e9f8161097c86866111f4565b9050600081156109c6576000868152603b84016020908152604080832073ffffffffffffffffffffffffffffffffffffffff8b1684529091529020546109c3904290611eb9565b90505b90969095509350505050565b60006109dc611280565b7f66bd28df09c9271bd5696185e1f2db071a0ed825a4f7df621c22ef195c811e9f73ffffffffffffffffffffffffffffffffffffffff8416610a7f576040517f08c379a000000000000000000000000000000000000000000000000000000000815260206004820152601960248201527f455243323938313a20696e76616c69642072656365697665720000000000000060448201526064015b60405180910390fd5b60248101546bffffffffffffffffffffffff84161115610b21576040517f08c379a000000000000000000000000000000000000000000000000000000000815260206004820152602a60248201527f455243323938313a20726f79616c7479206665652077696c6c2065786365656460448201527f2073616c655072696365000000000000000000000000000000000000000000006064820152608401610a76565b610b2b848461134b565b6040516bffffffffffffffffffffffff8416815273ffffffffffffffffffffffffffffffffffffffff8516907fc10e00c73ad5dafdfc2e87d997fb9ee3ee22e775655791c7a7969c26809411fc9060200160405180910390a260019150505b92915050565b6000610b8a826114f9565b6000610ba5611280565b7f66bd28df09c9271bd5696185e1f2db071a0ed825a4f7df621c22ef195c811ec3547f66bd28df09c9271bd5696185e1f2db071a0ed825a4f7df621c22ef195c811e9f90610bf38486611ed0565b14610c5a576040517f08c379a000000000000000000000000000000000000000000000000000000000815260206004820152601e60248201527f4e6f7420636f6d706c6573736976656c792031303025206f72206d6f726500006044820152606401610a76565b6035810184905560368101839055604051428152839085907fb0ee204ceffd796f5937db9f918fa7a6294cfd0855067aeae9703d992bd1cc069060200160405180910390a35060019392505050565b6000610cb3611280565b7f66bd28df09c9271bd5696185e1f2db071a0ed825a4f7df621c22ef195c811eb48290556040514281527f66bd28df09c9271bd5696185e1f2db071a0ed825a4f7df621c22ef195c811e9f9083907fe55ab7179555660372d28e7c1a19429a1ffe3d2ae796b1c36b95f62f3bc40d2e906020015b60405180910390a250600192915050565b610d40611c3f565b610d48611630565b905090565b610d55611c3f565b610b8a826116b2565b6000610d68611280565b7f66bd28df09c9271bd5696185e1f2db071a0ed825a4f7df621c22ef195c811e9f80547fffffffffffffffffffffffffffffffffffffffffffffffffffffffffffffff0016600117815573ffffffffffffffffffffffffffffffffffffffff8316610e2f576040517f08c379a000000000000000000000000000000000000000000000000000000000815260206004820152601960248201527f455243323938313a20696e76616c6964207265636569766572000000000000006044820152606401610a76565b602481015460641115610ec4576040517f08c379a000000000000000000000000000000000000000000000000000000000815260206004820152602a60248201527f455243323938313a20726f79616c7479206665652077696c6c2065786365656460448201527f2073616c655072696365000000000000000000000000000000000000000000006064820152608401610a76565b610ecf83606461134b565b6040516064815273ffffffffffffffffffffffffffffffffffffffff8416907fc10e00c73ad5dafdfc2e87d997fb9ee3ee22e775655791c7a7969c26809411fc9060200160405180910390a260405173ffffffffffffffffffffffffffffffffffffffff8416815242907fd936045e72b1a7950ee5b5fca2996de29c3b095c4e5700e29be396991ba9e11690602001610d27565b60008181527f66bd28df09c9271bd5696185e1f2db071a0ed825a4f7df621c22ef195c811ea76020908152604080832081518083019092525473ffffffffffffffffffffffffffffffffffffffff8116808352740100000000000000000000000000000000000000009091046bffffffffffffffffffffffff169282019290925282917f66bd28df09c9271bd5696185e1f2db071a0ed825a4f7df621c22ef195c811e9f9190611062575060408051808201909152600782015473ffffffffffffffffffffffffffffffffffffffff811682527401000000000000000000000000000000000000000090046bffffffffffffffffffffffff1660208201525b8051602090910151909590945092505050565b600061107f611280565b7f66bd28df09c9271bd5696185e1f2db071a0ed825a4f7df621c22ef195c811eb1829055427f66bd28df09c9271bd5696185e1f2db071a0ed825a4f7df621c22ef195c811eb28190556040805184815260208101929092527f66bd28df09c9271bd5696185e1f2db071a0ed825a4f7df621c22ef195c811e9f917f100e26aa9fb47eb030d3493fbbb073fc4a7342c3b364a5ffd3574065590efee5910160405180910390a150600192915050565b6000611137611280565b7f66bd28df09c9271bd5696185e1f2db071a0ed825a4f7df621c22ef195c811eb08290556040514281527f66bd28df09c9271bd5696185e1f2db071a0ed825a4f7df621c22ef195c811e9f9083907f7818ab41a4086cdde76d71c6ae504b306bddc48226f17a8bdaa13e3b90d1926290602001610d27565b6000610d486117f0565b6111c1611c3f565b610d4861187b565b60006111d3611280565b6111dc826118e0565b506001919050565b6111ec611c3f565b610d48611992565b60008181527f66bd28df09c9271bd5696185e1f2db071a0ed825a4f7df621c22ef195c811eda6020908152604080832073ffffffffffffffffffffffffffffffffffffffff861684529091528120547f66bd28df09c9271bd5696185e1f2db071a0ed825a4f7df621c22ef195c811e9f90421015611276576001915050610b8a565b6000915050610b8a565b7fc8fcad8db84d3cc18b4c41d551ea0ee66dd599cde068d998e57d5e09332c131c6004015473ffffffffffffffffffffffffffffffffffffffff163314611349576040517f08c379a000000000000000000000000000000000000000000000000000000000815260206004820152602260248201527f4c69624469616d6f6e643a204d75737420626520636f6e7472616374206f776e60448201527f65720000000000000000000000000000000000000000000000000000000000006064820152608401610a76565b565b7f66bd28df09c9271bd5696185e1f2db071a0ed825a4f7df621c22ef195c811e9f6113947f66bd28df09c9271bd5696185e1f2db071a0ed825a4f7df621c22ef195c811ec35490565b826bffffffffffffffffffffffff161115611431576040517f08c379a000000000000000000000000000000000000000000000000000000000815260206004820152602a60248201527f455243323938313a20726f79616c7479206665652077696c6c2065786365656460448201527f2073616c655072696365000000000000000000000000000000000000000000006064820152608401610a76565b73ffffffffffffffffffffffffffffffffffffffff83166114ae576040517f08c379a000000000000000000000000000000000000000000000000000000000815260206004820152601960248201527f455243323938313a20696e76616c6964207265636569766572000000000000006044820152606401610a76565b6bffffffffffffffffffffffff909116740100000000000000000000000000000000000000000273ffffffffffffffffffffffffffffffffffffffff90921691909117600790910155565b7f66bd28df09c9271bd5696185e1f2db071a0ed825a4f7df621c22ef195c811ed2546000907f66bd28df09c9271bd5696185e1f2db071a0ed825a4f7df621c22ef195c811e9f9060ff16156115aa576040517f08c379a000000000000000000000000000000000000000000000000000000000815260206004820152601460248201527f52656465656d73206e6f742066696e69736865640000000000000000000000006044820152606401610a76565b60005b83518110156116265781600001603a0160008583815181106115d1576115d1611ee8565b60209081029190910181015182528181019290925260409081016000908120338252909252902080547fffffffffffffffffffffffffffffffffffffffffffffffffffffffffffffff001690556001016115ad565b5060019392505050565b611638611c3f565b7f66bd28df09c9271bd5696185e1f2db071a0ed825a4f7df621c22ef195c811e9f60005b60058110156116ad576000818152601083016020908152604080832054600f86019092529091205461168e9190611eb9565b8382600581106116a0576116a0611ee8565b602002015260010161165c565b505090565b6116ba611c3f565b7f66bd28df09c9271bd5696185e1f2db071a0ed825a4f7df621c22ef195c811e9f60006116e5611992565b905060005b60058110156117e85773ffffffffffffffffffffffffffffffffffffffff851661172c57600084826005811061172257611722611ee8565b60200201526117e0565b6000818152603284016020908152604080832073ffffffffffffffffffffffffffffffffffffffff891680855290835281842054858552603188018452828520918552925290912054670de0b6b3a76400009084846005811061179157611791611ee8565b60200201516117a09190611eb9565b6117aa8885611adf565b6117b49190611f17565b6117be9190611f54565b6117c89190611ed0565b8482600581106117da576117da611ee8565b60200201525b6001016116ea565b505050919050565b6000806117fb61187b565b608081015190915061180f90612710611f17565b6060820151611820906103e8611f17565b6040830151611830906064611f17565b602084015161184090600a611f17565b845161184d906001611f17565b6118579190611ed0565b6118619190611ed0565b61186b9190611ed0565b6118759190611ed0565b91505090565b611883611c3f565b7f66bd28df09c9271bd5696185e1f2db071a0ed825a4f7df621c22ef195c811e9f60005b60058110156116ad576000818152600f830160205260409020548382600581106118d3576118d3611ee8565b60200201526001016118a7565b7f66bd28df09c9271bd5696185e1f2db071a0ed825a4f7df621c22ef195c811ecc547f66bd28df09c9271bd5696185e1f2db071a0ed825a4f7df621c22ef195c811e9f90421161198c576040517f08c379a000000000000000000000000000000000000000000000000000000000815260206004820152601c60248201527f726577617264206475726174696f6e206e6f742066696e6973686564000000006044820152606401610a76565b602c0155565b61199a611c3f565b7f66bd28df09c9271bd5696185e1f2db071a0ed825a4f7df621c22ef195c811e9f60005b60058110156116ad576000818152601083016020908152604080832054600f8601909252909120546119f09190611eb9565b611a21576000818152603083016020526040902054838260058110611a1757611a17611ee8565b6020020152611ad7565b6000818152601083016020908152604080832054600f860190925290912054611a4a9190611eb9565b6000828152602e84016020526040902054611a63611bdb565b611a6d9190611eb9565b6000838152602f85016020526040902054611a889190611f17565b611a9a90670de0b6b3a7640000611f17565b611aa49190611f54565b6000828152603084016020526040902054611abf9190611ed0565b838260058110611ad157611ad1611ee8565b60200201525b6001016119be565b60007f66bd28df09c9271bd5696185e1f2db071a0ed825a4f7df621c22ef195c811e9f73ffffffffffffffffffffffffffffffffffffffff8416611ba5576040517f08c379a000000000000000000000000000000000000000000000000000000000815260206004820152602a60248201527f455243313135353a2061646472657373207a65726f206973206e6f742061207660448201527f616c6964206f776e6572000000000000000000000000000000000000000000006064820152608401610a76565b60009283526001016020908152604080842073ffffffffffffffffffffffffffffffffffffffff95909516845293905250205490565b7f66bd28df09c9271bd5696185e1f2db071a0ed825a4f7df621c22ef195c811ecc546000907f66bd28df09c9271bd5696185e1f2db071a0ed825a4f7df621c22ef195c811e9f9061187590428481831115611c365781611c38565b825b9392505050565b6040518060a001604052806005906020820280368337509192915050565b803573ffffffffffffffffffffffffffffffffffffffff81168114611c8157600080fd5b919050565b60008060408385031215611c9957600080fd5b611ca283611c5d565b946020939093013593505050565b60008060408385031215611cc357600080fd5b611ccc83611c5d565b915060208301356bffffffffffffffffffffffff81168114611ced57600080fd5b809150509250929050565b7f4e487b7100000000000000000000000000000000000000000000000000000000600052604160045260246000fd5b60006020808385031215611d3a57600080fd5b823567ffffffffffffffff80821115611d5257600080fd5b818501915085601f830112611d6657600080fd5b813581811115611d7857611d78611cf8565b8060051b6040517fffffffffffffffffffffffffffffffffffffffffffffffffffffffffffffffe0603f83011681018181108582111715611dbb57611dbb611cf8565b604052918252848201925083810185019188831115611dd957600080fd5b938501935b82851015611df757843584529385019392850192611dde565b98975050505050505050565b60008060408385031215611e1657600080fd5b50508035926020909101359150565b600060208284031215611e3757600080fd5b5035919050565b60a08101818360005b6005811015611e66578151835260209283019290910190600101611e47565b50505092915050565b600060208284031215611e8157600080fd5b611c3882611c5d565b7f4e487b7100000000000000000000000000000000000000000000000000000000600052601160045260246000fd5b600082821015611ecb57611ecb611e8a565b500390565b60008219821115611ee357611ee3611e8a565b500190565b7f4e487b7100000000000000000000000000000000000000000000000000000000600052603260045260246000fd5b6000817fffffffffffffffffffffffffffffffffffffffffffffffffffffffffffffffff0483118215151615611f4f57611f4f611e8a565b500290565b600082611f8a577f4e487b7100000000000000000000000000000000000000000000000000000000600052601260045260246000fd5b50049056fea2646970667358221220520801440b89e3d06c72f0d21bc84e1bf70f41239ab94aac15f09e79394c896264736f6c63430008080033",
  "linkReferences": {},
  "deployedLinkReferences": {}
}