{
  "_format": "hh-sol-artifact-1",
  "contractName": "FirstAvalancheValidatorDepositFacet",
  "sourceName": "contracts/validator/facets/FirstAvalancheValidatorDepositFacet.sol",
  "abi": [
    {
      "anonymous": false,
      "inputs": [
        {
          "indexed": true,
          "internalType": "address",
          "name": "costumer",
          "type": "address"
        },
        {
          "indexed": false,
          "internalType": "uint256",
          "name": "amount",
          "type": "uint256"
        },
        {
          "indexed": false,
          "internalType": "uint256",
          "name": "time",
          "type": "uint256"
        }
      ],
      "name": "avalancheValidatorShareSold",
      "type": "event"
    },
    {
      "anonymous": false,
      "inputs": [
        {
          "indexed": true,
          "internalType": "uint256",
          "name": "rebatePercentage",
          "type": "uint256"
        },
        {
          "indexed": true,
          "internalType": "uint256",
          "name": "_numberOfRebates",
          "type": "uint256"
        },
        {
          "indexed": false,
          "internalType": "address",
          "name": "sender",
          "type": "address"
        },
        {
          "indexed": false,
          "internalType": "uint256",
          "name": "time",
          "type": "uint256"
        }
      ],
      "name": "incentivesDeposited",
      "type": "event"
    },
    {
      "anonymous": false,
      "inputs": [
        {
          "indexed": true,
          "internalType": "uint256",
          "name": "value",
          "type": "uint256"
        },
        {
          "indexed": false,
          "internalType": "address",
          "name": "sender",
          "type": "address"
        },
        {
          "indexed": false,
          "internalType": "uint256",
          "name": "time",
          "type": "uint256"
        }
      ],
      "name": "liquidStakingFundsDeposited",
      "type": "event"
    },
    {
      "anonymous": false,
      "inputs": [
        {
          "indexed": true,
          "internalType": "uint256[5]",
          "name": "amount",
          "type": "uint256[5]"
        },
        {
          "indexed": false,
          "internalType": "uint256",
          "name": "value",
          "type": "uint256"
        },
        {
          "indexed": false,
          "internalType": "uint256",
          "name": "time",
          "type": "uint256"
        }
      ],
      "name": "refundsDeposited",
      "type": "event"
    },
    {
      "anonymous": false,
      "inputs": [
        {
          "indexed": true,
          "internalType": "address",
          "name": "burner",
          "type": "address"
        },
        {
          "indexed": false,
          "internalType": "uint256[]",
          "name": "ids",
          "type": "uint256[]"
        },
        {
          "indexed": false,
          "internalType": "uint256[]",
          "name": "amounts",
          "type": "uint256[]"
        }
      ],
      "name": "sharesBurned",
      "type": "event"
    },
    {
      "anonymous": false,
      "inputs": [
        {
          "indexed": true,
          "internalType": "uint256",
          "name": "value",
          "type": "uint256"
        },
        {
          "indexed": false,
          "internalType": "address",
          "name": "sender",
          "type": "address"
        },
        {
          "indexed": false,
          "internalType": "uint256",
          "name": "time",
          "type": "uint256"
        }
      ],
      "name": "validatorFundsDeposited",
      "type": "event"
    },
    {
      "inputs": [
        {
          "internalType": "uint256[]",
          "name": "ids",
          "type": "uint256[]"
        },
        {
          "internalType": "uint256[]",
          "name": "amounts",
          "type": "uint256[]"
        }
      ],
      "name": "burnShares",
      "outputs": [
        {
          "internalType": "bool",
          "name": "",
          "type": "bool"
        }
      ],
      "stateMutability": "nonpayable",
      "type": "function"
    },
    {
      "inputs": [
        {
          "internalType": "uint256",
          "name": "_rebatePercentageInBPS",
          "type": "uint256"
        },
        {
          "internalType": "uint256",
          "name": "_numberOfRebates",
          "type": "uint256"
        }
      ],
      "name": "depositIncentives",
      "outputs": [
        {
          "internalType": "bool",
          "name": "",
          "type": "bool"
        }
      ],
      "stateMutability": "payable",
      "type": "function"
    },
    {
      "inputs": [
        {
          "internalType": "uint256[5]",
          "name": "_amount",
          "type": "uint256[5]"
        },
        {
          "internalType": "uint256[5]",
          "name": "_IDs",
          "type": "uint256[5]"
        },
        {
          "internalType": "bytes32",
          "name": "_merkletree",
          "type": "bytes32"
        },
        {
          "internalType": "uint256",
          "name": "_redeemTimeInSeconds",
          "type": "uint256"
        }
      ],
      "name": "depositRefunds",
      "outputs": [
        {
          "internalType": "bool",
          "name": "",
          "type": "bool"
        }
      ],
      "stateMutability": "payable",
      "type": "function"
    },
    {
      "inputs": [
        {
          "internalType": "uint256",
          "name": "_liquidStakigRewardsInWei",
          "type": "uint256"
        },
        {
          "internalType": "uint256[]",
          "name": "_ids",
          "type": "uint256[]"
        }
      ],
      "name": "depositRewards",
      "outputs": [
        {
          "internalType": "bool",
          "name": "",
          "type": "bool"
        }
      ],
      "stateMutability": "payable",
      "type": "function"
    },
    {
      "inputs": [
        {
          "internalType": "uint256",
          "name": "_amount",
          "type": "uint256"
        },
        {
          "internalType": "bytes",
          "name": "_data",
          "type": "bytes"
        }
      ],
      "name": "mintAvalancheValidatorShare",
      "outputs": [
        {
          "internalType": "bool",
          "name": "",
          "type": "bool"
        }
      ],
      "stateMutability": "payable",
      "type": "function"
    }
  ],
  "bytecode": "0x608060405234801561001057600080fd5b50614354806100206000396000f3fe60806040526004361061005a5760003560e01c80636a426359116100435780636a426359146100a6578063784d11b7146100b9578063eda50ffa146100cc57600080fd5b8063201de44d1461005f5780632254b67714610093575b600080fd5b34801561006b57600080fd5b5061007f61007a366004613d36565b6100df565b604051901515815260200160405180910390f35b61007f6100a1366004613e08565b61039d565b61007f6100b4366004613e4f565b61052c565b61007f6100c7366004613f10565b6109f2565b61007f6100da366004613f4d565b610ef3565b815181516000917f66bd28df09c9271bd5696185e1f2db071a0ed825a4f7df621c22ef195c811e9f913391908290821461017a576040517f08c379a000000000000000000000000000000000000000000000000000000000815260206004820152601c60248201527f6964732c20616d6f756e7473206c656e677468206d69736d617463680000000060448201526064015b60405180910390fd5b6101858182896112f0565b60005b828110156102fc578681815181106101a2576101a2613f6f565b6020026020010151856000016000808152602001908152602001600020600e0160008a84815181106101d6576101d6613f6f565b602002602001015181526020019081526020016000206000828254039250508190555086818151811061020b5761020b613f6f565b6020026020010151856000016000808152602001908152602001600020600f0160008a848151811061023f5761023f613f6f565b60200260200101518152602001908152602001600020600082825403925050819055506102858489838151811061027857610278613f6f565b6020026020010151611450565b156102f45786818151811061029c5761029c613f6f565b602002602001015185600001600080815260200190815260200160002060100160008a84815181106102d0576102d0613f6f565b60200260200101518152602001908152602001600020600082825403925050819055505b600101610188565b506103088388886114e0565b60005b8281101561033f576103368489838151811061032957610329613f6f565b602002602001015161185c565b5060010161030b565b508273ffffffffffffffffffffffffffffffffffffffff167f12101e9f78254ba831796c8c1ee8115d4f29c10597b149f5bef1bc1202549ea98888604051610388929190613fd9565b60405180910390a25060019695505050505050565b60006103a761191d565b7f66bd28df09c9271bd5696185e1f2db071a0ed825a4f7df621c22ef195c811e9f344260006103d68683614036565b600080805260208690526040812060158101546029820154601890920154939450929091806104078e8486886119e8565b91509150878214610474576040517f08c379a000000000000000000000000000000000000000000000000000000000815260206004820152601f60248201527f4e6f7420656e6f75676820746f20726566756e6420616c6c2070656f706c65006044820152606401610171565b600080805260208a9052604090819020602881018a9055602c81018e9055602d8101889055602b810183905560270180547fffffffffffffffffffffffffffffffffffffffffffffffffffffffffffffff00166001179055516104d8908f9061404e565b604080519182900382208a835260208301899052917f2d5b148d34b0b1055c3632a7fea828ff183014bba9e68cf35c061d7def1bad0f910160405180910390a25060019d9c50505050505050505050505050565b7fd5b0c411a6c50ab7237d5bdf5f4be539f3a9603f77c2fe2a10b3944fcb2c324b805460009190600214156105bd576040517f08c379a000000000000000000000000000000000000000000000000000000000815260206004820152601f60248201527f5265656e7472616e637947756172643a207265656e7472616e742063616c6c006044820152606401610171565b60028155600080527fe24827f2fd550bb576d4e5e4cb96eb19d044a1a19e012ae8ae578ef3399f7a46547ffd49e457eed3de8d2ad7359e3503e84f3f0c2ba2be33f317d5850642629ff9266020527f572ddc9339fd041e34c6ea537b26c3b06f62f1cece053202a5bfbd0f2eb5cfba547f66bd28df09c9271bd5696185e1f2db071a0ed825a4f7df621c22ef195c811e9f919061065b908790614036565b11156106c3576040517f08c379a000000000000000000000000000000000000000000000000000000000815260206004820152601260248201527f4d617820737570706c79207265616368656400000000000000000000000000006044820152606401610171565b60008080526020829052604090206015810154601a820154601d90920154909160ff169081156107bd5780881115610757576040517f08c379a000000000000000000000000000000000000000000000000000000000815260206004820152601960248201527f4e6f7420656e6f756768207265626174657320736861726573000000000000006044820152606401610171565b6000808052602085905260409020601c8101546018909101548161077b8287614082565b61078591906140bd565b61078f90866140fa565b6000808052602088905260408120601d0180549297508c929091906107b59084906140fa565b909155505050505b6107c783896140bd565b341015610830576040517f08c379a000000000000000000000000000000000000000000000000000000000815260206004820152600f60248201527f4e6f7420656e6f756768204156415800000000000000000000000000000000006044820152606401610171565b3382156108b5576000808052602086905260408120601b0154908a6108558584614082565b61085f91906140bd565b905061086b81836140fa565b6000808052602089905260409020601b01556108878134614036565b600080805260208990526040812060190180549091906108a8908490614036565b909155506108dc92505050565b600080805260208690526040812060190180543492906108d6908490614036565b90915550505b600080805260208681526040808320600f01909152812080548b9290610903908490614036565b909155506109119050611b20565b61091c81428b611dd9565b610982576040517f08c379a000000000000000000000000000000000000000000000000000000000815260206004820152601b60248201527f4865616c7468206e6f742073657474656420636f72726563746c7900000000006044820152606401610171565b61098f8160008b8b612377565b604080518a815242602082015273ffffffffffffffffffffffffffffffffffffffff8316917f713ad896423a80156e30820a6075c1f3e6565c0278c0a646a549fedadc71272b910160405180910390a26001965050505050506001905592915050565b7fd5b0c411a6c50ab7237d5bdf5f4be539f3a9603f77c2fe2a10b3944fcb2c324b80546000919060021415610a83576040517f08c379a000000000000000000000000000000000000000000000000000000000815260206004820152601f60248201527f5265656e7472616e637947756172643a207265656e7472616e742063616c6c006044820152606401610171565b60028155610a8f61191d565b7f66bd28df09c9271bd5696185e1f2db071a0ed825a4f7df621c22ef195c811e9f60005b6005811015610b645760008080526020838152604080832084845260100190915281205584518190869082908110610aed57610aed613f6f565b602002602001015114610b5c576040517f08c379a000000000000000000000000000000000000000000000000000000000815260206004820152600c60248201527f494473206d69736d6174636800000000000000000000000000000000000000006044820152606401610171565b600101610ab3565b50610b6d612533565b610bd3576040517f08c379a000000000000000000000000000000000000000000000000000000000815260206004820152601160248201527f302061637469766520737570706c6965730000000000000000000000000000006044820152606401610171565b34851115610c3d576040517f08c379a000000000000000000000000000000000000000000000000000000000815260206004820152601d60248201527f4c6971756964205374616b696e672052657761726473203e20313030250000006044820152606401610171565b6000806000806000610c4d6125be565b600080805260208c9052604081206018810154601790910154969b5094995092975090955093509091610c80838e614082565b610c8a91906140bd565b600080805260208a905260408120601601549192509083610cab8f346140fa565b610cb59190614082565b610cbf91906140bd565b600080805260208b905260408120601f0180549293508392909190610ce5908490614036565b9091555050600080805260208a905260408120601f018054849290610d0b908490614036565b9091555060009050610d1b612533565b83610d2684346140fa565b610d3091906140fa565b610d3a9190614082565b9050610d4689826140bd565b600080805260208c81526040808320601e0190915281208054909190610d6d908490614036565b90915550610d7d905088826140bd565b600080805260208c8152604080832060018452601e0190915281208054909190610da8908490614036565b90915550610db8905087826140bd565b600080805260208c8152604080832060028452601e0190915281208054909190610de3908490614036565b90915550610df3905086826140bd565b600080805260208c8152604080832060038452601e0190915281208054909190610e1e908490614036565b90915550610e2e905085826140bd565b600080805260208c8152604080832060048452601e0190915281208054909190610e59908490614036565b90915550610e679050612637565b6040805133815242602082015234917f56b9a8121b96c71bc28c39b85ed690253bf55c735f0789b4c092f25d3c53cb68910160405180910390a2604080513381524260208201528f917ffb32447375c36e47abd0a4997860ab33b09119b4bffbe0ca422f607ed20ff86f910160405180910390a260019b50505050505050505050506001905592915050565b7fd5b0c411a6c50ab7237d5bdf5f4be539f3a9603f77c2fe2a10b3944fcb2c324b80546000919060021415610f84576040517f08c379a000000000000000000000000000000000000000000000000000000000815260206004820152601f60248201527f5265656e7472616e637947756172643a207265656e7472616e742063616c6c006044820152606401610171565b60028155600080527ffd49e457eed3de8d2ad7359e3503e84f3f0c2ba2be33f317d5850642629ff92c547f572ddc9339fd041e34c6ea537b26c3b06f62f1cece053202a5bfbd0f2eb5cfba547fe24827f2fd550bb576d4e5e4cb96eb19d044a1a19e012ae8ae578ef3399f7a46547f66bd28df09c9271bd5696185e1f2db071a0ed825a4f7df621c22ef195c811e9f60208190527ffd49e457eed3de8d2ad7359e3503e84f3f0c2ba2be33f317d5850642629ff931547ffd49e457eed3de8d2ad7359e3503e84f3f0c2ba2be33f317d5850642629ff92f549194339434949193909260ff169081156110d2576040517f08c379a000000000000000000000000000000000000000000000000000000000815260206004820152601d60248201527f496e63656e74697665732061726520616c7265616479206163746976650000006044820152606401610171565b826110dd8c86614036565b1115611145576040517f08c379a000000000000000000000000000000000000000000000000000000000815260206004820152601560248201527f546f6f206d616e7920696e63656e746976697a656400000000000000000000006044820152606401610171565b808c11156111af576040517f08c379a000000000000000000000000000000000000000000000000000000000815260206004820152600960248201527f4f766572203130302500000000000000000000000000000000000000000000006044820152606401610171565b858c826111bc8e896140bd565b6111c69190614082565b6111d091906140bd565b14611237576040517f08c379a000000000000000000000000000000000000000000000000000000000815260206004820152601a60248201527f57726f6e6720636f6d706f736974696f6e206f722076616c75650000000000006044820152606401610171565b60008080526020898152604091829020601a810180547fffffffffffffffffffffffffffffffffffffffffffffffffffffffffffffff00166001179055601c81018f9055601d81018e9055601b01889055815173ffffffffffffffffffffffffffffffffffffffff8a16815242918101919091528c918e917f840b801e535fa28df8d56cba6449207909707be5c38e2490899f7c7857eaef62910160405180910390a36001995050505050505050506001905592915050565b7f66bd28df09c9271bd5696185e1f2db071a0ed825a4f7df621c22ef195c811e9f61131a84612a13565b60005b8251811015611449576000826000016000808152602001908152602001600020602601600085848151811061135457611354613f6f565b6020026020010151815260200190815260200160002060008773ffffffffffffffffffffffffffffffffffffffff1673ffffffffffffffffffffffffffffffffffffffff16815260200190815260200160002054905060008111156114405782600001600080815260200190815260200160002060260160008584815181106113df576113df613f6f565b6020026020010151815260200190815260200160002060008773ffffffffffffffffffffffffffffffffffffffff1673ffffffffffffffffffffffffffffffffffffffff168152602001908152602001600020600090556114408582612bfc565b5060010161131d565b5050505050565b60008181527ffd49e457eed3de8d2ad7359e3503e84f3f0c2ba2be33f317d5850642629ff9466020908152604080832073ffffffffffffffffffffffffffffffffffffffff861684529091528120547f66bd28df09c9271bd5696185e1f2db071a0ed825a4f7df621c22ef195c811e9f9042908110156114d357600192506114d8565b600092505b505092915050565b7f66bd28df09c9271bd5696185e1f2db071a0ed825a4f7df621c22ef195c811e9f73ffffffffffffffffffffffffffffffffffffffff84166115a4576040517f08c379a000000000000000000000000000000000000000000000000000000000815260206004820152602360248201527f455243313135353a206275726e2066726f6d20746865207a65726f206164647260448201527f65737300000000000000000000000000000000000000000000000000000000006064820152608401610171565b8151835114611635576040517f08c379a000000000000000000000000000000000000000000000000000000000815260206004820152602860248201527f455243313135353a2069647320616e6420616d6f756e7473206c656e6774682060448201527f6d69736d617463680000000000000000000000000000000000000000000000006064820152608401610171565b600033905061165881866000878760405180602001604052806000815250612d5b565b60005b84518110156117be57600085828151811061167857611678613f6f565b60200260200101519050600085838151811061169657611696613f6f565b60209081029190910181015160008080528783526040808220868352600101845280822073ffffffffffffffffffffffffffffffffffffffff8d16835290935291909120549091508181101561176d576040517f08c379a0000000000000000000000000000000000000000000000000000000008152602060048201526024808201527f455243313135353a206275726e20616d6f756e7420657863656564732062616c60448201527f616e6365000000000000000000000000000000000000000000000000000000006064820152608401610171565b6000808052602087815260408083209583526001909501815284822073ffffffffffffffffffffffffffffffffffffffff8c16835290529290922091039055806117b681614111565b91505061165b565b50600073ffffffffffffffffffffffffffffffffffffffff168573ffffffffffffffffffffffffffffffffffffffff168273ffffffffffffffffffffffffffffffffffffffff167f4a39dc06d4c0dbc64b70af90fd698a233a518aa5d07e595d983b8c0526c8f7fb8787604051611836929190613fd9565b60405180910390a4611449818660008787604051806020016040528060008152506130ee565b60007f66bd28df09c9271bd5696185e1f2db071a0ed825a4f7df621c22ef195c811e9f8161188a8585613195565b611892575060015b801561191257600080805260208381526040808320878452602f8101835281842073ffffffffffffffffffffffffffffffffffffffff8a1680865290845282852085905588855260309091018352818420908452909152902080547fffffffffffffffffffffffffffffffffffffffffffffffffffffffffffffff001690555b506001949350505050565b7fc8fcad8db84d3cc18b4c41d551ea0ee66dd599cde068d998e57d5e09332c131c6004015473ffffffffffffffffffffffffffffffffffffffff1633146119e6576040517f08c379a000000000000000000000000000000000000000000000000000000000815260206004820152602260248201527f4c69624469616d6f6e643a204d75737420626520636f6e7472616374206f776e60448201527f65720000000000000000000000000000000000000000000000000000000000006064820152608401610171565b565b8351600090819081906119fc9085906140bd565b90506000848860016020020151611a1391906140bd565b611a1e90600a6140bd565b90506000858960026020020151611a3591906140bd565b611a409060646140bd565b90506000868a60036020020151611a5791906140bd565b611a63906103e86140bd565b90506000878b60046020020151611a7a91906140bd565b611a86906127106140bd565b9050888a828486611a97898b614036565b611aa19190614036565b611aab9190614036565b611ab59190614036565b611abf9190614082565b611ac991906140bd565b60808c015160608d015160408e015160208f01518f51949b50929391929091611af29190614036565b611afc9190614036565b611b069190614036565b611b109190614036565b9550505050505094509492505050565b7f66bd28df09c9271bd5696185e1f2db071a0ed825a4f7df621c22ef195c811e9f6000611b4b612533565b6000808052602084905260409020601681015490549192509060ff1680611ca757620927c08311158015611b815750816103e814155b15611b9e5760008080526020859052604090206103e86016909101555b82620927c011158015611bb4575062124f808311155b8015611bc257508161038414155b15611bdf5760008080526020859052604090206103846016909101555b8262124f8011158015611bf55750621b77408311155b8015611c0357508161032014155b15611c205760008080526020859052604090206103206016909101555b82621b774011158015611c36575062249f008311155b8015611c4457508161025814155b15611c615760008080526020859052604090206102586016909101555b8262249f0011158015611c775750622dc6c08311155b8015611c855750816101f414155b15611ca25760008080526020859052604090206101f46016909101555b611dd3565b620927c08311158015611cbb57508160fa14155b15611cd757600080805260208590526040902060fa6016909101555b82620927c011158015611ced575062124f808311155b8015611cfa57508160e114155b15611d1657600080805260208590526040902060e16016909101555b8262124f8011158015611d2c5750621b77408311155b8015611d3957508160c814155b15611d5557600080805260208590526040902060c86016909101555b82621b774011158015611d6b575062249f008311155b8015611d78575081609614155b15611d9457600080805260208590526040902060966016909101555b8262249f0011158015611daa5750622dc6c08311155b8015611db7575081607d14155b15611dd3576000808052602085905260409020607d6016909101555b50505050565b60007f66bd28df09c9271bd5696185e1f2db071a0ed825a4f7df621c22ef195c811e9f81611e0561329b565b600080805260208481526040808320603001825280832073ffffffffffffffffffffffffffffffffffffffff8b16845290915290205490915060ff168015611e555750611e53866000611450565b155b80611eac575060008080526020838152604080832060018452603001825280832073ffffffffffffffffffffffffffffffffffffffff8a16845290915290205460ff168015611eac5750611eaa866001611450565b155b80611f03575060008080526020838152604080832060028452603001825280832073ffffffffffffffffffffffffffffffffffffffff8a16845290915290205460ff168015611f035750611f01866002611450565b155b80611f5a575060008080526020838152604080832060038452603001825280832073ffffffffffffffffffffffffffffffffffffffff8a16845290915290205460ff168015611f5a5750611f58866003611450565b155b80611fb1575060008080526020838152604080832060048452603001825280832073ffffffffffffffffffffffffffffffffffffffff8a16845290915290205460ff168015611fb15750611faf866004611450565b155b1561203d5760008080526020838152604080832060308101835281842073ffffffffffffffffffffffffffffffffffffffff8b1680865290845282852080547fffffffffffffffffffffffffffffffffffffffffffffffffffffffffffffff00166001179055848052602f9091018352818420908452909152902085905561203886612a13565b61236b565b600080805260208381526040808320603001825280832073ffffffffffffffffffffffffffffffffffffffff8a16845290915290205460ff1615801561208b5750612089866000611450565b155b1561212e5760008080526020838152604080832060308101835281842073ffffffffffffffffffffffffffffffffffffffff8b1680865290845282852080547fffffffffffffffffffffffffffffffffffffffffffffffffffffffffffffff00166001179055848052602f82018452828520908552835281842085905583805260100190915281208054869290612123908490614036565b9091555061236b9050565b600080805260208381526040808320603001825280832073ffffffffffffffffffffffffffffffffffffffff8a16845290915290205460ff1680156121795750612179866000611450565b806121ce575060008080526020838152604080832060018452603001825280832073ffffffffffffffffffffffffffffffffffffffff8a16845290915290205460ff1680156121ce57506121ce866001611450565b80612223575060008080526020838152604080832060028452603001825280832073ffffffffffffffffffffffffffffffffffffffff8a16845290915290205460ff1680156122235750612223866002611450565b80612278575060008080526020838152604080832060038452603001825280832073ffffffffffffffffffffffffffffffffffffffff8a16845290915290205460ff1680156122785750612278866003611450565b806122cd575060008080526020838152604080832060048452603001825280832073ffffffffffffffffffffffffffffffffffffffff8a16845290915290205460ff1680156122cd57506122cd866004611450565b1561236b5760008080526020838152604080832060308101835281842073ffffffffffffffffffffffffffffffffffffffff8b1680865290845282852080547fffffffffffffffffffffffffffffffffffffffffffffffffffffffffffffff00166001179055848052602f82018452828520908552835281842085905583805260100190915281208054869290612365908490614036565b90915550505b50600195945050505050565b7f66bd28df09c9271bd5696185e1f2db071a0ed825a4f7df621c22ef195c811e9f73ffffffffffffffffffffffffffffffffffffffff851661243b576040517f08c379a000000000000000000000000000000000000000000000000000000000815260206004820152602160248201527f455243313135353a206d696e7420746f20746865207a65726f2061646472657360448201527f73000000000000000000000000000000000000000000000000000000000000006064820152608401610171565b336000612447866133e9565b90506000612454866133e9565b90506124658360008a85858a612d5b565b6000808052602085815260408083208a8452600101825280832073ffffffffffffffffffffffffffffffffffffffff8c168452909152812080548892906124ad908490614036565b9091555050604080518881526020810188905273ffffffffffffffffffffffffffffffffffffffff808b1692600092918716917fc3d58168c5ae7397731d063d5bbf3d657854427343f4c083240f7aacaa2d0f62910160405180910390a461251a8360008a85858a6130ee565b6125298360008a8a8a8a613434565b5050505050505050565b60008061253e6136ce565b6080810151909150612552906127106140bd565b6060820151612563906103e86140bd565b60408301516125739060646140bd565b602084015161258390600a6140bd565b84516125909060016140bd565b61259a9190614036565b6125a49190614036565b6125ae9190614036565b6125b89190614036565b91505090565b6000806000806000806125cf6136ce565b80519091506125df9060016140bd565b60208201519096506125f290600a6140bd565b60408201519095506126059060646140bd565b6060820151909450612619906103e86140bd565b608082015190935061262d906127106140bd565b9150509091929394565b61263f61191d565b600080527f66bd28df09c9271bd5696185e1f2db071a0ed825a4f7df621c22ef195c811e9f60208190527ffd49e457eed3de8d2ad7359e3503e84f3f0c2ba2be33f317d5850642629ff929547ffd49e457eed3de8d2ad7359e3503e84f3f0c2ba2be33f317d5850642629ff92a547ffd49e457eed3de8d2ad7359e3503e84f3f0c2ba2be33f317d5850642629ff92b544292919080846126df8585614036565b6126e991906140fa565b10612750576040517f08c379a000000000000000000000000000000000000000000000000000000000815260206004820152601d60248201527f5265776172647320617265206e6f74206265696e6720757064617465640000006044820152606401610171565b61275a6000612a13565b6000808052602086815260408220015490612773613759565b905060005b60058110156129e95760008080526020898152604080832084845260108101835281842054600f909101909252909120546127b391906140fa565b61287457828282600581106127ca576127ca613f6f565b60200201516127d99190614082565b600080805260208a8152604080832085845260238101808452828520958655602290910183529083209290925552541561286f576040517f08c379a000000000000000000000000000000000000000000000000000000000815260206004820152601060248201527f726577617264207261746520213d2030000000000000000000000000000000006044820152606401610171565b6129e1565b8282826005811061288757612887613f6f565b60200201516128969190614082565b600080805260208a815260408083208584526023019091529020819055612919576040517f08c379a000000000000000000000000000000000000000000000000000000000815260206004820152600f60248201527f7265776172642072617465203d203000000000000000000000000000000000006044820152606401610171565b81816005811061292b5761292b613f6f565b6020908102919091015160008080528a83526040808220858352602301909352919091205461295b9085906140bd565b11156129c3576040517f08c379a000000000000000000000000000000000000000000000000000000000815260206004820152601760248201527f72657761726420616d6f756e74203e2062616c616e63650000000000000000006044820152606401610171565b60008080526020898152604080832084845260220190915290204290555b600101612778565b506129f48242614036565b6000808052602098909852604090972060210196909655505050505050565b7f66bd28df09c9271bd5696185e1f2db071a0ed825a4f7df621c22ef195c811e9f60005b6005811015612a5c57612a4a8382611450565b15612a5457505050565b600101612a37565b506000612a676137c8565b90506000612a748461394f565b90506000612a8185613a97565b905060005b6005811015612bf457612a97613bb3565b600080805260208781526040808320858452602201909152902055838160058110612ac457612ac4613f6f565b6020908102919091015160008080528783526040808220858352602401909352919091205573ffffffffffffffffffffffffffffffffffffffff861615612bec57828160058110612b1757612b17613f6f565b6020908102919091015160008080528783526040808220858352602601845280822073ffffffffffffffffffffffffffffffffffffffff8b1683529093529190912055818160058110612b6c57612b6c613f6f565b6020908102919091015160008080528783526040808220858352601e01909352918220805491929091612ba09084906140fa565b9091555050600080805260208681526040808320848452602481018352818420546025909101835281842073ffffffffffffffffffffffffffffffffffffffff8b168552909252909120555b600101612a86565b505050505050565b80471015612c66576040517f08c379a000000000000000000000000000000000000000000000000000000000815260206004820152601d60248201527f416464726573733a20696e73756666696369656e742062616c616e63650000006044820152606401610171565b60008273ffffffffffffffffffffffffffffffffffffffff168260405160006040518083038185875af1925050503d8060008114612cc0576040519150601f19603f3d011682016040523d82523d6000602084013e612cc5565b606091505b5050905080612d56576040517f08c379a000000000000000000000000000000000000000000000000000000000815260206004820152602260248201527f416464726573735574696c733a206661696c656420746f2073656e642076616c60448201527f75650000000000000000000000000000000000000000000000000000000000006064820152608401610171565b505050565b82517f66bd28df09c9271bd5696185e1f2db071a0ed825a4f7df621c22ef195c811e9f9060009042825b828110156130e1578373ffffffffffffffffffffffffffffffffffffffff168a73ffffffffffffffffffffffffffffffffffffffff1614158015612df557508373ffffffffffffffffffffffffffffffffffffffff168973ffffffffffffffffffffffffffffffffffffffff1614155b156130d957612e108a89838151811061027857610278613f6f565b158015612e305750612e2e8989838151811061027857610278613f6f565b155b156130775780612e4c57612e438a612a13565b612e4c89612a13565b73ffffffffffffffffffffffffffffffffffffffff8a163b158015612e86575073ffffffffffffffffffffffffffffffffffffffff89163b155b15612f985781856000016000808152602001908152602001600020602f0160008a8481518110612eb857612eb8613f6f565b6020026020010151815260200190815260200160002060008c73ffffffffffffffffffffffffffffffffffffffff1673ffffffffffffffffffffffffffffffffffffffff1681526020019081526020016000208190555081856000016000808152602001908152602001600020602f0160008a8481518110612f3c57612f3c613f6f565b6020026020010151815260200190815260200160002060008b73ffffffffffffffffffffffffffffffffffffffff1673ffffffffffffffffffffffffffffffffffffffff168152602001908152602001600020819055506130d9565b73ffffffffffffffffffffffffffffffffffffffff8a163b158015612fd3575073ffffffffffffffffffffffffffffffffffffffff89163b15155b156130055781856000016000808152602001908152602001600020602f0160008a8481518110612eb857612eb8613f6f565b73ffffffffffffffffffffffffffffffffffffffff8a163b15158015613040575073ffffffffffffffffffffffffffffffffffffffff89163b155b156130725781856000016000808152602001908152602001600020602f0160008a8481518110612eb857612eb8613f6f565b6130d9565b6040517f08c379a000000000000000000000000000000000000000000000000000000000815260206004820152601460248201527f556e64657220636f6f6c696e6720706572696f640000000000000000000000006044820152606401610171565b600101612d85565b5050505050505050505050565b60005b835181101561318c5773ffffffffffffffffffffffffffffffffffffffff8616156131845773ffffffffffffffffffffffffffffffffffffffff861615801590613150575073ffffffffffffffffffffffffffffffffffffffff851615155b1561316c578061316c5761316386612a13565b61316c85612a13565b6131828685838151811061032957610329613f6f565b505b6001016130f1565b50505050505050565b60007f66bd28df09c9271bd5696185e1f2db071a0ed825a4f7df621c22ef195c811e9f73ffffffffffffffffffffffffffffffffffffffff841661325b576040517f08c379a000000000000000000000000000000000000000000000000000000000815260206004820152602a60248201527f455243313135353a2061646472657373207a65726f206973206e6f742061207660448201527f616c6964206f776e6572000000000000000000000000000000000000000000006064820152608401610171565b600080805260209182526040808220858352600101835280822073ffffffffffffffffffffffffffffffffffffffff871683529092522054905092915050565b60008080527f66bd28df09c9271bd5696185e1f2db071a0ed825a4f7df621c22ef195c811e9f60208190527ffd49e457eed3de8d2ad7359e3503e84f3f0c2ba2be33f317d5850642629ff929547ffd49e457eed3de8d2ad7359e3503e84f3f0c2ba2be33f317d5850642629ff92a547ffd49e457eed3de8d2ad7359e3503e84f3f0c2ba2be33f317d5850642629ff92b54426133378484614036565b81111561336357600080805260208690526040902060130181905561335c8482614036565b95506133e1565b61336d8484614036565b95508161337a82886140fa565b116133e1576040517f08c379a000000000000000000000000000000000000000000000000000000000815260206004820152601960248201527f5265776172647320617265206265696e672075706461746564000000000000006044820152606401610171565b505050505090565b6040805160018082528183019092526060916000919060208083019080368337019050509050828160008151811061342357613423613f6f565b602090810291909101015292915050565b73ffffffffffffffffffffffffffffffffffffffff84163b15612bf4576040517ff23a6e6100000000000000000000000000000000000000000000000000000000815273ffffffffffffffffffffffffffffffffffffffff85169063f23a6e61906134ab90899089908890889088906004016141b5565b602060405180830381600087803b1580156134c557600080fd5b505af1925050508015613513575060408051601f3d9081017fffffffffffffffffffffffffffffffffffffffffffffffffffffffffffffffe016820190925261351091810190614205565b60015b6135fd5761351f614247565b806308c379a014156135735750613534614263565b8061353f5750613575565b806040517f08c379a0000000000000000000000000000000000000000000000000000000008152600401610171919061430b565b505b6040517f08c379a000000000000000000000000000000000000000000000000000000000815260206004820152603460248201527f455243313135353a207472616e7366657220746f206e6f6e2d4552433131353560448201527f526563656976657220696d706c656d656e7465720000000000000000000000006064820152608401610171565b7fffffffff0000000000000000000000000000000000000000000000000000000081167ff23a6e61000000000000000000000000000000000000000000000000000000001461318c576040517f08c379a000000000000000000000000000000000000000000000000000000000815260206004820152602860248201527f455243313135353a204552433131353552656365697665722072656a6563746560448201527f6420746f6b656e730000000000000000000000000000000000000000000000006064820152608401610171565b6136d6613c1d565b7f66bd28df09c9271bd5696185e1f2db071a0ed825a4f7df621c22ef195c811e9f60005b60058110156137545760008080526020838152604080832084845260108101835281842054600f9091019092529091205461373591906140fa565b83826005811061374757613747613f6f565b60200201526001016136fa565b505090565b613761613c1d565b7f66bd28df09c9271bd5696185e1f2db071a0ed825a4f7df621c22ef195c811e9f60005b600581101561375457600080805260208381526040808320848452601e019091529020548382600581106137bb576137bb613f6f565b6020020152600101613785565b6137d0613c1d565b7f66bd28df09c9271bd5696185e1f2db071a0ed825a4f7df621c22ef195c811e9f60005b60058110156137545760008080526020838152604080832084845260108101835281842054600f9091019092529091205461382f91906140fa565b61386a5760008080526020838152604080832084845260240190915290205483826005811061386057613860613f6f565b6020020152613947565b60008080526020838152604080832084845260108101835281842054600f9091019092529091205461389c91906140fa565b6000808052602084815260408083208584526022019091529020546138bf613bb3565b6138c991906140fa565b6000808052602085815260408083208684526023019091529020546138ee91906140bd565b61390090670de0b6b3a76400006140bd565b61390a9190614082565b60008080526020848152604080832085845260240190915290205461392f9190614036565b83826005811061394157613941613f6f565b60200201525b6001016137f4565b613957613c1d565b7f66bd28df09c9271bd5696185e1f2db071a0ed825a4f7df621c22ef195c811e9f60006139826137c8565b905060005b6005811015613a8f5773ffffffffffffffffffffffffffffffffffffffff85166139c95760008482600581106139bf576139bf613f6f565b6020020152613a87565b60008080526020848152604080832084845260268101835281842073ffffffffffffffffffffffffffffffffffffffff8a16808652908452828520548686526025909201845282852090855290925290912054670de0b6b3a764000090848460058110613a3857613a38613f6f565b6020020151613a4791906140fa565b613a518885613195565b613a5b91906140bd565b613a659190614082565b613a6f9190614036565b848260058110613a8157613a81613f6f565b60200201525b600101613987565b505050919050565b613a9f613c1d565b7f66bd28df09c9271bd5696185e1f2db071a0ed825a4f7df621c22ef195c811e9f6000613aca6137c8565b905060005b6005811015613a8f5773ffffffffffffffffffffffffffffffffffffffff8516613b11576000848260058110613b0757613b07613f6f565b6020020152613bab565b600080805260208481526040808320848452602501825280832073ffffffffffffffffffffffffffffffffffffffff89168452909152902054670de0b6b3a764000090838360058110613b6657613b66613f6f565b6020020151613b7591906140fa565b613b7f8784613195565b613b8991906140bd565b613b939190614082565b848260058110613ba557613ba5613f6f565b60200201525b600101613acf565b60008080527f66bd28df09c9271bd5696185e1f2db071a0ed825a4f7df621c22ef195c811e9f60208190527ffd49e457eed3de8d2ad7359e3503e84f3f0c2ba2be33f317d5850642629ff938546125b890428481831115613c145781613c16565b825b9392505050565b6040518060a001604052806005906020820280368337509192915050565b7f4e487b7100000000000000000000000000000000000000000000000000000000600052604160045260246000fd5b7fffffffffffffffffffffffffffffffffffffffffffffffffffffffffffffffe0601f830116810181811067ffffffffffffffff82111715613cae57613cae613c3b565b6040525050565b600082601f830112613cc657600080fd5b8135602067ffffffffffffffff821115613ce257613ce2613c3b565b8160051b604051613cf583830182613c6a565b92835284810182019282810187851115613d0e57600080fd5b83870192505b84831015613d2b5782358152918301918301613d14565b509695505050505050565b60008060408385031215613d4957600080fd5b823567ffffffffffffffff80821115613d6157600080fd5b613d6d86838701613cb5565b93506020850135915080821115613d8357600080fd5b50613d9085828601613cb5565b9150509250929050565b600082601f830112613dab57600080fd5b60405160a0810181811067ffffffffffffffff82111715613dce57613dce613c3b565b6040528060a0840185811115613de357600080fd5b845b81811015613dfd578035835260209283019201613de5565b509195945050505050565b6000806000806101808587031215613e1f57600080fd5b613e298686613d9a565b9350613e388660a08701613d9a565b939693955050505061014082013591610160013590565b60008060408385031215613e6257600080fd5b8235915060208084013567ffffffffffffffff80821115613e8257600080fd5b818601915086601f830112613e9657600080fd5b813581811115613ea857613ea8613c3b565b6040519150613ede847fffffffffffffffffffffffffffffffffffffffffffffffffffffffffffffffe0601f8401160183613c6a565b8082528784828501011115613ef257600080fd5b80848401858401376000848284010152508093505050509250929050565b60008060408385031215613f2357600080fd5b82359150602083013567ffffffffffffffff811115613f4157600080fd5b613d9085828601613cb5565b60008060408385031215613f6057600080fd5b50508035926020909101359150565b7f4e487b7100000000000000000000000000000000000000000000000000000000600052603260045260246000fd5b600081518084526020808501945080840160005b83811015613fce57815187529582019590820190600101613fb2565b509495945050505050565b604081526000613fec6040830185613f9e565b8281036020840152613ffe8185613f9e565b95945050505050565b7f4e487b7100000000000000000000000000000000000000000000000000000000600052601160045260246000fd5b6000821982111561404957614049614007565b500190565b60008183825b6005811015614073578151835260209283019290910190600101614054565b50505060a08201905092915050565b6000826140b8577f4e487b7100000000000000000000000000000000000000000000000000000000600052601260045260246000fd5b500490565b6000817fffffffffffffffffffffffffffffffffffffffffffffffffffffffffffffffff04831182151516156140f5576140f5614007565b500290565b60008282101561410c5761410c614007565b500390565b60007fffffffffffffffffffffffffffffffffffffffffffffffffffffffffffffffff82141561414357614143614007565b5060010190565b6000815180845260005b8181101561417057602081850181015186830182015201614154565b81811115614182576000602083870101525b50601f017fffffffffffffffffffffffffffffffffffffffffffffffffffffffffffffffe0169290920160200192915050565b600073ffffffffffffffffffffffffffffffffffffffff808816835280871660208401525084604083015283606083015260a060808301526141fa60a083018461414a565b979650505050505050565b60006020828403121561421757600080fd5b81517fffffffff0000000000000000000000000000000000000000000000000000000081168114613c1657600080fd5b600060033d11156142605760046000803e5060005160e01c5b90565b600060443d10156142715790565b6040517ffffffffffffffffffffffffffffffffffffffffffffffffffffffffffffffffc803d016004833e81513d67ffffffffffffffff81602484011181841117156142bf57505050505090565b82850191508151818111156142d75750505050505090565b843d87010160208285010111156142f15750505050505090565b61430060208286010187613c6a565b509095945050505050565b602081526000613c16602083018461414a56fea26469706673582212201eeeb69bcf72c294d700d6bef02832ee63e0348d6914ee9c0f7d70e2ee8d3c8264736f6c63430008080033",
  "linkReferences": {},
  "deployedLinkReferences": {}
}