{
  "_format": "hh-sol-artifact-1",
  "contractName": "FirstAvalancheValidatorFacet",
  "sourceName": "contracts/validator/facets/FirstAvalancheValidatorFacet.sol",
  "abi": [
    {
      "anonymous": false,
      "inputs": [
        {
          "indexed": true,
          "internalType": "uint256",
          "name": "amount",
          "type": "uint256"
        },
        {
          "indexed": false,
          "internalType": "address",
          "name": "manager",
          "type": "address"
        },
        {
          "indexed": false,
          "internalType": "uint256",
          "name": "time",
          "type": "uint256"
        }
      ],
      "name": "avaxWithdrawnToStake",
      "type": "event"
    },
    {
      "anonymous": false,
      "inputs": [
        {
          "indexed": true,
          "internalType": "uint256",
          "name": "amount",
          "type": "uint256"
        },
        {
          "indexed": false,
          "internalType": "address",
          "name": "manager",
          "type": "address"
        },
        {
          "indexed": false,
          "internalType": "uint256",
          "name": "time",
          "type": "uint256"
        }
      ],
      "name": "incentivesStoppedAndWithdrawn",
      "type": "event"
    },
    {
      "anonymous": false,
      "inputs": [
        {
          "indexed": true,
          "internalType": "address",
          "name": "redeemer",
          "type": "address"
        },
        {
          "indexed": false,
          "internalType": "uint256",
          "name": "amount",
          "type": "uint256"
        },
        {
          "indexed": false,
          "internalType": "uint256",
          "name": "value",
          "type": "uint256"
        },
        {
          "indexed": false,
          "internalType": "uint256",
          "name": "time",
          "type": "uint256"
        }
      ],
      "name": "refundsManaged",
      "type": "event"
    },
    {
      "anonymous": false,
      "inputs": [
        {
          "indexed": true,
          "internalType": "address",
          "name": "redeemer",
          "type": "address"
        },
        {
          "indexed": false,
          "internalType": "uint256",
          "name": "amount",
          "type": "uint256"
        },
        {
          "indexed": false,
          "internalType": "uint256",
          "name": "value",
          "type": "uint256"
        },
        {
          "indexed": false,
          "internalType": "uint256",
          "name": "time",
          "type": "uint256"
        }
      ],
      "name": "refundsRedeemed",
      "type": "event"
    },
    {
      "anonymous": false,
      "inputs": [
        {
          "indexed": true,
          "internalType": "address",
          "name": "manager",
          "type": "address"
        },
        {
          "indexed": true,
          "internalType": "uint256",
          "name": "id",
          "type": "uint256"
        },
        {
          "indexed": false,
          "internalType": "uint256",
          "name": "rewards",
          "type": "uint256"
        },
        {
          "indexed": false,
          "internalType": "uint256",
          "name": "time",
          "type": "uint256"
        }
      ],
      "name": "unactiveShareManaged",
      "type": "event"
    },
    {
      "inputs": [
        {
          "internalType": "uint256[]",
          "name": "_ids",
          "type": "uint256[]"
        }
      ],
      "name": "collectRewards",
      "outputs": [
        {
          "internalType": "bool",
          "name": "",
          "type": "bool"
        }
      ],
      "stateMutability": "nonpayable",
      "type": "function"
    },
    {
      "inputs": [
        {
          "internalType": "address",
          "name": "_owner",
          "type": "address"
        },
        {
          "internalType": "uint256",
          "name": "_id",
          "type": "uint256"
        }
      ],
      "name": "getPositionHealth",
      "outputs": [
        {
          "internalType": "uint256",
          "name": "",
          "type": "uint256"
        },
        {
          "internalType": "bool",
          "name": "",
          "type": "bool"
        }
      ],
      "stateMutability": "view",
      "type": "function"
    },
    {
      "inputs": [
        {
          "internalType": "address",
          "name": "_unactiveOwner",
          "type": "address"
        },
        {
          "internalType": "uint256",
          "name": "_id",
          "type": "uint256"
        }
      ],
      "name": "manageUnactiveValidatorShares",
      "outputs": [
        {
          "internalType": "bool",
          "name": "",
          "type": "bool"
        }
      ],
      "stateMutability": "nonpayable",
      "type": "function"
    },
    {
      "inputs": [
        {
          "internalType": "address",
          "name": "_refundsUnclaimer",
          "type": "address"
        },
        {
          "internalType": "uint256",
          "name": "_amount",
          "type": "uint256"
        },
        {
          "internalType": "uint256",
          "name": "_id",
          "type": "uint256"
        },
        {
          "internalType": "bytes32[]",
          "name": "_merkleProof",
          "type": "bytes32[]"
        }
      ],
      "name": "manageUnclaimedRefunds",
      "outputs": [
        {
          "internalType": "bool",
          "name": "",
          "type": "bool"
        }
      ],
      "stateMutability": "nonpayable",
      "type": "function"
    },
    {
      "inputs": [
        {
          "internalType": "uint256",
          "name": "_amountRedeemed",
          "type": "uint256"
        },
        {
          "internalType": "uint256",
          "name": "_id",
          "type": "uint256"
        },
        {
          "internalType": "bytes32[]",
          "name": "_merkleProof",
          "type": "bytes32[]"
        }
      ],
      "name": "redeemRefund",
      "outputs": [
        {
          "internalType": "bool",
          "name": "",
          "type": "bool"
        }
      ],
      "stateMutability": "nonpayable",
      "type": "function"
    },
    {
      "inputs": [],
      "name": "withdrawAvaxToStake",
      "outputs": [
        {
          "internalType": "bool",
          "name": "",
          "type": "bool"
        }
      ],
      "stateMutability": "nonpayable",
      "type": "function"
    },
    {
      "inputs": [],
      "name": "withdrawIncentives",
      "outputs": [
        {
          "internalType": "bool",
          "name": "",
          "type": "bool"
        }
      ],
      "stateMutability": "nonpayable",
      "type": "function"
    },
    {
      "inputs": [],
      "name": "withdrawQuarryDrawRewardFee",
      "outputs": [
        {
          "internalType": "bool",
          "name": "",
          "type": "bool"
        }
      ],
      "stateMutability": "nonpayable",
      "type": "function"
    }
  ],
  "bytecode": "0x608060405234801561001057600080fd5b50613013806100206000396000f3fe608060405234801561001057600080fd5b50600436106100885760003560e01c8063d3c7210e1161005b578063d3c7210e146100e3578063dad5f460146100f6578063e087cd551461011e578063f9e4ce721461012657600080fd5b80635a1b65ae1461008d57806380eaed61146100b55780639e1b66c1146100c8578063a7501f1c146100db575b600080fd5b6100a061009b366004612c70565b61012e565b60405190151581526020015b60405180910390f35b6100a06100c3366004612d91565b6101e2565b6100a06100d6366004612e0d565b61061d565b6100a0610ae5565b6100a06100f1366004612e75565b610c07565b610109610104366004612e75565b6110a9565b604080519283529015156020830152016100ac565b6100a061120d565b6100a06113b0565b7fd5b0c411a6c50ab7237d5bdf5f4be539f3a9603f77c2fe2a10b3944fcb2c324b805460009190600214156101c4576040517f08c379a000000000000000000000000000000000000000000000000000000000815260206004820152601f60248201527f5265656e7472616e637947756172643a207265656e7472616e742063616c6c0060448201526064015b60405180910390fd5b60028155336101d4818086611515565b600192505060019055919050565b7fd5b0c411a6c50ab7237d5bdf5f4be539f3a9603f77c2fe2a10b3944fcb2c324b80546000919060021415610273576040517f08c379a000000000000000000000000000000000000000000000000000000000815260206004820152601f60248201527f5265656e7472616e637947756172643a207265656e7472616e742063616c6c0060448201526064016101bb565b60028155600080527f66bd28df09c9271bd5696185e1f2db071a0ed825a4f7df621c22ef195c811e9f60208181527ffd49e457eed3de8d2ad7359e3503e84f3f0c2ba2be33f317d5850642629ff9435460408051338185018190528183018c905260608083018c9052835180840390910181526080830180855281519187019190912060a0968b0280850188019095528a825242969295949093610335938d928d92839201908490808284376000920191909152508692508591506116759050565b61039b576040517f08c379a000000000000000000000000000000000000000000000000000000000815260206004820152601a60248201527f4d65726b6c65747265652070726f6f66206e6f742076616c696400000000000060448201526064016101bb565b6000808052602086815260408083208d8452602e01825280832073ffffffffffffffffffffffffffffffffffffffff8716845290915290205460ff161561043e576040517f08c379a000000000000000000000000000000000000000000000000000000000815260206004820152601c60248201527f596f75206861766520616c72656164792072656465656d65642069740000000060448201526064016101bb565b6000808052602086815260408083208d8452602e018252822073ffffffffffffffffffffffffffffffffffffffff86168352905261047b8b61168b565b9050610488848583611515565b6000808052602087905260408120602b0180548e92906104a9908490612ece565b90915550506000808052602087815260408083208e8452600f01909152812080548e92906104d8908490612ece565b909155506104e89050848c6116d6565b1561051d576000808052602087815260408083208e8452601001909152812080548e9290610517908490612ece565b90915550505b610528848c8e611766565b610532848c6119cf565b506000806105418e8e88611a90565b91509150816105ac576040517f08c379a000000000000000000000000000000000000000000000000000000000815260206004820152601560248201527f556e61626c6520746f2073656e6420726566756e64000000000000000000000060448201526064016101bb565b604080518f81526020810183905290810188905273ffffffffffffffffffffffffffffffffffffffff8716907fe01b7b4f911879f8a4133d69ec79c3742eef8f6b0de28d2d7751c73cf7b66fea9060600160405180910390a260019950505050505050505060019055949350505050565b7fd5b0c411a6c50ab7237d5bdf5f4be539f3a9603f77c2fe2a10b3944fcb2c324b805460009190600214156106ae576040517f08c379a000000000000000000000000000000000000000000000000000000000815260206004820152601f60248201527f5265656e7472616e637947756172643a207265656e7472616e742063616c6c0060448201526064016101bb565b60028155600080527f66bd28df09c9271bd5696185e1f2db071a0ed825a4f7df621c22ef195c811e9f60208190527ffd49e457eed3de8d2ad7359e3503e84f3f0c2ba2be33f317d5850642629ff944547ffd49e457eed3de8d2ad7359e3503e84f3f0c2ba2be33f317d5850642629ff94354428210610789576040517f08c379a000000000000000000000000000000000000000000000000000000000815260206004820152601d60248201527f52656465656d696e672074696d65206973207374696c6c2076616c696400000060448201526064016101bb565b6040805173ffffffffffffffffffffffffffffffffffffffff8c1660208201529081018a9052606081018990526000906080016040516020818303038152906040528051906020012090506108148888808060200260200160405190810160405280939291908181526020018383602002808284376000920191909152508692508591506116759050565b61087a576040517f08c379a000000000000000000000000000000000000000000000000000000000815260206004820152601a60248201527f4d65726b6c65747265652070726f6f66206e6f742076616c696400000000000060448201526064016101bb565b6000808052602085815260408083208c8452602e01825280832073ffffffffffffffffffffffffffffffffffffffff8f16845290915290205460ff161561091d576040517f08c379a000000000000000000000000000000000000000000000000000000000815260206004820152601c60248201527f596f75206861766520616c72656164792072656465656d65642069740000000060448201526064016101bb565b6000808052602085815260408083208c8452602e018252822073ffffffffffffffffffffffffffffffffffffffff8e168352905261095a8a61168b565b90506109678c3383611515565b6000808052602086905260408120602b0180548d9290610988908490612ece565b90915550506000808052602086815260408083208d8452600f01909152812080548d92906109b7908490612ece565b909155506109c790508c8b6116d6565b156109fc576000808052602086815260408083208d8452601001909152812080548d92906109f6908490612ece565b90915550505b610a078c8b8d611766565b610a118c8b6119cf565b50600080610a208d8d33611bfc565b9150915081610a8b576040517f08c379a000000000000000000000000000000000000000000000000000000000815260206004820152601560248201527f556e61626c6520746f2073656e6420726566756e64000000000000000000000060448201526064016101bb565b604080518e8152602081018390524281830152905133917f31c66585121c3cc14d8a5cdd60cfd401d7f225c9bc14d8cf7204d16782e8bcb4919081900360600190a260019850505050505050506001905595945050505050565b6000610aef611dd3565b7f66bd28df09c9271bd5696185e1f2db071a0ed825a4f7df621c22ef195c811e9f6000610b507fc8fcad8db84d3cc18b4c41d551ea0ee66dd599cde068d998e57d5e09332c13205473ffffffffffffffffffffffffffffffffffffffff1690565b6000808052602084905260409020601f015490915080610bcc576040517f08c379a000000000000000000000000000000000000000000000000000000000815260206004820152601260248201527f4e6f206665657320746f20636f6c6c656374000000000000000000000000000060448201526064016101bb565b6000808052602084905260408120601f018054839290610bed908490612ece565b90915550610bfd90508282611e9e565b6001935050505090565b7fd5b0c411a6c50ab7237d5bdf5f4be539f3a9603f77c2fe2a10b3944fcb2c324b80546000919060021415610c98576040517f08c379a000000000000000000000000000000000000000000000000000000000815260206004820152601f60248201527f5265656e7472616e637947756172643a207265656e7472616e742063616c6c0060448201526064016101bb565b600281557f66bd28df09c9271bd5696185e1f2db071a0ed825a4f7df621c22ef195c811e9f42336000610ccb8888611ffd565b905073ffffffffffffffffffffffffffffffffffffffff82163b15610d4c576040517f08c379a000000000000000000000000000000000000000000000000000000000815260206004820152601d60248201527f43616e27742062652063616c6c6564206279206120636f6e747261637400000060448201526064016101bb565b6001610d59836000611ffd565b10158015610d6f5750610d6d8260006116d6565b155b80610d9857506001610d82836001611ffd565b10158015610d985750610d968260016116d6565b155b80610dc157506001610dab836002611ffd565b10158015610dc15750610dbf8260026116d6565b155b80610dea57506001610dd4836003611ffd565b10158015610dea5750610de88260036116d6565b155b80610e1357506001610dfd836004611ffd565b10158015610e135750610e118260046116d6565b155b610e9f576040517f08c379a000000000000000000000000000000000000000000000000000000000815260206004820152602760248201527f596f7520646f6e2774206f776e20616e206163746976652076616c696461746f60448201527f722073686172650000000000000000000000000000000000000000000000000060648201526084016101bb565b6001811015610f0a576040517f08c379a000000000000000000000000000000000000000000000000000000000815260206004820152601c60248201527f4164647265737320646f65736e2774206f776e20616e797468696e670000000060448201526064016101bb565b6000610f1689896110a9565b9150508015610f81576040517f08c379a000000000000000000000000000000000000000000000000000000000815260206004820152600f60248201527f4f776e657220697320616374697665000000000000000000000000000000000060448201526064016101bb565b6000610f8c8a612103565b90506000610f998a61168b565b9050610fa68b8683611515565b6000808052602088815260408083208d8452600f0190915281208054869290610fd0908490612ece565b90915550506000808052602088815260408083208d8452600e0190915281208054869290610fff908490612ece565b9091555061101090508b8b86611766565b6110198b61224b565b6110238b8b6119cf565b50898573ffffffffffffffffffffffffffffffffffffffff167f132e86f524dabb2d4295b525e0d8fed70e86ffdaa530b90282c6730a2e78a9e4848d6005811061106f5761106f612ee5565b60200201518960405161108c929190918252602082015260400190565b60405180910390a360019850505050505050506001905592915050565b60008181527ffd49e457eed3de8d2ad7359e3503e84f3f0c2ba2be33f317d5850642629ff9466020908152604080832073ffffffffffffffffffffffffffffffffffffffff8616845290915281205481907f66bd28df09c9271bd5696185e1f2db071a0ed825a4f7df621c22ef195c811e9f90428361112888886116d6565b905082611191576040517f08c379a000000000000000000000000000000000000000000000000000000000815260206004820152601960248201527f4f776e657220646f65736e27742068617665207368617265730000000000000060448201526064016101bb565b80156111b45760006111a38385612ece565b965060019550611206945050505050565b60008080526020859052604081206011015490806111d28686612ece565b90508083108015906111ef576111e88285612ece565b92506111f4565b600092505b91985090965061120695505050505050565b9250929050565b6000611217611dd3565b60008080527f66bd28df09c9271bd5696185e1f2db071a0ed825a4f7df621c22ef195c811e9f60208190527ffd49e457eed3de8d2ad7359e3503e84f3f0c2ba2be33f317d5850642629ff9325490916112a47fc8fcad8db84d3cc18b4c41d551ea0ee66dd599cde068d998e57d5e09332c13205473ffffffffffffffffffffffffffffffffffffffff1690565b9050811561130e576040517f08c379a000000000000000000000000000000000000000000000000000000000815260206004820152601860248201527f43616e7420776974686472617720696e63656e7469766573000000000000000060448201526064016101bb565b600080805260208481526040808320601a810180547fffffffffffffffffffffffffffffffffffffffffffffffffffffffffffffff00169055601c8101849055601d0192909255815173ffffffffffffffffffffffffffffffffffffffff84168152429181019190915283917f629ab23776563179292fa4cb91786729cf451ad4f3f09a962eb739ac4a3c292291015b60405180910390a26001935050505090565b60006113ba611dd3565b7f66bd28df09c9271bd5696185e1f2db071a0ed825a4f7df621c22ef195c811e9f600061141b7fc8fcad8db84d3cc18b4c41d551ea0ee66dd599cde068d998e57d5e09332c13205473ffffffffffffffffffffffffffffffffffffffff1690565b60008080526020849052604090206019015490915080611497576040517f08c379a000000000000000000000000000000000000000000000000000000000815260206004820152601160248201527f4e6f2066756e647320746f207374616b6500000000000000000000000000000060448201526064016101bb565b600080805260208490526040812060190180548392906114b8908490612ece565b909155506114c890508282611e9e565b6040805173ffffffffffffffffffffffffffffffffffffffff8416815242602082015282917f205f1e56eae595bfb9b4b39b1dc1a870a11eef6e559bcdea887a480feff99794910161139e565b7f66bd28df09c9271bd5696185e1f2db071a0ed825a4f7df621c22ef195c811e9f61153f8461224b565b60005b825181101561166e576000826000016000808152602001908152602001600020602601600085848151811061157957611579612ee5565b6020026020010151815260200190815260200160002060008773ffffffffffffffffffffffffffffffffffffffff1673ffffffffffffffffffffffffffffffffffffffff168152602001908152602001600020549050600081111561166557826000016000808152602001908152602001600020602601600085848151811061160457611604612ee5565b6020026020010151815260200190815260200160002060008773ffffffffffffffffffffffffffffffffffffffff1673ffffffffffffffffffffffffffffffffffffffff168152602001908152602001600020600090556116658582611e9e565b50600101611542565b5050505050565b6000826116828584612434565b14949350505050565b604080516001808252818301909252606091600091906020808301908036833701905050905082816000815181106116c5576116c5612ee5565b602090810291909101015292915050565b60008181527ffd49e457eed3de8d2ad7359e3503e84f3f0c2ba2be33f317d5850642629ff9466020908152604080832073ffffffffffffffffffffffffffffffffffffffff861684529091528120547f66bd28df09c9271bd5696185e1f2db071a0ed825a4f7df621c22ef195c811e9f904290811015611759576001925061175e565b600092505b505092915050565b7f66bd28df09c9271bd5696185e1f2db071a0ed825a4f7df621c22ef195c811e9f73ffffffffffffffffffffffffffffffffffffffff841661182a576040517f08c379a000000000000000000000000000000000000000000000000000000000815260206004820152602360248201527f455243313135353a206275726e2066726f6d20746865207a65726f206164647260448201527f657373000000000000000000000000000000000000000000000000000000000060648201526084016101bb565b3360006118368561168b565b905060006118438561168b565b905061186383886000858560405180602001604052806000815250612481565b600080805260208581526040808320898452600101825280832073ffffffffffffffffffffffffffffffffffffffff8b1684529091529020548581101561192b576040517f08c379a0000000000000000000000000000000000000000000000000000000008152602060048201526024808201527f455243313135353a206275726e20616d6f756e7420657863656564732062616c60448201527f616e63650000000000000000000000000000000000000000000000000000000060648201526084016101bb565b6000808052602086815260408083208a8452600101825280832073ffffffffffffffffffffffffffffffffffffffff8c81168086529184528285208b8703905582518c81529384018b90529092908816917fc3d58168c5ae7397731d063d5bbf3d657854427343f4c083240f7aacaa2d0f62910160405180910390a46119c584896000868660405180602001604052806000815250612821565b5050505050505050565b60007f66bd28df09c9271bd5696185e1f2db071a0ed825a4f7df621c22ef195c811e9f816119fd8585611ffd565b611a05575060015b8015611a8557600080805260208381526040808320878452602f8101835281842073ffffffffffffffffffffffffffffffffffffffff8a1680865290845282852085905588855260309091018352818420908452909152902080547fffffffffffffffffffffffffffffffffffffffffffffffffffffffffffffff001690555b506001949350505050565b60008080527f66bd28df09c9271bd5696185e1f2db071a0ed825a4f7df621c22ef195c811e9f60208181527ffd49e457eed3de8d2ad7359e3503e84f3f0c2ba2be33f317d5850642629ff92c547ffd49e457eed3de8d2ad7359e3503e84f3f0c2ba2be33f317d5850642629ff940547ffd49e457eed3de8d2ad7359e3503e84f3f0c2ba2be33f317d5850642629ff92f546040805160a08101825260018152600a958101959095526064908501526103e8606085015261271060808501528594938590815b6005811015611bb857808b1415611bb0578484838360058110611b7a57611b7a612ee5565b602002015161ffff16888f611b8f9190612f14565b611b999190612f14565b611ba39190612f51565b611bad9190612f14565b92505b600101611b55565b5060008080526020879052604081206028018054849290611bda908490612ece565b90915550611bea90508983611e9e565b5060019a909950975050505050505050565b60008080527f66bd28df09c9271bd5696185e1f2db071a0ed825a4f7df621c22ef195c811e9f60208181527ffd49e457eed3de8d2ad7359e3503e84f3f0c2ba2be33f317d5850642629ff92c547ffd49e457eed3de8d2ad7359e3503e84f3f0c2ba2be33f317d5850642629ff940547ffd49e457eed3de8d2ad7359e3503e84f3f0c2ba2be33f317d5850642629ff92f546040805160a08101825260018152600a958101959095526064908501526103e8606085015261271060808501528594938590815b6005811015611d2457808b1415611d1c578484838360058110611ce657611ce6612ee5565b602002015161ffff16888f611cfb9190612f14565b611d059190612f14565b611d0f9190612f51565b611d199190612f14565b92505b600101611cc1565b5060008080526020879052604081206028018054849290611d46908490612ece565b90915550506000808052602087905260409020602a0154611d7b8a82611d6c8787612f51565b611d769190612f14565b611e9e565b611d858185612ece565b611d8f8585612f51565b611d999190612f14565b60008080526020899052604081206019018054909190611dba908490612f8c565b9091555060019d939c50929a5050505050505050505050565b7fc8fcad8db84d3cc18b4c41d551ea0ee66dd599cde068d998e57d5e09332c131c6004015473ffffffffffffffffffffffffffffffffffffffff163314611e9c576040517f08c379a000000000000000000000000000000000000000000000000000000000815260206004820152602260248201527f4c69624469616d6f6e643a204d75737420626520636f6e7472616374206f776e60448201527f657200000000000000000000000000000000000000000000000000000000000060648201526084016101bb565b565b80471015611f08576040517f08c379a000000000000000000000000000000000000000000000000000000000815260206004820152601d60248201527f416464726573733a20696e73756666696369656e742062616c616e636500000060448201526064016101bb565b60008273ffffffffffffffffffffffffffffffffffffffff168260405160006040518083038185875af1925050503d8060008114611f62576040519150601f19603f3d011682016040523d82523d6000602084013e611f67565b606091505b5050905080611ff8576040517f08c379a000000000000000000000000000000000000000000000000000000000815260206004820152602260248201527f416464726573735574696c733a206661696c656420746f2073656e642076616c60448201527f756500000000000000000000000000000000000000000000000000000000000060648201526084016101bb565b505050565b60007f66bd28df09c9271bd5696185e1f2db071a0ed825a4f7df621c22ef195c811e9f73ffffffffffffffffffffffffffffffffffffffff84166120c3576040517f08c379a000000000000000000000000000000000000000000000000000000000815260206004820152602a60248201527f455243313135353a2061646472657373207a65726f206973206e6f742061207660448201527f616c6964206f776e65720000000000000000000000000000000000000000000060648201526084016101bb565b600080805260209182526040808220858352600101835280822073ffffffffffffffffffffffffffffffffffffffff871683529092522054905092915050565b61210b612c23565b7f66bd28df09c9271bd5696185e1f2db071a0ed825a4f7df621c22ef195c811e9f60006121366128d5565b905060005b60058110156122435773ffffffffffffffffffffffffffffffffffffffff851661217d57600084826005811061217357612173612ee5565b602002015261223b565b60008080526020848152604080832084845260268101835281842073ffffffffffffffffffffffffffffffffffffffff8a16808652908452828520548686526025909201845282852090855290925290912054670de0b6b3a7640000908484600581106121ec576121ec612ee5565b60200201516121fb9190612ece565b6122058885611ffd565b61220f9190612f14565b6122199190612f51565b6122239190612f8c565b84826005811061223557612235612ee5565b60200201525b60010161213b565b505050919050565b7f66bd28df09c9271bd5696185e1f2db071a0ed825a4f7df621c22ef195c811e9f60005b60058110156122945761228283826116d6565b1561228c57505050565b60010161226f565b50600061229f6128d5565b905060006122ac84612103565b905060006122b985612a61565b905060005b600581101561242c576122cf612b7d565b6000808052602087815260408083208584526022019091529020558381600581106122fc576122fc612ee5565b6020908102919091015160008080528783526040808220858352602401909352919091205573ffffffffffffffffffffffffffffffffffffffff8616156124245782816005811061234f5761234f612ee5565b6020908102919091015160008080528783526040808220858352602601845280822073ffffffffffffffffffffffffffffffffffffffff8b16835290935291909120558181600581106123a4576123a4612ee5565b6020908102919091015160008080528783526040808220858352601e019093529182208054919290916123d8908490612ece565b9091555050600080805260208681526040808320848452602481018352818420546025909101835281842073ffffffffffffffffffffffffffffffffffffffff8b168552909252909120555b6001016122be565b505050505050565b600081815b8451811015612479576124658286838151811061245857612458612ee5565b6020026020010151612bda565b91508061247181612fa4565b915050612439565b509392505050565b82517f66bd28df09c9271bd5696185e1f2db071a0ed825a4f7df621c22ef195c811e9f9060009042825b82811015612814578373ffffffffffffffffffffffffffffffffffffffff168a73ffffffffffffffffffffffffffffffffffffffff161415801561251b57508373ffffffffffffffffffffffffffffffffffffffff168973ffffffffffffffffffffffffffffffffffffffff1614155b1561280c576125438a89838151811061253657612536612ee5565b60200260200101516116d6565b15801561256357506125618989838151811061253657612536612ee5565b155b156127aa578061257f576125768a61224b565b61257f8961224b565b73ffffffffffffffffffffffffffffffffffffffff8a163b1580156125b9575073ffffffffffffffffffffffffffffffffffffffff89163b155b156126cb5781856000016000808152602001908152602001600020602f0160008a84815181106125eb576125eb612ee5565b6020026020010151815260200190815260200160002060008c73ffffffffffffffffffffffffffffffffffffffff1673ffffffffffffffffffffffffffffffffffffffff1681526020019081526020016000208190555081856000016000808152602001908152602001600020602f0160008a848151811061266f5761266f612ee5565b6020026020010151815260200190815260200160002060008b73ffffffffffffffffffffffffffffffffffffffff1673ffffffffffffffffffffffffffffffffffffffff1681526020019081526020016000208190555061280c565b73ffffffffffffffffffffffffffffffffffffffff8a163b158015612706575073ffffffffffffffffffffffffffffffffffffffff89163b15155b156127385781856000016000808152602001908152602001600020602f0160008a84815181106125eb576125eb612ee5565b73ffffffffffffffffffffffffffffffffffffffff8a163b15158015612773575073ffffffffffffffffffffffffffffffffffffffff89163b155b156127a55781856000016000808152602001908152602001600020602f0160008a84815181106125eb576125eb612ee5565b61280c565b6040517f08c379a000000000000000000000000000000000000000000000000000000000815260206004820152601460248201527f556e64657220636f6f6c696e6720706572696f6400000000000000000000000060448201526064016101bb565b6001016124ab565b5050505050505050505050565b60005b83518110156128cc5773ffffffffffffffffffffffffffffffffffffffff8616156128c45773ffffffffffffffffffffffffffffffffffffffff861615801590612883575073ffffffffffffffffffffffffffffffffffffffff851615155b1561289f578061289f576128968661224b565b61289f8561224b565b6128c2868583815181106128b5576128b5612ee5565b60200260200101516119cf565b505b600101612824565b50505050505050565b6128dd612c23565b7f66bd28df09c9271bd5696185e1f2db071a0ed825a4f7df621c22ef195c811e9f60005b6005811015612a5c5760008080526020838152604080832084845260108101835281842054600f9091019092529091205461293c9190612ece565b6129775760008080526020838152604080832084845260240190915290205483826005811061296d5761296d612ee5565b6020020152612a54565b60008080526020838152604080832084845260108101835281842054600f909101909252909120546129a99190612ece565b6000808052602084815260408083208584526022019091529020546129cc612b7d565b6129d69190612ece565b6000808052602085815260408083208684526023019091529020546129fb9190612f14565b612a0d90670de0b6b3a7640000612f14565b612a179190612f51565b600080805260208481526040808320858452602401909152902054612a3c9190612f8c565b838260058110612a4e57612a4e612ee5565b60200201525b600101612901565b505090565b612a69612c23565b7f66bd28df09c9271bd5696185e1f2db071a0ed825a4f7df621c22ef195c811e9f6000612a946128d5565b905060005b60058110156122435773ffffffffffffffffffffffffffffffffffffffff8516612adb576000848260058110612ad157612ad1612ee5565b6020020152612b75565b600080805260208481526040808320848452602501825280832073ffffffffffffffffffffffffffffffffffffffff89168452909152902054670de0b6b3a764000090838360058110612b3057612b30612ee5565b6020020151612b3f9190612ece565b612b498784611ffd565b612b539190612f14565b612b5d9190612f51565b848260058110612b6f57612b6f612ee5565b60200201525b600101612a99565b60008080527f66bd28df09c9271bd5696185e1f2db071a0ed825a4f7df621c22ef195c811e9f60208190527ffd49e457eed3de8d2ad7359e3503e84f3f0c2ba2be33f317d5850642629ff93854612bd49042612c0c565b91505090565b6000818310612bf6576000828152602084905260409020612c05565b60008381526020839052604090205b9392505050565b600081831115612c1c5781612c05565b5090919050565b6040518060a001604052806005906020820280368337509192915050565b7f4e487b7100000000000000000000000000000000000000000000000000000000600052604160045260246000fd5b60006020808385031215612c8357600080fd5b823567ffffffffffffffff80821115612c9b57600080fd5b818501915085601f830112612caf57600080fd5b813581811115612cc157612cc1612c41565b8060051b6040517fffffffffffffffffffffffffffffffffffffffffffffffffffffffffffffffe0603f83011681018181108582111715612d0457612d04612c41565b604052918252848201925083810185019188831115612d2257600080fd5b938501935b82851015612d4057843584529385019392850192612d27565b98975050505050505050565b60008083601f840112612d5e57600080fd5b50813567ffffffffffffffff811115612d7657600080fd5b6020830191508360208260051b850101111561120657600080fd5b60008060008060608587031215612da757600080fd5b8435935060208501359250604085013567ffffffffffffffff811115612dcc57600080fd5b612dd887828801612d4c565b95989497509550505050565b803573ffffffffffffffffffffffffffffffffffffffff81168114612e0857600080fd5b919050565b600080600080600060808688031215612e2557600080fd5b612e2e86612de4565b94506020860135935060408601359250606086013567ffffffffffffffff811115612e5857600080fd5b612e6488828901612d4c565b969995985093965092949392505050565b60008060408385031215612e8857600080fd5b612e9183612de4565b946020939093013593505050565b7f4e487b7100000000000000000000000000000000000000000000000000000000600052601160045260246000fd5b600082821015612ee057612ee0612e9f565b500390565b7f4e487b7100000000000000000000000000000000000000000000000000000000600052603260045260246000fd5b6000817fffffffffffffffffffffffffffffffffffffffffffffffffffffffffffffffff0483118215151615612f4c57612f4c612e9f565b500290565b600082612f87577f4e487b7100000000000000000000000000000000000000000000000000000000600052601260045260246000fd5b500490565b60008219821115612f9f57612f9f612e9f565b500190565b60007fffffffffffffffffffffffffffffffffffffffffffffffffffffffffffffffff821415612fd657612fd6612e9f565b506001019056fea26469706673582212206ca9b66025815b6ec8bdeeb31ca2a800ffe52451915b45c0fccecd70487ca94964736f6c63430008080033",
  "linkReferences": {},
  "deployedLinkReferences": {}
}