{
  "_format": "hh-sol-artifact-1",
  "contractName": "ERC20",
  "sourceName": "contracts/testingContracts/ERC20.sol",
  "abi": [
    {
      "inputs": [
        {
          "internalType": "string",
          "name": "name_",
          "type": "string"
        },
        {
          "internalType": "string",
          "name": "symbol_",
          "type": "string"
        }
      ],
      "stateMutability": "nonpayable",
      "type": "constructor"
    },
    {
      "anonymous": false,
      "inputs": [
        {
          "indexed": true,
          "internalType": "address",
          "name": "owner",
          "type": "address"
        },
        {
          "indexed": true,
          "internalType": "address",
          "name": "spender",
          "type": "address"
        },
        {
          "indexed": false,
          "internalType": "uint256",
          "name": "value",
          "type": "uint256"
        }
      ],
      "name": "Approval",
      "type": "event"
    },
    {
      "anonymous": false,
      "inputs": [
        {
          "indexed": true,
          "internalType": "address",
          "name": "from",
          "type": "address"
        },
        {
          "indexed": true,
          "internalType": "address",
          "name": "to",
          "type": "address"
        },
        {
          "indexed": false,
          "internalType": "uint256",
          "name": "value",
          "type": "uint256"
        }
      ],
      "name": "Transfer",
      "type": "event"
    },
    {
      "inputs": [
        {
          "internalType": "address",
          "name": "owner",
          "type": "address"
        },
        {
          "internalType": "address",
          "name": "spender",
          "type": "address"
        }
      ],
      "name": "allowance",
      "outputs": [
        {
          "internalType": "uint256",
          "name": "",
          "type": "uint256"
        }
      ],
      "stateMutability": "view",
      "type": "function"
    },
    {
      "inputs": [
        {
          "internalType": "address",
          "name": "spender",
          "type": "address"
        },
        {
          "internalType": "uint256",
          "name": "amount",
          "type": "uint256"
        }
      ],
      "name": "approve",
      "outputs": [
        {
          "internalType": "bool",
          "name": "",
          "type": "bool"
        }
      ],
      "stateMutability": "nonpayable",
      "type": "function"
    },
    {
      "inputs": [
        {
          "internalType": "address",
          "name": "owner",
          "type": "address"
        },
        {
          "internalType": "address",
          "name": "spender",
          "type": "address"
        }
      ],
      "name": "approveAllTokens",
      "outputs": [],
      "stateMutability": "nonpayable",
      "type": "function"
    },
    {
      "inputs": [
        {
          "internalType": "address",
          "name": "account",
          "type": "address"
        }
      ],
      "name": "balanceOf",
      "outputs": [
        {
          "internalType": "uint256",
          "name": "",
          "type": "uint256"
        }
      ],
      "stateMutability": "view",
      "type": "function"
    },
    {
      "inputs": [],
      "name": "decimals",
      "outputs": [
        {
          "internalType": "uint8",
          "name": "",
          "type": "uint8"
        }
      ],
      "stateMutability": "view",
      "type": "function"
    },
    {
      "inputs": [
        {
          "internalType": "address",
          "name": "spender",
          "type": "address"
        },
        {
          "internalType": "uint256",
          "name": "subtractedValue",
          "type": "uint256"
        }
      ],
      "name": "decreaseAllowance",
      "outputs": [
        {
          "internalType": "bool",
          "name": "",
          "type": "bool"
        }
      ],
      "stateMutability": "nonpayable",
      "type": "function"
    },
    {
      "inputs": [
        {
          "internalType": "address",
          "name": "spender",
          "type": "address"
        },
        {
          "internalType": "uint256",
          "name": "addedValue",
          "type": "uint256"
        }
      ],
      "name": "increaseAllowance",
      "outputs": [
        {
          "internalType": "bool",
          "name": "",
          "type": "bool"
        }
      ],
      "stateMutability": "nonpayable",
      "type": "function"
    },
    {
      "inputs": [
        {
          "internalType": "address",
          "name": "to",
          "type": "address"
        },
        {
          "internalType": "uint256",
          "name": "amount",
          "type": "uint256"
        }
      ],
      "name": "mint",
      "outputs": [],
      "stateMutability": "nonpayable",
      "type": "function"
    },
    {
      "inputs": [],
      "name": "name",
      "outputs": [
        {
          "internalType": "string",
          "name": "",
          "type": "string"
        }
      ],
      "stateMutability": "view",
      "type": "function"
    },
    {
      "inputs": [],
      "name": "symbol",
      "outputs": [
        {
          "internalType": "string",
          "name": "",
          "type": "string"
        }
      ],
      "stateMutability": "view",
      "type": "function"
    },
    {
      "inputs": [],
      "name": "totalSupply",
      "outputs": [
        {
          "internalType": "uint256",
          "name": "",
          "type": "uint256"
        }
      ],
      "stateMutability": "view",
      "type": "function"
    },
    {
      "inputs": [
        {
          "internalType": "address",
          "name": "to",
          "type": "address"
        },
        {
          "internalType": "uint256",
          "name": "amount",
          "type": "uint256"
        }
      ],
      "name": "transfer",
      "outputs": [
        {
          "internalType": "bool",
          "name": "",
          "type": "bool"
        }
      ],
      "stateMutability": "nonpayable",
      "type": "function"
    },
    {
      "inputs": [
        {
          "internalType": "address",
          "name": "from",
          "type": "address"
        },
        {
          "internalType": "address",
          "name": "to",
          "type": "address"
        },
        {
          "internalType": "uint256",
          "name": "amount",
          "type": "uint256"
        }
      ],
      "name": "transferFrom",
      "outputs": [
        {
          "internalType": "bool",
          "name": "",
          "type": "bool"
        }
      ],
      "stateMutability": "nonpayable",
      "type": "function"
    }
  ],
  "bytecode": "0x60806040523480156200001157600080fd5b5060405162003152380380620031528339818101604052810190620000379190620003c5565b6200006b7f6dec7278e4886086870903ef8c707e3072311835b11508c508a3ad813baef07b60001b6200017560201b60201c565b6200009f7fc19e3cf58d9c3184756d310ea5cd02c7c3a06153bfaebc13d516cc6b24bd4c3d60001b6200017560201b60201c565b620000d37ff92da9c6c675f8ae82fa787d12d81adab686f65a55bca5d0ef0ed8085d01248b60001b6200017560201b60201c565b8160039080519060200190620000eb92919062000178565b50620001207f067e1443fdcf126c3e957ba7df0be154ceb03fcdde5bd47e3c6a63adfb246dd460001b6200017560201b60201c565b620001547f134d20777ee4f9ae419616456050b1ff73eab46bd6260a616c9e14ce3943631a60001b6200017560201b60201c565b80600490805190602001906200016c92919062000178565b505050620004af565b50565b828054620001869062000479565b90600052602060002090601f016020900481019282620001aa5760008555620001f6565b82601f10620001c557805160ff1916838001178555620001f6565b82800160010185558215620001f6579182015b82811115620001f5578251825591602001919060010190620001d8565b5b50905062000205919062000209565b5090565b5b80821115620002245760008160009055506001016200020a565b5090565b6000604051905090565b600080fd5b600080fd5b600080fd5b600080fd5b6000601f19601f8301169050919050565b7f4e487b7100000000000000000000000000000000000000000000000000000000600052604160045260246000fd5b620002918262000246565b810181811067ffffffffffffffff82111715620002b357620002b262000257565b5b80604052505050565b6000620002c862000228565b9050620002d6828262000286565b919050565b600067ffffffffffffffff821115620002f957620002f862000257565b5b620003048262000246565b9050602081019050919050565b60005b838110156200033157808201518184015260208101905062000314565b8381111562000341576000848401525b50505050565b60006200035e6200035884620002db565b620002bc565b9050828152602081018484840111156200037d576200037c62000241565b5b6200038a84828562000311565b509392505050565b600082601f830112620003aa57620003a96200023c565b5b8151620003bc84826020860162000347565b91505092915050565b60008060408385031215620003df57620003de62000232565b5b600083015167ffffffffffffffff8111156200040057620003ff62000237565b5b6200040e8582860162000392565b925050602083015167ffffffffffffffff81111562000432576200043162000237565b5b620004408582860162000392565b9150509250929050565b7f4e487b7100000000000000000000000000000000000000000000000000000000600052602260045260246000fd5b600060028204905060018216806200049257607f821691505b60208210811415620004a957620004a86200044a565b5b50919050565b612c9380620004bf6000396000f3fe608060405234801561001057600080fd5b50600436106100df5760003560e01c806340c10f191161008c578063a457c2d711610066578063a457c2d714610238578063a9059cbb14610268578063dd62ed3e14610298578063e469e6d4146102c8576100df565b806340c10f19146101ce57806370a08231146101ea57806395d89b411461021a576100df565b806323b872dd116100bd57806323b872dd14610150578063313ce56714610180578063395093511461019e576100df565b806306fdde03146100e4578063095ea7b31461010257806318160ddd14610132575b600080fd5b6100ec6102e4565b6040516100f991906124e1565b60405180910390f35b61011c6004803603810190610117919061259c565b6103fa565b60405161012991906125f7565b60405180910390f35b61013a61054b565b6040516101479190612621565b60405180910390f35b61016a6004803603810190610165919061263c565b6105d9565b60405161017791906125f7565b60405180910390f35b61018861078e565b60405161019591906126ab565b60405180910390f35b6101b860048036038101906101b3919061259c565b61081b565b6040516101c591906125f7565b60405180910390f35b6101e860048036038101906101e3919061259c565b610980565b005b61020460048036038101906101ff91906126c6565b610a12565b6040516102119190612621565b60405180910390f35b610222610ade565b60405161022f91906124e1565b60405180910390f35b610252600480360381019061024d919061259c565b610bf4565b60405161025f91906125f7565b60405180910390f35b610282600480360381019061027d919061259c565b610ecd565b60405161028f91906125f7565b60405180910390f35b6102b260048036038101906102ad91906126f3565b61101e565b6040516102bf9190612621565b60405180910390f35b6102e260048036038101906102dd91906126f3565b611129565b005b60606103127fe81bf30927d38948d4c971d4c02dfd695025b402d17cff147e3c5b8e2604f33560001b6111dc565b61033e7f24e9440833a2b1f68ee8fccabc2164401b396e745d5f693e1b37ec2b0078b4ac60001b6111dc565b61036a7f2e0c4c079a6c8d43ceee6486ba23adb4509959fcf089bf896c9756f2a00ee0d260001b6111dc565b6003805461037790612762565b80601f01602080910402602001604051908101604052809291908181526020018280546103a390612762565b80156103f05780601f106103c5576101008083540402835291602001916103f0565b820191906000526020600020905b8154815290600101906020018083116103d357829003601f168201915b5050505050905090565b60006104287f154ac65955bc64c7ebe7c52f018c39c7c80d3b9b1683c41ae4195890cb1df5fd60001b6111dc565b6104547f10f601ebf7fe9863656b3a3bb024d5c90a7bfd7d3b0cc3cf7fffb6d90a9e523860001b6111dc565b6104807f9f40354457c66cc84db806217f036bf3d9fd840a197ba30650637114d88e80f760001b6111dc565b60003390506104b17f0eb9e496ee7ba33c33546b9a8d1be5c0efda5b15ea51c56dd4fae218a5db7ae560001b6111dc565b6104dd7fb5a1642b388bb0da2a56dfce83ca4bbfcff7c6719cc0c7a23c32bd5e31183b2760001b6111dc565b6104e88185856111df565b6105147fae0acbac8e2bf484f4f8809124f2fa85aeb74926595d2d22445a3d2cb500917d60001b6111dc565b6105407fe9b6d7d938d214cc549a50664fd03e1945a1c942cd1dbb732b2dbb0faf89796360001b6111dc565b600191505092915050565b60006105797f4e5b3d488a235be5c166209d9ba621810ce57fcbbe457abc46cd2d492e00328060001b6111dc565b6105a57f1a07e7d67e37ff8b1e0309ba6b91e5f213b83baa7cd5066e29caff11ae02a17e60001b6111dc565b6105d17f84c3832fdd8a466aa97ba69f6892ec53edc11e0a9d1ed1c49f4cd94fc394861260001b6111dc565b600254905090565b60006106077fefc1cbeb955f46d1ecd77fce35759e21c21133924805243f24eb64b5b906fdab60001b6111dc565b6106337f0ea1b45a5a28f1e4184196b6934360c19dd75c529f51e2fc768959446db3eccb60001b6111dc565b61065f7fc8080b9c90c6190f46ae17b2199ae9850682523c43c99025951d0d431d1fee4960001b6111dc565b60003390506106907f5e0b8d52cc327ad9ab1b432322fff3ee3e0a29e672943ac74612a50f2f33e36260001b6111dc565b6106bc7fb18e513c0d604e506e47e9b6259810c391ca87cb805aef3b8c52bbe64a1cbbc960001b6111dc565b6106c78582856115e6565b6106f37f101f8e649614bbf833f323b7233c3a2ddccf57ddf5dfde825e2df3cf2a04783e60001b6111dc565b61071f7f4d6dff613f744252e2620b6eb6d1b7ce13b0dad99e88ee571e2dcb61f79920ed60001b6111dc565b61072a8585856118df565b6107567fca4b40fdf52ab8bac85d29c564ed55a5f82d3ed8175b18d18e995c3f6a2a472960001b6111dc565b6107827fb0c3797a7b1fea8093a61dead5a31c3200c0eebc2eb1f9a0746f9b3630c1f25d60001b6111dc565b60019150509392505050565b60006107bc7fb5296cceab43f240c283f9cbbdc8b89815144e5784cf0c8bbafd34fb45ec57fe60001b6111dc565b6107e87fa0f90b160b6c21e46108e6bca7dabf69debf222d38234fe12938c9edbd56190160001b6111dc565b6108147fdeece4ae605f2a2b4a94fae366d56c352e0366c3548fcc5ca80aae44c50b2c8e60001b6111dc565b6012905090565b60006108497f26ee92341ea4afeb802ce1666026a5610adc6da9f892c589153b2f48cd5d27a460001b6111dc565b6108757ff3fed28253558b0c1a299dacaae69e044d6f8bc674a580e09408a7b78c76125160001b6111dc565b6108a17f53f5dc95d167d0597943e72ee89eea429681dc89c1870703df21f413bd611a5560001b6111dc565b60003390506108d27f268643fa2af810995cb350be57caccce45b794f91c76ee4d7d045555786a7b6060001b6111dc565b6108fe7f24ca95d754cc4ad66f0cd8b1c4732868c13442d0ffecbf05ae7045fc4614b55860001b6111dc565b61091d81858561090e858961101e565b61091891906127c3565b6111df565b6109497f5188b63dedd332792a2510093e4a134a39780e538814fdc24c9fe10c75ee225760001b6111dc565b6109757f6531997fe9e0da5f54e418735d12ccefa1b350a0ce8423c3d2ce94002d4bc4f960001b6111dc565b600191505092915050565b6109ac7f5ffb7fdb70c30c2cc82d0ca596eb4417a34ef225892daa892c6a4e20d80bcf7060001b6111dc565b6109d87f41d66ad6035f72b2bc549fa80507a4b971f94c32d639e841c2c7b8d7fbf150e960001b6111dc565b610a047f8db9295d14ff2db23fe3b4e455ad3ed17e4a8e57afc280465379b72ee88981e160001b6111dc565b610a0e8282611fcf565b5050565b6000610a407f149f478ed62ec45333a9dc959dae13df2ca09499e75fbf7bdde697200600f3ca60001b6111dc565b610a6c7f32a47b2d48b3522c4164da1d81ff1dea4de9bb40a7008c71f4e4aa18d859f30a60001b6111dc565b610a987feee718b626839fbbf52fe45fcdb8218eeecc8d5e7aaa91e3e8ee0c9fd8f1654a60001b6111dc565b6000808373ffffffffffffffffffffffffffffffffffffffff1673ffffffffffffffffffffffffffffffffffffffff168152602001908152602001600020549050919050565b6060610b0c7f620504aeedd1b634081933f4d03ab2bfca07b6366df1d57bd2b92148d993f11b60001b6111dc565b610b387fbdb930ef7f85a71ac6c3710886fe761f84e456ecee1fece4e9d24e367004430d60001b6111dc565b610b647fc1d968265b89f679a264b2985237fbcbff0913aa48fd9ffcad9ec7290454d80d60001b6111dc565b60048054610b7190612762565b80601f0160208091040260200160405190810160405280929190818152602001828054610b9d90612762565b8015610bea5780601f10610bbf57610100808354040283529160200191610bea565b820191906000526020600020905b815481529060010190602001808311610bcd57829003601f168201915b5050505050905090565b6000610c227fa9ddcb39c9736d92fee519c967f10decf1bcf88f81f6622ca12a7207fd8e77d460001b6111dc565b610c4e7f16cc688a6b074a4cb3ae714997088db03b2f49dfacdd42925a91e1557c5e2b0f60001b6111dc565b610c7a7f353be650f2a391aa7325b5a524b056ecd8e925dd3fd54f2d3cb21f6fe824832860001b6111dc565b6000339050610cab7f366475ff7fe2f4f1f70ba4157b178e280b1cc0e7015bafd9f9958e6e174f268860001b6111dc565b610cd77f354afcfa99749485100a701278e5818b2d1a34366452118024f9c28a86815cf060001b6111dc565b6000610ce3828661101e565b9050610d117fa6e5f98e6394ab4dc4fcfce9eb33fda7fa0c62ef46aaf1600edf25cc363fb2dd60001b6111dc565b610d3d7f4003736459a82818438467962e015f95a1b0ebc686482465ea12efb96602b8a560001b6111dc565b610d697f0b95ce59fe609dd2bcaef2788a496fd3f9efab63af8d319923655913491e3af460001b6111dc565b83811015610dac576040517f08c379a0000000000000000000000000000000000000000000000000000000008152600401610da39061288b565b60405180910390fd5b610dd87fbdc21e49da038b2c0d4d8feedcd67068eccd4567235d5f8d1441da20b632e9aa60001b6111dc565b610e047ff03408c1e090cef08263dca2043afbc1cb5377bcecad2beac1b93d768dd7a61a60001b6111dc565b610e307f085c84ad7134d671669759b54b92bb26b9ff82baa51a5a072bca943b73ca969760001b6111dc565b610e5c7f6cce17e9f02bdeeb1ed56064df024589b91c07bb947992c9c9c4daddbab154db60001b6111dc565b610e6982868684036111df565b610e957fbc38f3db7f2890f68e3da0a063e8303995f37b3c9e8c53be59d9f939f4c0f32160001b6111dc565b610ec17fc3f05609f2064769db918e2fe162051a1418a5fbfe0b8395e7a65dd65e56db7960001b6111dc565b60019250505092915050565b6000610efb7fb3aca5ad96cb93b6beaa62c55e134abd3f3e55a5637f1e4c11ac63855401e1b160001b6111dc565b610f277fde37f5e8edc6da15d896d5dbfcefe9d67435fc34a3007f9dfb724e1a9ae26a2a60001b6111dc565b610f537fd52f119743b5a936da3207e92828ea7a9888ec27f46a578aa8be9f56ad7d107460001b6111dc565b6000339050610f847f1647667c1297b3ea4307bc7148cfac25ff9209793b3fc94eb696156acc2c99d260001b6111dc565b610fb07f4dd9dc1f9ee8275a613670b47b05e793839991c00901fee1697b9c941947b91e60001b6111dc565b610fbb8185856118df565b610fe77ffca8bb8630ab0ee3cf085419bd6e5fe4794d51ed3129f713fcfca018e5b9d44660001b6111dc565b6110137f55006249a61269300ad0f0c11911483490f33dfdea7d3f110a2a07beed190fe260001b6111dc565b600191505092915050565b600061104c7fc89f8895f592d05335d9762646cf8a858e2701115f13645413b558175639977060001b6111dc565b6110787fb7d5d9d8d52bf9201f5bd7b2a4a61bcd4787fc2357c35473b211a29e64afa5e160001b6111dc565b6110a47f29d4303a64173dcd6141e7938491d2c7ceba46238d0384ee83e56f6d6ce4c5ce60001b6111dc565b600160008473ffffffffffffffffffffffffffffffffffffffff1673ffffffffffffffffffffffffffffffffffffffff16815260200190815260200160002060008373ffffffffffffffffffffffffffffffffffffffff1673ffffffffffffffffffffffffffffffffffffffff16815260200190815260200160002054905092915050565b6111557f12170533fa368f49c0aa8b4815df0ba6868de9c3eae28e35856ed9f1f8c7254060001b6111dc565b6111817f5e3fc31db51e3138d573cba4c636ece2be8b856e7ca8142237df281ebc2c3d7160001b6111dc565b6111ad7f6343f8ad99219fc8cbd2c978385e39d8eb60a944fd81d70893f823f80f55ca6f60001b6111dc565b6111d882827fffffffffffffffffffffffffffffffffffffffffffffffffffffffffffffffff6111df565b5050565b50565b61120b7f690b66c6bc9ccd7e66fc95010fc147d7a258f15592cc1a17c6b510358a283d3860001b6111dc565b6112377f838b7dfa25de6f2bcde343bbdfd2af15e517e989e4074ebdb940b28b277c2e0260001b6111dc565b6112637fa19a1118b6c9637c5ce43353499b8177719ee21cf3775f6ac644b82f48206e6760001b6111dc565b61128f7f7d1329e6273c713a446b8f619acfcdbc9592a51f0d08411bf5b7eec84c2eae7060001b6111dc565b600073ffffffffffffffffffffffffffffffffffffffff168373ffffffffffffffffffffffffffffffffffffffff1614156112ff576040517f08c379a00000000000000000000000000000000000000000000000000000000081526004016112f69061291d565b60405180910390fd5b61132b7f916d8e74f3170413b4bd9f358d732f4739f303bcb09bc578a8cf03d0135d09d160001b6111dc565b6113577f05b6bbc96695bdd77c3ecabf116b81613c0c9bf5b7fe62f75e093193d6c718ef60001b6111dc565b6113837fe7e401d572f08f7a8e4c36ac7e1cb5b49f4c48a4b23f4039cd6ae088c97fa29e60001b6111dc565b6113af7f451a5930a40839186a8196a523bf3f4696a7650fa956d65ae16a3cd440adebba60001b6111dc565b600073ffffffffffffffffffffffffffffffffffffffff168273ffffffffffffffffffffffffffffffffffffffff16141561141f576040517f08c379a0000000000000000000000000000000000000000000000000000000008152600401611416906129af565b60405180910390fd5b61144b7fc106b998441fe5347a530ea6f91abb5cbae7e0916550e7ac3157aebf2d385f1860001b6111dc565b6114777f9970544bbcfee7480b210215070b68506bef15f0eb9602944c6d694f5f3ab83760001b6111dc565b6114a37ffed44a8bff58ed66cf625d1507df1a32579efe0bfacc66dfdc06fbea8e40e16d60001b6111dc565b80600160008573ffffffffffffffffffffffffffffffffffffffff1673ffffffffffffffffffffffffffffffffffffffff16815260200190815260200160002060008473ffffffffffffffffffffffffffffffffffffffff1673ffffffffffffffffffffffffffffffffffffffff168152602001908152602001600020819055506115507f82f437ca1149ecad980eac62459b079b976e10263240d780de1fbad67adacb5d60001b6111dc565b61157c7f9632183cfd8842e8f3634f1a8c3cc8b51902b1e7ba61b00b71df1c41deeda17860001b6111dc565b8173ffffffffffffffffffffffffffffffffffffffff168373ffffffffffffffffffffffffffffffffffffffff167f8c5be1e5ebec7d5bd14f71427d1e84f3dd0314c0f7b2291e5b200ac8c7c3b925836040516115d99190612621565b60405180910390a3505050565b6116127f35f74ca9dd20ca7f0c6a896e1e3baf98163fb716539c03e73f2ae5cbcd7f807160001b6111dc565b61163e7f0164de4f7037b3c5a224d9e6973a985c2ec510915e8ce7f4c2debb79f9cd090360001b6111dc565b61166a7f9bae257b479d9e513cbdfe4dc5b63c1dbfe473b885d8fc6d77b15950ffee7d6360001b6111dc565b6000611676848461101e565b90506116a47f62a431c0aa9d0503e170b946078a23dc6492beecd00bbac49a0d526458f342f160001b6111dc565b6116d07f1ee6e14291d34c9c472b9751f4aa3ec0b129db20190e5c6cfe4d8d05a70b341e60001b6111dc565b7fffffffffffffffffffffffffffffffffffffffffffffffffffffffffffffffff81146118ac576117237f22e38147babe1a6f2312aec6f4ad4d2a278bfd6a5f2bd75a08ecf70e5800c80d60001b6111dc565b61174f7f31fd492c6c9f71c15322fd45752f836eea1b3df1e4d47bedd428b60d43597d0b60001b6111dc565b61177b7f936645f6fe1f58bea48f194a7a7960c72f07d2ea1d95b2bd9960caead32ccd6d60001b6111dc565b6117a77f70aa883d5fe9df31432dbd1fd33b0fd4b2290d7c0083495c0095c9e46c34d2ed60001b6111dc565b818110156117ea576040517f08c379a00000000000000000000000000000000000000000000000000000000081526004016117e190612a1b565b60405180910390fd5b6118167fc86cb42bc3185b6a5306c85468dfbe8adde8c002dde00e374b5e606a2a7111d560001b6111dc565b6118427f52ed8782c97811dfe2e5659d8550d89965f78103d67b1165d11d710e08272a6760001b6111dc565b61186e7f90eab9a54ea190d0378c16042b17f2b93c3feaebc791d7873222b4b48c3da42960001b6111dc565b61189a7f0cb9ebfbb5fb51b3acc7a1185cfe3768318117d47849e874c5644943f060af2460001b6111dc565b6118a784848484036111df565b6118d9565b6118d87f35f3002e1ee342ab0aecbcce1dccd0b08b67b60bb0b2ece99301da9f61c239ac60001b6111dc565b5b50505050565b61190b7f28a6645ff5535a330588463ff173b5ce448a9d4305d96bd0b9b742ed574c24e360001b6111dc565b6119377f3a13b592b10c052f8eb4ed96ce6eb128363405e9fa91d48b75257df0f5b5f1fb60001b6111dc565b6119637f0e490b4a7cad34782d41e5a0b5ed3e80b9afbc97ef5a59f117adc4bd2c58aa7860001b6111dc565b61198f7fbef7f9d22e8b3a71172d9e1846d142813cef23bd1bc613241fa4046ac3f1f90760001b6111dc565b600073ffffffffffffffffffffffffffffffffffffffff168373ffffffffffffffffffffffffffffffffffffffff1614156119ff576040517f08c379a00000000000000000000000000000000000000000000000000000000081526004016119f690612aad565b60405180910390fd5b611a2b7f6af6c402772ade9b558ebfc5c1c21cf7effd24e934bea7c018381ed5aae4809360001b6111dc565b611a577f7b38f6167570e2582c0a265a44a7a47d33f9e05bb66019e4705d9d0775b7b1dd60001b6111dc565b611a837fe0737c6b4a9d0a03d4cfcf7b67b1cf803defec65fc28c1c46cc59424a82b21ac60001b6111dc565b611aaf7fc58d4e68a71ce81c781f64842dafe91c5a237be0966ce836050ddf2f173e96e660001b6111dc565b600073ffffffffffffffffffffffffffffffffffffffff168273ffffffffffffffffffffffffffffffffffffffff161415611b1f576040517f08c379a0000000000000000000000000000000000000000000000000000000008152600401611b1690612b3f565b60405180910390fd5b611b4b7ffd3aaeb6609fe561b617380d4c8c88b301c4c55f08a1b46c6d0e44905f654a1660001b6111dc565b611b777f1452cd88d1f6887e1c77f117b33da8dd124593d50e4b0ec4bdc4b0a784dcb0ce60001b6111dc565b611ba37f3edf3391dd9f33f93d5ae49806ed2a2636609b99a9536598e4953d3ae313aa9c60001b6111dc565b611bae8383836123e6565b611bda7f0cd39d9669e5906c9a7d218b102dc57a3263021089db34975b9906df68c3be3360001b6111dc565b611c067f81f1788782e86c33d806336c07849b1044142a42d94a998ee17f1cdf4bf3bd6d60001b6111dc565b60008060008573ffffffffffffffffffffffffffffffffffffffff1673ffffffffffffffffffffffffffffffffffffffff168152602001908152602001600020549050611c757f02cbd108cfb7eda29473841f19367622845d2763de2ca8830bb33c9ea3e7433760001b6111dc565b611ca17fdb65f3961c40d2bb769274259125ef43d6d4d9bc8c4156f82cddddb0b6d41d6d60001b6111dc565b611ccd7f8492cd93ec2ed7de9c4659a36ccdfbb398dce9a91fbb19bbb430853d8d6a166260001b6111dc565b81811015611d10576040517f08c379a0000000000000000000000000000000000000000000000000000000008152600401611d0790612bd1565b60405180910390fd5b611d3c7fff5b89d2681ab1355a0724e3ecc7d153f4032c89090d95131875c84e50ed725260001b6111dc565b611d687fbbefb4356fb111a928bcdf5035a1961f893c633a7bf99c717b36809cab67cf6e60001b6111dc565b611d947f3ddddabf07dc0476645b0a3ff09b29e7c9f66b448719f2f3a22bfa8de1e5ec2c60001b6111dc565b611dc07f5032aa4cba4345f32bab9bb94711fbd50a7ecfa57ea3b6f8c022030dc3a9871760001b6111dc565b8181036000808673ffffffffffffffffffffffffffffffffffffffff1673ffffffffffffffffffffffffffffffffffffffff16815260200190815260200160002081905550611e317f3adb139c48d5f82accb4bfd1555b39e59dbaef1226327b946cacaefe2db0563860001b6111dc565b611e5d7f0b3abd6ef1e72ffd4739a251e241aef652a681403828f57a0c482c6b5c3a632960001b6111dc565b816000808573ffffffffffffffffffffffffffffffffffffffff1673ffffffffffffffffffffffffffffffffffffffff16815260200190815260200160002060008282540192505081905550611ed57f17e6f86cb63fcfb51557b6f239b8e0efce5c3883acbaaae172152edc5eab2ae460001b6111dc565b611f017f7e263544f05e0564440e28ca3bf6136502d7380319a29ecca5647a4a365d338d60001b6111dc565b8273ffffffffffffffffffffffffffffffffffffffff168473ffffffffffffffffffffffffffffffffffffffff167fddf252ad1be2c89b69c2b068fc378daa952ba7f163c4a11628f55a4df523b3ef84604051611f5e9190612621565b60405180910390a3611f927fa18936818eb15d682e8ca3117d6c9352a9ce50b55771abfdd8948ca7b264f38460001b6111dc565b611fbe7fe1675d86a864bea65576b750d881ad34c5a973d4e51928c3af71b1ff328842b260001b6111dc565b611fc9848484612417565b50505050565b611ffb7fff284438a5da18c3d7c02fc2a1653d4775bd93620907015be7f7fd6873c9a22d60001b6111dc565b6120277fcd66623444d83a13e0eeb7306bb2138a0d785bfd66f860ff2accf5d95b2eb7d160001b6111dc565b6120537fee90d77c778af8ec5325356fc10816c6661c6e48c245006d600e8f03f778d1e560001b6111dc565b61207f7fe2cd71fac914c18dc567ba4f608963c8d367fc22a8f58c2b6f5d1f1b5bc550fb60001b6111dc565b600073ffffffffffffffffffffffffffffffffffffffff168273ffffffffffffffffffffffffffffffffffffffff1614156120ef576040517f08c379a00000000000000000000000000000000000000000000000000000000081526004016120e690612c3d565b60405180910390fd5b61211b7f86a266d56f926e1dd50f73d6c1a3221e6160dfb5b010541dc31b142a3cccb1a560001b6111dc565b6121477f98b9dd09f71012916434479a8d3f2a666e5b12835d9fa99eaec6792fc730f61160001b6111dc565b6121737f6b1ad2285febb2b1ac301961d57c8cf9caa97cedeba853df3654b2257a78fcf560001b6111dc565b61217f600083836123e6565b6121ab7f0c21bde6158b3019749e232d6414f6e34cf81e1611f3468ac6f8e06b64c852fe60001b6111dc565b6121d77faf0c217862d176826138fdad0491d3ae882e0a24e490ff84b606df31dd576a7b60001b6111dc565b80600260008282546121e991906127c3565b9250508190555061221c7fd7453ffc58cc4906ab97b971bc5fbfb44bbdb4d675c167d07a9da2d3506820dc60001b6111dc565b6122487fa23fd02807e287d786c8b46d80e0f63c784616857c6c928922f388507362489e60001b6111dc565b6122747ffd6b8517d9f5c38c8d46eedde672bc4cd34a746cbbfd04e6c66aed9faef4803e60001b6111dc565b806000808473ffffffffffffffffffffffffffffffffffffffff1673ffffffffffffffffffffffffffffffffffffffff168152602001908152602001600020600082825401925050819055506122ec7fccc1452ad860f4da896e6aa89dc604172ce9ae673023a25cdb198f168df855fd60001b6111dc565b6123187f1e25d4dc22516d47e54e12ac489ad21add78cd79cf149760b9361890862f204f60001b6111dc565b8173ffffffffffffffffffffffffffffffffffffffff16600073ffffffffffffffffffffffffffffffffffffffff167fddf252ad1be2c89b69c2b068fc378daa952ba7f163c4a11628f55a4df523b3ef836040516123769190612621565b60405180910390a36123aa7fc327a8e7f30718b15356c2510f8371c4aeb9ef19f88518225ba091376b2ea3ff60001b6111dc565b6123d67fb2324b7bcbfd819431bd47700cc629c7cfd87d0e387e12e892c6c11fa148981660001b6111dc565b6123e260008383612417565b5050565b6124127fce9b90fc478acc16a8369ae41119416555002b02b55eac38d5db5bc5161ed01e60001b6111dc565b505050565b6124437f0a2da53ef6dc77b4e4db420400437dd5f30889689aa872432091eae4bbb0fea960001b6111dc565b505050565b600081519050919050565b600082825260208201905092915050565b60005b83811015612482578082015181840152602081019050612467565b83811115612491576000848401525b50505050565b6000601f19601f8301169050919050565b60006124b382612448565b6124bd8185612453565b93506124cd818560208601612464565b6124d681612497565b840191505092915050565b600060208201905081810360008301526124fb81846124a8565b905092915050565b600080fd5b600073ffffffffffffffffffffffffffffffffffffffff82169050919050565b600061253382612508565b9050919050565b61254381612528565b811461254e57600080fd5b50565b6000813590506125608161253a565b92915050565b6000819050919050565b61257981612566565b811461258457600080fd5b50565b60008135905061259681612570565b92915050565b600080604083850312156125b3576125b2612503565b5b60006125c185828601612551565b92505060206125d285828601612587565b9150509250929050565b60008115159050919050565b6125f1816125dc565b82525050565b600060208201905061260c60008301846125e8565b92915050565b61261b81612566565b82525050565b60006020820190506126366000830184612612565b92915050565b60008060006060848603121561265557612654612503565b5b600061266386828701612551565b935050602061267486828701612551565b925050604061268586828701612587565b9150509250925092565b600060ff82169050919050565b6126a58161268f565b82525050565b60006020820190506126c0600083018461269c565b92915050565b6000602082840312156126dc576126db612503565b5b60006126ea84828501612551565b91505092915050565b6000806040838503121561270a57612709612503565b5b600061271885828601612551565b925050602061272985828601612551565b9150509250929050565b7f4e487b7100000000000000000000000000000000000000000000000000000000600052602260045260246000fd5b6000600282049050600182168061277a57607f821691505b6020821081141561278e5761278d612733565b5b50919050565b7f4e487b7100000000000000000000000000000000000000000000000000000000600052601160045260246000fd5b60006127ce82612566565b91506127d983612566565b9250827fffffffffffffffffffffffffffffffffffffffffffffffffffffffffffffffff0382111561280e5761280d612794565b5b828201905092915050565b7f45524332303a2064656372656173656420616c6c6f77616e63652062656c6f7760008201527f207a65726f000000000000000000000000000000000000000000000000000000602082015250565b6000612875602583612453565b915061288082612819565b604082019050919050565b600060208201905081810360008301526128a481612868565b9050919050565b7f45524332303a20617070726f76652066726f6d20746865207a65726f2061646460008201527f7265737300000000000000000000000000000000000000000000000000000000602082015250565b6000612907602483612453565b9150612912826128ab565b604082019050919050565b60006020820190508181036000830152612936816128fa565b9050919050565b7f45524332303a20617070726f766520746f20746865207a65726f20616464726560008201527f7373000000000000000000000000000000000000000000000000000000000000602082015250565b6000612999602283612453565b91506129a48261293d565b604082019050919050565b600060208201905081810360008301526129c88161298c565b9050919050565b7f45524332303a20696e73756666696369656e7420616c6c6f77616e6365000000600082015250565b6000612a05601d83612453565b9150612a10826129cf565b602082019050919050565b60006020820190508181036000830152612a34816129f8565b9050919050565b7f45524332303a207472616e736665722066726f6d20746865207a65726f20616460008201527f6472657373000000000000000000000000000000000000000000000000000000602082015250565b6000612a97602583612453565b9150612aa282612a3b565b604082019050919050565b60006020820190508181036000830152612ac681612a8a565b9050919050565b7f45524332303a207472616e7366657220746f20746865207a65726f206164647260008201527f6573730000000000000000000000000000000000000000000000000000000000602082015250565b6000612b29602383612453565b9150612b3482612acd565b604082019050919050565b60006020820190508181036000830152612b5881612b1c565b9050919050565b7f45524332303a207472616e7366657220616d6f756e742065786365656473206260008201527f616c616e63650000000000000000000000000000000000000000000000000000602082015250565b6000612bbb602683612453565b9150612bc682612b5f565b604082019050919050565b60006020820190508181036000830152612bea81612bae565b9050919050565b7f45524332303a206d696e7420746f20746865207a65726f206164647265737300600082015250565b6000612c27601f83612453565b9150612c3282612bf1565b602082019050919050565b60006020820190508181036000830152612c5681612c1a565b905091905056fea264697066735822122015a1797756e71a7a78e95e829f94262cfcca8975629d2a31aac55cca2436f02364736f6c63430008080033",
  "linkReferences": {},
  "deployedLinkReferences": {}
}