{
  "_format": "hh-sol-artifact-1",
  "contractName": "AvalancheValidatorHealthAndUpgradesFacet",
  "sourceName": "contracts/validator/facets/AvalancheValidatorHealthAndUpgradesFacet.sol",
  "abi": [
    {
      "anonymous": false,
      "inputs": [
        {
          "indexed": true,
          "internalType": "address",
          "name": "owner",
          "type": "address"
        },
        {
          "indexed": true,
          "internalType": "address",
          "name": "referral",
          "type": "address"
        },
        {
          "indexed": false,
          "internalType": "uint256",
          "name": "time",
          "type": "uint256"
        }
      ],
      "name": "ReferralAddressManaged",
      "type": "event"
    },
    {
      "anonymous": false,
      "inputs": [
        {
          "indexed": true,
          "internalType": "address",
          "name": "owner",
          "type": "address"
        },
        {
          "indexed": true,
          "internalType": "uint256",
          "name": "toLevel",
          "type": "uint256"
        },
        {
          "indexed": true,
          "internalType": "uint256",
          "name": "amountMinted",
          "type": "uint256"
        },
        {
          "indexed": false,
          "internalType": "uint256",
          "name": "fromLevel",
          "type": "uint256"
        },
        {
          "indexed": false,
          "internalType": "uint256",
          "name": "amountBurned",
          "type": "uint256"
        },
        {
          "indexed": false,
          "internalType": "uint256",
          "name": "time",
          "type": "uint256"
        }
      ],
      "name": "upgradedShares",
      "type": "event"
    },
    {
      "inputs": [
        {
          "internalType": "address",
          "name": "referral",
          "type": "address"
        }
      ],
      "name": "manageReferralAddress",
      "outputs": [
        {
          "internalType": "bool",
          "name": "",
          "type": "bool"
        }
      ],
      "stateMutability": "nonpayable",
      "type": "function"
    },
    {
      "inputs": [
        {
          "internalType": "uint256[]",
          "name": "_IDs",
          "type": "uint256[]"
        }
      ],
      "name": "refreshAvalancheValidatorSharesHealth",
      "outputs": [
        {
          "internalType": "bool",
          "name": "",
          "type": "bool"
        }
      ],
      "stateMutability": "nonpayable",
      "type": "function"
    },
    {
      "inputs": [
        {
          "internalType": "uint256[]",
          "name": "_IDs",
          "type": "uint256[]"
        },
        {
          "internalType": "uint256[]",
          "name": "_numberOfUpgrades",
          "type": "uint256[]"
        }
      ],
      "name": "upgradeAvalancheValidatorLevel",
      "outputs": [
        {
          "internalType": "bool",
          "name": "",
          "type": "bool"
        }
      ],
      "stateMutability": "nonpayable",
      "type": "function"
    },
    {
      "inputs": [],
      "name": "withdrawRefunds",
      "outputs": [
        {
          "internalType": "bool",
          "name": "",
          "type": "bool"
        }
      ],
      "stateMutability": "nonpayable",
      "type": "function"
    }
  ],
  "bytecode": "0x608060405234801561001057600080fd5b50612525806100206000396000f3fe608060405234801561001057600080fd5b506004361061004c5760003560e01c806324b24e521461005157806395afc05c146100785780639676a11d14610080578063d62bae2414610093575b600080fd5b61006461005f36600461213f565b6100a6565b604051901515815260200160405180910390f35b61006461027c565b61006461008e36600461217c565b6104e3565b6100646100a13660046121e0565b610a72565b60007f66bd28df09c9271bd5696185e1f2db071a0ed825a4f7df621c22ef195c811e9f33825b84518110156101f9576100f8828683815181106100eb576100eb612216565b6020026020010151610d27565b15610164576040517f08c379a000000000000000000000000000000000000000000000000000000000815260206004820152601460248201527f556e64657220636f6f6c696e6720706572696f6400000000000000000000000060448201526064015b60405180910390fd5b60016101898387848151811061017c5761017c612216565b6020026020010151610db5565b10156101f1576040517f08c379a000000000000000000000000000000000000000000000000000000000815260206004820152600960248201527f4e6f207368617265730000000000000000000000000000000000000000000000604482015260640161015b565b6001016100cc565b5060005b8451811015610268574283600001603b01600087848151811061022257610222612216565b6020908102919091018101518252818101929092526040908101600090812073ffffffffffffffffffffffffffffffffffffffff871682529092529020556001016101fd565b5061027281610eb1565b5060019392505050565b7fd5b0c411a6c50ab7237d5bdf5f4be539f3a9603f77c2fe2a10b3944fcb2c324b8054600091906002141561030d576040517f08c379a000000000000000000000000000000000000000000000000000000000815260206004820152601f60248201527f5265656e7472616e637947756172643a207265656e7472616e742063616c6c00604482015260640161015b565b600281556103196110a6565b7f66bd28df09c9271bd5696185e1f2db071a0ed825a4f7df621c22ef195c811ed8547f66bd28df09c9271bd5696185e1f2db071a0ed825a4f7df621c22ef195c811e9f90806103c4576040517f08c379a000000000000000000000000000000000000000000000000000000000815260206004820152601160248201527f4e6f20726566756e647320616374697665000000000000000000000000000000604482015260640161015b565b80421161042d576040517f08c379a000000000000000000000000000000000000000000000000000000000815260206004820152601d60248201527f52656465656d696e672074696d65206973207374696c6c2076616c6964000000604482015260640161015b565b603782015415610499576040517f08c379a000000000000000000000000000000000000000000000000000000000815260206004820152601760248201527f4e6f7420616c6c20726566756e647320636c61696d6564000000000000000000604482015260640161015b565b5060006038820181905560398201819055603482015560330180547fffffffffffffffffffffffffffffffffffffffffffffffffffffffffffffff00169055600191506001905590565b7fd5b0c411a6c50ab7237d5bdf5f4be539f3a9603f77c2fe2a10b3944fcb2c324b80546000919060021415610574576040517f08c379a000000000000000000000000000000000000000000000000000000000815260206004820152601f60248201527f5265656e7472616e637947756172643a207265656e7472616e742063616c6c00604482015260640161015b565b60028155825184517f66bd28df09c9271bd5696185e1f2db071a0ed825a4f7df621c22ef195c811e9f911480156105ad57508451600111155b80156105bb57506004855111155b610621576040517f08c379a000000000000000000000000000000000000000000000000000000000815260206004820152601760248201527f57726f6e6720696e70757420636f6d706f736974696f6e000000000000000000604482015260640161015b565b60005b855181101561073c5785818151811061063f5761063f612216565b6020026020010151600414156106b1576040517f08c379a000000000000000000000000000000000000000000000000000000000815260206004820152601e60248201527f4c766c2035206973206d6178696d756d206c6576656c20616c6c6f7765640000604482015260640161015b565b60008582815181106106c5576106c5612216565b602002602001015111610734576040517f08c379a000000000000000000000000000000000000000000000000000000000815260206004820152601360248201527f4e6f20757067726164657320746f206d616b6500000000000000000000000000604482015260640161015b565b600101610624565b50610745611171565b503361075081610eb1565b60005b8651811015610a6157600087828151811061077057610770612216565b6020026020010151905060008160016107899190612274565b9050600088848151811061079f5761079f612216565b6020026020010151905080600a6107b6919061228c565b6107c08685610db5565b1015610828576040517f08c379a000000000000000000000000000000000000000000000000000000000815260206004820152601160248201527f4e6f7420656e6f75676820736861726573000000000000000000000000000000604482015260640161015b565b6000828152600e87016020908152604080832054600f8a0190925290912054610852908390612274565b11156108ba576040517f08c379a000000000000000000000000000000000000000000000000000000000815260206004820152601e60248201527f4578636565646573206e657874206c6576656c206d617820737570706c790000604482015260640161015b565b6000838152600f8701602081815260408084208054600a870290819003909155600e8b018352818520805491909103905585845291905290208054820190556109038584610d27565b1561092f5760008381526010870160205260408082208054600a85029003905583825290208054820190555b6000828152603c87016020908152604080832073ffffffffffffffffffffffffffffffffffffffff891680855290835281842080547fffffffffffffffffffffffffffffffffffffffffffffffffffffffffffffff00166001179055868452603b8a018084528285208286528452828520548786529084528285209185529252909120556109c885846109c384600a61228c565b6112ad565b6109d28584611508565b506109ee858383604051806020016040528060008152506115c0565b808273ffffffffffffffffffffffffffffffffffffffff87167f50de47ee647563a35c90bc5d81825821e267d6767c79d4ba564e991fe4c6d1b586610a3485600a61228c565b604080519283526020830191909152429082015260600160405180910390a4836001019350505050610753565b506001935050506001905592915050565b3360009081527f66bd28df09c9271bd5696185e1f2db071a0ed825a4f7df621c22ef195c811edc60205260408120547f66bd28df09c9271bd5696185e1f2db071a0ed825a4f7df621c22ef195c811e9f9073ffffffffffffffffffffffffffffffffffffffff908116908416811415610b47576040517f08c379a000000000000000000000000000000000000000000000000000000000815260206004820152600c60248201527f53414d455f414444524553530000000000000000000000000000000000000000604482015260640161015b565b336000908152603d83016020526040902080547fffffffffffffffffffffffff00000000000000000000000000000000000000001673ffffffffffffffffffffffffffffffffffffffff86811691909117909155811615610be55773ffffffffffffffffffffffffffffffffffffffff81166000908152603e830160205260408120805460019290610bda9084906122c9565b90915550610cd09050565b73ffffffffffffffffffffffffffffffffffffffff841615610cd05773ffffffffffffffffffffffffffffffffffffffff84166000908152603e830160205260408120805460019290610c39908490612274565b909155505073ffffffffffffffffffffffffffffffffffffffff84166000908152603e83016020526040902054600f1015610cd0576040517f08c379a000000000000000000000000000000000000000000000000000000000815260206004820152601c60248201527f4d41585f524546455252414c535f414d4f554e545f5245414348454400000000604482015260640161015b565b60405142815273ffffffffffffffffffffffffffffffffffffffff85169033907f034d677186e937a6de8b88e8e1b4fb7a8eb52e3c8728f8ae9d00694a3da6487f9060200160405180910390a35060019392505050565b60008181527f66bd28df09c9271bd5696185e1f2db071a0ed825a4f7df621c22ef195c811eda6020908152604080832073ffffffffffffffffffffffffffffffffffffffff861684529091528120547f66bd28df09c9271bd5696185e1f2db071a0ed825a4f7df621c22ef195c811e9f90421015610da9576001915050610daf565b60009150505b92915050565b60007f66bd28df09c9271bd5696185e1f2db071a0ed825a4f7df621c22ef195c811e9f73ffffffffffffffffffffffffffffffffffffffff8416610e7b576040517f08c379a000000000000000000000000000000000000000000000000000000000815260206004820152602a60248201527f455243313135353a2061646472657373207a65726f206973206e6f742061207660448201527f616c6964206f776e657200000000000000000000000000000000000000000000606482015260840161015b565b60009283526001016020908152604080842073ffffffffffffffffffffffffffffffffffffffff95909516845293905250205490565b7f66bd28df09c9271bd5696185e1f2db071a0ed825a4f7df621c22ef195c811e9f60005b6005811015610efa57610ee88382610d27565b15610ef257505050565b600101610ed5565b506000610f05611743565b90506000610f1284611895565b905060005b600581101561109f57610f286119d3565b6000828152602e86016020526040902055828160058110610f4b57610f4b612216565b6020908102919091015160008381526030870190925260409091205573ffffffffffffffffffffffffffffffffffffffff851615611097576000818152603285016020908152604080832073ffffffffffffffffffffffffffffffffffffffff89168452909152902054828260058110610fc757610fc7612216565b6020020151610fd691906122c9565b6000828152602a8601602052604081208054909190610ff69084906122c9565b90915550829050816005811061100e5761100e612216565b602090810291909101516000838152603287018352604080822073ffffffffffffffffffffffffffffffffffffffff8a168352909352919091205582816005811061105b5761105b612216565b602090810291909101516000838152603187018352604080822073ffffffffffffffffffffffffffffffffffffffff8a16835290935291909120555b600101610f17565b5050505050565b7fc8fcad8db84d3cc18b4c41d551ea0ee66dd599cde068d998e57d5e09332c131c6004015473ffffffffffffffffffffffffffffffffffffffff16331461116f576040517f08c379a000000000000000000000000000000000000000000000000000000000815260206004820152602260248201527f4c69624469616d6f6e643a204d75737420626520636f6e7472616374206f776e60448201527f6572000000000000000000000000000000000000000000000000000000000000606482015260840161015b565b565b7f66bd28df09c9271bd5696185e1f2db071a0ed825a4f7df621c22ef195c811eb1547f66bd28df09c9271bd5696185e1f2db071a0ed825a4f7df621c22ef195c811eb2546000917f66bd28df09c9271bd5696185e1f2db071a0ed825a4f7df621c22ef195c811e9f91426111e58383612274565b81111561120457601384018190556111fd8382612274565b9450611211565b61120e8383612274565b94505b60148401546112208484612274565b61122a91906122c9565b81111580611240575061123d8383612274565b81115b6112a6576040517f08c379a000000000000000000000000000000000000000000000000000000000815260206004820152601960248201527f5265776172647320617265206265696e67207570646174656400000000000000604482015260640161015b565b5050505090565b7f66bd28df09c9271bd5696185e1f2db071a0ed825a4f7df621c22ef195c811e9f73ffffffffffffffffffffffffffffffffffffffff8416611371576040517f08c379a000000000000000000000000000000000000000000000000000000000815260206004820152602360248201527f455243313135353a206275726e2066726f6d20746865207a65726f206164647260448201527f6573730000000000000000000000000000000000000000000000000000000000606482015260840161015b565b33600061137d85611a2a565b9050600061138a85611a2a565b90506113aa83886000858560405180602001604052806000815250611a75565b6000868152600185016020908152604080832073ffffffffffffffffffffffffffffffffffffffff8b1684529091529020548581101561146b576040517f08c379a0000000000000000000000000000000000000000000000000000000008152602060048201526024808201527f455243313135353a206275726e20616d6f756e7420657863656564732062616c60448201527f616e636500000000000000000000000000000000000000000000000000000000606482015260840161015b565b6000878152600186016020908152604080832073ffffffffffffffffffffffffffffffffffffffff8c81168086529184528285208b8703905582518c81529384018b90529092908816917fc3d58168c5ae7397731d063d5bbf3d657854427343f4c083240f7aacaa2d0f62910160405180910390a46114fe84896000868660405180602001604052806000815250611cc2565b5050505050505050565b60007f66bd28df09c9271bd5696185e1f2db071a0ed825a4f7df621c22ef195c811e9f816115368585610db5565b61153e575060015b80156115b5576000848152603b83016020908152604080832073ffffffffffffffffffffffffffffffffffffffff8916808552908352818420849055878452603c86018352818420908452909152902080547fffffffffffffffffffffffffffffffffffffffffffffffffffffffffffffff001690555b506001949350505050565b7f66bd28df09c9271bd5696185e1f2db071a0ed825a4f7df621c22ef195c811e9f73ffffffffffffffffffffffffffffffffffffffff8516611684576040517f08c379a000000000000000000000000000000000000000000000000000000000815260206004820152602160248201527f455243313135353a206d696e7420746f20746865207a65726f2061646472657360448201527f7300000000000000000000000000000000000000000000000000000000000000606482015260840161015b565b33600061169086611a2a565b9050600061169d86611a2a565b90506116ae8360008a85858a611a75565b6000878152600185016020908152604080832073ffffffffffffffffffffffffffffffffffffffff8c811680865291845282852080548c01905582518c81529384018b9052909392908716917fc3d58168c5ae7397731d063d5bbf3d657854427343f4c083240f7aacaa2d0f62910160405180910390a46117348360008a85858a611cc2565b6114fe8360008a8a8a8a611d69565b61174b612026565b7f66bd28df09c9271bd5696185e1f2db071a0ed825a4f7df621c22ef195c811e9f60005b6005811015611890576000818152601083016020908152604080832054600f8601909252909120546117a191906122c9565b6117d25760008181526030830160205260409020548382600581106117c8576117c8612216565b6020020152611888565b6000818152601083016020908152604080832054600f8601909252909120546117fb91906122c9565b6000828152602e840160205260409020546118146119d3565b61181e91906122c9565b6000838152602f85016020526040902054611839919061228c565b61184b90670de0b6b3a764000061228c565b61185591906122e0565b60008281526030840160205260409020546118709190612274565b83826005811061188257611882612216565b60200201525b60010161176f565b505090565b61189d612026565b7f66bd28df09c9271bd5696185e1f2db071a0ed825a4f7df621c22ef195c811e9f60006118c8611743565b905060005b60058110156119cb5773ffffffffffffffffffffffffffffffffffffffff851661190f57600084826005811061190557611905612216565b60200201526119c3565b6000818152603284016020908152604080832073ffffffffffffffffffffffffffffffffffffffff891680855290835281842054858552603188018452828520918552925290912054670de0b6b3a76400009084846005811061197457611974612216565b602002015161198391906122c9565b61198d8885610db5565b611997919061228c565b6119a191906122e0565b6119ab9190612274565b8482600581106119bd576119bd612216565b60200201525b6001016118cd565b505050919050565b7f66bd28df09c9271bd5696185e1f2db071a0ed825a4f7df621c22ef195c811ecc546000907f66bd28df09c9271bd5696185e1f2db071a0ed825a4f7df621c22ef195c811e9f90611a24904261200d565b91505090565b60408051600180825281830190925260609160009190602080830190803683370190505090508281600081518110611a6457611a64612216565b602090810291909101015292915050565b7f66bd28df09c9271bd5696185e1f2db071a0ed825a4f7df621c22ef195c811e9f6000805b8551811015611cb7578173ffffffffffffffffffffffffffffffffffffffff168873ffffffffffffffffffffffffffffffffffffffff1614158015611b0b57508173ffffffffffffffffffffffffffffffffffffffff168773ffffffffffffffffffffffffffffffffffffffff1614155b15611caf57611b26888783815181106100eb576100eb612216565b158015611b465750611b44878783815181106100eb576100eb612216565b155b15611c4d5780611b6257611b5988610eb1565b611b6287610eb1565b4283600001603b016000888481518110611b7e57611b7e612216565b6020026020010151815260200190815260200160002060008a73ffffffffffffffffffffffffffffffffffffffff1673ffffffffffffffffffffffffffffffffffffffff168152602001908152602001600020819055504283600001603b016000888481518110611bf157611bf1612216565b6020026020010151815260200190815260200160002060008973ffffffffffffffffffffffffffffffffffffffff1673ffffffffffffffffffffffffffffffffffffffff16815260200190815260200160002081905550611caf565b6040517f08c379a000000000000000000000000000000000000000000000000000000000815260206004820152601460248201527f556e64657220636f6f6c696e6720706572696f64000000000000000000000000604482015260640161015b565b600101611a9a565b505050505050505050565b6000805b84518110156114fe578173ffffffffffffffffffffffffffffffffffffffff168773ffffffffffffffffffffffffffffffffffffffff1614158015611d3757508173ffffffffffffffffffffffffffffffffffffffff168673ffffffffffffffffffffffffffffffffffffffff1614155b15611d6157611d5f87868381518110611d5257611d52612216565b6020026020010151611508565b505b600101611cc6565b73ffffffffffffffffffffffffffffffffffffffff84163b15612005576040517ff23a6e6100000000000000000000000000000000000000000000000000000000815273ffffffffffffffffffffffffffffffffffffffff85169063f23a6e6190611de09089908990889088908890600401612386565b602060405180830381600087803b158015611dfa57600080fd5b505af1925050508015611e48575060408051601f3d9081017fffffffffffffffffffffffffffffffffffffffffffffffffffffffffffffffe0168201909252611e45918101906123d6565b60015b611f3257611e54612418565b806308c379a01415611ea85750611e69612434565b80611e745750611eaa565b806040517f08c379a000000000000000000000000000000000000000000000000000000000815260040161015b91906124dc565b505b6040517f08c379a000000000000000000000000000000000000000000000000000000000815260206004820152603460248201527f455243313135353a207472616e7366657220746f206e6f6e2d4552433131353560448201527f526563656976657220696d706c656d656e746572000000000000000000000000606482015260840161015b565b7fffffffff0000000000000000000000000000000000000000000000000000000081167ff23a6e610000000000000000000000000000000000000000000000000000000014612003576040517f08c379a000000000000000000000000000000000000000000000000000000000815260206004820152602860248201527f455243313135353a204552433131353552656365697665722072656a6563746560448201527f6420746f6b656e73000000000000000000000000000000000000000000000000606482015260840161015b565b505b505050505050565b60008183111561201d578161201f565b825b9392505050565b6040518060a001604052806005906020820280368337509192915050565b7f4e487b7100000000000000000000000000000000000000000000000000000000600052604160045260246000fd5b7fffffffffffffffffffffffffffffffffffffffffffffffffffffffffffffffe0601f830116810181811067ffffffffffffffff821117156120b7576120b7612044565b6040525050565b600082601f8301126120cf57600080fd5b8135602067ffffffffffffffff8211156120eb576120eb612044565b8160051b6040516120fe83830182612073565b9283528481018201928281018785111561211757600080fd5b83870192505b84831015612134578235815291830191830161211d565b509695505050505050565b60006020828403121561215157600080fd5b813567ffffffffffffffff81111561216857600080fd5b612174848285016120be565b949350505050565b6000806040838503121561218f57600080fd5b823567ffffffffffffffff808211156121a757600080fd5b6121b3868387016120be565b935060208501359150808211156121c957600080fd5b506121d6858286016120be565b9150509250929050565b6000602082840312156121f257600080fd5b813573ffffffffffffffffffffffffffffffffffffffff8116811461201f57600080fd5b7f4e487b7100000000000000000000000000000000000000000000000000000000600052603260045260246000fd5b7f4e487b7100000000000000000000000000000000000000000000000000000000600052601160045260246000fd5b6000821982111561228757612287612245565b500190565b6000817fffffffffffffffffffffffffffffffffffffffffffffffffffffffffffffffff04831182151516156122c4576122c4612245565b500290565b6000828210156122db576122db612245565b500390565b600082612316577f4e487b7100000000000000000000000000000000000000000000000000000000600052601260045260246000fd5b500490565b6000815180845260005b8181101561234157602081850181015186830182015201612325565b81811115612353576000602083870101525b50601f017fffffffffffffffffffffffffffffffffffffffffffffffffffffffffffffffe0169290920160200192915050565b600073ffffffffffffffffffffffffffffffffffffffff808816835280871660208401525084604083015283606083015260a060808301526123cb60a083018461231b565b979650505050505050565b6000602082840312156123e857600080fd5b81517fffffffff000000000000000000000000000000000000000000000000000000008116811461201f57600080fd5b600060033d11156124315760046000803e5060005160e01c5b90565b600060443d10156124425790565b6040517ffffffffffffffffffffffffffffffffffffffffffffffffffffffffffffffffc803d016004833e81513d67ffffffffffffffff816024840111818411171561249057505050505090565b82850191508151818111156124a85750505050505090565b843d87010160208285010111156124c25750505050505090565b6124d160208286010187612073565b509095945050505050565b60208152600061201f602083018461231b56fea2646970667358221220bf8e43d4dc159ad74980f33b65dc18bbdcaf97b6a5f9868edbf455b60a71999064736f6c63430008080033",
  "linkReferences": {},
  "deployedLinkReferences": {}
}