{
  "_format": "hh-sol-artifact-1",
  "contractName": "AvalancheValidatorHealthAndUpgradesFacet",
  "sourceName": "contracts/validator/facets/AvalancheValidatorHealthAndUpgradesFacet.sol",
  "abi": [
    {
      "anonymous": false,
      "inputs": [
        {
          "indexed": true,
          "internalType": "address",
          "name": "owner",
          "type": "address"
        },
        {
          "indexed": true,
          "internalType": "address",
          "name": "referral",
          "type": "address"
        },
        {
          "indexed": false,
          "internalType": "uint256",
          "name": "time",
          "type": "uint256"
        }
      ],
      "name": "ReferralAddressManaged",
      "type": "event"
    },
    {
      "anonymous": false,
      "inputs": [
        {
          "indexed": true,
          "internalType": "address",
          "name": "owner",
          "type": "address"
        },
        {
          "indexed": true,
          "internalType": "uint256",
          "name": "toLevel",
          "type": "uint256"
        },
        {
          "indexed": true,
          "internalType": "uint256",
          "name": "amountMinted",
          "type": "uint256"
        },
        {
          "indexed": false,
          "internalType": "uint256",
          "name": "fromLevel",
          "type": "uint256"
        },
        {
          "indexed": false,
          "internalType": "uint256",
          "name": "amountBurned",
          "type": "uint256"
        },
        {
          "indexed": false,
          "internalType": "uint256",
          "name": "time",
          "type": "uint256"
        }
      ],
      "name": "upgradedShares",
      "type": "event"
    },
    {
      "inputs": [
        {
          "internalType": "address",
          "name": "referral",
          "type": "address"
        }
      ],
      "name": "manageReferralAddress",
      "outputs": [
        {
          "internalType": "bool",
          "name": "",
          "type": "bool"
        }
      ],
      "stateMutability": "nonpayable",
      "type": "function"
    },
    {
      "inputs": [
        {
          "internalType": "uint256[]",
          "name": "_ids",
          "type": "uint256[]"
        }
      ],
      "name": "refreshAvalancheValidatorSharesHealth",
      "outputs": [
        {
          "internalType": "bool",
          "name": "",
          "type": "bool"
        }
      ],
      "stateMutability": "nonpayable",
      "type": "function"
    },
    {
      "inputs": [
        {
          "internalType": "uint256[]",
          "name": "_ids",
          "type": "uint256[]"
        },
        {
          "internalType": "uint256[]",
          "name": "_numberOfUpgrades",
          "type": "uint256[]"
        }
      ],
      "name": "upgradeAvalancheValidatorLevel",
      "outputs": [
        {
          "internalType": "bool",
          "name": "",
          "type": "bool"
        }
      ],
      "stateMutability": "nonpayable",
      "type": "function"
    },
    {
      "inputs": [],
      "name": "withdrawRefunds",
      "outputs": [
        {
          "internalType": "bool",
          "name": "",
          "type": "bool"
        }
      ],
      "stateMutability": "nonpayable",
      "type": "function"
    }
  ],
  "bytecode": "0x60806040523480156200001157600080fd5b5061843d80620000226000396000f3fe608060405234801561001057600080fd5b506004361061004c5760003560e01c806324b24e521461005157806395afc05c146100815780639676a11d1461009f578063d62bae24146100cf575b600080fd5b61006b6004803603810190610066919061742d565b6100ff565b6040516100789190617491565b60405180910390f35b610089610741565b6040516100969190617491565b60405180910390f35b6100b960048036038101906100b491906174ac565b610f38565b6040516100c69190617491565b60405180910390f35b6100e960048036038101906100e49190617582565b612645565b6040516100f69190617491565b60405180910390f35b600061012d7ffb6ec48146d95efcafa62248d9ad81195b80a723856cf2e50a7563c509f49dd560001b612efa565b6101597f09c540e7e49ae310b7a973031a2a1104622c11e6cfd00a47fb9b9f87adc73aca60001b612efa565b6101857f9f578272297c09b6a994d08759fd3fa1fa90d63053e1f283ed76df0d86b7e80960001b612efa565b600061018f612efd565b90506101bd7f6cc5e53cc6208576d8319cd49c4ff73ab20da9626defdce5f51876eda21d320760001b612efa565b6101e97f821b7ce5cf4fc8818ec89b2a303baf5fb727b0efb7a28455c8d262b56b99dde960001b612efa565b60006101f3612fdb565b90506102217f50838d58689ea47a7a7163cb6faadfc7977908b2980eaae72f3eb10430a07ad960001b612efa565b61024d7fe04fec3eadc314003176b4f5bd9000e27f4c4865da3d2e4ca1dbc8053fc4895960001b612efa565b60005b84518110156104e7576102857ffe95dfe1d8e79e4f969f73d51363944d66c72ab179c0eb784d8c851dbfe7549260001b612efa565b6102b17fd4006a6851bd6af613cf7a38a8a5a1791ed9bee3bc78213f30d405594cb7155360001b612efa565b6102dd7f798b41610fcfddc596f943abbf0045a3cbbe09af872532615b7b67badc33239460001b612efa565b610301828683815181106102f4576102f36175af565b5b6020026020010151613067565b15610341576040517f08c379a00000000000000000000000000000000000000000000000000000000081526004016103389061763b565b60405180910390fd5b61036d7fb11af46ef4f8ef65d4bd8a6708e32219a31464d531f55ddbc1c73c3e4bf332ce60001b612efa565b6103997fc0310299f671f893b64da4f255986d341414e8d0d323a770be491b95a0ff475960001b612efa565b6103c57fa3063edffd3410afc969994338b5fe91d6942aba7175f3e040ffb55f3d08b4b160001b612efa565b6103f17f01e41c144c3d2b049dd15eb3ded9493e9740c380dbb47e28a477785c80657acd60001b612efa565b60016104178387848151811061040a576104096175af565b5b60200260200101516132cc565b1015610458576040517f08c379a000000000000000000000000000000000000000000000000000000000815260040161044f906176a7565b60405180910390fd5b6104847f67744f4eb140a30bf448f55f74a92ba9a17b03b883989d9e4fe3c22c8eb8666060001b612efa565b6104b07fb0d3014f1f734c347da558eee080e29ea3f08ae4d74080bee2a340decebf66c160001b612efa565b6104dc7ff0ffa5f21a7f1429a8ada9a0ec27e20742249baf3d873c1e9278a931057249e360001b612efa565b806001019050610250565b506105147f18c9081f60fcd62e5735aac405ee5c63b8abdf0aa5816eff7e73cdf0b1e58d4760001b612efa565b6105407fce86e352d6290859a0ce1d53a37c69e96a5e97fa46c853be65d662b29b1a8a1160001b612efa565b60005b845181101561067b576105787f6ce83a1b2199a2df450cc5e5c1a74b2db7fa86ca98bacd81e4ddba976d3bd93360001b612efa565b6105a47f3ace9abe787646b4b7d6b3eb34d6addb5408b0766c6b8385c91a433c739015ce60001b612efa565b4283600001603b0160008784815181106105c1576105c06175af565b5b6020026020010151815260200190815260200160002060008473ffffffffffffffffffffffffffffffffffffffff1673ffffffffffffffffffffffffffffffffffffffff168152602001908152602001600020819055506106447f2944a856762b3a053d7093783bbff4b2906088913595c10f1ed937e60b68b38460001b612efa565b6106707f8a88659351eaa1e5ce7a3a46f27771273a4c447c829b854876237d101ea2369660001b612efa565b806001019050610543565b506106a87f93fc9593489184b3f9be7a6455989e62a3df37ae7e94272e1595f98c376c8fab60001b612efa565b6106d47f4777a73e2e61bb916d67e5559858b38103dba0398485c624661ea61a7143a93160001b612efa565b6106de8185613535565b61070a7fdbf04a93db4d4abf13d1b5ae429873ea29cd535f68a6232c910082af075de5ca60001b612efa565b6107367f093104bfec8575a84e3ada3ee0a18033d05ac531b8cd84ff1c794ce95958746760001b612efa565b600192505050919050565b600061076f7f07518cca7ebbf4437772fe2cb690ff64777393bd9fd7eb92d0b47588cfe8214160001b613e8a565b61079b7fabc08d8b1539454e09273157f545fe4d0ef7695ab89c1394e5212c033c437e7960001b613e8a565b6107c77f19d77c6eb9bf7fa50665a0969471cf295bfd2c58da71341ebf868c4cfedd5d0360001b613e8a565b60006107d1613e8d565b90506107ff7f72f69fd9e290e66cfab98577692648fa3d5f8c684e8a73ded40194f628c836e160001b613e8a565b61082b7f36e3d408aa429b34170b7218918f6c8abf4f6d588a98ff7574bb57bb37afc81460001b613e8a565b6108577f28d0b526291cfc9268f4e9e0873a4d41b2d2d897a4d50b193103c6f44f06bc7960001b613e8a565b60028160000154141561089f576040517f08c379a000000000000000000000000000000000000000000000000000000000815260040161089690617713565b60405180910390fd5b6108cb7f722cacd14aa9d7e08255167707b50322edd4a13c7bd2d53ffa8637b8bd83971260001b613e8a565b6108f77f6ea6194c47f224b0ebc691ec7a019eb110e7ca205f8642da782fedbb941fa78360001b613e8a565b6109237f7bf39aae89ed9f6b7d5c3470b41d26e979f443feb71772d6646fb5723621ef6460001b613e8a565b600281600001819055506109597f2204524f98dc310b2eff42f1da945fe4e1cd4b391fdce249ec0bedaf99ec918760001b613e8a565b6109857fa607ec1c419c14f2cd8ac26734ff51de3dd2af0b3c27774b03bc72c674fc84c660001b612efa565b6109b17f5a505f81f32ce5a2137d54b579001c5095b7d2e6400e12634465454aeaf3c5bd60001b612efa565b6109dd7f7cc50d92c1a9cba6d745d0ee4de384b5862b85ce53445f89da835206e9ac871360001b612efa565b6109e5613f6b565b610a117fd2b575ade0ced655dcf48f82f6dd435b36be63ee21b484eb5c809ca8e16ddde560001b612efa565b610a3d7febdfa845db60bdf47c004e90caac8bce74c216650d358f47c5c9cc7bf21582d560001b612efa565b6000610a47612efd565b9050610a757fd15162052c76f6eb9209e883912ccea1b2a5a18e3bc8ee1086598886d7be418b60001b612efa565b610aa17fbc6b1d011f33866ae60c87c564c139063e59077062f1bfefb1beb28ce9884f9f60001b612efa565b600081600001603901549050610ad97f9402f001a188686640eb80a8c2b966efa382aabc0c8a8f0bda296eeed976e0c560001b612efa565b610b057fc5a857a41df72cab46c4a3a5260e9bf2cb42192a94d1a5ac21900e76dfa41af460001b612efa565b610b317fce48e25f3f215ee8104bc7547d1ff69f9f58a31e0e634215032467ff38ee06ce60001b612efa565b60008111610b74576040517f08c379a0000000000000000000000000000000000000000000000000000000008152600401610b6b9061777f565b60405180910390fd5b610ba07ff41bcf7b56bfbbb8f8f763799269f5640bf872aee1688e636d93970f1a6e25ad60001b612efa565b610bcc7f0e55b07f3d57ffb62fd2cd2a78525111d8a4a35dc8f97d3d557b0b809f4e348760001b612efa565b610bf87fe84e2b9a9dbd7a600112d3cf4a29aca411c735d9a651eac8adc72756fb0bc90260001b612efa565b610c247fa7825d37730568a5eab1af43dc26797043c8f748f188f1299e7aee854749cb6c60001b612efa565b804211610c66576040517f08c379a0000000000000000000000000000000000000000000000000000000008152600401610c5d906177eb565b60405180910390fd5b610c927f7d7604711abc29d88112c7454ae8ca9047f61d1ef758cb31fb97faedc8fd2a9160001b612efa565b610cbe7f13ec8ee14b062ddb68c0df172aea23628a6c7ec268b723348bb9ebd7f9b6c31860001b612efa565b610cea7f4f94af543f9e431ca6a0c000e4d15a0ea36d79e187559ec13e9267f3f415abd260001b612efa565b610d167f4f08d9abab36e9d262d2379bbbbc47fd7683f2440d047b3fec599df6b03deaca60001b612efa565b6000826000016037015414610d60576040517f08c379a0000000000000000000000000000000000000000000000000000000008152600401610d5790617857565b60405180910390fd5b610d8c7f2b43b1c0a7e6a645ab51cac84628135878b580a27b549499fad29524ba55a0ad60001b612efa565b610db87f9408c5d449b94340d62270b39a29c533d071eccc49fdfe0150b97be7be84449860001b612efa565b8160000160380160009055610def7f608eaf9d69b5ee1acc8cd66963db2a35abd98b6eb4e162bb2670ddc359614c5c60001b612efa565b8160000160390160009055610e267f922aff1c98cf7c85dfed9ec20a9e40ac61319469a8d8520215752176980817bc60001b612efa565b8160000160340160009055610e5d7fd8e3414cf6222082eee1b82d34902c4f87456d39a4ca855bdb584819382047d560001b612efa565b8160000160330160006101000a81549060ff0219169055610ea07f306cf869d88457dda2c364a67527babb4fb223d8a990d6300987fa46ee93f7f660001b612efa565b610ecc7fa48491dbe204806282e274cbedffe4d37c0771768b765cb497fc17971e66bb5760001b612efa565b600193505050610efe7fdd8e023589bb1f5964a3b72d19cef9afc68cf0ae7bf78e308304ea652461902d60001b613e8a565b610f2a7f185fbade08d766ef5c0b5eb0d1f659bf506ff5f70cebf3477019e6c0cb0fb98460001b613e8a565b600181600001819055505090565b6000610f667f07518cca7ebbf4437772fe2cb690ff64777393bd9fd7eb92d0b47588cfe8214160001b613e8a565b610f927fabc08d8b1539454e09273157f545fe4d0ef7695ab89c1394e5212c033c437e7960001b613e8a565b610fbe7f19d77c6eb9bf7fa50665a0969471cf295bfd2c58da71341ebf868c4cfedd5d0360001b613e8a565b6000610fc8613e8d565b9050610ff67f72f69fd9e290e66cfab98577692648fa3d5f8c684e8a73ded40194f628c836e160001b613e8a565b6110227f36e3d408aa429b34170b7218918f6c8abf4f6d588a98ff7574bb57bb37afc81460001b613e8a565b61104e7f28d0b526291cfc9268f4e9e0873a4d41b2d2d897a4d50b193103c6f44f06bc7960001b613e8a565b600281600001541415611096576040517f08c379a000000000000000000000000000000000000000000000000000000000815260040161108d90617713565b60405180910390fd5b6110c27f722cacd14aa9d7e08255167707b50322edd4a13c7bd2d53ffa8637b8bd83971260001b613e8a565b6110ee7f6ea6194c47f224b0ebc691ec7a019eb110e7ca205f8642da782fedbb941fa78360001b613e8a565b61111a7f7bf39aae89ed9f6b7d5c3470b41d26e979f443feb71772d6646fb5723621ef6460001b613e8a565b600281600001819055506111507f2204524f98dc310b2eff42f1da945fe4e1cd4b391fdce249ec0bedaf99ec918760001b613e8a565b61117c7f9ed3e2f01b239f7c0dd92d6ed2eb1d5a01a5ab82505ef48625f8a41d23f3183a60001b612efa565b6111a87fbc2fde955d9e05812430c3e315840426316bc36ab5d148ae7acad3d6779f84f760001b612efa565b6111d47feae2b6550809a55b579680903f2073304185dac8b84f0576eec96291014585ff60001b612efa565b60006111de612efd565b905061120c7fa6264a3a5fefe6f1ae99f196f73cdb4de389232a590458201692f4999c7f61d260001b612efa565b6112387fb072f9a7b77b9509b2a454af398481eeff38fdcd4c3e3fbb553df63d40164a9a60001b612efa565b6112647fb68c4fd1eadd2fb6a3c91a64f442e0739111a31caa2a3c08440206710f4b89fb60001b612efa565b8351855114801561127757508451600111155b801561128557506004855111155b6112c4576040517f08c379a00000000000000000000000000000000000000000000000000000000081526004016112bb906178c3565b60405180910390fd5b6112f07f12ff0d75df049d3bed8d744fda687cc564b72fafcf033181fedadf9be1b480eb60001b612efa565b61131c7f8a33a58172ab2faffa5fed2407eea9ea56b3769544cb7d4ec5122e412ddd28b560001b612efa565b6113487fb4cf70537a9dde0f348997036473d64b66de69032dd8f30ee66a780537d7ae2660001b612efa565b6000600186516113589190617912565b67ffffffffffffffff811115611371576113706172b4565b5b60405190808252806020026020018201604052801561139f5781602001602082028036833780820191505090505b5090506113ce7f3eb645219849bf0957109970d99222a3bde9321320687e8f3b4a3edb452c404160001b612efa565b6113fa7f66f515a546c5e354356112aaf5cb31602c9df7f7ddc35c223ea22661f381baad60001b612efa565b60005b86518110156118f8576114327fa0c29dfcb154ec6de0a2229c9b77bdcc87590e3857bafac7fe9bf05e198db3cd60001b612efa565b61145e7f7dfe0c0b51ad90df5ec8acc9e6bbf7ac4097f8d72042e29a6f6dab14d970b9ca60001b612efa565b61148a7f7c6a20e9f4772d43a1214d3a672209413dd3305d9abc89f5130b60bcd2067a0f60001b612efa565b600487828151811061149f5761149e6175af565b5b602002602001015114156114e8576040517f08c379a00000000000000000000000000000000000000000000000000000000081526004016114df906179b4565b60405180910390fd5b6115147fa37496d5d03b209d46dc8336c45f5ceee6669145df9eb07af1a1d07f2d1de8e660001b612efa565b6115407f4c7850f9180252e24f7cd3a17223a093952dd04442cadbac07c24faa903e457560001b612efa565b61156c7fe87976e30ebda7ee3fef56c5f7c0247b3fe40a32e096fada93f9da4e455d222f60001b612efa565b6115987f64251590a077732f6b4fe8f611320583a6038a9f4a82b93a5d547c467149e2fa60001b612efa565b60008682815181106115ad576115ac6175af565b5b6020026020010151116115f5576040517f08c379a00000000000000000000000000000000000000000000000000000000081526004016115ec90617a20565b60405180910390fd5b6116217f9a9bdc6c7e2d8756271652be506cf60aca534cd3481b7fc86b64520a1e7a9f0560001b612efa565b61164d7faac8670638c77ce71eafd38efb82e6c0d815273f9482732ea7dd7fa613fd927760001b612efa565b6116797fdccc0cd3f9888b70e6f0c8a8310b8e380f48e6d31f578ad0bbc550c5b412c39160001b612efa565b86516001826116889190617912565b14156117d6576116ba7f9e45f3c9f8335d21c268e83bed9208a6e7277111cf1ba9211cee2e703bbcc56560001b612efa565b6116e67f9c8f3c2fdf24c9d972e4b08ab89188544990bc469773168a52cbe8265d6a751160001b612efa565b6117127fb4b4b0eba4b7803c005e74c2dfb8bdba9e5791e411609d7151b3eece91574e3560001b612efa565b868181518110611725576117246175af565b5b60200260200101518282815181106117405761173f6175af565b5b6020026020010181815250506117787f6d7a23b60c1eb1056654584520730bac93f4c90e256f8a29c9bf6beb1f41cd4660001b612efa565b6117a47f7d8cdcbf3e301990abdf8be4e6bbeccc93eb7553f476f904b8f3671f0ce1a87e60001b612efa565b8651826001836117b49190617912565b815181106117c5576117c46175af565b5b602002602001018181525050611895565b6118027fb6ab6bf09a7eec934f7775e5a19b54327a3b684b80f9a63933446b42678fb40460001b612efa565b61182e7f1f89d536f9432e3bdfb440412d3ef46c25ef02422056fdf5408b58dac2f03f6960001b612efa565b61185a7f946701b8ace5e2fc6137079154d0258649feb75686f580ffa0d0c701dcebf3fe60001b612efa565b86818151811061186d5761186c6175af565b5b6020026020010151828281518110611888576118876175af565b5b6020026020010181815250505b6118c17f473f085543480fd74d3dd8814d5566b723e38ac6503267b846569f9e64c5760e60001b612efa565b6118ed7fa08417224fc5807a74d80f0c43c15af8b6813656ea9b63a3697caf731b6ba3a260001b612efa565b8060010190506113fd565b506119257f1eb2b80b42195e441e9dfdcd17038abda0107d62a1fa10c756cf2b88e96c436c60001b612efa565b6119517f016d405acd0f2a1d47cf5707ad77c96749fd558b7616f8f7b01d57e939942fe460001b612efa565b600061195b612fdb565b90506119897f51533d6bbd03cee384b0daf2676f11d8a3006db297ebc453f8582276c7542e8a60001b612efa565b6119b57fd60abcc5a72387a5d823f250ff27fbd77d32736d8e59d038c19fddf9160accd560001b612efa565b6119bf8183613535565b6119eb7f42e40ef4b3455c43036cc291d23e4e499a49954172da7c5ffb8df41e2b5b260c60001b612efa565b611a177f9bc5251a65079bc13ddde4cddffbfd519b4db1c81ecf3583cbd50f1ae254f7fe60001b612efa565b60005b875181101561257c57611a4f7ff36704c9281c5e347a06664578ed00c45ff10051a425cf019749037bfc0aaa9460001b612efa565b611a7b7fde912eaa557bf8a2c2136191d7a36eb8bf03dc079e83c191dbd66ca35acc019e60001b612efa565b6000888281518110611a9057611a8f6175af565b5b60200260200101519050611ac67f0f4acf6c9dcf787efc822a29249d98ebf37e6a369353ea69aa087ef546f9892a60001b612efa565b611af27f9ea002ab6a319667b24e7df1c5a5c024d9f9fe4dba8b6642e6fe0fa0b57244b960001b612efa565b6000600182611b019190617912565b9050611b2f7f47cebe88dd15e15472f1c92f120e82a3a3e950fa34cc7ee08191da8815ec2e3a60001b612efa565b611b5b7fcd837e6b516af43d80a585dad300d69be26f5a9c9e86d0ab83c76026487269ca60001b612efa565b6000898481518110611b7057611b6f6175af565b5b60200260200101519050611ba67f0e59b04a977fffb7e1dcc2e5d31d99b3113d581ac284118a2b1bfc403e0dbdcf60001b612efa565b611bd27f3720d325dfac464966079ab90a3577a3e7c16151978be66034402694627deb9b60001b612efa565b611bfe7f3bd980c269eea3d143ffe1a6b11dd1ceffd909a6d44109f6a71de16370681dc760001b612efa565b600a81611c0b9190617a40565b611c1586856132cc565b1015611c56576040517f08c379a0000000000000000000000000000000000000000000000000000000008152600401611c4d90617ae6565b60405180910390fd5b611c827f11df9eaf2252119ef3d4e1c102b7baafed93f123167ca15e7726315c7d71846d60001b612efa565b611cae7f7bb1d7cb1692a656aeb578d0a665a5ec4ccf288acea5bf4c092d720dc2c409a460001b612efa565b611cda7fc4e62955bb1614e9679c0eca62c076c24adafbf93ae416fc72b4215856207f7260001b612efa565b611d067f5512cc79da515dd34bf09c59015034f828b41507bd65443c9ef2da6f3af2c77760001b612efa565b86600001600e016000838152602001908152602001600020548188600001600f01600085815260200190815260200160002054611d439190617912565b1115611d84576040517f08c379a0000000000000000000000000000000000000000000000000000000008152600401611d7b90617b52565b60405180910390fd5b611db07f167db7fff93d2122fdc477bd9f922a5087f374d574724c4de5b9e2e5d709165e60001b612efa565b611ddc7fab684388fc6baa90be06f1830dadd37cb882a3c6039e0b6758493165b0b748fa60001b612efa565b611e087f4ce4669fe44e4764a424902abe72b8ce49a2669a1b2b93a6bc29760097bc7f6860001b612efa565b611e347fcfe10a07367eae809e9032eae584a69ebed9af1057702fb4f9fc4ae33ef6adc260001b612efa565b600a810287600001600f01600085815260200190815260200160002060008282540392505081905550611e897f06a1adb3c9dba67c288e3e278f490e8e2367c057ba1e515fed49b492512899b760001b612efa565b611eb57fb7f6e98f00ff7f89b286fa4d47bb519fe2572e2daa587962188c234aed9b39cd60001b612efa565b600a810287600001600e01600085815260200190815260200160002060008282540392505081905550611f0a7f9e617b83aebfdd41ee734ff804b84ee93bea9827ad732767ff0669f93f47f35960001b612efa565b611f367f71f6415dae6cbd252eac88ed6ba4ce2cb373336aee65645b1265f4b8a39c2fab60001b612efa565b8087600001600f01600084815260200190815260200160002060008282540192505081905550611f887f12f5da68ac7164d2cfeeb4a3c286c05421c5c546e9be77596d677520f86197f460001b612efa565b611fb47f54cb722fb261877a3a444d23d984bd4f77431acc5731a23095acd9858531eaf260001b612efa565b611fbe8584613067565b1561211f57611fef7fe2b7c93aa5c7976d0ff59f5a87cd10d07947fb3fa7ea5994a8546956fbf91bbb60001b612efa565b61201b7f727e7bbe07b38b06a142ff725d47aa1b201e7081df2799a7fa9fd1aa67a64efe60001b612efa565b6120477fb53b64cfd7fd67f00cecf7393dfa289ad1e535c459e8a94bb2cf672a034e130e60001b612efa565b6120737f06831086ce0bae361b41e61baf24ae3fd72e159bc785305b64c5ea650b611dff60001b612efa565b600a8102876000016010016000858152602001908152602001600020600082825403925050819055506120c87fa75e4b77779fef0b873f735a38f6ae7b69955e6dac688c69262aea10c41257e260001b612efa565b6120f47f082a2bc91bb32a70e0b1da6715ae5c0620a6c9ac55660450a50f1a4ec63f271060001b612efa565b808760000160100160008481526020019081526020016000206000828254019250508190555061214c565b61214b7f159a098e031b111aed877a6cf9cb69e43b55610d107b82267fe8626e5f44a3d460001b612efa565b5b6121787fc440dc8890273808aa0e994839e2bba2f473a82436e440893bfe3dc4152246e960001b612efa565b6121a47fc9a798b3d4dd89a4cfaab00e1ad7f4084b2d16f2d57d9a84151a798d0d0b8de260001b612efa565b600187600001603c01600084815260200190815260200160002060008773ffffffffffffffffffffffffffffffffffffffff1673ffffffffffffffffffffffffffffffffffffffff16815260200190815260200160002060006101000a81548160ff02191690831515021790555061223e7f7b5d493f13b5af686cba621d96414befe53127898e7108bc350aba9cbe6e8ba660001b612efa565b61226a7fa38a5e0c08ac4c8eac79eb638b48c7fa44bf955c605239ae6660ae696c443f2c60001b612efa565b86600001603b01600084815260200190815260200160002060008673ffffffffffffffffffffffffffffffffffffffff1673ffffffffffffffffffffffffffffffffffffffff1681526020019081526020016000205487600001603b01600084815260200190815260200160002060008773ffffffffffffffffffffffffffffffffffffffff1673ffffffffffffffffffffffffffffffffffffffff168152602001908152602001600020819055506123457fc25a85f71da3c6880a4e8f7c15c8e4b5af9c63a00eaf6bc56a4b69ff571e46fc60001b612efa565b6123717f730333187a0c0966f66c403dcff4bd9811f236632507a819073839f369d1d59260001b612efa565b6123888584600a846123839190617a40565b6140e2565b6123b47fe8cd63eee5ed0774f9c63fbf4b1622dcae4e615f0dd48bff0e5c751b6bf69bd160001b612efa565b6123e07f730277349c323ab144ae129211b9ba9d7017c24bf660ef04c977ee159b5d459560001b612efa565b6123ea8584614812565b506124177ff66ad629c5d6a93cd99b5ebe9207cee3236ef818a32d8af7ce5ec4f2bf0c535760001b612efa565b6124437f69d9e2a8ca73eab6ad49a8e4e7c1e05f9ee74550c105404a916e0e628a258e3e60001b612efa565b61245e85838360405180602001604052806000815250614c58565b61248a7f94b1b34b4ebee91a8f1c7805c6c0b24c3684eb216301e9c07464515444d4855b60001b612efa565b6124b67f5504a257e7abd4151b0137c837db32fa57abb2c7992f78bf751bfb506e1f46ef60001b612efa565b80828673ffffffffffffffffffffffffffffffffffffffff167f50de47ee647563a35c90bc5d81825821e267d6767c79d4ba564e991fe4c6d1b586600a866124fe9190617a40565b4260405161250e93929190617b81565b60405180910390a46125427ff8c0e975690541139eaa6c43e00f55da16d7ebf6c4a046f5c456863f7a88714a60001b612efa565b61256e7fae87ee14ae00c0e4bcb544a7bb69e1cfc41c68eb63fb5dd6bfa865db3f95376860001b612efa565b836001019350505050611a1a565b506125a97f044030d667bdc5926dae363bca39bf0aa2b7f470fdf59cefa83338d3c626de6260001b612efa565b6125d57f26faa305e6450b2f56badbd08d8b192855e2565b8431caa7023c15d454245de160001b612efa565b600194505050506126087fdd8e023589bb1f5964a3b72d19cef9afc68cf0ae7bf78e308304ea652461902d60001b613e8a565b6126347f185fbade08d766ef5c0b5eb0d1f659bf506ff5f70cebf3477019e6c0cb0fb98460001b613e8a565b600181600001819055505092915050565b60006126737f268938174b4b6b2ef8662299acb1a841979cb79e09025ed13d6a1cf1bc5cbbc160001b612efa565b61269f7f63664c068213513b16714b0f23769d1d57bd506afef4a9ae89030f43a318040960001b612efa565b6126cb7f90bf2bf41a6fa556d7fd628387b131d7d334b7c72f8b4988bca50427a43e764960001b612efa565b60006126d5612efd565b90506127037f74fe2ae08dd8574385e9e6bbdaedc2b126ec1820cdcadbfc9cee0787268f026860001b612efa565b61272f7fe093eb93240209cf6339b35fc849cf89ef2c72045af9eb7a6dfc845b994bbae260001b612efa565b600081600001603d0160003373ffffffffffffffffffffffffffffffffffffffff1673ffffffffffffffffffffffffffffffffffffffff16815260200190815260200160002060009054906101000a900473ffffffffffffffffffffffffffffffffffffffff1690506127c47fd17417b8433f678dd2f4e887a70c409eea99f11e2263a82987f058408857de3260001b612efa565b6127f07f07106cc565970edcbf61d4aa20b9d28befdd54e28c4a8141501b5c17e24f6f7a60001b612efa565b61281c7f187d9a4bdaa01d47ce02885c45780796f003085f8fbd13fd918b0e09a9dc064c60001b612efa565b8073ffffffffffffffffffffffffffffffffffffffff168473ffffffffffffffffffffffffffffffffffffffff16141561288b576040517f08c379a000000000000000000000000000000000000000000000000000000000815260040161288290617c04565b60405180910390fd5b6128b77f185c6c2945bb273fcd2056e3dea41dcd00b034b624b847037a1efb3c0382b3dc60001b612efa565b6128e37fe98db0f5188c07b2af2e2d0a47242a2cfbca1557d7d69c6ec589be9b3dc4540160001b612efa565b61290f7fbc1a8903d5ceb57b1f36aceb1ac22badc7cb380faa952fa99b201d88e8cf7fc060001b612efa565b8382600001603d0160003373ffffffffffffffffffffffffffffffffffffffff1673ffffffffffffffffffffffffffffffffffffffff16815260200190815260200160002060006101000a81548173ffffffffffffffffffffffffffffffffffffffff021916908373ffffffffffffffffffffffffffffffffffffffff1602179055506129be7f960eab1d86dc8b6ae68125e60f4edc949bacc63b9dc32a1730c172ed6573e42a60001b612efa565b6129ea7f41b4c588795f416dd65395d05defe59d1e09908214df4f2e1fb6b4c4eff73e0560001b612efa565b600073ffffffffffffffffffffffffffffffffffffffff168173ffffffffffffffffffffffffffffffffffffffff1614612b0357612a4a7f6dece772b5eac2d801725ff300e8042ff4cd4b1fdbad45c4ecf9692dc6977cb260001b612efa565b612a767f1c929e2b8139fb6c859fdf8ed77a85ea4354ebff50bb631e25b2d88275c7f5e360001b612efa565b612aa27fceda7e8a044edbc145a8bee26982e8cffa049b0c512c4f973002f71f44f6b0e060001b612efa565b600182600001603e0160008373ffffffffffffffffffffffffffffffffffffffff1673ffffffffffffffffffffffffffffffffffffffff1681526020019081526020016000206000828254612af79190617c24565b92505081905550612dda565b612b2f7f51f9f793ce36b6796d0acacc8d0d327657135e49c74e17b922267edf3e6d7bb660001b612efa565b612b5b7f630187f3a062efef9ff9965633753ea2f38a5264dbac145e10c55eaac1eb603460001b612efa565b600073ffffffffffffffffffffffffffffffffffffffff168473ffffffffffffffffffffffffffffffffffffffff1614612dac57612bbb7fef3e1b792dbe9f60cde99d51f77ba3967ab9887cd23ddcc0f838b6e42a0cf50260001b612efa565b612be77fd22bda43efe14eb51ac83168808e235ac67e0c5c7c659356d4bb1d66d52faa2a60001b612efa565b612c137f61886856623aa364f4f08001ff0ef31aa8dc2795b794a193289b9e25efc41f5b60001b612efa565b600182600001603e0160008673ffffffffffffffffffffffffffffffffffffffff1673ffffffffffffffffffffffffffffffffffffffff1681526020019081526020016000206000828254612c689190617912565b92505081905550612c9b7f1643b713fa67556cf42d80bb1f5bd8b3c2621d7f84990401d57ccbb34c4b96ce60001b612efa565b612cc77fa0e21cf7a5d779c09199c589a0a8d50596bae2c7983c42dfa9aa3958946ffb3160001b612efa565b612cf37f304789848834c65332a09ddff15595c6ab8afea7516a3120cd8b7a400c7d1b3960001b612efa565b600f82600001603e0160008673ffffffffffffffffffffffffffffffffffffffff1673ffffffffffffffffffffffffffffffffffffffff168152602001908152602001600020541115612d7b576040517f08c379a0000000000000000000000000000000000000000000000000000000008152600401612d7290617ca4565b60405180910390fd5b612da77f29a5dfc17fbcf2ac1eaae50184ca45c4ddff3f72a49350d827099ae8b96d0b1260001b612efa565b612dd9565b612dd87fce9e7af0090285ffe942114f33b82a0a36628fb738774ca67c74cec58a1e4d4660001b612efa565b5b5b612e067ff944c6f592d8d6d7ef78d02a2ccb39169db17e185576e00f74f25f6deab8389660001b612efa565b612e327f67d72b967b1dc873312711a1ffff9620fa762970415189bef12aa5f9c64e143360001b612efa565b8373ffffffffffffffffffffffffffffffffffffffff163373ffffffffffffffffffffffffffffffffffffffff167f034d677186e937a6de8b88e8e1b4fb7a8eb52e3c8728f8ae9d00694a3da6487f42604051612e8f9190617cc4565b60405180910390a3612ec37fdc6382ee9967286ed6962ba613a896bdb616acbdfd831b7ec638a578bca63f0460001b612efa565b612eef7f4ee1fa4f6ceb04ef97ccbe32426cf546e18ddc7846808f5822f51c404a59f3af60001b612efa565b600192505050919050565b50565b6000612f2b7fcbba79f9261db078091467664d5b84589857124d13216bd4514646c8c76d025a60001b615233565b612f577f724646df3e0020e3b200b7c2cdf653dfe7c4d57f2e237999b185e7819550fa2f60001b615233565b612f837fc9b67fad89b63ae30277c8a003424347566f29554d769ff61cd52986b61de40360001b615233565b60007f66bd28df09c9271bd5696185e1f2db071a0ed825a4f7df621c22ef195c811e9f9050612fd47fd550276b708b0edc784cb9667d4f336122f90f3c3857eafd0852a0b28138047160001b615233565b8091505090565b60006130097f57747667e8b005c2f220a8f765016a543bb7663d4642e3812c95c63061cfcf9460001b615236565b6130357f98fab446eb66bd64b30c07063f060fe67b4db79ae8837bfcc8c0fa7cb67aabd560001b615236565b6130617fd311dd416734c8958feae0b2169e4cc2af1cfc0beb1b7247543c6e415c5e470d60001b615236565b33905090565b60006130957fb01c21a7056d600a8a22cad3056c3c8a2e316e3eeb0fec9a70f671724e81b70060001b615239565b6130c17fa1e63d14da21686b7cbbe08c6b7dfeebc05da1bff5022833f88250578638443e60001b615239565b6130ed7f5be0227ad81a175b4c99e7b68817f1589b0b9d09dd6419c5d59a3db033b7d02860001b615239565b60006130f7612efd565b90506131257fd786ec36820f436d2a97a321dd23200b38ec5f7c316cbb8d882ec4f2130304c460001b615239565b6131517f25be3cbf0a78a60569fb7448616a1f0f8c44e0119f1ee2b3de2ffaebefcd9e8460001b615239565b80600001603b01600084815260200190815260200160002060008573ffffffffffffffffffffffffffffffffffffffff1673ffffffffffffffffffffffffffffffffffffffff1681526020019081526020016000205442101561323c576131da7f6d4c8f9c975b3de7df30a9880637d731c282bd2f66c1e1c11d8deff4e78e207e60001b615239565b6132067fbeee5774a3c1b6336049ef56efb43440c24da437266f1ffc185c737482fe2c4b60001b615239565b6132327f4d2296860b4cee80c07f222f1d796eacf310d1c690a7e72898d44258935e707b60001b615239565b60019150506132c6565b6132687fc8569885a6563bc8f5e8f4df6b12acc3c6d322faf279e23b55940996d0f455f560001b615239565b6132947fab432d7a63c40278e9d3ae22e0a07c65e9cb5b62fdc5b4b67510b18d16714f1e60001b615239565b6132c07f5b8162783f1da79d6d3bebc584837af2fec3ebf94de7c7c8e757a4ad1c85a30460001b615239565b60009150505b92915050565b60006132fa7fd249cbeabbe4385464793e60853d09bb165cd9e18021ce415e2161104333190e60001b61523c565b6133267fd52601cc2cb3cf20277cd9965b2f6e03dd8507cb343278593d18014bc67c7fc560001b61523c565b6133527f7ee4b453d759e6dde8a4fa08bb21cf880eb3c769bfbd60ac7d1ae0fe674560c560001b61523c565b600061335c612efd565b905061338a7f875fa4aa8b319785e25eb06ebec82ae1dc94c1957a032ee358a9ebb7d448893a60001b61523c565b6133b67ffebefabc22f8b718c48c6ab8f2a857d7dc6b5db388f2361df3cef561c816379960001b61523c565b6133e27fd359addff473ba8d99b52eae464c69348e00d802f469ea2d4604bc77eb7aa21c60001b61523c565b600073ffffffffffffffffffffffffffffffffffffffff168473ffffffffffffffffffffffffffffffffffffffff161415613452576040517f08c379a000000000000000000000000000000000000000000000000000000000815260040161344990617d51565b60405180910390fd5b61347e7f47609b618f842fa2420d7b52fc0b9d566de006bf97fb02ea86b2a662217d86a860001b61523c565b6134aa7ff17c48cd73553b036e8c7f2f918711efc6f351655cbaa4b442b0ed37bd625c5f60001b61523c565b6134d67fc4c74da8a581ce5d22d19db1f77a98604cceb7037f1c1d0ff830a70c8ce1b89a60001b61523c565b80600001600101600084815260200190815260200160002060008573ffffffffffffffffffffffffffffffffffffffff1673ffffffffffffffffffffffffffffffffffffffff1681526020019081526020016000205491505092915050565b6135617ff5af116673111d57b570a7ba90df9ed15d12f923b3bb7d905cb1b1de26d7c20c60001b615239565b61358d7f130d49108a3d7eb3f19a131e412afac5b84c783794be060933e33fcd8a83494e60001b615239565b6135b97fac96e9cf9ddf5b4e4a922221d59f4d0bd3c4e3457c07f31467a4aaa440b7f93960001b615239565b60006135c3612efd565b90506135f17f31cf970dc48680a44874527d390801bb777a04db28252c19d092b558e68418fb60001b615239565b61361d7f2bf924b8aeda7871f585133551d5aa8104042e14c05492c6d794e2a3335af47460001b615239565b60005b82518110156137c4576136557f4a71fbf0f6b770393794b274bee4a215244de70628f6ad538550a18d3efd054460001b615239565b6136817f88477b89057a82541b7ea93b25025ea7022a370ca76139fa25daba66de89cf3460001b615239565b6136a584848381518110613698576136976175af565b5b6020026020010151613067565b15613735576136d67ff98f06a7dcb7e05fae6cd2c4a3046163bb0a21520976fff4c660c40d1a01e54d60001b615239565b6137027f4a4bf0f84b4936a6879994d4e4e6fec439007aadfcf8b1216b4ec415b01139b960001b615239565b61372e7f8cf2d53de4733a67bc53af2a0937c93b7c3e29730ab57126ebe7b4208098541f60001b615239565b5050613e86565b6137617f180f72971cae4e971acdaa54a1f71b752705d52362cd8c5f22b0a4e6d1d8afad60001b615239565b61378d7f213d44b3d4c04624bf0471576ae2b73dbe19838066716f9e8d1cd1bf54a36c8160001b615239565b6137b97f0d2bf838aa383c945edd0d875b8a4d81c085d6e33e06a7e8d28aa2462046395360001b615239565b806001019050613620565b506137f17f71d43e55d6fcc969705851c967543b1ffca53ca25431f365b96448c4085d937760001b615239565b61381d7f8e9f593fd6c019d1126dabbcad771261c101d2256827eb4ef74944d3492e217b60001b615239565b60006138288361523f565b90506138567f21e311a76e61a65eb8c5d3cf746b86b2d744c865cf2813e1ea9694e6a6476b2e60001b615239565b6138827f47a785345ce8d921146b8d80e89d764db6237026a1fb0febba6e7ce2be71978c60001b615239565b600061388e858561583b565b90506138bc7fa374a1fc8979af8f0acf6cf2881b57e575608f983e527b1de570ba558f86d1ff60001b615239565b6138e87f7cb8b9a13bf6989ea708b4fca42c78abc19927337a3c4fc26237266bd9ff111660001b615239565b60005b8451811015613e81576139207f3b916f0c722cf1f67366d133524eac2bf59bc7204e56019603d4e0168832645260001b615239565b61394c7fd378a756ad5b4ad4b5d3f836d1738d4165804e0c15437f1b7f96cdc71bf1063f60001b615239565b613954615e2e565b84600001602e0160008784815181106139705761396f6175af565b5b60200260200101518152602001908152602001600020819055506139b67f05d0c381ba668d55c9b66840f7c2f503c9c72b9a378d4af575cdb5ee2d6354ac60001b615239565b6139e27fba55a707c9a7617de5bc59442875d65d3ff4f24055cf75271896833c63a09ea160001b615239565b8281815181106139f5576139f46175af565b5b6020026020010151846000016030016000878481518110613a1957613a186175af565b5b6020026020010151815260200190815260200160002081905550613a5f7f39682d3908f4d25026200befede2a775494caa98fa2c2e890d19f038660bf2c260001b615239565b613a8b7f6370a2935a25188c3e7cba229d009babf75a9a9bde881e4b23849cb1f90f216060001b615239565b600073ffffffffffffffffffffffffffffffffffffffff168673ffffffffffffffffffffffffffffffffffffffff1614613df157613aeb7facfa823c083ad3b242d047f377c9f85e4362c99af88b77e8dd36dd1a2b4cd4ef60001b615239565b613b177f9380ea64663e62d9ce29cc31e55d0cc60c3f080d2c0e2a35f6180e8c6c45256860001b615239565b613b437fbea401ab542ffce18f22d2d8d13430a99ebff078d3d99a05534d3b8155e0ae3660001b615239565b836000016032016000868381518110613b5f57613b5e6175af565b5b6020026020010151815260200190815260200160002060008773ffffffffffffffffffffffffffffffffffffffff1673ffffffffffffffffffffffffffffffffffffffff16815260200190815260200160002054828281518110613bc657613bc56175af565b5b6020026020010151613bd89190617c24565b84600001602a016000878481518110613bf457613bf36175af565b5b602002602001015181526020019081526020016000206000828254613c199190617c24565b92505081905550613c4c7f5e2fb39b629af198f8cb2021701d7d0533c6cceb26a9d08769ab208fc27c5bd960001b615239565b613c787ff76b17bc1fe99aad1eeeeab349e9939ba894b062eb68b82bf23de5cdcfc7b90d60001b615239565b818181518110613c8b57613c8a6175af565b5b6020026020010151846000016032016000878481518110613caf57613cae6175af565b5b6020026020010151815260200190815260200160002060008873ffffffffffffffffffffffffffffffffffffffff1673ffffffffffffffffffffffffffffffffffffffff16815260200190815260200160002081905550613d327f7e238f55fb8691f543114709a5f7ddc68cd88815c784cc4d017afa9ba7d0216960001b615239565b613d5e7f1b4f2256071e151879e6f898751c986d8867d59bbf763e10b9df9316e9c3d4f060001b615239565b828181518110613d7157613d706175af565b5b6020026020010151846000016031016000878481518110613d9557613d946175af565b5b6020026020010151815260200190815260200160002060008873ffffffffffffffffffffffffffffffffffffffff1673ffffffffffffffffffffffffffffffffffffffff16815260200190815260200160002081905550613e1e565b613e1d7fa738feb75dd52968b140fc03b2952cfac74b009acb05d737a0fddaa4ed093b5160001b615239565b5b613e4a7f32070c724ddad8e5131443f492450e9af4bbad01c0f1378663c4c8d47472425d60001b615239565b613e767f75b00caf97654ac33e1e18af856288b9965fb8ee51d972c41c33eaab3131e87f60001b615239565b8060010190506138eb565b505050505b5050565b50565b6000613ebb7f056d3c331e41d5b766933482247804dd3546d9bcfab987ae9703d1a457e7c6ea60001b615f2f565b613ee77f0da131d8f8014c05ef653bc670cf175a0e5cde992a8612ad7ccf33573906d79760001b615f2f565b613f137f5bb3f1974d080b77263126d43238ce426edfb2c38411144819732805196616f960001b615f2f565b60007fd5b0c411a6c50ab7237d5bdf5f4be539f3a9603f77c2fe2a10b3944fcb2c324b9050613f647f7a53e5af97f3281f34529062653a5fc0cb6736ef23b9cec41b16b00384c142cb60001b615f2f565b8091505090565b613f977f8ec893aa791af6d537b40b870ff7ef56c54ae8a708be175378c040664553b80460001b615f32565b613fc37f824439d7b8ad3ccfc6a7b84ff290c16ad57b8ed19354a8132169fe7b4a23848960001b615f32565b613fef7fde962410e963206a6c991c90517542e866b35c809d27fc95d7790e31e66921ef60001b615f32565b61401b7f52562fb46539559f16c752a8b6ddc12e90d4b756fa35d521eb041d5c22f96f4f60001b615f32565b614023615f35565b60040160009054906101000a900473ffffffffffffffffffffffffffffffffffffffff1673ffffffffffffffffffffffffffffffffffffffff163373ffffffffffffffffffffffffffffffffffffffff16146140b4576040517f08c379a00000000000000000000000000000000000000000000000000000000081526004016140ab90617de3565b60405180910390fd5b6140e07f3abeaa9a7a5c31ab81cb64392449308332497436d08567b980542059c6cc865d60001b615f32565b565b61410e7f852b36d415fa2f651b53e419b122f1bb9f1b1993c0f68aebc8891346f421a79f60001b61523c565b61413a7ff5bfa22e4209813db02e338cebf6acd339434d221c8b6f9aee711d14b6a2bca360001b61523c565b6141667f6a5b87f4d1067e7e0b52cf88a0e77f21771fee25116adcf81b8d805321aea3bd60001b61523c565b6000614170612efd565b905061419e7f9a86cd7a9469fc803ebffb2a03b778a1e6cbf165d2c6b44ccdf52480ea42efb960001b61523c565b6141ca7fe20fbbff2cf29a3858836e937c34b37bfecf8b3b8399a6ef49ac8f26bc5826b260001b61523c565b6141f67fd67dc8c489fea284f2d352f30a35e4df18422ca6925aa13628f775627ee679b460001b61523c565b600073ffffffffffffffffffffffffffffffffffffffff168473ffffffffffffffffffffffffffffffffffffffff161415614266576040517f08c379a000000000000000000000000000000000000000000000000000000000815260040161425d90617e75565b60405180910390fd5b6142927f5cfd06c911ef399f7fb81b49a5af0e2dac89eff65542d84c4c08bffacc0ca83c60001b61523c565b6142be7fb6ceef50ec9adf904e9d0e2987303d2463222a69bb32535e05dfe3e221ba74c360001b61523c565b6142ea7f73be8c0b7ade07de9c7d2287642385407cda1a5121913423d4be0a4987821a2b60001b61523c565b60006142f4616013565b90506143227f90c7bf8eb0d25f51a9bdc36b4eb2be183b14a91db606224f48b8de6974cd4fca60001b61523c565b61434e7f49bc6469f25cd477cbcc3bd483b92ee4f7b94acafb533f2fdfdce770090dd63460001b61523c565b60006143598561609f565b90506143877faafa5326d904947702b6eaa9d1731c46146715aea2d879c0d189bc42c1c1f48560001b61523c565b6143b37f4d949e825812ff00490f4673c997666e430d5e49a6a0b464b7f87b473c04a71660001b61523c565b60006143be8561609f565b90506143ec7ff0d5f69ee03fc7a4bcb13a7802787c208f2cf0bcc93129415522713e60a9fbe960001b61523c565b6144187fe196afbb76ff05574dcaf8ded116fa5947aec6f6b5230cfa7381efefca9cc12d60001b61523c565b6144368388600085856040518060200160405280600081525061624d565b6144627f6655a01738840d501f822222636362e10464436fa5c3975b93007f441d41b12160001b61523c565b61448e7f46088ad5bb19170afb800e824b91b2d4d616767ec8663ae902a58de0ae85790c60001b61523c565b600084600001600101600088815260200190815260200160002060008973ffffffffffffffffffffffffffffffffffffffff1673ffffffffffffffffffffffffffffffffffffffff1681526020019081526020016000205490506145147f6e9aea2f525ed8e2585e2a85d1a83422e65eb6fb5c4f82884887f4e7f01ec3c660001b61523c565b6145407f6ef87eb67b929fadbad3d8a772689ad6efaace4b408e5ccf41aec03183dcda1d60001b61523c565b61456c7f64c747383de9a8f20e06eb40441449e0a489f1a76e163be4880602606ca3c61f60001b61523c565b858110156145af576040517f08c379a00000000000000000000000000000000000000000000000000000000081526004016145a690617f07565b60405180910390fd5b6145db7f260d0ff3940d9d1551923028fc67783d3d33e32307308b60b4d50d69ddf2b4fc60001b61523c565b6146077f69fd8d6fc830c3ddc72fec5109b278785c3a5268cc0c15fe53c028c30315654960001b61523c565b6146337f10201a323387754c40e1bce9b9a99e2cc274e3b857fa6883971e0b85a2e626d260001b61523c565b61465f7f6702e64be335ae6a8a8c132f3e1c31f27456d703cfcd0023498a528962c22f2b60001b61523c565b85810385600001600101600089815260200190815260200160002060008a73ffffffffffffffffffffffffffffffffffffffff1673ffffffffffffffffffffffffffffffffffffffff168152602001908152602001600020819055506146e77fc91ac43f9cdbc58372cf8bb827b5d2eef04675586b33b6a7ceb9b4980f868b3e60001b61523c565b6147137f3c654a280db878d9b930577ddc59789d68e267fcfd3b229c95535a301515b5e760001b61523c565b600073ffffffffffffffffffffffffffffffffffffffff168873ffffffffffffffffffffffffffffffffffffffff168573ffffffffffffffffffffffffffffffffffffffff167fc3d58168c5ae7397731d063d5bbf3d657854427343f4c083240f7aacaa2d0f628a8a60405161478a929190617f27565b60405180910390a46147be7f8c5ad92f78d5e10dcef684e0a97be735bc87b368125da52c7ca112be17ee8af560001b61523c565b6147ea7fc817cd2672c0392f61776131aa0ba18c8c67368be5ed2bc12359bf0da0fde8a760001b61523c565b614808848960008686604051806020016040528060008152506168fb565b5050505050505050565b60006148407f7ca22ff2145a2ba6934394d5cbdb2a8604f4c7bdab16888035aaa91aaed3930260001b615239565b61486c7f201983f72007d6df97c4a9bbe055dfae927c85589be923ee211789341be17e7060001b615239565b6148987fe87a271d1304444f3cf388ec897cdac41138f1af23f5bed2fa2ef9475c2c1a5b60001b615239565b60006148a2612efd565b90506148d07f166f65c925157826b42ca16953067123860da64c9bb19fcaa4e8597e6fcec46060001b615239565b6148fc7f7143add1c049e0732835f98f1ede63e581d9c874d9966dd91bfbe0a627a064b060001b615239565b600061492a7fe327f200e17bdd6d69e72510fda6c72fa0161cf45908ad787d3b8e1522e1e29b60001b615239565b6149567f9ded2a98e09c066a82ce23f8cb6f3e5d80d3718dd138326108427f6d6bbebbca60001b615239565b600061496286866132cc565b14156149f5576149947f67a12b44b14ee2b39f0e6829779a3e6baad229f4932cdbb98c25ca8e3834c1b960001b615239565b6149c07fcf1ffd5296a4014230c4e9ccebdac95accc701d3664dff4275eb3c6a8b920bc660001b615239565b6149ec7f84d8fef28eb1e96a04cf2b1e17b51bac7913da20db7643c9d0b8a95542baaa1d60001b615239565b60019050614a22565b614a217f55cc11dddb19c8ac3397b78450196b21d0d57ee4ee33eb338d4a1ebbf82eeb8460001b615239565b5b614a4e7f824b6a53cb3cf968825d103b5600c9cc3fdd32beeaf71ac4a1b2d02de14ec83e60001b615239565b614a7a7fbfd91cd2e846ed6c0b974eb0a1de7bb806fef164539f14872028917ec0f5d04160001b615239565b8015614bc757614aac7f18c3d76ffe8bb05bba868c635df0ab0d922b9d15e9f118e63b3bb0e39efc0dc360001b615239565b614ad87fd08c9632a3d555e9e57e10eb952554a5f9ecf42f040da3c06e22e27279c3d62360001b615239565b81600001603b01600085815260200190815260200160002060008673ffffffffffffffffffffffffffffffffffffffff1673ffffffffffffffffffffffffffffffffffffffff16815260200190815260200160002060009055614b5d7fdbc9fec8b23d27ae51537f1423a8927376f73157e57de82e017d726503523e1c60001b615239565b81600001603c01600085815260200190815260200160002060008673ffffffffffffffffffffffffffffffffffffffff1673ffffffffffffffffffffffffffffffffffffffff16815260200190815260200160002060006101000a81549060ff0219169055614bf4565b614bf37fa8674b78a4f13bd0549eecd7c513c123f6b9c3e8f549fc800e561af20870c80560001b615239565b5b614c207f88fa3d8a3d8bb7edf553b5e30bcec43e3f5f36e11ccf6914b2fcae3dbc13726e60001b615239565b614c4c7ff09b9571b5e354553ed63efe798a616a339a634d385bf190c0de6728b74f8e8e60001b615239565b60019250505092915050565b614c847f1e834b2a9a3090cf656f17c078e058d29e9528201703b797d01353ca32d2131e60001b61523c565b614cb07f3b46c0c7d3a0d6bd03222e629913df8922784a30932bd7b9dc2d431b81809a6260001b61523c565b614cdc7fb202d3d6fb7a49f772f4b8a18d1f0273a7824897811edecea44739372479168460001b61523c565b6000614ce6612efd565b9050614d147fac5faee795d8714738cf342398e027955f8bbf15b1b4674ea86e301ff3bc30dc60001b61523c565b614d407fcdd784e292a51ffe04d1b079dd1ab645bca7745c8fe5d7ccb604c175a20158f960001b61523c565b614d6c7fcbd1e478a41d520cea1f0e7cc934eb3f4d26843c7c1699f6151c6474c492863060001b61523c565b600073ffffffffffffffffffffffffffffffffffffffff168573ffffffffffffffffffffffffffffffffffffffff161415614ddc576040517f08c379a0000000000000000000000000000000000000000000000000000000008152600401614dd390617fc2565b60405180910390fd5b614e087fb40694681a9d01f5370f15d28fb1fe1c0a2657688a3522a3dd4916a8ea52ed3d60001b61523c565b614e347fde97ad692b134d93129f0a0b3dad5b1cb0e1b5f97863da6e98f61d2f48d0822860001b61523c565b614e607f31425a0afb9f466629a403b69d863d8785c8c1eac9b20cefe01faacb767d9d4460001b61523c565b6000614e6a616013565b9050614e987fe24a7874fe913022356878bb0d861c22347ed1c90a5d007792270c91bbc6b7e260001b61523c565b614ec47f3b3ee5e19c25598e8fd3d0f8e87df91bbc505fd7d5828a28042521b4182266fc60001b61523c565b6000614ecf8661609f565b9050614efd7f4d38d7560c5ff32e6b976fc05fde79668d712c364f9dd63ecc5b51da586c944660001b61523c565b614f297f998c7647409f20dffbf54689e0ebaaeba9f65d6d924efe2858cd8029924748f460001b61523c565b6000614f348661609f565b9050614f627f4f3259dbd3fae882e0db39c545a828235ae8db048b8d752ecd2b390686eefb5d60001b61523c565b614f8e7f43d16a36b5296088a7ab973a5f1569d9fd224b39f032c218bc6482e9a80c2caa60001b61523c565b614f9d8360008a85858a61624d565b614fc97f01afb2c4ee25906d4f6ab27daf5138d93fcac287c0797d0431be832e3bbfb18f60001b61523c565b614ff57f698d5937c185f0ab5bbb31f0bccc7d97f5b3437f6648b1f0a6c050a8befa3a8a60001b61523c565b6150217fddb271e08d2cbd3d2bdd55e4cf4113e16350eee0dac42a51c0c7d1ed96ce9d4160001b61523c565b8584600001600101600089815260200190815260200160002060008a73ffffffffffffffffffffffffffffffffffffffff1673ffffffffffffffffffffffffffffffffffffffff168152602001908152602001600020600082825401925050819055506150b07f76f4274a6bfaac4a6e18d6499ec0ae7b9c8d78674e707ce7f3d6bb7dc92cb9c660001b61523c565b6150dc7f69bf6a5cca21d7a6b8d1af9021bd4d136d561d8a082962aed7e52764349eb43760001b61523c565b8773ffffffffffffffffffffffffffffffffffffffff16600073ffffffffffffffffffffffffffffffffffffffff168473ffffffffffffffffffffffffffffffffffffffff167fc3d58168c5ae7397731d063d5bbf3d657854427343f4c083240f7aacaa2d0f628a8a604051615153929190617f27565b60405180910390a46151877f888256ea5b9d4fc0224aac7d33a1ebd2bdc63ac607a1aa0d97cd4079e99f31a360001b61523c565b6151b37f37605d7ba56fd5783fe573b253384f4ecb46f46fbf2e9f6a33dbd1fa0da8003a60001b61523c565b6151c28360008a85858a6168fb565b6151ee7f74c63248506be74dee3e5e2c7c47bd9c983105faf4486fda63f555a1f432758b60001b61523c565b61521a7f9ac1e1be24c548455885114445f63d417dc778b6dd47dae589ea095419ae424a60001b61523c565b6152298360008a8a8a8a616bf2565b5050505050505050565b50565b50565b50565b50565b606061526d7f8b4fb979e5aafe66c62669dd9702540c8cd51a30a9d5b8ed213fc1ca92c3f89f60001b615239565b6152997f063b201504764c3a27865b3c4459ff6218f8c393d6a599ae390a6dbbc1627cb560001b615239565b6152c57f2560162c8e78bc0c9eea14912e734a7837bd131ab0ed0b3ccc360af9cd9ad01760001b615239565b60006152cf612efd565b90506152fd7f5e15be7c75fda58ddd42c95440fea3de45247915a0e08c6c9f142eb66a9e86f160001b615239565b6153287ece33fc26bb4ae824ff734f1117244ea60d5ffea217510c1c99ebdb41c2329160001b615239565b6000835167ffffffffffffffff811115615345576153446172b4565b5b6040519080825280602002602001820160405280156153735781602001602082028036833780820191505090505b5090506153a27f8d0172e6c0d43f1ddec9598d552beef86700d61a6be39f878e7a6c699765307c60001b615239565b6153ce7fb6d30b0a833b49644935ab31c14a14d518ec31a8fbcbe2a53b04d0bc6252adb260001b615239565b60005b84518110156157d8576154067fe33c2212541881b702e27626f117ed0f87b67d6084c062a252b65bc5a9ffaa4460001b615239565b6154327fde16a0a2259bde52069f95a7699a39aea986cd76387c1f762b32a70607bf2d1860001b615239565b60008360000160100160008784815181106154505761544f6175af565b5b602002602001015181526020019081526020016000205484600001600f016000888581518110615483576154826175af565b5b60200260200101518152602001908152602001600020546154a49190617c24565b1415615585576154d67f980cddf182f0ae59e39e9842217e32f8c86bc7c8686690411c48aa377025a5af60001b615239565b6155027faf2b78903dd34254d23d2e6803744caa34c97af3318e903288f97dc9b73653df60001b615239565b61552e7f73739410971b947a7ee3d613a852cd05a365075c87a42487b860be1d64df82b960001b615239565b82600001603001600086838151811061554a576155496175af565b5b6020026020010151815260200190815260200160002054828281518110615574576155736175af565b5b602002602001018181525050615775565b6155b17f65e7ed5fa0b306f350835049f8edcb36031145485de198783d75fe255315c5d760001b615239565b6155dd7ff2aed8bbf54ccd43365c6e4b949a772f31bb0313747e93bde4de6052ac02357a60001b615239565b6156097fa07095a015e17b3038a6453e4684378e0cce67e10eb249a4f839f27e82234ae560001b615239565b826000016010016000868381518110615625576156246175af565b5b602002602001015181526020019081526020016000205483600001600f016000878481518110615658576156576175af565b5b60200260200101518152602001908152602001600020546156799190617c24565b670de0b6b3a764000084600001602e01600088858151811061569e5761569d6175af565b5b60200260200101518152602001908152602001600020546156bd615e2e565b6156c79190617c24565b85600001602f0160008986815181106156e3576156e26175af565b5b60200260200101518152602001908152602001600020546157049190617a40565b61570e9190617a40565b6157189190618011565b836000016030016000878481518110615734576157336175af565b5b60200260200101518152602001908152602001600020546157559190617912565b828281518110615768576157676175af565b5b6020026020010181815250505b6157a17fce179defe47607acc6e221dcea563b26c6edc40e606b21063f26ba2f7c15ea1060001b615239565b6157cd7f3b53fa4dbd60bae74b588fb9f6172da68702ee81a9e9abc8ca54106fbc17678660001b615239565b8060010190506153d1565b506158057f304782d567ec59960167db6ce04f9a906512c249d1de4ee541fe34a84083705160001b615239565b6158317fec101d1eddf24d60106ee97d2e68b55de0794ad9b64fb7cc6943edf957d9c95460001b615239565b8092505050919050565b60606158697f47feacfd039c1ae36a516269ae3182f2f9f7a5b99e5f352f0957111f98d3c7d260001b615239565b6158957f037ecf1a65c0501ad8463b97ef40804f2b3d5ce4be2e0fa79fe5849cb839fe6d60001b615239565b6158c17f81e14ca7a38c77aed905a08f713cebb756e103f6746480632c6249984c9b18a860001b615239565b60006158cb612efd565b90506158f97f34fba52876a477ebad57ad1e6970253d095c30f2bd0cebc38526b75abd203aa360001b615239565b6159257f628bfb37b06adb269e5d3f5c0cd027267cb7383e07f559cec135e8a78942d12f60001b615239565b60006159308461523f565b905061595e7feac0d99e0730c1c72a4050e5c25e44f3ecc6402867a24f682e6cf538f6a6664960001b615239565b61598a7fe942fd41acb7f43484e161102b89167cdcf2d2b6218e2e3ea5bba2fc79a5b52860001b615239565b6000845167ffffffffffffffff8111156159a7576159a66172b4565b5b6040519080825280602002602001820160405280156159d55781602001602082028036833780820191505090505b509050615a047fca3bac37abb1c3b6795411641b12188fad6daddc4c3d5f4c586d2a460fdfc82860001b615239565b615a2f7e54785feafc86359f3c81206962186a4f2eb67a23adccd282a978bbd64d112560001b615239565b60005b8551811015615dc957615a677ffe8d8202248ddf4979fcb417ad76245dda1c51c62c231b26ed3f9ab573e4c08560001b615239565b615a937fa365d4b518927af92b5beb22779f7dc48a4459b730d2e7d68a7e80a088f82fb360001b615239565b600073ffffffffffffffffffffffffffffffffffffffff168773ffffffffffffffffffffffffffffffffffffffff161415615b7257615af47f126b47c68f977abf56300ac7d67962da92a164c962756299449310bc4cf7edec60001b615239565b615b207ffc026247c84d9a293150a1ad20b252961c483b8543e33ad0201f229d922dda7260001b615239565b615b4c7f1b133b6cd0d10778d97fabca45ae875952175cd763178719fa0b29c85b66c97360001b615239565b6000828281518110615b6157615b606175af565b5b602002602001018181525050615d66565b615b9e7f07a6b052cccb0a17f0d670902ebb1ad36614b08ea2b70b3667c5f0cbc530edba60001b615239565b615bca7f325fd8f39003826381ace245f342293bfa61d16e24c2854bec6691917b7aea8160001b615239565b615bf67fa823987d834b5afe2f3a2e5381cda6e2beb09c56f23b99ba012d65c3d2b16e6660001b615239565b836000016032016000878381518110615c1257615c116175af565b5b6020026020010151815260200190815260200160002060008873ffffffffffffffffffffffffffffffffffffffff1673ffffffffffffffffffffffffffffffffffffffff16815260200190815260200160002054670de0b6b3a7640000856000016031016000898581518110615c8b57615c8a6175af565b5b6020026020010151815260200190815260200160002060008a73ffffffffffffffffffffffffffffffffffffffff1673ffffffffffffffffffffffffffffffffffffffff16815260200190815260200160002054858481518110615cf257615cf16175af565b5b6020026020010151615d049190617c24565b615d288a8a8681518110615d1b57615d1a6175af565b5b60200260200101516132cc565b615d329190617a40565b615d3c9190618011565b615d469190617912565b828281518110615d5957615d586175af565b5b6020026020010181815250505b615d927f61cf0a8518daf53a887fb77612ad50a8972c585b6fa7f9f2be1e23ba118f32c660001b615239565b615dbe7f4055ed16b84a4ac65ccb952b2c5d40f9c1910dd5abd3357c21ad47676b97eb7860001b615239565b806001019050615a32565b50615df67f48250429c4bd3255ca5cde83f20a0e96410688298f07dd5767dd7189dd50edbe60001b615239565b615e227ffe25f2ff139089f61f8bda90e88256551f24d66809800f6699746763d821521360001b615239565b80935050505092915050565b6000615e5c7f7b7afad07a47075f1281e0e0a0f39d352ef8d4b570386a463499c8573079431d60001b615239565b615e887fe8061d2bc31341c0b52bd88a7ae4b2a4110154106a62e74880c83a9e3680627560001b615239565b615eb47f51b1af4c7d9d9b8d9caa12afc3aa8b63d6268aded5f0263ef24dbe3ce627b0d360001b615239565b6000615ebe612efd565b9050615eec7fa91165fedbf392c558b87b2fb5d2ab3d55579f50a27030b3037691b06263272360001b615239565b615f187f21c2b71c932a4cc73921163a959dd0a7a5a36eaf86f75646ac24f3980268bdc360001b615239565b615f2981600001602d0154426170ca565b91505090565b50565b50565b6000615f637f37624c78b12de03a5f297d9c950f3c6fc4b70342068ec5e4685d0b6d5384bc8960001b615f32565b615f8f7f6224ad2357ddfdde3d06e7d433de8597a0c802b5961d43d3d5667abb8dcefc1360001b615f32565b615fbb7f4ba10ed08791a423d97bea0744f82f3448aa933f5dc1d334f2aa7799e156fba360001b615f32565b60007fc8fcad8db84d3cc18b4c41d551ea0ee66dd599cde068d998e57d5e09332c131c905061600c7f3459e835b9cbe60eac3148958d95eace06d7b6690e6dc02cb6b8a1ff93a77d7660001b615f32565b8091505090565b60006160417f8775e46e92b19633604bdddafe22a84f039e377e8ffb760f236d6f6d8d9a8f1460001b617168565b61606d7f2dfc240ad7e692692c4de1de543bbe44e8847e19c42756dfca09b5f35c0318cf60001b617168565b6160997f4ccd5d6115abe600ce72170e14741c6668e8ced3234c59b0e869a6d68c99146b60001b617168565b33905090565b60606160cd7fe806a3ac73bc3e6a2cff8c8058aff4dc8b4834bcad3aba4670c354a85f2ac2c460001b61523c565b6160f97f692e1b3f0d5c19ad38ef8361c9ef4a1f850b839f1c99423ab38b7dfb5ed9190560001b61523c565b6161257f74584b0d012840fb08988ba25745aa3ecc532b04826f6c92e5999fd6d1ff5b5a60001b61523c565b6000600167ffffffffffffffff811115616142576161416172b4565b5b6040519080825280602002602001820160405280156161705781602001602082028036833780820191505090505b50905061619f7fdf150e0bef325585ac5862fdf2a2c0f4ad8e20f4694cc3f19184de7df03a186460001b61523c565b6161cb7fee0fb6b5367ce85cb8333f4a587361c9f032a7390b37656e38fdd1c3746239a560001b61523c565b82816000815181106161e0576161df6175af565b5b6020026020010181815250506162187f90f2ac292a4af21a010587bd0a5462cd658ba01fb430cf8239efae68b965354c60001b61523c565b6162447f45a14ed0989745f6983b388fa79b9aa3e065ad5fbf823445feab4c39a67f0e8d60001b61523c565b80915050919050565b6162797f8a6cdcf1cfc3f4527fa9b3638a680b03c801b688e250702053521d8340025dee60001b61523c565b6162a57f5b611978bd244375bfddcc28e11bf266e373c2b0bf972be96a57a96de55cb2b660001b61523c565b6162d17f23c6f674250f3ca5611afe0ecea35452acd04bcd35109d1e69c3892543bd389760001b61523c565b60006162db612efd565b90506163097f3a5658dd24afce992608146327ab8d1d7cff60b7bf9ddc98660362823e692f7960001b61523c565b6163357f4865da54b9e285848e3127674ce57cd7ddb2add893d6aba058c2729a3209472260001b61523c565b60006163637f514536d60eda836936487a9b0e5425b50a4528bc6f82c33be10e2f016281eec260001b61523c565b61638f7f29259c708cf7e5e78c86a80af27d3fe3b7964a98c72067d6f99e807a1697e7ea60001b61523c565b8073ffffffffffffffffffffffffffffffffffffffff168773ffffffffffffffffffffffffffffffffffffffff16141580156163f757508073ffffffffffffffffffffffffffffffffffffffff168673ffffffffffffffffffffffffffffffffffffffff1614155b156168c4576164287f874dd672dfaa23c22a57ab72327c2c497f7c1038df957ffe676506606a4af62f60001b61523c565b6164547f96aec140d916fbd884704177831209d6ba37e5373be115f34fdb306c15f593dc60001b61523c565b6164807f789a65116764a78c5f782742aeab8947ebddc6d3c4b988c712c7a472e2170d9b60001b61523c565b61648a8786613535565b6164b67fc0970233153641ed7ddbca02070e32d9f35d6184b0b4176b218ae546f6be3ebe60001b61523c565b6164e27f7cc888efbdbf32e0a96bf01ddedbaca4e6fb7c21b55d8a00241e0bf1e3d522a960001b61523c565b6164ec8686613535565b6165187f83d4d35c7d922ab70e53492ed83b2781df1419a1e9534a3f2b7030f9e6c248f160001b61523c565b6165447fcd161db8dde7fb4548150a05fa2e028cb6b69a36a88f05f3c4d46af236b42dba60001b61523c565b60005b85518110156168be5761657c7f3e98ba2e04128d1e9755daede14fe9bab7693c266cdd9042ad70626196f4332460001b61523c565b6165a87fee40af4eef9b8f775fd46340c1819540a1cb4e666b08a3309841a96420b4a92960001b61523c565b6165cc888783815181106165bf576165be6175af565b5b6020026020010151613067565b1580156165fa57506165f8878783815181106165eb576165ea6175af565b5b6020026020010151613067565b155b156167c85761662b7f8257f9d881f176a2625de2fce9a6db89ecee941dcba8f6e8d0ef51ce50972fec60001b61523c565b6166577f53830e9f24335a1e6c0b4dea2c1ad137c0a1698b77c045025d68d584461e0be660001b61523c565b6166837ffe7d52f3d27f2a77d6dc0a876a637382dc60e3b54b78ae582c0c315bd2feec6c60001b61523c565b4283600001603b0160008884815181106166a05761669f6175af565b5b6020026020010151815260200190815260200160002060008a73ffffffffffffffffffffffffffffffffffffffff1673ffffffffffffffffffffffffffffffffffffffff168152602001908152602001600020819055506167237feceb0a8da422835661019f543fed797422d188bbd1118c70d64dcb4a0cd81f7760001b61523c565b61674f7f717591688cf5ae5cd30064b8f23261da3444306f5d6dfbb28083350eac1920a960001b61523c565b4283600001603b01600088848151811061676c5761676b6175af565b5b6020026020010151815260200190815260200160002060008973ffffffffffffffffffffffffffffffffffffffff1673ffffffffffffffffffffffffffffffffffffffff1681526020019081526020016000208190555061685b565b6167f47fde10644fa59a2606f285f69b3dc5dcb32b198ab6557aa0de71506c61ef7925ae60001b61523c565b6168207f7761bd2068d74eac4a14253df98acc6797b484f8c813ac92abc6809d6bf5eafc60001b61523c565b6040517f08c379a00000000000000000000000000000000000000000000000000000000081526004016168529061763b565b60405180910390fd5b6168877f4e6c61a55d3ac325e669a11a1621fde5d12f1017b9159c9a298276ac5b0a760a60001b61523c565b6168b37f86857412262933d7407249e815d7875882bbcf32eaaad28d9085d6c103c97f6d60001b61523c565b806001019050616547565b506168f1565b6168f07f822fca795bee80e548bba318733ceaa7041c82557bae89175163d0c19ee559d460001b61523c565b5b5050505050505050565b6169277f2f5f6d126acd21bfa757f4df4ab30075339cda7cb55ffa28a0cd4064b67dc4ed60001b61523c565b6169537fd29aed85409e6ba0b127ef189174585193246665718746b0d5f006866b14b94e60001b61523c565b61697f7fcb6430af5cf24faa7a5d4ec4a133396ed440daca277b2d2831ec2b2402fb388f60001b61523c565b60006169ad7f08c9202d483d0860382a98440f4dde32e71901aa3de5787e77235d9fbd4b6b6460001b61523c565b6169d97f60250f179debc907f4f01d9f755537d2e95f25b36e8e80d3dec0e706d6ebc7eb60001b61523c565b60005b8451811015616be857616a117fac1baee88ed9e1699227e12258ddcdec68f8ee960d37d621897633a76f55303860001b61523c565b616a3d7f0d2fa3bec8cb29ffb9af2ff33b4b7203685422bb2d7bf90c6b22a61a74dcd9dd60001b61523c565b8173ffffffffffffffffffffffffffffffffffffffff168773ffffffffffffffffffffffffffffffffffffffff1614158015616aa557508173ffffffffffffffffffffffffffffffffffffffff168673ffffffffffffffffffffffffffffffffffffffff1614155b15616b5857616ad67fe370194391fe1f9a111f09871201e2fe27a207140b5748377141ead668e696ca60001b61523c565b616b027fabf3baafc913457f88b75eb58bf3bc3afac8412b9f8d2808e90cad3dffa5d17d60001b61523c565b616b2e7fa7ca4b3fd46bd33cff2c7801e8230b8055dccbbb5cc826bacfd9db2bfe8513d960001b61523c565b616b5287868381518110616b4557616b446175af565b5b6020026020010151614812565b50616b85565b616b847f1b218bfe085b2aa36c9e43c43864addf24034cbe57fb837a333fee4263b013b260001b61523c565b5b616bb17f71453d212079a2fd8c082358874869a7a16c097c7f2e393937abe9832a6b39ce60001b61523c565b616bdd7f8805342ff1a140c285690daf44e130e5da555f23b3c566cfd5a37492b010e92860001b61523c565b8060010190506169dc565b5050505050505050565b616c1e7fc3fb94a770c9686b37b61dc4378fcc6ab73cf72ee3a824351ca01d132655229160001b61523c565b616c4a7fa3b926c4c506ab24c1a2c62e40dfa6f189efa63a2817e22380e4913c1171ff2e60001b61523c565b616c767f6cefb200915781b8cfa0e905f6510034ddbdf44b8c1daa7a66136e6a7392ebdc60001b61523c565b616c958473ffffffffffffffffffffffffffffffffffffffff1661716b565b1561709557616cc67f229a442009008317718ee49f02935fdbe5177ec973bb723bcdb7900a75261e9260001b61523c565b616cf27f2821aaf5ea59c1b05357e76929bb49fd8f4e0e48aea52476abbf1ecb2e151a7c60001b61523c565b616d1e7f1df322ecc3cfd274fddede83fae23f3237de183d12548b4a474b45354a1956e360001b61523c565b8373ffffffffffffffffffffffffffffffffffffffff1663f23a6e6187878686866040518663ffffffff1660e01b8152600401616d5f9594939291906180d9565b602060405180830381600087803b158015616d7957600080fd5b505af1925050508015616daa57506040513d601f19601f82011682018060405250810190616da7919061818b565b60015b616f0057616db66181c5565b806308c379a01415616e6b5750616dcb6181e7565b80616dd65750616e6d565b616e027faecebf1f8663e1514e169b6e9c81ab1023db9dcba8c30e7ad0d5b39462157c4160001b61523c565b616e2e7fed66d880d38a85b8ad241db7102f80d71b5033552bb48b9cbac992e80e8eae7b60001b61523c565b806040517f08c379a0000000000000000000000000000000000000000000000000000000008152600401616e6291906182c1565b60405180910390fd5b505b616e997f55551cb0dd580a16058d10291620ed667763c532e641bf45eb7a57b555e8c7ac60001b61523c565b616ec57f44ec2e364b4fcdaa68d9be27b9ca0e9dade4031e84bebbef7720420c5451622860001b61523c565b6040517f08c379a0000000000000000000000000000000000000000000000000000000008152600401616ef790618355565b60405180910390fd5b616f2c7f54c3662dd22b65609fc0d5b923dd8a19ae394010236db962ca8b2f3df078ba4c60001b61523c565b616f587f78591ad6993b8674f4ee98e725fbecf645dbf762a3e924d04bf58347f6fea22d60001b61523c565b63f23a6e6160e01b7bffffffffffffffffffffffffffffffffffffffffffffffffffffffff1916817bffffffffffffffffffffffffffffffffffffffffffffffffffffffff19161461706357616fd07ffc24a4fdc5e7c699e6e1e6ee81c75ef907705437f15a675f8d8e70ac5085950760001b61523c565b616ffc7f1809253f037a945bc9ad637d436a753e53f84c5303e6a34cb26ee6452d0dbd7260001b61523c565b6170287f290ffec1bcf5cce5e0790fab9f148d32880b7976258612c5ef491ae910d087ea60001b61523c565b6040517f08c379a000000000000000000000000000000000000000000000000000000000815260040161705a906183e7565b60405180910390fd5b61708f7f1451d3a0efb241a2b395689d9d5c11e1fb5cc168378080e55ea33aa28241740660001b61523c565b506170c2565b6170c17f56d686c8dda8b69798ef081146879060b0cc15e689ca34f1f7d8b51b05aa15be60001b61523c565b5b505050505050565b60006170f87f09cf066cf4477d51fd8f0ff4ed1b37bdf8b891e521ab608215d27edc787a06b860001b615239565b6171247f810f3d1c6729b518477eb029da8cb407a29770bdd3640ab9a7e55bec930e777660001b615239565b6171507fcefed25ed7e609929ecabdbdb19cbd365d7d3fbd094f9806f7253fccfc4a725360001b615239565b8183111561715e5781617160565b825b905092915050565b50565b60006171997f1a3a53b72b674e9fbba2eea506869fc1e832cf52984608e3b6b644c364c38d8460001b617287565b6171c57fea5248eb53ceca51e9874404db8495bf4bfed79e1e0460d574e8881cc87eb9f160001b617287565b6171f17f45ca0170411cbadde61381cc1a57b2465e26b279ad899930aff8b5cc0899a67f60001b617287565b600061721f7f18f085591cd5a42df19ab342b4d38ceb77ed939bd416a8e9b31bc81ea4bf87e460001b617287565b823b905061724f7f702ad938ce5280224501eb8d9747dd66cde3ea513ef5ab283b87de1921354b1460001b617287565b61727b7f558ee446ea02a007d77a79cd45635a8601a80b8be39035833c0439e7b35b842360001b617287565b60008111915050919050565b50565b6000604051905090565b600080fd5b600080fd5b600080fd5b6000601f19601f8301169050919050565b7f4e487b7100000000000000000000000000000000000000000000000000000000600052604160045260246000fd5b6172ec826172a3565b810181811067ffffffffffffffff8211171561730b5761730a6172b4565b5b80604052505050565b600061731e61728a565b905061732a82826172e3565b919050565b600067ffffffffffffffff82111561734a576173496172b4565b5b602082029050602081019050919050565b600080fd5b6000819050919050565b61737381617360565b811461737e57600080fd5b50565b6000813590506173908161736a565b92915050565b60006173a96173a48461732f565b617314565b905080838252602082019050602084028301858111156173cc576173cb61735b565b5b835b818110156173f557806173e18882617381565b8452602084019350506020810190506173ce565b5050509392505050565b600082601f8301126174145761741361729e565b5b8135617424848260208601617396565b91505092915050565b60006020828403121561744357617442617294565b5b600082013567ffffffffffffffff81111561746157617460617299565b5b61746d848285016173ff565b91505092915050565b60008115159050919050565b61748b81617476565b82525050565b60006020820190506174a66000830184617482565b92915050565b600080604083850312156174c3576174c2617294565b5b600083013567ffffffffffffffff8111156174e1576174e0617299565b5b6174ed858286016173ff565b925050602083013567ffffffffffffffff81111561750e5761750d617299565b5b61751a858286016173ff565b9150509250929050565b600073ffffffffffffffffffffffffffffffffffffffff82169050919050565b600061754f82617524565b9050919050565b61755f81617544565b811461756a57600080fd5b50565b60008135905061757c81617556565b92915050565b60006020828403121561759857617597617294565b5b60006175a68482850161756d565b91505092915050565b7f4e487b7100000000000000000000000000000000000000000000000000000000600052603260045260246000fd5b600082825260208201905092915050565b7f556e64657220636f6f6c696e6720706572696f64000000000000000000000000600082015250565b60006176256014836175de565b9150617630826175ef565b602082019050919050565b6000602082019050818103600083015261765481617618565b9050919050565b7f4e6f207368617265730000000000000000000000000000000000000000000000600082015250565b60006176916009836175de565b915061769c8261765b565b602082019050919050565b600060208201905081810360008301526176c081617684565b9050919050565b7f5265656e7472616e637947756172643a207265656e7472616e742063616c6c00600082015250565b60006176fd601f836175de565b9150617708826176c7565b602082019050919050565b6000602082019050818103600083015261772c816176f0565b9050919050565b7f4e6f20726566756e647320616374697665000000000000000000000000000000600082015250565b60006177696011836175de565b915061777482617733565b602082019050919050565b600060208201905081810360008301526177988161775c565b9050919050565b7f52656465656d696e672074696d65206973207374696c6c2076616c6964000000600082015250565b60006177d5601d836175de565b91506177e08261779f565b602082019050919050565b60006020820190508181036000830152617804816177c8565b9050919050565b7f4e6f7420616c6c20726566756e647320636c61696d6564000000000000000000600082015250565b60006178416017836175de565b915061784c8261780b565b602082019050919050565b6000602082019050818103600083015261787081617834565b9050919050565b7f57726f6e6720696e70757420636f6d706f736974696f6e000000000000000000600082015250565b60006178ad6017836175de565b91506178b882617877565b602082019050919050565b600060208201905081810360008301526178dc816178a0565b9050919050565b7f4e487b7100000000000000000000000000000000000000000000000000000000600052601160045260246000fd5b600061791d82617360565b915061792883617360565b9250827fffffffffffffffffffffffffffffffffffffffffffffffffffffffffffffffff0382111561795d5761795c6178e3565b5b828201905092915050565b7f4c766c2035206973206d6178696d756d206c6576656c20616c6c6f7765640000600082015250565b600061799e601e836175de565b91506179a982617968565b602082019050919050565b600060208201905081810360008301526179cd81617991565b9050919050565b7f4e6f20757067726164657320746f206d616b6500000000000000000000000000600082015250565b6000617a0a6013836175de565b9150617a15826179d4565b602082019050919050565b60006020820190508181036000830152617a39816179fd565b9050919050565b6000617a4b82617360565b9150617a5683617360565b9250817fffffffffffffffffffffffffffffffffffffffffffffffffffffffffffffffff0483118215151615617a8f57617a8e6178e3565b5b828202905092915050565b7f4e6f7420656e6f75676820736861726573000000000000000000000000000000600082015250565b6000617ad06011836175de565b9150617adb82617a9a565b602082019050919050565b60006020820190508181036000830152617aff81617ac3565b9050919050565b7f4578636565646573206e657874206c6576656c206d617820737570706c790000600082015250565b6000617b3c601e836175de565b9150617b4782617b06565b602082019050919050565b60006020820190508181036000830152617b6b81617b2f565b9050919050565b617b7b81617360565b82525050565b6000606082019050617b966000830186617b72565b617ba36020830185617b72565b617bb06040830184617b72565b949350505050565b7f53414d455f414444524553530000000000000000000000000000000000000000600082015250565b6000617bee600c836175de565b9150617bf982617bb8565b602082019050919050565b60006020820190508181036000830152617c1d81617be1565b9050919050565b6000617c2f82617360565b9150617c3a83617360565b925082821015617c4d57617c4c6178e3565b5b828203905092915050565b7f4d41585f524546455252414c535f414d4f554e545f5245414348454400000000600082015250565b6000617c8e601c836175de565b9150617c9982617c58565b602082019050919050565b60006020820190508181036000830152617cbd81617c81565b9050919050565b6000602082019050617cd96000830184617b72565b92915050565b7f455243313135353a2061646472657373207a65726f206973206e6f742061207660008201527f616c6964206f776e657200000000000000000000000000000000000000000000602082015250565b6000617d3b602a836175de565b9150617d4682617cdf565b604082019050919050565b60006020820190508181036000830152617d6a81617d2e565b9050919050565b7f4c69624469616d6f6e643a204d75737420626520636f6e7472616374206f776e60008201527f6572000000000000000000000000000000000000000000000000000000000000602082015250565b6000617dcd6022836175de565b9150617dd882617d71565b604082019050919050565b60006020820190508181036000830152617dfc81617dc0565b9050919050565b7f455243313135353a206275726e2066726f6d20746865207a65726f206164647260008201527f6573730000000000000000000000000000000000000000000000000000000000602082015250565b6000617e5f6023836175de565b9150617e6a82617e03565b604082019050919050565b60006020820190508181036000830152617e8e81617e52565b9050919050565b7f455243313135353a206275726e20616d6f756e7420657863656564732062616c60008201527f616e636500000000000000000000000000000000000000000000000000000000602082015250565b6000617ef16024836175de565b9150617efc82617e95565b604082019050919050565b60006020820190508181036000830152617f2081617ee4565b9050919050565b6000604082019050617f3c6000830185617b72565b617f496020830184617b72565b9392505050565b7f455243313135353a206d696e7420746f20746865207a65726f2061646472657360008201527f7300000000000000000000000000000000000000000000000000000000000000602082015250565b6000617fac6021836175de565b9150617fb782617f50565b604082019050919050565b60006020820190508181036000830152617fdb81617f9f565b9050919050565b7f4e487b7100000000000000000000000000000000000000000000000000000000600052601260045260246000fd5b600061801c82617360565b915061802783617360565b92508261803757618036617fe2565b5b828204905092915050565b61804b81617544565b82525050565b600081519050919050565b600082825260208201905092915050565b60005b8381101561808b578082015181840152602081019050618070565b8381111561809a576000848401525b50505050565b60006180ab82618051565b6180b5818561805c565b93506180c581856020860161806d565b6180ce816172a3565b840191505092915050565b600060a0820190506180ee6000830188618042565b6180fb6020830187618042565b6181086040830186617b72565b6181156060830185617b72565b818103608083015261812781846180a0565b90509695505050505050565b60007fffffffff0000000000000000000000000000000000000000000000000000000082169050919050565b61816881618133565b811461817357600080fd5b50565b6000815190506181858161815f565b92915050565b6000602082840312156181a1576181a0617294565b5b60006181af84828501618176565b91505092915050565b60008160e01c9050919050565b600060033d11156181e45760046000803e6181e16000516181b8565b90505b90565b600060443d10156181f75761827a565b6181ff61728a565b60043d036004823e80513d602482011167ffffffffffffffff8211171561822757505061827a565b808201805167ffffffffffffffff811115618245575050505061827a565b80602083010160043d03850181111561826257505050505061827a565b618271826020018501866172e3565b82955050505050505b90565b600081519050919050565b60006182938261827d565b61829d81856175de565b93506182ad81856020860161806d565b6182b6816172a3565b840191505092915050565b600060208201905081810360008301526182db8184618288565b905092915050565b7f455243313135353a207472616e7366657220746f206e6f6e2d4552433131353560008201527f526563656976657220696d706c656d656e746572000000000000000000000000602082015250565b600061833f6034836175de565b915061834a826182e3565b604082019050919050565b6000602082019050818103600083015261836e81618332565b9050919050565b7f455243313135353a204552433131353552656365697665722072656a6563746560008201527f6420746f6b656e73000000000000000000000000000000000000000000000000602082015250565b60006183d16028836175de565b91506183dc82618375565b604082019050919050565b60006020820190508181036000830152618400816183c4565b905091905056fea264697066735822122006bee764100d2259a1440c690a40cb3d0a1aa6510a3b31b3f2cdcbfbe8a8811464736f6c63430008080033",
  "linkReferences": {},
  "deployedLinkReferences": {}
}