{
  "_format": "hh-sol-artifact-1",
  "contractName": "AvalancheValidatorFacet",
  "sourceName": "contracts/validator/facets/AvalancheValidatorFacet.sol",
  "abi": [
    {
      "anonymous": false,
      "inputs": [
        {
          "indexed": true,
          "internalType": "uint256",
          "name": "amount",
          "type": "uint256"
        },
        {
          "indexed": false,
          "internalType": "address",
          "name": "manager",
          "type": "address"
        },
        {
          "indexed": false,
          "internalType": "uint256",
          "name": "time",
          "type": "uint256"
        }
      ],
      "name": "avaxWithdrawnToStake",
      "type": "event"
    },
    {
      "anonymous": false,
      "inputs": [
        {
          "indexed": true,
          "internalType": "address",
          "name": "manager",
          "type": "address"
        },
        {
          "indexed": true,
          "internalType": "uint256",
          "name": "id",
          "type": "uint256"
        },
        {
          "indexed": false,
          "internalType": "uint256",
          "name": "time",
          "type": "uint256"
        }
      ],
      "name": "inactiveShareManaged",
      "type": "event"
    },
    {
      "anonymous": false,
      "inputs": [
        {
          "indexed": true,
          "internalType": "uint256",
          "name": "amount",
          "type": "uint256"
        },
        {
          "indexed": false,
          "internalType": "address",
          "name": "manager",
          "type": "address"
        },
        {
          "indexed": false,
          "internalType": "uint256",
          "name": "time",
          "type": "uint256"
        }
      ],
      "name": "incentivesStoppedAndWithdrawn",
      "type": "event"
    },
    {
      "anonymous": false,
      "inputs": [
        {
          "indexed": true,
          "internalType": "address",
          "name": "redeemer",
          "type": "address"
        },
        {
          "indexed": false,
          "internalType": "uint256",
          "name": "amount",
          "type": "uint256"
        },
        {
          "indexed": false,
          "internalType": "uint256",
          "name": "value",
          "type": "uint256"
        },
        {
          "indexed": false,
          "internalType": "uint256",
          "name": "time",
          "type": "uint256"
        }
      ],
      "name": "refundsManaged",
      "type": "event"
    },
    {
      "anonymous": false,
      "inputs": [
        {
          "indexed": true,
          "internalType": "address",
          "name": "redeemer",
          "type": "address"
        },
        {
          "indexed": false,
          "internalType": "uint256",
          "name": "amount",
          "type": "uint256"
        },
        {
          "indexed": false,
          "internalType": "uint256",
          "name": "value",
          "type": "uint256"
        },
        {
          "indexed": false,
          "internalType": "uint256",
          "name": "time",
          "type": "uint256"
        }
      ],
      "name": "refundsRedeemed",
      "type": "event"
    },
    {
      "inputs": [
        {
          "internalType": "uint256[]",
          "name": "_ids",
          "type": "uint256[]"
        }
      ],
      "name": "collectRewards",
      "outputs": [
        {
          "internalType": "bool",
          "name": "",
          "type": "bool"
        }
      ],
      "stateMutability": "nonpayable",
      "type": "function"
    },
    {
      "inputs": [
        {
          "internalType": "uint256[]",
          "name": "_ids",
          "type": "uint256[]"
        }
      ],
      "name": "externalCleanRedeemedMapping",
      "outputs": [],
      "stateMutability": "nonpayable",
      "type": "function"
    },
    {
      "inputs": [
        {
          "internalType": "address",
          "name": "_owner",
          "type": "address"
        },
        {
          "internalType": "uint256",
          "name": "_id",
          "type": "uint256"
        }
      ],
      "name": "getPositionHealth",
      "outputs": [
        {
          "internalType": "uint256",
          "name": "",
          "type": "uint256"
        },
        {
          "internalType": "bool",
          "name": "",
          "type": "bool"
        }
      ],
      "stateMutability": "view",
      "type": "function"
    },
    {
      "inputs": [
        {
          "internalType": "address",
          "name": "_inactiveOwner",
          "type": "address"
        },
        {
          "internalType": "uint256",
          "name": "_id",
          "type": "uint256"
        }
      ],
      "name": "manageInactiveValidatorShares",
      "outputs": [
        {
          "internalType": "bool",
          "name": "",
          "type": "bool"
        }
      ],
      "stateMutability": "nonpayable",
      "type": "function"
    },
    {
      "inputs": [
        {
          "internalType": "address",
          "name": "_refundsUnclaimer",
          "type": "address"
        },
        {
          "internalType": "uint256",
          "name": "_amount",
          "type": "uint256"
        },
        {
          "internalType": "uint256",
          "name": "_id",
          "type": "uint256"
        },
        {
          "internalType": "bytes32[]",
          "name": "_merkleProof",
          "type": "bytes32[]"
        }
      ],
      "name": "manageUnclaimedRefunds",
      "outputs": [
        {
          "internalType": "bool",
          "name": "",
          "type": "bool"
        }
      ],
      "stateMutability": "nonpayable",
      "type": "function"
    },
    {
      "inputs": [
        {
          "internalType": "uint256",
          "name": "_amountRedeemed",
          "type": "uint256"
        },
        {
          "internalType": "uint256",
          "name": "_id",
          "type": "uint256"
        },
        {
          "internalType": "bytes32[]",
          "name": "_merkleProof",
          "type": "bytes32[]"
        }
      ],
      "name": "redeemRefund",
      "outputs": [
        {
          "internalType": "bool",
          "name": "",
          "type": "bool"
        }
      ],
      "stateMutability": "nonpayable",
      "type": "function"
    },
    {
      "inputs": [],
      "name": "withdrawAvaxToStake",
      "outputs": [
        {
          "internalType": "bool",
          "name": "",
          "type": "bool"
        }
      ],
      "stateMutability": "nonpayable",
      "type": "function"
    },
    {
      "inputs": [],
      "name": "withdrawIncentives",
      "outputs": [
        {
          "internalType": "bool",
          "name": "",
          "type": "bool"
        }
      ],
      "stateMutability": "nonpayable",
      "type": "function"
    },
    {
      "inputs": [],
      "name": "withdrawQuarryDrawRewardFee",
      "outputs": [
        {
          "internalType": "bool",
          "name": "",
          "type": "bool"
        }
      ],
      "stateMutability": "nonpayable",
      "type": "function"
    }
  ],
  "bytecode": "0x608060405234801561001057600080fd5b50612f4e806100206000396000f3fe608060405234801561001057600080fd5b50600436106100a35760003560e01c8063a7501f1c11610076578063dad5f4601161005b578063dad5f46014610126578063e087cd551461014e578063f9e4ce721461015657600080fd5b8063a7501f1c14610109578063a81bb0ba1461011157600080fd5b80635003c761146100a85780635a1b65ae146100d057806380eaed61146100e35780639e1b66c1146100f6575b600080fd5b6100bb6100b6366004612ba5565b61015e565b60405190151581526020015b60405180910390f35b6100bb6100de366004612bfe565b61058d565b6100bb6100f1366004612d1f565b61063c565b6100bb610104366004612d72565b610a63565b6100bb610f17565b61012461011f366004612bfe565b611023565b005b610139610134366004612ba5565b6110c5565b604080519283529015156020830152016100c7565b6100bb611215565b6100bb6113a0565b7fd5b0c411a6c50ab7237d5bdf5f4be539f3a9603f77c2fe2a10b3944fcb2c324b805460009190600214156101f4576040517f08c379a000000000000000000000000000000000000000000000000000000000815260206004820152601f60248201527f5265656e7472616e637947756172643a207265656e7472616e742063616c6c0060448201526064015b60405180910390fd5b600281557f66bd28df09c9271bd5696185e1f2db071a0ed825a4f7df621c22ef195c811e9f33600061022687876114e5565b905073ffffffffffffffffffffffffffffffffffffffff82163b156102a7576040517f08c379a000000000000000000000000000000000000000000000000000000000815260206004820152601d60248201527f43616e27742062652063616c6c6564206279206120636f6e747261637400000060448201526064016101eb565b60016102b48360006114e5565b101580156102ca57506102c88260006115e7565b155b806102f3575060016102dd8360016114e5565b101580156102f357506102f18260016115e7565b155b8061031c575060016103068360026114e5565b1015801561031c575061031a8260026115e7565b155b806103455750600161032f8360036114e5565b1015801561034557506103438260036115e7565b155b8061036e575060016103588360046114e5565b1015801561036e575061036c8260046115e7565b155b6103fa576040517f08c379a000000000000000000000000000000000000000000000000000000000815260206004820152602760248201527f596f7520646f6e2774206f776e20616e206163746976652076616c696461746f60448201527f722073686172650000000000000000000000000000000000000000000000000060648201526084016101eb565b6001811015610465576040517f08c379a000000000000000000000000000000000000000000000000000000000815260206004820152601c60248201527f4164647265737320646f65736e2774206f776e20616e797468696e670000000060448201526064016101eb565b600061047188886110c5565b91505080156104dc576040517f08c379a000000000000000000000000000000000000000000000000000000000815260206004820152600f60248201527f4f776e657220697320616374697665000000000000000000000000000000000060448201526064016101eb565b60006104e788611673565b90506104f48985836116be565b6000888152600f86016020908152604080832080548790039055600e88019091529020805484900390556105298989856118dd565b878473ffffffffffffffffffffffffffffffffffffffff167f0d3aaf30a90f8b3084fe609c9d027c50cda00a80dff100e8b43b5f2a6e6e85034260405161057291815260200190565b60405180910390a36001965050505050506001905592915050565b7fd5b0c411a6c50ab7237d5bdf5f4be539f3a9603f77c2fe2a10b3944fcb2c324b8054600091906002141561061e576040517f08c379a000000000000000000000000000000000000000000000000000000000815260206004820152601f60248201527f5265656e7472616e637947756172643a207265656e7472616e742063616c6c0060448201526064016101eb565b600281553361062e8180866116be565b600192505060019055919050565b7fd5b0c411a6c50ab7237d5bdf5f4be539f3a9603f77c2fe2a10b3944fcb2c324b805460009190600214156106cd576040517f08c379a000000000000000000000000000000000000000000000000000000000815260206004820152601f60248201527f5265656e7472616e637947756172643a207265656e7472616e742063616c6c0060448201526064016101eb565b600281557f66bd28df09c9271bd5696185e1f2db071a0ed825a4f7df621c22ef195c811e9f336106fb611b38565b506040805173ffffffffffffffffffffffffffffffffffffffff8316602082015290810189905260608101889052600090608001604051602081830303815290604052805190602001209050610788878780806020026020016040519081016040528093929190818152602001838360200280828437600092019190915250505050603885015483611c74565b6107ee576040517f08c379a000000000000000000000000000000000000000000000000000000000815260206004820152601a60248201527f4d65726b6c65747265652070726f6f66206e6f742076616c696400000000000060448201526064016101eb565b6000888152603a84016020908152604080832073ffffffffffffffffffffffffffffffffffffffff8616845290915290205460ff161561088a576040517f08c379a000000000000000000000000000000000000000000000000000000000815260206004820152601c60248201527f596f75206861766520616c72656164792072656465656d65642069740000000060448201526064016101eb565b6000888152603a84016020908152604080832073ffffffffffffffffffffffffffffffffffffffff86168452909152812080547fffffffffffffffffffffffffffffffffffffffffffffffffffffffffffffff001660011790556108ed89611673565b90506108fa8384836116be565b898460000160370160008282546109119190612e09565b90915550506000898152600f85016020526040812080548c9290610936908490612e09565b909155506109469050838a6115e7565b15610971576000898152601085016020526040812080548c929061096b908490612e09565b90915550505b61097c838a8c6118dd565b60008061098a8c8c87611c8a565b91509150816109f5576040517f08c379a000000000000000000000000000000000000000000000000000000000815260206004820152601560248201527f556e61626c6520746f2073656e6420726566756e64000000000000000000000060448201526064016101eb565b604080518d8152602081018390524281830152905173ffffffffffffffffffffffffffffffffffffffff8716917fe01b7b4f911879f8a4133d69ec79c3742eef8f6b0de28d2d7751c73cf7b66fea919081900360600190a26001975050505050505060019055949350505050565b7fd5b0c411a6c50ab7237d5bdf5f4be539f3a9603f77c2fe2a10b3944fcb2c324b80546000919060021415610af4576040517f08c379a000000000000000000000000000000000000000000000000000000000815260206004820152601f60248201527f5265656e7472616e637947756172643a207265656e7472616e742063616c6c0060448201526064016101eb565b600281557f66bd28df09c9271bd5696185e1f2db071a0ed825a4f7df621c22ef195c811ed8547f66bd28df09c9271bd5696185e1f2db071a0ed825a4f7df621c22ef195c811e9f9033904211610ba6576040517f08c379a000000000000000000000000000000000000000000000000000000000815260206004820152601d60248201527f52656465656d696e672074696d65206973207374696c6c2076616c696400000060448201526064016101eb565b610bae611b38565b506040805173ffffffffffffffffffffffffffffffffffffffff8b16602082015290810189905260608101889052600090608001604051602081830303815290604052805190602001209050610c3b878780806020026020016040519081016040528093929190818152602001838360200280828437600092019190915250505050603885015483611c74565b610ca1576040517f08c379a000000000000000000000000000000000000000000000000000000000815260206004820152601a60248201527f4d65726b6c65747265652070726f6f66206e6f742076616c696400000000000060448201526064016101eb565b6000888152603a84016020908152604080832073ffffffffffffffffffffffffffffffffffffffff8e16845290915290205460ff1615610d3d576040517f08c379a000000000000000000000000000000000000000000000000000000000815260206004820152601c60248201527f596f75206861766520616c72656164792072656465656d65642069740000000060448201526064016101eb565b6000888152603a84016020908152604080832073ffffffffffffffffffffffffffffffffffffffff8e168452909152812080547fffffffffffffffffffffffffffffffffffffffffffffffffffffffffffffff00166001179055610da089611673565b9050610dad8b84836116be565b89846000016037016000828254610dc49190612e09565b90915550506000898152600f85016020526040812080548c9290610de9908490612e09565b90915550610df990508b8a6115e7565b15610e24576000898152601085016020526040812080548c9290610e1e908490612e09565b90915550505b610e2f8b8a8c6118dd565b600080610e3d8c8c87611d7a565b9150915081610ea8576040517f08c379a000000000000000000000000000000000000000000000000000000000815260206004820152601560248201527f556e61626c6520746f2073656e6420726566756e64000000000000000000000060448201526064016101eb565b604080518d8152602081018390524281830152905173ffffffffffffffffffffffffffffffffffffffff8716917f31c66585121c3cc14d8a5cdd60cfd401d7f225c9bc14d8cf7204d16782e8bcb4919081900360600190a2600197505050505050506001905595945050505050565b6000610f21611ed9565b7f66bd28df09c9271bd5696185e1f2db071a0ed825a4f7df621c22ef195c811eca547f66bd28df09c9271bd5696185e1f2db071a0ed825a4f7df621c22ef195c811e9f9080610fcc576040517f08c379a000000000000000000000000000000000000000000000000000000000815260206004820152601260248201527f4e6f206665657320746f20636f6c6c656374000000000000000000000000000060448201526064016101eb565b6000602b83015561101a6110147fc8fcad8db84d3cc18b4c41d551ea0ee66dd599cde068d998e57d5e09332c13205473ffffffffffffffffffffffffffffffffffffffff1690565b82611fa4565b60019250505090565b7fd5b0c411a6c50ab7237d5bdf5f4be539f3a9603f77c2fe2a10b3944fcb2c324b8054600214156110b0576040517f08c379a000000000000000000000000000000000000000000000000000000000815260206004820152601f60248201527f5265656e7472616e637947756172643a207265656e7472616e742063616c6c0060448201526064016101eb565b600281556110bd82612103565b506001905550565b60008181527f66bd28df09c9271bd5696185e1f2db071a0ed825a4f7df621c22ef195c811eda6020908152604080832073ffffffffffffffffffffffffffffffffffffffff8616845290915281205481907f66bd28df09c9271bd5696185e1f2db071a0ed825a4f7df621c22ef195c811e9f908061119f576040517f08c379a000000000000000000000000000000000000000000000000000000000815260206004820152601960248201527f4f776e657220646f65736e27742068617665207368617265730000000000000060448201526064016101eb565b6111a986866115e7565b156111c95760006111ba4283612e09565b94506001935061120e92505050565b601182015460006111da8342612e09565b90508082108015906111fe576111f08284612e09565b9650945061120e9350505050565b60009650945061120e9350505050565b9250929050565b600061121f611ed9565b7f66bd28df09c9271bd5696185e1f2db071a0ed825a4f7df621c22ef195c811ec8547f66bd28df09c9271bd5696185e1f2db071a0ed825a4f7df621c22ef195c811e9f9080156112cb576040517f08c379a000000000000000000000000000000000000000000000000000000000815260206004820152601860248201527f43616e7420776974686472617720696e63656e7469766573000000000000000060448201526064016101eb565b6026820180547fffffffffffffffffffffffffffffffffffffffffffffffffffffffffffffff00169055600060288301819055602983018190556027830155807f629ab23776563179292fa4cb91786729cf451ad4f3f09a962eb739ac4a3c292261136a7fc8fcad8db84d3cc18b4c41d551ea0ee66dd599cde068d998e57d5e09332c13205473ffffffffffffffffffffffffffffffffffffffff1690565b6040805173ffffffffffffffffffffffffffffffffffffffff90921682524260208301520160405180910390a260019250505090565b60006113aa611ed9565b7f66bd28df09c9271bd5696185e1f2db071a0ed825a4f7df621c22ef195c811e9f600061140b7fc8fcad8db84d3cc18b4c41d551ea0ee66dd599cde068d998e57d5e09332c13205473ffffffffffffffffffffffffffffffffffffffff1690565b60258301549091508061147a576040517f08c379a000000000000000000000000000000000000000000000000000000000815260206004820152601160248201527f4e6f2066756e647320746f207374616b6500000000000000000000000000000060448201526064016101eb565b6000602584015561148b8282611fa4565b6040805173ffffffffffffffffffffffffffffffffffffffff8416815242602082015282917f205f1e56eae595bfb9b4b39b1dc1a870a11eef6e559bcdea887a480feff99794910160405180910390a26001935050505090565b60007f66bd28df09c9271bd5696185e1f2db071a0ed825a4f7df621c22ef195c811e9f73ffffffffffffffffffffffffffffffffffffffff84166115ab576040517f08c379a000000000000000000000000000000000000000000000000000000000815260206004820152602a60248201527f455243313135353a2061646472657373207a65726f206973206e6f742061207660448201527f616c6964206f776e65720000000000000000000000000000000000000000000060648201526084016101eb565b600083815260019091016020908152604080832073ffffffffffffffffffffffffffffffffffffffff8716845290915290205490505b92915050565b60008181527f66bd28df09c9271bd5696185e1f2db071a0ed825a4f7df621c22ef195c811eda6020908152604080832073ffffffffffffffffffffffffffffffffffffffff861684529091528120547f66bd28df09c9271bd5696185e1f2db071a0ed825a4f7df621c22ef195c811e9f904210156116695760019150506115e1565b60009150506115e1565b604080516001808252818301909252606091600091906020808301908036833701905050905082816000815181106116ad576116ad612e20565b602090810291909101015292915050565b7f66bd28df09c9271bd5696185e1f2db071a0ed825a4f7df621c22ef195c811e9f6116e88461223a565b60005b82518110156118d657600082600001603201600085848151811061171157611711612e20565b6020026020010151815260200190815260200160002060008773ffffffffffffffffffffffffffffffffffffffff1673ffffffffffffffffffffffffffffffffffffffff16815260200190815260200160002054905060008111156118cd5782600001603201600085848151811061178b5761178b612e20565b6020908102919091018101518252818101929092526040908101600090812073ffffffffffffffffffffffffffffffffffffffff808b168352908452828220829055603d87019093529081205490911680156118b757602485015473ffffffffffffffffffffffffffffffffffffffff82166000908152603e870160209081526040808320548352603f89019091529020546118279085612e4f565b6118319190612e8c565b91508185600001603201600088878151811061184f5761184f612e20565b6020026020010151815260200190815260200160002060008373ffffffffffffffffffffffffffffffffffffffff1673ffffffffffffffffffffffffffffffffffffffff16815260200190815260200160002060008282546118b19190612ec7565b90915550505b6118ca876118c58486612e09565b611fa4565b50505b506001016116eb565b5050505050565b7f66bd28df09c9271bd5696185e1f2db071a0ed825a4f7df621c22ef195c811e9f73ffffffffffffffffffffffffffffffffffffffff84166119a1576040517f08c379a000000000000000000000000000000000000000000000000000000000815260206004820152602360248201527f455243313135353a206275726e2066726f6d20746865207a65726f206164647260448201527f657373000000000000000000000000000000000000000000000000000000000060648201526084016101eb565b3360006119ad85611673565b905060006119ba85611673565b90506119da83886000858560405180602001604052806000815250612428565b6000868152600185016020908152604080832073ffffffffffffffffffffffffffffffffffffffff8b16845290915290205485811015611a9b576040517f08c379a0000000000000000000000000000000000000000000000000000000008152602060048201526024808201527f455243313135353a206275726e20616d6f756e7420657863656564732062616c60448201527f616e63650000000000000000000000000000000000000000000000000000000060648201526084016101eb565b6000878152600186016020908152604080832073ffffffffffffffffffffffffffffffffffffffff8c81168086529184528285208b8703905582518c81529384018b90529092908816917fc3d58168c5ae7397731d063d5bbf3d657854427343f4c083240f7aacaa2d0f62910160405180910390a4611b2e84896000868660405180602001604052806000815250612682565b5050505050505050565b7f66bd28df09c9271bd5696185e1f2db071a0ed825a4f7df621c22ef195c811eb1547f66bd28df09c9271bd5696185e1f2db071a0ed825a4f7df621c22ef195c811eb2546000917f66bd28df09c9271bd5696185e1f2db071a0ed825a4f7df621c22ef195c811e9f9142611bac8383612ec7565b811115611bcb5760138401819055611bc48382612ec7565b9450611bd8565b611bd58383612ec7565b94505b6014840154611be78484612ec7565b611bf19190612e09565b81111580611c075750611c048383612ec7565b81115b611c6d576040517f08c379a000000000000000000000000000000000000000000000000000000000815260206004820152601960248201527f5265776172647320617265206265696e6720757064617465640000000000000060448201526064016101eb565b5050505090565b600082611c818584612729565b14949350505050565b6040805160a08101825260018152600a60208201526064918101919091526103e86060820152612710608082015260009081907f66bd28df09c9271bd5696185e1f2db071a0ed825a4f7df621c22ef195c811e9f908290815b6005811015611d555780881415611d4d5760248401546035850154838360058110611d1057611d10612e20565b602002015161ffff1686600001601501548c611d2c9190612e4f565b611d369190612e4f565b611d409190612e4f565b611d4a9190612e8c565b92505b600101611ce3565b506034830180548390039055611d6b8683611fa4565b50600197909650945050505050565b7f66bd28df09c9271bd5696185e1f2db071a0ed825a4f7df621c22ef195c811ec3546040805160a08101825260018152600a60208201526064918101919091526103e86060820152612710608082015260009182917f66bd28df09c9271bd5696185e1f2db071a0ed825a4f7df621c22ef195c811e9f91908390815b6005811015611e655780891415611e5d5760358501548490838360058110611e2057611e20612e20565b602002015161ffff1687600001601501548d611e3c9190612e4f565b611e469190612e4f565b611e509190612e4f565b611e5a9190612e8c565b92505b600101611df6565b5060348401805483900390556036840154611e8f8885611e858487612e4f565b6118c59190612e8c565b83611e9a8282612e09565b611ea49085612e4f565b611eae9190612e8c565b602586018054600090611ec2908490612ec7565b9091555060019b939a509298505050505050505050565b7fc8fcad8db84d3cc18b4c41d551ea0ee66dd599cde068d998e57d5e09332c131c6004015473ffffffffffffffffffffffffffffffffffffffff163314611fa2576040517f08c379a000000000000000000000000000000000000000000000000000000000815260206004820152602260248201527f4c69624469616d6f6e643a204d75737420626520636f6e7472616374206f776e60448201527f657200000000000000000000000000000000000000000000000000000000000060648201526084016101eb565b565b8047101561200e576040517f08c379a000000000000000000000000000000000000000000000000000000000815260206004820152601d60248201527f416464726573733a20696e73756666696369656e742062616c616e636500000060448201526064016101eb565b60008273ffffffffffffffffffffffffffffffffffffffff168260405160006040518083038185875af1925050503d8060008114612068576040519150601f19603f3d011682016040523d82523d6000602084013e61206d565b606091505b50509050806120fe576040517f08c379a000000000000000000000000000000000000000000000000000000000815260206004820152602260248201527f416464726573735574696c733a206661696c656420746f2073656e642076616c60448201527f756500000000000000000000000000000000000000000000000000000000000060648201526084016101eb565b505050565b7f66bd28df09c9271bd5696185e1f2db071a0ed825a4f7df621c22ef195c811ed2546000907f66bd28df09c9271bd5696185e1f2db071a0ed825a4f7df621c22ef195c811e9f9060ff16156121b4576040517f08c379a000000000000000000000000000000000000000000000000000000000815260206004820152601460248201527f52656465656d73206e6f742066696e697368656400000000000000000000000060448201526064016101eb565b60005b83518110156122305781600001603a0160008583815181106121db576121db612e20565b60209081029190910181015182528181019290925260409081016000908120338252909252902080547fffffffffffffffffffffffffffffffffffffffffffffffffffffffffffffff001690556001016121b7565b5060019392505050565b7f66bd28df09c9271bd5696185e1f2db071a0ed825a4f7df621c22ef195c811e9f60005b60058110156122835761227183826115e7565b1561227b57505050565b60010161225e565b50600061228e612776565b9050600061229b846128c8565b905060005b60058110156118d6576122b1612a06565b6000828152602e860160205260409020558281600581106122d4576122d4612e20565b6020908102919091015160008381526030870190925260409091205573ffffffffffffffffffffffffffffffffffffffff851615612420576000818152603285016020908152604080832073ffffffffffffffffffffffffffffffffffffffff8916845290915290205482826005811061235057612350612e20565b602002015161235f9190612e09565b6000828152602a860160205260408120805490919061237f908490612e09565b90915550829050816005811061239757612397612e20565b602090810291909101516000838152603287018352604080822073ffffffffffffffffffffffffffffffffffffffff8a16835290935291909120558281600581106123e4576123e4612e20565b602090810291909101516000838152603187018352604080822073ffffffffffffffffffffffffffffffffffffffff8a16835290935291909120555b6001016122a0565b7f66bd28df09c9271bd5696185e1f2db071a0ed825a4f7df621c22ef195c811e9f6000805b8551811015612677578173ffffffffffffffffffffffffffffffffffffffff168873ffffffffffffffffffffffffffffffffffffffff16141580156124be57508173ffffffffffffffffffffffffffffffffffffffff168773ffffffffffffffffffffffffffffffffffffffff1614155b1561266f576124e6888783815181106124d9576124d9612e20565b60200260200101516115e7565b1580156125065750612504878783815181106124d9576124d9612e20565b155b1561260d5780612522576125198861223a565b6125228761223a565b4283600001603b01600088848151811061253e5761253e612e20565b6020026020010151815260200190815260200160002060008a73ffffffffffffffffffffffffffffffffffffffff1673ffffffffffffffffffffffffffffffffffffffff168152602001908152602001600020819055504283600001603b0160008884815181106125b1576125b1612e20565b6020026020010151815260200190815260200160002060008973ffffffffffffffffffffffffffffffffffffffff1673ffffffffffffffffffffffffffffffffffffffff1681526020019081526020016000208190555061266f565b6040517f08c379a000000000000000000000000000000000000000000000000000000000815260206004820152601460248201527f556e64657220636f6f6c696e6720706572696f6400000000000000000000000060448201526064016101eb565b60010161244d565b505050505050505050565b6000805b8451811015611b2e578173ffffffffffffffffffffffffffffffffffffffff168773ffffffffffffffffffffffffffffffffffffffff16141580156126f757508173ffffffffffffffffffffffffffffffffffffffff168673ffffffffffffffffffffffffffffffffffffffff1614155b156127215761271f8786838151811061271257612712612e20565b6020026020010151612a5d565b505b600101612686565b600081815b845181101561276e5761275a8286838151811061274d5761274d612e20565b6020026020010151612b15565b91508061276681612edf565b91505061272e565b509392505050565b61277e612b5e565b7f66bd28df09c9271bd5696185e1f2db071a0ed825a4f7df621c22ef195c811e9f60005b60058110156128c3576000818152601083016020908152604080832054600f8601909252909120546127d49190612e09565b6128055760008181526030830160205260409020548382600581106127fb576127fb612e20565b60200201526128bb565b6000818152601083016020908152604080832054600f86019092529091205461282e9190612e09565b6000828152602e84016020526040902054612847612a06565b6128519190612e09565b6000838152602f8501602052604090205461286c9190612e4f565b61287e90670de0b6b3a7640000612e4f565b6128889190612e8c565b60008281526030840160205260409020546128a39190612ec7565b8382600581106128b5576128b5612e20565b60200201525b6001016127a2565b505090565b6128d0612b5e565b7f66bd28df09c9271bd5696185e1f2db071a0ed825a4f7df621c22ef195c811e9f60006128fb612776565b905060005b60058110156129fe5773ffffffffffffffffffffffffffffffffffffffff851661294257600084826005811061293857612938612e20565b60200201526129f6565b6000818152603284016020908152604080832073ffffffffffffffffffffffffffffffffffffffff891680855290835281842054858552603188018452828520918552925290912054670de0b6b3a7640000908484600581106129a7576129a7612e20565b60200201516129b69190612e09565b6129c088856114e5565b6129ca9190612e4f565b6129d49190612e8c565b6129de9190612ec7565b8482600581106129f0576129f0612e20565b60200201525b600101612900565b505050919050565b7f66bd28df09c9271bd5696185e1f2db071a0ed825a4f7df621c22ef195c811ecc546000907f66bd28df09c9271bd5696185e1f2db071a0ed825a4f7df621c22ef195c811e9f90612a579042612b47565b91505090565b60007f66bd28df09c9271bd5696185e1f2db071a0ed825a4f7df621c22ef195c811e9f81612a8b85856114e5565b612a93575060015b8015612b0a576000848152603b83016020908152604080832073ffffffffffffffffffffffffffffffffffffffff8916808552908352818420849055878452603c86018352818420908452909152902080547fffffffffffffffffffffffffffffffffffffffffffffffffffffffffffffff001690555b506001949350505050565b6000818310612b31576000828152602084905260409020612b40565b60008381526020839052604090205b9392505050565b600081831115612b575781612b40565b5090919050565b6040518060a001604052806005906020820280368337509192915050565b803573ffffffffffffffffffffffffffffffffffffffff81168114612ba057600080fd5b919050565b60008060408385031215612bb857600080fd5b612bc183612b7c565b946020939093013593505050565b7f4e487b7100000000000000000000000000000000000000000000000000000000600052604160045260246000fd5b60006020808385031215612c1157600080fd5b823567ffffffffffffffff80821115612c2957600080fd5b818501915085601f830112612c3d57600080fd5b813581811115612c4f57612c4f612bcf565b8060051b6040517fffffffffffffffffffffffffffffffffffffffffffffffffffffffffffffffe0603f83011681018181108582111715612c9257612c92612bcf565b604052918252848201925083810185019188831115612cb057600080fd5b938501935b82851015612cce57843584529385019392850192612cb5565b98975050505050505050565b60008083601f840112612cec57600080fd5b50813567ffffffffffffffff811115612d0457600080fd5b6020830191508360208260051b850101111561120e57600080fd5b60008060008060608587031215612d3557600080fd5b8435935060208501359250604085013567ffffffffffffffff811115612d5a57600080fd5b612d6687828801612cda565b95989497509550505050565b600080600080600060808688031215612d8a57600080fd5b612d9386612b7c565b94506020860135935060408601359250606086013567ffffffffffffffff811115612dbd57600080fd5b612dc988828901612cda565b969995985093965092949392505050565b7f4e487b7100000000000000000000000000000000000000000000000000000000600052601160045260246000fd5b600082821015612e1b57612e1b612dda565b500390565b7f4e487b7100000000000000000000000000000000000000000000000000000000600052603260045260246000fd5b6000817fffffffffffffffffffffffffffffffffffffffffffffffffffffffffffffffff0483118215151615612e8757612e87612dda565b500290565b600082612ec2577f4e487b7100000000000000000000000000000000000000000000000000000000600052601260045260246000fd5b500490565b60008219821115612eda57612eda612dda565b500190565b60007fffffffffffffffffffffffffffffffffffffffffffffffffffffffffffffffff821415612f1157612f11612dda565b506001019056fea2646970667358221220eeeac760dbd34f08718d4c44ff02a826353857d688b86734e2309274e0ed8f3e64736f6c63430008080033",
  "linkReferences": {},
  "deployedLinkReferences": {}
}