{
  "_format": "hh-sol-artifact-1",
  "contractName": "AvalancheValidatorFacet",
  "sourceName": "contracts/validator/facets/AvalancheValidatorFacet.sol",
  "abi": [
    {
      "anonymous": false,
      "inputs": [
        {
          "indexed": true,
          "internalType": "uint256",
          "name": "amount",
          "type": "uint256"
        },
        {
          "indexed": false,
          "internalType": "address",
          "name": "manager",
          "type": "address"
        },
        {
          "indexed": false,
          "internalType": "uint256",
          "name": "time",
          "type": "uint256"
        }
      ],
      "name": "avaxWithdrawnToStake",
      "type": "event"
    },
    {
      "anonymous": false,
      "inputs": [
        {
          "indexed": true,
          "internalType": "address",
          "name": "manager",
          "type": "address"
        },
        {
          "indexed": true,
          "internalType": "uint256",
          "name": "id",
          "type": "uint256"
        },
        {
          "indexed": false,
          "internalType": "uint256",
          "name": "time",
          "type": "uint256"
        }
      ],
      "name": "inactiveShareManaged",
      "type": "event"
    },
    {
      "anonymous": false,
      "inputs": [
        {
          "indexed": true,
          "internalType": "uint256",
          "name": "amount",
          "type": "uint256"
        },
        {
          "indexed": false,
          "internalType": "address",
          "name": "manager",
          "type": "address"
        },
        {
          "indexed": false,
          "internalType": "uint256",
          "name": "time",
          "type": "uint256"
        }
      ],
      "name": "incentivesStoppedAndWithdrawn",
      "type": "event"
    },
    {
      "anonymous": false,
      "inputs": [
        {
          "indexed": true,
          "internalType": "address",
          "name": "redeemer",
          "type": "address"
        },
        {
          "indexed": false,
          "internalType": "uint256",
          "name": "amount",
          "type": "uint256"
        },
        {
          "indexed": false,
          "internalType": "uint256",
          "name": "value",
          "type": "uint256"
        },
        {
          "indexed": false,
          "internalType": "uint256",
          "name": "time",
          "type": "uint256"
        }
      ],
      "name": "refundsManaged",
      "type": "event"
    },
    {
      "anonymous": false,
      "inputs": [
        {
          "indexed": true,
          "internalType": "address",
          "name": "redeemer",
          "type": "address"
        },
        {
          "indexed": false,
          "internalType": "uint256",
          "name": "amount",
          "type": "uint256"
        },
        {
          "indexed": false,
          "internalType": "uint256",
          "name": "value",
          "type": "uint256"
        },
        {
          "indexed": false,
          "internalType": "uint256",
          "name": "time",
          "type": "uint256"
        }
      ],
      "name": "refundsRedeemed",
      "type": "event"
    },
    {
      "inputs": [
        {
          "internalType": "uint256[]",
          "name": "_ids",
          "type": "uint256[]"
        }
      ],
      "name": "collectRewards",
      "outputs": [
        {
          "internalType": "bool",
          "name": "",
          "type": "bool"
        }
      ],
      "stateMutability": "nonpayable",
      "type": "function"
    },
    {
      "inputs": [
        {
          "internalType": "uint256[]",
          "name": "_ids",
          "type": "uint256[]"
        }
      ],
      "name": "externalCleanRedeemedMapping",
      "outputs": [],
      "stateMutability": "nonpayable",
      "type": "function"
    },
    {
      "inputs": [
        {
          "internalType": "address",
          "name": "_owner",
          "type": "address"
        },
        {
          "internalType": "uint256",
          "name": "_id",
          "type": "uint256"
        }
      ],
      "name": "getPositionHealth",
      "outputs": [
        {
          "internalType": "uint256",
          "name": "",
          "type": "uint256"
        },
        {
          "internalType": "bool",
          "name": "",
          "type": "bool"
        }
      ],
      "stateMutability": "view",
      "type": "function"
    },
    {
      "inputs": [
        {
          "internalType": "address",
          "name": "_inactiveOwner",
          "type": "address"
        },
        {
          "internalType": "uint256",
          "name": "_id",
          "type": "uint256"
        }
      ],
      "name": "manageInactiveValidatorShares",
      "outputs": [
        {
          "internalType": "bool",
          "name": "",
          "type": "bool"
        }
      ],
      "stateMutability": "nonpayable",
      "type": "function"
    },
    {
      "inputs": [
        {
          "internalType": "address",
          "name": "_refundsUnclaimer",
          "type": "address"
        },
        {
          "internalType": "uint256",
          "name": "_amount",
          "type": "uint256"
        },
        {
          "internalType": "uint256",
          "name": "_id",
          "type": "uint256"
        },
        {
          "internalType": "bytes32[]",
          "name": "_merkleProof",
          "type": "bytes32[]"
        }
      ],
      "name": "manageUnclaimedRefunds",
      "outputs": [
        {
          "internalType": "bool",
          "name": "",
          "type": "bool"
        }
      ],
      "stateMutability": "nonpayable",
      "type": "function"
    },
    {
      "inputs": [
        {
          "internalType": "uint256",
          "name": "_amountRedeemed",
          "type": "uint256"
        },
        {
          "internalType": "uint256",
          "name": "_id",
          "type": "uint256"
        },
        {
          "internalType": "bytes32[]",
          "name": "_merkleProof",
          "type": "bytes32[]"
        }
      ],
      "name": "redeemRefund",
      "outputs": [
        {
          "internalType": "bool",
          "name": "",
          "type": "bool"
        }
      ],
      "stateMutability": "nonpayable",
      "type": "function"
    },
    {
      "inputs": [],
      "name": "withdrawAvaxToStake",
      "outputs": [
        {
          "internalType": "bool",
          "name": "",
          "type": "bool"
        }
      ],
      "stateMutability": "nonpayable",
      "type": "function"
    },
    {
      "inputs": [],
      "name": "withdrawIncentives",
      "outputs": [
        {
          "internalType": "bool",
          "name": "",
          "type": "bool"
        }
      ],
      "stateMutability": "nonpayable",
      "type": "function"
    },
    {
      "inputs": [],
      "name": "withdrawQuarryDrawRewardFee",
      "outputs": [
        {
          "internalType": "bool",
          "name": "",
          "type": "bool"
        }
      ],
      "stateMutability": "nonpayable",
      "type": "function"
    }
  ],
  "bytecode": "0x60806040523480156200001157600080fd5b5061b07880620000226000396000f3fe608060405234801561001057600080fd5b50600436106100a35760003560e01c8063a7501f1c11610076578063dad5f4601161005b578063dad5f460146101a2578063e087cd55146101d3578063f9e4ce72146101f1576100a3565b8063a7501f1c14610168578063a81bb0ba14610186576100a3565b80635003c761146100a85780635a1b65ae146100d857806380eaed61146101085780639e1b66c114610138575b600080fd5b6100c260048036038101906100bd9190619f27565b61020f565b6040516100cf9190619f82565b60405180910390f35b6100f260048036038101906100ed919061a0f6565b610e5a565b6040516100ff9190619f82565b60405180910390f35b610122600480360381019061011d919061a19a565b61122a565b60405161012f9190619f82565b60405180910390f35b610152600480360381019061014d919061a20e565b611fbe565b60405161015f9190619f82565b60405180910390f35b610170612e4c565b60405161017d9190619f82565b60405180910390f35b6101a0600480360381019061019b919061a0f6565b613196565b005b6101bc60048036038101906101b79190619f27565b6134a0565b6040516101ca92919061a2a5565b60405180910390f35b6101db613b28565b6040516101e89190619f82565b60405180910390f35b6101f9613f53565b6040516102069190619f82565b60405180910390f35b600061023d7f07518cca7ebbf4437772fe2cb690ff64777393bd9fd7eb92d0b47588cfe8214160001b61438d565b6102697fabc08d8b1539454e09273157f545fe4d0ef7695ab89c1394e5212c033c437e7960001b61438d565b6102957f19d77c6eb9bf7fa50665a0969471cf295bfd2c58da71341ebf868c4cfedd5d0360001b61438d565b600061029f614390565b90506102cd7f72f69fd9e290e66cfab98577692648fa3d5f8c684e8a73ded40194f628c836e160001b61438d565b6102f97f36e3d408aa429b34170b7218918f6c8abf4f6d588a98ff7574bb57bb37afc81460001b61438d565b6103257f28d0b526291cfc9268f4e9e0873a4d41b2d2d897a4d50b193103c6f44f06bc7960001b61438d565b60028160000154141561036d576040517f08c379a00000000000000000000000000000000000000000000000000000000081526004016103649061a32b565b60405180910390fd5b6103997f722cacd14aa9d7e08255167707b50322edd4a13c7bd2d53ffa8637b8bd83971260001b61438d565b6103c57f6ea6194c47f224b0ebc691ec7a019eb110e7ca205f8642da782fedbb941fa78360001b61438d565b6103f17f7bf39aae89ed9f6b7d5c3470b41d26e979f443feb71772d6646fb5723621ef6460001b61438d565b600281600001819055506104277f2204524f98dc310b2eff42f1da945fe4e1cd4b391fdce249ec0bedaf99ec918760001b61438d565b6104537f944917d31e06a2ca807d09e100a0981e16fa7cbd295bf7d571981edc4cf88fd160001b61446e565b61047f7ffae2a49bd809a6a1a75cd26a397376ebe6023fbbd0e08ba83b1f58faf1cafd6160001b61446e565b6104ab7f1b79c705a4547b5541a3f1f91d5d2348e25339eced629ebe6a55e72d8efd34e060001b61446e565b60006104b5614471565b90506104e37f71b7b70353bc5d59df750362aaf69555aed4f95032877ebd7c72790ce17226a960001b61446e565b61050f7fe37c012d8623bd27a65cd0dd51715ac36ec9fb73453c9583b774b8f9e75b6e5860001b61446e565b600061051961454f565b90506105477f8c19802e10c6179e5c34622c93293390742118f15fd8d4813f9d9bc38cff8de660001b61446e565b6105737fb8300807e0ce48ba1518508a580ca476e8244443989303e463aff366b09c9e3d60001b61446e565b600061057f87876145db565b90506105ad7f8afbe61eb7eb315df837f7ebf13fc84bc21c8fbff06e92d06eababa8c1f19b8b60001b61446e565b6105d97fdadc4f5812214710602fd467fb3ec4c29c19a0c66f1eb1368d8dad155ee09e8360001b61446e565b6106057fc1032bae0d465d22d9b5816bf99f0e551631bcc5288711db72deb834d7a6f4cc60001b61446e565b6106248273ffffffffffffffffffffffffffffffffffffffff16614844565b15610664576040517f08c379a000000000000000000000000000000000000000000000000000000000815260040161065b9061a397565b60405180910390fd5b6106907ff7cc87228f9c003b973cc13dd02236dbc61bb74282a837d149d7715a424bc33b60001b61446e565b6106bc7f6e098e963e1fad56801c666765975314055f793db6c9aff8ba91daaec58a23ec60001b61446e565b6106e87fd0b68274841c4a47dac8539b515a7940e9f2957f04b6dbfa3ced9656dcab566260001b61446e565b6107147f02a3a10fd4a81aeb356549be3d43da2aa5fff8fa49f578b35c313db575804d4c60001b61446e565b60016107218360006145db565b101580156107375750610735826000614960565b155b806107615750600161074a8360016145db565b10158015610760575061075e826001614960565b155b5b8061078b575060016107748360026145db565b1015801561078a5750610788826002614960565b155b5b806107b55750600161079e8360036145db565b101580156107b457506107b2826003614960565b155b5b806107df575060016107c88360046145db565b101580156107de57506107dc826004614960565b155b5b61081e576040517f08c379a00000000000000000000000000000000000000000000000000000000081526004016108159061a429565b60405180910390fd5b61084a7f17784bc6dbcae03e0402e80ad775d2e4e3410f90d9299179c5a9ab3b002826f360001b61446e565b6108767f453ba06d4d0253ac1b4c19bca00501cc6190c95e5a8fbdd47246c8fac1ec6fab60001b61446e565b6108a27fc4099f09c8360f79660ccc8e16e7205d8d9ef783bbd99a801fb692eb46f2fec460001b61446e565b6108ce7fcba28c8c8b3200e7d6173b6d150279ee7c0f69fb15acf10dc8127fc8307e42bd60001b61446e565b6001811015610912576040517f08c379a00000000000000000000000000000000000000000000000000000000081526004016109099061a495565b60405180910390fd5b61093e7fd13e8c0bd15da0549360673844da7b7ea0f4b541c361fadb7bafdf9e8e373bbd60001b61446e565b61096a7f9cfba6519cf3df084b6e04e9aa866cab3de2f0966f8c86670adb6b4fb288575060001b61446e565b6109967f25ee6c866d2f1288f8197064966a21f4431ace4af0719b4632c6f36642075a8c60001b61446e565b60006109a288886134a0565b9150506109d17fd80cb9c885f717fb8dfe1bf7131823f62d6649841660689854d2cf42fea0e8f460001b61446e565b6109fd7fc07956938861694abf9ff4669d17bb1252ddb93d59637a683986527e0b16cd1c60001b61446e565b610a297f9fc518de984d770d620cc865b2b5f5749563d5b4f486c67f4c03998ab906d70360001b61446e565b8015610a6a576040517f08c379a0000000000000000000000000000000000000000000000000000000008152600401610a619061a501565b60405180910390fd5b610a967fdfe4b19cd6ea2aebea659e31b2e7b4df950d53df1fdc94d88124506c82188f9760001b61446e565b610ac27f0540d5d55fa44e71ff404baae29f623341acd560147b88b9b413c503980765e960001b61446e565b610aee7f743ec48416cd14b09c746d5ecfd010ff9a926d9e95460810eed26d6407b128b760001b61446e565b6000610af988614bc5565b9050610b277fb2a4636f4d2697b414a93e85fed6e51c7468dd6f81960e08413717aba436bfd460001b61446e565b610b537f5fabbcb7f179c0acb4b50dd3084288b8f99b2ab3b107994db049b23c24b1600560001b61446e565b610b5e898583614d73565b610b8a7f3a45340594e6ec6e482513381700f1c0b78e2fc27458d3a27e68e1345e01a11760001b61446e565b610bb67f45036dff39399f8581ffe6907842efbcb8bb39ea3fc31e50fad6ac8afbe4fb3360001b61446e565b610be27fe86144084671308a905a21e9a2ecc6b1a24dc113a2b30de8fa1c484576beb23960001b61446e565b8285600001600f0160008a815260200190815260200160002060008282540392505081905550610c347fce236c44ead198e05dbc08ac0c992ccecd824e00e85b287b772f57f977491e0e60001b61446e565b610c607f38e28b779aef79ee2c1817e6594b4ae9c743b4e55c56e004072323ffa993f06e60001b61446e565b8285600001600e0160008a815260200190815260200160002060008282540392505081905550610cb27f336c69715683ca037df3c868f2aeb70a61d8d8cd089f0e90f0e8355e3e358c4b60001b61446e565b610cde7fa4665a0c6398e3422fcacfc526e26a67b96d69e618a860e9180f1f77345e891860001b61446e565b610ce9898985615584565b610d157f74e05277eddf1ea399e41cf77a95e12e442269149222244b7dda1845edb6227060001b61446e565b610d417f7e3cbf2d626b92e43c1fc332bc8428fd270b9799502fafa7d5b999e226bb70d960001b61446e565b878473ffffffffffffffffffffffffffffffffffffffff167f0d3aaf30a90f8b3084fe609c9d027c50cda00a80dff100e8b43b5f2a6e6e850342604051610d88919061a521565b60405180910390a3610dbc7f636dfee6ceed61ce6d5358fb665188a601172205d9480623676274942f6e676460001b61446e565b610de87f1c4a101b6007148159ec8905d0e4a9117beba1094eb5039476385a7b34e98f0260001b61446e565b600196505050505050610e1d7fdd8e023589bb1f5964a3b72d19cef9afc68cf0ae7bf78e308304ea652461902d60001b61438d565b610e497f185fbade08d766ef5c0b5eb0d1f659bf506ff5f70cebf3477019e6c0cb0fb98460001b61438d565b600181600001819055505092915050565b6000610e887f07518cca7ebbf4437772fe2cb690ff64777393bd9fd7eb92d0b47588cfe8214160001b61438d565b610eb47fabc08d8b1539454e09273157f545fe4d0ef7695ab89c1394e5212c033c437e7960001b61438d565b610ee07f19d77c6eb9bf7fa50665a0969471cf295bfd2c58da71341ebf868c4cfedd5d0360001b61438d565b6000610eea614390565b9050610f187f72f69fd9e290e66cfab98577692648fa3d5f8c684e8a73ded40194f628c836e160001b61438d565b610f447f36e3d408aa429b34170b7218918f6c8abf4f6d588a98ff7574bb57bb37afc81460001b61438d565b610f707f28d0b526291cfc9268f4e9e0873a4d41b2d2d897a4d50b193103c6f44f06bc7960001b61438d565b600281600001541415610fb8576040517f08c379a0000000000000000000000000000000000000000000000000000000008152600401610faf9061a32b565b60405180910390fd5b610fe47f722cacd14aa9d7e08255167707b50322edd4a13c7bd2d53ffa8637b8bd83971260001b61438d565b6110107f6ea6194c47f224b0ebc691ec7a019eb110e7ca205f8642da782fedbb941fa78360001b61438d565b61103c7f7bf39aae89ed9f6b7d5c3470b41d26e979f443feb71772d6646fb5723621ef6460001b61438d565b600281600001819055506110727f2204524f98dc310b2eff42f1da945fe4e1cd4b391fdce249ec0bedaf99ec918760001b61438d565b61109e7fcf62499c86d3015c933a39af8a2dbc12ea1b85d8e156a0f5b092370667cfafd860001b61446e565b6110ca7f74c5791f152dd0b49fef342afab05fca0760ff746c9473749cf416342532b04c60001b61446e565b6110f67fd88843bb7a41fb03c70392e4de84108941a4deb76f91d3303f79c62b586fea7160001b61446e565b600061110061454f565b905061112e7fa3cfad71913002900b8da92dc82a89b45efaaa26a56552cd2182a7eb0607aec560001b61446e565b61115a7f207104f349a6c69b17d5eceaad9de118d51e7bb4f879f63c070e2fcef76aff6c60001b61446e565b611165818286614d73565b6111917f7149309591bcd2ed1e5e3090198a174354a215e2fe182dc1642da661a919083760001b61446e565b6111bd7fcf571e5e838ef646a6176b2615abfb21d0486c5c840c7a007446b9b691c942d660001b61446e565b60019250506111ee7fdd8e023589bb1f5964a3b72d19cef9afc68cf0ae7bf78e308304ea652461902d60001b61438d565b61121a7f185fbade08d766ef5c0b5eb0d1f659bf506ff5f70cebf3477019e6c0cb0fb98460001b61438d565b6001816000018190555050919050565b60006112587f07518cca7ebbf4437772fe2cb690ff64777393bd9fd7eb92d0b47588cfe8214160001b61438d565b6112847fabc08d8b1539454e09273157f545fe4d0ef7695ab89c1394e5212c033c437e7960001b61438d565b6112b07f19d77c6eb9bf7fa50665a0969471cf295bfd2c58da71341ebf868c4cfedd5d0360001b61438d565b60006112ba614390565b90506112e87f72f69fd9e290e66cfab98577692648fa3d5f8c684e8a73ded40194f628c836e160001b61438d565b6113147f36e3d408aa429b34170b7218918f6c8abf4f6d588a98ff7574bb57bb37afc81460001b61438d565b6113407f28d0b526291cfc9268f4e9e0873a4d41b2d2d897a4d50b193103c6f44f06bc7960001b61438d565b600281600001541415611388576040517f08c379a000000000000000000000000000000000000000000000000000000000815260040161137f9061a32b565b60405180910390fd5b6113b47f722cacd14aa9d7e08255167707b50322edd4a13c7bd2d53ffa8637b8bd83971260001b61438d565b6113e07f6ea6194c47f224b0ebc691ec7a019eb110e7ca205f8642da782fedbb941fa78360001b61438d565b61140c7f7bf39aae89ed9f6b7d5c3470b41d26e979f443feb71772d6646fb5723621ef6460001b61438d565b600281600001819055506114427f2204524f98dc310b2eff42f1da945fe4e1cd4b391fdce249ec0bedaf99ec918760001b61438d565b61146e7f1d0369b5a1f52e4104c04d2792fcfc3e462f33ac5df58608e20a3a418d2fd84f60001b61446e565b61149a7f20d3baef11ac955acc17c58f32790bc1db256570d8e45c74c64ea2f87c9aecb960001b61446e565b6114c67fd79e2538b62138e826bb1477f93059acb65c38034cc3a5284576a6b9f3fa82ae60001b61446e565b60006114d0614471565b90506114fe7ff4e69ba9a216521e9afa1f2e46535a432f7195990edccb1a37123570caa9c57360001b61446e565b61152a7f92dc3872d5f7fbfd3ce4203c76ca1f98c9b17ab17d6c6e9e98f71536e7a2be8b60001b61446e565b600061153461454f565b90506115627f6898990e90f419db652156f6170aa789f7adc48255202ad548bd617850d802af60001b61446e565b61158e7fc522ca18ad80d244bd572278c0811d551eb8c8773233114e5f3922558b8480d260001b61446e565b611596615cb4565b506115c37f8ce887542be7c4596b36298d89a944c9dee0d1fc1ec3636652d92593c95d13ee60001b61446e565b6115ef7f64b1ff9499748685af072cc35928dc201add2d575410461da12752212a30621d60001b61446e565b60008189896040516020016116069392919061a54b565b60405160208183030381529060405280519060200120905061164a7f549c9077e13fb35f685d26c60a649b9fa371e00af3efcdb856d04361a3b4352160001b61446e565b6116767f3e3c35043b91cfd90fa2001073cdaab10793202bbac83d8389df8fce59dfc0e860001b61446e565b6116a27f3f35e04e72bb60108f7410a93d293470560e90ca02da77cb685d4a2f8c4516e760001b61446e565b6116f5878780806020026020016040519081016040528093929190818152602001838360200280828437600081840152601f19601f82011690508083019250505050505050846000016038015483615ffb565b611734576040517f08c379a000000000000000000000000000000000000000000000000000000000815260040161172b9061a5ce565b60405180910390fd5b6117607f8ed3ec59a02860ac2a1de62ebe487a31eaf5c10d7703ff1c6174b8151850300e60001b61446e565b61178c7ffe41e57a9ff7160350a16682d5f2d8316b5d6b9b18ee262a1723998df11e12b460001b61446e565b6117b87fde2c1b99c624cd43df4ed1c0cef396eb1132a13bbce929eae934626c0ec5d6e860001b61446e565b6117e47fc21b31a44fb14183aa2954f49e44f3c967d39b43236f515f965f14f4f2a6f9ce60001b61446e565b82600001603a01600089815260200190815260200160002060008373ffffffffffffffffffffffffffffffffffffffff1673ffffffffffffffffffffffffffffffffffffffff16815260200190815260200160002060009054906101000a900460ff1615611887576040517f08c379a000000000000000000000000000000000000000000000000000000000815260040161187e9061a63a565b60405180910390fd5b6118b37fbcda8c005c53a658310626dc8bfdccad610709934ee7ccd1999186fae06cad9c60001b61446e565b6118df7f4c89243a59b4c7eecebb4e454477f051e4c93b340873fcd35036ad8e165468d560001b61446e565b61190b7fb1447bccc9155ab0232dc4e171b0c303f2be5be71cb74b79db3dd07d3f86335660001b61446e565b600183600001603a0160008a815260200190815260200160002060008473ffffffffffffffffffffffffffffffffffffffff1673ffffffffffffffffffffffffffffffffffffffff16815260200190815260200160002060006101000a81548160ff0219169083151502179055506119a57f625ded57a27cd114f734a7065de3930d47a7c0cf0bc4d49fa72ce17d3ecc8f1260001b61446e565b6119d17f631736d56aaa552f7e3f8749db4be663ed867ee7334aab8c527c8b5bada8667460001b61446e565b60006119dc89614bc5565b9050611a0a7f8a06f08c7af3fceea01f8dc52bc8524b2cdc26e2d412c7847befff678b48849660001b61446e565b611a367fc393c26e94d59a938efb7c0fcf73e67a3509f912befe6f5e390b9d357e2d1a8360001b61446e565b611a41838483614d73565b611a6d7fab7c081b8aa3ed8ef516d7650bfde3928f0dd34910f7e9cffa6172ac456e12e360001b61446e565b611a997ff55bebc3caba2b2b142f64b3cb8fdc065c88b2a49fbdf1ad3fcdedd1d65f237860001b61446e565b89846000016037016000828254611ab0919061a689565b92505081905550611ae37f30a668e53e3c43c7af2c46e14f341e5fc77ab5028d7660e9eaf08579b65d456760001b61446e565b611b0f7fa78d2b74577adc618f63b6cad7e885a60d61f843d3b386305a600f0f3e1595ea60001b61446e565b8984600001600f0160008b81526020019081526020016000206000828254611b37919061a689565b92505081905550611b6a7f4006cd86f487cad64eebff7b925cc3c1ad7d4c1902b33f57457599929d0ecb4560001b61446e565b611b967f7217c7fca33fd987f79a1a57372a4ca0539eef6550bcb8a54fd34e94f9cbda5760001b61446e565b611ba0838a614960565b15611c5d57611bd17f60a35059d2b2ba1b8b80a6bde573969a21e240ad1caed805d485844fa913f62c60001b61446e565b611bfd7fc0d6c23a13ad9dcd86c856535a569809b0854ed695bafa8eca63358aef03422260001b61446e565b611c297fd137f6a5dc8d82dabdaf9e3271fb06ba6becaacd5f202a725ada8ab6f418e0d560001b61446e565b898460000160100160008b81526020019081526020016000206000828254611c51919061a689565b92505081905550611c8a565b611c897f29fbad795057e061d05e677bf43e5e567415decd83aea074af67668dc81d38cc60001b61446e565b5b611cb67ff3b0d89ddbf268762541abd7116f9bd32a192cfde24426ce7edc46296eaac8cc60001b61446e565b611ce27f1f9e96e2430e5f0f78e1bc471b2d5928d57772324a8a6e3c7a48d9701c67b21e60001b61446e565b611ced838a8c615584565b611d197fd9e4548056210874de45b58fbdb84b90ad0fe5405b2acfee7f2190b3ff48351660001b61446e565b611d457f61e5427eefa52dd344491d240b8977f5cd208d32c7a10b54532f4a578e46ab8160001b61446e565b600080611d538c8c87616096565b91509150611d837f272a2ca4d5dc43f8eb265c2ad5cc98650382cfe23001dc0d276b543dce6132c660001b61446e565b611daf7f3dce61b29f8d83be89f6a61cc62efbb29737257edd3e0c44d0a8cf7d2f0bf73f60001b61446e565b611ddb7fc55ac4d55446bf5ed1064120b899322e0889c0ef083a3fb38b6d6bac0ba97c4660001b61446e565b81611e1b576040517f08c379a0000000000000000000000000000000000000000000000000000000008152600401611e129061a709565b60405180910390fd5b611e477fb12db757992ed53d5ae890223b451438818c1268d3531f83b0a7ad49efbc1b5560001b61446e565b611e737f6d4fd7b59e006e9c5c53dbaac70331851bf2d98c24614346df80cc577debe26060001b61446e565b611e9f7fb3ed218114a1718f3abe9bc001b1b2e20932ba9c83d4d3acde24a7abf7e3304460001b61446e565b8473ffffffffffffffffffffffffffffffffffffffff167fe01b7b4f911879f8a4133d69ec79c3742eef8f6b0de28d2d7751c73cf7b66fea8d8342604051611ee99392919061a729565b60405180910390a2611f1d7fdb56a1ab4c5db8756d478292b4f1206280f66815304c32e146a07e2e66cf83c160001b61446e565b611f497ffbb62149eb4354b0bac4c8e75cd9f88626f6c432b01659140d4132f1c70bae7e60001b61446e565b60019750505050505050611f7f7fdd8e023589bb1f5964a3b72d19cef9afc68cf0ae7bf78e308304ea652461902d60001b61438d565b611fab7f185fbade08d766ef5c0b5eb0d1f659bf506ff5f70cebf3477019e6c0cb0fb98460001b61438d565b6001816000018190555050949350505050565b6000611fec7f07518cca7ebbf4437772fe2cb690ff64777393bd9fd7eb92d0b47588cfe8214160001b61438d565b6120187fabc08d8b1539454e09273157f545fe4d0ef7695ab89c1394e5212c033c437e7960001b61438d565b6120447f19d77c6eb9bf7fa50665a0969471cf295bfd2c58da71341ebf868c4cfedd5d0360001b61438d565b600061204e614390565b905061207c7f72f69fd9e290e66cfab98577692648fa3d5f8c684e8a73ded40194f628c836e160001b61438d565b6120a87f36e3d408aa429b34170b7218918f6c8abf4f6d588a98ff7574bb57bb37afc81460001b61438d565b6120d47f28d0b526291cfc9268f4e9e0873a4d41b2d2d897a4d50b193103c6f44f06bc7960001b61438d565b60028160000154141561211c576040517f08c379a00000000000000000000000000000000000000000000000000000000081526004016121139061a32b565b60405180910390fd5b6121487f722cacd14aa9d7e08255167707b50322edd4a13c7bd2d53ffa8637b8bd83971260001b61438d565b6121747f6ea6194c47f224b0ebc691ec7a019eb110e7ca205f8642da782fedbb941fa78360001b61438d565b6121a07f7bf39aae89ed9f6b7d5c3470b41d26e979f443feb71772d6646fb5723621ef6460001b61438d565b600281600001819055506121d67f2204524f98dc310b2eff42f1da945fe4e1cd4b391fdce249ec0bedaf99ec918760001b61438d565b6122027f3103382b7f12428c0fd5e6ce669f50d4c2f702df392f1dd456ea1ea5575c1eeb60001b61446e565b61222e7f4a977d4983407fc96465de4a54ec500d1b48d1ca0b57d17d1cafdc4c550f141660001b61446e565b61225a7f701e8dea63b90da2825555c7612371ab323b5ba783eab07b6fe78e034366a7e060001b61446e565b6000612264614471565b90506122927fb3a21d39f350bb22055ed3b3aeb842223a56426db67cc9f8f46ab500d0a5978260001b61446e565b6122be7fce6b82a1bf97340482bfdb94854642d3c9e27f6a33f1e8ac24dd78f6360dc07660001b61446e565b60006122c861454f565b90506122f67f14e63faf8878bcc8976d7c7eb76baedb17e45de5c80d306060a547455d8b308c60001b61446e565b6123227fac2ba1812ed0d3ebd4422e6d714fde8019a4a8bf6efa3ad3f3acfb63be370bcf60001b61446e565b61234e7fc8f71e6bfd2d5408d50f13a13115f9c26f719792742ad3620bf9739b1a3c63ae60001b61446e565b81600001603901544211612397576040517f08c379a000000000000000000000000000000000000000000000000000000000815260040161238e9061a7ac565b60405180910390fd5b6123c37fb32529c30b17a489c20e512925a42664a092ebe5b3531a7bf64f46fe04d9c73260001b61446e565b6123ef7fed7514c5b44effef9c5abdb621c413911ccd4f5e249621ec82248027e411a8e860001b61446e565b61241b7f923209dfe96ac123db07568c9cfa9e5db5a2b95a68b78aee123689fea70bd4ec60001b61446e565b612423615cb4565b506124507f3bc1286dc9f34da24e075d04a390c0758f680d3fc73d286ab8fc765f7e31922460001b61446e565b61247c7f35dc7afbf36e0bba139bc982ea34172e0a233c3e321f7c10dc3eaf5651fb601760001b61446e565b60008989896040516020016124939392919061a54b565b6040516020818303038152906040528051906020012090506124d77f63686ec1ec9ca4fe4de299838f691bb7c6630e0403be092473e1545a9d821e8460001b61446e565b6125037f3c5cf6b0f761a37a9ac270dccb370e9984adfc353215f1c88ee4b0d46230cd6c60001b61446e565b61252f7fae973c78b15be2b14088e1d8dd3fc4320cb0f4272fa5630d8fb4c08d7f61d95560001b61446e565b612582878780806020026020016040519081016040528093929190818152602001838360200280828437600081840152601f19601f82011690508083019250505050505050846000016038015483615ffb565b6125c1576040517f08c379a00000000000000000000000000000000000000000000000000000000081526004016125b89061a5ce565b60405180910390fd5b6125ed7f6f48a0b3f0ab6641907d8aa0f918bb6b0d895b4103fb9154886ec83d0a8d9f7160001b61446e565b6126197fe7ee1681aa02258ee6053b87e344c4e1058d4c75fdd36844e4d64ce09e310a6f60001b61446e565b6126457fa9330e2bfdbea0e69ddc753eb122fdebc0624ff919c58658958a9de8d4973c9f60001b61446e565b6126717fca6c8a02e14bf45b1285d9c84edb0792417ab969a3ccaa0064a94c8a8f91819160001b61446e565b82600001603a01600089815260200190815260200160002060008b73ffffffffffffffffffffffffffffffffffffffff1673ffffffffffffffffffffffffffffffffffffffff16815260200190815260200160002060009054906101000a900460ff1615612714576040517f08c379a000000000000000000000000000000000000000000000000000000000815260040161270b9061a63a565b60405180910390fd5b6127407f66ea6113702f9ceec61357f28ceea77b231b82e0693aba15d1046c2ea486430a60001b61446e565b61276c7fd58ddb8f89677e4ba4d1578e7a0f3340d069db01f324c342fc6c07ca3543efcf60001b61446e565b6127987ff1224cca2c89c695625e015792cf904365cfffe65b5f12d7f14ad54f742df31360001b61446e565b600183600001603a0160008a815260200190815260200160002060008c73ffffffffffffffffffffffffffffffffffffffff1673ffffffffffffffffffffffffffffffffffffffff16815260200190815260200160002060006101000a81548160ff0219169083151502179055506128327f9368b63f2a07362fc1bbe04274e57f5a1fc1f7617e850b6d4c5c3ed31d8f29eb60001b61446e565b61285e7f57579a2aad02c4bb5222e82de793f523763591c68b78bb041ee52b009c293e4b60001b61446e565b600061286989614bc5565b90506128977f6893695c984efac20fc53bab543dead5f09fab8bfb667ca8b607e0dacddfce2560001b61446e565b6128c37fd7a69f60c46c1984307b9a355826f7a7fb8facd5c119b8e2f11e5450554d8ecc60001b61446e565b6128ce8b8483614d73565b6128fa7faf2b15ebe95e2a240270d5b103a76524fd55f035ef743c1cf8d9c36a7827900860001b61446e565b6129267f5d743bee485739e17fbe907a7429ad5d1f0812c04ca82fc38123c3f6293af55e60001b61446e565b8984600001603701600082825461293d919061a689565b925050819055506129707fed17e3da88605bcb1a770be4f37ade00e8fd1fd4a77496b4f91eabe5d4ece38660001b61446e565b61299c7fc0a08a5f33ca3574bee347e3753e1a1167d4f701d1c7cf3e464fd31e72b6c39160001b61446e565b8984600001600f0160008b815260200190815260200160002060008282546129c4919061a689565b925050819055506129f77f548dc4ef307b1189401b6a3fc80bb1a5cec51fc970e09283ced1b3aeb7da722860001b61446e565b612a237f7593e610e2e979a5526052cba94eff31b5d0e00246696fdf46a2ee3142d49ccd60001b61446e565b612a2d8b8a614960565b15612aea57612a5e7fe4f4814a73d322b96af68a2082b0b7c0d88b6e5e4c29ba5c862e302d07f4691360001b61446e565b612a8a7fac7e9e7bc4d1378686dbd8e6a70c2b5de200c314a822f6eefbfbfd27ded2386e60001b61446e565b612ab67f2969d754e2fd495ac7e58614cc10cc3a9e17f18ad0492ffde89735326509a9fa60001b61446e565b898460000160100160008b81526020019081526020016000206000828254612ade919061a689565b92505081905550612b17565b612b167f5cf4fb77aebc69a7370ee5dfe268f447362c1229d1e31c618be03a6edd34115a60001b61446e565b5b612b437fc401028e07fc4c7e1cfe9f7b217840693c12139ab0ad5ef021985b8c534c24a160001b61446e565b612b6f7f38558b294ba7324842f1c576c9e882a15a0ddebf8894a30d04e5e214404b079160001b61446e565b612b7a8b8a8c615584565b612ba67f0803918297b62fb3090bcee17354847e58d2b8521200fb8c8fc60dea7682d77760001b61446e565b612bd27f56035bf80f34d69587c102a77d524205f18f4667d9f095aa98af34df0286acdb60001b61446e565b600080612be08c8c876165ee565b91509150612c107f938f32e1834505723167a42febddd704d5a0e0543a11c8222cae7e768012dd3860001b61446e565b612c3c7f9b18668b9ca46af06fdfea6d424d725f230aeeb8691417bd4382ab57da173b9c60001b61446e565b612c687ffa943f810b43b68f0633c3e88fd440a91f9f2971abe5d3f6757f673f0f36e6ce60001b61446e565b81612ca8576040517f08c379a0000000000000000000000000000000000000000000000000000000008152600401612c9f9061a709565b60405180910390fd5b612cd47f6941fdb5fa53f947b132225e7412451625eea51d366af6a38a7352b3929c41bc60001b61446e565b612d007f188e905126556e1defd2f477ab4dc7bccdc7526bcd54631104c80202947227ad60001b61446e565b612d2c7f5ddaf3388fd97c470c2dd7ff275b3e3501fac320d52a09579b93200abc2a1ef360001b61446e565b8473ffffffffffffffffffffffffffffffffffffffff167f31c66585121c3cc14d8a5cdd60cfd401d7f225c9bc14d8cf7204d16782e8bcb48d8342604051612d769392919061a729565b60405180910390a2612daa7fcd3cd0af1ad93a248fe032b7fd87ae3566f2fc23a41d6cd130e3cb2f6dc1d3f460001b61446e565b612dd67f3e3b87c75faeb766f5302f9a9ec01e3a885e38fa3bb5854554279083e8a4f87160001b61446e565b60019750505050505050612e0c7fdd8e023589bb1f5964a3b72d19cef9afc68cf0ae7bf78e308304ea652461902d60001b61438d565b612e387f185fbade08d766ef5c0b5eb0d1f659bf506ff5f70cebf3477019e6c0cb0fb98460001b61438d565b600181600001819055505095945050505050565b6000612e7a7f350cd264e235e3bb2a084c3dcba43bd44c8ba4cfc8ac33c0b2251d83cd54d99060001b61446e565b612ea67f6977a1af3c32a77779b1619948bd3c915c832cf7462fac4e62ae342f72f9717760001b61446e565b612ed27f0e686d2ae7d79cf42c513ba8b2450a69f99eeaf5bc9ee68bb16254401c5694e260001b61446e565b612eda616cb6565b612f067f7114fc471ee06adb1dff15a32b39fad2473db6e1f1ce95b5212f18487374dc6d60001b61446e565b612f327f28b83795894de5ed05760b99ff114a3fda49cf8c4890bfadd8b57483bf6d721460001b61446e565b6000612f3c614471565b9050612f6a7fbc9650dc539e9d57136c643b3213996d66ae719c8a6f164763d7e4f12f46db1160001b61446e565b612f967f15dde7413dd9094811914d7bbf3a33eacaa198d5d55d64947170bf04014c056d60001b61446e565b600081600001602b01549050612fce7f61140a65c61890c6e478998c8b4455ae509c9130619dfdfdc10e5d08971e7c5860001b61446e565b612ffa7fd13a7d29bb60aaec59e0c8c9767dfdba2360a548b693705c2b809352e1cd72ab60001b61446e565b6130267f6882616865a9a7daa20cbbf408a530b38ebf3ab068945ed90a41e1c05df1d69c60001b61446e565b60008111613069576040517f08c379a00000000000000000000000000000000000000000000000000000000081526004016130609061a818565b60405180910390fd5b6130957fcde0f9e332aaff1c5b9eb987ece4a50233dc70fedd98bbcff9f9ee9a8c1b0bc760001b61446e565b6130c17f583679423ec3e30e9678939b7b20613d3e032fa74d056842cc0e784b6490ba8b60001b61446e565b81600001602b01600090556130f87f7a2ec0245c31a2fa944228b5758a517f2078db9d3fe92a7a879d62bf2966a43260001b61446e565b6131247fe954fa8b02b46447d6effe20d66fc61ced1e45dcf22a791d3990ea92a6e35fdd60001b61446e565b61313561312f616e2d565b82616ee4565b6131617f5aa24c8f7750ed5ff788df306284cc0aa00cd3246200c22f53e8b89e7b6d78ad60001b61446e565b61318d7f7542b509dc8304aca71c1b819fcd94442801b8c86c18d75555c6ae4b2cb29b9160001b61446e565b60019250505090565b6131c27f07518cca7ebbf4437772fe2cb690ff64777393bd9fd7eb92d0b47588cfe8214160001b61438d565b6131ee7fabc08d8b1539454e09273157f545fe4d0ef7695ab89c1394e5212c033c437e7960001b61438d565b61321a7f19d77c6eb9bf7fa50665a0969471cf295bfd2c58da71341ebf868c4cfedd5d0360001b61438d565b6000613224614390565b90506132527f72f69fd9e290e66cfab98577692648fa3d5f8c684e8a73ded40194f628c836e160001b61438d565b61327e7f36e3d408aa429b34170b7218918f6c8abf4f6d588a98ff7574bb57bb37afc81460001b61438d565b6132aa7f28d0b526291cfc9268f4e9e0873a4d41b2d2d897a4d50b193103c6f44f06bc7960001b61438d565b6002816000015414156132f2576040517f08c379a00000000000000000000000000000000000000000000000000000000081526004016132e99061a32b565b60405180910390fd5b61331e7f722cacd14aa9d7e08255167707b50322edd4a13c7bd2d53ffa8637b8bd83971260001b61438d565b61334a7f6ea6194c47f224b0ebc691ec7a019eb110e7ca205f8642da782fedbb941fa78360001b61438d565b6133767f7bf39aae89ed9f6b7d5c3470b41d26e979f443feb71772d6646fb5723621ef6460001b61438d565b600281600001819055506133ac7f2204524f98dc310b2eff42f1da945fe4e1cd4b391fdce249ec0bedaf99ec918760001b61438d565b6133d87f156aeaef82cf30dbdced831a35cc225a0685321be201a2727d65bbc60eb883b560001b61446e565b6134047fb136f84aaa1e941915a0e893639d6853f48ac352cd08446b8a5dd46f2efe16d660001b61446e565b6134307fa9f449fe2f41d367fb26354eec999ce5088d18035eaff10092e954e7e5ca90bf60001b61446e565b613439826171bc565b506134667fdd8e023589bb1f5964a3b72d19cef9afc68cf0ae7bf78e308304ea652461902d60001b61438d565b6134927f185fbade08d766ef5c0b5eb0d1f659bf506ff5f70cebf3477019e6c0cb0fb98460001b61438d565b600181600001819055505050565b6000806134cf7fa27390b4027d56420c0ec654f6526d2bda410e0c14b2f2d86c2b7f6a8f25693760001b61446e565b6134fb7f1b2c1e88f790ab80b78632711da4d5aac8c054604eb0032965ab3532f1bfc9f460001b61446e565b6135277f468ea6fa76d7ce881bb25108d09a9c18889abf3eab10c02fd1cf4ce7b6b3236d60001b61446e565b6000613531614471565b905061355f7ff33a6e410da05a5f693dd4e67fa703db1e732fd399e9eda608001ee94054fe6460001b61446e565b61358b7fd6aeba4f63111fdb2e27f596e623c72877d1925e11f0f8e917d3bae7079dd6db60001b61446e565b600081600001603b01600086815260200190815260200160002060008773ffffffffffffffffffffffffffffffffffffffff1673ffffffffffffffffffffffffffffffffffffffff1681526020019081526020016000205490506136117facc866310e7a67b6fb0db3dfbcaa4cfa660a069e6422135da54d06b93b0f260460001b61446e565b61363d7f938305e771cf71cd6d0f14471034a67eeaff5ad26b631506dfe5178d185447c360001b61446e565b6136697f97bdec83031fbc9c1313bcd26fd5f1423cd7073164a62eae16e097fb612414c960001b61446e565b60008114156136ad576040517f08c379a00000000000000000000000000000000000000000000000000000000081526004016136a49061a884565b60405180910390fd5b6136d97f4e1a54435fdbb61d68449300049717f89f9b98f1e05065d76cfd32b6973bc61460001b61446e565b6137057fee34ef9986b8b6ededa0dc0f141d4d5c662f517dbb6947491e2a9c421fcbabf160001b61446e565b6137317fbbca9f949a3b07ecee5abbe6cf19c1690006efd7cab7da872b455787d5bbfd7160001b61446e565b61373b8686614960565b1561383b5761376c7f385cc38fbe9061f0da7c5e2a2fadd46ad91c5acd2ad2a7ff1988ead4c793d17660001b61446e565b6137987f34a3512081ba320e335e7491b131d3ffe20b18122859561ecb8e786fc56894f060001b61446e565b6137c47fc556519f268a12741a2139a554ede85b37833a646f036e0ecf4290aa3aea238460001b61446e565b600042826137d2919061a689565b90506138007f6d23062c78f87afd9654e5b29f25827ee07fba3e70a62c6e6c74f35cdb90f0d060001b61446e565b61382c7f1d363a090369399ffda205e0acb054e88f638f36dd48ac2db41ebabc80fb07e160001b61446e565b80600194509450505050613b21565b6138677f837bd2649fcb653b687c83b2a64f081ca9f3a037b9c72a67a894ab2a24cfc35560001b61446e565b6138937febac72d8328a78446e92f161d4c81fe8fa3e3407088540241d83816d1cc0594c60001b61446e565b6138bf7f58ed0825962877cbee31ae352521d95620a5f145cb52b06c8037779bc5e5ee4660001b61446e565b6000826000016011015490506138f77f27f815a874cfeb678c4a360f251225e78dd70f36d17638c8c076d321d82781c060001b61446e565b6139237f040ed2882034e0dae02334cde51da3bd021b9fcca04139e13d256aa14fe6595960001b61446e565b60008242613931919061a689565b905061395f7f841958acfef1c6ceab6462fbc2171d5231644975773bf2cf15faf7f4dc9b698360001b61446e565b61398b7feb9ebabd9aa06c4eb7834129fc2683d1bbaffe61d54463c53976958e304b515b60001b61446e565b60008183101590506139bf7f3f35a33610e0e7d63377fe65a531107847d7834435caa3cfeaf834af8eafdcf160001b61446e565b6139eb7f271390a10320bb576a2e7120ff84bdcd891dbb7a5318a93a0d776027b870f0c560001b61446e565b8015613a9057613a1d7fa459fa62911a299adce8a1f4cfa56ce1ab638c60400c246edbe248957a472ac260001b61446e565b613a497fe2817baa72d1a6abd789461d99a256318a166a7b1d97f256490b138210709cb760001b61446e565b613a757f4394439f2f10448cfa621fa5c19024b631a8a628ed56f198642c8caeb041c79d60001b61446e565b8183613a81919061a689565b81965096505050505050613b21565b613abc7f7bb55393a7b29c83e3e92a71f4b5c60ebcf4190db76597a774ba9a65584376b360001b61446e565b613ae87fd4fc17542fd44a7ca9d75a6ac791839960ca009be9b2c639651f1d03c46aa08160001b61446e565b613b147f3a978b12718e7480189d02dab8f4b6fe24695c0bd60d792066e4a9892aa9ea9860001b61446e565b6000819650965050505050505b9250929050565b6000613b567f513785f56684e06b97e4c03847fb1c6b0f23404828edf0b0a87d9edce56071ae60001b61446e565b613b827f5b153bc8df4a81e30943c762698915c7306c317bde4fe7aa3b4a025ce604d63660001b61446e565b613bae7fcb6c3a6ca85e41ac5d8565aa77d2fcb74fd9789e221a9674bb1c065a17866c6360001b61446e565b613bb6616cb6565b613be27f08175959a71f596f6f6c37b31f01fdbf42eaf6e6b4dbeec881ef02b8bb9c326060001b61446e565b613c0e7fec09659a44b064035e33d6e27a2a28dd7005453fd413c213e21a0bdae0c1fd5d60001b61446e565b6000613c18614471565b9050613c467fd5372ef1590dea21ce162a49d91f4ebd72aa6cddb37bd24ccaec3f4480300b3460001b61446e565b613c727f74e7b3561ac1b3dbd3e719b21e6c4a21c5c92befc2c94fe1e230ca0174765dbc60001b61446e565b600081600001602901549050613caa7f7493a0e779eb686a562640eec123ec442a6a002f34d483faf3ec54da978fcf8a60001b61446e565b613cd67f288e1eaee1381d5efef47071af0af092ab10ca6806a646a4879e6ce237db2bce60001b61446e565b613d027fe686f2420591460df33a9b676ad54b9ab83d9e83f712325d8569556a0341cbe460001b61446e565b60008114613d45576040517f08c379a0000000000000000000000000000000000000000000000000000000008152600401613d3c9061a8f0565b60405180910390fd5b613d717f03c647256d977cdbae3eba9eae019caf3e16011915396318ff7501b369eb314960001b61446e565b613d9d7ffe38dba7161bfeef10d2d609edc72d997a59517bfd16a3359c45dc50cae8536560001b61446e565b8160000160260160006101000a81549060ff0219169055613de07fb2156c1bd2d415b180d09daa2dc1e0a7e51c3f1ee10407b5ac0caff630cf3a2660001b61446e565b8160000160280160009055613e177f1f6d96cfc4f71c85f5e5cea82143323e1719ef99f1b1fe66e5b82f3346af534760001b61446e565b8160000160290160009055613e4e7fe244889ec28c7fa3d5ee051aaf5da8dc0aea0c3c559ede0849dc51c704ea69eb60001b61446e565b8160000160270160009055613e857f19c5b22420563d72b79815fd3093cb2522de88bc01d29100a20a8d78b5df741760001b61446e565b613eb17f7480124f6ec2edcc82b6d20ba054322dc198cac347c3eb00694e6fbdc6aaf63f60001b61446e565b807f629ab23776563179292fa4cb91786729cf451ad4f3f09a962eb739ac4a3c2922613edb616e2d565b42604051613eea92919061a910565b60405180910390a2613f1e7f17240edc29f4a8781a05a26c8defc694a2e5eea7a061780a68114a2ecdfd399a60001b61446e565b613f4a7ffba5cd29c33eda3b516a6daae9ecd2cd1355cf7bc7a7fc90b07707cc2aa5fa9860001b61446e565b60019250505090565b6000613f817f42a1340b0cfeaf6cf2f4bcbd124983800d307a2f40b3d54760530c95ae1db14f60001b61446e565b613fad7fb4911c3dd5fad66cb5d727d583fb876082bcbad7258b874d15a82c7306d2370e60001b61446e565b613fd97f600ec5d0864cca9fd31c21e055cd80ca3410fbaa2750d927dcd0593d83e9b28f60001b61446e565b613fe1616cb6565b61400d7fc9d1f8eaade01bf8edb32e8c96a74a53afd20838907364ff66f0830c93c8ebb160001b61446e565b6140397fd406629ad6cffea3bd4fee40976f478fff3e276cddf3120b5101f4ed6c07b70d60001b61446e565b6000614043614471565b90506140717fa66e47260a4ffed12bb61ce90cfa0ae6be18afb730ac8371741165985aa861fe60001b61446e565b61409d7fa82cbe98c373180948c403d26bb995199c0aa22e1adc4d51ac6a255f05ea3c5560001b61446e565b60006140a7616e2d565b90506140d57fc08e3249adff79fe4bf1f8d0018b85822bfb81a786a904c902678541e02b6a0b60001b61446e565b6141017fadb9cf760df84aad5b1757c3f1a744f9e2aa048df8f4f47489c4653520d754a060001b61446e565b6000826000016025015490506141397fdd8e88c0dd0f48c9dcc62ba8249415c4e89687f7cf386ec611c153aeb3c9d1c360001b61446e565b6141657ff935b38514cfb968f923147f53ae8c547d91ad6be4158e200324275431e0571b60001b61446e565b6141917f324fb00111f8bc791c3a5303fbd7b51a4f058c79b45840317946fee076ff249360001b61446e565b600081116141d4576040517f08c379a00000000000000000000000000000000000000000000000000000000081526004016141cb9061a985565b60405180910390fd5b6142007f1ec775648ee340da187e51e402f4a61bcc3601e6840ea1dc29753a840e2c6b1960001b61446e565b61422c7fcb32f72d15871531c134f2b436d4ff0ad392cb3b289740e0ef19b8208000faad60001b61446e565b82600001602501600090556142637f623bd913f9df3e5d142ab446dbe3c951278c93de60f469aacd8d14056ddbe48f60001b61446e565b61428f7f277b756df74cce356411958dba8c8b4ec71672ff27cd1f87c361daca2bed008860001b61446e565b6142998282616ee4565b6142c57f69d8b5838a0ecff07a35c6eb2882d385f5ae1e6f6d6e5a340a5dbec1944572a260001b61446e565b6142f17f9f839dc88c686bd472a5b7db46527a46da6fc5e2d21175d059b24bde8a142eb760001b61446e565b807f205f1e56eae595bfb9b4b39b1dc1a870a11eef6e559bcdea887a480feff99794834260405161432392919061aa04565b60405180910390a26143577f07199b2ebb66ed1eac8c9e4c6c0ff46e60e5b32d979ab1dc6fa8c45c3348ea5360001b61446e565b6143837fca80f6ec5657a32a27fb9a20c8217313ddd2a44cb4b5bed80837c22b374d7d9160001b61446e565b6001935050505090565b50565b60006143be7f056d3c331e41d5b766933482247804dd3546d9bcfab987ae9703d1a457e7c6ea60001b617528565b6143ea7f0da131d8f8014c05ef653bc670cf175a0e5cde992a8612ad7ccf33573906d79760001b617528565b6144167f5bb3f1974d080b77263126d43238ce426edfb2c38411144819732805196616f960001b617528565b60007fd5b0c411a6c50ab7237d5bdf5f4be539f3a9603f77c2fe2a10b3944fcb2c324b90506144677f7a53e5af97f3281f34529062653a5fc0cb6736ef23b9cec41b16b00384c142cb60001b617528565b8091505090565b50565b600061449f7fcbba79f9261db078091467664d5b84589857124d13216bd4514646c8c76d025a60001b61752b565b6144cb7f724646df3e0020e3b200b7c2cdf653dfe7c4d57f2e237999b185e7819550fa2f60001b61752b565b6144f77fc9b67fad89b63ae30277c8a003424347566f29554d769ff61cd52986b61de40360001b61752b565b60007f66bd28df09c9271bd5696185e1f2db071a0ed825a4f7df621c22ef195c811e9f90506145487fd550276b708b0edc784cb9667d4f336122f90f3c3857eafd0852a0b28138047160001b61752b565b8091505090565b600061457d7f57747667e8b005c2f220a8f765016a543bb7663d4642e3812c95c63061cfcf9460001b61752e565b6145a97f98fab446eb66bd64b30c07063f060fe67b4db79ae8837bfcc8c0fa7cb67aabd560001b61752e565b6145d57fd311dd416734c8958feae0b2169e4cc2af1cfc0beb1b7247543c6e415c5e470d60001b61752e565b33905090565b60006146097fd249cbeabbe4385464793e60853d09bb165cd9e18021ce415e2161104333190e60001b617531565b6146357fd52601cc2cb3cf20277cd9965b2f6e03dd8507cb343278593d18014bc67c7fc560001b617531565b6146617f7ee4b453d759e6dde8a4fa08bb21cf880eb3c769bfbd60ac7d1ae0fe674560c560001b617531565b600061466b614471565b90506146997f875fa4aa8b319785e25eb06ebec82ae1dc94c1957a032ee358a9ebb7d448893a60001b617531565b6146c57ffebefabc22f8b718c48c6ab8f2a857d7dc6b5db388f2361df3cef561c816379960001b617531565b6146f17fd359addff473ba8d99b52eae464c69348e00d802f469ea2d4604bc77eb7aa21c60001b617531565b600073ffffffffffffffffffffffffffffffffffffffff168473ffffffffffffffffffffffffffffffffffffffff161415614761576040517f08c379a00000000000000000000000000000000000000000000000000000000081526004016147589061aa9f565b60405180910390fd5b61478d7f47609b618f842fa2420d7b52fc0b9d566de006bf97fb02ea86b2a662217d86a860001b617531565b6147b97ff17c48cd73553b036e8c7f2f918711efc6f351655cbaa4b442b0ed37bd625c5f60001b617531565b6147e57fc4c74da8a581ce5d22d19db1f77a98604cceb7037f1c1d0ff830a70c8ce1b89a60001b617531565b80600001600101600084815260200190815260200160002060008573ffffffffffffffffffffffffffffffffffffffff1673ffffffffffffffffffffffffffffffffffffffff1681526020019081526020016000205491505092915050565b60006148727f1a3a53b72b674e9fbba2eea506869fc1e832cf52984608e3b6b644c364c38d8460001b617534565b61489e7fea5248eb53ceca51e9874404db8495bf4bfed79e1e0460d574e8881cc87eb9f160001b617534565b6148ca7f45ca0170411cbadde61381cc1a57b2465e26b279ad899930aff8b5cc0899a67f60001b617534565b60006148f87f18f085591cd5a42df19ab342b4d38ceb77ed939bd416a8e9b31bc81ea4bf87e460001b617534565b823b90506149287f702ad938ce5280224501eb8d9747dd66cde3ea513ef5ab283b87de1921354b1460001b617534565b6149547f558ee446ea02a007d77a79cd45635a8601a80b8be39035833c0439e7b35b842360001b617534565b60008111915050919050565b600061498e7fb01c21a7056d600a8a22cad3056c3c8a2e316e3eeb0fec9a70f671724e81b70060001b617537565b6149ba7fa1e63d14da21686b7cbbe08c6b7dfeebc05da1bff5022833f88250578638443e60001b617537565b6149e67f5be0227ad81a175b4c99e7b68817f1589b0b9d09dd6419c5d59a3db033b7d02860001b617537565b60006149f0614471565b9050614a1e7fd786ec36820f436d2a97a321dd23200b38ec5f7c316cbb8d882ec4f2130304c460001b617537565b614a4a7f25be3cbf0a78a60569fb7448616a1f0f8c44e0119f1ee2b3de2ffaebefcd9e8460001b617537565b80600001603b01600084815260200190815260200160002060008573ffffffffffffffffffffffffffffffffffffffff1673ffffffffffffffffffffffffffffffffffffffff16815260200190815260200160002054421015614b3557614ad37f6d4c8f9c975b3de7df30a9880637d731c282bd2f66c1e1c11d8deff4e78e207e60001b617537565b614aff7fbeee5774a3c1b6336049ef56efb43440c24da437266f1ffc185c737482fe2c4b60001b617537565b614b2b7f4d2296860b4cee80c07f222f1d796eacf310d1c690a7e72898d44258935e707b60001b617537565b6001915050614bbf565b614b617fc8569885a6563bc8f5e8f4df6b12acc3c6d322faf279e23b55940996d0f455f560001b617537565b614b8d7fab432d7a63c40278e9d3ae22e0a07c65e9cb5b62fdc5b4b67510b18d16714f1e60001b617537565b614bb97f5b8162783f1da79d6d3bebc584837af2fec3ebf94de7c7c8e757a4ad1c85a30460001b617537565b60009150505b92915050565b6060614bf37fe806a3ac73bc3e6a2cff8c8058aff4dc8b4834bcad3aba4670c354a85f2ac2c460001b617531565b614c1f7f692e1b3f0d5c19ad38ef8361c9ef4a1f850b839f1c99423ab38b7dfb5ed9190560001b617531565b614c4b7f74584b0d012840fb08988ba25745aa3ecc532b04826f6c92e5999fd6d1ff5b5a60001b617531565b6000600167ffffffffffffffff811115614c6857614c67619fb3565b5b604051908082528060200260200182016040528015614c965781602001602082028036833780820191505090505b509050614cc57fdf150e0bef325585ac5862fdf2a2c0f4ad8e20f4694cc3f19184de7df03a186460001b617531565b614cf17fee0fb6b5367ce85cb8333f4a587361c9f032a7390b37656e38fdd1c3746239a560001b617531565b8281600081518110614d0657614d0561aabf565b5b602002602001018181525050614d3e7f90f2ac292a4af21a010587bd0a5462cd658ba01fb430cf8239efae68b965354c60001b617531565b614d6a7f45a14ed0989745f6983b388fa79b9aa3e065ad5fbf823445feab4c39a67f0e8d60001b617531565b80915050919050565b614d9f7f75624b0fe808cdf04e07ff6ac7009dd3808ac1a0adffd32aa135edc4cd6ae95f60001b617537565b614dcb7fd2bd406929ae6ec9329f0a0e687e88c76ac83404c0d69bf6d27dbad9ae13ff8760001b617537565b614df77fb949ae878943dae75f87fc74807360ec4f7d67b9d42296ecfa5eeb653801b7c660001b617537565b6000614e01614471565b9050614e2f7f4a74400c7471bec6216e67600832391761a4d81c8010626589c50da68253940860001b617537565b614e5b7fd9813b0095a681710a15a6bf82315d61eaf0e88ee9a6163ef914c4d06497d83760001b617537565b614e65848361753a565b614e917faa940b5a84014c02ce8f92bfb3aff5737921e9142435f3b504996db76f57830060001b617537565b614ebd7fdf7977245fe33162f773f9a7944b13c355e0961aee3c639066c553a041c994fa60001b617537565b60005b825181101561557d57614ef57f457490352aecd002c591449eee51c45ff27b32f54bb67df1c7a8f1b8a2023c6160001b617537565b614f217f2999b11efd154aa02b5e59c6578f0142e4a1fbe55169d2cf28fb94b7aaf6044160001b617537565b6000826000016032016000858481518110614f3f57614f3e61aabf565b5b6020026020010151815260200190815260200160002060008773ffffffffffffffffffffffffffffffffffffffff1673ffffffffffffffffffffffffffffffffffffffff168152602001908152602001600020549050614fc17fe74f138943559c7362b3fa736063d02dffefb98b199afa380672f62439403f3560001b617537565b614fed7f24fb7f6b3f50a2555b720bbb970a053ae638af5dd7c3f8ed98c9844e422e517a60001b617537565b60008111156154ec576150227fe9da4768c776cc108d686b6ecee5365b591de3cd612336014d015e6b43b1443060001b617537565b61504e7f7a94d9fc5c3c95693055a9f6b9ad54b3740abdb08511d658e89b7a72ff879f5960001b617537565b82600001603201600085848151811061506a5761506961aabf565b5b6020026020010151815260200190815260200160002060008773ffffffffffffffffffffffffffffffffffffffff1673ffffffffffffffffffffffffffffffffffffffff168152602001908152602001600020600090556150ed7f7cf6f855e7afb4716ededab0fe095306009f511603ce417cac3981c7afea4bdf60001b617537565b6151197fa4e20aacf0920a0963abc60c1fe3b63d177f14095d1353da09fb2a0113b31b4e60001b617537565b60006151477f54b75995f7d86654819c3bc37f7c1ea3d2c43d25e1aeb97ff8a332e1516dbf7760001b617537565b6151737f0983e1fa4bca810e18e6e1c6c00ad1156fda8c75ece6c268fdc26eea84b9f14560001b617537565b600084600001603d0160008973ffffffffffffffffffffffffffffffffffffffff1673ffffffffffffffffffffffffffffffffffffffff16815260200190815260200160002060009054906101000a900473ffffffffffffffffffffffffffffffffffffffff1690506152087fdd32ccc5736a074b1e5060b4873f576624f250cd221ae6243409b32384da42c860001b617537565b6152347fabeb8d2c8c43f3784de30a17b5921cbe51f8cdc390376778861f5de021d1e9fe60001b617537565b600073ffffffffffffffffffffffffffffffffffffffff168173ffffffffffffffffffffffffffffffffffffffff161461544b576152947ff6dc36f7028660eee4fe76539bd8db30d4bdd5c11e5b2568bee3b9da9bab1bec60001b617537565b6152c07feb98b26c09958bbe8c52304b8cc4b77a849420c0567a57ffc17004ae3618093e60001b617537565b6152ec7ff58ea581d4c2ae7c4f0557b8f2cbc63a85f742d7cc813dc8ebf63af303390f5960001b617537565b846000016024015485600001603f01600087600001603e0160008573ffffffffffffffffffffffffffffffffffffffff1673ffffffffffffffffffffffffffffffffffffffff168152602001908152602001600020548152602001908152602001600020548461535c919061aaee565b615366919061ab77565b91506153947fb90f780cc98f01a91853bfb09e0bb4305626bb917929155650cda09f71375eba60001b617537565b6153c07f9ba245770a299d9467b5bc1d83cb03a92b4d15853abf5a07a5951e8bcac85ea460001b617537565b818560000160320160008887815181106153dd576153dc61aabf565b5b6020026020010151815260200190815260200160002060008373ffffffffffffffffffffffffffffffffffffffff1673ffffffffffffffffffffffffffffffffffffffff168152602001908152602001600020600082825461543f919061aba8565b92505081905550615478565b6154777fbbb3b211b36750e1b0f8f97f98f590c8af5b8830d534b38ec52cc20c166e573360001b617537565b5b6154a47f8de0d850f3a523429f9d99076e06e4d2f84ca9d41293d74e0ab6f5b7ac8dc3a060001b617537565b6154d07fb093b64d97f150ab01d0ef8f14873548a7afd08619de7a8cff5ba79707682f1360001b617537565b6154e58783856154e0919061a689565b616ee4565b5050615519565b6155187f6783fa9d4bae982f566b1f4e7f62b6d9bdf51c8e7098a6f123a252a1650a3cb460001b617537565b5b6155457f6a3f807f82b1e98c35b282a841145234bc6dd6e4d8d30c75a45bc5e9a0397ba460001b617537565b6155717f12956b1f56354b1566f28895509ba992e8bd6a107cc569eb49124b4a4bfdb01c60001b617537565b81600101915050614ec0565b5050505050565b6155b07f852b36d415fa2f651b53e419b122f1bb9f1b1993c0f68aebc8891346f421a79f60001b617531565b6155dc7ff5bfa22e4209813db02e338cebf6acd339434d221c8b6f9aee711d14b6a2bca360001b617531565b6156087f6a5b87f4d1067e7e0b52cf88a0e77f21771fee25116adcf81b8d805321aea3bd60001b617531565b6000615612614471565b90506156407f9a86cd7a9469fc803ebffb2a03b778a1e6cbf165d2c6b44ccdf52480ea42efb960001b617531565b61566c7fe20fbbff2cf29a3858836e937c34b37bfecf8b3b8399a6ef49ac8f26bc5826b260001b617531565b6156987fd67dc8c489fea284f2d352f30a35e4df18422ca6925aa13628f775627ee679b460001b617531565b600073ffffffffffffffffffffffffffffffffffffffff168473ffffffffffffffffffffffffffffffffffffffff161415615708576040517f08c379a00000000000000000000000000000000000000000000000000000000081526004016156ff9061ac70565b60405180910390fd5b6157347f5cfd06c911ef399f7fb81b49a5af0e2dac89eff65542d84c4c08bffacc0ca83c60001b617531565b6157607fb6ceef50ec9adf904e9d0e2987303d2463222a69bb32535e05dfe3e221ba74c360001b617531565b61578c7f73be8c0b7ade07de9c7d2287642385407cda1a5121913423d4be0a4987821a2b60001b617531565b6000615796617e8f565b90506157c47f90c7bf8eb0d25f51a9bdc36b4eb2be183b14a91db606224f48b8de6974cd4fca60001b617531565b6157f07f49bc6469f25cd477cbcc3bd483b92ee4f7b94acafb533f2fdfdce770090dd63460001b617531565b60006157fb85614bc5565b90506158297faafa5326d904947702b6eaa9d1731c46146715aea2d879c0d189bc42c1c1f48560001b617531565b6158557f4d949e825812ff00490f4673c997666e430d5e49a6a0b464b7f87b473c04a71660001b617531565b600061586085614bc5565b905061588e7ff0d5f69ee03fc7a4bcb13a7802787c208f2cf0bcc93129415522713e60a9fbe960001b617531565b6158ba7fe196afbb76ff05574dcaf8ded116fa5947aec6f6b5230cfa7381efefca9cc12d60001b617531565b6158d883886000858560405180602001604052806000815250617f1b565b6159047f6655a01738840d501f822222636362e10464436fa5c3975b93007f441d41b12160001b617531565b6159307f46088ad5bb19170afb800e824b91b2d4d616767ec8663ae902a58de0ae85790c60001b617531565b600084600001600101600088815260200190815260200160002060008973ffffffffffffffffffffffffffffffffffffffff1673ffffffffffffffffffffffffffffffffffffffff1681526020019081526020016000205490506159b67f6e9aea2f525ed8e2585e2a85d1a83422e65eb6fb5c4f82884887f4e7f01ec3c660001b617531565b6159e27f6ef87eb67b929fadbad3d8a772689ad6efaace4b408e5ccf41aec03183dcda1d60001b617531565b615a0e7f64c747383de9a8f20e06eb40441449e0a489f1a76e163be4880602606ca3c61f60001b617531565b85811015615a51576040517f08c379a0000000000000000000000000000000000000000000000000000000008152600401615a489061ad02565b60405180910390fd5b615a7d7f260d0ff3940d9d1551923028fc67783d3d33e32307308b60b4d50d69ddf2b4fc60001b617531565b615aa97f69fd8d6fc830c3ddc72fec5109b278785c3a5268cc0c15fe53c028c30315654960001b617531565b615ad57f10201a323387754c40e1bce9b9a99e2cc274e3b857fa6883971e0b85a2e626d260001b617531565b615b017f6702e64be335ae6a8a8c132f3e1c31f27456d703cfcd0023498a528962c22f2b60001b617531565b85810385600001600101600089815260200190815260200160002060008a73ffffffffffffffffffffffffffffffffffffffff1673ffffffffffffffffffffffffffffffffffffffff16815260200190815260200160002081905550615b897fc91ac43f9cdbc58372cf8bb827b5d2eef04675586b33b6a7ceb9b4980f868b3e60001b617531565b615bb57f3c654a280db878d9b930577ddc59789d68e267fcfd3b229c95535a301515b5e760001b617531565b600073ffffffffffffffffffffffffffffffffffffffff168873ffffffffffffffffffffffffffffffffffffffff168573ffffffffffffffffffffffffffffffffffffffff167fc3d58168c5ae7397731d063d5bbf3d657854427343f4c083240f7aacaa2d0f628a8a604051615c2c92919061ad22565b60405180910390a4615c607f8c5ad92f78d5e10dcef684e0a97be735bc87b368125da52c7ca112be17ee8af560001b617531565b615c8c7fc817cd2672c0392f61776131aa0ba18c8c67368be5ed2bc12359bf0da0fde8a760001b617531565b615caa848960008686604051806020016040528060008152506185c9565b5050505050505050565b6000615ce27f9b4b48d5cb418fa31d325f9d1d859e2ca9033bd49b687625e19c56cd6e439fd560001b6188c0565b615d0e7fc90f9fdef0e4bc8186ecf95cbcafd3947beb057bc0e08b4f47405f70214e0d6c60001b6188c0565b615d3a7fc572a6be3ed6f2c92f0553630ce2dc5681dd713adedcd9ce8817254e6864e16d60001b6188c0565b6000615d44614471565b9050615d727fb10e55e55d94361da420037688de48816abeb78cf68c3a653b7f7de6f8f6cd7a60001b6188c0565b615d9e7fb462e4e5bf3d4a9ded83fa64b97de8a0dd981b226baa3f36b593da989727ab2c60001b6188c0565b600081600001601201549050615dd67f7ae3309bbedb5d14565934007d68337e5a6d7b7fb37356d5bf36bd83c007091160001b6188c0565b615e027f07f938081449b8333f91d16a9387f4b86b45dca8d52ec87fe14243a9be43f3f060001b6188c0565b600082600001601301549050615e3a7f04c3eae5872f79c41c3f55ba08384653cb06a5bfb61f0e74c5be1f1ec15f48cd60001b6188c0565b615e667fd4d7feb975782dfe534156b1228c1fd97f11b359e8f4c0542a783058bcf3ec9860001b6188c0565b6000429050615e977f0fd7cbeb94dc92dfa2ddae06fabb3922fad294928adfa20ff414dc7bfb07db6360001b6188c0565b615ec37f9d5a5a5b5e4d8388fdf262198a7ff595fbd166cd2a9997ab9b23a4fac0f1d9b160001b6188c0565b8282615ecf919061aba8565b8110615f6157615f017fddb2644f289312d73ab601813838d1860634286646e9b952ad59fcfb6c8bcab760001b6188c0565b615f2d7f45ccdc926687c707b9b687a55286e91d19cc6851844cc0ea7cca85a3cbf3c98260001b6188c0565b615f597f90508a23e9ba224d4ee540a5aab4d77e77614058664d85f5b13c82ca2837d02160001b6188c0565b809450615ff4565b615f8d7fde70ace7877886d4243417396448bed890da76d05e2887bc9de85deb7e6e5c1260001b6188c0565b615fb97f405a083e2136c217060dc52b6e7ceeaca2685bbd60f8c4fb9f88cee8300c024d60001b6188c0565b615fe57faf9e5abd23748c2a99e8762608752e846056217d616652cfca5ad7f2d1630a5f60001b6188c0565b8282615ff1919061aba8565b94505b5050505090565b60006160297f55b26aa4f2ce48575f6d1b0fc01d4e1c3636275265418488d08e459112a7dd5860001b6188c3565b6160557f528ba806aa94987719d0b0ad1661a495c4ec49271352ffd32e232af0c3c1a94560001b6188c3565b6160817f4458f3601e828939e89ea6a1e95b73804a9d4c293891a5c299f58cafcce9e37560001b6188c3565b8261608c85846188c6565b1490509392505050565b6000806160c57f6330a91f243507c78157e13cb3d783d903eb759b6a12d9b299a96720a4b0ac4660001b617537565b6160f17f16eb5f88e7a9bec9355ad87d269d871df255e9794626d033ee6df388ae3d57a460001b617537565b61611d7f19acde4e0bd215c965104ae087dccae782f442ced2dfba6feaacc8e16b94d5a560001b617537565b6000616127614471565b90506161557f2c6217cc2a6bffd23d6bfc413186a94da220463b50efa4a823983a4385ecfb3860001b617537565b6161817f0259f8fa846587a14a26f8a79a0fa952266a9cda2eb4386bd449467823c0b44f60001b617537565b60006161af7f8155380e64af9421532a7e73c5ff79988827c2998c4fef665a53d6f42c027ece60001b617537565b6161db7f3a6745077987468b25bcb3049cce8c098a6f2e6e283062cd236cd7dc47ba853760001b617537565b60006040518060a00160405280600161ffff168152602001600a61ffff168152602001606461ffff1681526020016103e861ffff16815260200161271061ffff16815250905061624d7fc892ef400c3f1882ce52b4e0a4aa3a9286418dcd2aa481d2b2c784d3c840fcbe60001b617537565b6162797f964396c7b2e2cbfb395aa7c4c5a683f79e40e710bb84b5469ad1a623cc9a099c60001b617537565b60005b6005811015616488576162b17f74ae1366dce74ebc321637ed0db94309f7f96d2c70d228cf9893c825cd957e4460001b617537565b6162dd7feaefc0ac73222c640bc6edc671503ec86a3a57ec271d53dcc5ca1af88732659c60001b617537565b808814156163f9576163117f25dcbc30031e0f375388fb4bde1490fe8dc5d020879a7bb0a1aa4e3102aa5e2e60001b617537565b61633d7f092c3a0ffb5ab77d72276aeb9f96a2283dc1714fb52f84ebc4e1ca2c1731dce560001b617537565b6163697f0da048b3925514e69bd7bd7b1ebb666690d745fca5415fabe3e4862e2357f45b60001b617537565b8360000160240154846000016035015483836005811061638c5761638b61aabf565b5b602002015161ffff1686600001601501548c6163a8919061aaee565b6163b2919061aaee565b6163bc919061aaee565b6163c6919061ab77565b92506163f47f0404ea1a281548bb6804dcc3b26e8f83ecdf65e49047de6613de0d87187912fa60001b617537565b616488565b6164257f698c4bdc70cf8573a5a56c3fecf7ff1709b121137495ec96d552245a9fe8ed1660001b617537565b6164517fe29c67435def68c7712ac2f3ebbaa8004cd7d1761d2c6ce1725910d7b5615c2860001b617537565b61647d7f24e93e54f74e2d28125cf3d0240af8fc41bc9cfe10d5cc17d491020b3bd7fecb60001b617537565b80600101905061627c565b506164b57f4677d30b5daea6bcebe2e5298f36900f1b19de572d940b52974419bf80d5219b60001b617537565b6164e17f8cc1f901b57dcc80e726465a1a8f59b0296a28df7d2be3969e7e09307da8755360001b617537565b61650d7fc21300737f9bbd9d7fc8c92583d1d62801a41bb329371394304e02bd5ee545f160001b617537565b81836000016034016000828254039250508190555061654e7f57bbfdc225018402b4a3c63b38811c9aab7e675aa7d1e2f5d62dbd614c5f108b60001b617537565b61657a7fbb9fbf0d151d73ee3976e00b5b49db978f9c41a016d95369184038a3ba3d81df60001b617537565b6165848683616ee4565b6165b07fb717cec5d9404329c48b52981ba49220b8f5ae59882c7bd2c4ab1ad376601e9f60001b617537565b6165dc7f633f6e5f780fec03f4048da2cd9baef8c66de1d269cb99a23451be9b294c789e60001b617537565b60018294509450505050935093915050565b60008061661d7f899c8d84477ea1c2ca638ccf3dc5a778a8d986c82f5521a1a6f806df4937430c60001b617537565b6166497fa3795feb8cb121d8b8c7547d51a07a1d2e5a8b0a0d7865b241915358b96613d360001b617537565b6166757f80e61eea013db59160b595a4fdd0694e7b38f03c36d9a30496ee3486ae5594aa60001b617537565b600061667f614471565b90506166ad7f8e6d66e0d7b92b3a454fbbe3165fe04ad81753dda08c3d3d7d114f8529b1efc360001b617537565b6166d97ffab833adc1d31e3739f6c604b8825fd680355e1ad07650ba2db72793f667ebd160001b617537565b6000816000016024015490506167117feca915003255eea357f7fca7b753cb0e436fc11eb5990ecfe29a84a64b4d59d660001b617537565b61673d7f5b32ab5f0e716e6b64d09d5c32029c1a8aef2f634dfb4514479e75eab7d03af060001b617537565b600061676b7fa081bf4f167c66f5dcef25f0b410a4e8bb37bbace35acb60b1f391fba24b057f60001b617537565b6167977fba2bb2b1a668df1030f11583f873c992baffbd1a3746e2fb6c5851b8d7c8982760001b617537565b60006040518060a00160405280600161ffff168152602001600a61ffff168152602001606461ffff1681526020016103e861ffff16815260200161271061ffff1681525090506168097f95739aad9c90808146e9612f960582f0f54039ba7fe9168978cf2539dfa39fe260001b617537565b6168357fdf4a48ec4e351e33475bf22d34c3ab3ffa2d9c4ab0926262fe85649aa96c5cac60001b617537565b60005b6005811015616a3d5761686d7f48ad1ea6e3ec70e788989dc3887974dd8ba26e04adaae4d4f7e82c07d50d1f1a60001b617537565b6168997f197d16d274350c16eea213f8bbd5b2001fe7cc89c5babc781ad846a11f7e954060001b617537565b808914156169ae576168cd7ff9f48e59cebe2b07bce47db567b6db8f36e41e9beaa07e60dda96184a42bd49960001b617537565b6168f97fd479a44958ef6dd7f240854a89e3ae1093c51d3791393fc6f20ef6fb618e60cd60001b617537565b6169257ff596c26adad846cceb5cc28164075559ba226ecb017e4c1bcf741910ca65e50160001b617537565b8385600001603501548383600581106169415761694061aabf565b5b602002015161ffff1687600001601501548d61695d919061aaee565b616967919061aaee565b616971919061aaee565b61697b919061ab77565b92506169a97f256f05961f228121da4eb7a7bb74c90d8bf71b188eec5372c678ea8bd4709ef160001b617537565b616a3d565b6169da7f67d472d12251bb0bfdb4c3d92eeeeee50ad730760d1db584b733975282a5aa7360001b617537565b616a067fd5a8d10b28c67313a1c20cea29b161f28625e1609fc407dd86feec6c62903f3e60001b617537565b616a327f3cf79a8201be85b4fb393e40f2a1a529f381ea566ccf804b539a0a70b6e77dd560001b617537565b806001019050616838565b50616a6a7f046f97768fb3d84f7761bca542aae9c0aebd34c5ea2af221ffbd8e04e68e6da660001b617537565b616a967f62e48d1dff65c181f140643303e636489824f34fb1e094bae4c988db95f0e2ff60001b617537565b616ac27fdda1d2b0f6bfc6d985c948ebd15252d0dd452007940a431ffa7fddf1f01f04a060001b617537565b818460000160340160008282540392505081905550616b037f7d81d74f2f78f43360734c317790a97e469ab338c20055f84175e86f37e2bed360001b617537565b616b2f7fe7c8211cfee09c1bd4b4eda8a1af28596a05c9911e5da68bc19973480dd095f960001b617537565b600084600001603601549050616b677f460c7bafe345e8032c2efe3029f055535e8b6ab435462b4a43a949f51646282c60001b617537565b616b937fc354e6dd76aa279d5a93c7ce20a116be631a52cc0bf87f14d76ec6294ee03dee60001b617537565b616bb388858386616ba4919061aaee565b616bae919061ab77565b616ee4565b616bdf7f52a5ff6ac15f0b774e4c994575937ecfa4ae11b4c336cad7632b54936f48675060001b617537565b616c0b7f92870d47505d7ffdeb70776e285bbc3d300c3e923c5e956d4e9a2507f6738b3b60001b617537565b838185616c18919061a689565b84616c23919061aaee565b616c2d919061ab77565b856000016025016000828254616c43919061aba8565b92505081905550616c767f6230aecc22a80467f9f25bc04be554f687081d7c1bc268e6dba9f5c7982635d660001b617537565b616ca27f14376af1b7532a98cdd38c0b89a407d7be8a6edd2731f6595012987eee0c668a60001b617537565b600183965096505050505050935093915050565b616ce27f8ec893aa791af6d537b40b870ff7ef56c54ae8a708be175378c040664553b80460001b618aa9565b616d0e7f824439d7b8ad3ccfc6a7b84ff290c16ad57b8ed19354a8132169fe7b4a23848960001b618aa9565b616d3a7fde962410e963206a6c991c90517542e866b35c809d27fc95d7790e31e66921ef60001b618aa9565b616d667f52562fb46539559f16c752a8b6ddc12e90d4b756fa35d521eb041d5c22f96f4f60001b618aa9565b616d6e618aac565b60040160009054906101000a900473ffffffffffffffffffffffffffffffffffffffff1673ffffffffffffffffffffffffffffffffffffffff163373ffffffffffffffffffffffffffffffffffffffff1614616dff576040517f08c379a0000000000000000000000000000000000000000000000000000000008152600401616df69061adbd565b60405180910390fd5b616e2b7f3abeaa9a7a5c31ab81cb64392449308332497436d08567b980542059c6cc865d60001b618aa9565b565b6000616e5b7f773cceacfd927df79d72851f95d59de2951502a0098facb9229953b8832ea96760001b618aa9565b616e877fc32bd6f69c1b329d7d0a189848c3b3ac40e0beab0fa062e502f5cb5879ca4fbb60001b618aa9565b616eb37fdbc7b28c563bce9cccf5124390cee97eef1147d39edf27507900faee27575cdc60001b618aa9565b616ebb618aac565b60040160009054906101000a900473ffffffffffffffffffffffffffffffffffffffff16905090565b616f107fb5d8325ae97495f8e6918b883df5aea4ec9bea72cd9575898f8788b74a604f8560001b617534565b616f3c7f7362fa7857774c1a532b71a8b2bd841c0024193625b9b2f075c4c9147eb5051a60001b617534565b616f687f489103a2f48a9350a848e09b773f5b54b93da58ec73a69ef9edc6bddef00fa3f60001b617534565b616f947fd404361473a8f4709fd7dce43ebfa18c6c787fff8f45747dfcfa60a55fb808a660001b617534565b80471015616fd7576040517f08c379a0000000000000000000000000000000000000000000000000000000008152600401616fce9061ae29565b60405180910390fd5b6170037fe6fe0292fd1a037fd94b52e6b7f735a5c19b5b14c2cceb82cfe017b5d802596060001b617534565b61702f7fcb436135ed2e74f2de08b86d1a81677f5b084854d62ff05da6505ab1e189688460001b617534565b61705b7f41e7104bcc277ac3ef9346b72236c773827da73922f51050c2d6ddc2ee8e8add60001b617534565b60008273ffffffffffffffffffffffffffffffffffffffff16826040516170819061ae7a565b60006040518083038185875af1925050503d80600081146170be576040519150601f19603f3d011682016040523d82523d6000602084013e6170c3565b606091505b505090506170f37fa558f11231753f9933635e911812f4c51d22cdb59f288ce4cf83b5f0316b38e060001b617534565b61711f7fdc8b7b513b88a1989a0be05e531d94c422ff9e70bd47f1c64ec8912020f43d4d60001b617534565b61714b7f2a6cc4fa82e713272e5b8dc5952cce4200ffec3257cb0e5ecd87685d23a47e1560001b617534565b8061718b576040517f08c379a00000000000000000000000000000000000000000000000000000000081526004016171829061af01565b60405180910390fd5b6171b77fa0a8e559ff9bb6fa6e3cce4a57dd6bb2c878ac57cb20f1b5315faacedc1f7c0460001b617534565b505050565b60006171ea7f3495290c5b51a330840843099703ca488ee7586bcdfa4fcf8829adcb2d49c5bd60001b617537565b6172167fa613337b0489e577f87a6d20c09fcad46ca942361b007753ef168f28d85a92ba60001b617537565b6172427f06c7813bbee2fb6afa3dde9f5a77833047bfcd6781243b078deb10326e26e60c60001b617537565b600061724c614471565b905061727a7fe6b02b53f599b7cc0f1f73d1029be1732c13df032daca8a24dc28fc368c0e40b60001b617537565b6172a67fe407a1c486dfb55fb8ba4bdfa27999be06152c73c40572a5220941e28187a60360001b617537565b6172d27fabf2fd8e6e03091be2ae55eab7ff3078a90254517594d2edeaf346a79c72fc4860001b617537565b8060000160330160009054906101000a900460ff1615617327576040517f08c379a000000000000000000000000000000000000000000000000000000000815260040161731e9061af6d565b60405180910390fd5b6173537f8ac9e48e183181db88e97779acd1040ed3ae23d9dcacb0522d050b1cba20428660001b617537565b61737f7fafa7cc6167321d968428e0be7559fbd821f28c6c330c5c0960fb62f7b027c6b860001b617537565b6173ab7ff81f9e6bcbecee810504bfb4b25dbc7a16634dfd538d5f22be001cc1bc5e9a9b60001b617537565b60005b83518110156174c5576173e37fa9f849bc62ddc010309aad042c8f6675438508b4fadeeec577f9aafece38bdfe60001b617537565b81600001603a0160008583815181106173ff576173fe61aabf565b5b6020026020010151815260200190815260200160002060003373ffffffffffffffffffffffffffffffffffffffff1673ffffffffffffffffffffffffffffffffffffffff16815260200190815260200160002060006101000a81549060ff021916905561748e7f44bc01a444ac0ec530111d795787c517f1841ba8d79e5e5f53d9f7394d67b71f60001b617537565b6174ba7fac988f20aa88201e79e1d6e00a11f18ae5ded32cf021ede79cba755c48f88dad60001b617537565b8060010190506173ae565b506174f27f0766d930613190dac1eeb141e69b8c8b6714ca3b09e437cb62dace6960c817ee60001b617537565b61751e7f15be32cbef0eae3cf576543622c0afccb4385136d6ef40a5b2aae329588c1da660001b617537565b6001915050919050565b50565b50565b50565b50565b50565b50565b6175667ff5af116673111d57b570a7ba90df9ed15d12f923b3bb7d905cb1b1de26d7c20c60001b617537565b6175927f130d49108a3d7eb3f19a131e412afac5b84c783794be060933e33fcd8a83494e60001b617537565b6175be7fac96e9cf9ddf5b4e4a922221d59f4d0bd3c4e3457c07f31467a4aaa440b7f93960001b617537565b60006175c8614471565b90506175f67f31cf970dc48680a44874527d390801bb777a04db28252c19d092b558e68418fb60001b617537565b6176227f2bf924b8aeda7871f585133551d5aa8104042e14c05492c6d794e2a3335af47460001b617537565b60005b82518110156177c95761765a7f4a71fbf0f6b770393794b274bee4a215244de70628f6ad538550a18d3efd054460001b617537565b6176867f88477b89057a82541b7ea93b25025ea7022a370ca76139fa25daba66de89cf3460001b617537565b6176aa8484838151811061769d5761769c61aabf565b5b6020026020010151614960565b1561773a576176db7ff98f06a7dcb7e05fae6cd2c4a3046163bb0a21520976fff4c660c40d1a01e54d60001b617537565b6177077f4a4bf0f84b4936a6879994d4e4e6fec439007aadfcf8b1216b4ec415b01139b960001b617537565b6177337f8cf2d53de4733a67bc53af2a0937c93b7c3e29730ab57126ebe7b4208098541f60001b617537565b5050617e8b565b6177667f180f72971cae4e971acdaa54a1f71b752705d52362cd8c5f22b0a4e6d1d8afad60001b617537565b6177927f213d44b3d4c04624bf0471576ae2b73dbe19838066716f9e8d1cd1bf54a36c8160001b617537565b6177be7f0d2bf838aa383c945edd0d875b8a4d81c085d6e33e06a7e8d28aa2462046395360001b617537565b806001019050617625565b506177f67f71d43e55d6fcc969705851c967543b1ffca53ca25431f365b96448c4085d937760001b617537565b6178227f8e9f593fd6c019d1126dabbcad771261c101d2256827eb4ef74944d3492e217b60001b617537565b600061782d83618b8a565b905061785b7f21e311a76e61a65eb8c5d3cf746b86b2d744c865cf2813e1ea9694e6a6476b2e60001b617537565b6178877f47a785345ce8d921146b8d80e89d764db6237026a1fb0febba6e7ce2be71978c60001b617537565b60006178938585619186565b90506178c17fa374a1fc8979af8f0acf6cf2881b57e575608f983e527b1de570ba558f86d1ff60001b617537565b6178ed7f7cb8b9a13bf6989ea708b4fca42c78abc19927337a3c4fc26237266bd9ff111660001b617537565b60005b8451811015617e86576179257f3b916f0c722cf1f67366d133524eac2bf59bc7204e56019603d4e0168832645260001b617537565b6179517fd378a756ad5b4ad4b5d3f836d1738d4165804e0c15437f1b7f96cdc71bf1063f60001b617537565b617959619779565b84600001602e0160008784815181106179755761797461aabf565b5b60200260200101518152602001908152602001600020819055506179bb7f05d0c381ba668d55c9b66840f7c2f503c9c72b9a378d4af575cdb5ee2d6354ac60001b617537565b6179e77fba55a707c9a7617de5bc59442875d65d3ff4f24055cf75271896833c63a09ea160001b617537565b8281815181106179fa576179f961aabf565b5b6020026020010151846000016030016000878481518110617a1e57617a1d61aabf565b5b6020026020010151815260200190815260200160002081905550617a647f39682d3908f4d25026200befede2a775494caa98fa2c2e890d19f038660bf2c260001b617537565b617a907f6370a2935a25188c3e7cba229d009babf75a9a9bde881e4b23849cb1f90f216060001b617537565b600073ffffffffffffffffffffffffffffffffffffffff168673ffffffffffffffffffffffffffffffffffffffff1614617df657617af07facfa823c083ad3b242d047f377c9f85e4362c99af88b77e8dd36dd1a2b4cd4ef60001b617537565b617b1c7f9380ea64663e62d9ce29cc31e55d0cc60c3f080d2c0e2a35f6180e8c6c45256860001b617537565b617b487fbea401ab542ffce18f22d2d8d13430a99ebff078d3d99a05534d3b8155e0ae3660001b617537565b836000016032016000868381518110617b6457617b6361aabf565b5b6020026020010151815260200190815260200160002060008773ffffffffffffffffffffffffffffffffffffffff1673ffffffffffffffffffffffffffffffffffffffff16815260200190815260200160002054828281518110617bcb57617bca61aabf565b5b6020026020010151617bdd919061a689565b84600001602a016000878481518110617bf957617bf861aabf565b5b602002602001015181526020019081526020016000206000828254617c1e919061a689565b92505081905550617c517f5e2fb39b629af198f8cb2021701d7d0533c6cceb26a9d08769ab208fc27c5bd960001b617537565b617c7d7ff76b17bc1fe99aad1eeeeab349e9939ba894b062eb68b82bf23de5cdcfc7b90d60001b617537565b818181518110617c9057617c8f61aabf565b5b6020026020010151846000016032016000878481518110617cb457617cb361aabf565b5b6020026020010151815260200190815260200160002060008873ffffffffffffffffffffffffffffffffffffffff1673ffffffffffffffffffffffffffffffffffffffff16815260200190815260200160002081905550617d377f7e238f55fb8691f543114709a5f7ddc68cd88815c784cc4d017afa9ba7d0216960001b617537565b617d637f1b4f2256071e151879e6f898751c986d8867d59bbf763e10b9df9316e9c3d4f060001b617537565b828181518110617d7657617d7561aabf565b5b6020026020010151846000016031016000878481518110617d9a57617d9961aabf565b5b6020026020010151815260200190815260200160002060008873ffffffffffffffffffffffffffffffffffffffff1673ffffffffffffffffffffffffffffffffffffffff16815260200190815260200160002081905550617e23565b617e227fa738feb75dd52968b140fc03b2952cfac74b009acb05d737a0fddaa4ed093b5160001b617537565b5b617e4f7f32070c724ddad8e5131443f492450e9af4bbad01c0f1378663c4c8d47472425d60001b617537565b617e7b7f75b00caf97654ac33e1e18af856288b9965fb8ee51d972c41c33eaab3131e87f60001b617537565b8060010190506178f0565b505050505b5050565b6000617ebd7f8775e46e92b19633604bdddafe22a84f039e377e8ffb760f236d6f6d8d9a8f1460001b61987a565b617ee97f2dfc240ad7e692692c4de1de543bbe44e8847e19c42756dfca09b5f35c0318cf60001b61987a565b617f157f4ccd5d6115abe600ce72170e14741c6668e8ced3234c59b0e869a6d68c99146b60001b61987a565b33905090565b617f477f8a6cdcf1cfc3f4527fa9b3638a680b03c801b688e250702053521d8340025dee60001b617531565b617f737f5b611978bd244375bfddcc28e11bf266e373c2b0bf972be96a57a96de55cb2b660001b617531565b617f9f7f23c6f674250f3ca5611afe0ecea35452acd04bcd35109d1e69c3892543bd389760001b617531565b6000617fa9614471565b9050617fd77f3a5658dd24afce992608146327ab8d1d7cff60b7bf9ddc98660362823e692f7960001b617531565b6180037f4865da54b9e285848e3127674ce57cd7ddb2add893d6aba058c2729a3209472260001b617531565b60006180317f514536d60eda836936487a9b0e5425b50a4528bc6f82c33be10e2f016281eec260001b617531565b61805d7f29259c708cf7e5e78c86a80af27d3fe3b7964a98c72067d6f99e807a1697e7ea60001b617531565b8073ffffffffffffffffffffffffffffffffffffffff168773ffffffffffffffffffffffffffffffffffffffff16141580156180c557508073ffffffffffffffffffffffffffffffffffffffff168673ffffffffffffffffffffffffffffffffffffffff1614155b15618592576180f67f874dd672dfaa23c22a57ab72327c2c497f7c1038df957ffe676506606a4af62f60001b617531565b6181227f96aec140d916fbd884704177831209d6ba37e5373be115f34fdb306c15f593dc60001b617531565b61814e7f789a65116764a78c5f782742aeab8947ebddc6d3c4b988c712c7a472e2170d9b60001b617531565b618158878661753a565b6181847fc0970233153641ed7ddbca02070e32d9f35d6184b0b4176b218ae546f6be3ebe60001b617531565b6181b07f7cc888efbdbf32e0a96bf01ddedbaca4e6fb7c21b55d8a00241e0bf1e3d522a960001b617531565b6181ba868661753a565b6181e67f83d4d35c7d922ab70e53492ed83b2781df1419a1e9534a3f2b7030f9e6c248f160001b617531565b6182127fcd161db8dde7fb4548150a05fa2e028cb6b69a36a88f05f3c4d46af236b42dba60001b617531565b60005b855181101561858c5761824a7f3e98ba2e04128d1e9755daede14fe9bab7693c266cdd9042ad70626196f4332460001b617531565b6182767fee40af4eef9b8f775fd46340c1819540a1cb4e666b08a3309841a96420b4a92960001b617531565b61829a8887838151811061828d5761828c61aabf565b5b6020026020010151614960565b1580156182c857506182c6878783815181106182b9576182b861aabf565b5b6020026020010151614960565b155b15618496576182f97f8257f9d881f176a2625de2fce9a6db89ecee941dcba8f6e8d0ef51ce50972fec60001b617531565b6183257f53830e9f24335a1e6c0b4dea2c1ad137c0a1698b77c045025d68d584461e0be660001b617531565b6183517ffe7d52f3d27f2a77d6dc0a876a637382dc60e3b54b78ae582c0c315bd2feec6c60001b617531565b4283600001603b01600088848151811061836e5761836d61aabf565b5b6020026020010151815260200190815260200160002060008a73ffffffffffffffffffffffffffffffffffffffff1673ffffffffffffffffffffffffffffffffffffffff168152602001908152602001600020819055506183f17feceb0a8da422835661019f543fed797422d188bbd1118c70d64dcb4a0cd81f7760001b617531565b61841d7f717591688cf5ae5cd30064b8f23261da3444306f5d6dfbb28083350eac1920a960001b617531565b4283600001603b01600088848151811061843a5761843961aabf565b5b6020026020010151815260200190815260200160002060008973ffffffffffffffffffffffffffffffffffffffff1673ffffffffffffffffffffffffffffffffffffffff16815260200190815260200160002081905550618529565b6184c27fde10644fa59a2606f285f69b3dc5dcb32b198ab6557aa0de71506c61ef7925ae60001b617531565b6184ee7f7761bd2068d74eac4a14253df98acc6797b484f8c813ac92abc6809d6bf5eafc60001b617531565b6040517f08c379a00000000000000000000000000000000000000000000000000000000081526004016185209061afd9565b60405180910390fd5b6185557f4e6c61a55d3ac325e669a11a1621fde5d12f1017b9159c9a298276ac5b0a760a60001b617531565b6185817f86857412262933d7407249e815d7875882bbcf32eaaad28d9085d6c103c97f6d60001b617531565b806001019050618215565b506185bf565b6185be7f822fca795bee80e548bba318733ceaa7041c82557bae89175163d0c19ee559d460001b617531565b5b5050505050505050565b6185f57f2f5f6d126acd21bfa757f4df4ab30075339cda7cb55ffa28a0cd4064b67dc4ed60001b617531565b6186217fd29aed85409e6ba0b127ef189174585193246665718746b0d5f006866b14b94e60001b617531565b61864d7fcb6430af5cf24faa7a5d4ec4a133396ed440daca277b2d2831ec2b2402fb388f60001b617531565b600061867b7f08c9202d483d0860382a98440f4dde32e71901aa3de5787e77235d9fbd4b6b6460001b617531565b6186a77f60250f179debc907f4f01d9f755537d2e95f25b36e8e80d3dec0e706d6ebc7eb60001b617531565b60005b84518110156188b6576186df7fac1baee88ed9e1699227e12258ddcdec68f8ee960d37d621897633a76f55303860001b617531565b61870b7f0d2fa3bec8cb29ffb9af2ff33b4b7203685422bb2d7bf90c6b22a61a74dcd9dd60001b617531565b8173ffffffffffffffffffffffffffffffffffffffff168773ffffffffffffffffffffffffffffffffffffffff161415801561877357508173ffffffffffffffffffffffffffffffffffffffff168673ffffffffffffffffffffffffffffffffffffffff1614155b15618826576187a47fe370194391fe1f9a111f09871201e2fe27a207140b5748377141ead668e696ca60001b617531565b6187d07fabf3baafc913457f88b75eb58bf3bc3afac8412b9f8d2808e90cad3dffa5d17d60001b617531565b6187fc7fa7ca4b3fd46bd33cff2c7801e8230b8055dccbbb5cc826bacfd9db2bfe8513d960001b617531565b618820878683815181106188135761881261aabf565b5b602002602001015161987d565b50618853565b6188527f1b218bfe085b2aa36c9e43c43864addf24034cbe57fb837a333fee4263b013b260001b617531565b5b61887f7f71453d212079a2fd8c082358874869a7a16c097c7f2e393937abe9832a6b39ce60001b617531565b6188ab7f8805342ff1a140c285690daf44e130e5da555f23b3c566cfd5a37492b010e92860001b617531565b8060010190506186aa565b5050505050505050565b50565b50565b60006188f47f39785896a8ff7d7e9fd147259f2d028ecc7a90380232bcdc4c37c0cb8397458760001b6188c3565b6189207f3c7c02f4c4e4ec28e508cf08fab5db8984d192edcb8123e8cfba5b06817af73f60001b6188c3565b61894c7fd165c12d7faa965cea97c2d9384f68f2727f1cfcc1b5a0aec8d0b9c52004c24d60001b6188c3565b600082905061897d7f87d51ec9655069f9d16f9e236a85d025c21fbb276389a5bee10eeb206fb48f3560001b6188c3565b6189a97f35a5d9e01c7f5ce40fa0f28b2b5947499ee4bd061bc74a565df9b570c770360560001b6188c3565b60005b8451811015618a46576189e17fc03225bf6dfc28ba41ac06d5c7ab04c9735d299785a3661e31c643cf0dc3275e60001b6188c3565b618a0d7f21330f0ef5aafd419126956eedc6ed439ad79f111b1b455e816f5584b4d7135b60001b6188c3565b618a3182868381518110618a2457618a2361aabf565b5b6020026020010151619cc3565b91508080618a3e9061aff9565b9150506189ac565b50618a737f50555a16b7afa5377fb07ec0b0aaa643276305b0bb20b0de58e967c3e360cc8860001b6188c3565b618a9f7fe38b42e2c525d0fcf4b1465717a4e6f76d324305420bfe024c82aed4be1c0d8a60001b6188c3565b8091505092915050565b50565b6000618ada7f37624c78b12de03a5f297d9c950f3c6fc4b70342068ec5e4685d0b6d5384bc8960001b618aa9565b618b067f6224ad2357ddfdde3d06e7d433de8597a0c802b5961d43d3d5667abb8dcefc1360001b618aa9565b618b327f4ba10ed08791a423d97bea0744f82f3448aa933f5dc1d334f2aa7799e156fba360001b618aa9565b60007fc8fcad8db84d3cc18b4c41d551ea0ee66dd599cde068d998e57d5e09332c131c9050618b837f3459e835b9cbe60eac3148958d95eace06d7b6690e6dc02cb6b8a1ff93a77d7660001b618aa9565b8091505090565b6060618bb87f8b4fb979e5aafe66c62669dd9702540c8cd51a30a9d5b8ed213fc1ca92c3f89f60001b617537565b618be47f063b201504764c3a27865b3c4459ff6218f8c393d6a599ae390a6dbbc1627cb560001b617537565b618c107f2560162c8e78bc0c9eea14912e734a7837bd131ab0ed0b3ccc360af9cd9ad01760001b617537565b6000618c1a614471565b9050618c487f5e15be7c75fda58ddd42c95440fea3de45247915a0e08c6c9f142eb66a9e86f160001b617537565b618c737ece33fc26bb4ae824ff734f1117244ea60d5ffea217510c1c99ebdb41c2329160001b617537565b6000835167ffffffffffffffff811115618c9057618c8f619fb3565b5b604051908082528060200260200182016040528015618cbe5781602001602082028036833780820191505090505b509050618ced7f8d0172e6c0d43f1ddec9598d552beef86700d61a6be39f878e7a6c699765307c60001b617537565b618d197fb6d30b0a833b49644935ab31c14a14d518ec31a8fbcbe2a53b04d0bc6252adb260001b617537565b60005b845181101561912357618d517fe33c2212541881b702e27626f117ed0f87b67d6084c062a252b65bc5a9ffaa4460001b617537565b618d7d7fde16a0a2259bde52069f95a7699a39aea986cd76387c1f762b32a70607bf2d1860001b617537565b6000836000016010016000878481518110618d9b57618d9a61aabf565b5b602002602001015181526020019081526020016000205484600001600f016000888581518110618dce57618dcd61aabf565b5b6020026020010151815260200190815260200160002054618def919061a689565b1415618ed057618e217f980cddf182f0ae59e39e9842217e32f8c86bc7c8686690411c48aa377025a5af60001b617537565b618e4d7faf2b78903dd34254d23d2e6803744caa34c97af3318e903288f97dc9b73653df60001b617537565b618e797f73739410971b947a7ee3d613a852cd05a365075c87a42487b860be1d64df82b960001b617537565b826000016030016000868381518110618e9557618e9461aabf565b5b6020026020010151815260200190815260200160002054828281518110618ebf57618ebe61aabf565b5b6020026020010181815250506190c0565b618efc7f65e7ed5fa0b306f350835049f8edcb36031145485de198783d75fe255315c5d760001b617537565b618f287ff2aed8bbf54ccd43365c6e4b949a772f31bb0313747e93bde4de6052ac02357a60001b617537565b618f547fa07095a015e17b3038a6453e4684378e0cce67e10eb249a4f839f27e82234ae560001b617537565b826000016010016000868381518110618f7057618f6f61aabf565b5b602002602001015181526020019081526020016000205483600001600f016000878481518110618fa357618fa261aabf565b5b6020026020010151815260200190815260200160002054618fc4919061a689565b670de0b6b3a764000084600001602e016000888581518110618fe957618fe861aabf565b5b6020026020010151815260200190815260200160002054619008619779565b619012919061a689565b85600001602f01600089868151811061902e5761902d61aabf565b5b602002602001015181526020019081526020016000205461904f919061aaee565b619059919061aaee565b619063919061ab77565b83600001603001600087848151811061907f5761907e61aabf565b5b60200260200101518152602001908152602001600020546190a0919061aba8565b8282815181106190b3576190b261aabf565b5b6020026020010181815250505b6190ec7fce179defe47607acc6e221dcea563b26c6edc40e606b21063f26ba2f7c15ea1060001b617537565b6191187f3b53fa4dbd60bae74b588fb9f6172da68702ee81a9e9abc8ca54106fbc17678660001b617537565b806001019050618d1c565b506191507f304782d567ec59960167db6ce04f9a906512c249d1de4ee541fe34a84083705160001b617537565b61917c7fec101d1eddf24d60106ee97d2e68b55de0794ad9b64fb7cc6943edf957d9c95460001b617537565b8092505050919050565b60606191b47f47feacfd039c1ae36a516269ae3182f2f9f7a5b99e5f352f0957111f98d3c7d260001b617537565b6191e07f037ecf1a65c0501ad8463b97ef40804f2b3d5ce4be2e0fa79fe5849cb839fe6d60001b617537565b61920c7f81e14ca7a38c77aed905a08f713cebb756e103f6746480632c6249984c9b18a860001b617537565b6000619216614471565b90506192447f34fba52876a477ebad57ad1e6970253d095c30f2bd0cebc38526b75abd203aa360001b617537565b6192707f628bfb37b06adb269e5d3f5c0cd027267cb7383e07f559cec135e8a78942d12f60001b617537565b600061927b84618b8a565b90506192a97feac0d99e0730c1c72a4050e5c25e44f3ecc6402867a24f682e6cf538f6a6664960001b617537565b6192d57fe942fd41acb7f43484e161102b89167cdcf2d2b6218e2e3ea5bba2fc79a5b52860001b617537565b6000845167ffffffffffffffff8111156192f2576192f1619fb3565b5b6040519080825280602002602001820160405280156193205781602001602082028036833780820191505090505b50905061934f7fca3bac37abb1c3b6795411641b12188fad6daddc4c3d5f4c586d2a460fdfc82860001b617537565b61937a7e54785feafc86359f3c81206962186a4f2eb67a23adccd282a978bbd64d112560001b617537565b60005b8551811015619714576193b27ffe8d8202248ddf4979fcb417ad76245dda1c51c62c231b26ed3f9ab573e4c08560001b617537565b6193de7fa365d4b518927af92b5beb22779f7dc48a4459b730d2e7d68a7e80a088f82fb360001b617537565b600073ffffffffffffffffffffffffffffffffffffffff168773ffffffffffffffffffffffffffffffffffffffff1614156194bd5761943f7f126b47c68f977abf56300ac7d67962da92a164c962756299449310bc4cf7edec60001b617537565b61946b7ffc026247c84d9a293150a1ad20b252961c483b8543e33ad0201f229d922dda7260001b617537565b6194977f1b133b6cd0d10778d97fabca45ae875952175cd763178719fa0b29c85b66c97360001b617537565b60008282815181106194ac576194ab61aabf565b5b6020026020010181815250506196b1565b6194e97f07a6b052cccb0a17f0d670902ebb1ad36614b08ea2b70b3667c5f0cbc530edba60001b617537565b6195157f325fd8f39003826381ace245f342293bfa61d16e24c2854bec6691917b7aea8160001b617537565b6195417fa823987d834b5afe2f3a2e5381cda6e2beb09c56f23b99ba012d65c3d2b16e6660001b617537565b83600001603201600087838151811061955d5761955c61aabf565b5b6020026020010151815260200190815260200160002060008873ffffffffffffffffffffffffffffffffffffffff1673ffffffffffffffffffffffffffffffffffffffff16815260200190815260200160002054670de0b6b3a76400008560000160310160008985815181106195d6576195d561aabf565b5b6020026020010151815260200190815260200160002060008a73ffffffffffffffffffffffffffffffffffffffff1673ffffffffffffffffffffffffffffffffffffffff1681526020019081526020016000205485848151811061963d5761963c61aabf565b5b602002602001015161964f919061a689565b6196738a8a86815181106196665761966561aabf565b5b60200260200101516145db565b61967d919061aaee565b619687919061ab77565b619691919061aba8565b8282815181106196a4576196a361aabf565b5b6020026020010181815250505b6196dd7f61cf0a8518daf53a887fb77612ad50a8972c585b6fa7f9f2be1e23ba118f32c660001b617537565b6197097f4055ed16b84a4ac65ccb952b2c5d40f9c1910dd5abd3357c21ad47676b97eb7860001b617537565b80600101905061937d565b506197417f48250429c4bd3255ca5cde83f20a0e96410688298f07dd5767dd7189dd50edbe60001b617537565b61976d7ffe25f2ff139089f61f8bda90e88256551f24d66809800f6699746763d821521360001b617537565b80935050505092915050565b60006197a77f7b7afad07a47075f1281e0e0a0f39d352ef8d4b570386a463499c8573079431d60001b617537565b6197d37fe8061d2bc31341c0b52bd88a7ae4b2a4110154106a62e74880c83a9e3680627560001b617537565b6197ff7f51b1af4c7d9d9b8d9caa12afc3aa8b63d6268aded5f0263ef24dbe3ce627b0d360001b617537565b6000619809614471565b90506198377fa91165fedbf392c558b87b2fb5d2ab3d55579f50a27030b3037691b06263272360001b617537565b6198637f21c2b71c932a4cc73921163a959dd0a7a5a36eaf86f75646ac24f3980268bdc360001b617537565b61987481600001602d015442619d72565b91505090565b50565b60006198ab7f7ca22ff2145a2ba6934394d5cbdb2a8604f4c7bdab16888035aaa91aaed3930260001b617537565b6198d77f201983f72007d6df97c4a9bbe055dfae927c85589be923ee211789341be17e7060001b617537565b6199037fe87a271d1304444f3cf388ec897cdac41138f1af23f5bed2fa2ef9475c2c1a5b60001b617537565b600061990d614471565b905061993b7f166f65c925157826b42ca16953067123860da64c9bb19fcaa4e8597e6fcec46060001b617537565b6199677f7143add1c049e0732835f98f1ede63e581d9c874d9966dd91bfbe0a627a064b060001b617537565b60006199957fe327f200e17bdd6d69e72510fda6c72fa0161cf45908ad787d3b8e1522e1e29b60001b617537565b6199c17f9ded2a98e09c066a82ce23f8cb6f3e5d80d3718dd138326108427f6d6bbebbca60001b617537565b60006199cd86866145db565b1415619a60576199ff7f67a12b44b14ee2b39f0e6829779a3e6baad229f4932cdbb98c25ca8e3834c1b960001b617537565b619a2b7fcf1ffd5296a4014230c4e9ccebdac95accc701d3664dff4275eb3c6a8b920bc660001b617537565b619a577f84d8fef28eb1e96a04cf2b1e17b51bac7913da20db7643c9d0b8a95542baaa1d60001b617537565b60019050619a8d565b619a8c7f55cc11dddb19c8ac3397b78450196b21d0d57ee4ee33eb338d4a1ebbf82eeb8460001b617537565b5b619ab97f824b6a53cb3cf968825d103b5600c9cc3fdd32beeaf71ac4a1b2d02de14ec83e60001b617537565b619ae57fbfd91cd2e846ed6c0b974eb0a1de7bb806fef164539f14872028917ec0f5d04160001b617537565b8015619c3257619b177f18c3d76ffe8bb05bba868c635df0ab0d922b9d15e9f118e63b3bb0e39efc0dc360001b617537565b619b437fd08c9632a3d555e9e57e10eb952554a5f9ecf42f040da3c06e22e27279c3d62360001b617537565b81600001603b01600085815260200190815260200160002060008673ffffffffffffffffffffffffffffffffffffffff1673ffffffffffffffffffffffffffffffffffffffff16815260200190815260200160002060009055619bc87fdbc9fec8b23d27ae51537f1423a8927376f73157e57de82e017d726503523e1c60001b617537565b81600001603c01600085815260200190815260200160002060008673ffffffffffffffffffffffffffffffffffffffff1673ffffffffffffffffffffffffffffffffffffffff16815260200190815260200160002060006101000a81549060ff0219169055619c5f565b619c5e7fa8674b78a4f13bd0549eecd7c513c123f6b9c3e8f549fc800e561af20870c80560001b617537565b5b619c8b7f88fa3d8a3d8bb7edf553b5e30bcec43e3f5f36e11ccf6914b2fcae3dbc13726e60001b617537565b619cb77ff09b9571b5e354553ed63efe798a616a339a634d385bf190c0de6728b74f8e8e60001b617537565b60019250505092915050565b6000619cf17fda4c9250ca33b3aa04e20b79ae71981d1897a99ef64e6fb361afba32dbabce6860001b6188c3565b619d1d7fbc236057158ed37aca368c1bff19b2164252ebe4a1ef7db61137b09cd8dcbf5160001b6188c3565b619d497f7eb3ef3adbb4fc7a145f967d56351cb6f98116abc217000978ea097bb17ce0d760001b6188c3565b818310619d5f57619d5a8284619e10565b619d6a565b619d698383619e10565b5b905092915050565b6000619da07f09cf066cf4477d51fd8f0ff4ed1b37bdf8b891e521ab608215d27edc787a06b860001b617537565b619dcc7f810f3d1c6729b518477eb029da8cb407a29770bdd3640ab9a7e55bec930e777660001b617537565b619df87fcefed25ed7e609929ecabdbdb19cbd365d7d3fbd094f9806f7253fccfc4a725360001b617537565b81831115619e065781619e08565b825b905092915050565b6000619e3e7ff10e4f7ac0b3c05bac79018dcd3341df8c1218d3e5080e10aa7d6128b9df428e60001b6188c3565b619e6a7f0123ab0c64184308caea5dcba27d3722f9190f5f964308e0dd77b6d6604fac9360001b6188c3565b82600052816020526040600020905092915050565b6000604051905090565b600080fd5b600080fd5b600073ffffffffffffffffffffffffffffffffffffffff82169050919050565b6000619ebe82619e93565b9050919050565b619ece81619eb3565b8114619ed957600080fd5b50565b600081359050619eeb81619ec5565b92915050565b6000819050919050565b619f0481619ef1565b8114619f0f57600080fd5b50565b600081359050619f2181619efb565b92915050565b60008060408385031215619f3e57619f3d619e89565b5b6000619f4c85828601619edc565b9250506020619f5d85828601619f12565b9150509250929050565b60008115159050919050565b619f7c81619f67565b82525050565b6000602082019050619f976000830184619f73565b92915050565b600080fd5b6000601f19601f8301169050919050565b7f4e487b7100000000000000000000000000000000000000000000000000000000600052604160045260246000fd5b619feb82619fa2565b810181811067ffffffffffffffff8211171561a00a5761a009619fb3565b5b80604052505050565b600061a01d619e7f565b905061a0298282619fe2565b919050565b600067ffffffffffffffff82111561a0495761a048619fb3565b5b602082029050602081019050919050565b600080fd5b600061a07261a06d8461a02e565b61a013565b9050808382526020820190506020840283018581111561a0955761a09461a05a565b5b835b8181101561a0be578061a0aa8882619f12565b84526020840193505060208101905061a097565b5050509392505050565b600082601f83011261a0dd5761a0dc619f9d565b5b813561a0ed84826020860161a05f565b91505092915050565b60006020828403121561a10c5761a10b619e89565b5b600082013567ffffffffffffffff81111561a12a5761a129619e8e565b5b61a1368482850161a0c8565b91505092915050565b600080fd5b60008083601f84011261a15a5761a159619f9d565b5b8235905067ffffffffffffffff81111561a1775761a17661a13f565b5b60208301915083602082028301111561a1935761a19261a05a565b5b9250929050565b6000806000806060858703121561a1b45761a1b3619e89565b5b600061a1c287828801619f12565b945050602061a1d387828801619f12565b935050604085013567ffffffffffffffff81111561a1f45761a1f3619e8e565b5b61a2008782880161a144565b925092505092959194509250565b60008060008060006080868803121561a22a5761a229619e89565b5b600061a23888828901619edc565b955050602061a24988828901619f12565b945050604061a25a88828901619f12565b935050606086013567ffffffffffffffff81111561a27b5761a27a619e8e565b5b61a2878882890161a144565b92509250509295509295909350565b61a29f81619ef1565b82525050565b600060408201905061a2ba600083018561a296565b61a2c76020830184619f73565b9392505050565b600082825260208201905092915050565b7f5265656e7472616e637947756172643a207265656e7472616e742063616c6c00600082015250565b600061a315601f8361a2ce565b915061a3208261a2df565b602082019050919050565b6000602082019050818103600083015261a3448161a308565b9050919050565b7f43616e27742062652063616c6c6564206279206120636f6e7472616374000000600082015250565b600061a381601d8361a2ce565b915061a38c8261a34b565b602082019050919050565b6000602082019050818103600083015261a3b08161a374565b9050919050565b7f596f7520646f6e2774206f776e20616e206163746976652076616c696461746f60008201527f7220736861726500000000000000000000000000000000000000000000000000602082015250565b600061a41360278361a2ce565b915061a41e8261a3b7565b604082019050919050565b6000602082019050818103600083015261a4428161a406565b9050919050565b7f4164647265737320646f65736e2774206f776e20616e797468696e6700000000600082015250565b600061a47f601c8361a2ce565b915061a48a8261a449565b602082019050919050565b6000602082019050818103600083015261a4ae8161a472565b9050919050565b7f4f776e6572206973206163746976650000000000000000000000000000000000600082015250565b600061a4eb600f8361a2ce565b915061a4f68261a4b5565b602082019050919050565b6000602082019050818103600083015261a51a8161a4de565b9050919050565b600060208201905061a536600083018461a296565b92915050565b61a54581619eb3565b82525050565b600060608201905061a560600083018661a53c565b61a56d602083018561a296565b61a57a604083018461a296565b949350505050565b7f4d65726b6c65747265652070726f6f66206e6f742076616c6964000000000000600082015250565b600061a5b8601a8361a2ce565b915061a5c38261a582565b602082019050919050565b6000602082019050818103600083015261a5e78161a5ab565b9050919050565b7f596f75206861766520616c72656164792072656465656d656420697400000000600082015250565b600061a624601c8361a2ce565b915061a62f8261a5ee565b602082019050919050565b6000602082019050818103600083015261a6538161a617565b9050919050565b7f4e487b7100000000000000000000000000000000000000000000000000000000600052601160045260246000fd5b600061a69482619ef1565b915061a69f83619ef1565b92508282101561a6b25761a6b161a65a565b5b828203905092915050565b7f556e61626c6520746f2073656e6420726566756e640000000000000000000000600082015250565b600061a6f360158361a2ce565b915061a6fe8261a6bd565b602082019050919050565b6000602082019050818103600083015261a7228161a6e6565b9050919050565b600060608201905061a73e600083018661a296565b61a74b602083018561a296565b61a758604083018461a296565b949350505050565b7f52656465656d696e672074696d65206973207374696c6c2076616c6964000000600082015250565b600061a796601d8361a2ce565b915061a7a18261a760565b602082019050919050565b6000602082019050818103600083015261a7c58161a789565b9050919050565b7f4e6f206665657320746f20636f6c6c6563740000000000000000000000000000600082015250565b600061a80260128361a2ce565b915061a80d8261a7cc565b602082019050919050565b6000602082019050818103600083015261a8318161a7f5565b9050919050565b7f4f776e657220646f65736e277420686176652073686172657300000000000000600082015250565b600061a86e60198361a2ce565b915061a8798261a838565b602082019050919050565b6000602082019050818103600083015261a89d8161a861565b9050919050565b7f43616e7420776974686472617720696e63656e74697665730000000000000000600082015250565b600061a8da60188361a2ce565b915061a8e58261a8a4565b602082019050919050565b6000602082019050818103600083015261a9098161a8cd565b9050919050565b600060408201905061a925600083018561a53c565b61a932602083018461a296565b9392505050565b7f4e6f2066756e647320746f207374616b65000000000000000000000000000000600082015250565b600061a96f60118361a2ce565b915061a97a8261a939565b602082019050919050565b6000602082019050818103600083015261a99e8161a962565b9050919050565b6000819050919050565b600061a9ca61a9c561a9c084619e93565b61a9a5565b619e93565b9050919050565b600061a9dc8261a9af565b9050919050565b600061a9ee8261a9d1565b9050919050565b61a9fe8161a9e3565b82525050565b600060408201905061aa19600083018561a9f5565b61aa26602083018461a296565b9392505050565b7f455243313135353a2061646472657373207a65726f206973206e6f742061207660008201527f616c6964206f776e657200000000000000000000000000000000000000000000602082015250565b600061aa89602a8361a2ce565b915061aa948261aa2d565b604082019050919050565b6000602082019050818103600083015261aab88161aa7c565b9050919050565b7f4e487b7100000000000000000000000000000000000000000000000000000000600052603260045260246000fd5b600061aaf982619ef1565b915061ab0483619ef1565b9250817fffffffffffffffffffffffffffffffffffffffffffffffffffffffffffffffff048311821515161561ab3d5761ab3c61a65a565b5b828202905092915050565b7f4e487b7100000000000000000000000000000000000000000000000000000000600052601260045260246000fd5b600061ab8282619ef1565b915061ab8d83619ef1565b92508261ab9d5761ab9c61ab48565b5b828204905092915050565b600061abb382619ef1565b915061abbe83619ef1565b9250827fffffffffffffffffffffffffffffffffffffffffffffffffffffffffffffffff0382111561abf35761abf261a65a565b5b828201905092915050565b7f455243313135353a206275726e2066726f6d20746865207a65726f206164647260008201527f6573730000000000000000000000000000000000000000000000000000000000602082015250565b600061ac5a60238361a2ce565b915061ac658261abfe565b604082019050919050565b6000602082019050818103600083015261ac898161ac4d565b9050919050565b7f455243313135353a206275726e20616d6f756e7420657863656564732062616c60008201527f616e636500000000000000000000000000000000000000000000000000000000602082015250565b600061acec60248361a2ce565b915061acf78261ac90565b604082019050919050565b6000602082019050818103600083015261ad1b8161acdf565b9050919050565b600060408201905061ad37600083018561a296565b61ad44602083018461a296565b9392505050565b7f4c69624469616d6f6e643a204d75737420626520636f6e7472616374206f776e60008201527f6572000000000000000000000000000000000000000000000000000000000000602082015250565b600061ada760228361a2ce565b915061adb28261ad4b565b604082019050919050565b6000602082019050818103600083015261add68161ad9a565b9050919050565b7f416464726573733a20696e73756666696369656e742062616c616e6365000000600082015250565b600061ae13601d8361a2ce565b915061ae1e8261addd565b602082019050919050565b6000602082019050818103600083015261ae428161ae06565b9050919050565b600081905092915050565b50565b600061ae6460008361ae49565b915061ae6f8261ae54565b600082019050919050565b600061ae858261ae57565b9150819050919050565b7f416464726573735574696c733a206661696c656420746f2073656e642076616c60008201527f7565000000000000000000000000000000000000000000000000000000000000602082015250565b600061aeeb60228361a2ce565b915061aef68261ae8f565b604082019050919050565b6000602082019050818103600083015261af1a8161aede565b9050919050565b7f52656465656d73206e6f742066696e6973686564000000000000000000000000600082015250565b600061af5760148361a2ce565b915061af628261af21565b602082019050919050565b6000602082019050818103600083015261af868161af4a565b9050919050565b7f556e64657220636f6f6c696e6720706572696f64000000000000000000000000600082015250565b600061afc360148361a2ce565b915061afce8261af8d565b602082019050919050565b6000602082019050818103600083015261aff28161afb6565b9050919050565b600061b00482619ef1565b91507fffffffffffffffffffffffffffffffffffffffffffffffffffffffffffffffff82141561b0375761b03661a65a565b5b60018201905091905056fea264697066735822122085a70e0df25e574e607be72bf653f655033282cd76f463649dae2ea2e2124a3c64736f6c63430008080033",
  "linkReferences": {},
  "deployedLinkReferences": {}
}