{
  "_format": "hh-sol-artifact-1",
  "contractName": "AvalancheValidatorViewTokenFacet",
  "sourceName": "contracts/validator/facets/AvalancheValidatorViewTokenFacet.sol",
  "abi": [
    {
      "inputs": [],
      "name": "PricePerTokenIsNull",
      "type": "error"
    },
    {
      "inputs": [
        {
          "internalType": "address",
          "name": "_token",
          "type": "address"
        }
      ],
      "name": "expiredOracle",
      "outputs": [
        {
          "internalType": "bool",
          "name": "",
          "type": "bool"
        }
      ],
      "stateMutability": "view",
      "type": "function"
    },
    {
      "inputs": [
        {
          "internalType": "address",
          "name": "_token",
          "type": "address"
        }
      ],
      "name": "fetchTokenPrice",
      "outputs": [
        {
          "internalType": "uint256",
          "name": "",
          "type": "uint256"
        }
      ],
      "stateMutability": "view",
      "type": "function"
    },
    {
      "inputs": [],
      "name": "getAllApprovedTokens",
      "outputs": [
        {
          "internalType": "address[]",
          "name": "",
          "type": "address[]"
        }
      ],
      "stateMutability": "view",
      "type": "function"
    },
    {
      "inputs": [],
      "name": "getFacetPaused",
      "outputs": [
        {
          "internalType": "bool",
          "name": "",
          "type": "bool"
        }
      ],
      "stateMutability": "view",
      "type": "function"
    },
    {
      "inputs": [
        {
          "internalType": "address",
          "name": "_token",
          "type": "address"
        }
      ],
      "name": "getNotInitialized",
      "outputs": [
        {
          "internalType": "bool",
          "name": "",
          "type": "bool"
        }
      ],
      "stateMutability": "view",
      "type": "function"
    },
    {
      "inputs": [
        {
          "internalType": "address",
          "name": "_token",
          "type": "address"
        }
      ],
      "name": "getOraclePrice",
      "outputs": [
        {
          "internalType": "uint256",
          "name": "",
          "type": "uint256"
        }
      ],
      "stateMutability": "view",
      "type": "function"
    },
    {
      "inputs": [
        {
          "internalType": "address",
          "name": "_token",
          "type": "address"
        },
        {
          "internalType": "uint256",
          "name": "_amount",
          "type": "uint256"
        }
      ],
      "name": "getShareCostTokenERC20",
      "outputs": [
        {
          "internalType": "uint256",
          "name": "",
          "type": "uint256"
        },
        {
          "internalType": "bool",
          "name": "",
          "type": "bool"
        }
      ],
      "stateMutability": "view",
      "type": "function"
    },
    {
      "inputs": [
        {
          "internalType": "address",
          "name": "_token",
          "type": "address"
        },
        {
          "internalType": "uint256",
          "name": "_amountId",
          "type": "uint256"
        }
      ],
      "name": "getShareMintTokenERC721",
      "outputs": [
        {
          "internalType": "uint256",
          "name": "",
          "type": "uint256"
        },
        {
          "internalType": "bool",
          "name": "",
          "type": "bool"
        }
      ],
      "stateMutability": "view",
      "type": "function"
    },
    {
      "inputs": [
        {
          "internalType": "address",
          "name": "_token",
          "type": "address"
        }
      ],
      "name": "getTokenInfo",
      "outputs": [
        {
          "components": [
            {
              "internalType": "address",
              "name": "ownerToken",
              "type": "address"
            },
            {
              "internalType": "uint256",
              "name": "pricePerToken",
              "type": "uint256"
            },
            {
              "internalType": "uint256",
              "name": "avaxDeposited",
              "type": "uint256"
            },
            {
              "internalType": "uint240",
              "name": "avaxIncentives",
              "type": "uint240"
            },
            {
              "internalType": "uint16",
              "name": "rebatePercentageInBPS",
              "type": "uint16"
            },
            {
              "internalType": "bool",
              "name": "fungible",
              "type": "bool"
            },
            {
              "internalType": "string",
              "name": "collectionName",
              "type": "string"
            }
          ],
          "internalType": "struct ValidatorStorage.TokenPaymentStruct",
          "name": "",
          "type": "tuple"
        }
      ],
      "stateMutability": "view",
      "type": "function"
    },
    {
      "inputs": [
        {
          "internalType": "address",
          "name": "_token",
          "type": "address"
        }
      ],
      "name": "getTokenPeriodAndLastTimestampUpdate",
      "outputs": [
        {
          "internalType": "uint256",
          "name": "",
          "type": "uint256"
        },
        {
          "internalType": "uint256",
          "name": "",
          "type": "uint256"
        }
      ],
      "stateMutability": "view",
      "type": "function"
    },
    {
      "inputs": [
        {
          "internalType": "address",
          "name": "_oracle",
          "type": "address"
        }
      ],
      "name": "isOracleAllowed",
      "outputs": [
        {
          "internalType": "bool",
          "name": "",
          "type": "bool"
        }
      ],
      "stateMutability": "view",
      "type": "function"
    }
  ],
  "bytecode": "0x608060405234801561001057600080fd5b506110e4806100206000396000f3fe608060405234801561001057600080fd5b50600436106100c95760003560e01c806375f620ac11610081578063d25931ee1161005b578063d25931ee14610294578063d898d352146102a7578063f2526f971461033d57600080fd5b806375f620ac146101c657806376e13ac214610229578063af1704911461028157600080fd5b80631f69565f116100b25780631f69565f146101145780633032ff031461013457806339d901491461019c57600080fd5b806309b0d50a146100ce5780631c57a809146100ec575b600080fd5b6100d6610350565b6040516100e39190610db5565b60405180910390f35b6100ff6100fa366004610e38565b6103e2565b604080519283529015156020830152016100e3565b610127610122366004610e62565b610622565b6040516100e39190610ee8565b61018c610142366004610e62565b73ffffffffffffffffffffffffffffffffffffffff1660009081527f66bd28df09c9271bd5696185e1f2db071a0ed825a4f7df621c22ef195c811eb9602052604090205460ff1690565b60405190151581526020016100e3565b7f66bd28df09c9271bd5696185e1f2db071a0ed825a4f7df621c22ef195c811eb55460ff1661018c565b61021b6101d4366004610e62565b73ffffffffffffffffffffffffffffffffffffffff1660009081527f66bd28df09c9271bd5696185e1f2db071a0ed825a4f7df621c22ef195c811eba602052604090205490565b6040519081526020016100e3565b61018c610237366004610e62565b73ffffffffffffffffffffffffffffffffffffffff1660009081527f66bd28df09c9271bd5696185e1f2db071a0ed825a4f7df621c22ef195c811ebe602052604090205460ff1690565b6100ff61028f366004610e38565b610835565b61021b6102a2366004610e62565b610b1b565b6103286102b5366004610e62565b73ffffffffffffffffffffffffffffffffffffffff1660009081527f66bd28df09c9271bd5696185e1f2db071a0ed825a4f7df621c22ef195c811ebb60209081526040808320547f66bd28df09c9271bd5696185e1f2db071a0ed825a4f7df621c22ef195c811ebc909252909120549091565b604080519283526020830191909152016100e3565b61018c61034b366004610e62565b610bea565b606060007f66bd28df09c9271bd5696185e1f2db071a0ed825a4f7df621c22ef195c811e9f601881018054604080516020808402820181019092528281529394508301828280156103d757602002820191906000526020600020905b815473ffffffffffffffffffffffffffffffffffffffff1681526001909101906020018083116103ac575b505050505091505090565b7f66bd28df09c9271bd5696185e1f2db071a0ed825a4f7df621c22ef195c811eb45473ffffffffffffffffffffffffffffffffffffffff831660009081527f66bd28df09c9271bd5696185e1f2db071a0ed825a4f7df621c22ef195c811eb66020526040812060010154909182917f66bd28df09c9271bd5696185e1f2db071a0ed825a4f7df621c22ef195c811e9f919083906104a7575073ffffffffffffffffffffffffffffffffffffffff86166000908152601b830160205260409020546104d4565b5073ffffffffffffffffffffffffffffffffffffffff861660009081526017830160205260409020600101545b8061050b576040517f4622fb7300000000000000000000000000000000000000000000000000000000815260040160405180910390fd5b73ffffffffffffffffffffffffffffffffffffffff871660009081526017840160205260408120600301547e01000000000000000000000000000000000000000000000000000000000000900461ffff16906105698489848c610cd8565b9050600061271061057a8487610fb3565b6105849190610ff0565b61058e9083610fb3565b90506000670de0b6b3a764000085836105a78d8a610fb3565b6105b1919061102b565b6105bb9190610fb3565b6105c59190610ff0565b90506000826105d4888d610fb3565b6105de919061102b565b73ffffffffffffffffffffffffffffffffffffffff8d1660009081526017909901602052604090982060020154919950509590951015955050505050509250929050565b61069e6040518060e00160405280600073ffffffffffffffffffffffffffffffffffffffff168152602001600081526020016000815260200160007dffffffffffffffffffffffffffffffffffffffffffffffffffffffffffff168152602001600061ffff168152602001600015158152602001606081525090565b73ffffffffffffffffffffffffffffffffffffffff82811660009081527f66bd28df09c9271bd5696185e1f2db071a0ed825a4f7df621c22ef195c811eb66020908152604091829020825160e0810184528154909416845260018101549184019190915260028101549183019190915260038101547dffffffffffffffffffffffffffffffffffffffffffffffffffffffffffff811660608401527e01000000000000000000000000000000000000000000000000000000000000900461ffff166080830152600481015460ff16151560a08301526005810180547f66bd28df09c9271bd5696185e1f2db071a0ed825a4f7df621c22ef195c811e9f93929160c08401916107ab90611042565b80601f01602080910402602001604051908101604052809291908181526020018280546107d790611042565b80156108245780601f106107f957610100808354040283529160200191610824565b820191906000526020600020905b81548152906001019060200180831161080757829003601f168201915b505050505081525050915050919050565b600080807f66bd28df09c9271bd5696185e1f2db071a0ed825a4f7df621c22ef195c811e9f90506108956040518060c001604052806000815260200160008152602001600081526020016000815260200160008152602001600081525090565b60008511610903576040517f08c379a000000000000000000000000000000000000000000000000000000000815260206004820152600960248201527f4e4f5f414d4f554e540000000000000000000000000000000000000000000000604482015260640160405180910390fd5b6015820154815273ffffffffffffffffffffffffffffffffffffffff8616600090815260178301602052604090206001015461096d5773ffffffffffffffffffffffffffffffffffffffff86166000908152601b83016020908152604090912054908201526109a0565b73ffffffffffffffffffffffffffffffffffffffff86166000908152601783016020908152604090912060010154908201525b60208101516109db576040517f4622fb7300000000000000000000000000000000000000000000000000000000815260040160405180910390fd5b805160208201516109ec9087610fb3565b6109f69190610ff0565b604082810191825273ffffffffffffffffffffffffffffffffffffffff881660009081526017850160205220600301547e01000000000000000000000000000000000000000000000000000000000000900461ffff166060830181905282519151610a62929189610cd8565b60808201526060810151815161271091610a7b91610fb3565b610a859190610ff0565b8160800151610a949190610fb3565b60a082018190528151610aa691610ff0565b8160400151610ab59190611096565b6040820181905260a08201518251600092610ad09190610fb3565b610ada919061102b565b73ffffffffffffffffffffffffffffffffffffffff881660009081526017909401602052604093849020600201549290930151945050101590509250929050565b73ffffffffffffffffffffffffffffffffffffffff811660009081527f66bd28df09c9271bd5696185e1f2db071a0ed825a4f7df621c22ef195c811eb660205260408120600101547f66bd28df09c9271bd5696185e1f2db071a0ed825a4f7df621c22ef195c811e9f9015610bba5773ffffffffffffffffffffffffffffffffffffffff83166000908152601782016020526040902060010154610be3565b73ffffffffffffffffffffffffffffffffffffffff83166000908152601b820160205260409020545b9392505050565b73ffffffffffffffffffffffffffffffffffffffff811660009081527f66bd28df09c9271bd5696185e1f2db071a0ed825a4f7df621c22ef195c811ebb60205260408120547f66bd28df09c9271bd5696185e1f2db071a0ed825a4f7df621c22ef195c811e9f90610c5e5750600092915050565b73ffffffffffffffffffffffffffffffffffffffff83166000908152601d82016020908152604080832054601c850190925290912054610c9e904261102b565b101580610be3575073ffffffffffffffffffffffffffffffffffffffff83166000908152601e8201602052604090205460ff169392505050565b73ffffffffffffffffffffffffffffffffffffffff811660009081527f66bd28df09c9271bd5696185e1f2db071a0ed825a4f7df621c22ef195c811eb660205260408120600301547f66bd28df09c9271bd5696185e1f2db071a0ed825a4f7df621c22ef195c811e9f907dffffffffffffffffffffffffffffffffffffffffffffffffffffffffffff1682805b878111610da9578281612710610d7b8a8d610fb3565b610d859190610ff0565b610d8f9190610fb3565b11610d9c57809150610da1565b610da9565b600101610d65565b50979650505050505050565b6020808252825182820181905260009190848201906040850190845b81811015610e0357835173ffffffffffffffffffffffffffffffffffffffff1683529284019291840191600101610dd1565b50909695505050505050565b803573ffffffffffffffffffffffffffffffffffffffff81168114610e3357600080fd5b919050565b60008060408385031215610e4b57600080fd5b610e5483610e0f565b946020939093013593505050565b600060208284031215610e7457600080fd5b610be382610e0f565b6000815180845260005b81811015610ea357602081850181015186830182015201610e87565b81811115610eb5576000602083870101525b50601f017fffffffffffffffffffffffffffffffffffffffffffffffffffffffffffffffe0169290920160200192915050565b6020815273ffffffffffffffffffffffffffffffffffffffff825116602082015260208201516040820152604082015160608201527dffffffffffffffffffffffffffffffffffffffffffffffffffffffffffff606083015116608082015261ffff60808301511660a082015260a0820151151560c0820152600060c083015160e080840152610f7c610100840182610e7d565b949350505050565b7f4e487b7100000000000000000000000000000000000000000000000000000000600052601160045260246000fd5b6000817fffffffffffffffffffffffffffffffffffffffffffffffffffffffffffffffff0483118215151615610feb57610feb610f84565b500290565b600082611026577f4e487b7100000000000000000000000000000000000000000000000000000000600052601260045260246000fd5b500490565b60008282101561103d5761103d610f84565b500390565b600181811c9082168061105657607f821691505b60208210811415611090577f4e487b7100000000000000000000000000000000000000000000000000000000600052602260045260246000fd5b50919050565b600082198211156110a9576110a9610f84565b50019056fea2646970667358221220de94c3b8c018fc995377d9ad1fce0d97f19ce7822dfbb3b5d7558b622e414b1664736f6c63430008080033",
  "linkReferences": {},
  "deployedLinkReferences": {}
}