{
  "_format": "hh-sol-artifact-1",
  "contractName": "AvalancheValidatorViewTokenFacet",
  "sourceName": "contracts/validator/facets/AvalancheValidatorViewTokenFacet.sol",
  "abi": [
    {
      "inputs": [],
      "name": "PricePerTokenIsNull",
      "type": "error"
    },
    {
      "inputs": [
        {
          "internalType": "address",
          "name": "_token",
          "type": "address"
        }
      ],
      "name": "expiredOracle",
      "outputs": [
        {
          "internalType": "bool",
          "name": "",
          "type": "bool"
        }
      ],
      "stateMutability": "view",
      "type": "function"
    },
    {
      "inputs": [
        {
          "internalType": "address",
          "name": "_token",
          "type": "address"
        }
      ],
      "name": "fetchTokenPrice",
      "outputs": [
        {
          "internalType": "uint256",
          "name": "",
          "type": "uint256"
        }
      ],
      "stateMutability": "view",
      "type": "function"
    },
    {
      "inputs": [],
      "name": "getAllApprovedTokens",
      "outputs": [
        {
          "internalType": "address[]",
          "name": "",
          "type": "address[]"
        }
      ],
      "stateMutability": "view",
      "type": "function"
    },
    {
      "inputs": [],
      "name": "getFacetPaused",
      "outputs": [
        {
          "internalType": "bool",
          "name": "",
          "type": "bool"
        }
      ],
      "stateMutability": "view",
      "type": "function"
    },
    {
      "inputs": [
        {
          "internalType": "address",
          "name": "_token",
          "type": "address"
        }
      ],
      "name": "getNotInitialized",
      "outputs": [
        {
          "internalType": "bool",
          "name": "",
          "type": "bool"
        }
      ],
      "stateMutability": "view",
      "type": "function"
    },
    {
      "inputs": [
        {
          "internalType": "address",
          "name": "_token",
          "type": "address"
        }
      ],
      "name": "getOraclePrice",
      "outputs": [
        {
          "internalType": "uint256",
          "name": "",
          "type": "uint256"
        }
      ],
      "stateMutability": "view",
      "type": "function"
    },
    {
      "inputs": [
        {
          "internalType": "address",
          "name": "_token",
          "type": "address"
        },
        {
          "internalType": "uint256",
          "name": "_amount",
          "type": "uint256"
        }
      ],
      "name": "getShareCostTokenERC20",
      "outputs": [
        {
          "internalType": "uint256",
          "name": "",
          "type": "uint256"
        },
        {
          "internalType": "bool",
          "name": "",
          "type": "bool"
        }
      ],
      "stateMutability": "view",
      "type": "function"
    },
    {
      "inputs": [
        {
          "internalType": "address",
          "name": "_token",
          "type": "address"
        },
        {
          "internalType": "uint256",
          "name": "_amountId",
          "type": "uint256"
        }
      ],
      "name": "getShareMintTokenERC721",
      "outputs": [
        {
          "internalType": "uint256",
          "name": "",
          "type": "uint256"
        },
        {
          "internalType": "bool",
          "name": "",
          "type": "bool"
        }
      ],
      "stateMutability": "view",
      "type": "function"
    },
    {
      "inputs": [
        {
          "internalType": "address",
          "name": "_token",
          "type": "address"
        }
      ],
      "name": "getTokenInfo",
      "outputs": [
        {
          "components": [
            {
              "internalType": "address",
              "name": "ownerToken",
              "type": "address"
            },
            {
              "internalType": "uint256",
              "name": "pricePerToken",
              "type": "uint256"
            },
            {
              "internalType": "uint256",
              "name": "avaxDeposited",
              "type": "uint256"
            },
            {
              "internalType": "uint240",
              "name": "avaxIncentives",
              "type": "uint240"
            },
            {
              "internalType": "uint16",
              "name": "rebatePercentageInBPS",
              "type": "uint16"
            },
            {
              "internalType": "bool",
              "name": "fungible",
              "type": "bool"
            },
            {
              "internalType": "string",
              "name": "collectionName",
              "type": "string"
            }
          ],
          "internalType": "struct ValidatorStorage.TokenPaymentStruct",
          "name": "",
          "type": "tuple"
        }
      ],
      "stateMutability": "view",
      "type": "function"
    },
    {
      "inputs": [
        {
          "internalType": "address",
          "name": "_token",
          "type": "address"
        }
      ],
      "name": "getTokenPeriodAndLastTimestampUpdate",
      "outputs": [
        {
          "internalType": "uint256",
          "name": "",
          "type": "uint256"
        },
        {
          "internalType": "uint256",
          "name": "",
          "type": "uint256"
        }
      ],
      "stateMutability": "view",
      "type": "function"
    },
    {
      "inputs": [
        {
          "internalType": "address",
          "name": "_oracle",
          "type": "address"
        }
      ],
      "name": "isOracleAllowed",
      "outputs": [
        {
          "internalType": "bool",
          "name": "",
          "type": "bool"
        }
      ],
      "stateMutability": "view",
      "type": "function"
    }
  ],
  "bytecode": "0x608060405234801561001057600080fd5b506131e0806100206000396000f3fe608060405234801561001057600080fd5b50600436106100c95760003560e01c806375f620ac11610081578063d25931ee1161005b578063d25931ee1461022c578063d898d3521461025c578063f2526f971461028d576100c9565b806375f620ac1461019b57806376e13ac2146101cb578063af170491146101fb576100c9565b80631f69565f116100b25780631f69565f1461011d5780633032ff031461014d57806339d901491461017d576100c9565b806309b0d50a146100ce5780631c57a809146100ec575b600080fd5b6100d66102bd565b6040516100e39190612be6565b60405180910390f35b61010660048036038101906101019190612c6f565b610439565b604051610114929190612cd9565b60405180910390f35b61013760048036038101906101329190612d02565b610c14565b6040516101449190612ed8565b60405180910390f35b61016760048036038101906101629190612d02565b610f06565b6040516101749190612efa565b60405180910390f35b61018561104a565b6040516101929190612efa565b60405180910390f35b6101b560048036038101906101b09190612d02565b61114f565b6040516101c29190612f15565b60405180910390f35b6101e560048036038101906101e09190612d02565b611286565b6040516101f29190612efa565b60405180910390f35b61021560048036038101906102109190612c6f565b6113ca565b604051610223929190612cd9565b60405180910390f35b61024660048036038101906102419190612d02565b611d8d565b6040516102539190612f15565b60405180910390f35b61027660048036038101906102719190612d02565b611f61565b604051610284929190612f30565b60405180910390f35b6102a760048036038101906102a29190612d02565b6120df565b6040516102b49190612efa565b60405180910390f35b60606102eb7f1de197d7b333b939b4314a82a3dbf1e8176b843cd742f0e8e732b1ea1ddf8a8b60001b6123b5565b6103177f43456febcfb75ac018914b3a13339a34bb837ddfdf44e3c3ce04913f61dfd26660001b6123b5565b6103437f68f830d9d32d91a45c3ef18beedad941599faf3ae0b956da897ab46dde20641360001b6123b5565b600061034d6123b8565b905061037b7fc7e5d6c7db27bd4f21a28d15861c493c59633f28fdcf7c835c2f58012977dbad60001b6123b5565b6103a77f5a96cc75eea5149587d83c40cbbff7ec1d0e15ffba98316ceec3a3c90ea405be60001b6123b5565b8060000160180180548060200260200160405190810160405280929190818152602001828054801561042e57602002820191906000526020600020905b8160009054906101000a900473ffffffffffffffffffffffffffffffffffffffff1673ffffffffffffffffffffffffffffffffffffffff16815260200190600101908083116103e4575b505050505091505090565b6000806104687fa7e0489d715ff4f456328551c7478a0146310aa809b971a823f9af1bd8468a3960001b6123b5565b6104947fcdf1d4e9f3ab09cfb0053f6abd0b5c405435303f4c3f5848143aba73b86dfba860001b6123b5565b6104c07f085ce06576ced345b17d93019ca17c8deceb8405248761eafb05e85aa35a9b6860001b6123b5565b60006104ca6123b8565b90506104f87fdcdb387669e713f04ed7ef0abd9e9431ccd6d1c9ac2b3543359df482ca3f137060001b6123b5565b6105247fa849bbbb2fdb3a809aca60b40c56a6ac042a20a0833bf9b495f7b7bf405f201260001b6123b5565b60008160000160150154905061055c7fa85a15273dace94fa666c5ec4686f412f3c52e00803b64d8b9e1a1463231574560001b6123b5565b6105887f92ae871327cd074019b768d15c0423bfe3b5fd9b9a577fe336afc6ade680b99f60001b6123b5565b60006105b67fb9c4a8740e7322b7fc4538adae7ac2b8daa0f739bdf069bb7ba515e3fd4dc20a60001b6123b5565b6105e27f2c1f35439060343b2ab61719ff1a3ad19e8934a2dced5003fbe3d0853487d02360001b6123b5565b60008360000160170160008973ffffffffffffffffffffffffffffffffffffffff1673ffffffffffffffffffffffffffffffffffffffff1681526020019081526020016000206001015414156107025761065e7f4ed74ccb7e505660d21dfde8c48dc4d68892e77ed1b5f2acfd7c6505312611a560001b6123b5565b61068a7f1454e5defc3638df9c960be14d0aa125788b5d5094e991c880b9746a26a705db60001b6123b5565b6106b67fe6d8080fb57a6d507cf4be9ce69821526784996cc26f8840f24fcd349c4a234a60001b6123b5565b82600001601b0160008873ffffffffffffffffffffffffffffffffffffffff1673ffffffffffffffffffffffffffffffffffffffff1681526020019081526020016000205490506107d1565b61072e7f8beed0e4102aae80e93db3720b2dcc13e5fdf2fc7b1143d1841e53a84bb159a660001b6123b5565b61075a7fdbe3699e5a4dc71283b07e5e4d5e0135683dcfa97c6ff1f5e1b3e6103a9ae3fd60001b6123b5565b6107867f13075970e3d475ee625b9b08509c2ab34eb087ef9e144ee426e60791d9000c2160001b6123b5565b8260000160170160008873ffffffffffffffffffffffffffffffffffffffff1673ffffffffffffffffffffffffffffffffffffffff1681526020019081526020016000206001015490505b6107fd7f7562c409cdfc8f32b59890c4e2019f0fab27ab18a79bbeeb39d15a1f14c5127e60001b6123b5565b6108297ff88239681f03798d17910129d332ca6446d48301d3f1a49f05834cec4b81262c60001b6123b5565b60008114156108905761085e7f2677ff282e6b6614b7184b44ee4a88c477f9d133a4c7739ed5d152f3d81284de60001b6123b5565b6040517f4622fb7300000000000000000000000000000000000000000000000000000000815260040160405180910390fd5b6108bc7f1b68c3ed0ea3ff5f2ee9e4abee441e5e6741b0798639ae0f01159a0a27dfa0af60001b6123b5565b6108e87f8db4bc67308b955fd8413000798b2a0e42cba402e7410a355d125feed78e1f1060001b6123b5565b6109137e7efc6f264bccb08dc55239ebcec62a3f89970d70aec6dd838a9b081cee3be860001b6123b5565b60008360000160170160008973ffffffffffffffffffffffffffffffffffffffff1673ffffffffffffffffffffffffffffffffffffffff168152602001908152602001600020600301601e9054906101000a900461ffff1661ffff16905061099d7f8087ae3bafd47ec04fd797eb136060eff1d7f2c9006766dc35bb4caaba20a70f60001b6123b5565b6109c97fda56a08230ec1b12205caa058e13a1618fe8a9d9c87bfd104391469f90ecd34760001b6123b5565b60006109d78489848c612496565b9050610a057faca55b3dac4cdc3cea19df3579f3d9617a4e581542d78f828e16ccae2c14c70960001b6123b5565b610a317fd9c1eaf60b6b432222d8e28893d507f6d75612a3d9dffa94337e35632db6242660001b6123b5565b60006127108386610a429190612f88565b610a4c9190613011565b82610a579190612f88565b9050610a857ffd85cec574c3cf1c543979500f7e2d1628e466e0cf3e6ab20fb786258d2a7a4b60001b6123b5565b610ab17ff034401e231f272cac75a2c45a023960e5c2e2085edac4ccff9138f5e58ed7e660001b6123b5565b6000670de0b6b3a764000085838c89610aca9190612f88565b610ad49190613042565b610ade9190612f88565b610ae89190613011565b9050610b167f75b2c732dcead97c2229b2c829adba6fc76ee14b4ff4b1b30289f8d2a02a353a60001b6123b5565b610b427fb8e7dcc13040848cd39cbdf3d77547a028a5475bc8b766652458857b1102f1ed60001b6123b5565b600082878c610b519190612f88565b610b5b9190613042565b8860000160170160008e73ffffffffffffffffffffffffffffffffffffffff1673ffffffffffffffffffffffffffffffffffffffff1681526020019081526020016000206002015410159050610bd37f7c99d9ddf745a572aa6d6ba5dd824faeada8568ca285894a9482cc04e07248f260001b6123b5565b610bff7f5d5d993e3cc0c3d001594e76ac361f00086c5ab30ada490f14403d10d21c326760001b6123b5565b81819950995050505050505050509250929050565b610c1c612a47565b610c487f1d4cbeff3e08e28fa83c2823d5331de4f47ef57168394315de527358d07be31060001b6123b5565b610c747fdac5acdfa4773f738d0d28d6e8e9268c28c7568772c385cd842f78887e8b33a560001b6123b5565b610ca07f869ee3f96f51a3d0240b4e7d1f083bdfbcebd3e03e62f55dfbac3efb7d719e8460001b6123b5565b6000610caa6123b8565b9050610cd87fec56d2bf657d4d66b66c1c013bf178aa15cefa31cf17875900b34f54550e5e6660001b6123b5565b610d047f429231236bc4d20ebbf3920b182aacd96df49fcdf46fc53991eab4770b15594960001b6123b5565b8060000160170160008473ffffffffffffffffffffffffffffffffffffffff1673ffffffffffffffffffffffffffffffffffffffff1681526020019081526020016000206040518060e00160405290816000820160009054906101000a900473ffffffffffffffffffffffffffffffffffffffff1673ffffffffffffffffffffffffffffffffffffffff1673ffffffffffffffffffffffffffffffffffffffff16815260200160018201548152602001600282015481526020016003820160009054906101000a90047dffffffffffffffffffffffffffffffffffffffffffffffffffffffffffff167dffffffffffffffffffffffffffffffffffffffffffffffffffffffffffff167dffffffffffffffffffffffffffffffffffffffffffffffffffffffffffff16815260200160038201601e9054906101000a900461ffff1661ffff1661ffff1681526020016004820160009054906101000a900460ff16151515158152602001600582018054610e7c906130a5565b80601f0160208091040260200160405190810160405280929190818152602001828054610ea8906130a5565b8015610ef55780601f10610eca57610100808354040283529160200191610ef5565b820191906000526020600020905b815481529060010190602001808311610ed857829003601f168201915b505050505081525050915050919050565b6000610f347ff76839f4c25436ab25a2cb6f3ece716c8c7f5094346918ffbb8f08e772cf201560001b6123b5565b610f607fb6a04ebdc6a0e45f1ac951202b584788e426992bf40ba6362c253dc7a2fb9fa460001b6123b5565b610f8c7f55a37e8f13597053aee62a1edeed403553e94401200e6353e222fb1cdd6bf96160001b6123b5565b6000610f966123b8565b9050610fc47f50ff65a42150d38581842d907d3ff124cf8e8f1b5ea5ed5e4a21941b6af3624960001b6123b5565b610ff07fb43d710824b06fe7edd8c1f056a67c318080b771ea2dd18f2ba791178ef69a9260001b6123b5565b80600001601a0160008473ffffffffffffffffffffffffffffffffffffffff1673ffffffffffffffffffffffffffffffffffffffff16815260200190815260200160002060009054906101000a900460ff16915050919050565b60006110787fe82a2f7e54ff3c376de3d5278ffc98a54debeb911353b7dbdaa000227e3546e560001b6123b5565b6110a47f65306a55ecaf665f6f27c86675645e1ef9c17dc44a65fe50281e31112fb13fd260001b6123b5565b6110d07fa8b710560ae56e1e4fe5980b49ab3149cc938ed275aa73fbab587219222174c260001b6123b5565b60006110da6123b8565b90506111087f528e6962cf32a6565caf76203ea4a9848323060ca200c21432012dfac593aa5960001b6123b5565b6111347f97443641c3fa3a136fcd58a5ceab4f3acc51fadd14339caf6945632ff40f13cd60001b6123b5565b8060000160160160009054906101000a900460ff1691505090565b600061117d7f878a77ea2f4bbb0496eec5e46547db62323d74629df61bb973d0c4a68e32eaab60001b6123b5565b6111a97fcc11a0d792465d9c24eefddab5354ab027ffabad4b55620c1de1c3d47137359660001b6123b5565b6111d57f67af920435585352a3e76ee7110e7491e723d66eef3a5d2e542ff835499c788160001b6123b5565b60006111df6123b8565b905061120d7f8781df47f04f416afdd0bcf0b9b68a054624a1b4044dc42ecf0f296c2739004060001b6123b5565b6112397fbd939353903f7374c8bfb2debf5f600cc3b838777bbc0fe3786b1e28b35a2a1c60001b6123b5565b80600001601b0160008473ffffffffffffffffffffffffffffffffffffffff1673ffffffffffffffffffffffffffffffffffffffff16815260200190815260200160002054915050919050565b60006112b47f39d6bf35453b297c94b09b1e29b7adb713710e641b39b3508b5c16029599a09660001b6123b5565b6112e07f3c5a605584fdbbd3d3d208a8c671250563b3a970d39fb53cc65aa65f2bb2611460001b6123b5565b61130c7f4240c21dacb915114c05a937f8ec2a84a4851e6ce280de5202ecd002bf35e53e60001b6123b5565b60006113166123b8565b90506113447f191ec4ab7ced267d92afa4b4451cf0730771a2e2fca646ecd626baad357c529060001b6123b5565b6113707f98bdc1e9f2b2b3d8bbcfb5d0b203e20a5ad570cfde9d1801b1a01f990a6c51d860001b6123b5565b80600001601f0160008473ffffffffffffffffffffffffffffffffffffffff1673ffffffffffffffffffffffffffffffffffffffff16815260200190815260200160002060009054906101000a900460ff16915050919050565b6000806113f97f64a28810baf053255e4dfc209d164e620fc95e9d3941aec804bcb6579563b03c60001b6123b5565b6114257f39fe8491af572b647e1e235272fcb846b0d0e8d264e23b548ecad8eb3a62199b60001b6123b5565b6114517fdd0eade9cff07605808512b8aa966bcb2e313dd827459f3b1cd2d4f9c581ca0f60001b6123b5565b600061145b6123b8565b90506114897f044b456fb66d5f5ee0e87ee16357d91330c9fa7028926d7af7f36b8d1e3b71ef60001b6123b5565b6114b57f0eef09cdb203c35e4edbc834943455059953cc5ec701564dd10dbfb8b4a3b31c60001b6123b5565b6114bd612ac0565b6114e97f4dfd5de4d62e48e85cedadaf5a91832e7226f0f61b68ae33281a1b87675de54660001b6123b5565b6115157f2bd71fece95052f53ba7626492955f9c9faea8d6c731f723dfcec4588619d31d60001b6123b5565b6115417f141b646d667b4879cc84bc993901a5d017f625061a36997a7da5199993a99add60001b6123b5565b60008511611584576040517f08c379a000000000000000000000000000000000000000000000000000000000815260040161157b90613134565b60405180910390fd5b6115b07fe7da2eaffc06c61d5cf0f703bc11ecddd91e5a94213af5bbd243ba2aa87ffc3160001b6123b5565b6115dc7fc534a48756b1ca6c9634215883f47a089e9f5283483892bad24ac2977b4d3bcd60001b6123b5565b6116087f7afdd2071e7ecae8017ba10fe00ef808044cf8492ca232dd79b106e0c8d67c2760001b6123b5565b81600001601501548160000181815250506116457f7cebe4c640b0c87bec4211dc84ed9f40b7ed0375d800817e754555d64df9543460001b6123b5565b8060200151506116777ffd78ead37d08d5271c35f6222dc451b248da2e60b1dd6ae86effd6a815e79ccb60001b6123b5565b6116a37f02326622379d6fcd542cddbd45ae8f6d3c2db80260fd0eae7ff2eeec68f68a1d60001b6123b5565b60008260000160170160008873ffffffffffffffffffffffffffffffffffffffff1673ffffffffffffffffffffffffffffffffffffffff1681526020019081526020016000206001015414156117ca5761171f7f4dd5e2c40af067e067d9faafb15958046b8964a40223dd155a4e191984e5b47260001b6123b5565b61174b7f42d3ec5669ca931d373f436797a4a3c9800dd05fad8eadd5a1d084698a8c74e760001b6123b5565b6117777f2258c08dcc82beafb851ad23cd6209fd9c5550898cfa17d3890f8084a300801c60001b6123b5565b81600001601b0160008773ffffffffffffffffffffffffffffffffffffffff1673ffffffffffffffffffffffffffffffffffffffff168152602001908152602001600020548160200181815250506118a0565b6117f67fac1fa45192b83567494366134d36e4239a531543c54a35b43f8a86fc9b8d268a60001b6123b5565b6118227fa9974ebbced81a31a49a0be00fe1f10d5411997c2dbe842f8508558e0f6c37d260001b6123b5565b61184e7f9e756862112c25764316f11d140344ab0b72a396cdbb37a2f1b617dfaa6509a760001b6123b5565b8160000160170160008773ffffffffffffffffffffffffffffffffffffffff1673ffffffffffffffffffffffffffffffffffffffff168152602001908152602001600020600101548160200181815250505b6118cc7f849f822e38cbbac9af719d2c3c65d7b7f253aadc944842aa919239428143b98760001b6123b5565b6118f87f76b323074d97de346a7e3f2d959f940e62b6b67784f196e805d6b6e74db9fa1c60001b6123b5565b600081602001511415611963576119317f0df7594412b96d6afdd12d6cc29e456d9572eeaa8ce84757deab50f7dd26f59960001b6123b5565b6040517f4622fb7300000000000000000000000000000000000000000000000000000000815260040160405180910390fd5b61198f7f0eab198af3fb9cb3cf04c34de154851d1b7ac31c474e0abbaa353b97c6dad66460001b6123b5565b6119bb7fbfd6e0664ea40ea8df835f7e72dabb6d1599b8cbacc58e04a0bb985e8932e6fd60001b6123b5565b6119e77fe71cde1a57c8c005b0b61bf1e5c731cbc3885289b18137c4ca3759a4a9a7019560001b6123b5565b80600001518160200151866119fc9190612f88565b611a069190613011565b816040018181525050611a3b7f622044416f67fdc00303901ffd5d08db2cac2beccb4de414307c8d3f421a7f1460001b6123b5565b611a677fac02a1f3a2325059174f3bb74519ec3811ee3ba36e476226a62f8b444e5cefaa60001b6123b5565b8160000160170160008773ffffffffffffffffffffffffffffffffffffffff1673ffffffffffffffffffffffffffffffffffffffff168152602001908152602001600020600301601e9054906101000a900461ffff1661ffff16816060018181525050611af67fc37e650ef4052cec69bc5ebd419366f815dea9ec7031124f5c26d215cf6b677b60001b6123b5565b611b227f25dd63f5c73e0051d88a98f32140dbbdea08cb8ffffd17e80521dad39d02b09160001b6123b5565b611b3a81600001518260400151836060015189612496565b816080018181525050611b6f7f7c3a5176f3bfeadca3d1ba6d843ace1194f7c46d967a37c2b584153f2d0069ca60001b6123b5565b611b9b7f6e2ad40c4c0f259ffa5fb81eefd808fcfbf4c3deea1763492d13627a17d6d1f460001b6123b5565b61271081606001518260000151611bb29190612f88565b611bbc9190613011565b8160800151611bcb9190612f88565b8160a0018181525050611c007f65b307ca3a4cbbab5f8db1b06e783a366086d9210056bcd4c8a6af15095e034760001b6123b5565b611c2c7f421b3bc37490c7bc6185dbc1b927905402f72c4ac4ceb0187af4888e6c5d682260001b6123b5565b80600001518160a00151611c409190613011565b8160400151611c4f9190613154565b816040018181525050611c847fedd84392613f080bef4e31d4110b33ce88d18fa06d6028ff0ed12e6719ad850e60001b6123b5565b611cb07f523cd101a2c80a1c26a352a92d6539c6b3bc4022df43c94e22bafd12e78d305260001b6123b5565b60008160a0015182600001518360400151611ccb9190612f88565b611cd59190613042565b8360000160170160008973ffffffffffffffffffffffffffffffffffffffff1673ffffffffffffffffffffffffffffffffffffffff1681526020019081526020016000206002015410159050611d4d7f2ff4395ed2778011ee30d62f25881716fefee1dc0f96d1eadc982f46ea402b3160001b6123b5565b611d797fe8916f4fc23e671459576087d8f50fb59d1dd327443a35938c4c5aa08af4363c60001b6123b5565b816040015181945094505050509250929050565b6000611dbb7f6a1bc7e868c094ec40aa44b14d0c256214f9953d033fabd3ddfe1bcffcfb433360001b6123b5565b611de77facfdee3ea6c852b1a1aca9566b81260768f2be15c062cbe56de0a700c78b4a7b60001b6123b5565b611e137fab6654de1584c5b531e6012ad806c67a610504e03274f288c66e03303fd3b57860001b6123b5565b6000611e1d6123b8565b9050611e4b7fb812adc7093ba0ee0fa52ed26ce12ebc311b6b68d588312ab20e9d77c70e178a60001b6123b5565b611e777fed73b23c6c942384103847472782d98a358a6ef155924afd0a8390ee1926caa660001b6123b5565b60008160000160170160008573ffffffffffffffffffffffffffffffffffffffff1673ffffffffffffffffffffffffffffffffffffffff1681526020019081526020016000206001015414611f13578060000160170160008473ffffffffffffffffffffffffffffffffffffffff1673ffffffffffffffffffffffffffffffffffffffff16815260200190815260200160002060010154611f59565b80600001601b0160008473ffffffffffffffffffffffffffffffffffffffff1673ffffffffffffffffffffffffffffffffffffffff168152602001908152602001600020545b915050919050565b600080611f907f246206f070efc44f7bc3c468dad7271432a958e093a061d882691701540414fc60001b6123b5565b611fbc7fc5f5ff8feef444f8dd4fb802025a0c8335a36bb218c722f16085ccf1e143511a60001b6123b5565b611fe77e2f991044ccf0971644a91340a8fd89e846115ea33d25e8966af15c077f8ea260001b6123b5565b6000611ff16123b8565b905061201f7fa54717d9c9bfa8a6aacb13230a561bdf58ba5ab18f8eb74088e9534ee2e2cc5f60001b6123b5565b61204b7f54558c3a5be6041f3edb7b2e79f0c074817bbfdf4e541bc0935af0934aae91e260001b6123b5565b80600001601c0160008573ffffffffffffffffffffffffffffffffffffffff1673ffffffffffffffffffffffffffffffffffffffff1681526020019081526020016000205481600001601d0160008673ffffffffffffffffffffffffffffffffffffffff1673ffffffffffffffffffffffffffffffffffffffff168152602001908152602001600020549250925050915091565b600061210d7f4e78e06c95286a560ab2d6274f196e6faec00303f290ddb23174ef4a1c91eeec60001b6123b5565b6121397f0eee322aae93cecf853ce301edb804062c478131260f0476d7d91a3ab309822e60001b6123b5565b6121657fecbc64e31504b30025334d9fcf915c09accddab40dcc727ed45b07db38f546b860001b6123b5565b600061216f6123b8565b905061219d7fd56c6e950de83e35bd8259b408b638b315bfaa7d42301ac8b5d036df657ad34160001b6123b5565b6121c97f0ac8e63df6dce184babaa1cfd7ecf6346cbea7448f9784ec65716899cf9b839b60001b6123b5565b6121d283612907565b612238576122027f6ef3b094c516b25ee1014824514ebc325165e45fbfac81572d666f89b183a19060001b6123b5565b61222e7f3b6794b990d2d89c82d02cc187eed41860f28ae7c8fd8b499017d6553b2a326460001b6123b5565b60009150506123b0565b6122647fee9f944050d5e36c09f5d2237a19362e302d29b47bd7327ae22fa77af5ab17de60001b6123b5565b6122907f870ef58983cd2bcc3a41763f43be8c1b81643e4fe1510f7e13f164389e0fba9760001b6123b5565b6122bc7f1a8c8e817a9cdb76037433aa350575c982789a84741c0869ee9a1240c48b5fcb60001b6123b5565b80600001601d0160008473ffffffffffffffffffffffffffffffffffffffff1673ffffffffffffffffffffffffffffffffffffffff1681526020019081526020016000205481600001601c0160008573ffffffffffffffffffffffffffffffffffffffff1673ffffffffffffffffffffffffffffffffffffffff16815260200190815260200160002054426123519190613042565b1015806123ac575080600001601e0160008473ffffffffffffffffffffffffffffffffffffffff1673ffffffffffffffffffffffffffffffffffffffff16815260200190815260200160002060009054906101000a900460ff165b9150505b919050565b50565b60006123e67fcbba79f9261db078091467664d5b84589857124d13216bd4514646c8c76d025a60001b612a41565b6124127f724646df3e0020e3b200b7c2cdf653dfe7c4d57f2e237999b185e7819550fa2f60001b612a41565b61243e7fc9b67fad89b63ae30277c8a003424347566f29554d769ff61cd52986b61de40360001b612a41565b60007f66bd28df09c9271bd5696185e1f2db071a0ed825a4f7df621c22ef195c811e9f905061248f7fd550276b708b0edc784cb9667d4f336122f90f3c3857eafd0852a0b28138047160001b612a41565b8091505090565b60006124c47fed3e11dae2800cd8120cd663a4535bf9489f36535be92150563906a6e9224cd060001b612a44565b6124f07fefdb23cdc2f95add57dec0f1ec0588e4ceb04ae5d02e9aae83dfb8eb78a5b37e60001b612a44565b61251c7f86632ed8392351940a76c81d14cc08574335b2a6bc7af082218e42bfa81ac8e360001b612a44565b60006125266123b8565b90506125547fcad8f03d488f4799f0d2bc7b3b3a364ab839864c5e0f0db5aa973b48adfabbc860001b612a44565b6125807ff9b4772f7c0c6e54ee35cf1fb1a337962f095ea1b76b7f9fa8099caec91cb3b360001b612a44565b60008160000160170160008573ffffffffffffffffffffffffffffffffffffffff1673ffffffffffffffffffffffffffffffffffffffff16815260200190815260200160002060030160009054906101000a90047dffffffffffffffffffffffffffffffffffffffffffffffffffffffffffff167dffffffffffffffffffffffffffffffffffffffffffffffffffffffffffff1690506126427ffc968bd51467c36ea0cf0267f1ecc625cd1b9bb45e5eef372a295f514814419160001b612a44565b61266e7fef4f2074f21280fc38647bff16e28c8d7d503ac00b253f37dd88f42b18553ea360001b612a44565b600061269c7fd88c8580f251e5fdbcdd5738edc24d09540fd1a0db96ef4aa7a7e8938ba5aedb60001b612a44565b6126c87fc5f3a90289c43d2877f9102a5b0f2ff0f59169b3434d2acdb97076b835a7ff4e60001b612a44565b60005b8781116128a0576126fe7fe3bd10e7288bf4f1de9b710b3bd4d8a0cbc100f32420077a9f531e23bbfc5b6860001b612a44565b61272a7f559ec19311e868d6f8241811b010174060c5d0425ca5ee0b570b8918a690655260001b612a44565b8281612710898c61273b9190612f88565b6127459190613011565b61274f9190612f88565b116127e0576127807f3ddb67a35106f688a8b23e6303e5e44584df3deec05f54e31292b3965f7ffbb660001b612a44565b6127ac7f85a5c2ac73fee7f6856d5376839802f83509b6910c9746666b969c2ea551215f60001b612a44565b6127d87fccaf89335bba61e81c1e69c7bd6f5d4d4c894c597fc890da0d5d10a7cb6eec1a60001b612a44565b80915061283d565b61280c7f83fe9e175054ef0fb73414ab95ac92dcf0cf674686f5a5cfeee3c42db1f6f89360001b612a44565b6128387f043ea9bdd21dae0ccb01e8cbb569beb9502a7d2fdb2dd328c3b70362d9e2386460001b612a44565b6128a0565b6128697fe52ccd20110ee0dd812eb7219f2442fae0798ea7a22deeeaae07e2e952be9d1860001b612a44565b6128957ff553cfd40620b851b8295d1ce97e1b6e5636476714f06773fbce738b5cf3df3e60001b612a44565b8060010190506126cb565b506128cd7fc2ecf6ae2fd1d45ef37d701f1b31d2cce9a3370cd6c61edd0333c8da66b8b34260001b612a44565b6128f97ff000e7bb6f4b8074fe83159c372e3a2a37812b4e6cb6532e2cfac3a8fdcbcaf060001b612a44565b809350505050949350505050565b60006129357fe2fc9d1ce17f8a60064c88bf20f794fd121f19ffc5fe5cf9a5f61eb6edf86af560001b612a44565b6129617f30ec27b7fbbee663881c98ff9910a5364a7b07a414dbb284708384c099e8600360001b612a44565b61298c7ed357082ce54142666bb106258b353f055ecc744eb9d464e6b8f7f0dde7f1c660001b612a44565b60006129966123b8565b90506129c47f11ec2ea310b0323e77bf3d9f7934abb614b9442f21ad9471eeee845c41be5f7f60001b612a44565b6129f07f0c36630b4c8bd2b8a7ba01a28d0c997e9e8196876f337e165e0a6e7f2ed89eff60001b612a44565b600081600001601c0160008573ffffffffffffffffffffffffffffffffffffffff1673ffffffffffffffffffffffffffffffffffffffff168152602001908152602001600020541415915050919050565b50565b50565b6040518060e00160405280600073ffffffffffffffffffffffffffffffffffffffff168152602001600081526020016000815260200160007dffffffffffffffffffffffffffffffffffffffffffffffffffffffffffff168152602001600061ffff168152602001600015158152602001606081525090565b6040518060c001604052806000815260200160008152602001600081526020016000815260200160008152602001600081525090565b600081519050919050565b600082825260208201905092915050565b6000819050602082019050919050565b600073ffffffffffffffffffffffffffffffffffffffff82169050919050565b6000612b4d82612b22565b9050919050565b612b5d81612b42565b82525050565b6000612b6f8383612b54565b60208301905092915050565b6000602082019050919050565b6000612b9382612af6565b612b9d8185612b01565b9350612ba883612b12565b8060005b83811015612bd9578151612bc08882612b63565b9750612bcb83612b7b565b925050600181019050612bac565b5085935050505092915050565b60006020820190508181036000830152612c008184612b88565b905092915050565b600080fd5b612c1681612b42565b8114612c2157600080fd5b50565b600081359050612c3381612c0d565b92915050565b6000819050919050565b612c4c81612c39565b8114612c5757600080fd5b50565b600081359050612c6981612c43565b92915050565b60008060408385031215612c8657612c85612c08565b5b6000612c9485828601612c24565b9250506020612ca585828601612c5a565b9150509250929050565b612cb881612c39565b82525050565b60008115159050919050565b612cd381612cbe565b82525050565b6000604082019050612cee6000830185612caf565b612cfb6020830184612cca565b9392505050565b600060208284031215612d1857612d17612c08565b5b6000612d2684828501612c24565b91505092915050565b612d3881612c39565b82525050565b60007dffffffffffffffffffffffffffffffffffffffffffffffffffffffffffff82169050919050565b612d7181612d3e565b82525050565b600061ffff82169050919050565b612d8e81612d77565b82525050565b612d9d81612cbe565b82525050565b600081519050919050565b600082825260208201905092915050565b60005b83811015612ddd578082015181840152602081019050612dc2565b83811115612dec576000848401525b50505050565b6000601f19601f8301169050919050565b6000612e0e82612da3565b612e188185612dae565b9350612e28818560208601612dbf565b612e3181612df2565b840191505092915050565b600060e083016000830151612e546000860182612b54565b506020830151612e676020860182612d2f565b506040830151612e7a6040860182612d2f565b506060830151612e8d6060860182612d68565b506080830151612ea06080860182612d85565b5060a0830151612eb360a0860182612d94565b5060c083015184820360c0860152612ecb8282612e03565b9150508091505092915050565b60006020820190508181036000830152612ef28184612e3c565b905092915050565b6000602082019050612f0f6000830184612cca565b92915050565b6000602082019050612f2a6000830184612caf565b92915050565b6000604082019050612f456000830185612caf565b612f526020830184612caf565b9392505050565b7f4e487b7100000000000000000000000000000000000000000000000000000000600052601160045260246000fd5b6000612f9382612c39565b9150612f9e83612c39565b9250817fffffffffffffffffffffffffffffffffffffffffffffffffffffffffffffffff0483118215151615612fd757612fd6612f59565b5b828202905092915050565b7f4e487b7100000000000000000000000000000000000000000000000000000000600052601260045260246000fd5b600061301c82612c39565b915061302783612c39565b92508261303757613036612fe2565b5b828204905092915050565b600061304d82612c39565b915061305883612c39565b92508282101561306b5761306a612f59565b5b828203905092915050565b7f4e487b7100000000000000000000000000000000000000000000000000000000600052602260045260246000fd5b600060028204905060018216806130bd57607f821691505b602082108114156130d1576130d0613076565b5b50919050565b600082825260208201905092915050565b7f4e4f5f414d4f554e540000000000000000000000000000000000000000000000600082015250565b600061311e6009836130d7565b9150613129826130e8565b602082019050919050565b6000602082019050818103600083015261314d81613111565b9050919050565b600061315f82612c39565b915061316a83612c39565b9250827fffffffffffffffffffffffffffffffffffffffffffffffffffffffffffffffff0382111561319f5761319e612f59565b5b82820190509291505056fea264697066735822122098383ca62d0698f1a1c1e1889c09c4e763817b3473a05c66e6c088baca04118864736f6c63430008080033",
  "linkReferences": {},
  "deployedLinkReferences": {}
}