{
  "_format": "hh-sol-artifact-1",
  "contractName": "ERC1155Facet",
  "sourceName": "contracts/validator/facets/ERC1155Facet.sol",
  "abi": [
    {
      "anonymous": false,
      "inputs": [
        {
          "indexed": true,
          "internalType": "address",
          "name": "account",
          "type": "address"
        },
        {
          "indexed": true,
          "internalType": "address",
          "name": "operator",
          "type": "address"
        },
        {
          "indexed": false,
          "internalType": "bool",
          "name": "approved",
          "type": "bool"
        }
      ],
      "name": "ApprovalForAll",
      "type": "event"
    },
    {
      "anonymous": false,
      "inputs": [
        {
          "indexed": true,
          "internalType": "address",
          "name": "operator",
          "type": "address"
        },
        {
          "indexed": true,
          "internalType": "address",
          "name": "from",
          "type": "address"
        },
        {
          "indexed": true,
          "internalType": "address",
          "name": "to",
          "type": "address"
        },
        {
          "indexed": false,
          "internalType": "uint256[]",
          "name": "ids",
          "type": "uint256[]"
        },
        {
          "indexed": false,
          "internalType": "uint256[]",
          "name": "values",
          "type": "uint256[]"
        }
      ],
      "name": "TransferBatch",
      "type": "event"
    },
    {
      "anonymous": false,
      "inputs": [
        {
          "indexed": true,
          "internalType": "address",
          "name": "operator",
          "type": "address"
        },
        {
          "indexed": true,
          "internalType": "address",
          "name": "from",
          "type": "address"
        },
        {
          "indexed": true,
          "internalType": "address",
          "name": "to",
          "type": "address"
        },
        {
          "indexed": false,
          "internalType": "uint256",
          "name": "id",
          "type": "uint256"
        },
        {
          "indexed": false,
          "internalType": "uint256",
          "name": "value",
          "type": "uint256"
        }
      ],
      "name": "TransferSingle",
      "type": "event"
    },
    {
      "anonymous": false,
      "inputs": [
        {
          "indexed": false,
          "internalType": "string",
          "name": "value",
          "type": "string"
        },
        {
          "indexed": true,
          "internalType": "uint256",
          "name": "id",
          "type": "uint256"
        }
      ],
      "name": "URI",
      "type": "event"
    },
    {
      "inputs": [
        {
          "internalType": "address",
          "name": "account",
          "type": "address"
        },
        {
          "internalType": "uint256",
          "name": "id",
          "type": "uint256"
        }
      ],
      "name": "balanceOf",
      "outputs": [
        {
          "internalType": "uint256",
          "name": "",
          "type": "uint256"
        }
      ],
      "stateMutability": "view",
      "type": "function"
    },
    {
      "inputs": [
        {
          "internalType": "address[]",
          "name": "accounts",
          "type": "address[]"
        },
        {
          "internalType": "uint256[]",
          "name": "ids",
          "type": "uint256[]"
        }
      ],
      "name": "balanceOfBatch",
      "outputs": [
        {
          "internalType": "uint256[]",
          "name": "",
          "type": "uint256[]"
        }
      ],
      "stateMutability": "view",
      "type": "function"
    },
    {
      "inputs": [
        {
          "internalType": "uint256",
          "name": "id",
          "type": "uint256"
        }
      ],
      "name": "currentSupply",
      "outputs": [
        {
          "internalType": "uint256",
          "name": "",
          "type": "uint256"
        }
      ],
      "stateMutability": "view",
      "type": "function"
    },
    {
      "inputs": [
        {
          "internalType": "uint256",
          "name": "id",
          "type": "uint256"
        }
      ],
      "name": "exists",
      "outputs": [
        {
          "internalType": "bool",
          "name": "",
          "type": "bool"
        }
      ],
      "stateMutability": "view",
      "type": "function"
    },
    {
      "inputs": [
        {
          "internalType": "uint256",
          "name": "id",
          "type": "uint256"
        }
      ],
      "name": "existsInCirculation",
      "outputs": [
        {
          "internalType": "bool",
          "name": "",
          "type": "bool"
        }
      ],
      "stateMutability": "view",
      "type": "function"
    },
    {
      "inputs": [
        {
          "internalType": "address",
          "name": "account",
          "type": "address"
        },
        {
          "internalType": "address",
          "name": "operator",
          "type": "address"
        }
      ],
      "name": "isApprovedForAll",
      "outputs": [
        {
          "internalType": "bool",
          "name": "",
          "type": "bool"
        }
      ],
      "stateMutability": "view",
      "type": "function"
    },
    {
      "inputs": [
        {
          "internalType": "uint256",
          "name": "id",
          "type": "uint256"
        }
      ],
      "name": "maxSupply",
      "outputs": [
        {
          "internalType": "uint256",
          "name": "",
          "type": "uint256"
        }
      ],
      "stateMutability": "view",
      "type": "function"
    },
    {
      "inputs": [],
      "name": "name",
      "outputs": [
        {
          "internalType": "string",
          "name": "",
          "type": "string"
        }
      ],
      "stateMutability": "view",
      "type": "function"
    },
    {
      "inputs": [
        {
          "internalType": "uint256",
          "name": "_tokenId",
          "type": "uint256"
        },
        {
          "internalType": "uint256",
          "name": "_salePrice",
          "type": "uint256"
        }
      ],
      "name": "royaltyInfo",
      "outputs": [
        {
          "internalType": "address",
          "name": "",
          "type": "address"
        },
        {
          "internalType": "uint256",
          "name": "",
          "type": "uint256"
        }
      ],
      "stateMutability": "view",
      "type": "function"
    },
    {
      "inputs": [
        {
          "internalType": "address",
          "name": "from",
          "type": "address"
        },
        {
          "internalType": "address",
          "name": "to",
          "type": "address"
        },
        {
          "internalType": "uint256[]",
          "name": "ids",
          "type": "uint256[]"
        },
        {
          "internalType": "uint256[]",
          "name": "amounts",
          "type": "uint256[]"
        },
        {
          "internalType": "bytes",
          "name": "data",
          "type": "bytes"
        }
      ],
      "name": "safeBatchTransferFrom",
      "outputs": [],
      "stateMutability": "nonpayable",
      "type": "function"
    },
    {
      "inputs": [
        {
          "internalType": "address",
          "name": "from",
          "type": "address"
        },
        {
          "internalType": "address",
          "name": "to",
          "type": "address"
        },
        {
          "internalType": "uint256",
          "name": "id",
          "type": "uint256"
        },
        {
          "internalType": "uint256",
          "name": "amount",
          "type": "uint256"
        },
        {
          "internalType": "bytes",
          "name": "data",
          "type": "bytes"
        }
      ],
      "name": "safeTransferFrom",
      "outputs": [],
      "stateMutability": "nonpayable",
      "type": "function"
    },
    {
      "inputs": [
        {
          "internalType": "address",
          "name": "operator",
          "type": "address"
        },
        {
          "internalType": "bool",
          "name": "approved",
          "type": "bool"
        }
      ],
      "name": "setApprovalForAll",
      "outputs": [],
      "stateMutability": "nonpayable",
      "type": "function"
    },
    {
      "inputs": [],
      "name": "symbol",
      "outputs": [
        {
          "internalType": "string",
          "name": "",
          "type": "string"
        }
      ],
      "stateMutability": "view",
      "type": "function"
    },
    {
      "inputs": [
        {
          "internalType": "uint256",
          "name": "tokenId",
          "type": "uint256"
        }
      ],
      "name": "uri",
      "outputs": [
        {
          "internalType": "string",
          "name": "",
          "type": "string"
        }
      ],
      "stateMutability": "view",
      "type": "function"
    }
  ],
  "bytecode": "0x608060405234801561001057600080fd5b50612a79806100206000396000f3fe608060405234801561001057600080fd5b50600436106100e95760003560e01c80635b7460771161008c578063a22cb46511610066578063a22cb46514610287578063b57f08721461029a578063e985e9c5146102db578063f242432a146102ee57600080fd5b80635b74607714610201578063869f75941461024057806395d89b411461027f57600080fd5b80632a55205a116100c85780632a55205a1461013c5780632eb2c2d61461017b5780634e1273f4146101905780634f558e79146101b057600080fd5b8062fdd58e146100ee57806306fdde03146101145780630e89341c14610129575b600080fd5b6101016100fc3660046120d9565b610301565b6040519081526020015b60405180910390f35b61011c610316565b60405161010b919061217d565b61011c610137366004612190565b6103eb565b61014f61014a3660046121a9565b6103f6565b6040805173ffffffffffffffffffffffffffffffffffffffff909316835260208301919091520161010b565b61018e61018936600461236c565b61054d565b005b6101a361019e366004612416565b61061b565b60405161010b919061251c565b6101f16101be366004612190565b60009081527f66bd28df09c9271bd5696185e1f2db071a0ed825a4f7df621c22ef195c811ead6020526040902054151590565b604051901515815260200161010b565b61010161020f366004612190565b60009081527f66bd28df09c9271bd5696185e1f2db071a0ed825a4f7df621c22ef195c811eae602052604090205490565b61010161024e366004612190565b60009081527f66bd28df09c9271bd5696185e1f2db071a0ed825a4f7df621c22ef195c811ead602052604090205490565b61011c61076b565b61018e61029536600461252f565b6107bc565b6101f16102a8366004612190565b60009081527f66bd28df09c9271bd5696185e1f2db071a0ed825a4f7df621c22ef195c811eae6020526040902054151590565b6101f16102e936600461256b565b6107cb565b61018e6102fc36600461259e565b610827565b600061030d83836108e9565b90505b92915050565b7f66bd28df09c9271bd5696185e1f2db071a0ed825a4f7df621c22ef195c811ea280546060917f66bd28df09c9271bd5696185e1f2db071a0ed825a4f7df621c22ef195c811e9f9161036790612603565b80601f016020809104026020016040519081016040528092919081815260200182805461039390612603565b80156103e05780601f106103b5576101008083540402835291602001916103e0565b820191906000526020600020905b8154815290600101906020018083116103c357829003601f168201915b505050505091505090565b6060610310826109e5565b60008281527f66bd28df09c9271bd5696185e1f2db071a0ed825a4f7df621c22ef195c811ea76020908152604080832081518083019092525473ffffffffffffffffffffffffffffffffffffffff8116808352740100000000000000000000000000000000000000009091046bffffffffffffffffffffffff169282019290925282917f66bd28df09c9271bd5696185e1f2db071a0ed825a4f7df621c22ef195c811e9f91906104f5575060408051808201909152600782015473ffffffffffffffffffffffffffffffffffffffff811682527401000000000000000000000000000000000000000090046bffffffffffffffffffffffff1660208201525b80517f66bd28df09c9271bd5696185e1f2db071a0ed825a4f7df621c22ef195c811ec3546020830151610536906bffffffffffffffffffffffff1688612686565b61054091906126c3565b9350935050509250929050565b73ffffffffffffffffffffffffffffffffffffffff8516331480610576575061057685336107cb565b610607576040517f08c379a000000000000000000000000000000000000000000000000000000000815260206004820152602e60248201527f455243313135353a2063616c6c6572206973206e6f7420746f6b656e206f776e60448201527f6572206f7220617070726f76656400000000000000000000000000000000000060648201526084015b60405180910390fd5b6106148585858585610b09565b5050505050565b606081518351146106ae576040517f08c379a000000000000000000000000000000000000000000000000000000000815260206004820152602960248201527f455243313135353a206163636f756e747320616e6420696473206c656e67746860448201527f206d69736d61746368000000000000000000000000000000000000000000000060648201526084016105fe565b6000835167ffffffffffffffff8111156106ca576106ca6121cb565b6040519080825280602002602001820160405280156106f3578160200160208202803683370190505b50905060005b84518110156107635761073e858281518110610717576107176126fe565b6020026020010151858381518110610731576107316126fe565b6020026020010151610301565b828281518110610750576107506126fe565b60209081029190910101526001016106f9565b509392505050565b7f66bd28df09c9271bd5696185e1f2db071a0ed825a4f7df621c22ef195c811ea380546060917f66bd28df09c9271bd5696185e1f2db071a0ed825a4f7df621c22ef195c811e9f9161036790612603565b6107c7338383610eed565b5050565b73ffffffffffffffffffffffffffffffffffffffff80831660009081527f66bd28df09c9271bd5696185e1f2db071a0ed825a4f7df621c22ef195c811ea16020908152604080832093851683529290529081205460ff1661030d565b73ffffffffffffffffffffffffffffffffffffffff8516331480610850575061085085336107cb565b6108dc576040517f08c379a000000000000000000000000000000000000000000000000000000000815260206004820152602e60248201527f455243313135353a2063616c6c6572206973206e6f7420746f6b656e206f776e60448201527f6572206f7220617070726f76656400000000000000000000000000000000000060648201526084016105fe565b6106148585858585611052565b60007f66bd28df09c9271bd5696185e1f2db071a0ed825a4f7df621c22ef195c811e9f73ffffffffffffffffffffffffffffffffffffffff84166109af576040517f08c379a000000000000000000000000000000000000000000000000000000000815260206004820152602a60248201527f455243313135353a2061646472657373207a65726f206973206e6f742061207660448201527f616c6964206f776e65720000000000000000000000000000000000000000000060648201526084016105fe565b60009283526001016020908152604080842073ffffffffffffffffffffffffffffffffffffffff95909516845293905250205490565b60008181527f66bd28df09c9271bd5696185e1f2db071a0ed825a4f7df621c22ef195c811ea56020526040812080546060927f66bd28df09c9271bd5696185e1f2db071a0ed825a4f7df621c22ef195c811e9f929091610a4490612603565b80601f0160208091040260200160405190810160405280929190818152602001828054610a7090612603565b8015610abd5780601f10610a9257610100808354040283529160200191610abd565b820191906000526020600020905b815481529060010190602001808311610aa057829003601f168201915b505050505090506000815111610adb57610ad6846109e5565b610b01565b604051610af19060058401908390602001612749565b6040516020818303038152906040525b949350505050565b815183517f66bd28df09c9271bd5696185e1f2db071a0ed825a4f7df621c22ef195c811e9f9114610bbc576040517f08c379a000000000000000000000000000000000000000000000000000000000815260206004820152602860248201527f455243313135353a2069647320616e6420616d6f756e7473206c656e6774682060448201527f6d69736d6174636800000000000000000000000000000000000000000000000060648201526084016105fe565b73ffffffffffffffffffffffffffffffffffffffff8516610c5f576040517f08c379a000000000000000000000000000000000000000000000000000000000815260206004820152602560248201527f455243313135353a207472616e7366657220746f20746865207a65726f20616460448201527f647265737300000000000000000000000000000000000000000000000000000060648201526084016105fe565b33610c6e8188888888886112ae565b60005b8551811015610e49576000868281518110610c8e57610c8e6126fe565b602002602001015190506000868381518110610cac57610cac6126fe565b6020908102919091018101516000848152600188018352604080822073ffffffffffffffffffffffffffffffffffffffff8f168352909352919091205490915081811015610d7c576040517f08c379a000000000000000000000000000000000000000000000000000000000815260206004820152602a60248201527f455243313135353a20696e73756666696369656e742062616c616e636520666f60448201527f72207472616e736665720000000000000000000000000000000000000000000060648201526084016105fe565b81810386600001600101600085815260200190815260200160002060008d73ffffffffffffffffffffffffffffffffffffffff1673ffffffffffffffffffffffffffffffffffffffff168152602001908152602001600020819055508186600001600101600085815260200190815260200160002060008c73ffffffffffffffffffffffffffffffffffffffff1673ffffffffffffffffffffffffffffffffffffffff16815260200190815260200160002060008282540192505081905550836001019350505050610c71565b508573ffffffffffffffffffffffffffffffffffffffff168773ffffffffffffffffffffffffffffffffffffffff168273ffffffffffffffffffffffffffffffffffffffff167f4a39dc06d4c0dbc64b70af90fd698a233a518aa5d07e595d983b8c0526c8f7fb8888604051610ec0929190612827565b60405180910390a4610ed6818888888888611508565b610ee48188888888886115b9565b50505050505050565b7f66bd28df09c9271bd5696185e1f2db071a0ed825a4f7df621c22ef195c811e9f73ffffffffffffffffffffffffffffffffffffffff8481169084161415610fb7576040517f08c379a000000000000000000000000000000000000000000000000000000000815260206004820152602960248201527f455243313135353a2073657474696e6720617070726f76616c2073746174757360448201527f20666f722073656c66000000000000000000000000000000000000000000000060648201526084016105fe565b73ffffffffffffffffffffffffffffffffffffffff848116600081815260028401602090815260408083209488168084529482529182902080547fffffffffffffffffffffffffffffffffffffffffffffffffffffffffffffff001687151590811790915591519182527f17307eab39ab6107e8899845ad3d59bd9653f200f220920489ca2b5937696c31910160405180910390a350505050565b7f66bd28df09c9271bd5696185e1f2db071a0ed825a4f7df621c22ef195c811e9f73ffffffffffffffffffffffffffffffffffffffff8516611116576040517f08c379a000000000000000000000000000000000000000000000000000000000815260206004820152602560248201527f455243313135353a207472616e7366657220746f20746865207a65726f20616460448201527f647265737300000000000000000000000000000000000000000000000000000060648201526084016105fe565b3360006111228661185b565b9050600061112f8661185b565b905061113f838a8a85858a6112ae565b6000878152600185016020908152604080832073ffffffffffffffffffffffffffffffffffffffff8d16845290915290205486811015611201576040517f08c379a000000000000000000000000000000000000000000000000000000000815260206004820152602a60248201527f455243313135353a20696e73756666696369656e742062616c616e636520666f60448201527f72207472616e736665720000000000000000000000000000000000000000000060648201526084016105fe565b6000888152600186016020908152604080832073ffffffffffffffffffffffffffffffffffffffff8e81168086529184528285208c870390558d81168086529483902080548d01905582518d81529384018c90529092908816917fc3d58168c5ae7397731d063d5bbf3d657854427343f4c083240f7aacaa2d0f62910160405180910390a4611294848b8b86868b611508565b6112a2848b8b8b8b8b6118a6565b50505050505050505050565b7f66bd28df09c9271bd5696185e1f2db071a0ed825a4f7df621c22ef195c811e9f6000805b85518110156114fd578173ffffffffffffffffffffffffffffffffffffffff168873ffffffffffffffffffffffffffffffffffffffff161415801561134457508173ffffffffffffffffffffffffffffffffffffffff168773ffffffffffffffffffffffffffffffffffffffff1614155b156114f55761136c8887838151811061135f5761135f6126fe565b6020026020010151611a62565b15801561138c575061138a8787838151811061135f5761135f6126fe565b155b1561149357806113a85761139f88611aee565b6113a887611aee565b4283600001603b0160008884815181106113c4576113c46126fe565b6020026020010151815260200190815260200160002060008a73ffffffffffffffffffffffffffffffffffffffff1673ffffffffffffffffffffffffffffffffffffffff168152602001908152602001600020819055504283600001603b016000888481518110611437576114376126fe565b6020026020010151815260200190815260200160002060008973ffffffffffffffffffffffffffffffffffffffff1673ffffffffffffffffffffffffffffffffffffffff168152602001908152602001600020819055506114f5565b6040517f08c379a000000000000000000000000000000000000000000000000000000000815260206004820152601460248201527f556e64657220636f6f6c696e6720706572696f6400000000000000000000000060448201526064016105fe565b6001016112d3565b505050505050505050565b6000805b84518110156115af578173ffffffffffffffffffffffffffffffffffffffff168773ffffffffffffffffffffffffffffffffffffffff161415801561157d57508173ffffffffffffffffffffffffffffffffffffffff168673ffffffffffffffffffffffffffffffffffffffff1614155b156115a7576115a587868381518110611598576115986126fe565b6020026020010151611cdc565b505b60010161150c565b5050505050505050565b73ffffffffffffffffffffffffffffffffffffffff84163b15611853576040517fbc197c8100000000000000000000000000000000000000000000000000000000815273ffffffffffffffffffffffffffffffffffffffff85169063bc197c8190611630908990899088908890889060040161284c565b602060405180830381600087803b15801561164a57600080fd5b505af1925050508015611698575060408051601f3d9081017fffffffffffffffffffffffffffffffffffffffffffffffffffffffffffffffe0168201909252611695918101906128b7565b60015b611782576116a4612900565b806308c379a014156116f857506116b961291c565b806116c457506116fa565b806040517f08c379a00000000000000000000000000000000000000000000000000000000081526004016105fe919061217d565b505b6040517f08c379a000000000000000000000000000000000000000000000000000000000815260206004820152603460248201527f455243313135353a207472616e7366657220746f206e6f6e2d4552433131353560448201527f526563656976657220696d706c656d656e74657200000000000000000000000060648201526084016105fe565b7fffffffff0000000000000000000000000000000000000000000000000000000081167fbc197c810000000000000000000000000000000000000000000000000000000014610ee4576040517f08c379a000000000000000000000000000000000000000000000000000000000815260206004820152602860248201527f455243313135353a204552433131353552656365697665722072656a6563746560448201527f6420746f6b656e7300000000000000000000000000000000000000000000000060648201526084016105fe565b505050505050565b60408051600180825281830190925260609160009190602080830190803683370190505090508281600081518110611895576118956126fe565b602090810291909101015292915050565b73ffffffffffffffffffffffffffffffffffffffff84163b15611853576040517ff23a6e6100000000000000000000000000000000000000000000000000000000815273ffffffffffffffffffffffffffffffffffffffff85169063f23a6e619061191d90899089908890889088906004016129c4565b602060405180830381600087803b15801561193757600080fd5b505af1925050508015611985575060408051601f3d9081017fffffffffffffffffffffffffffffffffffffffffffffffffffffffffffffffe0168201909252611982918101906128b7565b60015b611991576116a4612900565b7fffffffff0000000000000000000000000000000000000000000000000000000081167ff23a6e610000000000000000000000000000000000000000000000000000000014610ee4576040517f08c379a000000000000000000000000000000000000000000000000000000000815260206004820152602860248201527f455243313135353a204552433131353552656365697665722072656a6563746560448201527f6420746f6b656e7300000000000000000000000000000000000000000000000060648201526084016105fe565b60008181527f66bd28df09c9271bd5696185e1f2db071a0ed825a4f7df621c22ef195c811eda6020908152604080832073ffffffffffffffffffffffffffffffffffffffff861684529091528120547f66bd28df09c9271bd5696185e1f2db071a0ed825a4f7df621c22ef195c811e9f90421015611ae4576001915050610310565b6000915050610310565b7f66bd28df09c9271bd5696185e1f2db071a0ed825a4f7df621c22ef195c811e9f60005b6005811015611b3757611b258382611a62565b15611b2f57505050565b600101611b12565b506000611b42611d94565b90506000611b4f84611ee6565b905060005b600581101561061457611b65612024565b6000828152602e86016020526040902055828160058110611b8857611b886126fe565b6020908102919091015160008381526030870190925260409091205573ffffffffffffffffffffffffffffffffffffffff851615611cd4576000818152603285016020908152604080832073ffffffffffffffffffffffffffffffffffffffff89168452909152902054828260058110611c0457611c046126fe565b6020020151611c139190612a14565b6000828152602a8601602052604081208054909190611c33908490612a14565b909155508290508160058110611c4b57611c4b6126fe565b602090810291909101516000838152603287018352604080822073ffffffffffffffffffffffffffffffffffffffff8a1683529093529190912055828160058110611c9857611c986126fe565b602090810291909101516000838152603187018352604080822073ffffffffffffffffffffffffffffffffffffffff8a16835290935291909120555b600101611b54565b60007f66bd28df09c9271bd5696185e1f2db071a0ed825a4f7df621c22ef195c811e9f81611d0a85856108e9565b611d12575060015b8015611d89576000848152603b83016020908152604080832073ffffffffffffffffffffffffffffffffffffffff8916808552908352818420849055878452603c86018352818420908452909152902080547fffffffffffffffffffffffffffffffffffffffffffffffffffffffffffffff001690555b506001949350505050565b611d9c612092565b7f66bd28df09c9271bd5696185e1f2db071a0ed825a4f7df621c22ef195c811e9f60005b6005811015611ee1576000818152601083016020908152604080832054600f860190925290912054611df29190612a14565b611e23576000818152603083016020526040902054838260058110611e1957611e196126fe565b6020020152611ed9565b6000818152601083016020908152604080832054600f860190925290912054611e4c9190612a14565b6000828152602e84016020526040902054611e65612024565b611e6f9190612a14565b6000838152602f85016020526040902054611e8a9190612686565b611e9c90670de0b6b3a7640000612686565b611ea691906126c3565b6000828152603084016020526040902054611ec19190612a2b565b838260058110611ed357611ed36126fe565b60200201525b600101611dc0565b505090565b611eee612092565b7f66bd28df09c9271bd5696185e1f2db071a0ed825a4f7df621c22ef195c811e9f6000611f19611d94565b905060005b600581101561201c5773ffffffffffffffffffffffffffffffffffffffff8516611f60576000848260058110611f5657611f566126fe565b6020020152612014565b6000818152603284016020908152604080832073ffffffffffffffffffffffffffffffffffffffff891680855290835281842054858552603188018452828520918552925290912054670de0b6b3a764000090848460058110611fc557611fc56126fe565b6020020151611fd49190612a14565b611fde88856108e9565b611fe89190612686565b611ff291906126c3565b611ffc9190612a2b565b84826005811061200e5761200e6126fe565b60200201525b600101611f1e565b505050919050565b7f66bd28df09c9271bd5696185e1f2db071a0ed825a4f7df621c22ef195c811ecc546000907f66bd28df09c9271bd5696185e1f2db071a0ed825a4f7df621c22ef195c811e9f90612075904261207b565b91505090565b60008183111561208b578161030d565b5090919050565b6040518060a001604052806005906020820280368337509192915050565b803573ffffffffffffffffffffffffffffffffffffffff811681146120d457600080fd5b919050565b600080604083850312156120ec57600080fd5b6120f5836120b0565b946020939093013593505050565b60005b8381101561211e578181015183820152602001612106565b8381111561212d576000848401525b50505050565b6000815180845261214b816020860160208601612103565b601f017fffffffffffffffffffffffffffffffffffffffffffffffffffffffffffffffe0169290920160200192915050565b60208152600061030d6020830184612133565b6000602082840312156121a257600080fd5b5035919050565b600080604083850312156121bc57600080fd5b50508035926020909101359150565b7f4e487b7100000000000000000000000000000000000000000000000000000000600052604160045260246000fd5b7fffffffffffffffffffffffffffffffffffffffffffffffffffffffffffffffe0601f830116810181811067ffffffffffffffff8211171561223e5761223e6121cb565b6040525050565b600067ffffffffffffffff82111561225f5761225f6121cb565b5060051b60200190565b600082601f83011261227a57600080fd5b8135602061228782612245565b60405161229482826121fa565b83815260059390931b85018201928281019150868411156122b457600080fd5b8286015b848110156122cf57803583529183019183016122b8565b509695505050505050565b600082601f8301126122eb57600080fd5b813567ffffffffffffffff811115612305576123056121cb565b60405161233a60207fffffffffffffffffffffffffffffffffffffffffffffffffffffffffffffffe0601f85011601826121fa565b81815284602083860101111561234f57600080fd5b816020850160208301376000918101602001919091529392505050565b600080600080600060a0868803121561238457600080fd5b61238d866120b0565b945061239b602087016120b0565b9350604086013567ffffffffffffffff808211156123b857600080fd5b6123c489838a01612269565b945060608801359150808211156123da57600080fd5b6123e689838a01612269565b935060808801359150808211156123fc57600080fd5b50612409888289016122da565b9150509295509295909350565b6000806040838503121561242957600080fd5b823567ffffffffffffffff8082111561244157600080fd5b818501915085601f83011261245557600080fd5b8135602061246282612245565b60405161246f82826121fa565b83815260059390931b850182019282810191508984111561248f57600080fd5b948201945b838610156124b4576124a5866120b0565b82529482019490820190612494565b965050860135925050808211156124ca57600080fd5b506124d785828601612269565b9150509250929050565b600081518084526020808501945080840160005b83811015612511578151875295820195908201906001016124f5565b509495945050505050565b60208152600061030d60208301846124e1565b6000806040838503121561254257600080fd5b61254b836120b0565b91506020830135801515811461256057600080fd5b809150509250929050565b6000806040838503121561257e57600080fd5b612587836120b0565b9150612595602084016120b0565b90509250929050565b600080600080600060a086880312156125b657600080fd5b6125bf866120b0565b94506125cd602087016120b0565b93506040860135925060608601359150608086013567ffffffffffffffff8111156125f757600080fd5b612409888289016122da565b600181811c9082168061261757607f821691505b60208210811415612651577f4e487b7100000000000000000000000000000000000000000000000000000000600052602260045260246000fd5b50919050565b7f4e487b7100000000000000000000000000000000000000000000000000000000600052601160045260246000fd5b6000817fffffffffffffffffffffffffffffffffffffffffffffffffffffffffffffffff04831182151516156126be576126be612657565b500290565b6000826126f9577f4e487b7100000000000000000000000000000000000000000000000000000000600052601260045260246000fd5b500490565b7f4e487b7100000000000000000000000000000000000000000000000000000000600052603260045260246000fd5b6000815161273f818560208601612103565b9290920192915050565b600080845481600182811c91508083168061276557607f831692505b602080841082141561279e577f4e487b710000000000000000000000000000000000000000000000000000000086526022600452602486fd5b8180156127b257600181146127e15761280e565b7fffffffffffffffffffffffffffffffffffffffffffffffffffffffffffffff0086168952848901965061280e565b60008b81526020902060005b868110156128065781548b8201529085019083016127ed565b505084890196505b50505050505061281e818561272d565b95945050505050565b60408152600061283a60408301856124e1565b828103602084015261281e81856124e1565b600073ffffffffffffffffffffffffffffffffffffffff808816835280871660208401525060a0604083015261288560a08301866124e1565b828103606084015261289781866124e1565b905082810360808401526128ab8185612133565b98975050505050505050565b6000602082840312156128c957600080fd5b81517fffffffff00000000000000000000000000000000000000000000000000000000811681146128f957600080fd5b9392505050565b600060033d11156129195760046000803e5060005160e01c5b90565b600060443d101561292a5790565b6040517ffffffffffffffffffffffffffffffffffffffffffffffffffffffffffffffffc803d016004833e81513d67ffffffffffffffff816024840111818411171561297857505050505090565b82850191508151818111156129905750505050505090565b843d87010160208285010111156129aa5750505050505090565b6129b9602082860101876121fa565b509095945050505050565b600073ffffffffffffffffffffffffffffffffffffffff808816835280871660208401525084604083015283606083015260a06080830152612a0960a0830184612133565b979650505050505050565b600082821015612a2657612a26612657565b500390565b60008219821115612a3e57612a3e612657565b50019056fea264697066735822122062505d9006a69a1ae84f488580a94d70e91e4e6b55f2100931e04c36f08ea35f64736f6c63430008080033",
  "linkReferences": {},
  "deployedLinkReferences": {}
}