{
  "_format": "hh-sol-artifact-1",
  "contractName": "ERC1155Facet",
  "sourceName": "contracts/validator/facets/ERC1155Facet.sol",
  "abi": [
    {
      "anonymous": false,
      "inputs": [
        {
          "indexed": true,
          "internalType": "address",
          "name": "account",
          "type": "address"
        },
        {
          "indexed": true,
          "internalType": "address",
          "name": "operator",
          "type": "address"
        },
        {
          "indexed": false,
          "internalType": "bool",
          "name": "approved",
          "type": "bool"
        }
      ],
      "name": "ApprovalForAll",
      "type": "event"
    },
    {
      "anonymous": false,
      "inputs": [
        {
          "indexed": true,
          "internalType": "address",
          "name": "operator",
          "type": "address"
        },
        {
          "indexed": true,
          "internalType": "address",
          "name": "from",
          "type": "address"
        },
        {
          "indexed": true,
          "internalType": "address",
          "name": "to",
          "type": "address"
        },
        {
          "indexed": false,
          "internalType": "uint256[]",
          "name": "ids",
          "type": "uint256[]"
        },
        {
          "indexed": false,
          "internalType": "uint256[]",
          "name": "values",
          "type": "uint256[]"
        }
      ],
      "name": "TransferBatch",
      "type": "event"
    },
    {
      "anonymous": false,
      "inputs": [
        {
          "indexed": true,
          "internalType": "address",
          "name": "operator",
          "type": "address"
        },
        {
          "indexed": true,
          "internalType": "address",
          "name": "from",
          "type": "address"
        },
        {
          "indexed": true,
          "internalType": "address",
          "name": "to",
          "type": "address"
        },
        {
          "indexed": false,
          "internalType": "uint256",
          "name": "id",
          "type": "uint256"
        },
        {
          "indexed": false,
          "internalType": "uint256",
          "name": "value",
          "type": "uint256"
        }
      ],
      "name": "TransferSingle",
      "type": "event"
    },
    {
      "anonymous": false,
      "inputs": [
        {
          "indexed": false,
          "internalType": "string",
          "name": "value",
          "type": "string"
        },
        {
          "indexed": true,
          "internalType": "uint256",
          "name": "id",
          "type": "uint256"
        }
      ],
      "name": "URI",
      "type": "event"
    },
    {
      "inputs": [
        {
          "internalType": "address",
          "name": "account",
          "type": "address"
        },
        {
          "internalType": "uint256",
          "name": "id",
          "type": "uint256"
        }
      ],
      "name": "balanceOf",
      "outputs": [
        {
          "internalType": "uint256",
          "name": "",
          "type": "uint256"
        }
      ],
      "stateMutability": "view",
      "type": "function"
    },
    {
      "inputs": [
        {
          "internalType": "address[]",
          "name": "accounts",
          "type": "address[]"
        },
        {
          "internalType": "uint256[]",
          "name": "ids",
          "type": "uint256[]"
        }
      ],
      "name": "balanceOfBatch",
      "outputs": [
        {
          "internalType": "uint256[]",
          "name": "",
          "type": "uint256[]"
        }
      ],
      "stateMutability": "view",
      "type": "function"
    },
    {
      "inputs": [
        {
          "internalType": "uint256",
          "name": "id",
          "type": "uint256"
        }
      ],
      "name": "currentSupply",
      "outputs": [
        {
          "internalType": "uint256",
          "name": "",
          "type": "uint256"
        }
      ],
      "stateMutability": "view",
      "type": "function"
    },
    {
      "inputs": [
        {
          "internalType": "uint256",
          "name": "id",
          "type": "uint256"
        }
      ],
      "name": "exists",
      "outputs": [
        {
          "internalType": "bool",
          "name": "",
          "type": "bool"
        }
      ],
      "stateMutability": "view",
      "type": "function"
    },
    {
      "inputs": [
        {
          "internalType": "uint256",
          "name": "id",
          "type": "uint256"
        }
      ],
      "name": "existsInCirculation",
      "outputs": [
        {
          "internalType": "bool",
          "name": "",
          "type": "bool"
        }
      ],
      "stateMutability": "view",
      "type": "function"
    },
    {
      "inputs": [
        {
          "internalType": "address",
          "name": "account",
          "type": "address"
        },
        {
          "internalType": "address",
          "name": "operator",
          "type": "address"
        }
      ],
      "name": "isApprovedForAll",
      "outputs": [
        {
          "internalType": "bool",
          "name": "",
          "type": "bool"
        }
      ],
      "stateMutability": "view",
      "type": "function"
    },
    {
      "inputs": [
        {
          "internalType": "uint256",
          "name": "id",
          "type": "uint256"
        }
      ],
      "name": "maxSupply",
      "outputs": [
        {
          "internalType": "uint256",
          "name": "",
          "type": "uint256"
        }
      ],
      "stateMutability": "view",
      "type": "function"
    },
    {
      "inputs": [],
      "name": "name",
      "outputs": [
        {
          "internalType": "string",
          "name": "",
          "type": "string"
        }
      ],
      "stateMutability": "view",
      "type": "function"
    },
    {
      "inputs": [
        {
          "internalType": "uint256",
          "name": "_tokenId",
          "type": "uint256"
        },
        {
          "internalType": "uint256",
          "name": "_salePrice",
          "type": "uint256"
        }
      ],
      "name": "royaltyInfo",
      "outputs": [
        {
          "internalType": "address",
          "name": "",
          "type": "address"
        },
        {
          "internalType": "uint256",
          "name": "",
          "type": "uint256"
        }
      ],
      "stateMutability": "view",
      "type": "function"
    },
    {
      "inputs": [
        {
          "internalType": "address",
          "name": "from",
          "type": "address"
        },
        {
          "internalType": "address",
          "name": "to",
          "type": "address"
        },
        {
          "internalType": "uint256[]",
          "name": "ids",
          "type": "uint256[]"
        },
        {
          "internalType": "uint256[]",
          "name": "amounts",
          "type": "uint256[]"
        },
        {
          "internalType": "bytes",
          "name": "data",
          "type": "bytes"
        }
      ],
      "name": "safeBatchTransferFrom",
      "outputs": [],
      "stateMutability": "nonpayable",
      "type": "function"
    },
    {
      "inputs": [
        {
          "internalType": "address",
          "name": "from",
          "type": "address"
        },
        {
          "internalType": "address",
          "name": "to",
          "type": "address"
        },
        {
          "internalType": "uint256",
          "name": "id",
          "type": "uint256"
        },
        {
          "internalType": "uint256",
          "name": "amount",
          "type": "uint256"
        },
        {
          "internalType": "bytes",
          "name": "data",
          "type": "bytes"
        }
      ],
      "name": "safeTransferFrom",
      "outputs": [],
      "stateMutability": "nonpayable",
      "type": "function"
    },
    {
      "inputs": [
        {
          "internalType": "address",
          "name": "operator",
          "type": "address"
        },
        {
          "internalType": "bool",
          "name": "approved",
          "type": "bool"
        }
      ],
      "name": "setApprovalForAll",
      "outputs": [],
      "stateMutability": "nonpayable",
      "type": "function"
    },
    {
      "inputs": [],
      "name": "symbol",
      "outputs": [
        {
          "internalType": "string",
          "name": "",
          "type": "string"
        }
      ],
      "stateMutability": "view",
      "type": "function"
    },
    {
      "inputs": [
        {
          "internalType": "uint256",
          "name": "tokenId",
          "type": "uint256"
        }
      ],
      "name": "uri",
      "outputs": [
        {
          "internalType": "string",
          "name": "",
          "type": "string"
        }
      ],
      "stateMutability": "view",
      "type": "function"
    }
  ],
  "bytecode": "0x608060405234801561001057600080fd5b50617e5e80620000216000396000f3fe608060405234801561001057600080fd5b50600436106100e95760003560e01c80635b7460771161008c578063a22cb46511610066578063a22cb46514610297578063b57f0872146102b3578063e985e9c5146102e3578063f242432a14610313576100e9565b80635b74607714610219578063869f75941461024957806395d89b4114610279576100e9565b80632a55205a116100c85780632a55205a1461016c5780632eb2c2d61461019d5780634e1273f4146101b95780634f558e79146101e9576100e9565b8062fdd58e146100ee57806306fdde031461011e5780630e89341c1461013c575b600080fd5b61010860048036038101906101039190616ab8565b61032f565b6040516101159190616b07565b60405180910390f35b6101266103c7565b6040516101339190616bbb565b60405180910390f35b61015660048036038101906101519190616bdd565b610547565b6040516101639190616bbb565b60405180910390f35b61018660048036038101906101819190616c0a565b6105dd565b604051610194929190616c59565b60405180910390f35b6101b760048036038101906101b29190616e7f565b610a0b565b005b6101d360048036038101906101ce9190617011565b610be0565b6040516101e09190617147565b60405180910390f35b61020360048036038101906101fe9190616bdd565b610f87565b6040516102109190617184565b60405180910390f35b610233600480360381019061022e9190616bdd565b611095565b6040516102409190616b07565b60405180910390f35b610263600480360381019061025e9190616bdd565b6111a0565b6040516102709190616b07565b60405180910390f35b6102816112ab565b60405161028e9190616bbb565b60405180910390f35b6102b160048036038101906102ac91906171cb565b61142b565b005b6102cd60048036038101906102c89190616bdd565b6114c5565b6040516102da9190617184565b60405180910390f35b6102fd60048036038101906102f8919061720b565b61155e565b60405161030a9190617184565b60405180910390f35b61032d6004803603810190610328919061724b565b6115f6565b005b600061035d7f0f362d9a0142af97ea7f821885cb96b90701bf170652c133b2b5783075141eea60001b6117cb565b6103897f93c8eee96c23d4d2d183406da36431ef7fc62083eeacd40fe66e30a6b8ace96c60001b6117cb565b6103b57feaf2aabd46d4ca74863d780ad78072deac9b068d56f2f79cfb96264471273f3060001b6117cb565b6103bf83836117ce565b905092915050565b60606103f57fba7d12ad98cc371dd50b88e2208252cc7e9763eb72c8e06561bb05d3d8b501de60001b6117cb565b6104217fc2a9b894da1aeedf305fa03dcbab26a9016c1da5b3384c6c603a0780e39a8d0a60001b6117cb565b61044d7f9785354c698411860fea845b0668d62c5e22a45e49ae19d1c286f00c927293e360001b6117cb565b6000610457611a37565b90506104857f7974e6674917b92def7b548ab1c863b35c2c80160a08070c0ad805fe39f44ef160001b6117cb565b6104b17fc24e4d06b06b8c7baa86f2c15028c85ab61ed34b4e42636dfea6225dd63be3d760001b6117cb565b8060000160030180546104c390617311565b80601f01602080910402602001604051908101604052809291908181526020018280546104ef90617311565b801561053c5780601f106105115761010080835404028352916020019161053c565b820191906000526020600020905b81548152906001019060200180831161051f57829003601f168201915b505050505091505090565b60606105757f447f753a039ecd8be0ee72cd95c459a03d42c6cb0d873da30c7bf19b6c9c142f60001b6117cb565b6105a17f1ddcb8389ff380be71c75480a97023431b42b96ba28477f6df2aab7803dad0c460001b6117cb565b6105cd7f15e1afed66ebf8db120978e7819b544d120ff2c2fef3bbbbdc4886b84483ab9760001b6117cb565b6105d682611b15565b9050919050565b60008061060c7fc827eaed99ad8cce54b79622ae39671566c5588875e1dfaba0b61b5c2fbdd5c660001b6117cb565b6106387fd8a75d4c8b8ffaece22026ad591a528d3752e9cbd41c209e4cfff2a83e3913e560001b6117cb565b6106647f5b8fb15299aa41eba75fdc91d3b86e4b3fff2a833ee9e8004ec968024a52ea7e60001b6117cb565b600061066e611a37565b905061069c7ffef1ac58e19f6cc35e3381f9d7ac242da1fdc824e6571217e193ccdc103969ce60001b6117cb565b6106c87f5e389a0c84aba298589e3072dd9cb049e654f3a72f6761729da49e3de2ea666860001b6117cb565b60008160000160080160008781526020019081526020016000206040518060400160405290816000820160009054906101000a900473ffffffffffffffffffffffffffffffffffffffff1673ffffffffffffffffffffffffffffffffffffffff1673ffffffffffffffffffffffffffffffffffffffff1681526020016000820160149054906101000a90046bffffffffffffffffffffffff166bffffffffffffffffffffffff166bffffffffffffffffffffffff168152505090506107af7fdef168f66349335c7f7f57960f48aa7b55e768e4cf4270767ed948282cb27dde60001b6117cb565b6107da7efbae422b1e915ede40158cfa230ef793cecd288de0f8ef108ac2df3890e3e360001b6117cb565b600073ffffffffffffffffffffffffffffffffffffffff16816000015173ffffffffffffffffffffffffffffffffffffffff1614156109445761083f7f0c1c1f0e1811ab1eb6b44f68bfb3fa914fa11216459db46ba001cf754924865f60001b6117cb565b61086b7fbefe2be6b5aa3c9570b46cb7b2c91fc84e41b8f4eca0e3ace97cfa0c3f571d6160001b6117cb565b6108977fbcb61e410e0751823df1522b4a139e223e0631c2e7e4a3c57caa31278fdc784260001b6117cb565b816000016007016040518060400160405290816000820160009054906101000a900473ffffffffffffffffffffffffffffffffffffffff1673ffffffffffffffffffffffffffffffffffffffff1673ffffffffffffffffffffffffffffffffffffffff1681526020016000820160149054906101000a90046bffffffffffffffffffffffff166bffffffffffffffffffffffff166bffffffffffffffffffffffff16815250509050610971565b6109707f9b44c9b169245380fc685bad89afda1320057f1efc90537c1d579739221b8a4d60001b6117cb565b5b61099d7f65ca58434edd43378a1f6cffbd364ce7afd5f6f1cde9586f0d1e95e05498938260001b6117cb565b6109c97f7e563ab4b1782ee3dda3965a4e130bdbfc9fdcad07f5995334c9ed164e6e4e6e60001b6117cb565b80600001516109d6611d45565b82602001516bffffffffffffffffffffffff16876109f49190617372565b6109fe91906173fb565b9350935050509250929050565b610a377fb719adf78e43c186dda7de129f7b8384198d3e76d809f7fe2b9d1641c6118e5260001b6117cb565b610a637f69bfc0786faeb8c9fdf296f4a7d0e1b40c3de2c3d6910ed21a0bf7921287bce460001b6117cb565b610a8f7f270e0faff9acbb7aeedf119e1233543ed7b019da89a304e9440728f0559a20c760001b6117cb565b610abb7f28309e599d9f2f8551d5f36bce2cae509f0267f479dc18507a30fbea21f572e060001b6117cb565b610ac3611e3d565b73ffffffffffffffffffffffffffffffffffffffff168573ffffffffffffffffffffffffffffffffffffffff161480610b095750610b0885610b03611e3d565b61155e565b5b610b48576040517f08c379a0000000000000000000000000000000000000000000000000000000008152600401610b3f9061749e565b60405180910390fd5b610b747ff5cf2f8e6766bfcd573bf9b843a417df795a02b96ba65f1a2e0e367ca50fbbfc60001b6117cb565b610ba07f81e76124d0541cb16daf008036cec3973059c1fc56febd888f7f095f99dd875060001b6117cb565b610bcc7f607e3285b715e384a556ca266480404e4c5e7de3b99111d9c81cae7d8bb10db960001b6117cb565b610bd98585858585611ec9565b5050505050565b6060610c0e7f760fc66a31471648fd9adedf9f833805a6401f76db15d8ab2e1a7a47bdef4d2d60001b6117cb565b610c3a7ffe6cf0472f52ccea210e2d3066f7eba4df8e28255e82257fc2076b260fa5bd6860001b6117cb565b610c667fd54e07647742f9b7a0960cb09bf64e9217f3206ae87b3379d60a1cc8fab5b2a060001b6117cb565b610c927f87667e5c1a0abcf54b827ce362be278bbbedec8f77bb86f11450cc411004872960001b6117cb565b8151835114610cd6576040517f08c379a0000000000000000000000000000000000000000000000000000000008152600401610ccd90617530565b60405180910390fd5b610d027faf29a718d656062edcaa13e5d265103a3c9b59cefa0708bd5954c4e2d154866a60001b6117cb565b610d2e7fd521a261e7ef213321b88dfe164e016fd3e53b95567c5d878f68f472d225209360001b6117cb565b610d5a7fbf206f3b05f36fd61f29f0aac852219b3cb28880c62482d7fbeafe206ce432d960001b6117cb565b6000835167ffffffffffffffff811115610d7757610d76616c87565b5b604051908082528060200260200182016040528015610da55781602001602082028036833780820191505090505b509050610dd47f14ce88780be1ce7fc3c2436a5506ac7db7f3bc3f3eb655fda5135ea40e360ff660001b6117cb565b610e007fbfa9ad322ced56de6ec9854077d30f0cdd59d5a165ecc668a4081ee1680d163760001b6117cb565b60005b8451811015610f2457610e387fb549b95aa4e79c89b131a6c895e17b79fc29222c73920a84c843e80b1284e4e460001b6117cb565b610e647fc98422153e248bf462af306f7edc3eb7956e989a9457bebd7f0f3e4dcb4ddeaf60001b6117cb565b610ea2858281518110610e7a57610e79617550565b5b6020026020010151858381518110610e9557610e94617550565b5b602002602001015161032f565b828281518110610eb557610eb4617550565b5b602002602001018181525050610eed7f53248ed7d1c5fd6a8f3a427310ba4f823f6aec56c199e39fb0a27a82381355f860001b6117cb565b610f197f9b92221c07e33ff9e1fbbf7d0e565d7945cd2b1c7ba80485db0e4548ba13528360001b6117cb565b806001019050610e03565b50610f517f9065b4e5225c5d737307b5590468f4aace4dbc78bda831a993a49c96191dadf160001b6117cb565b610f7d7f05ed9e1acbec164ddced3ed4502141a1300c7694a4aac01dc147201913367ac660001b6117cb565b8091505092915050565b6000610fb57f55ade9ece109164934281bdb4144d26bfbd3a4e868ad413e501d7408d065e2f360001b6117cb565b610fe17fc237cfc83d6b7be5550b9672d581177acb6fe2984d6cfd960577192f83db106660001b6117cb565b61100d7f679ba66583015b1ab021335cf7f6b9f95562d280a663d50efaa5f01f47b9d27e60001b6117cb565b6000611017611a37565b90506110457f49b7d8308d5051d3023392b2ae256e000cd0534e48d289a2d2b45d6de82be57e60001b6117cb565b6110717fa8891553d9fd1f65af607b9896b2317935c4c2944746ea2b56f445fbf592a66760001b6117cb565b600081600001600e0160008581526020019081526020016000205411915050919050565b60006110c37fc3ec5931a2ff54972832f160deba840c258bf3e74aabceae174d691e0940ace360001b6117cb565b6110ef7fe2e60ed38d0f5d064d30ec6a89b6cb9aa7f626185b0bfe5c1f0cebbc855d513e60001b6117cb565b61111b7f55f62a9b7205b207129be6595b479969d2baf19d2b6f28d3c0e9565ac15d01c160001b6117cb565b6000611125611a37565b90506111537fa01848eca82aa9f2eaf16fa51ada745f88ec737422eddf779b64390b3eb861c760001b6117cb565b61117f7fd05c721ebae35a3b46a3f089c019493e42e13c58b862b4d864c9e2a6fd9f5ae360001b6117cb565b80600001600f01600084815260200190815260200160002054915050919050565b60006111ce7faa422c46fb3fd88b89810d5bbf8bcfdf47537705588ca53e254bfd464f4dccdb60001b6117cb565b6111fa7fc4101f83dec3e6473611d785aa3c59838b04d44693a0e09ae1080bfe7d27a93960001b6117cb565b6112267ff6ae0e611bd4a16606cdf707652a4274c300ec1c6f54c851f5643393612770bc60001b6117cb565b6000611230611a37565b905061125e7f5c545ad10bb29519b322853a5309139b240a13dcc4bb38b174439c8d965cd3b060001b6117cb565b61128a7f646cd62ec266616dcbff3edbcb5350458ae645470e5098b251bf3e283923beb460001b6117cb565b80600001600e01600084815260200190815260200160002054915050919050565b60606112d97f7c1ab3575fcb477249cac22b89c95dd9fa418e3ced5e18796a37a840675d705d60001b6117cb565b6113057f4b683b94bd3557714add1f98fbe022b0bd429e958b12ce35eb5c1d6cc423683660001b6117cb565b6113317fda89ca36d11d80073f233d2f03e0633ae85f61481968a235b9ff4ee75f490d0c60001b6117cb565b600061133b611a37565b90506113697fd212308fd1da1ff87a326aacd56a10dda54de758f92d514878e85660aed39ba860001b6117cb565b6113957fa69c440bb1eb3b1225cde4f45a625070d27d723f3f21d93512fe0679690e264460001b6117cb565b8060000160040180546113a790617311565b80601f01602080910402602001604051908101604052809291908181526020018280546113d390617311565b80156114205780601f106113f557610100808354040283529160200191611420565b820191906000526020600020905b81548152906001019060200180831161140357829003601f168201915b505050505091505090565b6114577fe25e05380b70b112e73f4cd85c5604ac7fda206eb6d23994db3c01276d960d0960001b6117cb565b6114837f27753e43304a2c68b224367b50cf69e4a1c9e6e3dbf2ea91b8145fcddda1e7de60001b6117cb565b6114af7f8c0a76313871ffd5457df71b31fc462e3139d99fd2c99c78a9ef9f376a555eda60001b6117cb565b6114c16114ba611e3d565b83836128ae565b5050565b60006114f37ff388bbd26443386197da5c9ad6a5a6a506e2a3ea8512611cf2122e1fe6e892bf60001b6117cb565b61151f7ff744d7b7640db1affd174b0c1540208bc19e1387b1bf178539b89cd0838558b760001b6117cb565b61154b7f354769c4ad7422a0e43111aeecc9a28f52324eb626cef5cb81f0fbcb48fecc9a60001b6117cb565b600061155683611095565b119050919050565b600061158c7f1e6f92c1fdc2d7531adbc89d10dd55800e96ee504f78c2499c0b6547f999d66e60001b6117cb565b6115b87ffd4337bc107033cd04e9066b9c1a10c4d3e2a78930bdcfe31273196595c0604960001b6117cb565b6115e47fae1cc6f62d2b416a88224f376cb55c0404e831339d765de538885a655727a7e160001b6117cb565b6115ee8383612c11565b905092915050565b6116227f5663e85edcb7fcb16df5369b4e4b76e4f26def1ecf4b3bc2d25aa701ba8d10cd60001b6117cb565b61164e7f8f6941f78fe6291e4c46991c92c8a033d061f9decd8f7a30a930bc467298195d60001b6117cb565b61167a7fff48e801cbaf6ff5153745374b0420b44f4d3f80569a76e540ae282cfb98160460001b6117cb565b6116a67f3dacfa136bbf2680ecbb7e778bf268b512ee810c9819c37e37e34612bcabc75b60001b6117cb565b6116ae611e3d565b73ffffffffffffffffffffffffffffffffffffffff168573ffffffffffffffffffffffffffffffffffffffff1614806116f457506116f3856116ee611e3d565b61155e565b5b611733576040517f08c379a000000000000000000000000000000000000000000000000000000000815260040161172a9061749e565b60405180910390fd5b61175f7fdf692a9f775a2ddda613719aa78256530d37774d894a55cc57707917e178f8eb60001b6117cb565b61178b7f6e94646f2d9e11efcccfe665fc22b94cbae781cf74449b7ade5b02095fa45eac60001b6117cb565b6117b77f331ce79f018e67fe35260ab7840274cc2c93e3dc5bdc297dd615b74e8867740c60001b6117cb565b6117c48585858585612d93565b5050505050565b50565b60006117fc7fd249cbeabbe4385464793e60853d09bb165cd9e18021ce415e2161104333190e60001b6135c5565b6118287fd52601cc2cb3cf20277cd9965b2f6e03dd8507cb343278593d18014bc67c7fc560001b6135c5565b6118547f7ee4b453d759e6dde8a4fa08bb21cf880eb3c769bfbd60ac7d1ae0fe674560c560001b6135c5565b600061185e611a37565b905061188c7f875fa4aa8b319785e25eb06ebec82ae1dc94c1957a032ee358a9ebb7d448893a60001b6135c5565b6118b87ffebefabc22f8b718c48c6ab8f2a857d7dc6b5db388f2361df3cef561c816379960001b6135c5565b6118e47fd359addff473ba8d99b52eae464c69348e00d802f469ea2d4604bc77eb7aa21c60001b6135c5565b600073ffffffffffffffffffffffffffffffffffffffff168473ffffffffffffffffffffffffffffffffffffffff161415611954576040517f08c379a000000000000000000000000000000000000000000000000000000000815260040161194b906175f1565b60405180910390fd5b6119807f47609b618f842fa2420d7b52fc0b9d566de006bf97fb02ea86b2a662217d86a860001b6135c5565b6119ac7ff17c48cd73553b036e8c7f2f918711efc6f351655cbaa4b442b0ed37bd625c5f60001b6135c5565b6119d87fc4c74da8a581ce5d22d19db1f77a98604cceb7037f1c1d0ff830a70c8ce1b89a60001b6135c5565b80600001600101600084815260200190815260200160002060008573ffffffffffffffffffffffffffffffffffffffff1673ffffffffffffffffffffffffffffffffffffffff1681526020019081526020016000205491505092915050565b6000611a657fcbba79f9261db078091467664d5b84589857124d13216bd4514646c8c76d025a60001b6135c8565b611a917f724646df3e0020e3b200b7c2cdf653dfe7c4d57f2e237999b185e7819550fa2f60001b6135c8565b611abd7fc9b67fad89b63ae30277c8a003424347566f29554d769ff61cd52986b61de40360001b6135c8565b60007f66bd28df09c9271bd5696185e1f2db071a0ed825a4f7df621c22ef195c811e9f9050611b0e7fd550276b708b0edc784cb9667d4f336122f90f3c3857eafd0852a0b28138047160001b6135c8565b8091505090565b6060611b437fb161a1291b72a7612821a50152c4d42b73ae86a78414b3a7fdf7a80c866b0c7b60001b6135c5565b611b6f7ff9a1e64a4d9214594c0416e4654044a05ca26bf3d312558b1434cb575080a45760001b6135c5565b611b9b7fec2c49b2729935807df109433ea0ae023e43998defeb8e66f3de524eddbabbd160001b6135c5565b6000611ba5611a37565b9050611bd37fef0ffc455a597315994a1c67cc90834cd23750405baf276891a3d9b05f6ed42a60001b6135c5565b611bff7f3934db1a5fbe735fdbd6a903c3f5d573657be0465613e3ca8c0d62321f63cb6960001b6135c5565b60008160000160060160008581526020019081526020016000208054611c2490617311565b80601f0160208091040260200160405190810160405280929190818152602001828054611c5090617311565b8015611c9d5780601f10611c7257610100808354040283529160200191611c9d565b820191906000526020600020905b815481529060010190602001808311611c8057829003601f168201915b50505050509050611cd07f90e379775c616bf907431e8ee458b10436881e183839def36e69d2ed8a84b91960001b6135c5565b611cfc7fa32fd58a2a112cffd472e33dff705a545d4e9d1ef85b499e2e8b1775652a9af160001b6135c5565b6000815111611d1357611d0e84611b15565b611d3c565b8160000160050181604051602001611d2c9291906176e1565b6040516020818303038152906040525b92505050919050565b6000611d737facdc5484979de877ebf0af6c9544423463a8dad346fa4922ba68687f1c56a4a560001b6135c5565b611d9f7f7c13ea7cbb32f5fb835ed0a750cbfa562320cc85b222805634dd7d8e496b6ba760001b6135c5565b611dcb7f924cc8a7920bc2525851a942d0e0efe4936f7f153139a6edafe7e1213b5d139f60001b6135c5565b6000611dd5611a37565b9050611e037f8cdea308b606ca964b8c36985a4c5271c4a0105aedc54abb9ac72fadcaf2139160001b6135c5565b611e2f7f10049cc00f88cc9c84593075295b8365ace3d5b5e74d1bc27cc7f32b53f54bc760001b6135c5565b806000016024015491505090565b6000611e6b7f57747667e8b005c2f220a8f765016a543bb7663d4642e3812c95c63061cfcf9460001b6135cb565b611e977f98fab446eb66bd64b30c07063f060fe67b4db79ae8837bfcc8c0fa7cb67aabd560001b6135cb565b611ec37fd311dd416734c8958feae0b2169e4cc2af1cfc0beb1b7247543c6e415c5e470d60001b6135cb565b33905090565b611ef57f66e4c08c7684f95b95403488b69184919dbe2fc6b1800a1b3d8ea58aecd0e77960001b6135c5565b611f207e8e272816e7d16c668d1fed2d81afbaf0c413ad8958d7535d3cd10f4e0622ed60001b6135c5565b611f4c7f68ca9e8dfe56fd314df3e24b6ef11ce7545d2b38de0acfb8932249ac945696a560001b6135c5565b6000611f56611a37565b9050611f847f97a0b501ff5ea9a918e9522eac1534c529068812993a8f9295d8d719a9efb1f260001b6135c5565b611fb07f454fe2afc9fa5a1b532f0617f84a87bb0ae6be8c0cf272c9e6b30636d1d3723f60001b6135c5565b611fdc7f06a4f434ccdaba1721a07c544ac348a5006eba4829460bc3e4cda3e56f20932c60001b6135c5565b8251845114612020576040517f08c379a000000000000000000000000000000000000000000000000000000000815260040161201790617777565b60405180910390fd5b61204c7f9243557ff4c128c6626e4fe7a7ae64af43d8d47a5a2f06b18adc245d49a52cc260001b6135c5565b6120787f16ecfde3d56db88e720f8d08ee98ab40c4720498632a228a44330d718d73552360001b6135c5565b6120a47f4600b03eef02f7d8ada482786495fa17954483a7c63c0f76b3071b76cf6e588160001b6135c5565b6120d07fbdce87a041d421c1d1347d7307856395eb579fd6c8c7539518ee4c16eb6dca3e60001b6135c5565b600073ffffffffffffffffffffffffffffffffffffffff168573ffffffffffffffffffffffffffffffffffffffff161415612140576040517f08c379a000000000000000000000000000000000000000000000000000000000815260040161213790617809565b60405180910390fd5b61216c7f9d77395a064d1c517b7c83d41b62f5a52c1f10596f987d7ae6b16161758b623d60001b6135c5565b6121987fc7fae354e73eb3da9a8b767d9e2ab08718fb1ec3ed0bfeecc20e5b27d8eadb2560001b6135c5565b6121c47f89fef3bfe627c87d4820d0705b3b3bcc940072e05feadddbe2b0e42bcf39de6660001b6135c5565b60006121ce6135ce565b90506121fc7f07b7b3a0ad0a0f9cb251a7e28569df763ea76063a8395c7082332a2a1955021160001b6135c5565b6122287fa2f6b442a176fb49baccf4ba0d4bbe00281043cbf69a5bb568f9dbb5219f82d660001b6135c5565b61223681888888888861365a565b6122627f4231ecf1981e34e526af7ddec9a83c1b1e01084ac7c1121068c428a53ed846ad60001b6135c5565b61228e7fa09754ac5f64a653b6b8a75826549d7d6b1ba35f8e9dd1c79e3945975c3a1d3c60001b6135c5565b60005b8551811015612702576122c67f37231adbeadd32cc7a27e552cfcbf715471f4081dc40739eff5e47fee72a635560001b6135c5565b6122f27f382cec2040536e6df3cc6bf171ce901a4575dac715627ba10679913623ca266d60001b6135c5565b600086828151811061230757612306617550565b5b6020026020010151905061233d7f22957af69f23d47e4809be71c724aa125daf442e21cc8eb78c6a624fb736dc1660001b6135c5565b6123697f5d4cec82b83f34ef669fe5a246424704ee570cc60c8db3226464fc5087e9981260001b6135c5565b600086838151811061237e5761237d617550565b5b602002602001015190506123b47f5b1455da8c24f5835c7852cbb5b00c550242bfe075abee9eedd584673b94d0d760001b6135c5565b6123e07fbbfe6db63e65d4916f179698235e66f3d197dc04d455e152e028cea956a7df2360001b6135c5565b600085600001600101600084815260200190815260200160002060008c73ffffffffffffffffffffffffffffffffffffffff1673ffffffffffffffffffffffffffffffffffffffff1681526020019081526020016000205490506124667fc9e6361a08fe1a071652bd2b1c4b5571e43c3144cfe57db42b09e3354b8814d960001b6135c5565b6124927f5939c14f9d81cf2218f7ff40764e54e3dc2935fd6f610fc7dbcee1f0a513733b60001b6135c5565b6124be7f6eac3e2a93f6a8eaeb6c2cb3837bb03478ba065834146cf6c4ea6b68df50e56160001b6135c5565b81811015612501576040517f08c379a00000000000000000000000000000000000000000000000000000000081526004016124f89061789b565b60405180910390fd5b61252d7f82365d904c6de62a71ed0d20165230e661dc29d94a8320bc9714b62c6e5cbd1760001b6135c5565b6125597f970624fa2e382956fcf3db478ede7b9c5ecd3eeb6e2187f9c493db35974548a160001b6135c5565b6125857f629dc912209bc641eff9ce94e39717f65b4e5dfd776e4259dfe144e53a410f2560001b6135c5565b6125b17f020e1c7936e65a32fa22da9a8e87df7190879ed3b930ea925ea540c9144b666760001b6135c5565b81810386600001600101600085815260200190815260200160002060008d73ffffffffffffffffffffffffffffffffffffffff1673ffffffffffffffffffffffffffffffffffffffff168152602001908152602001600020819055506126397f6f5c3f6368b29b0d02d39dffcf031e6d8f15aeae0001bd2a053f6f16abd36fb760001b6135c5565b6126657f2d21516413e2cb2fe5f75e7b175f74dc38a0a088359543af5c495828c0c6866260001b6135c5565b8186600001600101600085815260200190815260200160002060008c73ffffffffffffffffffffffffffffffffffffffff1673ffffffffffffffffffffffffffffffffffffffff168152602001908152602001600020600082825401925050819055506126f47f5874210738c06df7bad45a14247152218db3f7b7955e5cfeb940a51f62464d0b60001b6135c5565b836001019350505050612291565b5061272f7f9e1a197317f50b5d751d6cfb7bb105ca739539b18faeda39964f237451229e8260001b6135c5565b61275b7ff1e1f8fac48d923914f059a78e8d1a38a55d72056daa641a6b55c18ac5034e7f60001b6135c5565b8573ffffffffffffffffffffffffffffffffffffffff168773ffffffffffffffffffffffffffffffffffffffff168273ffffffffffffffffffffffffffffffffffffffff167f4a39dc06d4c0dbc64b70af90fd698a233a518aa5d07e595d983b8c0526c8f7fb88886040516127d19291906178bb565b60405180910390a46128057f23a9c296711376a65da8f4724b25f6c0ee52d8a4b7de744b4ffe7c52e056eab760001b6135c5565b6128317f8cdce1a097999564fe39fb60d16aa82c42df63400ecbeff9e04856b14aaab8c560001b6135c5565b61283f818888888888613d08565b61286b7f0c41cd1c8466cc0502094db7f6e5de3528e5700e52f2a5b217c7a216148f303160001b6135c5565b6128977f0e25f5bcdc401256a69982ab712d1e332569ab6988c633121b4f156c17079f5d60001b6135c5565b6128a5818888888888613fff565b50505050505050565b6128da7f9a58ace17e907244b8876deaa1c0eceff4bb73e60ec54c97a088b8b21116f46560001b6135c5565b6129067fe13461f7a26759db25223bf6a201f5c7015340043692584464eda83632b60c6360001b6135c5565b6129327f54624e5d372ad94b77d23dc9cc580475290d0a74283062faddac2543cccb8a7b60001b6135c5565b600061293c611a37565b905061296a7f31d9a747e11cd025baec6393ad7710729d80aa337fc36e09543dbe224b56a3b860001b6135c5565b6129967f42b8c51264f1016bcf6cd22e45786de71797988fda6b3b735a9a4655ecca8f2a60001b6135c5565b6129c27fdd11032d29dc768711f42b170595b4977a0e4c91c98697b268b1f1dc731b518060001b6135c5565b8273ffffffffffffffffffffffffffffffffffffffff168473ffffffffffffffffffffffffffffffffffffffff161415612a31576040517f08c379a0000000000000000000000000000000000000000000000000000000008152600401612a2890617964565b60405180910390fd5b612a5d7f8cb0b98f853206895789775ff2c8b5fca33227c416f1285acebbaed012c6452f60001b6135c5565b612a897f340f2779e68fd35319f119196223c8b9361826c113c16b618407e4bd1f2ad6c060001b6135c5565b612ab57f64325a80cb754db79f242d56cced6234f799c9abb72e7849e68c9c5b84e787cc60001b6135c5565b818160000160020160008673ffffffffffffffffffffffffffffffffffffffff1673ffffffffffffffffffffffffffffffffffffffff16815260200190815260200160002060008573ffffffffffffffffffffffffffffffffffffffff1673ffffffffffffffffffffffffffffffffffffffff16815260200190815260200160002060006101000a81548160ff021916908315150217905550612b7a7f4c18c2da9b9cba1601307a6945bffe534c629167b9fcd2183416e9dcad2b5e3260001b6135c5565b612ba67f2ad668c6ebee915457e3b5a14f914cdd0937135b79ae169fa35d00e2e1b792e460001b6135c5565b8273ffffffffffffffffffffffffffffffffffffffff168473ffffffffffffffffffffffffffffffffffffffff167f17307eab39ab6107e8899845ad3d59bd9653f200f220920489ca2b5937696c3184604051612c039190617184565b60405180910390a350505050565b6000612c3f7f56b6ce538d59218c5785e4d9b5262a9f63d004eb3b711d143b18add5124a09c960001b6135c5565b612c6b7f6d9e01ee057b529c3429a9ee0011635b969205e33d324f8ef3022566e28ebbcb60001b6135c5565b612c977f814049a80b50a74c634d2ee5fe39ea547962fd9092186a05c6c341f7925ad1f260001b6135c5565b6000612ca1611a37565b9050612ccf7f0c32de28efdc4667e7b4c71faa03dec00d1b8033dc5a7610fcbca325e575706360001b6135c5565b612cfb7ff3cc5f7ecdcfb27bc2b0046c986f51c7a428bc79e17b3972d244b69e2ed60e7860001b6135c5565b8060000160020160008573ffffffffffffffffffffffffffffffffffffffff1673ffffffffffffffffffffffffffffffffffffffff16815260200190815260200160002060008473ffffffffffffffffffffffffffffffffffffffff1673ffffffffffffffffffffffffffffffffffffffff16815260200190815260200160002060009054906101000a900460ff1691505092915050565b612dbf7f7ad3d18d443517c2f54b09e8156f36c5f97416bd90fd1a00b399fe6814cf583f60001b6135c5565b612deb7ff9fd8baa040c0fb009bef85e2c25f9b4265c35b24b9787a4f67d10170eeec0d760001b6135c5565b612e177f0e8677dab203ace951767c4a2f76bd183d877f83be6ef35b05934ad7e40ad27f60001b6135c5565b6000612e21611a37565b9050612e4f7feefbde0c38c26782cdd16569c506399b21cc49d92316ef3b908b6a3a5f838a9160001b6135c5565b612e7b7f618327faef97bb7128d2f159291b23fdf7bab17b7a1c6d548934c45d41eafff360001b6135c5565b612ea77f7b88bfafc589ae201456d27c97b9c7de9ceaca17b35c74bf64262edf17464ae560001b6135c5565b600073ffffffffffffffffffffffffffffffffffffffff168573ffffffffffffffffffffffffffffffffffffffff161415612f17576040517f08c379a0000000000000000000000000000000000000000000000000000000008152600401612f0e90617809565b60405180910390fd5b612f437f8b57b70a9e2213b45b39e116a88eebb26261e1bcb59d66681f38be2605baf8eb60001b6135c5565b612f6f7f3f76fd8d07018180afa08d7f4aeff9dbcf8439636d9dbc91f3c1fc0a4544565460001b6135c5565b612f9b7fa07a5783247cfd2c2d50fd5998bf97352f5bacf06a7dd2d7095cbbfce228df7f60001b6135c5565b6000612fa56135ce565b9050612fd37f561bee110946ad7e192057c5691fdeb01fbc0f57c479a9bb7129d0851e6bcdaf60001b6135c5565b612fff7f2ee2943c5e521649b409cefeaebe7863a44860428ecd3ca833745460274a74da60001b6135c5565b600061300a866144d7565b90506130387f4283398d3c5b7fad806889ed8412b13fcf0157d38ba3164ac62761401c8e135460001b6135c5565b6130647f0dd2b2f66ca11f8376b38b12246e379eca9e20780650567af9c105581a762dbe60001b6135c5565b600061306f866144d7565b905061309d7f508c24f7579f88ec9032b24b7628490e0f2c7c750931ebd5c7fc57dabf8105c360001b6135c5565b6130c97f0831fd05c2b2af6fb005d11cf5881cb5255a6e759c5bf01939d1532148193be660001b6135c5565b6130d7838a8a85858a61365a565b6131037f0b4b90a78d01d129a87df1d389e4f58e46a89326bdb093f22fba3ab742b9bac860001b6135c5565b61312f7fa84e57cab451c68d6676dd603cc3df85b2685b703fd0f3a83f1df7e8f79cba8760001b6135c5565b600084600001600101600089815260200190815260200160002060008b73ffffffffffffffffffffffffffffffffffffffff1673ffffffffffffffffffffffffffffffffffffffff1681526020019081526020016000205490506131b57f7a7bc7cef65f9ceb2f7c58dadd48709829b723d8b8aac523136de01ffa0921fd60001b6135c5565b6131e17f61c194ed18066c1544ebebed7ed5eaa8e0f722d0ba6c864d75dcdab9daa6e92260001b6135c5565b61320d7fbc77b299a8f50c8372885c2f8c4076390f0cf745e20e83d85f82514281d24abd60001b6135c5565b86811015613250576040517f08c379a00000000000000000000000000000000000000000000000000000000081526004016132479061789b565b60405180910390fd5b61327c7f2144b0bced9877a44d4feaf5bce963170c1db0d7b696ec360f3f2f3071e704da60001b6135c5565b6132a87ff186e458266d74de558c929620b613251ca7cb9aec702bcee62bca669901c45f60001b6135c5565b6132d47f6bc14610b5a9a42558d62253570da2c4d78a51660dfdbf852d153460c23a600e60001b6135c5565b6133007f7828fe966029dc18d7266193fd5954186f944f4f8d571f3d610b04429b0297d460001b6135c5565b8681038560000160010160008a815260200190815260200160002060008c73ffffffffffffffffffffffffffffffffffffffff1673ffffffffffffffffffffffffffffffffffffffff168152602001908152602001600020819055506133887f293106f6b62e5a13d0d456ab943ec1b912f850ce3e455114019384c8880a63a260001b6135c5565b6133b47fa3a71961d0da5e6b5654e0347b983941fb05c2723a34d6e85e55a6321641419d60001b6135c5565b868560000160010160008a815260200190815260200160002060008b73ffffffffffffffffffffffffffffffffffffffff1673ffffffffffffffffffffffffffffffffffffffff168152602001908152602001600020600082825401925050819055506134437f50f88df0530cf80b64cce20d65c796f44645f2e7da1106b18a7d39e988ce522f60001b6135c5565b61346f7fa2c2871dcf09cd67d133191df96b5d5af6108199e3a7d18418a8dfab06dd159e60001b6135c5565b8873ffffffffffffffffffffffffffffffffffffffff168a73ffffffffffffffffffffffffffffffffffffffff168573ffffffffffffffffffffffffffffffffffffffff167fc3d58168c5ae7397731d063d5bbf3d657854427343f4c083240f7aacaa2d0f628b8b6040516134e5929190617984565b60405180910390a46135197f40b529c898ba44736788fa22ad6c0c5aa4ef36da2d445ed86290ca1dee83bd5f60001b6135c5565b6135457f78e35c057d61a41722cf05a369bee1797cef4ea5a67ef706432e904458e32aaa60001b6135c5565b613553848b8b86868b613d08565b61357f7fc87f62bf1490ccc348161d6dc2dd1c7f2bfa8b3267dc3d22eff948fa7448db9360001b6135c5565b6135ab7fc6f389084e3e52241d9fbafd9f766bd6353899e26f4944e497ffcbe6306185ae60001b6135c5565b6135b9848b8b8b8b8b614685565b50505050505050505050565b50565b50565b50565b60006135fc7f8775e46e92b19633604bdddafe22a84f039e377e8ffb760f236d6f6d8d9a8f1460001b614b5d565b6136287f2dfc240ad7e692692c4de1de543bbe44e8847e19c42756dfca09b5f35c0318cf60001b614b5d565b6136547f4ccd5d6115abe600ce72170e14741c6668e8ced3234c59b0e869a6d68c99146b60001b614b5d565b33905090565b6136867f8a6cdcf1cfc3f4527fa9b3638a680b03c801b688e250702053521d8340025dee60001b6135c5565b6136b27f5b611978bd244375bfddcc28e11bf266e373c2b0bf972be96a57a96de55cb2b660001b6135c5565b6136de7f23c6f674250f3ca5611afe0ecea35452acd04bcd35109d1e69c3892543bd389760001b6135c5565b60006136e8611a37565b90506137167f3a5658dd24afce992608146327ab8d1d7cff60b7bf9ddc98660362823e692f7960001b6135c5565b6137427f4865da54b9e285848e3127674ce57cd7ddb2add893d6aba058c2729a3209472260001b6135c5565b60006137707f514536d60eda836936487a9b0e5425b50a4528bc6f82c33be10e2f016281eec260001b6135c5565b61379c7f29259c708cf7e5e78c86a80af27d3fe3b7964a98c72067d6f99e807a1697e7ea60001b6135c5565b8073ffffffffffffffffffffffffffffffffffffffff168773ffffffffffffffffffffffffffffffffffffffff161415801561380457508073ffffffffffffffffffffffffffffffffffffffff168673ffffffffffffffffffffffffffffffffffffffff1614155b15613cd1576138357f874dd672dfaa23c22a57ab72327c2c497f7c1038df957ffe676506606a4af62f60001b6135c5565b6138617f96aec140d916fbd884704177831209d6ba37e5373be115f34fdb306c15f593dc60001b6135c5565b61388d7f789a65116764a78c5f782742aeab8947ebddc6d3c4b988c712c7a472e2170d9b60001b6135c5565b6138978786614b60565b6138c37fc0970233153641ed7ddbca02070e32d9f35d6184b0b4176b218ae546f6be3ebe60001b6135c5565b6138ef7f7cc888efbdbf32e0a96bf01ddedbaca4e6fb7c21b55d8a00241e0bf1e3d522a960001b6135c5565b6138f98686614b60565b6139257f83d4d35c7d922ab70e53492ed83b2781df1419a1e9534a3f2b7030f9e6c248f160001b6135c5565b6139517fcd161db8dde7fb4548150a05fa2e028cb6b69a36a88f05f3c4d46af236b42dba60001b6135c5565b60005b8551811015613ccb576139897f3e98ba2e04128d1e9755daede14fe9bab7693c266cdd9042ad70626196f4332460001b6135c5565b6139b57fee40af4eef9b8f775fd46340c1819540a1cb4e666b08a3309841a96420b4a92960001b6135c5565b6139d9888783815181106139cc576139cb617550565b5b60200260200101516154b5565b158015613a075750613a05878783815181106139f8576139f7617550565b5b60200260200101516154b5565b155b15613bd557613a387f8257f9d881f176a2625de2fce9a6db89ecee941dcba8f6e8d0ef51ce50972fec60001b6135c5565b613a647f53830e9f24335a1e6c0b4dea2c1ad137c0a1698b77c045025d68d584461e0be660001b6135c5565b613a907ffe7d52f3d27f2a77d6dc0a876a637382dc60e3b54b78ae582c0c315bd2feec6c60001b6135c5565b4283600001603b016000888481518110613aad57613aac617550565b5b6020026020010151815260200190815260200160002060008a73ffffffffffffffffffffffffffffffffffffffff1673ffffffffffffffffffffffffffffffffffffffff16815260200190815260200160002081905550613b307feceb0a8da422835661019f543fed797422d188bbd1118c70d64dcb4a0cd81f7760001b6135c5565b613b5c7f717591688cf5ae5cd30064b8f23261da3444306f5d6dfbb28083350eac1920a960001b6135c5565b4283600001603b016000888481518110613b7957613b78617550565b5b6020026020010151815260200190815260200160002060008973ffffffffffffffffffffffffffffffffffffffff1673ffffffffffffffffffffffffffffffffffffffff16815260200190815260200160002081905550613c68565b613c017fde10644fa59a2606f285f69b3dc5dcb32b198ab6557aa0de71506c61ef7925ae60001b6135c5565b613c2d7f7761bd2068d74eac4a14253df98acc6797b484f8c813ac92abc6809d6bf5eafc60001b6135c5565b6040517f08c379a0000000000000000000000000000000000000000000000000000000008152600401613c5f906179f9565b60405180910390fd5b613c947f4e6c61a55d3ac325e669a11a1621fde5d12f1017b9159c9a298276ac5b0a760a60001b6135c5565b613cc07f86857412262933d7407249e815d7875882bbcf32eaaad28d9085d6c103c97f6d60001b6135c5565b806001019050613954565b50613cfe565b613cfd7f822fca795bee80e548bba318733ceaa7041c82557bae89175163d0c19ee559d460001b6135c5565b5b5050505050505050565b613d347f2f5f6d126acd21bfa757f4df4ab30075339cda7cb55ffa28a0cd4064b67dc4ed60001b6135c5565b613d607fd29aed85409e6ba0b127ef189174585193246665718746b0d5f006866b14b94e60001b6135c5565b613d8c7fcb6430af5cf24faa7a5d4ec4a133396ed440daca277b2d2831ec2b2402fb388f60001b6135c5565b6000613dba7f08c9202d483d0860382a98440f4dde32e71901aa3de5787e77235d9fbd4b6b6460001b6135c5565b613de67f60250f179debc907f4f01d9f755537d2e95f25b36e8e80d3dec0e706d6ebc7eb60001b6135c5565b60005b8451811015613ff557613e1e7fac1baee88ed9e1699227e12258ddcdec68f8ee960d37d621897633a76f55303860001b6135c5565b613e4a7f0d2fa3bec8cb29ffb9af2ff33b4b7203685422bb2d7bf90c6b22a61a74dcd9dd60001b6135c5565b8173ffffffffffffffffffffffffffffffffffffffff168773ffffffffffffffffffffffffffffffffffffffff1614158015613eb257508173ffffffffffffffffffffffffffffffffffffffff168673ffffffffffffffffffffffffffffffffffffffff1614155b15613f6557613ee37fe370194391fe1f9a111f09871201e2fe27a207140b5748377141ead668e696ca60001b6135c5565b613f0f7fabf3baafc913457f88b75eb58bf3bc3afac8412b9f8d2808e90cad3dffa5d17d60001b6135c5565b613f3b7fa7ca4b3fd46bd33cff2c7801e8230b8055dccbbb5cc826bacfd9db2bfe8513d960001b6135c5565b613f5f87868381518110613f5257613f51617550565b5b602002602001015161571a565b50613f92565b613f917f1b218bfe085b2aa36c9e43c43864addf24034cbe57fb837a333fee4263b013b260001b6135c5565b5b613fbe7f71453d212079a2fd8c082358874869a7a16c097c7f2e393937abe9832a6b39ce60001b6135c5565b613fea7f8805342ff1a140c285690daf44e130e5da555f23b3c566cfd5a37492b010e92860001b6135c5565b806001019050613de9565b5050505050505050565b61402b7fb8df48de6e0213c987c2f4c5fc04ffcaa2222d782609dc3822352fd7f4c7132b60001b6135c5565b6140577f4ca2a49d8b8eb064c5306130935b54d007d70542eb7cd8b2b7a29ef66888bb9260001b6135c5565b6140837f213fd6814290e844c03d9c2b385b28418e8504c2c8d8370a07d1691c65e7c17b60001b6135c5565b6140a28473ffffffffffffffffffffffffffffffffffffffff16615b60565b156144a2576140d37fc2c3d1a9998c786bbb08b250e9cdd55c706829302d85caaef37aaa29d29e00af60001b6135c5565b6140ff7f10d54d902c001205f40dc774b43ec53ba563a85ce83dda63db4ac4303e7670e960001b6135c5565b61412b7fa9eb3f91f1f9de5b4dcc3d840c440abeb76a3d00aeeb050bb38ed04bf9f273e160001b6135c5565b8373ffffffffffffffffffffffffffffffffffffffff1663bc197c8187878686866040518663ffffffff1660e01b815260040161416c959493929190617a6e565b602060405180830381600087803b15801561418657600080fd5b505af19250505080156141b757506040513d601f19601f820116820180604052508101906141b49190617b2e565b60015b61430d576141c3617b68565b806308c379a0141561427857506141d8617b8a565b806141e3575061427a565b61420f7fe817f61e19f5fe36ea15318d7df013d1219b5953f9478c527af925ae8f0019ee60001b6135c5565b61423b7fdf10740bcaa610c767318b209165ef24934c351e5de6fcbbd29a90a0488256f060001b6135c5565b806040517f08c379a000000000000000000000000000000000000000000000000000000000815260040161426f9190616bbb565b60405180910390fd5b505b6142a67f7baaa810a2fb47ba84782e45d4f8353cecc4663ebb3c40ceb11c6982539461de60001b6135c5565b6142d27f189aceca5f70c996908950f91447cc356742a15d8db96440ce8c12389336e03a60001b6135c5565b6040517f08c379a000000000000000000000000000000000000000000000000000000000815260040161430490617c92565b60405180910390fd5b6143397fac2c02682f9e017bdd845f28192749bfbd1479869283ca5533211c67717a7bc260001b6135c5565b6143657ff68e5a890eb1abff780669347dc82f2eb01d8c1ded71b5e2c70da77871bd703d60001b6135c5565b63bc197c8160e01b7bffffffffffffffffffffffffffffffffffffffffffffffffffffffff1916817bffffffffffffffffffffffffffffffffffffffffffffffffffffffff191614614470576143dd7fe75d24151664e4460cd97f7c651cc20b12d0019906cf68024a9117f01afadb0260001b6135c5565b6144097f873f0f07f450fcdef60f716a887c2665a0834b9ae46e41726f895182676bffbc60001b6135c5565b6144357faf295bc84f99f100ce49c7c03f1203ab18a69a8a439993b474ebbecccdbb8a1460001b6135c5565b6040517f08c379a000000000000000000000000000000000000000000000000000000000815260040161446790617d24565b60405180910390fd5b61449c7f20f0e58e2832463adb4db542319fff137a5e9603738dd0906715599184a1f92460001b6135c5565b506144cf565b6144ce7f8eed6236953a805a06c645972e1e0a46381b9e19300920b4e7913beb3b98d6a660001b6135c5565b5b505050505050565b60606145057fe806a3ac73bc3e6a2cff8c8058aff4dc8b4834bcad3aba4670c354a85f2ac2c460001b6135c5565b6145317f692e1b3f0d5c19ad38ef8361c9ef4a1f850b839f1c99423ab38b7dfb5ed9190560001b6135c5565b61455d7f74584b0d012840fb08988ba25745aa3ecc532b04826f6c92e5999fd6d1ff5b5a60001b6135c5565b6000600167ffffffffffffffff81111561457a57614579616c87565b5b6040519080825280602002602001820160405280156145a85781602001602082028036833780820191505090505b5090506145d77fdf150e0bef325585ac5862fdf2a2c0f4ad8e20f4694cc3f19184de7df03a186460001b6135c5565b6146037fee0fb6b5367ce85cb8333f4a587361c9f032a7390b37656e38fdd1c3746239a560001b6135c5565b828160008151811061461857614617617550565b5b6020026020010181815250506146507f90f2ac292a4af21a010587bd0a5462cd658ba01fb430cf8239efae68b965354c60001b6135c5565b61467c7f45a14ed0989745f6983b388fa79b9aa3e065ad5fbf823445feab4c39a67f0e8d60001b6135c5565b80915050919050565b6146b17fc3fb94a770c9686b37b61dc4378fcc6ab73cf72ee3a824351ca01d132655229160001b6135c5565b6146dd7fa3b926c4c506ab24c1a2c62e40dfa6f189efa63a2817e22380e4913c1171ff2e60001b6135c5565b6147097f6cefb200915781b8cfa0e905f6510034ddbdf44b8c1daa7a66136e6a7392ebdc60001b6135c5565b6147288473ffffffffffffffffffffffffffffffffffffffff16615b60565b15614b28576147597f229a442009008317718ee49f02935fdbe5177ec973bb723bcdb7900a75261e9260001b6135c5565b6147857f2821aaf5ea59c1b05357e76929bb49fd8f4e0e48aea52476abbf1ecb2e151a7c60001b6135c5565b6147b17f1df322ecc3cfd274fddede83fae23f3237de183d12548b4a474b45354a1956e360001b6135c5565b8373ffffffffffffffffffffffffffffffffffffffff1663f23a6e6187878686866040518663ffffffff1660e01b81526004016147f2959493929190617d44565b602060405180830381600087803b15801561480c57600080fd5b505af192505050801561483d57506040513d601f19601f8201168201806040525081019061483a9190617b2e565b60015b61499357614849617b68565b806308c379a014156148fe575061485e617b8a565b806148695750614900565b6148957faecebf1f8663e1514e169b6e9c81ab1023db9dcba8c30e7ad0d5b39462157c4160001b6135c5565b6148c17fed66d880d38a85b8ad241db7102f80d71b5033552bb48b9cbac992e80e8eae7b60001b6135c5565b806040517f08c379a00000000000000000000000000000000000000000000000000000000081526004016148f59190616bbb565b60405180910390fd5b505b61492c7f55551cb0dd580a16058d10291620ed667763c532e641bf45eb7a57b555e8c7ac60001b6135c5565b6149587f44ec2e364b4fcdaa68d9be27b9ca0e9dade4031e84bebbef7720420c5451622860001b6135c5565b6040517f08c379a000000000000000000000000000000000000000000000000000000000815260040161498a90617c92565b60405180910390fd5b6149bf7f54c3662dd22b65609fc0d5b923dd8a19ae394010236db962ca8b2f3df078ba4c60001b6135c5565b6149eb7f78591ad6993b8674f4ee98e725fbecf645dbf762a3e924d04bf58347f6fea22d60001b6135c5565b63f23a6e6160e01b7bffffffffffffffffffffffffffffffffffffffffffffffffffffffff1916817bffffffffffffffffffffffffffffffffffffffffffffffffffffffff191614614af657614a637ffc24a4fdc5e7c699e6e1e6ee81c75ef907705437f15a675f8d8e70ac5085950760001b6135c5565b614a8f7f1809253f037a945bc9ad637d436a753e53f84c5303e6a34cb26ee6452d0dbd7260001b6135c5565b614abb7f290ffec1bcf5cce5e0790fab9f148d32880b7976258612c5ef491ae910d087ea60001b6135c5565b6040517f08c379a0000000000000000000000000000000000000000000000000000000008152600401614aed90617d24565b60405180910390fd5b614b227f1451d3a0efb241a2b395689d9d5c11e1fb5cc168378080e55ea33aa28241740660001b6135c5565b50614b55565b614b547f56d686c8dda8b69798ef081146879060b0cc15e689ca34f1f7d8b51b05aa15be60001b6135c5565b5b505050505050565b50565b614b8c7ff5af116673111d57b570a7ba90df9ed15d12f923b3bb7d905cb1b1de26d7c20c60001b615c7c565b614bb87f130d49108a3d7eb3f19a131e412afac5b84c783794be060933e33fcd8a83494e60001b615c7c565b614be47fac96e9cf9ddf5b4e4a922221d59f4d0bd3c4e3457c07f31467a4aaa440b7f93960001b615c7c565b6000614bee611a37565b9050614c1c7f31cf970dc48680a44874527d390801bb777a04db28252c19d092b558e68418fb60001b615c7c565b614c487f2bf924b8aeda7871f585133551d5aa8104042e14c05492c6d794e2a3335af47460001b615c7c565b60005b8251811015614def57614c807f4a71fbf0f6b770393794b274bee4a215244de70628f6ad538550a18d3efd054460001b615c7c565b614cac7f88477b89057a82541b7ea93b25025ea7022a370ca76139fa25daba66de89cf3460001b615c7c565b614cd084848381518110614cc357614cc2617550565b5b60200260200101516154b5565b15614d6057614d017ff98f06a7dcb7e05fae6cd2c4a3046163bb0a21520976fff4c660c40d1a01e54d60001b615c7c565b614d2d7f4a4bf0f84b4936a6879994d4e4e6fec439007aadfcf8b1216b4ec415b01139b960001b615c7c565b614d597f8cf2d53de4733a67bc53af2a0937c93b7c3e29730ab57126ebe7b4208098541f60001b615c7c565b50506154b1565b614d8c7f180f72971cae4e971acdaa54a1f71b752705d52362cd8c5f22b0a4e6d1d8afad60001b615c7c565b614db87f213d44b3d4c04624bf0471576ae2b73dbe19838066716f9e8d1cd1bf54a36c8160001b615c7c565b614de47f0d2bf838aa383c945edd0d875b8a4d81c085d6e33e06a7e8d28aa2462046395360001b615c7c565b806001019050614c4b565b50614e1c7f71d43e55d6fcc969705851c967543b1ffca53ca25431f365b96448c4085d937760001b615c7c565b614e487f8e9f593fd6c019d1126dabbcad771261c101d2256827eb4ef74944d3492e217b60001b615c7c565b6000614e5383615c7f565b9050614e817f21e311a76e61a65eb8c5d3cf746b86b2d744c865cf2813e1ea9694e6a6476b2e60001b615c7c565b614ead7f47a785345ce8d921146b8d80e89d764db6237026a1fb0febba6e7ce2be71978c60001b615c7c565b6000614eb9858561627b565b9050614ee77fa374a1fc8979af8f0acf6cf2881b57e575608f983e527b1de570ba558f86d1ff60001b615c7c565b614f137f7cb8b9a13bf6989ea708b4fca42c78abc19927337a3c4fc26237266bd9ff111660001b615c7c565b60005b84518110156154ac57614f4b7f3b916f0c722cf1f67366d133524eac2bf59bc7204e56019603d4e0168832645260001b615c7c565b614f777fd378a756ad5b4ad4b5d3f836d1738d4165804e0c15437f1b7f96cdc71bf1063f60001b615c7c565b614f7f61686e565b84600001602e016000878481518110614f9b57614f9a617550565b5b6020026020010151815260200190815260200160002081905550614fe17f05d0c381ba668d55c9b66840f7c2f503c9c72b9a378d4af575cdb5ee2d6354ac60001b615c7c565b61500d7fba55a707c9a7617de5bc59442875d65d3ff4f24055cf75271896833c63a09ea160001b615c7c565b8281815181106150205761501f617550565b5b602002602001015184600001603001600087848151811061504457615043617550565b5b602002602001015181526020019081526020016000208190555061508a7f39682d3908f4d25026200befede2a775494caa98fa2c2e890d19f038660bf2c260001b615c7c565b6150b67f6370a2935a25188c3e7cba229d009babf75a9a9bde881e4b23849cb1f90f216060001b615c7c565b600073ffffffffffffffffffffffffffffffffffffffff168673ffffffffffffffffffffffffffffffffffffffff161461541c576151167facfa823c083ad3b242d047f377c9f85e4362c99af88b77e8dd36dd1a2b4cd4ef60001b615c7c565b6151427f9380ea64663e62d9ce29cc31e55d0cc60c3f080d2c0e2a35f6180e8c6c45256860001b615c7c565b61516e7fbea401ab542ffce18f22d2d8d13430a99ebff078d3d99a05534d3b8155e0ae3660001b615c7c565b83600001603201600086838151811061518a57615189617550565b5b6020026020010151815260200190815260200160002060008773ffffffffffffffffffffffffffffffffffffffff1673ffffffffffffffffffffffffffffffffffffffff168152602001908152602001600020548282815181106151f1576151f0617550565b5b60200260200101516152039190617d9e565b84600001602a01600087848151811061521f5761521e617550565b5b6020026020010151815260200190815260200160002060008282546152449190617d9e565b925050819055506152777f5e2fb39b629af198f8cb2021701d7d0533c6cceb26a9d08769ab208fc27c5bd960001b615c7c565b6152a37ff76b17bc1fe99aad1eeeeab349e9939ba894b062eb68b82bf23de5cdcfc7b90d60001b615c7c565b8181815181106152b6576152b5617550565b5b60200260200101518460000160320160008784815181106152da576152d9617550565b5b6020026020010151815260200190815260200160002060008873ffffffffffffffffffffffffffffffffffffffff1673ffffffffffffffffffffffffffffffffffffffff1681526020019081526020016000208190555061535d7f7e238f55fb8691f543114709a5f7ddc68cd88815c784cc4d017afa9ba7d0216960001b615c7c565b6153897f1b4f2256071e151879e6f898751c986d8867d59bbf763e10b9df9316e9c3d4f060001b615c7c565b82818151811061539c5761539b617550565b5b60200260200101518460000160310160008784815181106153c0576153bf617550565b5b6020026020010151815260200190815260200160002060008873ffffffffffffffffffffffffffffffffffffffff1673ffffffffffffffffffffffffffffffffffffffff16815260200190815260200160002081905550615449565b6154487fa738feb75dd52968b140fc03b2952cfac74b009acb05d737a0fddaa4ed093b5160001b615c7c565b5b6154757f32070c724ddad8e5131443f492450e9af4bbad01c0f1378663c4c8d47472425d60001b615c7c565b6154a17f75b00caf97654ac33e1e18af856288b9965fb8ee51d972c41c33eaab3131e87f60001b615c7c565b806001019050614f16565b505050505b5050565b60006154e37fb01c21a7056d600a8a22cad3056c3c8a2e316e3eeb0fec9a70f671724e81b70060001b615c7c565b61550f7fa1e63d14da21686b7cbbe08c6b7dfeebc05da1bff5022833f88250578638443e60001b615c7c565b61553b7f5be0227ad81a175b4c99e7b68817f1589b0b9d09dd6419c5d59a3db033b7d02860001b615c7c565b6000615545611a37565b90506155737fd786ec36820f436d2a97a321dd23200b38ec5f7c316cbb8d882ec4f2130304c460001b615c7c565b61559f7f25be3cbf0a78a60569fb7448616a1f0f8c44e0119f1ee2b3de2ffaebefcd9e8460001b615c7c565b80600001603b01600084815260200190815260200160002060008573ffffffffffffffffffffffffffffffffffffffff1673ffffffffffffffffffffffffffffffffffffffff1681526020019081526020016000205442101561568a576156287f6d4c8f9c975b3de7df30a9880637d731c282bd2f66c1e1c11d8deff4e78e207e60001b615c7c565b6156547fbeee5774a3c1b6336049ef56efb43440c24da437266f1ffc185c737482fe2c4b60001b615c7c565b6156807f4d2296860b4cee80c07f222f1d796eacf310d1c690a7e72898d44258935e707b60001b615c7c565b6001915050615714565b6156b67fc8569885a6563bc8f5e8f4df6b12acc3c6d322faf279e23b55940996d0f455f560001b615c7c565b6156e27fab432d7a63c40278e9d3ae22e0a07c65e9cb5b62fdc5b4b67510b18d16714f1e60001b615c7c565b61570e7f5b8162783f1da79d6d3bebc584837af2fec3ebf94de7c7c8e757a4ad1c85a30460001b615c7c565b60009150505b92915050565b60006157487f7ca22ff2145a2ba6934394d5cbdb2a8604f4c7bdab16888035aaa91aaed3930260001b615c7c565b6157747f201983f72007d6df97c4a9bbe055dfae927c85589be923ee211789341be17e7060001b615c7c565b6157a07fe87a271d1304444f3cf388ec897cdac41138f1af23f5bed2fa2ef9475c2c1a5b60001b615c7c565b60006157aa611a37565b90506157d87f166f65c925157826b42ca16953067123860da64c9bb19fcaa4e8597e6fcec46060001b615c7c565b6158047f7143add1c049e0732835f98f1ede63e581d9c874d9966dd91bfbe0a627a064b060001b615c7c565b60006158327fe327f200e17bdd6d69e72510fda6c72fa0161cf45908ad787d3b8e1522e1e29b60001b615c7c565b61585e7f9ded2a98e09c066a82ce23f8cb6f3e5d80d3718dd138326108427f6d6bbebbca60001b615c7c565b600061586a86866117ce565b14156158fd5761589c7f67a12b44b14ee2b39f0e6829779a3e6baad229f4932cdbb98c25ca8e3834c1b960001b615c7c565b6158c87fcf1ffd5296a4014230c4e9ccebdac95accc701d3664dff4275eb3c6a8b920bc660001b615c7c565b6158f47f84d8fef28eb1e96a04cf2b1e17b51bac7913da20db7643c9d0b8a95542baaa1d60001b615c7c565b6001905061592a565b6159297f55cc11dddb19c8ac3397b78450196b21d0d57ee4ee33eb338d4a1ebbf82eeb8460001b615c7c565b5b6159567f824b6a53cb3cf968825d103b5600c9cc3fdd32beeaf71ac4a1b2d02de14ec83e60001b615c7c565b6159827fbfd91cd2e846ed6c0b974eb0a1de7bb806fef164539f14872028917ec0f5d04160001b615c7c565b8015615acf576159b47f18c3d76ffe8bb05bba868c635df0ab0d922b9d15e9f118e63b3bb0e39efc0dc360001b615c7c565b6159e07fd08c9632a3d555e9e57e10eb952554a5f9ecf42f040da3c06e22e27279c3d62360001b615c7c565b81600001603b01600085815260200190815260200160002060008673ffffffffffffffffffffffffffffffffffffffff1673ffffffffffffffffffffffffffffffffffffffff16815260200190815260200160002060009055615a657fdbc9fec8b23d27ae51537f1423a8927376f73157e57de82e017d726503523e1c60001b615c7c565b81600001603c01600085815260200190815260200160002060008673ffffffffffffffffffffffffffffffffffffffff1673ffffffffffffffffffffffffffffffffffffffff16815260200190815260200160002060006101000a81549060ff0219169055615afc565b615afb7fa8674b78a4f13bd0549eecd7c513c123f6b9c3e8f549fc800e561af20870c80560001b615c7c565b5b615b287f88fa3d8a3d8bb7edf553b5e30bcec43e3f5f36e11ccf6914b2fcae3dbc13726e60001b615c7c565b615b547ff09b9571b5e354553ed63efe798a616a339a634d385bf190c0de6728b74f8e8e60001b615c7c565b60019250505092915050565b6000615b8e7f1a3a53b72b674e9fbba2eea506869fc1e832cf52984608e3b6b644c364c38d8460001b61696f565b615bba7fea5248eb53ceca51e9874404db8495bf4bfed79e1e0460d574e8881cc87eb9f160001b61696f565b615be67f45ca0170411cbadde61381cc1a57b2465e26b279ad899930aff8b5cc0899a67f60001b61696f565b6000615c147f18f085591cd5a42df19ab342b4d38ceb77ed939bd416a8e9b31bc81ea4bf87e460001b61696f565b823b9050615c447f702ad938ce5280224501eb8d9747dd66cde3ea513ef5ab283b87de1921354b1460001b61696f565b615c707f558ee446ea02a007d77a79cd45635a8601a80b8be39035833c0439e7b35b842360001b61696f565b60008111915050919050565b50565b6060615cad7f8b4fb979e5aafe66c62669dd9702540c8cd51a30a9d5b8ed213fc1ca92c3f89f60001b615c7c565b615cd97f063b201504764c3a27865b3c4459ff6218f8c393d6a599ae390a6dbbc1627cb560001b615c7c565b615d057f2560162c8e78bc0c9eea14912e734a7837bd131ab0ed0b3ccc360af9cd9ad01760001b615c7c565b6000615d0f611a37565b9050615d3d7f5e15be7c75fda58ddd42c95440fea3de45247915a0e08c6c9f142eb66a9e86f160001b615c7c565b615d687ece33fc26bb4ae824ff734f1117244ea60d5ffea217510c1c99ebdb41c2329160001b615c7c565b6000835167ffffffffffffffff811115615d8557615d84616c87565b5b604051908082528060200260200182016040528015615db35781602001602082028036833780820191505090505b509050615de27f8d0172e6c0d43f1ddec9598d552beef86700d61a6be39f878e7a6c699765307c60001b615c7c565b615e0e7fb6d30b0a833b49644935ab31c14a14d518ec31a8fbcbe2a53b04d0bc6252adb260001b615c7c565b60005b845181101561621857615e467fe33c2212541881b702e27626f117ed0f87b67d6084c062a252b65bc5a9ffaa4460001b615c7c565b615e727fde16a0a2259bde52069f95a7699a39aea986cd76387c1f762b32a70607bf2d1860001b615c7c565b6000836000016010016000878481518110615e9057615e8f617550565b5b602002602001015181526020019081526020016000205484600001600f016000888581518110615ec357615ec2617550565b5b6020026020010151815260200190815260200160002054615ee49190617d9e565b1415615fc557615f167f980cddf182f0ae59e39e9842217e32f8c86bc7c8686690411c48aa377025a5af60001b615c7c565b615f427faf2b78903dd34254d23d2e6803744caa34c97af3318e903288f97dc9b73653df60001b615c7c565b615f6e7f73739410971b947a7ee3d613a852cd05a365075c87a42487b860be1d64df82b960001b615c7c565b826000016030016000868381518110615f8a57615f89617550565b5b6020026020010151815260200190815260200160002054828281518110615fb457615fb3617550565b5b6020026020010181815250506161b5565b615ff17f65e7ed5fa0b306f350835049f8edcb36031145485de198783d75fe255315c5d760001b615c7c565b61601d7ff2aed8bbf54ccd43365c6e4b949a772f31bb0313747e93bde4de6052ac02357a60001b615c7c565b6160497fa07095a015e17b3038a6453e4684378e0cce67e10eb249a4f839f27e82234ae560001b615c7c565b82600001601001600086838151811061606557616064617550565b5b602002602001015181526020019081526020016000205483600001600f01600087848151811061609857616097617550565b5b60200260200101518152602001908152602001600020546160b99190617d9e565b670de0b6b3a764000084600001602e0160008885815181106160de576160dd617550565b5b60200260200101518152602001908152602001600020546160fd61686e565b6161079190617d9e565b85600001602f01600089868151811061612357616122617550565b5b60200260200101518152602001908152602001600020546161449190617372565b61614e9190617372565b61615891906173fb565b83600001603001600087848151811061617457616173617550565b5b60200260200101518152602001908152602001600020546161959190617dd2565b8282815181106161a8576161a7617550565b5b6020026020010181815250505b6161e17fce179defe47607acc6e221dcea563b26c6edc40e606b21063f26ba2f7c15ea1060001b615c7c565b61620d7f3b53fa4dbd60bae74b588fb9f6172da68702ee81a9e9abc8ca54106fbc17678660001b615c7c565b806001019050615e11565b506162457f304782d567ec59960167db6ce04f9a906512c249d1de4ee541fe34a84083705160001b615c7c565b6162717fec101d1eddf24d60106ee97d2e68b55de0794ad9b64fb7cc6943edf957d9c95460001b615c7c565b8092505050919050565b60606162a97f47feacfd039c1ae36a516269ae3182f2f9f7a5b99e5f352f0957111f98d3c7d260001b615c7c565b6162d57f037ecf1a65c0501ad8463b97ef40804f2b3d5ce4be2e0fa79fe5849cb839fe6d60001b615c7c565b6163017f81e14ca7a38c77aed905a08f713cebb756e103f6746480632c6249984c9b18a860001b615c7c565b600061630b611a37565b90506163397f34fba52876a477ebad57ad1e6970253d095c30f2bd0cebc38526b75abd203aa360001b615c7c565b6163657f628bfb37b06adb269e5d3f5c0cd027267cb7383e07f559cec135e8a78942d12f60001b615c7c565b600061637084615c7f565b905061639e7feac0d99e0730c1c72a4050e5c25e44f3ecc6402867a24f682e6cf538f6a6664960001b615c7c565b6163ca7fe942fd41acb7f43484e161102b89167cdcf2d2b6218e2e3ea5bba2fc79a5b52860001b615c7c565b6000845167ffffffffffffffff8111156163e7576163e6616c87565b5b6040519080825280602002602001820160405280156164155781602001602082028036833780820191505090505b5090506164447fca3bac37abb1c3b6795411641b12188fad6daddc4c3d5f4c586d2a460fdfc82860001b615c7c565b61646f7e54785feafc86359f3c81206962186a4f2eb67a23adccd282a978bbd64d112560001b615c7c565b60005b8551811015616809576164a77ffe8d8202248ddf4979fcb417ad76245dda1c51c62c231b26ed3f9ab573e4c08560001b615c7c565b6164d37fa365d4b518927af92b5beb22779f7dc48a4459b730d2e7d68a7e80a088f82fb360001b615c7c565b600073ffffffffffffffffffffffffffffffffffffffff168773ffffffffffffffffffffffffffffffffffffffff1614156165b2576165347f126b47c68f977abf56300ac7d67962da92a164c962756299449310bc4cf7edec60001b615c7c565b6165607ffc026247c84d9a293150a1ad20b252961c483b8543e33ad0201f229d922dda7260001b615c7c565b61658c7f1b133b6cd0d10778d97fabca45ae875952175cd763178719fa0b29c85b66c97360001b615c7c565b60008282815181106165a1576165a0617550565b5b6020026020010181815250506167a6565b6165de7f07a6b052cccb0a17f0d670902ebb1ad36614b08ea2b70b3667c5f0cbc530edba60001b615c7c565b61660a7f325fd8f39003826381ace245f342293bfa61d16e24c2854bec6691917b7aea8160001b615c7c565b6166367fa823987d834b5afe2f3a2e5381cda6e2beb09c56f23b99ba012d65c3d2b16e6660001b615c7c565b83600001603201600087838151811061665257616651617550565b5b6020026020010151815260200190815260200160002060008873ffffffffffffffffffffffffffffffffffffffff1673ffffffffffffffffffffffffffffffffffffffff16815260200190815260200160002054670de0b6b3a76400008560000160310160008985815181106166cb576166ca617550565b5b6020026020010151815260200190815260200160002060008a73ffffffffffffffffffffffffffffffffffffffff1673ffffffffffffffffffffffffffffffffffffffff1681526020019081526020016000205485848151811061673257616731617550565b5b60200260200101516167449190617d9e565b6167688a8a868151811061675b5761675a617550565b5b60200260200101516117ce565b6167729190617372565b61677c91906173fb565b6167869190617dd2565b82828151811061679957616798617550565b5b6020026020010181815250505b6167d27f61cf0a8518daf53a887fb77612ad50a8972c585b6fa7f9f2be1e23ba118f32c660001b615c7c565b6167fe7f4055ed16b84a4ac65ccb952b2c5d40f9c1910dd5abd3357c21ad47676b97eb7860001b615c7c565b806001019050616472565b506168367f48250429c4bd3255ca5cde83f20a0e96410688298f07dd5767dd7189dd50edbe60001b615c7c565b6168627ffe25f2ff139089f61f8bda90e88256551f24d66809800f6699746763d821521360001b615c7c565b80935050505092915050565b600061689c7f7b7afad07a47075f1281e0e0a0f39d352ef8d4b570386a463499c8573079431d60001b615c7c565b6168c87fe8061d2bc31341c0b52bd88a7ae4b2a4110154106a62e74880c83a9e3680627560001b615c7c565b6168f47f51b1af4c7d9d9b8d9caa12afc3aa8b63d6268aded5f0263ef24dbe3ce627b0d360001b615c7c565b60006168fe611a37565b905061692c7fa91165fedbf392c558b87b2fb5d2ab3d55579f50a27030b3037691b06263272360001b615c7c565b6169587f21c2b71c932a4cc73921163a959dd0a7a5a36eaf86f75646ac24f3980268bdc360001b615c7c565b61696981600001602d015442616972565b91505090565b50565b60006169a07f09cf066cf4477d51fd8f0ff4ed1b37bdf8b891e521ab608215d27edc787a06b860001b615c7c565b6169cc7f810f3d1c6729b518477eb029da8cb407a29770bdd3640ab9a7e55bec930e777660001b615c7c565b6169f87fcefed25ed7e609929ecabdbdb19cbd365d7d3fbd094f9806f7253fccfc4a725360001b615c7c565b81831115616a065781616a08565b825b905092915050565b6000604051905090565b600080fd5b600080fd5b600073ffffffffffffffffffffffffffffffffffffffff82169050919050565b6000616a4f82616a24565b9050919050565b616a5f81616a44565b8114616a6a57600080fd5b50565b600081359050616a7c81616a56565b92915050565b6000819050919050565b616a9581616a82565b8114616aa057600080fd5b50565b600081359050616ab281616a8c565b92915050565b60008060408385031215616acf57616ace616a1a565b5b6000616add85828601616a6d565b9250506020616aee85828601616aa3565b9150509250929050565b616b0181616a82565b82525050565b6000602082019050616b1c6000830184616af8565b92915050565b600081519050919050565b600082825260208201905092915050565b60005b83811015616b5c578082015181840152602081019050616b41565b83811115616b6b576000848401525b50505050565b6000601f19601f8301169050919050565b6000616b8d82616b22565b616b978185616b2d565b9350616ba7818560208601616b3e565b616bb081616b71565b840191505092915050565b60006020820190508181036000830152616bd58184616b82565b905092915050565b600060208284031215616bf357616bf2616a1a565b5b6000616c0184828501616aa3565b91505092915050565b60008060408385031215616c2157616c20616a1a565b5b6000616c2f85828601616aa3565b9250506020616c4085828601616aa3565b9150509250929050565b616c5381616a44565b82525050565b6000604082019050616c6e6000830185616c4a565b616c7b6020830184616af8565b9392505050565b600080fd5b7f4e487b7100000000000000000000000000000000000000000000000000000000600052604160045260246000fd5b616cbf82616b71565b810181811067ffffffffffffffff82111715616cde57616cdd616c87565b5b80604052505050565b6000616cf1616a10565b9050616cfd8282616cb6565b919050565b600067ffffffffffffffff821115616d1d57616d1c616c87565b5b602082029050602081019050919050565b600080fd5b6000616d46616d4184616d02565b616ce7565b90508083825260208201905060208402830185811115616d6957616d68616d2e565b5b835b81811015616d925780616d7e8882616aa3565b845260208401935050602081019050616d6b565b5050509392505050565b600082601f830112616db157616db0616c82565b5b8135616dc1848260208601616d33565b91505092915050565b600080fd5b600067ffffffffffffffff821115616dea57616de9616c87565b5b616df382616b71565b9050602081019050919050565b82818337600083830152505050565b6000616e22616e1d84616dcf565b616ce7565b905082815260208101848484011115616e3e57616e3d616dca565b5b616e49848285616e00565b509392505050565b600082601f830112616e6657616e65616c82565b5b8135616e76848260208601616e0f565b91505092915050565b600080600080600060a08688031215616e9b57616e9a616a1a565b5b6000616ea988828901616a6d565b9550506020616eba88828901616a6d565b945050604086013567ffffffffffffffff811115616edb57616eda616a1f565b5b616ee788828901616d9c565b935050606086013567ffffffffffffffff811115616f0857616f07616a1f565b5b616f1488828901616d9c565b925050608086013567ffffffffffffffff811115616f3557616f34616a1f565b5b616f4188828901616e51565b9150509295509295909350565b600067ffffffffffffffff821115616f6957616f68616c87565b5b602082029050602081019050919050565b6000616f8d616f8884616f4e565b616ce7565b90508083825260208201905060208402830185811115616fb057616faf616d2e565b5b835b81811015616fd95780616fc58882616a6d565b845260208401935050602081019050616fb2565b5050509392505050565b600082601f830112616ff857616ff7616c82565b5b8135617008848260208601616f7a565b91505092915050565b6000806040838503121561702857617027616a1a565b5b600083013567ffffffffffffffff81111561704657617045616a1f565b5b61705285828601616fe3565b925050602083013567ffffffffffffffff81111561707357617072616a1f565b5b61707f85828601616d9c565b9150509250929050565b600081519050919050565b600082825260208201905092915050565b6000819050602082019050919050565b6170be81616a82565b82525050565b60006170d083836170b5565b60208301905092915050565b6000602082019050919050565b60006170f482617089565b6170fe8185617094565b9350617109836170a5565b8060005b8381101561713a57815161712188826170c4565b975061712c836170dc565b92505060018101905061710d565b5085935050505092915050565b6000602082019050818103600083015261716181846170e9565b905092915050565b60008115159050919050565b61717e81617169565b82525050565b60006020820190506171996000830184617175565b92915050565b6171a881617169565b81146171b357600080fd5b50565b6000813590506171c58161719f565b92915050565b600080604083850312156171e2576171e1616a1a565b5b60006171f085828601616a6d565b9250506020617201858286016171b6565b9150509250929050565b6000806040838503121561722257617221616a1a565b5b600061723085828601616a6d565b925050602061724185828601616a6d565b9150509250929050565b600080600080600060a0868803121561726757617266616a1a565b5b600061727588828901616a6d565b955050602061728688828901616a6d565b945050604061729788828901616aa3565b93505060606172a888828901616aa3565b925050608086013567ffffffffffffffff8111156172c9576172c8616a1f565b5b6172d588828901616e51565b9150509295509295909350565b7f4e487b7100000000000000000000000000000000000000000000000000000000600052602260045260246000fd5b6000600282049050600182168061732957607f821691505b6020821081141561733d5761733c6172e2565b5b50919050565b7f4e487b7100000000000000000000000000000000000000000000000000000000600052601160045260246000fd5b600061737d82616a82565b915061738883616a82565b9250817fffffffffffffffffffffffffffffffffffffffffffffffffffffffffffffffff04831182151516156173c1576173c0617343565b5b828202905092915050565b7f4e487b7100000000000000000000000000000000000000000000000000000000600052601260045260246000fd5b600061740682616a82565b915061741183616a82565b925082617421576174206173cc565b5b828204905092915050565b7f455243313135353a2063616c6c6572206973206e6f7420746f6b656e206f776e60008201527f6572206f7220617070726f766564000000000000000000000000000000000000602082015250565b6000617488602e83616b2d565b91506174938261742c565b604082019050919050565b600060208201905081810360008301526174b78161747b565b9050919050565b7f455243313135353a206163636f756e747320616e6420696473206c656e67746860008201527f206d69736d617463680000000000000000000000000000000000000000000000602082015250565b600061751a602983616b2d565b9150617525826174be565b604082019050919050565b600060208201905081810360008301526175498161750d565b9050919050565b7f4e487b7100000000000000000000000000000000000000000000000000000000600052603260045260246000fd5b7f455243313135353a2061646472657373207a65726f206973206e6f742061207660008201527f616c6964206f776e657200000000000000000000000000000000000000000000602082015250565b60006175db602a83616b2d565b91506175e68261757f565b604082019050919050565b6000602082019050818103600083015261760a816175ce565b9050919050565b600081905092915050565b60008190508160005260206000209050919050565b6000815461763e81617311565b6176488186617611565b945060018216600081146176635760018114617674576176a7565b60ff198316865281860193506176a7565b61767d8561761c565b60005b8381101561769f57815481890152600182019150602081019050617680565b838801955050505b50505092915050565b60006176bb82616b22565b6176c58185617611565b93506176d5818560208601616b3e565b80840191505092915050565b60006176ed8285617631565b91506176f982846176b0565b91508190509392505050565b7f455243313135353a2069647320616e6420616d6f756e7473206c656e6774682060008201527f6d69736d61746368000000000000000000000000000000000000000000000000602082015250565b6000617761602883616b2d565b915061776c82617705565b604082019050919050565b6000602082019050818103600083015261779081617754565b9050919050565b7f455243313135353a207472616e7366657220746f20746865207a65726f20616460008201527f6472657373000000000000000000000000000000000000000000000000000000602082015250565b60006177f3602583616b2d565b91506177fe82617797565b604082019050919050565b60006020820190508181036000830152617822816177e6565b9050919050565b7f455243313135353a20696e73756666696369656e742062616c616e636520666f60008201527f72207472616e7366657200000000000000000000000000000000000000000000602082015250565b6000617885602a83616b2d565b915061789082617829565b604082019050919050565b600060208201905081810360008301526178b481617878565b9050919050565b600060408201905081810360008301526178d581856170e9565b905081810360208301526178e981846170e9565b90509392505050565b7f455243313135353a2073657474696e6720617070726f76616c2073746174757360008201527f20666f722073656c660000000000000000000000000000000000000000000000602082015250565b600061794e602983616b2d565b9150617959826178f2565b604082019050919050565b6000602082019050818103600083015261797d81617941565b9050919050565b60006040820190506179996000830185616af8565b6179a66020830184616af8565b9392505050565b7f556e64657220636f6f6c696e6720706572696f64000000000000000000000000600082015250565b60006179e3601483616b2d565b91506179ee826179ad565b602082019050919050565b60006020820190508181036000830152617a12816179d6565b9050919050565b600081519050919050565b600082825260208201905092915050565b6000617a4082617a19565b617a4a8185617a24565b9350617a5a818560208601616b3e565b617a6381616b71565b840191505092915050565b600060a082019050617a836000830188616c4a565b617a906020830187616c4a565b8181036040830152617aa281866170e9565b90508181036060830152617ab681856170e9565b90508181036080830152617aca8184617a35565b90509695505050505050565b60007fffffffff0000000000000000000000000000000000000000000000000000000082169050919050565b617b0b81617ad6565b8114617b1657600080fd5b50565b600081519050617b2881617b02565b92915050565b600060208284031215617b4457617b43616a1a565b5b6000617b5284828501617b19565b91505092915050565b60008160e01c9050919050565b600060033d1115617b875760046000803e617b84600051617b5b565b90505b90565b600060443d1015617b9a57617c1d565b617ba2616a10565b60043d036004823e80513d602482011167ffffffffffffffff82111715617bca575050617c1d565b808201805167ffffffffffffffff811115617be85750505050617c1d565b80602083010160043d038501811115617c05575050505050617c1d565b617c1482602001850186616cb6565b82955050505050505b90565b7f455243313135353a207472616e7366657220746f206e6f6e2d4552433131353560008201527f526563656976657220696d706c656d656e746572000000000000000000000000602082015250565b6000617c7c603483616b2d565b9150617c8782617c20565b604082019050919050565b60006020820190508181036000830152617cab81617c6f565b9050919050565b7f455243313135353a204552433131353552656365697665722072656a6563746560008201527f6420746f6b656e73000000000000000000000000000000000000000000000000602082015250565b6000617d0e602883616b2d565b9150617d1982617cb2565b604082019050919050565b60006020820190508181036000830152617d3d81617d01565b9050919050565b600060a082019050617d596000830188616c4a565b617d666020830187616c4a565b617d736040830186616af8565b617d806060830185616af8565b8181036080830152617d928184617a35565b90509695505050505050565b6000617da982616a82565b9150617db483616a82565b925082821015617dc757617dc6617343565b5b828203905092915050565b6000617ddd82616a82565b9150617de883616a82565b9250827fffffffffffffffffffffffffffffffffffffffffffffffffffffffffffffffff03821115617e1d57617e1c617343565b5b82820190509291505056fea2646970667358221220d9aab18457b634f186a3295a2e0dd89ba5c0550bf9981994ea0f1ccdf10d43e864736f6c63430008080033",
  "linkReferences": {},
  "deployedLinkReferences": {}
}