{
  "_format": "hh-sol-artifact-1",
  "contractName": "Test1Facet",
  "sourceName": "contracts/shared/facets/Test1Facet.sol",
  "abi": [
    {
      "anonymous": false,
      "inputs": [
        {
          "indexed": false,
          "internalType": "address",
          "name": "something",
          "type": "address"
        }
      ],
      "name": "TestEvent",
      "type": "event"
    },
    {
      "inputs": [
        {
          "internalType": "bytes4",
          "name": "_interfaceID",
          "type": "bytes4"
        }
      ],
      "name": "supportsInterface",
      "outputs": [
        {
          "internalType": "bool",
          "name": "",
          "type": "bool"
        }
      ],
      "stateMutability": "view",
      "type": "function"
    },
    {
      "inputs": [],
      "name": "test1Func1",
      "outputs": [],
      "stateMutability": "nonpayable",
      "type": "function"
    },
    {
      "inputs": [],
      "name": "test1Func10",
      "outputs": [],
      "stateMutability": "nonpayable",
      "type": "function"
    },
    {
      "inputs": [],
      "name": "test1Func11",
      "outputs": [],
      "stateMutability": "nonpayable",
      "type": "function"
    },
    {
      "inputs": [],
      "name": "test1Func12",
      "outputs": [],
      "stateMutability": "nonpayable",
      "type": "function"
    },
    {
      "inputs": [],
      "name": "test1Func13",
      "outputs": [],
      "stateMutability": "nonpayable",
      "type": "function"
    },
    {
      "inputs": [],
      "name": "test1Func14",
      "outputs": [],
      "stateMutability": "nonpayable",
      "type": "function"
    },
    {
      "inputs": [],
      "name": "test1Func15",
      "outputs": [],
      "stateMutability": "nonpayable",
      "type": "function"
    },
    {
      "inputs": [],
      "name": "test1Func16",
      "outputs": [],
      "stateMutability": "nonpayable",
      "type": "function"
    },
    {
      "inputs": [],
      "name": "test1Func17",
      "outputs": [],
      "stateMutability": "nonpayable",
      "type": "function"
    },
    {
      "inputs": [],
      "name": "test1Func18",
      "outputs": [],
      "stateMutability": "nonpayable",
      "type": "function"
    },
    {
      "inputs": [],
      "name": "test1Func19",
      "outputs": [],
      "stateMutability": "nonpayable",
      "type": "function"
    },
    {
      "inputs": [],
      "name": "test1Func2",
      "outputs": [],
      "stateMutability": "nonpayable",
      "type": "function"
    },
    {
      "inputs": [],
      "name": "test1Func20",
      "outputs": [],
      "stateMutability": "nonpayable",
      "type": "function"
    },
    {
      "inputs": [],
      "name": "test1Func3",
      "outputs": [],
      "stateMutability": "nonpayable",
      "type": "function"
    },
    {
      "inputs": [],
      "name": "test1Func4",
      "outputs": [],
      "stateMutability": "nonpayable",
      "type": "function"
    },
    {
      "inputs": [],
      "name": "test1Func5",
      "outputs": [],
      "stateMutability": "nonpayable",
      "type": "function"
    },
    {
      "inputs": [],
      "name": "test1Func6",
      "outputs": [],
      "stateMutability": "nonpayable",
      "type": "function"
    },
    {
      "inputs": [],
      "name": "test1Func7",
      "outputs": [],
      "stateMutability": "nonpayable",
      "type": "function"
    },
    {
      "inputs": [],
      "name": "test1Func8",
      "outputs": [],
      "stateMutability": "nonpayable",
      "type": "function"
    },
    {
      "inputs": [],
      "name": "test1Func9",
      "outputs": [],
      "stateMutability": "nonpayable",
      "type": "function"
    }
  ],
  "bytecode": "0x608060405234801561001057600080fd5b50610738806100206000396000f3fe608060405234801561001057600080fd5b50600436106101775760003560e01c806351b68a4d116100d85780639abf97aa1161008c578063cd0bae0911610066578063cd0bae0914610256578063cf3bbe1814610260578063db32da151461026a57610177565b80639abf97aa14610238578063b0e8fcc714610242578063cbb835f61461024c57610177565b806377e9d0d6116100bd57806377e9d0d61461021a57806381b5207d1461022457806387952d221461022e57610177565b806351b68a4d1461020657806371a99d6f1461021057610177565b806324c1d5a71161012f5780632cb83248116101145780632cb83248146101e85780634484b3b9146101f257806350eb3f43146101fc57610177565b806324c1d5a7146101d4578063292c460d146101de57610177565b8063110460471161016057806311046047146101b657806319c841ab146101c057806319e3b533146101ca57610177565b806301ffc9a71461017c5780630716c2ae146101ac575b600080fd5b6101966004803603810190610191919061069f565b610274565b6040516101a391906106e7565b60405180910390f35b6101b46102a7565b005b6101be6102d5565b005b6101c8610303565b005b6101d2610331565b005b6101dc61035f565b005b6101e661038d565b005b6101f06103bb565b005b6101fa6103e9565b005b610204610417565b005b61020e610445565b005b610218610473565b005b6102226104a1565b005b61022c6104cf565b005b6102366104fd565b005b61024061052b565b005b61024a610559565b005b610254610587565b005b61025e6105b5565b005b6102686105e3565b005b610272610611565b005b60006102a27ff76334baf575b6dc1d042b94b31066c06bc38e664eedeba3dfeecb033a6de08860001b61063f565b919050565b6102d37fba423c76f9e0e5dee4deabb2787c11c0cafbb37ee61ade12bbd2688d67a63b1860001b61063f565b565b6103017f0446535d921203b907da72f19681d47644f9529d9e87c6cfd2f6cb76943492ce60001b61063f565b565b61032f7fa3f8ee98b072d375da86d19bdbdcc6753bde321d41a81a48b1e72493c00ac6d360001b61063f565b565b61035d7fa23dea6f6706879220e5cfeed39e3170f4cc2944c8b4a2136239fb9dbdca863160001b61063f565b565b61038b7f2021069dd2dc028b21b426bf5bd9b081bb71868e4cc1da808cc2b4ee8688051760001b61063f565b565b6103b97fdd429ccb3cea53fe5ad57df0f7eda699085ac97af869dafa1bf6ffa50e0a57e960001b61063f565b565b6103e77f79f5dab1c6c1e6ad6d4b102f1570ed6c48c4d9f623bf85bdf30c577b4d7ff59260001b61063f565b565b6104157fc6e22e83cab5d16888d6a67c2e2d06ba3884e10d75c33f36e08e96782573079360001b61063f565b565b6104437f043aeb7a2526821e355552d3a4a2fc1c19d670fea662e5d69cc03c63c04b2dba60001b61063f565b565b6104717f5283a91ac1410b17d92513a03e5f4706f0b6d96be3026ce9ced7e7742ae18c6a60001b61063f565b565b61049f7f5c08f11e7d8e9c3976a273e2e70f2a28641c43ce7f26072626c27d5d62966d3c60001b61063f565b565b6104cd7f9730f0aa8692a2fbe0f25c0c0233e14dbb24c72744c7d1bc85c2fa85290c2a3060001b61063f565b565b6104fb7f27b87cb2fedbe6e2decae182aef563b728ae027ab97094f99bca72508648cd3260001b61063f565b565b6105297f94bb6d807ce9947c6531c27d369686e1c4173f53da8ad7815d2a229eb6f4075f60001b61063f565b565b6105577fb08c50c3503b21cb692a387e35f6f6548d1257272d5103542601c12906421dfb60001b61063f565b565b6105857f7f6a888c5891bf96ecb250a820eb8c6481459cc66bc992126713c23e0b4c022d60001b61063f565b565b6105b37f4cc4b39f53b6e8c61709e69767d6f91c3aff3999402d7e4f3495b10b8b242a3460001b61063f565b565b6105e17ffa0c6cf6304496b6c33e04d8b72e499d6cea252db4dfe053af39f7ff8d14c85960001b61063f565b565b61060f7fbc5b48f16051b9c44b30ea944e00771d6daf62dc0eed72342187bd26658be18760001b61063f565b565b61063d7f1cdaf7294827e1fc600177d9d7ee68aa4d350cd32b45fd2010a8ca23ae63c53160001b61063f565b565b50565b600080fd5b60007fffffffff0000000000000000000000000000000000000000000000000000000082169050919050565b61067c81610647565b811461068757600080fd5b50565b60008135905061069981610673565b92915050565b6000602082840312156106b5576106b4610642565b5b60006106c38482850161068a565b91505092915050565b60008115159050919050565b6106e1816106cc565b82525050565b60006020820190506106fc60008301846106d8565b9291505056fea2646970667358221220aecd331cbd41588022a560c686e45e7f231d131dd5308814820cfddb2fac96ff64736f6c63430008080033",
  "linkReferences": {},
  "deployedLinkReferences": {}
}