{
  "_format": "hh-sol-artifact-1",
  "contractName": "Test1Facet",
  "sourceName": "contracts/shared/facets/Test1Facet.sol",
  "abi": [
    {
      "anonymous": false,
      "inputs": [
        {
          "indexed": false,
          "internalType": "address",
          "name": "something",
          "type": "address"
        }
      ],
      "name": "TestEvent",
      "type": "event"
    },
    {
      "inputs": [
        {
          "internalType": "bytes4",
          "name": "_interfaceID",
          "type": "bytes4"
        }
      ],
      "name": "supportsInterface",
      "outputs": [
        {
          "internalType": "bool",
          "name": "",
          "type": "bool"
        }
      ],
      "stateMutability": "view",
      "type": "function"
    },
    {
      "inputs": [],
      "name": "test1Func1",
      "outputs": [],
      "stateMutability": "nonpayable",
      "type": "function"
    },
    {
      "inputs": [],
      "name": "test1Func10",
      "outputs": [],
      "stateMutability": "nonpayable",
      "type": "function"
    },
    {
      "inputs": [],
      "name": "test1Func11",
      "outputs": [],
      "stateMutability": "nonpayable",
      "type": "function"
    },
    {
      "inputs": [],
      "name": "test1Func12",
      "outputs": [],
      "stateMutability": "nonpayable",
      "type": "function"
    },
    {
      "inputs": [],
      "name": "test1Func13",
      "outputs": [],
      "stateMutability": "nonpayable",
      "type": "function"
    },
    {
      "inputs": [],
      "name": "test1Func14",
      "outputs": [],
      "stateMutability": "nonpayable",
      "type": "function"
    },
    {
      "inputs": [],
      "name": "test1Func15",
      "outputs": [],
      "stateMutability": "nonpayable",
      "type": "function"
    },
    {
      "inputs": [],
      "name": "test1Func16",
      "outputs": [],
      "stateMutability": "nonpayable",
      "type": "function"
    },
    {
      "inputs": [],
      "name": "test1Func17",
      "outputs": [],
      "stateMutability": "nonpayable",
      "type": "function"
    },
    {
      "inputs": [],
      "name": "test1Func18",
      "outputs": [],
      "stateMutability": "nonpayable",
      "type": "function"
    },
    {
      "inputs": [],
      "name": "test1Func19",
      "outputs": [],
      "stateMutability": "nonpayable",
      "type": "function"
    },
    {
      "inputs": [],
      "name": "test1Func2",
      "outputs": [],
      "stateMutability": "nonpayable",
      "type": "function"
    },
    {
      "inputs": [],
      "name": "test1Func20",
      "outputs": [],
      "stateMutability": "nonpayable",
      "type": "function"
    },
    {
      "inputs": [],
      "name": "test1Func3",
      "outputs": [],
      "stateMutability": "nonpayable",
      "type": "function"
    },
    {
      "inputs": [],
      "name": "test1Func4",
      "outputs": [],
      "stateMutability": "nonpayable",
      "type": "function"
    },
    {
      "inputs": [],
      "name": "test1Func5",
      "outputs": [],
      "stateMutability": "nonpayable",
      "type": "function"
    },
    {
      "inputs": [],
      "name": "test1Func6",
      "outputs": [],
      "stateMutability": "nonpayable",
      "type": "function"
    },
    {
      "inputs": [],
      "name": "test1Func7",
      "outputs": [],
      "stateMutability": "nonpayable",
      "type": "function"
    },
    {
      "inputs": [],
      "name": "test1Func8",
      "outputs": [],
      "stateMutability": "nonpayable",
      "type": "function"
    },
    {
      "inputs": [],
      "name": "test1Func9",
      "outputs": [],
      "stateMutability": "nonpayable",
      "type": "function"
    }
  ],
  "bytecode": "0x608060405234801561001057600080fd5b50610225806100206000396000f3fe608060405234801561001057600080fd5b50600436106101775760003560e01c806351b68a4d116100d85780639abf97aa1161008c578063cd0bae0911610066578063cd0bae09146101a4578063cf3bbe18146101a4578063db32da15146101a457600080fd5b80639abf97aa146101a4578063b0e8fcc7146101a4578063cbb835f6146101a457600080fd5b806377e9d0d6116100bd57806377e9d0d6146101a457806381b5207d146101a457806387952d22146101a457600080fd5b806351b68a4d146101a457806371a99d6f146101a457600080fd5b806324c1d5a71161012f5780632cb83248116101145780632cb83248146101a45780634484b3b9146101a457806350eb3f43146101a457600080fd5b806324c1d5a7146101a4578063292c460d146101a457600080fd5b8063110460471161016057806311046047146101a457806319c841ab146101a457806319e3b533146101a457600080fd5b806301ffc9a71461017c5780630716c2ae146101a4575b600080fd5b61019061018a3660046101a6565b50600090565b604051901515815260200160405180910390f35b005b6000602082840312156101b857600080fd5b81357fffffffff00000000000000000000000000000000000000000000000000000000811681146101e857600080fd5b939250505056fea2646970667358221220b17f0224796d6427c11079922e8332e3edcefc634f989b34e9a527f99e44873164736f6c63430008080033",
  "linkReferences": {},
  "deployedLinkReferences": {}
}