{
  "_format": "hh-sol-artifact-1",
  "contractName": "AvalancheValidatorDepositFacet",
  "sourceName": "contracts/validator/facets/AvalancheValidatorDepositFacet.sol",
  "abi": [
    {
      "anonymous": false,
      "inputs": [
        {
          "indexed": true,
          "internalType": "address",
          "name": "costumer",
          "type": "address"
        },
        {
          "indexed": false,
          "internalType": "uint256",
          "name": "amount",
          "type": "uint256"
        },
        {
          "indexed": false,
          "internalType": "uint256",
          "name": "time",
          "type": "uint256"
        }
      ],
      "name": "avalancheValidatorShareSold",
      "type": "event"
    },
    {
      "anonymous": false,
      "inputs": [
        {
          "indexed": true,
          "internalType": "uint256",
          "name": "rebatePercentage",
          "type": "uint256"
        },
        {
          "indexed": true,
          "internalType": "uint256",
          "name": "_numberOfRebates",
          "type": "uint256"
        },
        {
          "indexed": false,
          "internalType": "address",
          "name": "sender",
          "type": "address"
        },
        {
          "indexed": false,
          "internalType": "uint256",
          "name": "time",
          "type": "uint256"
        }
      ],
      "name": "incentivesDeposited",
      "type": "event"
    },
    {
      "anonymous": false,
      "inputs": [
        {
          "indexed": true,
          "internalType": "uint256",
          "name": "value",
          "type": "uint256"
        },
        {
          "indexed": false,
          "internalType": "address",
          "name": "sender",
          "type": "address"
        },
        {
          "indexed": false,
          "internalType": "uint256",
          "name": "time",
          "type": "uint256"
        }
      ],
      "name": "liquidStakingFundsDeposited",
      "type": "event"
    },
    {
      "anonymous": false,
      "inputs": [
        {
          "indexed": true,
          "internalType": "uint256[5]",
          "name": "amount",
          "type": "uint256[5]"
        },
        {
          "indexed": false,
          "internalType": "uint256",
          "name": "value",
          "type": "uint256"
        },
        {
          "indexed": false,
          "internalType": "uint256",
          "name": "time",
          "type": "uint256"
        }
      ],
      "name": "refundsDeposited",
      "type": "event"
    },
    {
      "anonymous": false,
      "inputs": [
        {
          "indexed": true,
          "internalType": "address",
          "name": "burner",
          "type": "address"
        },
        {
          "indexed": false,
          "internalType": "uint256[]",
          "name": "ids",
          "type": "uint256[]"
        },
        {
          "indexed": false,
          "internalType": "uint256[]",
          "name": "amounts",
          "type": "uint256[]"
        }
      ],
      "name": "sharesBurned",
      "type": "event"
    },
    {
      "anonymous": false,
      "inputs": [
        {
          "indexed": true,
          "internalType": "uint256",
          "name": "value",
          "type": "uint256"
        },
        {
          "indexed": false,
          "internalType": "address",
          "name": "sender",
          "type": "address"
        },
        {
          "indexed": false,
          "internalType": "uint256",
          "name": "time",
          "type": "uint256"
        }
      ],
      "name": "validatorFundsDeposited",
      "type": "event"
    },
    {
      "inputs": [
        {
          "internalType": "uint256[]",
          "name": "ids",
          "type": "uint256[]"
        },
        {
          "internalType": "uint256[]",
          "name": "amounts",
          "type": "uint256[]"
        }
      ],
      "name": "burnShares",
      "outputs": [
        {
          "internalType": "bool",
          "name": "",
          "type": "bool"
        }
      ],
      "stateMutability": "nonpayable",
      "type": "function"
    },
    {
      "inputs": [
        {
          "internalType": "uint256",
          "name": "_rebatePercentageInBPS",
          "type": "uint256"
        },
        {
          "internalType": "uint256",
          "name": "_numberOfRebates",
          "type": "uint256"
        }
      ],
      "name": "depositIncentives",
      "outputs": [
        {
          "internalType": "bool",
          "name": "",
          "type": "bool"
        }
      ],
      "stateMutability": "payable",
      "type": "function"
    },
    {
      "inputs": [
        {
          "internalType": "uint256[5]",
          "name": "_amount",
          "type": "uint256[5]"
        },
        {
          "internalType": "uint256[5]",
          "name": "_IDs",
          "type": "uint256[5]"
        },
        {
          "internalType": "bytes32",
          "name": "_merkletree",
          "type": "bytes32"
        },
        {
          "internalType": "uint256",
          "name": "_redeemTimeInSeconds",
          "type": "uint256"
        }
      ],
      "name": "depositRefunds",
      "outputs": [
        {
          "internalType": "bool",
          "name": "",
          "type": "bool"
        }
      ],
      "stateMutability": "payable",
      "type": "function"
    },
    {
      "inputs": [
        {
          "internalType": "uint256",
          "name": "_liquidStakigRewardsInWei",
          "type": "uint256"
        },
        {
          "internalType": "uint256[]",
          "name": "_ids",
          "type": "uint256[]"
        }
      ],
      "name": "depositRewards",
      "outputs": [
        {
          "internalType": "bool",
          "name": "",
          "type": "bool"
        }
      ],
      "stateMutability": "payable",
      "type": "function"
    },
    {
      "inputs": [
        {
          "internalType": "uint256",
          "name": "_amount",
          "type": "uint256"
        },
        {
          "internalType": "bytes",
          "name": "_data",
          "type": "bytes"
        }
      ],
      "name": "mintAvalancheValidatorShareAVAX",
      "outputs": [
        {
          "internalType": "bool",
          "name": "",
          "type": "bool"
        }
      ],
      "stateMutability": "payable",
      "type": "function"
    }
  ],
  "bytecode": "0x60806040523480156200001157600080fd5b5061dbe780620000226000396000f3fe60806040526004361061005a5760003560e01c8063784d11b711610043578063784d11b7146100cc578063a02890e6146100fc578063eda50ffa1461012c5761005a565b8063201de44d1461005f5780632254b6771461009c575b600080fd5b34801561006b57600080fd5b506100866004803603810190610081919061c2b3565b61015c565b604051610093919061c346565b60405180910390f35b6100b660048036038101906100b1919061c448565b610a16565b6040516100c3919061c346565b60405180910390f35b6100e660048036038101906100e1919061c4b2565b6110a6565b6040516100f3919061c346565b60405180910390f35b6101166004803603810190610111919061c5c3565b612123565b604051610123919061c346565b60405180910390f35b6101466004803603810190610141919061c61f565b6131a1565b604051610153919061c346565b60405180910390f35b600061018a7f506a72647c52092d1db57ba20761144210b871d18a041a702b18279644b9705f60001b613bf3565b6101b67f22e825c3d8e767e130c9ecafcbb409617be7c75b88a6387120ab6090a43e4a6e60001b613bf3565b6101e27ffb8f2110c23269454506caa2296e51208747861ef25dc703d7b4af30c9fb259260001b613bf3565b60006101ec613bf6565b905061021a7f79bd95faafc99c54677b352a7e2ac1857c11da8cb8579e8ec730530a5c1c8d7d60001b613bf3565b6102467f6c942d95766237af4eb4379476f68f2c1b69c45ff9bc6e423bb31c36e81be80060001b613bf3565b6102727fe30bd326c2c175867c1dd6b34968e9efcd295e254390648bc454a74f846695b360001b613bf3565b82518451146102b6576040517f08c379a00000000000000000000000000000000000000000000000000000000081526004016102ad9061c6bc565b60405180910390fd5b6102e27f6dc1e5aed01d6a061f58cd72f8b466255e15c434140bcf8e2846b02db5cacf4e60001b613bf3565b61030e7f2e34db94c919682b3115b394032e1541cb44b48ca506bbe192992c0e8ecff16060001b613bf3565b61033a7ff6bfe06ad96d9246a2597572cdb6c5e6f0d5dc32531f4ef9c79beb4ad415485560001b613bf3565b610342613cd4565b5061036f7fa9242980937028afdc69f7e03c93969876d5e2579debaedc5e9dde7d50e5666560001b613bf3565b61039b7fed9e58008f976233143c026ac0eadf8d2fb75606e8f50b7dcc907f806f26236b60001b613bf3565b6103a633338661401b565b6103d27f2349e1d4a96fdd5bacfabb59dde27764b9c298c4cdd5f619c23a9940ba3ce8b460001b613bf3565b6103fe7facb1020c0eac10043637a503b8224a3856b413555a9a1e4bfbebaba46c2b761960001b613bf3565b61040933858561482c565b6104357fdd9208348469812752b01c1a7cf237dac5770531ef7a53d57fe6381ec19aabd560001b613bf3565b6104617f902b2d69c209f445bd3a6587cc032ae3d39b25d89897aedcdaac5adcdd3565b960001b613bf3565b60005b84518110156107c5576104997f1b381fdd23b069fc99fdc12f18df13464f350d50848b42586463c6e645776bf260001b613bf3565b6104c57f4891dd3d97aa3d134403610c87fdabf725b5964267ce89e6103c70f4a4e6907560001b613bf3565b6104f17f420da71559ce5ec09c31d716c8b9a98436d5b6ac153e7d0ee4991489aee9bac560001b613bf3565b8381815181106105045761050361c6dc565b5b602002602001015182600001600e0160008784815181106105285761052761c6dc565b5b60200260200101518152602001908152602001600020600082825403925050819055506105777fb0a8da62bb52293bea819509e842c8ac4e9328e3366a3e12fd2a7e90b7405c6560001b613bf3565b6105a37f777777ab4cca5cb14b7c0da301a1d989b45cf5de249dbeabaf82de477527664460001b613bf3565b8381815181106105b6576105b561c6dc565b5b602002602001015182600001600f0160008784815181106105da576105d961c6dc565b5b60200260200101518152602001908152602001600020600082825403925050819055506106297f88541ba169d7d8d028e926cb6d630abdfa0060d56937f23aa905528ea989b7d660001b613bf3565b6106557f4c4991f4b7a97cab369bbca50881a6ae0a84a5f461032a9f8737036e89ebcce160001b613bf3565b6106793386838151811061066c5761066b61c6dc565b5b6020026020010151615110565b15610761576106aa7f35a8bf7dc6713f4ff657454a3738b2818e0f2858628aa423f80ba7c249fb62a960001b613bf3565b6106d67fcd92e62bbd2fb4230639fd7297e7d08354c16fc1ef19bbec902d609101458cd460001b613bf3565b6107027f817489bffb2e2baf736a91f08f4e03ab1b69b00fe95fe21949bd8dc4c53460bb60001b613bf3565b8381815181106107155761071461c6dc565b5b60200260200101518260000160100160008784815181106107395761073861c6dc565b5b602002602001015181526020019081526020016000206000828254039250508190555061078e565b61078d7f9a337b5c3aea754a929efd5a380091d308b416a4010a085276b4980e2fca301560001b613bf3565b5b6107ba7f06f07f7726e738838aeb79fc4925f7405ee70fc20c918c4087cc6250e286566e60001b613bf3565b806001019050610464565b506107f27f99a7afbee7d68ced64805eb7763e715b6c43942ab797a74aaac10895cd688e3560001b613bf3565b61081e7f2f9bde1b16c97624141751491d55ff45cbbb540402750b5571a257b5222cfde360001b613bf3565b60005b845181101561090a576108567fd80c276fa3684302df16e338f4cbe2b612a97eda1bd48baed78c9c185ea2673460001b613bf3565b6108827f144cc43728392a5389781075d7d998b8c7e3eaf3278b06742f508e75c2ae2d8f60001b613bf3565b6108a6338683815181106108995761089861c6dc565b5b6020026020010151615375565b506108d37f5e499be00d354845ad95753db9b7a63a13c1e9715814e6fdf54ffd58270e277d60001b613bf3565b6108ff7f94724e575f24ed9911168008d109036f20d807a6696ad38a99c8f2bf0ec63e9b60001b613bf3565b806001019050610821565b506109377fbc48d2c5a787918c6ff5cab834f5b0d7f788ee5ca0221df32b1059b57bd36c0460001b613bf3565b6109637fe8a2ffb74e2335f156fc30b844f4959b15d832451180165b50c13c51d73871d360001b613bf3565b3373ffffffffffffffffffffffffffffffffffffffff167f12101e9f78254ba831796c8c1ee8115d4f29c10597b149f5bef1bc1202549ea985856040516109ab92919061c7c9565b60405180910390a26109df7f669e57916e02ad75b080c2ce7a213a3443853b60c0238902d0a534795f1fdce860001b613bf3565b610a0b7ff73c3915d9ca47dc6d5c9b51197f8987f427601175b8ae8844646ac944be43d860001b613bf3565b600191505092915050565b6000610a447fa86ce9659a9b666d99aff8bb9e8c1ccbbb09f8402193f32691e1925d828a811860001b613bf3565b610a707fedf63cb4eea0469bc72bc3076de221e22f2f56c7f2415b7ef6398ed48d5dcfda60001b613bf3565b610a9c7fef047ccaf911e90fef1ee98c8fc8693a393512d5dbff820ff66ef167de6522c560001b613bf3565b610aa46157bb565b610ad07f90512315b3e5d69cce725ae3c98e6a47266fcfdcad2f240085ba13802c4c06d960001b613bf3565b610afc7fddd74731e05ed4cd94d6804a9ffb8fbeb4474d25a5a1a42ad8dfb876def100a060001b613bf3565b6000610b06613bf6565b9050610b347f0f7cd97e16f463294ec8c6667a03471bc40ff766532a2763b2e5bfc33b82a17160001b613bf3565b610b607f76a5e51ed0b164eb662c405c0ee7b7be575fab87abb41b23030bf077ead5281f60001b613bf3565b610b8c7f11d8609bc077fd8471d4a29b8d0ba4ad2eb2caeb54f9c52fa794b08686f27ea960001b613bf3565b600580148015610b9d575060058011155b610bdc576040517f08c379a0000000000000000000000000000000000000000000000000000000008152600401610bd39061c84c565b60405180910390fd5b610c087f4578d3274dbceb3ad519a9a5345b0b48a31c1b7345dac03e71c5f0c66167228e60001b613bf3565b610c347f5ac25075675923349bb5d34d4b252f4f1c972d5768732f196d1136af235fa14960001b613bf3565b610c607fdd9728cbef63d24fca5832ac91f777c1e10852478fab4c7da77a7dbcdfe5b2a560001b613bf3565b600080610c8488846000016024015485600001603501548660000160150154615932565b91509150610cb47f3dfdb838ce14560a0f314fd9b73bcb16d032cc079253bf906d6c1ca829ce810060001b613bf3565b610ce07f90d0474cac3dee40185f4356b408b03e4d163a349bcee800fcb9615389d65fc060001b613bf3565b610d0c7f177d4c3a1c10e6aa157a1b146f8e967a5414ce0aa070c4d60d5f3a10dede84fb60001b613bf3565b34821115610d4f576040517f08c379a0000000000000000000000000000000000000000000000000000000008152600401610d469061c8b8565b60405180910390fd5b610d7b7f8b10e7071d1ce83b084ab60dd8ada75d590c5895cae1d62a5d67f1b6a5226cd260001b613bf3565b610da77ff661fe6cf468aeaee444ea2e8173808565c5f5829398ef2162f83efb53fc099860001b613bf3565b610dd37f5e97d1853996bbfdcad1793aabdb01536befb80552372555c0c0311a0f877e0c60001b613bf3565b348360000160340181905550610e0b7f7c4c702817af9c06df04b910a846209be4a0e0a049c4b727e20eae53560a8f0f60001b613bf3565b610e377f0c1792b069544beadc0960e4843f95836218cbcba556c10f777412fee51036f760001b613bf3565b858360000160380181905550610e6f7f9bb5257b7a32ec3475ae234b6c75b0898e00fb249b49a0363e09942d70305ae560001b613bf3565b610e9b7f2d507190e396ec9db997a2a9a74066bcb26579da0917bc902cb608874b2fc94760001b613bf3565b8442610ea7919061c907565b8360000160390181905550610ede7f263d518af5b56b23d4aaedebc38be83c1ce280059c58f88702efc9795b585d2b60001b613bf3565b610f097ef458b4e9b4cf2bd30d93b714fb055026861acee11d3cbf2b0ce422a3e9df0d60001b613bf3565b808360000160370181905550610f417fc80f83d6e3f6e8e7839c6c2af526b5c79164f39ea674324592db1283f043d35860001b613bf3565b610f6d7fbfe4c31458fe0b0f5084c6257d067dfd03ad7723fd84c995765f9cd5cd509f3260001b613bf3565b60018360000160330160006101000a81548160ff021916908315150217905550610fb97f98bb138d4999ef37f3e8f09a57442d2c15500f912dd92e96c5f78e13546b250d60001b613bf3565b610fe57fbf39f00a39a59a20646ae656681c826bd179e690faa536c982bcb3e73d854c5460001b613bf3565b87604051610ff3919061ca08565b60405180910390207f2d5b148d34b0b1055c3632a7fea828ff183014bba9e68cf35c061d7def1bad0f348742611029919061c907565b60405161103792919061ca32565b60405180910390a261106b7ffb6c5779597229476ba7c9ac962a0f61515ce6231020b261836042185d26c15b60001b613bf3565b6110977f2dc61504f830c10995ae316d5a4062c75e8006034254eb7717db622543259deb60001b613bf3565b60019350505050949350505050565b60006110d47f07518cca7ebbf4437772fe2cb690ff64777393bd9fd7eb92d0b47588cfe8214160001b615be7565b6111007fabc08d8b1539454e09273157f545fe4d0ef7695ab89c1394e5212c033c437e7960001b615be7565b61112c7f19d77c6eb9bf7fa50665a0969471cf295bfd2c58da71341ebf868c4cfedd5d0360001b615be7565b6000611136615bea565b90506111647f72f69fd9e290e66cfab98577692648fa3d5f8c684e8a73ded40194f628c836e160001b615be7565b6111907f36e3d408aa429b34170b7218918f6c8abf4f6d588a98ff7574bb57bb37afc81460001b615be7565b6111bc7f28d0b526291cfc9268f4e9e0873a4d41b2d2d897a4d50b193103c6f44f06bc7960001b615be7565b600281600001541415611204576040517f08c379a00000000000000000000000000000000000000000000000000000000081526004016111fb9061caa7565b60405180910390fd5b6112307f722cacd14aa9d7e08255167707b50322edd4a13c7bd2d53ffa8637b8bd83971260001b615be7565b61125c7f6ea6194c47f224b0ebc691ec7a019eb110e7ca205f8642da782fedbb941fa78360001b615be7565b6112887f7bf39aae89ed9f6b7d5c3470b41d26e979f443feb71772d6646fb5723621ef6460001b615be7565b600281600001819055506112be7f2204524f98dc310b2eff42f1da945fe4e1cd4b391fdce249ec0bedaf99ec918760001b615be7565b6112ea7fffb22cdf2a7878eeb35217349b813668ff953538969178d24c49cf97e1c5d5b060001b613bf3565b6113167f1d801b2e902b794ccd60683d49773a95556fe5d29a004c0918f9ab2f1e475fc560001b613bf3565b6113427ff6b5747acba39dfaada419fcba0ea86c122d3515b664892fc974b1d95b88813060001b613bf3565b61134a6157bb565b6113767f81bfcdad48b61c0df9bdde0ba02a91285b68ec0fe38e69fb7731d20bed475d5860001b613bf3565b6113a27f4dd83d91565841029b28efce71c34ae2ee7ff93d6b8bdc35b86e672e6b1dd95760001b613bf3565b60006113ac613bf6565b90506113da7f3f6f577d0f3635d5d142ffa55c2ab5a6cf7ef8504a3a8e0d7093dda754f48af660001b613bf3565b6114067fe3bc4ba3536d700c63db93ad401dc0784458fb248eefe7b06c4b418f794c3ae260001b613bf3565b6114327fd8a16e67dc55f0f81773f0eea3056ed24e3cd25d1a79692150450ee1d3eb7b2f60001b613bf3565b6005845114611476576040517f08c379a000000000000000000000000000000000000000000000000000000000815260040161146d9061cb13565b60405180910390fd5b6114a27f54556aecfdb8087a95fd1e885a95da17713f2904a89b57d45537fc9fcc034a7c60001b613bf3565b6114ce7fdd8f53c12c599535ee437455f77acd6437729044430370651247b4ebcaf13a8460001b613bf3565b6114fa7fcc7302fbe65a4492cb76af105449482906380a9073b25e48d1015bb612bfff4d60001b613bf3565b60005b60058110156116bd576115327fd5fbbf2e64a403eeee3ed15f73b30d4cbb27b88635715f0ba098e1e36b12a48c60001b613bf3565b8160000160100160008281526020019081526020016000206000905561157a7fe69a7a692f35e461a8250de694447ba58e5bc725a7a5728f7c91796d91a0028e60001b613bf3565b6115a67f8c15337b4fa6fc8c879ba880bbba766ce0ad84bf3a777d46fb827742fe21f93e60001b613bf3565b6115d27ff06eee1b460e69761a390fc63286b338436e2ab7f445f032dd216a543ce19f8960001b613bf3565b808582815181106115e6576115e561c6dc565b5b60200260200101511461162e576040517f08c379a00000000000000000000000000000000000000000000000000000000081526004016116259061cb7f565b60405180910390fd5b61165a7f30143c319439fc1ce781ff6128684cb6c8073f1c8a5c966cadf727339127dcd160001b613bf3565b6116867f75a66d3588df02d1c32ca2a50595fb893949d63dd552bcefe973a4bf5ead58c960001b613bf3565b6116b27f2f0c2e3cabae3721c35236511296a694bd769b933b29b4fbab57e4bc1dbb407a60001b613bf3565b8060010190506114fd565b506116ea7feae6c5a7d524b19b8a072ea9096e0f73cf743ca154834a32cbb3fc7623f74b6d60001b613bf3565b6117167f304f7f0c9ddf153ba3989bf2cbeb331e238ecb131a47bfb4aa253909d50bedd960001b613bf3565b6117427f568daa21cd06728fbe017a0c0b1d8a275874e49ecd99c6a59d85aa8fa0a1987160001b613bf3565b600061174c615cc8565b141561178d576040517f08c379a00000000000000000000000000000000000000000000000000000000081526004016117849061cbeb565b60405180910390fd5b6117b97f04a6da2c92931731f0dd51cec5901d35a7dd232f6c8083508c97f2fa2737842360001b613bf3565b6117e57fb21f7679146342bc472104c0a87c002898b7a061a926702623f67f819d31524560001b613bf3565b6118117f27e0bbcfa90668df73ab5ea484e4eb90878d2273bfb32f1fd46da16815dffb8f60001b613bf3565b61183d7f624329202bcbc18c3f6ee6cf82e6d8f88b76725aa8f9f1858955fb1f8b1c4b1c60001b613bf3565b34851115611880576040517f08c379a00000000000000000000000000000000000000000000000000000000081526004016118779061cc57565b60405180910390fd5b6118ac7f46b73e7ec14480725082a587731d817f765cffb59e23c1bce34eba13a6080cd660001b613bf3565b6118d87fa65dd8aa80b096a0342339f895abd5b5a684d246ef35f652cc0110763574cec660001b613bf3565b6119047f78689532224ce288b4af9a105e3622820abdb25bced1ac00cc49797459e1c5c660001b613bf3565b6000806000806000611914615e9b565b9450945094509450945061194a7f1a65aa6f138fc45c0c3a462c06d313ada67beb491200582bd346847c44cf3b3d60001b613bf3565b6119757e42b8eba7ef8726109b289e504e7b0ea8711b372c9d78dbec3e007d5db3c3bc60001b613bf3565b6000866000016024015490506119ad7fdab387635bd9995b77cad0dd634206f97c606b309123580731b778c73084342b60001b613bf3565b6119d97fca6f94df4902bb5d8e5f3819ed95e0b8186253a7a08e0e1aac2c24622d43495660001b613bf3565b60008188600001602301548d6119ef919061cc77565b6119f9919061cd00565b9050611a277f9db6d892076c3be8619fffcccd7cf3d2ba945465c28a9cb4f98906fda4f54b8e60001b613bf3565b611a537f79937ebce9277daa32e9f13b0f6beaa63298672d734889b242d09c1e0589a57e60001b613bf3565b60008289600001602201548e34611a6a919061cd31565b611a74919061cc77565b611a7e919061cd00565b9050611aac7feb5ffb3639090a0d2ca149ef68ef61c56a9802388d049e44016f51a90f91cd8060001b613bf3565b611ad87f2f89e628433f4bcc128a08a52c0d02d950959f20f389facb73102818549c14fb60001b613bf3565b8089600001602b016000828254611aef919061c907565b92505081905550611b227f50cd842a474eacbed0122afb6439b6fcec5f5a46acbfe82da2f784c7903efdea60001b613bf3565b611b4e7f5a5149262564f19735bc0a60385fe8c0bf95c54e6b0d06cce925539e846e339660001b613bf3565b8189600001602b016000828254611b65919061c907565b92505081905550611b987f04e5485fa08ce6602ed83b2d79d965bcf408b869493c84e15415471c1b060a1c60001b613bf3565b611bc47f5bb730eb746d89e3135fb6e68547a6b0d4463030ee7880fef5a25ea916b0751460001b613bf3565b6000611bce615cc8565b838334611bdb919061cd31565b611be5919061cd31565b611bef919061cd00565b9050611c1d7f6757ae6cae119de8538e951bbc38104bf46ec3ca4c77e173392d7151b4a2aa9360001b613bf3565b611c497fd91ec615f3a006185ac265cf26707cc36aecfce6edcaa1efe1e7258f9e1ad61760001b613bf3565b8881611c55919061cc77565b8a600001602a0160008081526020019081526020016000206000828254611c7c919061c907565b92505081905550611caf7f6adacae0b08d89e227d82e51d00bd39ee0a5768e2986a64dceee6557b100a2b860001b613bf3565b611cdb7f8f87edd0a2d707845e6e641e0edfc776e2cb4e138ef6b79d6bf7e0825b1d8a4d60001b613bf3565b8781611ce7919061cc77565b8a600001602a016000600181526020019081526020016000206000828254611d0f919061c907565b92505081905550611d427f27e071feb96868bbf95443735ed1243b21f8ccf4f69302833283663f35dace6660001b613bf3565b611d6e7f8019ee613bf7bdb28e978ba3e4f58011e29cb3fefd07e6b3cc18ae34f5223f5460001b613bf3565b8681611d7a919061cc77565b8a600001602a016000600281526020019081526020016000206000828254611da2919061c907565b92505081905550611dd57fe999456cf6066f0d3d19fa36cd4a4127b0e46cfe4579cefa91d413a21bc7c31560001b613bf3565b611e017fbc00027d367bbe516ea64915cb050d2a1469e5889b4697590c2abdd6b5af1d5c60001b613bf3565b8581611e0d919061cc77565b8a600001602a016000600381526020019081526020016000206000828254611e35919061c907565b92505081905550611e687fb6a4e752558e823eba9ee550a540c393c67cff17da288ef69a4435424a365d5f60001b613bf3565b611e947fdb65898851383aac447f0053d40f84e63e08479bd0cc5f32eecf1d265b953c1160001b613bf3565b8481611ea0919061cc77565b8a600001602a016000600481526020019081526020016000206000828254611ec8919061c907565b92505081905550611efb7f807759f8fc245658db04b1a3fa98df8e7335376e7bd898fe5ece6de6ba34207b60001b613bf3565b611f277f9634e72813965088d3621664450ddd0f38ea2f344f0322fd55af1b5425afe52560001b613bf3565b611f308d6161b8565b611f5c7fe3985556612bdfbdda1fcc8312fc009837726291fce3fe9b31ef41f3f35e011760001b613bf3565b611f887fd944ae490d8a86043037e97c938d7162cff6518d3f6ce7bc45b99b0fc7ea491b60001b613bf3565b347f56b9a8121b96c71bc28c39b85ed690253bf55c735f0789b4c092f25d3c53cb683342604051611fba92919061cda6565b60405180910390a2611fee7fdbeaf9af676bb3be21c64d008e1eb80928b8c6094cd420df1beb879ee15975dc60001b613bf3565b61201a7f074192db4cba557d2953664c47e4457111d461a4ea350ea433a6e9f0aab6d8de60001b613bf3565b8d7ffb32447375c36e47abd0a4997860ab33b09119b4bffbe0ca422f607ed20ff86f334260405161204c92919061cda6565b60405180910390a26120807f3ce1d79e7a695d997de4eb86e56b8208c465df71d1bd1a7fb8ae622ad01559b060001b613bf3565b6120ac7fc094ae1f407224143e2a6e29e7c415c12b4b10123f39717d41d60e120e336bd160001b613bf3565b60019b50505050505050505050506120e67fdd8e023589bb1f5964a3b72d19cef9afc68cf0ae7bf78e308304ea652461902d60001b615be7565b6121127f185fbade08d766ef5c0b5eb0d1f659bf506ff5f70cebf3477019e6c0cb0fb98460001b615be7565b600181600001819055505092915050565b60006121517f07518cca7ebbf4437772fe2cb690ff64777393bd9fd7eb92d0b47588cfe8214160001b615be7565b61217d7fabc08d8b1539454e09273157f545fe4d0ef7695ab89c1394e5212c033c437e7960001b615be7565b6121a97f19d77c6eb9bf7fa50665a0969471cf295bfd2c58da71341ebf868c4cfedd5d0360001b615be7565b60006121b3615bea565b90506121e17f72f69fd9e290e66cfab98577692648fa3d5f8c684e8a73ded40194f628c836e160001b615be7565b61220d7f36e3d408aa429b34170b7218918f6c8abf4f6d588a98ff7574bb57bb37afc81460001b615be7565b6122397f28d0b526291cfc9268f4e9e0873a4d41b2d2d897a4d50b193103c6f44f06bc7960001b615be7565b600281600001541415612281576040517f08c379a00000000000000000000000000000000000000000000000000000000081526004016122789061caa7565b60405180910390fd5b6122ad7f722cacd14aa9d7e08255167707b50322edd4a13c7bd2d53ffa8637b8bd83971260001b615be7565b6122d97f6ea6194c47f224b0ebc691ec7a019eb110e7ca205f8642da782fedbb941fa78360001b615be7565b6123057f7bf39aae89ed9f6b7d5c3470b41d26e979f443feb71772d6646fb5723621ef6460001b615be7565b6002816000018190555061233b7f2204524f98dc310b2eff42f1da945fe4e1cd4b391fdce249ec0bedaf99ec918760001b615be7565b6123677f9d9a8e11dc47db4c0d6fd0420cba035549b77f090645364b78864b5f1d184bd360001b613bf3565b6123937f40d64010de46f294af8ccfc5edf4f2e00ba17ed0e6db2b51a3847b2af6e926f260001b613bf3565b6123bf7f67fb89684642ee644a44bfda17f17b331552b79c6b16c3965d0e778ebe40f48d60001b613bf3565b60006123c9613bf6565b90506123f77f2eb675548ef8ccbf8f9f2553015b23fa9179df61606f19c906828239441b5d3260001b613bf3565b6124237f7d27089f23c666b6c5807f217c36ce47c879a247add3893cc1113b2ea3e19c5d60001b613bf3565b61244f7f2ad6b6c37cf79701626f4c272553deb9cc2a36aa5283d3686e928eea70c3290e60001b613bf3565b80600001600e016000808152602001908152602001600020548582600001600f0160008081526020019081526020016000205461248c919061c907565b11156124cd576040517f08c379a00000000000000000000000000000000000000000000000000000000081526004016124c49061ce1b565b60405180910390fd5b6124f97faf9be1983e591c931d1471166332fb45cdb44b128162194b00aaa2f7dee6423160001b613bf3565b6125257f38b7353ac3bfec6ef86872db42c5752e2c1dff41054a5428ff4ff7b53fad40cd60001b613bf3565b6125517fe30287cb3048d65bc48bf80269d1c51abc910c0a5a233041dfb50f7d4b1d327360001b613bf3565b61257d7f94767efdac7de64bce806c5b2fa546b74abb375806c573decd446761eef72fb560001b613bf3565b600085116125c0576040517f08c379a00000000000000000000000000000000000000000000000000000000081526004016125b79061ce87565b60405180910390fd5b6125ec7f95742ced106d347db5cd3fe0cd35ddc5cb6e224fd0a18bb2ff27689f6284f2d260001b613bf3565b6126187fe489aebf96ba9eddf72f54ffb285817c29d630d07020c56f2dd530e70d93054560001b613bf3565b6126447f073e95cfcba7d3c9e1105315dc579fc6a485f56e18460149df6694bfcd73ed3060001b613bf3565b60008160000160150154905061267c7f589d5262fbadd628585383e547bf178fb119c4463039f33271ada64e7942e34960001b613bf3565b6126a87fe2d4e60e401104b9d6ff6afed41e5885392b5dcfa774b0a9c171abc45bfaeb5860001b613bf3565b60008260000160260160009054906101000a900460ff1690506126ed7f8eaa338c415c5e77ba122563e59981e9a68e3b13927ce51c946369f71f7661b060001b613bf3565b6127197f2f23a7477e4b96c3d2e8e790fa281192b591ef342dbadbdc127a3e038f80273460001b613bf3565b6000836000016029015490506127517faedf474446dac6ce8ac674984516d576fc814bbe66e42fbc169f8ae5fcfc117460001b613bf3565b61277d7f8d7377e04c36f457e84dc18280fb7f5df8907d195758831747ec947a38e5bcef60001b613bf3565b81156129a7576127af7f1712d135d0e84f030d6fe03961246e0ed6f95cada047ad50ff9cb31f5ccdc3da60001b613bf3565b6127db7fab6e36d574d1685e39b7408eebb5ff0b13ee18f6cfd332e6cd3186a68f97f84360001b613bf3565b6128077f3542203206069782c5d713fa1c8140cf343f48f112a009cc7b9c35428eb23a5260001b613bf3565b6128337fbe009fff332495dfa41324fc1fd5431ef2449049ca4158c5942887d47d304cc860001b613bf3565b80881115612876576040517f08c379a000000000000000000000000000000000000000000000000000000000815260040161286d9061cef3565b60405180910390fd5b6128a27f3c4509ca1ea4342e8a8df73ced215304f8ee5fd9a232054f39f076698c0cbf9260001b613bf3565b6128ce7f4e5ddcaf70591f5d838f26eca11541875bb0f0f7c49039ebd1e5a31fb6140ca160001b613bf3565b6128fa7fac12c71a11d12ac5a1df535dc55aaa3ba4a9e29c0f664530ff6db27c281adc0560001b613bf3565b8360000160240154846000016028015484612915919061cc77565b61291f919061cd00565b8361292a919061cd31565b92506129587f55a1df1a77ad1fc745a5a385f9d34ef34de7cca0075d1792db649a8edb8783e160001b613bf3565b6129847fe653992a68a0b1c7b12f5180e781d0eccc746470b54aa23ba87ef60b5457616360001b613bf3565b8784600001602901600082825461299b919061cd31565b925050819055506129d4565b6129d37f3daaf1e626822b50cf0505fd1ffc7a64879d757803d5871dc3bcc62b36137b7a60001b613bf3565b5b612a007f2b4e31be0434b9596314b27b2ca1cb95ead34439412a86068d39d960e551f80360001b613bf3565b612a2c7f953c020c59ad138fc66b03cb6a90b7b0c2b4076e6bb2b8cd0cd0f167c50c22ba60001b613bf3565b612a587f23abba3d2d7af2f8843f31f74ec13e4d792a40ce63ad010fd7bf8bd77e75cd1360001b613bf3565b8288612a64919061cc77565b341015612aa6576040517f08c379a0000000000000000000000000000000000000000000000000000000008152600401612a9d9061cf5f565b60405180910390fd5b612ad27fe6cfc7c0dff3ecd0ed86d9298bf7a84541a17ec2b551a51fc963013ebc41064160001b613bf3565b612afe7fceeb8688c34683b91fd15bce6484c2e27ffb14cc236c3f61ff6404d37672afb760001b613bf3565b612b2a7f631f42382710a79b02a8ca325851905a1f6ab9c9449734c588e132a9446782e760001b613bf3565b6000612b34616bf8565b9050612b627f1cfbfdd56277bad68d76a362c21e5fc166bd7617e52894b65807f50edafe3ef960001b613bf3565b612b8e7f7e0b4ae2bc9c28b76fcbe8abc3b935926b087199ef7119c6b639cf04181ac03b60001b613bf3565b8215612d4657612bc07fcbdba50a02a3f3b6ccb6e1291c3cc8ad42ef05c64ca1e568cc4fee02e138c60160001b613bf3565b612bec7f31b2730e84f49769a265cd67730040f990b0b5a6b51263f0277daa978cb0e43a60001b613bf3565b612c187fefff53444d6085bb371bd694d87b04c8e558dabb8fc42b0e2e36375a2874525e60001b613bf3565b600085600001602701549050612c507f6a455a5ebe79ac99a4b7781702722c81471fb079aa4a0f94539a0739afd3ce0a60001b613bf3565b612c7c7f7363177171935f9c0f5d6796ebfe43b628ffc68b24002d5f01e3d39d7b60eb0b60001b613bf3565b828a82612c89919061cc77565b612c93919061cd00565b81612c9e919061cd31565b8660000160270181905550612cd57f55bd8fb670db79024fefd89fc60a25fb2139da875d49b6df2e65e630a377190760001b613bf3565b612d017f15c54e15e4206f64c1efd9b8c38433e238a4a99c40752ae7a6d7bc9c4fba529660001b613bf3565b828a82612d0e919061cc77565b612d18919061cd00565b34612d23919061c907565b866000016025016000828254612d39919061c907565b9250508190555050612de9565b612d727f0930ebe1258242e83adc3d81c48fde577358685592bff69c921a4f442968d4c460001b613bf3565b612d9e7f47355a909ca80764f2ce41ed46c1a71e28b5267059086d844ed13218fec0ee1060001b613bf3565b612dca7fe660708814580f3232811e61e67ac34ba7a2e43006a741f5194d8192b04a9e6e60001b613bf3565b34856000016025016000828254612de1919061c907565b925050819055505b612e157f7dc48de4a056a62a6c9fdfd1ac9ed78177b985ee7fb98a9c90ec6bf9e704610760001b613bf3565b612e417f954e0bc3185ebcea59b8949a41dd67fb7db3dbc61c5748ab86af633cec2c4a8660001b613bf3565b8885600001600f0160008081526020019081526020016000206000828254612e69919061c907565b92505081905550612e9c7f42926cdeddd018fb73596e0f023ade5b5dbc245ad579e5c61f31a6698efbae1b60001b613bf3565b612ec87fb28a0e6bd83b70a292a9ed73bdea8eeb5219058a2b941f6ebc1c4c0b8aa2af5660001b613bf3565b612ed0616c84565b612efc7f4b3708a9caafb1dfe9caef47f131a23fc2b91102581b3c59a5a45e0d9e38f7d460001b613bf3565b612f287f390b9bc16ab5b0fc5b18204bac1febf04c7fdc31ce304974cd8d9f882e06f1ef60001b613bf3565b612f547fea7b81a469f6f376d2ad32821d6f225defd592f0bd7bd54123ae836a8414ceb760001b613bf3565b612f5f81428b617b3a565b612f9e576040517f08c379a0000000000000000000000000000000000000000000000000000000008152600401612f959061cfcb565b60405180910390fd5b612fca7f8abcbbf1f16afff6789753ec12912d6a2fd02399e0356cac43d19163f6f7f42e60001b613bf3565b612ff67f7209fd8f8e050a642b955075d81e77d3e0ac6cad6369734d1f2cb3d9560be14a60001b613bf3565b6130227f22c59fd1a6aef71f104cc9ed88d27a52debb40de01e33518b38b621d0c5efd1c60001b613bf3565b61302f8160008b8b61881e565b61305b7fef3d2dfe111cb45386da78a5816c74009bcab4386c8a8d66099519255d04b27360001b613bf3565b6130877f6ad60b3251c10a0b0adbd7148f442f3d8671469ebd88410b3518495df201ba6360001b613bf3565b8073ffffffffffffffffffffffffffffffffffffffff167f713ad896423a80156e30820a6075c1f3e6565c0278c0a646a549fedadc71272b8a426040516130cf92919061ca32565b60405180910390a26131037f71799797d52ffc8f3636cb406c92e22da909494ec0e6a256fc098849d6bd864860001b613bf3565b61312f7fbbd69178ba4174b83ea65ab131af1264749605ca4bb25062d68aba3260e2f7f760001b613bf3565b6001965050505050506131647fdd8e023589bb1f5964a3b72d19cef9afc68cf0ae7bf78e308304ea652461902d60001b615be7565b6131907f185fbade08d766ef5c0b5eb0d1f659bf506ff5f70cebf3477019e6c0cb0fb98460001b615be7565b600181600001819055505092915050565b60006131cf7f07518cca7ebbf4437772fe2cb690ff64777393bd9fd7eb92d0b47588cfe8214160001b615be7565b6131fb7fabc08d8b1539454e09273157f545fe4d0ef7695ab89c1394e5212c033c437e7960001b615be7565b6132277f19d77c6eb9bf7fa50665a0969471cf295bfd2c58da71341ebf868c4cfedd5d0360001b615be7565b6000613231615bea565b905061325f7f72f69fd9e290e66cfab98577692648fa3d5f8c684e8a73ded40194f628c836e160001b615be7565b61328b7f36e3d408aa429b34170b7218918f6c8abf4f6d588a98ff7574bb57bb37afc81460001b615be7565b6132b77f28d0b526291cfc9268f4e9e0873a4d41b2d2d897a4d50b193103c6f44f06bc7960001b615be7565b6002816000015414156132ff576040517f08c379a00000000000000000000000000000000000000000000000000000000081526004016132f69061caa7565b60405180910390fd5b61332b7f722cacd14aa9d7e08255167707b50322edd4a13c7bd2d53ffa8637b8bd83971260001b615be7565b6133577f6ea6194c47f224b0ebc691ec7a019eb110e7ca205f8642da782fedbb941fa78360001b615be7565b6133837f7bf39aae89ed9f6b7d5c3470b41d26e979f443feb71772d6646fb5723621ef6460001b615be7565b600281600001819055506133b97f2204524f98dc310b2eff42f1da945fe4e1cd4b391fdce249ec0bedaf99ec918760001b615be7565b6133e57ffd9c8f2381096479298d9e8b475ef61ae6995128b1837c9490b0d69a58e6cfdf60001b613bf3565b6134117f6db0178479d3bb2569090241c95db2deda243ac198dced9c5e50e8bdd8b8c67f60001b613bf3565b61343d7f62a5ca8af7b80603b4da8615ed10f83b243323d1aca9aafb25546230074ba32260001b613bf3565b6000613447613bf6565b90506134757f5eff7ef7edaf352893ae00e870ac71dc5b2a8482ca4c41917ea30c5ea97d98e960001b613bf3565b6134a17f194c3c663dc65859387cc24bed9fd4c94127eb7323c1195c0552981dad028cc760001b613bf3565b6000816000016024015490506134d97f7e520b541ca85733f86a5ec0671782fd4c989aaaecac190be654a7420954859c60001b613bf3565b6135057fe1d3ec9938d587d7e875cebc53fa2c7b6b3de329547a0c57a6b0c42fa0bb084160001b613bf3565b6135317f976b3c5173d6811ab27650e5384f5bfebb98df658b94ef930f4ab5726e69684160001b613bf3565b8160000160260160009054906101000a900460ff1615613586576040517f08c379a000000000000000000000000000000000000000000000000000000000815260040161357d9061d037565b60405180910390fd5b6135b27f2ee5cdfae28e4bb834cff01e4df331bab497a289e26c1fcf46f015403fd20cfc60001b613bf3565b6135de7fdb1c2512eaa6f2124b2f60c5b24540fc5eb5fc0fe5160f7388b255ac24efa8b360001b613bf3565b61360a7fbd71a2c292228eab0fb3337cb4faaf4bd8a09075134fe5b581fe683cbf41323560001b613bf3565b6136367f6b2aa2c671d4679868c516a123ebf7337a86b6b5e006d4254e28d604ac31065e60001b613bf3565b81600001600e016000808152602001908152602001600020548583600001600f01600080815260200190815260200160002054613673919061c907565b11156136b4576040517f08c379a00000000000000000000000000000000000000000000000000000000081526004016136ab9061d0a3565b60405180910390fd5b6136e07f54643cc2603d56910a505d359d9bf5d63bf724a0073f0e2ce12678c0f0e469d860001b613bf3565b61370c7f66e504f36bb298caef122a0bde55400cdc989dcfae478f6c235f7b905d15c9e360001b613bf3565b6137387fc1c824fe2fd426fa2fd1243659419a2fb52f95697faf3ebbd2bb28bbb3fdd4c560001b613bf3565b6137647f90ea6e25d9d76f7e15479015bdc271a6af30f0eb5602ec2c6ea05e0d297f42b360001b613bf3565b808611156137a7576040517f08c379a000000000000000000000000000000000000000000000000000000000815260040161379e9061d10f565b60405180910390fd5b6137d37f620221cfaacfbbd30ea9f15538f8c7c3aaa0cf3d329b49e8bca0b246ed24d63b60001b613bf3565b6137ff7fc5b6f515ab981a6c64ce322876ad7924780b61c0c486010e6f613c82405f842460001b613bf3565b61382b7f2ed08a2f6b904766791693ef66bd9e97c1eda697bc9cd9b76d8782dba9d898f060001b613bf3565b6138577f2b871f3f638e2841ccc68739a951a351e2a678ad6fbdc61cf59353bfd70d2cae60001b613bf3565b34818787856000016015015461386d919061cc77565b613877919061cc77565b613881919061cd00565b11156138c2576040517f08c379a00000000000000000000000000000000000000000000000000000000081526004016138b99061d17b565b60405180910390fd5b6138ee7f9f85eefb10d7562c2b99c9359953d4e1e36153c86801cabc6f118038a1b230dc60001b613bf3565b61391a7feab110b04150804518afe70fa63d922b1eada2ca4f5a590303a5be8d4908611f60001b613bf3565b6139467f0beb63d70af4ace4d803d595ee9aa6f78a77a8e5f48aacbbf802a8c4296ad14960001b613bf3565b60018260000160260160006101000a81548160ff0219169083151502179055506139927f7d7fad6ff0e6a58a10fe1e922b82bcf3b8c58b6e9fb644418be9b586f6d4344460001b613bf3565b6139be7f8a5ad284134f5379b7e2e139017ca4abb22caa08734c3e7da686e2a92517be5560001b613bf3565b8582600001602801819055506139f67fce1223c6524923e633825120d3fa903360872b4bdb2f88c13612ddb34ac09ebc60001b613bf3565b613a227f465029d23a01badca2e7434a1de52c05387afc7b78805866baadf8667d36c56260001b613bf3565b848260000160290181905550613a5a7f1e457db40c2ecdf9e00b8648f91dade3be66997930ec184a85de9fe352aad23360001b613bf3565b613a867f1e41dc828e0ff863f4f20af41d8be33b2c05a056a288c0a7746dc8ac48127b3260001b613bf3565b348260000160270181905550613abe7f12d6da78d2e0a1417c87b7ef869f08d9581568e7d7421c2649f4eaf05f139eed60001b613bf3565b613aea7f280dd301c7dfc8c627f9ebe4f686218e735234d3b70b165b436dfab8172be0cb60001b613bf3565b84867f840b801e535fa28df8d56cba6449207909707be5c38e2490899f7c7857eaef62613b15616bf8565b42604051613b2492919061cda6565b60405180910390a3613b587f84061cc2744f5bd9a14fc9a1dc800498a98971625472784635b50cf58309dfb160001b613bf3565b613b847f6a36c2edaa29be97b3777ae00a9af9360a361c9f896d84db0fe1b523a62ba5a060001b613bf3565b600193505050613bb67fdd8e023589bb1f5964a3b72d19cef9afc68cf0ae7bf78e308304ea652461902d60001b615be7565b613be27f185fbade08d766ef5c0b5eb0d1f659bf506ff5f70cebf3477019e6c0cb0fb98460001b615be7565b600181600001819055505092915050565b50565b6000613c247fcbba79f9261db078091467664d5b84589857124d13216bd4514646c8c76d025a60001b618df9565b613c507f724646df3e0020e3b200b7c2cdf653dfe7c4d57f2e237999b185e7819550fa2f60001b618df9565b613c7c7fc9b67fad89b63ae30277c8a003424347566f29554d769ff61cd52986b61de40360001b618df9565b60007f66bd28df09c9271bd5696185e1f2db071a0ed825a4f7df621c22ef195c811e9f9050613ccd7fd550276b708b0edc784cb9667d4f336122f90f3c3857eafd0852a0b28138047160001b618df9565b8091505090565b6000613d027f9b4b48d5cb418fa31d325f9d1d859e2ca9033bd49b687625e19c56cd6e439fd560001b618dfc565b613d2e7fc90f9fdef0e4bc8186ecf95cbcafd3947beb057bc0e08b4f47405f70214e0d6c60001b618dfc565b613d5a7fc572a6be3ed6f2c92f0553630ce2dc5681dd713adedcd9ce8817254e6864e16d60001b618dfc565b6000613d64613bf6565b9050613d927fb10e55e55d94361da420037688de48816abeb78cf68c3a653b7f7de6f8f6cd7a60001b618dfc565b613dbe7fb462e4e5bf3d4a9ded83fa64b97de8a0dd981b226baa3f36b593da989727ab2c60001b618dfc565b600081600001601201549050613df67f7ae3309bbedb5d14565934007d68337e5a6d7b7fb37356d5bf36bd83c007091160001b618dfc565b613e227f07f938081449b8333f91d16a9387f4b86b45dca8d52ec87fe14243a9be43f3f060001b618dfc565b600082600001601301549050613e5a7f04c3eae5872f79c41c3f55ba08384653cb06a5bfb61f0e74c5be1f1ec15f48cd60001b618dfc565b613e867fd4d7feb975782dfe534156b1228c1fd97f11b359e8f4c0542a783058bcf3ec9860001b618dfc565b6000429050613eb77f0fd7cbeb94dc92dfa2ddae06fabb3922fad294928adfa20ff414dc7bfb07db6360001b618dfc565b613ee37f9d5a5a5b5e4d8388fdf262198a7ff595fbd166cd2a9997ab9b23a4fac0f1d9b160001b618dfc565b8282613eef919061c907565b8110613f8157613f217fddb2644f289312d73ab601813838d1860634286646e9b952ad59fcfb6c8bcab760001b618dfc565b613f4d7f45ccdc926687c707b9b687a55286e91d19cc6851844cc0ea7cca85a3cbf3c98260001b618dfc565b613f797f90508a23e9ba224d4ee540a5aab4d77e77614058664d85f5b13c82ca2837d02160001b618dfc565b809450614014565b613fad7fde70ace7877886d4243417396448bed890da76d05e2887bc9de85deb7e6e5c1260001b618dfc565b613fd97f405a083e2136c217060dc52b6e7ceeaca2685bbd60f8c4fb9f88cee8300c024d60001b618dfc565b6140057faf9e5abd23748c2a99e8762608752e846056217d616652cfca5ad7f2d1630a5f60001b618dfc565b8282614011919061c907565b94505b5050505090565b6140477f75624b0fe808cdf04e07ff6ac7009dd3808ac1a0adffd32aa135edc4cd6ae95f60001b618dff565b6140737fd2bd406929ae6ec9329f0a0e687e88c76ac83404c0d69bf6d27dbad9ae13ff8760001b618dff565b61409f7fb949ae878943dae75f87fc74807360ec4f7d67b9d42296ecfa5eeb653801b7c660001b618dff565b60006140a9613bf6565b90506140d77f4a74400c7471bec6216e67600832391761a4d81c8010626589c50da68253940860001b618dff565b6141037fd9813b0095a681710a15a6bf82315d61eaf0e88ee9a6163ef914c4d06497d83760001b618dff565b61410d8483618e02565b6141397faa940b5a84014c02ce8f92bfb3aff5737921e9142435f3b504996db76f57830060001b618dff565b6141657fdf7977245fe33162f773f9a7944b13c355e0961aee3c639066c553a041c994fa60001b618dff565b60005b82518110156148255761419d7f457490352aecd002c591449eee51c45ff27b32f54bb67df1c7a8f1b8a2023c6160001b618dff565b6141c97f2999b11efd154aa02b5e59c6578f0142e4a1fbe55169d2cf28fb94b7aaf6044160001b618dff565b60008260000160320160008584815181106141e7576141e661c6dc565b5b6020026020010151815260200190815260200160002060008773ffffffffffffffffffffffffffffffffffffffff1673ffffffffffffffffffffffffffffffffffffffff1681526020019081526020016000205490506142697fe74f138943559c7362b3fa736063d02dffefb98b199afa380672f62439403f3560001b618dff565b6142957f24fb7f6b3f50a2555b720bbb970a053ae638af5dd7c3f8ed98c9844e422e517a60001b618dff565b6000811115614794576142ca7fe9da4768c776cc108d686b6ecee5365b591de3cd612336014d015e6b43b1443060001b618dff565b6142f67f7a94d9fc5c3c95693055a9f6b9ad54b3740abdb08511d658e89b7a72ff879f5960001b618dff565b8260000160320160008584815181106143125761431161c6dc565b5b6020026020010151815260200190815260200160002060008773ffffffffffffffffffffffffffffffffffffffff1673ffffffffffffffffffffffffffffffffffffffff168152602001908152602001600020600090556143957f7cf6f855e7afb4716ededab0fe095306009f511603ce417cac3981c7afea4bdf60001b618dff565b6143c17fa4e20aacf0920a0963abc60c1fe3b63d177f14095d1353da09fb2a0113b31b4e60001b618dff565b60006143ef7f54b75995f7d86654819c3bc37f7c1ea3d2c43d25e1aeb97ff8a332e1516dbf7760001b618dff565b61441b7f0983e1fa4bca810e18e6e1c6c00ad1156fda8c75ece6c268fdc26eea84b9f14560001b618dff565b600084600001603d0160008973ffffffffffffffffffffffffffffffffffffffff1673ffffffffffffffffffffffffffffffffffffffff16815260200190815260200160002060009054906101000a900473ffffffffffffffffffffffffffffffffffffffff1690506144b07fdd32ccc5736a074b1e5060b4873f576624f250cd221ae6243409b32384da42c860001b618dff565b6144dc7fabeb8d2c8c43f3784de30a17b5921cbe51f8cdc390376778861f5de021d1e9fe60001b618dff565b600073ffffffffffffffffffffffffffffffffffffffff168173ffffffffffffffffffffffffffffffffffffffff16146146f35761453c7ff6dc36f7028660eee4fe76539bd8db30d4bdd5c11e5b2568bee3b9da9bab1bec60001b618dff565b6145687feb98b26c09958bbe8c52304b8cc4b77a849420c0567a57ffc17004ae3618093e60001b618dff565b6145947ff58ea581d4c2ae7c4f0557b8f2cbc63a85f742d7cc813dc8ebf63af303390f5960001b618dff565b846000016024015485600001603f01600087600001603e0160008573ffffffffffffffffffffffffffffffffffffffff1673ffffffffffffffffffffffffffffffffffffffff1681526020019081526020016000205481526020019081526020016000205484614604919061cc77565b61460e919061cd00565b915061463c7fb90f780cc98f01a91853bfb09e0bb4305626bb917929155650cda09f71375eba60001b618dff565b6146687f9ba245770a299d9467b5bc1d83cb03a92b4d15853abf5a07a5951e8bcac85ea460001b618dff565b818560000160320160008887815181106146855761468461c6dc565b5b6020026020010151815260200190815260200160002060008373ffffffffffffffffffffffffffffffffffffffff1673ffffffffffffffffffffffffffffffffffffffff16815260200190815260200160002060008282546146e7919061c907565b92505081905550614720565b61471f7fbbb3b211b36750e1b0f8f97f98f590c8af5b8830d534b38ec52cc20c166e573360001b618dff565b5b61474c7f8de0d850f3a523429f9d99076e06e4d2f84ca9d41293d74e0ab6f5b7ac8dc3a060001b618dff565b6147787fb093b64d97f150ab01d0ef8f14873548a7afd08619de7a8cff5ba79707682f1360001b618dff565b61478d878385614788919061cd31565b619757565b50506147c1565b6147c07f6783fa9d4bae982f566b1f4e7f62b6d9bdf51c8e7098a6f123a252a1650a3cb460001b618dff565b5b6147ed7f6a3f807f82b1e98c35b282a841145234bc6dd6e4d8d30c75a45bc5e9a0397ba460001b618dff565b6148197f12956b1f56354b1566f28895509ba992e8bd6a107cc569eb49124b4a4bfdb01c60001b618dff565b81600101915050614168565b5050505050565b6148587f8f8edf0d001127a0362d3d199d616ea38b00987ae972b08013f5347612b82ba960001b619a2f565b6148847fc250a34108e6fe7a06a7195e7515b6dc2c289bbb61061c53f2576ad37380064960001b619a2f565b6148b07f75c69d15d74cb6588fb17e30992be683786787231873fafb22addd495aec05f060001b619a2f565b60006148ba613bf6565b90506148e87fc35e47a9ce77d0d60a56057ae219080ef8f36ca56718c60b75f865c55195e23160001b619a2f565b6149147fd6ce6495d6c71b85fa5abafa5fa6ffd355de7d461e73609198d92ceeb77607d360001b619a2f565b6149407fe9db71641e2d81e0f17ec2903cf4f46fbe25ecdf49ca548b1c373994ca17a2f560001b619a2f565b600073ffffffffffffffffffffffffffffffffffffffff168473ffffffffffffffffffffffffffffffffffffffff1614156149b0576040517f08c379a00000000000000000000000000000000000000000000000000000000081526004016149a79061d20d565b60405180910390fd5b6149dc7fc4a1443ee210874f0fbcf311b29605884156371179fb7cd7a4f258919e32f26560001b619a2f565b614a087fe449456a0c46d2f3484efd3775d356359fcdac459eba378364d80768fd1b0a9160001b619a2f565b614a347f71ffb0e2657bea9024ed8989dcd6fe024b24512da272b4c290c7ed9dbf6d707c60001b619a2f565b614a607fc943896a63fa455dd50145d77187b9f487d18333605d27fb681e47b1c61b130660001b619a2f565b8151835114614aa4576040517f08c379a0000000000000000000000000000000000000000000000000000000008152600401614a9b9061d29f565b60405180910390fd5b614ad07fff0a18ad38c92894c40881cdf0a6b664a3d648ddf2711903b7d22daebe06439460001b619a2f565b614afc7f4ffd28e7cab9ff261b767f6fb6b62994174dfa5c0ca774e30d491bcab1c4b17160001b619a2f565b614b287fa720175c013935e13de07a89dfe91a65da3b8f1cd0e4f651d089e57d5161f7c260001b619a2f565b6000614b32619a32565b9050614b607f4ef935aeceef57b000f0044627319ed325db5eb3132f74a2df7098eae953060760001b619a2f565b614b8c7f3e4426d920aa0e8a4df470a5677644d656afac9c960472ba5dc7ad5234bab84260001b619a2f565b614baa81866000878760405180602001604052806000815250619abe565b614bd67fe73bb36450a588377134eabd539298701ee0a67931a42cb8ea57bc3d13d8b3b460001b619a2f565b614c027fea696780602d525ed20978492f8c7a485a4c48c13470cb77ad967c074c4ce74e60001b619a2f565b60005b8451811015614fbb57614c3a7f3d50f5c57e4ea9e45f7629afc562f6642e60bb695cf1b82a24b9600814da84f660001b619a2f565b614c667f2f6b17eb9f93b737a92d3c408e135154297ba5e658e1ecc84bd1134d418aad6760001b619a2f565b6000858281518110614c7b57614c7a61c6dc565b5b60200260200101519050614cb17f9212774c8e07e0f21be2651e90a21e40b373cdd4899b73c9a987b0c02443f97960001b619a2f565b614cdd7f57cfba9e8394ec6ed43c36fc1c4c0b0f9c6400132eadaff344e19159d155147560001b619a2f565b6000858381518110614cf257614cf161c6dc565b5b60200260200101519050614d287f02eacc70eebd01ab1d1361c89ae15d52a56e8e28b9d89a5f26632e6bca50ff7860001b619a2f565b614d547f35f5b09ddec60d2c810399d1659e3d2c527b76a9fa87c811d78e6d7b6bae70cf60001b619a2f565b600085600001600101600084815260200190815260200160002060008a73ffffffffffffffffffffffffffffffffffffffff1673ffffffffffffffffffffffffffffffffffffffff168152602001908152602001600020549050614dda7fb97682dd3eb20bf00cb2b6aa98a0594834c8ae0fa7c925700c4a844d6d53d56a60001b619a2f565b614e067f7b06c4a7bab67006a0f8bc622847f1fead625baa44a93e8d9af81924ec664f4060001b619a2f565b614e327f8ff5a4cb7e72138a8c11691feb283809fd5195b9671e80136ffc1dfdc50f9d9360001b619a2f565b81811015614e75576040517f08c379a0000000000000000000000000000000000000000000000000000000008152600401614e6c9061d331565b60405180910390fd5b614ea17f1555d5a215e7d0ec4dde204c0fcee0ae0530801e3ae2193085fdaa66bc3b36e760001b619a2f565b614ecd7fff5d23621cb3edec32b6bb266560f089fce83e7d5a4f7a98d85cd3d3ca5a8a1760001b619a2f565b614ef97f934c92fbf83278dd3de5d3bd419819a2fa1c5df7ad9bb6e488f79fca06c0851360001b619a2f565b614f257fcd13582140d1754f9687e53e16b9a5174d1438596af406259fcff9d92dfb76a060001b619a2f565b81810386600001600101600085815260200190815260200160002060008b73ffffffffffffffffffffffffffffffffffffffff1673ffffffffffffffffffffffffffffffffffffffff16815260200190815260200160002081905550614fad7f78d478d432b6529d2aa99e09a5bff2bdafc928682b03d47ff47b73471c2c22f860001b619a2f565b836001019350505050614c05565b50614fe87fae0e1a858e2304420847c9919931eaa37214ef85d58b4caa301114d667c890ae60001b619a2f565b6150147f3b79bb4ba509d3d303876578b76fd50610c9e16b022fd56082a025d75b4f804f60001b619a2f565b600073ffffffffffffffffffffffffffffffffffffffff168573ffffffffffffffffffffffffffffffffffffffff168273ffffffffffffffffffffffffffffffffffffffff167f4a39dc06d4c0dbc64b70af90fd698a233a518aa5d07e595d983b8c0526c8f7fb878760405161508b92919061c7c9565b60405180910390a46150bf7feb5ad713551f9f1b8e36fdf32268a7209185e61972e47fa762a683527e43159060001b619a2f565b6150eb7f6e6179e92b6806437234061818026f9f6b9e87af6911cc2444af51b02d2f4b5560001b619a2f565b6151098186600087876040518060200160405280600081525061a16c565b5050505050565b600061513e7fb01c21a7056d600a8a22cad3056c3c8a2e316e3eeb0fec9a70f671724e81b70060001b618dff565b61516a7fa1e63d14da21686b7cbbe08c6b7dfeebc05da1bff5022833f88250578638443e60001b618dff565b6151967f5be0227ad81a175b4c99e7b68817f1589b0b9d09dd6419c5d59a3db033b7d02860001b618dff565b60006151a0613bf6565b90506151ce7fd786ec36820f436d2a97a321dd23200b38ec5f7c316cbb8d882ec4f2130304c460001b618dff565b6151fa7f25be3cbf0a78a60569fb7448616a1f0f8c44e0119f1ee2b3de2ffaebefcd9e8460001b618dff565b80600001603b01600084815260200190815260200160002060008573ffffffffffffffffffffffffffffffffffffffff1673ffffffffffffffffffffffffffffffffffffffff168152602001908152602001600020544210156152e5576152837f6d4c8f9c975b3de7df30a9880637d731c282bd2f66c1e1c11d8deff4e78e207e60001b618dff565b6152af7fbeee5774a3c1b6336049ef56efb43440c24da437266f1ffc185c737482fe2c4b60001b618dff565b6152db7f4d2296860b4cee80c07f222f1d796eacf310d1c690a7e72898d44258935e707b60001b618dff565b600191505061536f565b6153117fc8569885a6563bc8f5e8f4df6b12acc3c6d322faf279e23b55940996d0f455f560001b618dff565b61533d7fab432d7a63c40278e9d3ae22e0a07c65e9cb5b62fdc5b4b67510b18d16714f1e60001b618dff565b6153697f5b8162783f1da79d6d3bebc584837af2fec3ebf94de7c7c8e757a4ad1c85a30460001b618dff565b60009150505b92915050565b60006153a37f7ca22ff2145a2ba6934394d5cbdb2a8604f4c7bdab16888035aaa91aaed3930260001b618dff565b6153cf7f201983f72007d6df97c4a9bbe055dfae927c85589be923ee211789341be17e7060001b618dff565b6153fb7fe87a271d1304444f3cf388ec897cdac41138f1af23f5bed2fa2ef9475c2c1a5b60001b618dff565b6000615405613bf6565b90506154337f166f65c925157826b42ca16953067123860da64c9bb19fcaa4e8597e6fcec46060001b618dff565b61545f7f7143add1c049e0732835f98f1ede63e581d9c874d9966dd91bfbe0a627a064b060001b618dff565b600061548d7fe327f200e17bdd6d69e72510fda6c72fa0161cf45908ad787d3b8e1522e1e29b60001b618dff565b6154b97f9ded2a98e09c066a82ce23f8cb6f3e5d80d3718dd138326108427f6d6bbebbca60001b618dff565b60006154c5868661a463565b1415615558576154f77f67a12b44b14ee2b39f0e6829779a3e6baad229f4932cdbb98c25ca8e3834c1b960001b618dff565b6155237fcf1ffd5296a4014230c4e9ccebdac95accc701d3664dff4275eb3c6a8b920bc660001b618dff565b61554f7f84d8fef28eb1e96a04cf2b1e17b51bac7913da20db7643c9d0b8a95542baaa1d60001b618dff565b60019050615585565b6155847f55cc11dddb19c8ac3397b78450196b21d0d57ee4ee33eb338d4a1ebbf82eeb8460001b618dff565b5b6155b17f824b6a53cb3cf968825d103b5600c9cc3fdd32beeaf71ac4a1b2d02de14ec83e60001b618dff565b6155dd7fbfd91cd2e846ed6c0b974eb0a1de7bb806fef164539f14872028917ec0f5d04160001b618dff565b801561572a5761560f7f18c3d76ffe8bb05bba868c635df0ab0d922b9d15e9f118e63b3bb0e39efc0dc360001b618dff565b61563b7fd08c9632a3d555e9e57e10eb952554a5f9ecf42f040da3c06e22e27279c3d62360001b618dff565b81600001603b01600085815260200190815260200160002060008673ffffffffffffffffffffffffffffffffffffffff1673ffffffffffffffffffffffffffffffffffffffff168152602001908152602001600020600090556156c07fdbc9fec8b23d27ae51537f1423a8927376f73157e57de82e017d726503523e1c60001b618dff565b81600001603c01600085815260200190815260200160002060008673ffffffffffffffffffffffffffffffffffffffff1673ffffffffffffffffffffffffffffffffffffffff16815260200190815260200160002060006101000a81549060ff0219169055615757565b6157567fa8674b78a4f13bd0549eecd7c513c123f6b9c3e8f549fc800e561af20870c80560001b618dff565b5b6157837f88fa3d8a3d8bb7edf553b5e30bcec43e3f5f36e11ccf6914b2fcae3dbc13726e60001b618dff565b6157af7ff09b9571b5e354553ed63efe798a616a339a634d385bf190c0de6728b74f8e8e60001b618dff565b60019250505092915050565b6157e77f8ec893aa791af6d537b40b870ff7ef56c54ae8a708be175378c040664553b80460001b61a6cc565b6158137f824439d7b8ad3ccfc6a7b84ff290c16ad57b8ed19354a8132169fe7b4a23848960001b61a6cc565b61583f7fde962410e963206a6c991c90517542e866b35c809d27fc95d7790e31e66921ef60001b61a6cc565b61586b7f52562fb46539559f16c752a8b6ddc12e90d4b756fa35d521eb041d5c22f96f4f60001b61a6cc565b61587361a6cf565b60040160009054906101000a900473ffffffffffffffffffffffffffffffffffffffff1673ffffffffffffffffffffffffffffffffffffffff163373ffffffffffffffffffffffffffffffffffffffff1614615904576040517f08c379a00000000000000000000000000000000000000000000000000000000081526004016158fb9061d3c3565b60405180910390fd5b6159307f3abeaa9a7a5c31ab81cb64392449308332497436d08567b980542059c6cc865d60001b61a6cc565b565b6000806159617f1ea22c480ad27c5f7243099dd1fb9e95e6587591796075f9d2f3506501f259e660001b618dfc565b61598d7f868222a72c06e1356cf16ecc2102f445090478e5e23df458a96f91e0945a00ac60001b618dfc565b6159b97f40db63bac4008ccf6b24e6fab6eac5d2be59a6e30dc28b211ed266d0f096856760001b618dfc565b848461271085896004600581106159d3576159d261c6dc565b5b60200201516159e2919061cc77565b6159ec919061cc77565b6103e8868a600360058110615a0457615a0361c6dc565b5b6020020151615a13919061cc77565b615a1d919061cc77565b6064878b600260058110615a3457615a3361c6dc565b5b6020020151615a43919061cc77565b615a4d919061cc77565b600a888c600160058110615a6457615a6361c6dc565b5b6020020151615a73919061cc77565b615a7d919061cc77565b888c600060058110615a9257615a9161c6dc565b5b6020020151615aa1919061cc77565b615aab919061c907565b615ab5919061c907565b615abf919061c907565b615ac9919061c907565b615ad3919061cc77565b615add919061cd00565b9150615b0b7f02b1e53bc03001a7508f22c0f8b2ff424cb81b1216be7b95f4e94957a20d93f560001b618dfc565b615b377ff7451ed9c0b9861755e91b7fb786e244d88712ad8323102e07de287f6c314e2960001b618dfc565b85600460058110615b4b57615b4a61c6dc565b5b602002015186600360058110615b6457615b6361c6dc565b5b602002015187600260058110615b7d57615b7c61c6dc565b5b602002015188600160058110615b9657615b9561c6dc565b5b602002015189600060058110615baf57615bae61c6dc565b5b6020020151615bbe919061c907565b615bc8919061c907565b615bd2919061c907565b615bdc919061c907565b905094509492505050565b50565b6000615c187f056d3c331e41d5b766933482247804dd3546d9bcfab987ae9703d1a457e7c6ea60001b61a7ad565b615c447f0da131d8f8014c05ef653bc670cf175a0e5cde992a8612ad7ccf33573906d79760001b61a7ad565b615c707f5bb3f1974d080b77263126d43238ce426edfb2c38411144819732805196616f960001b61a7ad565b60007fd5b0c411a6c50ab7237d5bdf5f4be539f3a9603f77c2fe2a10b3944fcb2c324b9050615cc17f7a53e5af97f3281f34529062653a5fc0cb6736ef23b9cec41b16b00384c142cb60001b61a7ad565b8091505090565b6000615cf67f88db71234ef20e6c7f0c210a2eff32285a83602aea71b76735928b1fec940bd260001b618dfc565b615d227f47404897213d514e6f3e46f2bf06eff481bb56dc086749ee0ac46869356eba5260001b618dfc565b615d4e7f0a90175bec34622f2f68238acc9cd835d65831ef7aa90de9974b5693cf40ae7a60001b618dfc565b6000615d5861a7b0565b9050615d867f61b6db5653b1544ecb304c63e268202cc0b2494c113fbcd9f3d8663462239d1d60001b618dfc565b615db27f379a33961ce3dcc1c9b7e8c293cff55d64e383371b97a1643c3c42db33ff710560001b618dfc565b61271081600460058110615dc957615dc861c6dc565b5b6020020151615dd8919061cc77565b6103e882600360058110615def57615dee61c6dc565b5b6020020151615dfe919061cc77565b606483600260058110615e1457615e1361c6dc565b5b6020020151615e23919061cc77565b600a84600160058110615e3957615e3861c6dc565b5b6020020151615e48919061cc77565b600185600060058110615e5e57615e5d61c6dc565b5b6020020151615e6d919061cc77565b615e77919061c907565b615e81919061c907565b615e8b919061c907565b615e95919061c907565b91505090565b6000806000806000615ecf7f8d456cff4f01b4fffcbdb6e1e8528d0f6809870ba173dfd15bdb8481fd6d231e60001b618dfc565b615efb7f430f0810d79eaaf8e49d756623952072f5acdd36d1f27861d1c90e461d195dea60001b618dfc565b615f277fce33168b7e849ae4ec477203310b60d280b6e1b9f2f5d6d1204874ea8ac87f4560001b618dfc565b6000615f3161a7b0565b9050615f5f7f013d6cf2de9e18d9cdd9325905b934db040b11c5c7363b43b73a47226eb7df1b60001b618dfc565b615f8b7f4719bd87e499117b65c454c93282a58d55418b6597d339039c1a0582423de03060001b618dfc565b600181600060058110615fa157615fa061c6dc565b5b6020020151615fb0919061cc77565b9550615fde7f7415de468ccc9ce135dbdb65c0b49113f227fcb92e2a2fc3f344542e82caf2a260001b618dfc565b61600a7f3be1a167faf06424c125a58016e4ba93a3ceb38009123666afdbe8b6c55407b360001b618dfc565b600a816001600581106160205761601f61c6dc565b5b602002015161602f919061cc77565b945061605d7fa300731e1b82e97698aaac3801cbbdc56ad920f26f86926d58361ec5557811c360001b618dfc565b6160897fb79032536628c24cb9e667bad6fd3c3fbe59a1e7733f6d9e5c2c10a75494138a60001b618dfc565b60648160026005811061609f5761609e61c6dc565b5b60200201516160ae919061cc77565b93506160dc7f99fb7da13957c2dc81b54269ede0eaa470c117e8151d45753a42dc43e14560c660001b618dfc565b6161087f62f316f2d5d92db1db155b34c65fc87cb5aca0b7e139463c5741d15607d0b66360001b618dfc565b6103e88160036005811061611f5761611e61c6dc565b5b602002015161612e919061cc77565b925061615c7fad17e49e410edcf5eb5e34504804c5ad56a510fe54903e706137019cd00f93de60001b618dfc565b6161887f24f1ac65f2eb94ece0d4a059dec9f5673c918e585fcbc7090173adc92cc2b19760001b618dfc565b6127108160046005811061619f5761619e61c6dc565b5b60200201516161ae919061cc77565b9150509091929394565b6161e47f482fb82db180c4015f80813143c786e706287881c89befc5734f32562d93c2df60001b618dff565b6162107fd8cfa0483cd1ae149c1adcaae4d322f8d9df38bd95dc49509e1bde63198cfca660001b618dff565b61623c7ff59189eb981965178088ab926dfee7be862dfbb5af4bb331937bb6dd2b8e4bee60001b618dff565b6162446157bb565b6162707fb51c00a6f7c3f5e1fcd35988dcc7c4ae54a16281e0fc5e65d68ee44e2cb1f6fc60001b618dff565b61629c7f75c22fa49c1994a5394a4226f4dea0833051ede04f81916eedcca5442ce046b660001b618dff565b60006162a6613bf6565b90506162d47fce529083476a128d3f966a459dfecf6204e46d45c32ad62126e894b6a9ce77aa60001b618dff565b6163007f529817bdb540bd9ce2666eb9fc7a7f792394f96bfb24de87666451af3674b22e60001b618dff565b6000816000016013015490506163387ff9ec6f01e15c1f2138247507fd06818a931cfb3400c944800e8ce1da675b2a7f60001b618dff565b6163647f8b61f61bfaf16e01fdc01c05be636cb1f0e6e25100ea5e7d95ca67401a68264e60001b618dff565b4290506163937fb35cf2f1369fb8e9efa89e68bec58f5a574ac11666e026eb3bb1fc8408fabf1160001b618dff565b6163bf7f626ddf2e3a365a427041155cff7c8fab158324e612d636492465741c18e2924a60001b618dff565b6163ca600084618e02565b6163f67feef6153ed6905e22eb44dfc95eeeaa239207961bbaf696aea26014bd281e6f4560001b618dff565b6164227fe1c6efd0cd1d416d73d55b829390d476716048f60b6270100fee1748c3da6bdc60001b618dff565b600082600001602c0154905061645a7f4f39726c5d30da651640c6708d75f44e078fe2dff4ea07fc7a527438a8aff1a860001b618dff565b6164867f4892111c23db2d2c14628d7871b89f0a04b81eeebc19acf24d65a4bb5b0129d760001b618dff565b600061649061a9c4565b90506164be7fc801cb19a955adab083956f9cacf75474ac940a2ef9fbd06e5691a4810f7000760001b618dff565b6164ea7f79924d734c3453e444394196ffef148bc75142cc9b18f8d93e0b10b4f634738260001b618dff565b60005b6005811015616b81576165227f6f878ada2c93e34cce463e2454eb2aae59d8301b0d6efddb381f4a71413b3c5b60001b618dff565b61654e7f6d01c91b7b931263b7bddeb6ed44821f263ae4a9ad9b356e14a65f5b663f4aff60001b618dff565b60008560000160100160008381526020019081526020016000205486600001600f0160008481526020019081526020016000205461658c919061cd31565b14156167ad576165be7fb3af507ad050d44ae314566258daa65232cc71760218165eed7f2ed9ea91233060001b618dff565b6165ea7f6131461ccbba10cd16f5d33180e68333c457f93d0b65c34f8b70da59fdf5de3260001b618dff565b6166167f903e69480950ab56903b097a6260e2445661150983ebd52914ba19d69917362b60001b618dff565b8282826005811061662a5761662961c6dc565b5b6020020151616639919061cd00565b85600001602f016000838152602001908152602001600020819055506166817fa2394a7a8394f8831d0ea1943f2e7829c80aaa750b2d47988146ca8626abfdaf60001b618dff565b84600001602e016000828152602001908152602001600020600090556166c97f919afd87625a751c2241fd57702136769c5bc76a06ace5fb15c7044714e4a6b760001b618dff565b6166f57f79a623ebc1346b5f134665a7566748ef3e3c83e32204e13908fa78b66928158760001b618dff565b6167217fd71cf94ad53722a57f12b73fd7f5d196143f9f8d4df3d55a007b6561b54a61d860001b618dff565b600085600001602f016000838152602001908152602001600020541461677c576040517f08c379a00000000000000000000000000000000000000000000000000000000081526004016167739061d42f565b60405180910390fd5b6167a87f7bd3d74001195de821e8caffde6886c6cab6c9656e30385b4dac1e83a79ea6bc60001b618dff565b616b1e565b6167d97fb387da585604642e6ae5e5510f3afb726df299fdf91d5b265d37ab8cc9e935d460001b618dff565b6168057f8e0edf6c8e146c86dfd886ba1cca1e7ad38e60e7961a1ba5c206e21dfdbfd13b60001b618dff565b6168317f2e09985fc355a28a1eeae8c70f81e681d9a727b8e471972db7a17399b3b392b860001b618dff565b828282600581106168455761684461c6dc565b5b6020020151616854919061cd00565b85600001602f0160008381526020019081526020016000208190555061689c7ff65c2d0b86ebd081be9281e8fc683b2f79047af779bce6f9e0bd3d01c139722d60001b618dff565b6168c87f63e4d032ea0659b6cae6f903906a9935d5bd13ba1b89b11ba939935720977e7c60001b618dff565b6168f47fb9ded4ede6550dee8581cafaebe98849c4d70514153b384033b9b47ed326aea360001b618dff565b600085600001602f016000838152602001908152602001600020541161694f576040517f08c379a00000000000000000000000000000000000000000000000000000000081526004016169469061d49b565b60405180910390fd5b61697b7f2474fbf4bf00c5cdb79d73a98b0cfb228385d6749e4976fffc7c22d730cd48d360001b618dff565b6169a77f0569eeebc4cc410cf513fb54af2aaebb0b5c089a74df78f7093ed98c0e101ecf60001b618dff565b6169d37f3cabf73a1d7a3f43999e3ba539635e0bc93a1bf70f66dc3be45791876e7264c060001b618dff565b6169ff7f6a61ce27044c6ed1d9812b13433daa3d3bce9ccbc618f2335ec131cdee826ab060001b618dff565b818160058110616a1257616a1161c6dc565b5b60200201518386600001602f01600084815260200190815260200160002054616a3b919061cc77565b1115616a7c576040517f08c379a0000000000000000000000000000000000000000000000000000000008152600401616a739061d507565b60405180910390fd5b616aa87ff1d26af6aaf67a06549985d1614a66000de7e04370828a38ca52389c2e5aff4e60001b618dff565b616ad47f7e71ec776083584f4af4af5ba56e56fe6e1b116da98c8229c8feb135809b41d160001b618dff565b616b007fd22d02a0adc4c512639b64fc5863beb2d8cbae799e315cee313fd401ec50725460001b618dff565b4285600001602e016000838152602001908152602001600020819055505b616b4a7f3fc826ea1cb7f9bc5762c425a5bd2dc172f91ec6d249c9d5c1e391eb7080c19460001b618dff565b616b767f725ee796005cc176e5faeadbcf5aa86ad104b81edadec1fe21505d6dbee7966660001b618dff565b8060010190506164ed565b50616bae7f3862193daafe8420da01888ca7fc130058f5fe1a16d870586aa33389e2fdb0e360001b618dff565b616bda7fe46b1275f3a3bcfe8b6e721a9a57837dcef568eccfbf051865004785f131057b60001b618dff565b8142616be6919061c907565b84600001602d01819055505050505050565b6000616c267f57747667e8b005c2f220a8f765016a543bb7663d4642e3812c95c63061cfcf9460001b61abb5565b616c527f98fab446eb66bd64b30c07063f060fe67b4db79ae8837bfcc8c0fa7cb67aabd560001b61abb5565b616c7e7fd311dd416734c8958feae0b2169e4cc2af1cfc0beb1b7247543c6e415c5e470d60001b61abb5565b33905090565b616cb07f7551980ace60a3bf4fae98dd843c6d413314148d3b3c889bb44968847ab8e1ad60001b618dfc565b616cdc7f27a8d4b066849e7621c399e856427ad820ec88011f29e5509af9263e406afed060001b618dfc565b616d087f4017c77e3137d73e0d26d6f3f76b83df5c6359fe228a01c4ba18d1d5b6c8f28160001b618dfc565b6000616d12613bf6565b9050616d407f90b1672065d2a71738b193d909f108bd768cdc936ccc414d7b50463b1a7e39a260001b618dfc565b616d6c7fc96df5235fb32d1cf8f9a565ddd73873b8938f8d310fe5a90d20d647329d20e560001b618dfc565b6000616d76615cc8565b9050616da47fe570ba589828521391eba380deb6fe8b42d369036d3a4424763498e9362ff95260001b618dfc565b616dd07f2e720ad83e1a7c8acf135612a9bfe16df3a419e7921a5fae725f893827a6b80f60001b618dfc565b600082600001602201549050616e087fec97ada47715b23ff07350af9c185e7b114930d77f6d322706bc6c3ef3dc87a860001b618dfc565b616e347f93d840a7cc0ac191726132b2501612355bdec3546f8233a108e6fb93c2456dca60001b618dfc565b8260000160000160009054906101000a900460ff166174c857616e797f8d7986dc9b2e7b20059fb8db7b8999660ea4ca445abc10babff17cceca6d993660001b618dfc565b616ea57f05db88d4bccef8a6ba4c0cac06aae83db02dc239cfa3f1d96f1b03703583bba660001b618dfc565b616ed17f3bdc49827dd12d32a633c4d8a1e54ec31dd6285b89579e46cc55fdb16ed4770660001b618dfc565b620927c08211158015616ee657506103e88114155b15616f8257616f177fd5b4b97d692e8fe6d13afa4d988e602c0ecff7d885cb9129c78d27063c5c99e560001b618dfc565b616f437f7f0239e3036b6fa70f0dea2a7349ecb56d7ba91487b81341d514704152ae4e6160001b618dfc565b616f6f7f54098bf52efb5d1b490e4dbd00a2996867b9abf9217e0f9c7d3b605dc7826f3360001b618dfc565b6103e88360000160220181905550616faf565b616fae7f8f994c9eec1f47ea6e6ef72dbb26143e4fd6eb706cfe59217f4a57ed5f9c6d7d60001b618dfc565b5b616fdb7f07371aa29c7bde731da4970341a1edfdc05d5252abe45d3fde92f92093c0a00460001b618dfc565b6170077f833f323bb84037a38ed0cf46ad87286fec362e31c644c4b973802c88b2a408c260001b618dfc565b81620927c01115801561701d575062124f808211155b801561702b57506103848114155b156170c75761705c7f3d42f5c256498c1bbbe165cff670fe578fd8cb63a30f9adcd47b7bb745f4a9d560001b618dfc565b6170887f7f6784ea1e8201add109817341e3970de7beb36d765f85fd1a0ba4529e8a7a9d60001b618dfc565b6170b47fd42723a019f8a16c9e40734f992bc8326b942046d1e7b515b3b88afb7409100960001b618dfc565b61038483600001602201819055506170f4565b6170f37f0170ab570284cf20032a32e6a0ae8537e64d98746954b9bba15a263389d43fcc60001b618dfc565b5b6171207fb46be680ab62f4cd620663e074eaff7e148938eed795212227645fea0888911460001b618dfc565b61714c7f809bd70ba8e77fe3f69603c292d07b9106c19fae7a0ffff4d1704dc0e29fb85a60001b618dfc565b8162124f80111580156171625750621b77408211155b801561717057506103208114155b1561720c576171a17f6c0fb483826d32dca51af24436418d05c3b81257798a1e8dbddc2984697fd85560001b618dfc565b6171cd7f54720ccd4239576c2d4ac298bfffb19ac53737db9ae449608c78100dfd8593ab60001b618dfc565b6171f97f9e7af25bacb300df7ac7e7b02c9950b50dc3eb143b9614783dc2b5285308c43860001b618dfc565b6103208360000160220181905550617239565b6172387fa69be51a2459997212a62e1ab11c1bef736ac55bf3a43c4382c8be56bfb7a3bb60001b618dfc565b5b6172657f775d41decc83ceea7e912bba4b655605418e8bc51b7435d5051582227d5bb37e60001b618dfc565b6172917fbb6a89ee2d7681749ef0ad46cf1ccdd747f53052a8fde8b4537007d357b7429b60001b618dfc565b81621b7740111580156172a7575062249f008211155b80156172b557506102588114155b15617351576172e67f047e51a773cec13c21cc917f4fee6a572bd1c3523374ef84a13a3278083ac35d60001b618dfc565b6173127ff4b59b28293363350435fa8debd84eca7187080ff0e051a91c13b0995e062f7c60001b618dfc565b61733e7f58cce5e1572ade7aec41302387d541e687eda14ad84c9964e90978679d656db260001b618dfc565b610258836000016022018190555061737e565b61737d7fb99c2a7e08e06a71595b0c42446de2532efdb925410b645c200d7022b3364de560001b618dfc565b5b6173aa7fc512ac302ea2972008a18b7c3a813b4b76b9e6177a226716fb7719b59aed8e2260001b618dfc565b6173d67fb62334f64affcfce001a1be4a0ce1bbb94b60c99c492a1e85876650c6fb38c1360001b618dfc565b8162249f00111580156173ec5750622dc6c08211155b80156173fa57506101f48114155b156174965761742b7f30b913d69ed8115787222411bfa5e6e39c9e339282d9c2dd4ea5313ef98f393060001b618dfc565b6174577ffd137c566007c3c79c580883e2600ac02d28d83a42ebb226558cdd807a20657660001b618dfc565b6174837f43b16a2195e0e5f88c4b9340f97f1ce57cd06c635c3f08b3b5719c4f38fe734860001b618dfc565b6101f483600001602201819055506174c3565b6174c27ffb6a7bd3bf9df6de74c72d428c54d76089a717d60ebb766d8be910694f6c168f60001b618dfc565b5b617b35565b6174f47f63b2b5aa6a22bc1ffef9b42f2d7730d3c62904b97b5b13fd47404f40172d13cd60001b618dfc565b6175207ff0f31ff772c96fc54afb6b44201ee6d82f1e996c1b34662c874f4713edb4490c60001b618dfc565b61754c7f18dfdc4295e9b2c3d94df27ed83b0d0c69037e475a1eaf414b706f2c601ce84a60001b618dfc565b620927c08211158015617560575060fa8114155b156175fb576175917fbcfec1a3a03abfefb84d8711ab97a737496c28c4fda22e76d6fc7ac7a79e719960001b618dfc565b6175bd7f7982bd72aca0568b6f953e1a8f04ab2ac19f03edd178c69434ac35448e3d36b860001b618dfc565b6175e97f0edae49828509d40e05b149a21f23ab99c31ab795bfaa2fc5b83cfa0abad2e1f60001b618dfc565b60fa8360000160220181905550617628565b6176277f45f70ce0a965aad71d88524549f2f17df5136a99dce02e09f7b458417db3dd4e60001b618dfc565b5b6176547f0e8fad599e40189ae1db6a35dd40b9e328a25b05910b4fb9f139a92a7dfa7ca960001b618dfc565b6176807f6360bb06be6d107b414c4aa61acc042d77b48ca02872c6a742d3ee7bb732b68260001b618dfc565b81620927c011158015617696575062124f808211155b80156176a3575060e18114155b1561773e576176d47f130996626815c9f5c9622c275ec16e57b19d54fea0ca38bae0e44ec3b193765d60001b618dfc565b6177007ff64633b6967b99ae9caad4db6c7081877fda775ef85da972680c479546ca373a60001b618dfc565b61772c7ff14c86b018c266064c49d9cc402e695d7bf0a547eafd3d2e9517c658370ff4e960001b618dfc565b60e1836000016022018190555061776b565b61776a7fa5ef89d1e41606d71f8e078f0905683ffaeb3c93cec0790f5b8bc7c72ae6ec9c60001b618dfc565b5b6177977fb41461118abe48b9ec8bb652b17e89d6c24936a7bed8e8f12d8d3c2fa436d1fd60001b618dfc565b6177c37f142dee16672d31cc2a2df22145e70053f47dace185778a65ba9398289d8d9f4360001b618dfc565b8162124f80111580156177d95750621b77408211155b80156177e6575060c88114155b15617881576178177ffa425314085d05ad450527d728c7f05b467230fcfc0193ac7a986d26c2a16abd60001b618dfc565b6178437fd76265f654577caec90cc186392b515ac2bae1bc5889cb421906e83e8752e61c60001b618dfc565b61786f7f01e8f554f02f6b45e6cbb1f3b9c1b4a5e86940973dccd17dd030978e4f514df660001b618dfc565b60c883600001602201819055506178ae565b6178ad7ff537bfe1b4524dd4c4bf7dc3deeaf79508594ce6fc4e5f3d92595b6f9fe7a67560001b618dfc565b5b6178da7f913dd214affd72e1ae3ef78f13bf7c78bdcc498be763fedf1c5524118ccd314060001b618dfc565b6179067f7d6f8f9f95f8dd8f1b7bbb7c699abc957dcfb15b6a227d93f0df678c227011c360001b618dfc565b81621b77401115801561791c575062249f008211155b8015617929575060968114155b156179c45761795a7f3ba3c6951d1bd8ef7186d3ff08b91540b172d951d59584472c2e955eb8a6b2ea60001b618dfc565b6179867f69830aef5006669869f18edfd5a3f8f7fe26a169e48649548a51684195d1659a60001b618dfc565b6179b27f3bdf528f72a41e630467281ff0c6b3ca6ceb3c52831949dca921b599d05f615860001b618dfc565b609683600001602201819055506179f1565b6179f07f381ee473864612efe73e4ee260e3f684b6fb39a3882de76d028b2e8a9a8078b260001b618dfc565b5b617a1d7f2fdcf08569ea359970eb9e03238f405d8af0b22d45aa523620fdc81bb9601a6760001b618dfc565b617a497f431d4e2356015ddfdbefa899c32a2d33e75e47abf00fc71ea7541031576129d160001b618dfc565b8162249f0011158015617a5f5750622dc6c08211155b8015617a6c5750607d8114155b15617b0757617a9d7f87a841efdaa71534288afe25b570869ca86436e16abd4c3121fa62e0c0c6f74460001b618dfc565b617ac97fd9330cb7a8479010f54941a0f620043b8e182ee96ce5a16f30ac6a7e8466058460001b618dfc565b617af57f5a9f044f2ef6693e8444d2d1b8948018df9507d9703d159c6587af173144af1360001b618dfc565b607d8360000160220181905550617b34565b617b337f3d891ebe66a676f8e612a75df16a76096e24e1f6e044e84e853da5f3beddbc4260001b618dfc565b5b5b505050565b6000617b687fb1d488c17a16c1eba2d893149ea8caf29ec7e8a7848edd9c9d12dd4bfea3d5f060001b618dfc565b617b947feae71307a995e652894107e210c5f5765d13d6c57833f156d3d4d5031b3d12ad60001b618dfc565b617bc07fffbb726ec766c46acb964190fcbe16a6f788c2750879a2f30e49d82e18ad4f2160001b618dfc565b6000617bca613bf6565b9050617bf87fae89f71dce30d36ba5a280769c5b84568e0a79c7ac249a53bed7bb0e48f9dea160001b618dfc565b617c247f6dbd5245851c743eb47d98a71cc71ef4e2064a7b95d82b6e9dc10a5a50e7c7fe60001b618dfc565b6000617c527f1b5cee164a3e27cb90a78d6f17ae14e46b1c3dd2f77d9aea0c0bd08122b919bc60001b618dfc565b617c7e7f9611178ac79e75f7a2d173735fe979845eb0ce0bf051e6eeb5ad0e942e55c78360001b618dfc565b60005b60058110156187b757617cb67f3b436a98b45ef3ebe946be67fb1e8c284d0a88165e553087339ae250052ef37e60001b618dfc565b617ce27fa0042d3e94e680b9e94e8d673e59ba0f2064d168690927abdda233a210cb575d60001b618dfc565b82600001603c01600082815260200190815260200160002060008873ffffffffffffffffffffffffffffffffffffffff1673ffffffffffffffffffffffffffffffffffffffff16815260200190815260200160002060009054906101000a900460ff161561834457617d767fd7d77ae1e64b194642954a7beb7ee6ae77b59aea94b74773986251dfde69d28660001b618dfc565b617da27f7e015e21018a83279a2c68f2834b82bdebfdc3a396777196996863e5c5f52edf60001b618dfc565b617dce7fa1bd7e497f971b63214f9785025276d8c71f153b41f8882c9a783f1d8013bc9160001b618dfc565b617dd88782615110565b1561807357617e097fd35cbe9aaba72332a3c3086b6db8832309da5cce615e81aed8c368f666e4271360001b618dfc565b617e357f37d9e49fd84c7552d7ebbbe9b731b7b91eb742b4bde361cb3ae55a6b22e2211b60001b618dfc565b617e617f4eacf87eb51035c874864d41e02c6acbed27855fe00ab8050913e151c6fe602b60001b618dfc565b600183600001603c01600080815260200190815260200160002060008973ffffffffffffffffffffffffffffffffffffffff1673ffffffffffffffffffffffffffffffffffffffff16815260200190815260200160002060006101000a81548160ff021916908315150217905550617efb7f7b77efcf224b256a39c682e98367ffd79af761abadbe514377a7e9460e6635f760001b618dfc565b617f277f48a7472500632cab09ac7e658f9dc6bd5add12d3eaea6c936ff4c7661c8ccf2d60001b618dfc565b617f2f613cd4565b83600001603b01600080815260200190815260200160002060008973ffffffffffffffffffffffffffffffffffffffff1673ffffffffffffffffffffffffffffffffffffffff16815260200190815260200160002081905550617fb47f02c8874446882f70125939d8c38ba8f6fc7fcf28f4c1809081221b40ee80f97c60001b618dfc565b617fe07f281ad9a0efe6365c2fd311faef83951440134cf1129031bdda47e86d68d52b1d60001b618dfc565b848360000160100160008081526020019081526020016000206000828254618008919061c907565b9250508190555061803b7fcb88a0d61762a5e828345b82e3690de3d303605a96a174af4ef8b44d55ff451560001b618dfc565b6180677fc333abee4e25afa75c26d56034cc943bc7b391ccd52024a564750c2607f4dfeb60001b618dfc565b60019350505050618817565b61809f7f696c7d6735378e4710b45a25c4b987d24db491d02d70a6308e3a5bcde24e518b60001b618dfc565b6180cb7fd60da757bd5eeb83fab90cc2cd44790ae427884d8ec7c7d1072f238f5ba0c11b60001b618dfc565b6180f77f73d1765a35c02042b5819eea15e5eae8cb1faf21c08fb76597019da8d8e38c4960001b618dfc565b600183600001603c01600080815260200190815260200160002060008973ffffffffffffffffffffffffffffffffffffffff1673ffffffffffffffffffffffffffffffffffffffff16815260200190815260200160002060006101000a81548160ff0219169083151502179055506181917f83b0ccbfb199b5662998f22fb39ff8071629bc062afe23364fa95ddc8d26a09760001b618dfc565b6181bd7f626dbd4b48258134fd0703494e711cd0a7e1217bd12691437bcc4c773a897fe760001b618dfc565b8583600001603b01600080815260200190815260200160002060008973ffffffffffffffffffffffffffffffffffffffff1673ffffffffffffffffffffffffffffffffffffffff168152602001908152602001600020819055506182437fdc0cf65aee821e2e656f2384dc107fcdf195523249d7d28709dc0914d8f6af4860001b618dfc565b61826f7f3c8b29be2a52e60021cb7611e340802a207ba5bdf758d0b8961525fa339a60cf60001b618dfc565b600061827b600061abb8565b90506182a97fe1953e567b24a67aaf5c3d81c01dd6625a30caba991c3375b6dfdfad56784ff460001b618dfc565b6182d57fdf82b8764ceb6d061f4655d5d538ceca52935f91d2dcfe93792ca3fd64cdcb8e60001b618dfc565b6182df8882618e02565b61830b7fb63a296aeb5074d6cedc60ea250b14bc2d184cf752ff4656fc6535da1f1c451f60001b618dfc565b6183377f1bdaf25274f424dc99f138ed6b273075aba112c89f72e97658ca42c4921a7b9560001b618dfc565b6001945050505050618817565b6183707fb937bfd2d2bf25c02dd6a69541620bbe797967a7012d7cb33c71b620ce832aa760001b618dfc565b61839c7f14c90cf6c3ae690f6b03e72ef1722ed013f31e19d5d46beffa72a4e2fdfe2f1660001b618dfc565b6004811415618728576183d17f21bb241dcedc64bcf5edd1c06582cb368b52ef6283b5ed9fd6c616d5312af01660001b618dfc565b6183fd7fe8bb20d33c3e596aa52c9d7f77d100101222b4cad5e2601f0b3f83b5d0bfd72f60001b618dfc565b6184297f407d0fb95bd6ea8d29ecb416e8267315de173ed551097a25ea5e3271c5a0fbb960001b618dfc565b600183600001603c01600080815260200190815260200160002060008973ffffffffffffffffffffffffffffffffffffffff1673ffffffffffffffffffffffffffffffffffffffff16815260200190815260200160002060006101000a81548160ff0219169083151502179055506184c37f42e51e9dee00b47e84c8e52456f40b45c393d800e6b3d300744b9dc64d05510560001b618dfc565b6184ef7f8e420f665dffab7ac6fb1e76f4057931778ad5251b0bb029366ba086afb854dd60001b618dfc565b6184f7613cd4565b91506185257ffd672ad6f714ca947c9cf0ad497746906f9d57a1cdcf46560619dcb36f7cbe6060001b618dfc565b6185517fc2b292fc667edec8921de5f23493d58a998b3f7b648a83857e1272b0c6f6219860001b618dfc565b8183600001603b01600080815260200190815260200160002060008973ffffffffffffffffffffffffffffffffffffffff1673ffffffffffffffffffffffffffffffffffffffff168152602001908152602001600020819055506185d77f4fc7f68e7cdb71bfc643abc27de44ceb450c3598485caa3f4b9108b764a0757c60001b618dfc565b6186037fc33d1a28b2e17d13ad48ff0ed4b7607af3474e305f90d8c76e5113560cce7c2f60001b618dfc565b42821115618697576186377f92acc378e4fab4f5dec1edd7b9cd11c9dcb7429780733be3ba53bde70b4b49cd60001b618dfc565b6186637fcfc3cf0482933c9f4f4c7adacf748a51838e9f32828c54cbc61ebfa4c802481c60001b618dfc565b84836000016010016000808152602001908152602001600020600082825461868b919061c907565b925050819055506186c4565b6186c37f458c2f9b2980bfcd8d03b053fdadbb2aa60835c7064b4fefc62bfa5e2559b6be60001b618dfc565b5b6186f07f0ec007e099619509916e639c2e3a5798ce0b98a24443db3d4667975ae23f2c3660001b618dfc565b61871c7f71e516c4425afca7e1a55bab28ca45032a8e8ba7cd10feb8c99deab90cb2b8fb60001b618dfc565b60019350505050618817565b6187547f79c2dab7bd3f1c45832292cd8346356751205bdd86e54214a1a3a1ac3688b81060001b618dfc565b6187807f21328dc6484abe07526dff1647b6e8fba11d7a6a5dd6f3a7379f7c1ff14d6e2560001b618dfc565b6187ac7f28d958df3339ff31d7622afbc1f9b652f7dedaba956b941e1304bfba0b2bbdf660001b618dfc565b806001019050617c81565b506187e47f22dc070806824fb8d69605a4b4dcf620f8a892a535ff6d90d3923c50741ac14360001b618dfc565b6188107ff7299e77c7791de1192b8953b71e7f3dd1f7b828a07671eccde055cd3097087a60001b618dfc565b6000925050505b9392505050565b61884a7f1e834b2a9a3090cf656f17c078e058d29e9528201703b797d01353ca32d2131e60001b619a2f565b6188767f3b46c0c7d3a0d6bd03222e629913df8922784a30932bd7b9dc2d431b81809a6260001b619a2f565b6188a27fb202d3d6fb7a49f772f4b8a18d1f0273a7824897811edecea44739372479168460001b619a2f565b60006188ac613bf6565b90506188da7fac5faee795d8714738cf342398e027955f8bbf15b1b4674ea86e301ff3bc30dc60001b619a2f565b6189067fcdd784e292a51ffe04d1b079dd1ab645bca7745c8fe5d7ccb604c175a20158f960001b619a2f565b6189327fcbd1e478a41d520cea1f0e7cc934eb3f4d26843c7c1699f6151c6474c492863060001b619a2f565b600073ffffffffffffffffffffffffffffffffffffffff168573ffffffffffffffffffffffffffffffffffffffff1614156189a2576040517f08c379a00000000000000000000000000000000000000000000000000000000081526004016189999061d599565b60405180910390fd5b6189ce7fb40694681a9d01f5370f15d28fb1fe1c0a2657688a3522a3dd4916a8ea52ed3d60001b619a2f565b6189fa7fde97ad692b134d93129f0a0b3dad5b1cb0e1b5f97863da6e98f61d2f48d0822860001b619a2f565b618a267f31425a0afb9f466629a403b69d863d8785c8c1eac9b20cefe01faacb767d9d4460001b619a2f565b6000618a30619a32565b9050618a5e7fe24a7874fe913022356878bb0d861c22347ed1c90a5d007792270c91bbc6b7e260001b619a2f565b618a8a7f3b3ee5e19c25598e8fd3d0f8e87df91bbc505fd7d5828a28042521b4182266fc60001b619a2f565b6000618a958661abb8565b9050618ac37f4d38d7560c5ff32e6b976fc05fde79668d712c364f9dd63ecc5b51da586c944660001b619a2f565b618aef7f998c7647409f20dffbf54689e0ebaaeba9f65d6d924efe2858cd8029924748f460001b619a2f565b6000618afa8661abb8565b9050618b287f4f3259dbd3fae882e0db39c545a828235ae8db048b8d752ecd2b390686eefb5d60001b619a2f565b618b547f43d16a36b5296088a7ab973a5f1569d9fd224b39f032c218bc6482e9a80c2caa60001b619a2f565b618b638360008a85858a619abe565b618b8f7f01afb2c4ee25906d4f6ab27daf5138d93fcac287c0797d0431be832e3bbfb18f60001b619a2f565b618bbb7f698d5937c185f0ab5bbb31f0bccc7d97f5b3437f6648b1f0a6c050a8befa3a8a60001b619a2f565b618be77fddb271e08d2cbd3d2bdd55e4cf4113e16350eee0dac42a51c0c7d1ed96ce9d4160001b619a2f565b8584600001600101600089815260200190815260200160002060008a73ffffffffffffffffffffffffffffffffffffffff1673ffffffffffffffffffffffffffffffffffffffff16815260200190815260200160002060008282540192505081905550618c767f76f4274a6bfaac4a6e18d6499ec0ae7b9c8d78674e707ce7f3d6bb7dc92cb9c660001b619a2f565b618ca27f69bf6a5cca21d7a6b8d1af9021bd4d136d561d8a082962aed7e52764349eb43760001b619a2f565b8773ffffffffffffffffffffffffffffffffffffffff16600073ffffffffffffffffffffffffffffffffffffffff168473ffffffffffffffffffffffffffffffffffffffff167fc3d58168c5ae7397731d063d5bbf3d657854427343f4c083240f7aacaa2d0f628a8a604051618d1992919061ca32565b60405180910390a4618d4d7f888256ea5b9d4fc0224aac7d33a1ebd2bdc63ac607a1aa0d97cd4079e99f31a360001b619a2f565b618d797f37605d7ba56fd5783fe573b253384f4ecb46f46fbf2e9f6a33dbd1fa0da8003a60001b619a2f565b618d888360008a85858a61a16c565b618db47f74c63248506be74dee3e5e2c7c47bd9c983105faf4486fda63f555a1f432758b60001b619a2f565b618de07f9ac1e1be24c548455885114445f63d417dc778b6dd47dae589ea095419ae424a60001b619a2f565b618def8360008a8a8a8a61ad66565b5050505050505050565b50565b50565b50565b618e2e7ff5af116673111d57b570a7ba90df9ed15d12f923b3bb7d905cb1b1de26d7c20c60001b618dff565b618e5a7f130d49108a3d7eb3f19a131e412afac5b84c783794be060933e33fcd8a83494e60001b618dff565b618e867fac96e9cf9ddf5b4e4a922221d59f4d0bd3c4e3457c07f31467a4aaa440b7f93960001b618dff565b6000618e90613bf6565b9050618ebe7f31cf970dc48680a44874527d390801bb777a04db28252c19d092b558e68418fb60001b618dff565b618eea7f2bf924b8aeda7871f585133551d5aa8104042e14c05492c6d794e2a3335af47460001b618dff565b60005b825181101561909157618f227f4a71fbf0f6b770393794b274bee4a215244de70628f6ad538550a18d3efd054460001b618dff565b618f4e7f88477b89057a82541b7ea93b25025ea7022a370ca76139fa25daba66de89cf3460001b618dff565b618f7284848381518110618f6557618f6461c6dc565b5b6020026020010151615110565b1561900257618fa37ff98f06a7dcb7e05fae6cd2c4a3046163bb0a21520976fff4c660c40d1a01e54d60001b618dff565b618fcf7f4a4bf0f84b4936a6879994d4e4e6fec439007aadfcf8b1216b4ec415b01139b960001b618dff565b618ffb7f8cf2d53de4733a67bc53af2a0937c93b7c3e29730ab57126ebe7b4208098541f60001b618dff565b5050619753565b61902e7f180f72971cae4e971acdaa54a1f71b752705d52362cd8c5f22b0a4e6d1d8afad60001b618dff565b61905a7f213d44b3d4c04624bf0471576ae2b73dbe19838066716f9e8d1cd1bf54a36c8160001b618dff565b6190867f0d2bf838aa383c945edd0d875b8a4d81c085d6e33e06a7e8d28aa2462046395360001b618dff565b806001019050618eed565b506190be7f71d43e55d6fcc969705851c967543b1ffca53ca25431f365b96448c4085d937760001b618dff565b6190ea7f8e9f593fd6c019d1126dabbcad771261c101d2256827eb4ef74944d3492e217b60001b618dff565b60006190f58361b23e565b90506191237f21e311a76e61a65eb8c5d3cf746b86b2d744c865cf2813e1ea9694e6a6476b2e60001b618dff565b61914f7f47a785345ce8d921146b8d80e89d764db6237026a1fb0febba6e7ce2be71978c60001b618dff565b600061915b858561b83a565b90506191897fa374a1fc8979af8f0acf6cf2881b57e575608f983e527b1de570ba558f86d1ff60001b618dff565b6191b57f7cb8b9a13bf6989ea708b4fca42c78abc19927337a3c4fc26237266bd9ff111660001b618dff565b60005b845181101561974e576191ed7f3b916f0c722cf1f67366d133524eac2bf59bc7204e56019603d4e0168832645260001b618dff565b6192197fd378a756ad5b4ad4b5d3f836d1738d4165804e0c15437f1b7f96cdc71bf1063f60001b618dff565b61922161be2d565b84600001602e01600087848151811061923d5761923c61c6dc565b5b60200260200101518152602001908152602001600020819055506192837f05d0c381ba668d55c9b66840f7c2f503c9c72b9a378d4af575cdb5ee2d6354ac60001b618dff565b6192af7fba55a707c9a7617de5bc59442875d65d3ff4f24055cf75271896833c63a09ea160001b618dff565b8281815181106192c2576192c161c6dc565b5b60200260200101518460000160300160008784815181106192e6576192e561c6dc565b5b602002602001015181526020019081526020016000208190555061932c7f39682d3908f4d25026200befede2a775494caa98fa2c2e890d19f038660bf2c260001b618dff565b6193587f6370a2935a25188c3e7cba229d009babf75a9a9bde881e4b23849cb1f90f216060001b618dff565b600073ffffffffffffffffffffffffffffffffffffffff168673ffffffffffffffffffffffffffffffffffffffff16146196be576193b87facfa823c083ad3b242d047f377c9f85e4362c99af88b77e8dd36dd1a2b4cd4ef60001b618dff565b6193e47f9380ea64663e62d9ce29cc31e55d0cc60c3f080d2c0e2a35f6180e8c6c45256860001b618dff565b6194107fbea401ab542ffce18f22d2d8d13430a99ebff078d3d99a05534d3b8155e0ae3660001b618dff565b83600001603201600086838151811061942c5761942b61c6dc565b5b6020026020010151815260200190815260200160002060008773ffffffffffffffffffffffffffffffffffffffff1673ffffffffffffffffffffffffffffffffffffffff168152602001908152602001600020548282815181106194935761949261c6dc565b5b60200260200101516194a5919061cd31565b84600001602a0160008784815181106194c1576194c061c6dc565b5b6020026020010151815260200190815260200160002060008282546194e6919061cd31565b925050819055506195197f5e2fb39b629af198f8cb2021701d7d0533c6cceb26a9d08769ab208fc27c5bd960001b618dff565b6195457ff76b17bc1fe99aad1eeeeab349e9939ba894b062eb68b82bf23de5cdcfc7b90d60001b618dff565b8181815181106195585761955761c6dc565b5b602002602001015184600001603201600087848151811061957c5761957b61c6dc565b5b6020026020010151815260200190815260200160002060008873ffffffffffffffffffffffffffffffffffffffff1673ffffffffffffffffffffffffffffffffffffffff168152602001908152602001600020819055506195ff7f7e238f55fb8691f543114709a5f7ddc68cd88815c784cc4d017afa9ba7d0216960001b618dff565b61962b7f1b4f2256071e151879e6f898751c986d8867d59bbf763e10b9df9316e9c3d4f060001b618dff565b82818151811061963e5761963d61c6dc565b5b60200260200101518460000160310160008784815181106196625761966161c6dc565b5b6020026020010151815260200190815260200160002060008873ffffffffffffffffffffffffffffffffffffffff1673ffffffffffffffffffffffffffffffffffffffff168152602001908152602001600020819055506196eb565b6196ea7fa738feb75dd52968b140fc03b2952cfac74b009acb05d737a0fddaa4ed093b5160001b618dff565b5b6197177f32070c724ddad8e5131443f492450e9af4bbad01c0f1378663c4c8d47472425d60001b618dff565b6197437f75b00caf97654ac33e1e18af856288b9965fb8ee51d972c41c33eaab3131e87f60001b618dff565b8060010190506191b8565b505050505b5050565b6197837fb5d8325ae97495f8e6918b883df5aea4ec9bea72cd9575898f8788b74a604f8560001b61bf2e565b6197af7f7362fa7857774c1a532b71a8b2bd841c0024193625b9b2f075c4c9147eb5051a60001b61bf2e565b6197db7f489103a2f48a9350a848e09b773f5b54b93da58ec73a69ef9edc6bddef00fa3f60001b61bf2e565b6198077fd404361473a8f4709fd7dce43ebfa18c6c787fff8f45747dfcfa60a55fb808a660001b61bf2e565b8047101561984a576040517f08c379a00000000000000000000000000000000000000000000000000000000081526004016198419061d605565b60405180910390fd5b6198767fe6fe0292fd1a037fd94b52e6b7f735a5c19b5b14c2cceb82cfe017b5d802596060001b61bf2e565b6198a27fcb436135ed2e74f2de08b86d1a81677f5b084854d62ff05da6505ab1e189688460001b61bf2e565b6198ce7f41e7104bcc277ac3ef9346b72236c773827da73922f51050c2d6ddc2ee8e8add60001b61bf2e565b60008273ffffffffffffffffffffffffffffffffffffffff16826040516198f49061d656565b60006040518083038185875af1925050503d8060008114619931576040519150601f19603f3d011682016040523d82523d6000602084013e619936565b606091505b505090506199667fa558f11231753f9933635e911812f4c51d22cdb59f288ce4cf83b5f0316b38e060001b61bf2e565b6199927fdc8b7b513b88a1989a0be05e531d94c422ff9e70bd47f1c64ec8912020f43d4d60001b61bf2e565b6199be7f2a6cc4fa82e713272e5b8dc5952cce4200ffec3257cb0e5ecd87685d23a47e1560001b61bf2e565b806199fe576040517f08c379a00000000000000000000000000000000000000000000000000000000081526004016199f59061d6dd565b60405180910390fd5b619a2a7fa0a8e559ff9bb6fa6e3cce4a57dd6bb2c878ac57cb20f1b5315faacedc1f7c0460001b61bf2e565b505050565b50565b6000619a607f8775e46e92b19633604bdddafe22a84f039e377e8ffb760f236d6f6d8d9a8f1460001b61bf31565b619a8c7f2dfc240ad7e692692c4de1de543bbe44e8847e19c42756dfca09b5f35c0318cf60001b61bf31565b619ab87f4ccd5d6115abe600ce72170e14741c6668e8ced3234c59b0e869a6d68c99146b60001b61bf31565b33905090565b619aea7f8a6cdcf1cfc3f4527fa9b3638a680b03c801b688e250702053521d8340025dee60001b619a2f565b619b167f5b611978bd244375bfddcc28e11bf266e373c2b0bf972be96a57a96de55cb2b660001b619a2f565b619b427f23c6f674250f3ca5611afe0ecea35452acd04bcd35109d1e69c3892543bd389760001b619a2f565b6000619b4c613bf6565b9050619b7a7f3a5658dd24afce992608146327ab8d1d7cff60b7bf9ddc98660362823e692f7960001b619a2f565b619ba67f4865da54b9e285848e3127674ce57cd7ddb2add893d6aba058c2729a3209472260001b619a2f565b6000619bd47f514536d60eda836936487a9b0e5425b50a4528bc6f82c33be10e2f016281eec260001b619a2f565b619c007f29259c708cf7e5e78c86a80af27d3fe3b7964a98c72067d6f99e807a1697e7ea60001b619a2f565b8073ffffffffffffffffffffffffffffffffffffffff168773ffffffffffffffffffffffffffffffffffffffff1614158015619c6857508073ffffffffffffffffffffffffffffffffffffffff168673ffffffffffffffffffffffffffffffffffffffff1614155b1561a13557619c997f874dd672dfaa23c22a57ab72327c2c497f7c1038df957ffe676506606a4af62f60001b619a2f565b619cc57f96aec140d916fbd884704177831209d6ba37e5373be115f34fdb306c15f593dc60001b619a2f565b619cf17f789a65116764a78c5f782742aeab8947ebddc6d3c4b988c712c7a472e2170d9b60001b619a2f565b619cfb8786618e02565b619d277fc0970233153641ed7ddbca02070e32d9f35d6184b0b4176b218ae546f6be3ebe60001b619a2f565b619d537f7cc888efbdbf32e0a96bf01ddedbaca4e6fb7c21b55d8a00241e0bf1e3d522a960001b619a2f565b619d5d8686618e02565b619d897f83d4d35c7d922ab70e53492ed83b2781df1419a1e9534a3f2b7030f9e6c248f160001b619a2f565b619db57fcd161db8dde7fb4548150a05fa2e028cb6b69a36a88f05f3c4d46af236b42dba60001b619a2f565b60005b855181101561a12f57619ded7f3e98ba2e04128d1e9755daede14fe9bab7693c266cdd9042ad70626196f4332460001b619a2f565b619e197fee40af4eef9b8f775fd46340c1819540a1cb4e666b08a3309841a96420b4a92960001b619a2f565b619e3d88878381518110619e3057619e2f61c6dc565b5b6020026020010151615110565b158015619e6b5750619e6987878381518110619e5c57619e5b61c6dc565b5b6020026020010151615110565b155b1561a03957619e9c7f8257f9d881f176a2625de2fce9a6db89ecee941dcba8f6e8d0ef51ce50972fec60001b619a2f565b619ec87f53830e9f24335a1e6c0b4dea2c1ad137c0a1698b77c045025d68d584461e0be660001b619a2f565b619ef47ffe7d52f3d27f2a77d6dc0a876a637382dc60e3b54b78ae582c0c315bd2feec6c60001b619a2f565b4283600001603b016000888481518110619f1157619f1061c6dc565b5b6020026020010151815260200190815260200160002060008a73ffffffffffffffffffffffffffffffffffffffff1673ffffffffffffffffffffffffffffffffffffffff16815260200190815260200160002081905550619f947feceb0a8da422835661019f543fed797422d188bbd1118c70d64dcb4a0cd81f7760001b619a2f565b619fc07f717591688cf5ae5cd30064b8f23261da3444306f5d6dfbb28083350eac1920a960001b619a2f565b4283600001603b016000888481518110619fdd57619fdc61c6dc565b5b6020026020010151815260200190815260200160002060008973ffffffffffffffffffffffffffffffffffffffff1673ffffffffffffffffffffffffffffffffffffffff1681526020019081526020016000208190555061a0cc565b61a0657fde10644fa59a2606f285f69b3dc5dcb32b198ab6557aa0de71506c61ef7925ae60001b619a2f565b61a0917f7761bd2068d74eac4a14253df98acc6797b484f8c813ac92abc6809d6bf5eafc60001b619a2f565b6040517f08c379a000000000000000000000000000000000000000000000000000000000815260040161a0c39061d749565b60405180910390fd5b61a0f87f4e6c61a55d3ac325e669a11a1621fde5d12f1017b9159c9a298276ac5b0a760a60001b619a2f565b61a1247f86857412262933d7407249e815d7875882bbcf32eaaad28d9085d6c103c97f6d60001b619a2f565b806001019050619db8565b5061a162565b61a1617f822fca795bee80e548bba318733ceaa7041c82557bae89175163d0c19ee559d460001b619a2f565b5b5050505050505050565b61a1987f2f5f6d126acd21bfa757f4df4ab30075339cda7cb55ffa28a0cd4064b67dc4ed60001b619a2f565b61a1c47fd29aed85409e6ba0b127ef189174585193246665718746b0d5f006866b14b94e60001b619a2f565b61a1f07fcb6430af5cf24faa7a5d4ec4a133396ed440daca277b2d2831ec2b2402fb388f60001b619a2f565b600061a21e7f08c9202d483d0860382a98440f4dde32e71901aa3de5787e77235d9fbd4b6b6460001b619a2f565b61a24a7f60250f179debc907f4f01d9f755537d2e95f25b36e8e80d3dec0e706d6ebc7eb60001b619a2f565b60005b845181101561a4595761a2827fac1baee88ed9e1699227e12258ddcdec68f8ee960d37d621897633a76f55303860001b619a2f565b61a2ae7f0d2fa3bec8cb29ffb9af2ff33b4b7203685422bb2d7bf90c6b22a61a74dcd9dd60001b619a2f565b8173ffffffffffffffffffffffffffffffffffffffff168773ffffffffffffffffffffffffffffffffffffffff161415801561a31657508173ffffffffffffffffffffffffffffffffffffffff168673ffffffffffffffffffffffffffffffffffffffff1614155b1561a3c95761a3477fe370194391fe1f9a111f09871201e2fe27a207140b5748377141ead668e696ca60001b619a2f565b61a3737fabf3baafc913457f88b75eb58bf3bc3afac8412b9f8d2808e90cad3dffa5d17d60001b619a2f565b61a39f7fa7ca4b3fd46bd33cff2c7801e8230b8055dccbbb5cc826bacfd9db2bfe8513d960001b619a2f565b61a3c38786838151811061a3b65761a3b561c6dc565b5b6020026020010151615375565b5061a3f6565b61a3f57f1b218bfe085b2aa36c9e43c43864addf24034cbe57fb837a333fee4263b013b260001b619a2f565b5b61a4227f71453d212079a2fd8c082358874869a7a16c097c7f2e393937abe9832a6b39ce60001b619a2f565b61a44e7f8805342ff1a140c285690daf44e130e5da555f23b3c566cfd5a37492b010e92860001b619a2f565b80600101905061a24d565b5050505050505050565b600061a4917fd249cbeabbe4385464793e60853d09bb165cd9e18021ce415e2161104333190e60001b619a2f565b61a4bd7fd52601cc2cb3cf20277cd9965b2f6e03dd8507cb343278593d18014bc67c7fc560001b619a2f565b61a4e97f7ee4b453d759e6dde8a4fa08bb21cf880eb3c769bfbd60ac7d1ae0fe674560c560001b619a2f565b600061a4f3613bf6565b905061a5217f875fa4aa8b319785e25eb06ebec82ae1dc94c1957a032ee358a9ebb7d448893a60001b619a2f565b61a54d7ffebefabc22f8b718c48c6ab8f2a857d7dc6b5db388f2361df3cef561c816379960001b619a2f565b61a5797fd359addff473ba8d99b52eae464c69348e00d802f469ea2d4604bc77eb7aa21c60001b619a2f565b600073ffffffffffffffffffffffffffffffffffffffff168473ffffffffffffffffffffffffffffffffffffffff16141561a5e9576040517f08c379a000000000000000000000000000000000000000000000000000000000815260040161a5e09061d7db565b60405180910390fd5b61a6157f47609b618f842fa2420d7b52fc0b9d566de006bf97fb02ea86b2a662217d86a860001b619a2f565b61a6417ff17c48cd73553b036e8c7f2f918711efc6f351655cbaa4b442b0ed37bd625c5f60001b619a2f565b61a66d7fc4c74da8a581ce5d22d19db1f77a98604cceb7037f1c1d0ff830a70c8ce1b89a60001b619a2f565b80600001600101600084815260200190815260200160002060008573ffffffffffffffffffffffffffffffffffffffff1673ffffffffffffffffffffffffffffffffffffffff1681526020019081526020016000205491505092915050565b50565b600061a6fd7f37624c78b12de03a5f297d9c950f3c6fc4b70342068ec5e4685d0b6d5384bc8960001b61a6cc565b61a7297f6224ad2357ddfdde3d06e7d433de8597a0c802b5961d43d3d5667abb8dcefc1360001b61a6cc565b61a7557f4ba10ed08791a423d97bea0744f82f3448aa933f5dc1d334f2aa7799e156fba360001b61a6cc565b60007fc8fcad8db84d3cc18b4c41d551ea0ee66dd599cde068d998e57d5e09332c131c905061a7a67f3459e835b9cbe60eac3148958d95eace06d7b6690e6dc02cb6b8a1ff93a77d7660001b61a6cc565b8091505090565b50565b61a7b861c0ee565b61a7e47f48bcf299c318e70897b2d65b85cef3de8ca84685ff5b8c66d5c6f09b94c7c14c60001b618dfc565b61a8107f3fbc03d188fc5aad5434880ff2edf80d5fc09eead76388e3ca632d1f1b71c0d860001b618dfc565b61a83c7fb96fbcdc418eebef7fddc32ae358aafa158553bf31904f49e3f2574ab4b9a6e460001b618dfc565b600061a846613bf6565b905061a8747f036900759c8835409335a4240f369230e3efe16a46040db461b56da206bf937f60001b618dfc565b61a8a07fd7b361150152392d9eb749bea6dce97eaa3d360314c47826e3f4207c9007dfe060001b618dfc565b60005b600581101561a9bf5761a8d87f7bc164a3c3de82fd4a410db6bad1f0acd82cc22e8c51120ad1e03afa7821786c60001b618dfc565b61a9047fe1416da995ce75ac7a767f68c87dbd1910e17a1cae24726b95e19487d9acfd8c60001b618dfc565b8160000160100160008281526020019081526020016000205482600001600f0160008381526020019081526020016000205461a940919061cd31565b83826005811061a9535761a95261c6dc565b5b60200201818152505061a9887ff8418338521fc33de1208502415dad49b2f080c7623b2a204607a3c96792600960001b618dfc565b61a9b47f24a3e31cefdc3c051e65a93812ebaad1f78f7eb77757bd49dc89dcb6fcfd749d60001b618dfc565b80600101905061a8a3565b505090565b61a9cc61c0ee565b61a9f87fba3314d3c4c91367ffdcf65f481901001d784eb3adde60518a4e1d5a6aa5dfc660001b618dff565b61aa247f529a11dc7e49879564cbe9a47be9be3fd6bdcac24157b1a851b0045f4a264c0460001b618dff565b61aa507f6b065f75a09b6c6188ce8cd53073db70b6b9e41973024691836fc9229613606f60001b618dff565b600061aa5a613bf6565b905061aa887f215f33c79f94673ed24b5b9c3ccdff2d42653173a43a112473c2d60da9d9105360001b618dff565b61aab47f0ebc83cb2ccb68bb1f34c616fa043396e6f5b62cffd655cc4c016a31e1ee8c9660001b618dff565b60005b600581101561abb05761aaec7f37fc731aa86f4f293943c83299152e05c73e65e9a917bfa86548e868c439fb0560001b618dff565b61ab187ff2c1ce7aa89a1ec408b0820706e918f096489159b9831582020c787495808bbb60001b618dff565b81600001602a0160008281526020019081526020016000205483826005811061ab445761ab4361c6dc565b5b60200201818152505061ab797f33f6acb4a7b2808e2b6126752bddab05dec4defcb140364b3f78f0a984dd171760001b618dff565b61aba57f634db27d7eaec38af9f23d8aea9480e8b72b64012592c4fb8357930302fb615960001b618dff565b80600101905061aab7565b505090565b50565b606061abe67fe806a3ac73bc3e6a2cff8c8058aff4dc8b4834bcad3aba4670c354a85f2ac2c460001b619a2f565b61ac127f692e1b3f0d5c19ad38ef8361c9ef4a1f850b839f1c99423ab38b7dfb5ed9190560001b619a2f565b61ac3e7f74584b0d012840fb08988ba25745aa3ecc532b04826f6c92e5999fd6d1ff5b5a60001b619a2f565b6000600167ffffffffffffffff81111561ac5b5761ac5a61c13a565b5b60405190808252806020026020018201604052801561ac895781602001602082028036833780820191505090505b50905061acb87fdf150e0bef325585ac5862fdf2a2c0f4ad8e20f4694cc3f19184de7df03a186460001b619a2f565b61ace47fee0fb6b5367ce85cb8333f4a587361c9f032a7390b37656e38fdd1c3746239a560001b619a2f565b828160008151811061acf95761acf861c6dc565b5b60200260200101818152505061ad317f90f2ac292a4af21a010587bd0a5462cd658ba01fb430cf8239efae68b965354c60001b619a2f565b61ad5d7f45a14ed0989745f6983b388fa79b9aa3e065ad5fbf823445feab4c39a67f0e8d60001b619a2f565b80915050919050565b61ad927fc3fb94a770c9686b37b61dc4378fcc6ab73cf72ee3a824351ca01d132655229160001b619a2f565b61adbe7fa3b926c4c506ab24c1a2c62e40dfa6f189efa63a2817e22380e4913c1171ff2e60001b619a2f565b61adea7f6cefb200915781b8cfa0e905f6510034ddbdf44b8c1daa7a66136e6a7392ebdc60001b619a2f565b61ae098473ffffffffffffffffffffffffffffffffffffffff1661bf34565b1561b2095761ae3a7f229a442009008317718ee49f02935fdbe5177ec973bb723bcdb7900a75261e9260001b619a2f565b61ae667f2821aaf5ea59c1b05357e76929bb49fd8f4e0e48aea52476abbf1ecb2e151a7c60001b619a2f565b61ae927f1df322ecc3cfd274fddede83fae23f3237de183d12548b4a474b45354a1956e360001b619a2f565b8373ffffffffffffffffffffffffffffffffffffffff1663f23a6e6187878686866040518663ffffffff1660e01b815260040161aed395949392919061d883565b602060405180830381600087803b15801561aeed57600080fd5b505af192505050801561af1e57506040513d601f19601f8201168201806040525081019061af1b919061d935565b60015b61b0745761af2a61d96f565b806308c379a0141561afdf575061af3f61d991565b8061af4a575061afe1565b61af767faecebf1f8663e1514e169b6e9c81ab1023db9dcba8c30e7ad0d5b39462157c4160001b619a2f565b61afa27fed66d880d38a85b8ad241db7102f80d71b5033552bb48b9cbac992e80e8eae7b60001b619a2f565b806040517f08c379a000000000000000000000000000000000000000000000000000000000815260040161afd6919061da6b565b60405180910390fd5b505b61b00d7f55551cb0dd580a16058d10291620ed667763c532e641bf45eb7a57b555e8c7ac60001b619a2f565b61b0397f44ec2e364b4fcdaa68d9be27b9ca0e9dade4031e84bebbef7720420c5451622860001b619a2f565b6040517f08c379a000000000000000000000000000000000000000000000000000000000815260040161b06b9061daff565b60405180910390fd5b61b0a07f54c3662dd22b65609fc0d5b923dd8a19ae394010236db962ca8b2f3df078ba4c60001b619a2f565b61b0cc7f78591ad6993b8674f4ee98e725fbecf645dbf762a3e924d04bf58347f6fea22d60001b619a2f565b63f23a6e6160e01b7bffffffffffffffffffffffffffffffffffffffffffffffffffffffff1916817bffffffffffffffffffffffffffffffffffffffffffffffffffffffff19161461b1d75761b1447ffc24a4fdc5e7c699e6e1e6ee81c75ef907705437f15a675f8d8e70ac5085950760001b619a2f565b61b1707f1809253f037a945bc9ad637d436a753e53f84c5303e6a34cb26ee6452d0dbd7260001b619a2f565b61b19c7f290ffec1bcf5cce5e0790fab9f148d32880b7976258612c5ef491ae910d087ea60001b619a2f565b6040517f08c379a000000000000000000000000000000000000000000000000000000000815260040161b1ce9061db91565b60405180910390fd5b61b2037f1451d3a0efb241a2b395689d9d5c11e1fb5cc168378080e55ea33aa28241740660001b619a2f565b5061b236565b61b2357f56d686c8dda8b69798ef081146879060b0cc15e689ca34f1f7d8b51b05aa15be60001b619a2f565b5b505050505050565b606061b26c7f8b4fb979e5aafe66c62669dd9702540c8cd51a30a9d5b8ed213fc1ca92c3f89f60001b618dff565b61b2987f063b201504764c3a27865b3c4459ff6218f8c393d6a599ae390a6dbbc1627cb560001b618dff565b61b2c47f2560162c8e78bc0c9eea14912e734a7837bd131ab0ed0b3ccc360af9cd9ad01760001b618dff565b600061b2ce613bf6565b905061b2fc7f5e15be7c75fda58ddd42c95440fea3de45247915a0e08c6c9f142eb66a9e86f160001b618dff565b61b3277ece33fc26bb4ae824ff734f1117244ea60d5ffea217510c1c99ebdb41c2329160001b618dff565b6000835167ffffffffffffffff81111561b3445761b34361c13a565b5b60405190808252806020026020018201604052801561b3725781602001602082028036833780820191505090505b50905061b3a17f8d0172e6c0d43f1ddec9598d552beef86700d61a6be39f878e7a6c699765307c60001b618dff565b61b3cd7fb6d30b0a833b49644935ab31c14a14d518ec31a8fbcbe2a53b04d0bc6252adb260001b618dff565b60005b845181101561b7d75761b4057fe33c2212541881b702e27626f117ed0f87b67d6084c062a252b65bc5a9ffaa4460001b618dff565b61b4317fde16a0a2259bde52069f95a7699a39aea986cd76387c1f762b32a70607bf2d1860001b618dff565b600083600001601001600087848151811061b44f5761b44e61c6dc565b5b602002602001015181526020019081526020016000205484600001600f01600088858151811061b4825761b48161c6dc565b5b602002602001015181526020019081526020016000205461b4a3919061cd31565b141561b5845761b4d57f980cddf182f0ae59e39e9842217e32f8c86bc7c8686690411c48aa377025a5af60001b618dff565b61b5017faf2b78903dd34254d23d2e6803744caa34c97af3318e903288f97dc9b73653df60001b618dff565b61b52d7f73739410971b947a7ee3d613a852cd05a365075c87a42487b860be1d64df82b960001b618dff565b82600001603001600086838151811061b5495761b54861c6dc565b5b602002602001015181526020019081526020016000205482828151811061b5735761b57261c6dc565b5b60200260200101818152505061b774565b61b5b07f65e7ed5fa0b306f350835049f8edcb36031145485de198783d75fe255315c5d760001b618dff565b61b5dc7ff2aed8bbf54ccd43365c6e4b949a772f31bb0313747e93bde4de6052ac02357a60001b618dff565b61b6087fa07095a015e17b3038a6453e4684378e0cce67e10eb249a4f839f27e82234ae560001b618dff565b82600001601001600086838151811061b6245761b62361c6dc565b5b602002602001015181526020019081526020016000205483600001600f01600087848151811061b6575761b65661c6dc565b5b602002602001015181526020019081526020016000205461b678919061cd31565b670de0b6b3a764000084600001602e01600088858151811061b69d5761b69c61c6dc565b5b602002602001015181526020019081526020016000205461b6bc61be2d565b61b6c6919061cd31565b85600001602f01600089868151811061b6e25761b6e161c6dc565b5b602002602001015181526020019081526020016000205461b703919061cc77565b61b70d919061cc77565b61b717919061cd00565b83600001603001600087848151811061b7335761b73261c6dc565b5b602002602001015181526020019081526020016000205461b754919061c907565b82828151811061b7675761b76661c6dc565b5b6020026020010181815250505b61b7a07fce179defe47607acc6e221dcea563b26c6edc40e606b21063f26ba2f7c15ea1060001b618dff565b61b7cc7f3b53fa4dbd60bae74b588fb9f6172da68702ee81a9e9abc8ca54106fbc17678660001b618dff565b80600101905061b3d0565b5061b8047f304782d567ec59960167db6ce04f9a906512c249d1de4ee541fe34a84083705160001b618dff565b61b8307fec101d1eddf24d60106ee97d2e68b55de0794ad9b64fb7cc6943edf957d9c95460001b618dff565b8092505050919050565b606061b8687f47feacfd039c1ae36a516269ae3182f2f9f7a5b99e5f352f0957111f98d3c7d260001b618dff565b61b8947f037ecf1a65c0501ad8463b97ef40804f2b3d5ce4be2e0fa79fe5849cb839fe6d60001b618dff565b61b8c07f81e14ca7a38c77aed905a08f713cebb756e103f6746480632c6249984c9b18a860001b618dff565b600061b8ca613bf6565b905061b8f87f34fba52876a477ebad57ad1e6970253d095c30f2bd0cebc38526b75abd203aa360001b618dff565b61b9247f628bfb37b06adb269e5d3f5c0cd027267cb7383e07f559cec135e8a78942d12f60001b618dff565b600061b92f8461b23e565b905061b95d7feac0d99e0730c1c72a4050e5c25e44f3ecc6402867a24f682e6cf538f6a6664960001b618dff565b61b9897fe942fd41acb7f43484e161102b89167cdcf2d2b6218e2e3ea5bba2fc79a5b52860001b618dff565b6000845167ffffffffffffffff81111561b9a65761b9a561c13a565b5b60405190808252806020026020018201604052801561b9d45781602001602082028036833780820191505090505b50905061ba037fca3bac37abb1c3b6795411641b12188fad6daddc4c3d5f4c586d2a460fdfc82860001b618dff565b61ba2e7e54785feafc86359f3c81206962186a4f2eb67a23adccd282a978bbd64d112560001b618dff565b60005b855181101561bdc85761ba667ffe8d8202248ddf4979fcb417ad76245dda1c51c62c231b26ed3f9ab573e4c08560001b618dff565b61ba927fa365d4b518927af92b5beb22779f7dc48a4459b730d2e7d68a7e80a088f82fb360001b618dff565b600073ffffffffffffffffffffffffffffffffffffffff168773ffffffffffffffffffffffffffffffffffffffff16141561bb715761baf37f126b47c68f977abf56300ac7d67962da92a164c962756299449310bc4cf7edec60001b618dff565b61bb1f7ffc026247c84d9a293150a1ad20b252961c483b8543e33ad0201f229d922dda7260001b618dff565b61bb4b7f1b133b6cd0d10778d97fabca45ae875952175cd763178719fa0b29c85b66c97360001b618dff565b600082828151811061bb605761bb5f61c6dc565b5b60200260200101818152505061bd65565b61bb9d7f07a6b052cccb0a17f0d670902ebb1ad36614b08ea2b70b3667c5f0cbc530edba60001b618dff565b61bbc97f325fd8f39003826381ace245f342293bfa61d16e24c2854bec6691917b7aea8160001b618dff565b61bbf57fa823987d834b5afe2f3a2e5381cda6e2beb09c56f23b99ba012d65c3d2b16e6660001b618dff565b83600001603201600087838151811061bc115761bc1061c6dc565b5b6020026020010151815260200190815260200160002060008873ffffffffffffffffffffffffffffffffffffffff1673ffffffffffffffffffffffffffffffffffffffff16815260200190815260200160002054670de0b6b3a764000085600001603101600089858151811061bc8a5761bc8961c6dc565b5b6020026020010151815260200190815260200160002060008a73ffffffffffffffffffffffffffffffffffffffff1673ffffffffffffffffffffffffffffffffffffffff1681526020019081526020016000205485848151811061bcf15761bcf061c6dc565b5b602002602001015161bd03919061cd31565b61bd278a8a868151811061bd1a5761bd1961c6dc565b5b602002602001015161a463565b61bd31919061cc77565b61bd3b919061cd00565b61bd45919061c907565b82828151811061bd585761bd5761c6dc565b5b6020026020010181815250505b61bd917f61cf0a8518daf53a887fb77612ad50a8972c585b6fa7f9f2be1e23ba118f32c660001b618dff565b61bdbd7f4055ed16b84a4ac65ccb952b2c5d40f9c1910dd5abd3357c21ad47676b97eb7860001b618dff565b80600101905061ba31565b5061bdf57f48250429c4bd3255ca5cde83f20a0e96410688298f07dd5767dd7189dd50edbe60001b618dff565b61be217ffe25f2ff139089f61f8bda90e88256551f24d66809800f6699746763d821521360001b618dff565b80935050505092915050565b600061be5b7f7b7afad07a47075f1281e0e0a0f39d352ef8d4b570386a463499c8573079431d60001b618dff565b61be877fe8061d2bc31341c0b52bd88a7ae4b2a4110154106a62e74880c83a9e3680627560001b618dff565b61beb37f51b1af4c7d9d9b8d9caa12afc3aa8b63d6268aded5f0263ef24dbe3ce627b0d360001b618dff565b600061bebd613bf6565b905061beeb7fa91165fedbf392c558b87b2fb5d2ab3d55579f50a27030b3037691b06263272360001b618dff565b61bf177f21c2b71c932a4cc73921163a959dd0a7a5a36eaf86f75646ac24f3980268bdc360001b618dff565b61bf2881600001602d01544261c050565b91505090565b50565b50565b600061bf627f1a3a53b72b674e9fbba2eea506869fc1e832cf52984608e3b6b644c364c38d8460001b61bf2e565b61bf8e7fea5248eb53ceca51e9874404db8495bf4bfed79e1e0460d574e8881cc87eb9f160001b61bf2e565b61bfba7f45ca0170411cbadde61381cc1a57b2465e26b279ad899930aff8b5cc0899a67f60001b61bf2e565b600061bfe87f18f085591cd5a42df19ab342b4d38ceb77ed939bd416a8e9b31bc81ea4bf87e460001b61bf2e565b823b905061c0187f702ad938ce5280224501eb8d9747dd66cde3ea513ef5ab283b87de1921354b1460001b61bf2e565b61c0447f558ee446ea02a007d77a79cd45635a8601a80b8be39035833c0439e7b35b842360001b61bf2e565b60008111915050919050565b600061c07e7f09cf066cf4477d51fd8f0ff4ed1b37bdf8b891e521ab608215d27edc787a06b860001b618dff565b61c0aa7f810f3d1c6729b518477eb029da8cb407a29770bdd3640ab9a7e55bec930e777660001b618dff565b61c0d67fcefed25ed7e609929ecabdbdb19cbd365d7d3fbd094f9806f7253fccfc4a725360001b618dff565b8183111561c0e4578161c0e6565b825b905092915050565b6040518060a00160405280600590602082028036833780820191505090505090565b6000604051905090565b600080fd5b600080fd5b600080fd5b6000601f19601f8301169050919050565b7f4e487b7100000000000000000000000000000000000000000000000000000000600052604160045260246000fd5b61c1728261c129565b810181811067ffffffffffffffff8211171561c1915761c19061c13a565b5b80604052505050565b600061c1a461c110565b905061c1b0828261c169565b919050565b600067ffffffffffffffff82111561c1d05761c1cf61c13a565b5b602082029050602081019050919050565b600080fd5b6000819050919050565b61c1f98161c1e6565b811461c20457600080fd5b50565b60008135905061c2168161c1f0565b92915050565b600061c22f61c22a8461c1b5565b61c19a565b9050808382526020820190506020840283018581111561c2525761c25161c1e1565b5b835b8181101561c27b578061c267888261c207565b84526020840193505060208101905061c254565b5050509392505050565b600082601f83011261c29a5761c29961c124565b5b813561c2aa84826020860161c21c565b91505092915050565b6000806040838503121561c2ca5761c2c961c11a565b5b600083013567ffffffffffffffff81111561c2e85761c2e761c11f565b5b61c2f48582860161c285565b925050602083013567ffffffffffffffff81111561c3155761c31461c11f565b5b61c3218582860161c285565b9150509250929050565b60008115159050919050565b61c3408161c32b565b82525050565b600060208201905061c35b600083018461c337565b92915050565b600067ffffffffffffffff82111561c37c5761c37b61c13a565b5b602082029050919050565b600061c39a61c3958461c361565b61c19a565b9050806020840283018581111561c3b45761c3b361c1e1565b5b835b8181101561c3dd578061c3c9888261c207565b84526020840193505060208101905061c3b6565b5050509392505050565b600082601f83011261c3fc5761c3fb61c124565b5b600561c40984828561c387565b91505092915050565b6000819050919050565b61c4258161c412565b811461c43057600080fd5b50565b60008135905061c4428161c41c565b92915050565b600080600080610180858703121561c4635761c46261c11a565b5b600061c4718782880161c3e7565b94505060a061c4828782880161c3e7565b93505061014061c4948782880161c433565b92505061016061c4a68782880161c207565b91505092959194509250565b6000806040838503121561c4c95761c4c861c11a565b5b600061c4d78582860161c207565b925050602083013567ffffffffffffffff81111561c4f85761c4f761c11f565b5b61c5048582860161c285565b9150509250929050565b600080fd5b600067ffffffffffffffff82111561c52e5761c52d61c13a565b5b61c5378261c129565b9050602081019050919050565b82818337600083830152505050565b600061c56661c5618461c513565b61c19a565b90508281526020810184848401111561c5825761c58161c50e565b5b61c58d84828561c544565b509392505050565b600082601f83011261c5aa5761c5a961c124565b5b813561c5ba84826020860161c553565b91505092915050565b6000806040838503121561c5da5761c5d961c11a565b5b600061c5e88582860161c207565b925050602083013567ffffffffffffffff81111561c6095761c60861c11f565b5b61c6158582860161c595565b9150509250929050565b6000806040838503121561c6365761c63561c11a565b5b600061c6448582860161c207565b925050602061c6558582860161c207565b9150509250929050565b600082825260208201905092915050565b7f6964732c20616d6f756e7473206c656e677468206d69736d6174636800000000600082015250565b600061c6a6601c8361c65f565b915061c6b18261c670565b602082019050919050565b6000602082019050818103600083015261c6d58161c699565b9050919050565b7f4e487b7100000000000000000000000000000000000000000000000000000000600052603260045260246000fd5b600081519050919050565b600082825260208201905092915050565b6000819050602082019050919050565b61c7408161c1e6565b82525050565b600061c752838361c737565b60208301905092915050565b6000602082019050919050565b600061c7768261c70b565b61c780818561c716565b935061c78b8361c727565b8060005b8381101561c7bc57815161c7a3888261c746565b975061c7ae8361c75e565b92505060018101905061c78f565b5085935050505092915050565b6000604082019050818103600083015261c7e3818561c76b565b9050818103602083015261c7f7818461c76b565b90509392505050565b7f57726f6e6720696e70757420636f6d706f736974696f6e000000000000000000600082015250565b600061c83660178361c65f565b915061c8418261c800565b602082019050919050565b6000602082019050818103600083015261c8658161c829565b9050919050565b7f4e6f7420656e6f75676820746f20726566756e6420616c6c2070656f706c6500600082015250565b600061c8a2601f8361c65f565b915061c8ad8261c86c565b602082019050919050565b6000602082019050818103600083015261c8d18161c895565b9050919050565b7f4e487b7100000000000000000000000000000000000000000000000000000000600052601160045260246000fd5b600061c9128261c1e6565b915061c91d8361c1e6565b9250827fffffffffffffffffffffffffffffffffffffffffffffffffffffffffffffffff0382111561c9525761c95161c8d8565b5b828201905092915050565b600060059050919050565b600081905092915050565b6000819050919050565b61c9868161c1e6565b82525050565b600061c998838361c97d565b60208301905092915050565b6000602082019050919050565b61c9ba8161c95d565b61c9c4818461c968565b925061c9cf8261c973565b8060005b8381101561ca0057815161c9e7878261c98c565b965061c9f28361c9a4565b92505060018101905061c9d3565b505050505050565b600061ca14828461c9b1565b60a08201915081905092915050565b61ca2c8161c1e6565b82525050565b600060408201905061ca47600083018561ca23565b61ca54602083018461ca23565b9392505050565b7f5265656e7472616e637947756172643a207265656e7472616e742063616c6c00600082015250565b600061ca91601f8361c65f565b915061ca9c8261ca5b565b602082019050919050565b6000602082019050818103600083015261cac08161ca84565b9050919050565b7f494473206c656e677468206d69736d6174636800000000000000000000000000600082015250565b600061cafd60138361c65f565b915061cb088261cac7565b602082019050919050565b6000602082019050818103600083015261cb2c8161caf0565b9050919050565b7f494473206d69736d617463680000000000000000000000000000000000000000600082015250565b600061cb69600c8361c65f565b915061cb748261cb33565b602082019050919050565b6000602082019050818103600083015261cb988161cb5c565b9050919050565b7f302061637469766520737570706c696573000000000000000000000000000000600082015250565b600061cbd560118361c65f565b915061cbe08261cb9f565b602082019050919050565b6000602082019050818103600083015261cc048161cbc8565b9050919050565b7f4c6971756964205374616b696e672052657761726473203e2031303025000000600082015250565b600061cc41601d8361c65f565b915061cc4c8261cc0b565b602082019050919050565b6000602082019050818103600083015261cc708161cc34565b9050919050565b600061cc828261c1e6565b915061cc8d8361c1e6565b9250817fffffffffffffffffffffffffffffffffffffffffffffffffffffffffffffffff048311821515161561ccc65761ccc561c8d8565b5b828202905092915050565b7f4e487b7100000000000000000000000000000000000000000000000000000000600052601260045260246000fd5b600061cd0b8261c1e6565b915061cd168361c1e6565b92508261cd265761cd2561ccd1565b5b828204905092915050565b600061cd3c8261c1e6565b915061cd478361c1e6565b92508282101561cd5a5761cd5961c8d8565b5b828203905092915050565b600073ffffffffffffffffffffffffffffffffffffffff82169050919050565b600061cd908261cd65565b9050919050565b61cda08161cd85565b82525050565b600060408201905061cdbb600083018561cd97565b61cdc8602083018461ca23565b9392505050565b7f4d617820737570706c7920726561636865640000000000000000000000000000600082015250565b600061ce0560128361c65f565b915061ce108261cdcf565b602082019050919050565b6000602082019050818103600083015261ce348161cdf8565b9050919050565b7f4e4f5f414d4f554e540000000000000000000000000000000000000000000000600082015250565b600061ce7160098361c65f565b915061ce7c8261ce3b565b602082019050919050565b6000602082019050818103600083015261cea08161ce64565b9050919050565b7f4e4f5f524542415445535f5348415245535f415641494c41424c450000000000600082015250565b600061cedd601b8361c65f565b915061cee88261cea7565b602082019050919050565b6000602082019050818103600083015261cf0c8161ced0565b9050919050565b7f4e6f7420656e6f75676820415641580000000000000000000000000000000000600082015250565b600061cf49600f8361c65f565b915061cf548261cf13565b602082019050919050565b6000602082019050818103600083015261cf788161cf3c565b9050919050565b7f4865616c7468206e6f742073657474656420636f72726563746c790000000000600082015250565b600061cfb5601b8361c65f565b915061cfc08261cf7f565b602082019050919050565b6000602082019050818103600083015261cfe48161cfa8565b9050919050565b7f496e63656e74697665732061726520616c726561647920616374697665000000600082015250565b600061d021601d8361c65f565b915061d02c8261cfeb565b602082019050919050565b6000602082019050818103600083015261d0508161d014565b9050919050565b7f546f6f206d616e7920696e63656e746976697a65640000000000000000000000600082015250565b600061d08d60158361c65f565b915061d0988261d057565b602082019050919050565b6000602082019050818103600083015261d0bc8161d080565b9050919050565b7f4f76657220313030250000000000000000000000000000000000000000000000600082015250565b600061d0f960098361c65f565b915061d1048261d0c3565b602082019050919050565b6000602082019050818103600083015261d1288161d0ec565b9050919050565b7f57726f6e6720636f6d706f736974696f6e206f722076616c7565000000000000600082015250565b600061d165601a8361c65f565b915061d1708261d12f565b602082019050919050565b6000602082019050818103600083015261d1948161d158565b9050919050565b7f455243313135353a206275726e2066726f6d20746865207a65726f206164647260008201527f6573730000000000000000000000000000000000000000000000000000000000602082015250565b600061d1f760238361c65f565b915061d2028261d19b565b604082019050919050565b6000602082019050818103600083015261d2268161d1ea565b9050919050565b7f455243313135353a2069647320616e6420616d6f756e7473206c656e6774682060008201527f6d69736d61746368000000000000000000000000000000000000000000000000602082015250565b600061d28960288361c65f565b915061d2948261d22d565b604082019050919050565b6000602082019050818103600083015261d2b88161d27c565b9050919050565b7f455243313135353a206275726e20616d6f756e7420657863656564732062616c60008201527f616e636500000000000000000000000000000000000000000000000000000000602082015250565b600061d31b60248361c65f565b915061d3268261d2bf565b604082019050919050565b6000602082019050818103600083015261d34a8161d30e565b9050919050565b7f4c69624469616d6f6e643a204d75737420626520636f6e7472616374206f776e60008201527f6572000000000000000000000000000000000000000000000000000000000000602082015250565b600061d3ad60228361c65f565b915061d3b88261d351565b604082019050919050565b6000602082019050818103600083015261d3dc8161d3a0565b9050919050565b7f726577617264207261746520213d203000000000000000000000000000000000600082015250565b600061d41960108361c65f565b915061d4248261d3e3565b602082019050919050565b6000602082019050818103600083015261d4488161d40c565b9050919050565b7f7265776172642072617465203d20300000000000000000000000000000000000600082015250565b600061d485600f8361c65f565b915061d4908261d44f565b602082019050919050565b6000602082019050818103600083015261d4b48161d478565b9050919050565b7f72657761726420616d6f756e74203e2062616c616e6365000000000000000000600082015250565b600061d4f160178361c65f565b915061d4fc8261d4bb565b602082019050919050565b6000602082019050818103600083015261d5208161d4e4565b9050919050565b7f455243313135353a206d696e7420746f20746865207a65726f2061646472657360008201527f7300000000000000000000000000000000000000000000000000000000000000602082015250565b600061d58360218361c65f565b915061d58e8261d527565b604082019050919050565b6000602082019050818103600083015261d5b28161d576565b9050919050565b7f416464726573733a20696e73756666696369656e742062616c616e6365000000600082015250565b600061d5ef601d8361c65f565b915061d5fa8261d5b9565b602082019050919050565b6000602082019050818103600083015261d61e8161d5e2565b9050919050565b600081905092915050565b50565b600061d64060008361d625565b915061d64b8261d630565b600082019050919050565b600061d6618261d633565b9150819050919050565b7f416464726573735574696c733a206661696c656420746f2073656e642076616c60008201527f7565000000000000000000000000000000000000000000000000000000000000602082015250565b600061d6c760228361c65f565b915061d6d28261d66b565b604082019050919050565b6000602082019050818103600083015261d6f68161d6ba565b9050919050565b7f556e64657220636f6f6c696e6720706572696f64000000000000000000000000600082015250565b600061d73360148361c65f565b915061d73e8261d6fd565b602082019050919050565b6000602082019050818103600083015261d7628161d726565b9050919050565b7f455243313135353a2061646472657373207a65726f206973206e6f742061207660008201527f616c6964206f776e657200000000000000000000000000000000000000000000602082015250565b600061d7c5602a8361c65f565b915061d7d08261d769565b604082019050919050565b6000602082019050818103600083015261d7f48161d7b8565b9050919050565b600081519050919050565b600082825260208201905092915050565b60005b8381101561d83557808201518184015260208101905061d81a565b8381111561d844576000848401525b50505050565b600061d8558261d7fb565b61d85f818561d806565b935061d86f81856020860161d817565b61d8788161c129565b840191505092915050565b600060a08201905061d898600083018861cd97565b61d8a5602083018761cd97565b61d8b2604083018661ca23565b61d8bf606083018561ca23565b818103608083015261d8d1818461d84a565b90509695505050505050565b60007fffffffff0000000000000000000000000000000000000000000000000000000082169050919050565b61d9128161d8dd565b811461d91d57600080fd5b50565b60008151905061d92f8161d909565b92915050565b60006020828403121561d94b5761d94a61c11a565b5b600061d9598482850161d920565b91505092915050565b60008160e01c9050919050565b600060033d111561d98e5760046000803e61d98b60005161d962565b90505b90565b600060443d101561d9a15761da24565b61d9a961c110565b60043d036004823e80513d602482011167ffffffffffffffff8211171561d9d157505061da24565b808201805167ffffffffffffffff81111561d9ef575050505061da24565b80602083010160043d03850181111561da0c57505050505061da24565b61da1b8260200185018661c169565b82955050505050505b90565b600081519050919050565b600061da3d8261da27565b61da47818561c65f565b935061da5781856020860161d817565b61da608161c129565b840191505092915050565b6000602082019050818103600083015261da85818461da32565b905092915050565b7f455243313135353a207472616e7366657220746f206e6f6e2d4552433131353560008201527f526563656976657220696d706c656d656e746572000000000000000000000000602082015250565b600061dae960348361c65f565b915061daf48261da8d565b604082019050919050565b6000602082019050818103600083015261db188161dadc565b9050919050565b7f455243313135353a204552433131353552656365697665722072656a6563746560008201527f6420746f6b656e73000000000000000000000000000000000000000000000000602082015250565b600061db7b60288361c65f565b915061db868261db1f565b604082019050919050565b6000602082019050818103600083015261dbaa8161db6e565b905091905056fea26469706673582212207ac76a2bbda166cb7c01a1f09ae87f2006de964733c117820dce3bbd9a255b1564736f6c63430008080033",
  "linkReferences": {},
  "deployedLinkReferences": {}
}