{
  "_format": "hh-sol-artifact-1",
  "contractName": "AvalancheValidatorDepositFacet",
  "sourceName": "contracts/validator/facets/AvalancheValidatorDepositFacet.sol",
  "abi": [
    {
      "anonymous": false,
      "inputs": [
        {
          "indexed": true,
          "internalType": "address",
          "name": "costumer",
          "type": "address"
        },
        {
          "indexed": false,
          "internalType": "uint256",
          "name": "amount",
          "type": "uint256"
        },
        {
          "indexed": false,
          "internalType": "uint256",
          "name": "time",
          "type": "uint256"
        }
      ],
      "name": "avalancheValidatorShareSold",
      "type": "event"
    },
    {
      "anonymous": false,
      "inputs": [
        {
          "indexed": true,
          "internalType": "uint256",
          "name": "rebatePercentage",
          "type": "uint256"
        },
        {
          "indexed": true,
          "internalType": "uint256",
          "name": "_numberOfRebates",
          "type": "uint256"
        },
        {
          "indexed": false,
          "internalType": "address",
          "name": "sender",
          "type": "address"
        },
        {
          "indexed": false,
          "internalType": "uint256",
          "name": "time",
          "type": "uint256"
        }
      ],
      "name": "incentivesDeposited",
      "type": "event"
    },
    {
      "anonymous": false,
      "inputs": [
        {
          "indexed": true,
          "internalType": "uint256",
          "name": "value",
          "type": "uint256"
        },
        {
          "indexed": false,
          "internalType": "address",
          "name": "sender",
          "type": "address"
        },
        {
          "indexed": false,
          "internalType": "uint256",
          "name": "time",
          "type": "uint256"
        }
      ],
      "name": "liquidStakingFundsDeposited",
      "type": "event"
    },
    {
      "anonymous": false,
      "inputs": [
        {
          "indexed": true,
          "internalType": "uint256[5]",
          "name": "amount",
          "type": "uint256[5]"
        },
        {
          "indexed": false,
          "internalType": "uint256",
          "name": "value",
          "type": "uint256"
        },
        {
          "indexed": false,
          "internalType": "uint256",
          "name": "time",
          "type": "uint256"
        }
      ],
      "name": "refundsDeposited",
      "type": "event"
    },
    {
      "anonymous": false,
      "inputs": [
        {
          "indexed": true,
          "internalType": "address",
          "name": "burner",
          "type": "address"
        },
        {
          "indexed": false,
          "internalType": "uint256[]",
          "name": "ids",
          "type": "uint256[]"
        },
        {
          "indexed": false,
          "internalType": "uint256[]",
          "name": "amounts",
          "type": "uint256[]"
        }
      ],
      "name": "sharesBurned",
      "type": "event"
    },
    {
      "anonymous": false,
      "inputs": [
        {
          "indexed": true,
          "internalType": "uint256",
          "name": "value",
          "type": "uint256"
        },
        {
          "indexed": false,
          "internalType": "address",
          "name": "sender",
          "type": "address"
        },
        {
          "indexed": false,
          "internalType": "uint256",
          "name": "time",
          "type": "uint256"
        }
      ],
      "name": "validatorFundsDeposited",
      "type": "event"
    },
    {
      "inputs": [
        {
          "internalType": "uint256[]",
          "name": "ids",
          "type": "uint256[]"
        },
        {
          "internalType": "uint256[]",
          "name": "amounts",
          "type": "uint256[]"
        }
      ],
      "name": "burnShares",
      "outputs": [
        {
          "internalType": "bool",
          "name": "",
          "type": "bool"
        }
      ],
      "stateMutability": "nonpayable",
      "type": "function"
    },
    {
      "inputs": [
        {
          "internalType": "uint256",
          "name": "_rebatePercentageInBPS",
          "type": "uint256"
        },
        {
          "internalType": "uint256",
          "name": "_numberOfRebates",
          "type": "uint256"
        }
      ],
      "name": "depositIncentives",
      "outputs": [
        {
          "internalType": "bool",
          "name": "",
          "type": "bool"
        }
      ],
      "stateMutability": "payable",
      "type": "function"
    },
    {
      "inputs": [
        {
          "internalType": "uint256[5]",
          "name": "_amount",
          "type": "uint256[5]"
        },
        {
          "internalType": "uint256[5]",
          "name": "_IDs",
          "type": "uint256[5]"
        },
        {
          "internalType": "bytes32",
          "name": "_merkletree",
          "type": "bytes32"
        },
        {
          "internalType": "uint256",
          "name": "_redeemTimeInSeconds",
          "type": "uint256"
        }
      ],
      "name": "depositRefunds",
      "outputs": [
        {
          "internalType": "bool",
          "name": "",
          "type": "bool"
        }
      ],
      "stateMutability": "payable",
      "type": "function"
    },
    {
      "inputs": [
        {
          "internalType": "uint256",
          "name": "_liquidStakigRewardsInWei",
          "type": "uint256"
        },
        {
          "internalType": "uint256[]",
          "name": "_ids",
          "type": "uint256[]"
        }
      ],
      "name": "depositRewards",
      "outputs": [
        {
          "internalType": "bool",
          "name": "",
          "type": "bool"
        }
      ],
      "stateMutability": "payable",
      "type": "function"
    },
    {
      "inputs": [
        {
          "internalType": "uint256",
          "name": "_amount",
          "type": "uint256"
        },
        {
          "internalType": "bytes",
          "name": "_data",
          "type": "bytes"
        }
      ],
      "name": "mintAvalancheValidatorShareAVAX",
      "outputs": [
        {
          "internalType": "bool",
          "name": "",
          "type": "bool"
        }
      ],
      "stateMutability": "payable",
      "type": "function"
    }
  ],
  "bytecode": "0x608060405234801561001057600080fd5b50613b84806100206000396000f3fe60806040526004361061005a5760003560e01c8063784d11b711610043578063784d11b7146100a6578063a02890e6146100b9578063eda50ffa146100cc57600080fd5b8063201de44d1461005f5780632254b67714610093575b600080fd5b34801561006b57600080fd5b5061007f61007a36600461359f565b6100df565b604051901515815260200160405180910390f35b61007f6100a1366004613671565b61036e565b61007f6100b43660046136b8565b610539565b61007f6100c73660046136f5565b6109d8565b61007f6100da3660046137b6565b610eb3565b805182516000917f66bd28df09c9271bd5696185e1f2db071a0ed825a4f7df621c22ef195c811e9f9114610174576040517f08c379a000000000000000000000000000000000000000000000000000000000815260206004820152601c60248201527f6964732c20616d6f756e7473206c656e677468206d69736d617463680000000060448201526064015b60405180910390fd5b61017c61124f565b5061018833338661138b565b60005b84518110156102cd578381815181106101a6576101a66137d8565b602002602001015182600001600e0160008784815181106101c9576101c96137d8565b60200260200101518152602001908152602001600020600082825403925050819055508381815181106101fe576101fe6137d8565b602002602001015182600001600f016000878481518110610221576102216137d8565b60200260200101518152602001908152602001600020600082825403925050819055506102673386838151811061025a5761025a6137d8565b60200260200101516115aa565b156102c55783818151811061027e5761027e6137d8565b60200260200101518260000160100160008784815181106102a1576102a16137d8565b60200260200101518152602001908152602001600020600082825403925050819055505b60010161018b565b506102d9338585611636565b60005b845181101561031157610308338683815181106102fb576102fb6137d8565b6020026020010151611997565b506001016102dc565b503373ffffffffffffffffffffffffffffffffffffffff167f12101e9f78254ba831796c8c1ee8115d4f29c10597b149f5bef1bc1202549ea9858560405161035a929190613842565b60405180910390a260019150505b92915050565b6000610378611a4f565b7f66bd28df09c9271bd5696185e1f2db071a0ed825a4f7df621c22ef195c811ec3547f66bd28df09c9271bd5696185e1f2db071a0ed825a4f7df621c22ef195c811ed4547f66bd28df09c9271bd5696185e1f2db071a0ed825a4f7df621c22ef195c811eb4547f66bd28df09c9271bd5696185e1f2db071a0ed825a4f7df621c22ef195c811e9f926000928392610412928b929091611b1a565b9150915034821115610480576040517f08c379a000000000000000000000000000000000000000000000000000000000815260206004820152601f60248201527f4e6f7420656e6f75676820746f20726566756e6420616c6c2070656f706c6500604482015260640161016b565b34603484015560388301869055610497854261389f565b6039840155603783018190556033830180547fffffffffffffffffffffffffffffffffffffffffffffffffffffffffffffff001660011790556040516104de9089906138b7565b6040519081900390207f2d5b148d34b0b1055c3632a7fea828ff183014bba9e68cf35c061d7def1bad0f34610513884261389f565b6040805192835260208301919091520160405180910390a2506001979650505050505050565b7fd5b0c411a6c50ab7237d5bdf5f4be539f3a9603f77c2fe2a10b3944fcb2c324b805460009190600214156105ca576040517f08c379a000000000000000000000000000000000000000000000000000000000815260206004820152601f60248201527f5265656e7472616e637947756172643a207265656e7472616e742063616c6c00604482015260640161016b565b600281556105d6611a4f565b7f66bd28df09c9271bd5696185e1f2db071a0ed825a4f7df621c22ef195c811e9f60005b60058110156106a15760008181526010830160205260408120558451819086908290811061062a5761062a6137d8565b602002602001015114610699576040517f08c379a000000000000000000000000000000000000000000000000000000000815260206004820152600c60248201527f494473206d69736d617463680000000000000000000000000000000000000000604482015260640161016b565b6001016105fa565b506106aa611c2b565b610710576040517f08c379a000000000000000000000000000000000000000000000000000000000815260206004820152601160248201527f302061637469766520737570706c696573000000000000000000000000000000604482015260640161016b565b3485111561077a576040517f08c379a000000000000000000000000000000000000000000000000000000000815260206004820152601d60248201527f4c6971756964205374616b696e672052657761726473203e2031303025000000604482015260640161016b565b600080600080600061078a611cb6565b60248b015460238c0154959a50939850919650945092509060009082906107b1908e6138eb565b6107bb9190613928565b602289015490915060009083906107d28f34613963565b6107dc91906138eb565b6107e69190613928565b90508089600001602b0160008282546107ff919061389f565b9091555050602b8901805483919060009061081b90849061389f565b909155506000905061082b611c2b565b836108368434613963565b6108409190613963565b61084a9190613928565b905061085689826138eb565b6000808052602a8c0160205260408120805490919061087690849061389f565b90915550610886905088826138eb565b60016000908152602a8c016020526040812080549091906108a890849061389f565b909155506108b8905087826138eb565b60026000908152602a8c016020526040812080549091906108da90849061389f565b909155506108ea905086826138eb565b60036000908152602a8c0160205260408120805490919061090c90849061389f565b9091555061091c905085826138eb565b60046000908152602a8c0160205260408120805490919061093e90849061389f565b9091555061094c9050611d2f565b6040805133815242602082015234917f56b9a8121b96c71bc28c39b85ed690253bf55c735f0789b4c092f25d3c53cb68910160405180910390a2604080513381524260208201528f917ffb32447375c36e47abd0a4997860ab33b09119b4bffbe0ca422f607ed20ff86f910160405180910390a260019b50505050505050505050506001905592915050565b7fd5b0c411a6c50ab7237d5bdf5f4be539f3a9603f77c2fe2a10b3944fcb2c324b80546000919060021415610a69576040517f08c379a000000000000000000000000000000000000000000000000000000000815260206004820152601f60248201527f5265656e7472616e637947756172643a207265656e7472616e742063616c6c00604482015260640161016b565b60028155600080527fc80dba006960d579a0f3a4e6899774abe428b03691b95261b00d5e17a1901760547f66bd28df09c9271bd5696185e1f2db071a0ed825a4f7df621c22ef195c811eae6020527f7f10944b02d31f22192060d1eaec8ccb2710cf314fa16f90a49dfbaafb5d17f8547f66bd28df09c9271bd5696185e1f2db071a0ed825a4f7df621c22ef195c811e9f9190610b0790879061389f565b1115610b6f576040517f08c379a000000000000000000000000000000000000000000000000000000000815260206004820152601260248201527f4d617820737570706c7920726561636865640000000000000000000000000000604482015260640161016b565b60008511610bd9576040517f08c379a000000000000000000000000000000000000000000000000000000000815260206004820152600960248201527f4e4f5f414d4f554e540000000000000000000000000000000000000000000000604482015260640161016b565b60158101546026820154602983015460ff909116908115610ca55780881115610c5e576040517f08c379a000000000000000000000000000000000000000000000000000000000815260206004820152601b60248201527f4e4f5f524542415445535f5348415245535f415641494c41424c450000000000604482015260640161016b565b60248401546028850154610c7290856138eb565b610c7c9190613928565b610c869084613963565b925087846000016029016000828254610c9f9190613963565b90915550505b610caf83896138eb565b341015610d18576040517f08c379a000000000000000000000000000000000000000000000000000000000815260206004820152600f60248201527f4e6f7420656e6f75676820415641580000000000000000000000000000000000604482015260640161016b565b338215610d8757602785015482610d2f8b836138eb565b610d399190613928565b610d439082613963565b602787015582610d538b836138eb565b610d5d9190613928565b610d67903461389f565b602587018054600090610d7b90849061389f565b90915550610da4915050565b34856000016025016000828254610d9e919061389f565b90915550505b6000808052600f86016020526040812080548b9290610dc490849061389f565b90915550610dd290506120b6565b610ddd81428b6122c8565b610e43576040517f08c379a000000000000000000000000000000000000000000000000000000000815260206004820152601b60248201527f4865616c7468206e6f742073657474656420636f72726563746c790000000000604482015260640161016b565b610e508160008b8b61250b565b604080518a815242602082015273ffffffffffffffffffffffffffffffffffffffff8316917f713ad896423a80156e30820a6075c1f3e6565c0278c0a646a549fedadc71272b910160405180910390a26001965050505050506001905592915050565b7fd5b0c411a6c50ab7237d5bdf5f4be539f3a9603f77c2fe2a10b3944fcb2c324b80546000919060021415610f44576040517f08c379a000000000000000000000000000000000000000000000000000000000815260206004820152601f60248201527f5265656e7472616e637947756172643a207265656e7472616e742063616c6c00604482015260640161016b565b600281557f66bd28df09c9271bd5696185e1f2db071a0ed825a4f7df621c22ef195c811ec3547f66bd28df09c9271bd5696185e1f2db071a0ed825a4f7df621c22ef195c811ec5547f66bd28df09c9271bd5696185e1f2db071a0ed825a4f7df621c22ef195c811e9f919060ff1615611019576040517f08c379a000000000000000000000000000000000000000000000000000000000815260206004820152601d60248201527f496e63656e74697665732061726520616c726561647920616374697665000000604482015260640161016b565b6000808052600e83016020908152604080832054600f86019092529091205461104390879061389f565b11156110ab576040517f08c379a000000000000000000000000000000000000000000000000000000000815260206004820152601560248201527f546f6f206d616e7920696e63656e746976697a65640000000000000000000000604482015260640161016b565b80861115611115576040517f08c379a000000000000000000000000000000000000000000000000000000000815260206004820152600960248201527f4f76657220313030250000000000000000000000000000000000000000000000604482015260640161016b565b34818787856000016015015461112b91906138eb565b61113591906138eb565b61113f9190613928565b11156111a7576040517f08c379a000000000000000000000000000000000000000000000000000000000815260206004820152601a60248201527f57726f6e6720636f6d706f736974696f6e206f722076616c7565000000000000604482015260640161016b565b6026820180547fffffffffffffffffffffffffffffffffffffffffffffffffffffffffffffff00166001179055602882018690556029820185905534602783015584867f840b801e535fa28df8d56cba6449207909707be5c38e2490899f7c7857eaef626112123390565b6040805173ffffffffffffffffffffffffffffffffffffffff90921682524260208301520160405180910390a36001935050506001905592915050565b7f66bd28df09c9271bd5696185e1f2db071a0ed825a4f7df621c22ef195c811eb1547f66bd28df09c9271bd5696185e1f2db071a0ed825a4f7df621c22ef195c811eb2546000917f66bd28df09c9271bd5696185e1f2db071a0ed825a4f7df621c22ef195c811e9f91426112c3838361389f565b8111156112e257601384018190556112db838261389f565b94506112ef565b6112ec838361389f565b94505b60148401546112fe848461389f565b6113089190613963565b8111158061131e575061131b838361389f565b81115b611384576040517f08c379a000000000000000000000000000000000000000000000000000000000815260206004820152601960248201527f5265776172647320617265206265696e67207570646174656400000000000000604482015260640161016b565b5050505090565b7f66bd28df09c9271bd5696185e1f2db071a0ed825a4f7df621c22ef195c811e9f6113b584612698565b60005b82518110156115a35760008260000160320160008584815181106113de576113de6137d8565b6020026020010151815260200190815260200160002060008773ffffffffffffffffffffffffffffffffffffffff1673ffffffffffffffffffffffffffffffffffffffff168152602001908152602001600020549050600081111561159a57826000016032016000858481518110611458576114586137d8565b6020908102919091018101518252818101929092526040908101600090812073ffffffffffffffffffffffffffffffffffffffff808b168352908452828220829055603d870190935290812054909116801561158457602485015473ffffffffffffffffffffffffffffffffffffffff82166000908152603e870160209081526040808320548352603f89019091529020546114f490856138eb565b6114fe9190613928565b91508185600001603201600088878151811061151c5761151c6137d8565b6020026020010151815260200190815260200160002060008373ffffffffffffffffffffffffffffffffffffffff1673ffffffffffffffffffffffffffffffffffffffff168152602001908152602001600020600082825461157e919061389f565b90915550505b611597876115928486613963565b612886565b50505b506001016113b8565b5050505050565b60008181527f66bd28df09c9271bd5696185e1f2db071a0ed825a4f7df621c22ef195c811eda6020908152604080832073ffffffffffffffffffffffffffffffffffffffff861684529091528120547f66bd28df09c9271bd5696185e1f2db071a0ed825a4f7df621c22ef195c811e9f9042101561162c576001915050610368565b6000915050610368565b7f66bd28df09c9271bd5696185e1f2db071a0ed825a4f7df621c22ef195c811e9f73ffffffffffffffffffffffffffffffffffffffff84166116fa576040517f08c379a000000000000000000000000000000000000000000000000000000000815260206004820152602360248201527f455243313135353a206275726e2066726f6d20746865207a65726f206164647260448201527f6573730000000000000000000000000000000000000000000000000000000000606482015260840161016b565b815183511461178b576040517f08c379a000000000000000000000000000000000000000000000000000000000815260206004820152602860248201527f455243313135353a2069647320616e6420616d6f756e7473206c656e6774682060448201527f6d69736d61746368000000000000000000000000000000000000000000000000606482015260840161016b565b60003390506117ae818660008787604051806020016040528060008152506129e0565b60005b84518110156118f95760008582815181106117ce576117ce6137d8565b6020026020010151905060008583815181106117ec576117ec6137d8565b6020908102919091018101516000848152600188018352604080822073ffffffffffffffffffffffffffffffffffffffff8d1683529093529190912054909150818110156118bb576040517f08c379a0000000000000000000000000000000000000000000000000000000008152602060048201526024808201527f455243313135353a206275726e20616d6f756e7420657863656564732062616c60448201527f616e636500000000000000000000000000000000000000000000000000000000606482015260840161016b565b600092835260018087016020908152604080862073ffffffffffffffffffffffffffffffffffffffff8d1687529091529093209190039055016117b1565b50600073ffffffffffffffffffffffffffffffffffffffff168573ffffffffffffffffffffffffffffffffffffffff168273ffffffffffffffffffffffffffffffffffffffff167f4a39dc06d4c0dbc64b70af90fd698a233a518aa5d07e595d983b8c0526c8f7fb8787604051611971929190613842565b60405180910390a46115a381866000878760405180602001604052806000815250612c2d565b60007f66bd28df09c9271bd5696185e1f2db071a0ed825a4f7df621c22ef195c811e9f816119c58585612cc7565b6119cd575060015b8015611a44576000848152603b83016020908152604080832073ffffffffffffffffffffffffffffffffffffffff8916808552908352818420849055878452603c86018352818420908452909152902080547fffffffffffffffffffffffffffffffffffffffffffffffffffffffffffffff001690555b506001949350505050565b7fc8fcad8db84d3cc18b4c41d551ea0ee66dd599cde068d998e57d5e09332c131c6004015473ffffffffffffffffffffffffffffffffffffffff163314611b18576040517f08c379a000000000000000000000000000000000000000000000000000000000815260206004820152602260248201527f4c69624469616d6f6e643a204d75737420626520636f6e7472616374206f776e60448201527f6572000000000000000000000000000000000000000000000000000000000000606482015260840161016b565b565b6000808484848860046020020151611b3291906138eb565b611b3e906127106138eb565b6060890151611b4e9087906138eb565b611b5a906103e86138eb565b60408a0151611b6a9088906138eb565b611b759060646138eb565b60208b0151611b859089906138eb565b611b9090600a6138eb565b8b51611b9d908a906138eb565b611ba7919061389f565b611bb1919061389f565b611bbb919061389f565b611bc5919061389f565b611bcf91906138eb565b611bd99190613928565b60808701516060880151604089015160208a01518a51949650929391929091611c02919061389f565b611c0c919061389f565b611c16919061389f565b611c20919061389f565b905094509492505050565b600080611c36612dc3565b6080810151909150611c4a906127106138eb565b6060820151611c5b906103e86138eb565b6040830151611c6b9060646138eb565b6020840151611c7b90600a6138eb565b8451611c889060016138eb565b611c92919061389f565b611c9c919061389f565b611ca6919061389f565b611cb0919061389f565b91505090565b600080600080600080611cc7612dc3565b8051909150611cd79060016138eb565b6020820151909650611cea90600a6138eb565b6040820151909550611cfd9060646138eb565b6060820151909450611d11906103e86138eb565b6080820151909350611d25906127106138eb565b9150509091929394565b611d37611a4f565b7f66bd28df09c9271bd5696185e1f2db071a0ed825a4f7df621c22ef195c811eb3547f66bd28df09c9271bd5696185e1f2db071a0ed825a4f7df621c22ef195c811eb1547f66bd28df09c9271bd5696185e1f2db071a0ed825a4f7df621c22ef195c811eb2547f66bd28df09c9271bd5696185e1f2db071a0ed825a4f7df621c22ef195c811e9f92914291611dcc919061389f565b611dd69190613963565b10611e3d576040517f08c379a000000000000000000000000000000000000000000000000000000000815260206004820152601d60248201527f5265776172647320617265206e6f74206265696e672075706461746564000000604482015260640161016b565b611e476000612698565b602c8101546000611e56612e45565b905060005b600581101561209e576000818152601085016020908152604080832054600f880190925290912054611e8d9190613963565b611f445782828260058110611ea457611ea46137d8565b6020020151611eb39190613928565b6000828152602f860160208181526040808420948555602e8901825283209290925590525415611f3f576040517f08c379a000000000000000000000000000000000000000000000000000000000815260206004820152601060248201527f726577617264207261746520213d203000000000000000000000000000000000604482015260640161016b565b612096565b82828260058110611f5757611f576137d8565b6020020151611f669190613928565b6000828152602f860160205260409020819055611fdf576040517f08c379a000000000000000000000000000000000000000000000000000000000815260206004820152600f60248201527f7265776172642072617465203d20300000000000000000000000000000000000604482015260640161016b565b818160058110611ff157611ff16137d8565b60200201518385600001602f0160008481526020019081526020016000205461201a91906138eb565b1115612082576040517f08c379a000000000000000000000000000000000000000000000000000000000815260206004820152601760248201527f72657761726420616d6f756e74203e2062616c616e6365000000000000000000604482015260640161016b565b6000818152602e8501602052604090204290555b600101611e5b565b506120a9824261389f565b602d909301929092555050565b7f66bd28df09c9271bd5696185e1f2db071a0ed825a4f7df621c22ef195c811e9f60006120e1611c2b565b602283015483549192509060ff166121e357620927c082111580156121085750806103e814155b15612116576103e860228401555b81620927c01115801561212c575062124f808211155b801561213a57508061038414155b156121485761038460228401555b8162124f801115801561215e5750621b77408211155b801561216c57508061032014155b1561217a5761032060228401555b81621b774011158015612190575062249f008211155b801561219e57508061025814155b156121ac5761025860228401555b8162249f00111580156121c25750622dc6c08211155b80156121d05750806101f414155b156121de576101f460228401555b505050565b620927c082111580156121f757508060fa14155b156122045760fa60228401555b81620927c01115801561221a575062124f808211155b801561222757508060e114155b156122345760e160228401555b8162124f801115801561224a5750621b77408211155b801561225757508060c814155b156122645760c860228401555b81621b77401115801561227a575062249f008211155b8015612287575080609614155b1561229457609660228401555b8162249f00111580156122aa5750622dc6c08211155b80156122b7575080607d14155b156121de57607d6022840155505050565b60007f66bd28df09c9271bd5696185e1f2db071a0ed825a4f7df621c22ef195c811e9f815b60058110156124fd576000818152603c83016020908152604080832073ffffffffffffffffffffffffffffffffffffffff8a16845290915290205460ff161561248a5761233a86826115aa565b15612403576000808052603c83016020908152604080832073ffffffffffffffffffffffffffffffffffffffff8a168452909152902080547fffffffffffffffffffffffffffffffffffffffffffffffffffffffffffffff001660011790556123a161124f565b6000808052603b84016020908152604080832073ffffffffffffffffffffffffffffffffffffffff8b16845282528083209390935581805260108501905290812080548692906123f290849061389f565b909155506001935061250492505050565b6000808052603c83016020908152604080832073ffffffffffffffffffffffffffffffffffffffff8a1680855290835281842080547fffffffffffffffffffffffffffffffffffffffffffffffffffffffffffffff00166001179055838052603b86018352818420908452909152902085905561247f86612698565b600192505050612504565b80600414156124f5576000808052603c83016020908152604080832073ffffffffffffffffffffffffffffffffffffffff8a168452909152902080547fffffffffffffffffffffffffffffffffffffffffffffffffffffffffffffff001660011790556123a161124f565b6001016122ed565b5060009150505b9392505050565b7f66bd28df09c9271bd5696185e1f2db071a0ed825a4f7df621c22ef195c811e9f73ffffffffffffffffffffffffffffffffffffffff85166125cf576040517f08c379a000000000000000000000000000000000000000000000000000000000815260206004820152602160248201527f455243313135353a206d696e7420746f20746865207a65726f2061646472657360448201527f7300000000000000000000000000000000000000000000000000000000000000606482015260840161016b565b3360006125db86612eaa565b905060006125e886612eaa565b90506125f98360008a85858a6129e0565b6000878152600185016020908152604080832073ffffffffffffffffffffffffffffffffffffffff8c811680865291845282852080548c01905582518c81529384018b9052909392908716917fc3d58168c5ae7397731d063d5bbf3d657854427343f4c083240f7aacaa2d0f62910160405180910390a461267f8360008a85858a612c2d565b61268e8360008a8a8a8a612ef5565b5050505050505050565b7f66bd28df09c9271bd5696185e1f2db071a0ed825a4f7df621c22ef195c811e9f60005b60058110156126e1576126cf83826115aa565b156126d957505050565b6001016126bc565b5060006126ec613199565b905060006126f9846132e6565b905060005b60058110156115a35761270f613424565b6000828152602e86016020526040902055828160058110612732576127326137d8565b6020908102919091015160008381526030870190925260409091205573ffffffffffffffffffffffffffffffffffffffff85161561287e576000818152603285016020908152604080832073ffffffffffffffffffffffffffffffffffffffff891684529091529020548282600581106127ae576127ae6137d8565b60200201516127bd9190613963565b6000828152602a86016020526040812080549091906127dd908490613963565b9091555082905081600581106127f5576127f56137d8565b602090810291909101516000838152603287018352604080822073ffffffffffffffffffffffffffffffffffffffff8a1683529093529190912055828160058110612842576128426137d8565b602090810291909101516000838152603187018352604080822073ffffffffffffffffffffffffffffffffffffffff8a16835290935291909120555b6001016126fe565b804710156128f0576040517f08c379a000000000000000000000000000000000000000000000000000000000815260206004820152601d60248201527f416464726573733a20696e73756666696369656e742062616c616e6365000000604482015260640161016b565b60008273ffffffffffffffffffffffffffffffffffffffff168260405160006040518083038185875af1925050503d806000811461294a576040519150601f19603f3d011682016040523d82523d6000602084013e61294f565b606091505b50509050806121de576040517f08c379a000000000000000000000000000000000000000000000000000000000815260206004820152602260248201527f416464726573735574696c733a206661696c656420746f2073656e642076616c60448201527f7565000000000000000000000000000000000000000000000000000000000000606482015260840161016b565b7f66bd28df09c9271bd5696185e1f2db071a0ed825a4f7df621c22ef195c811e9f6000805b8551811015612c22578173ffffffffffffffffffffffffffffffffffffffff168873ffffffffffffffffffffffffffffffffffffffff1614158015612a7657508173ffffffffffffffffffffffffffffffffffffffff168773ffffffffffffffffffffffffffffffffffffffff1614155b15612c1a57612a918887838151811061025a5761025a6137d8565b158015612ab15750612aaf8787838151811061025a5761025a6137d8565b155b15612bb85780612acd57612ac488612698565b612acd87612698565b4283600001603b016000888481518110612ae957612ae96137d8565b6020026020010151815260200190815260200160002060008a73ffffffffffffffffffffffffffffffffffffffff1673ffffffffffffffffffffffffffffffffffffffff168152602001908152602001600020819055504283600001603b016000888481518110612b5c57612b5c6137d8565b6020026020010151815260200190815260200160002060008973ffffffffffffffffffffffffffffffffffffffff1673ffffffffffffffffffffffffffffffffffffffff16815260200190815260200160002081905550612c1a565b6040517f08c379a000000000000000000000000000000000000000000000000000000000815260206004820152601460248201527f556e64657220636f6f6c696e6720706572696f64000000000000000000000000604482015260640161016b565b600101612a05565b505050505050505050565b6000805b845181101561268e578173ffffffffffffffffffffffffffffffffffffffff168773ffffffffffffffffffffffffffffffffffffffff1614158015612ca257508173ffffffffffffffffffffffffffffffffffffffff168673ffffffffffffffffffffffffffffffffffffffff1614155b15612cbf57612cbd878683815181106102fb576102fb6137d8565b505b600101612c31565b60007f66bd28df09c9271bd5696185e1f2db071a0ed825a4f7df621c22ef195c811e9f73ffffffffffffffffffffffffffffffffffffffff8416612d8d576040517f08c379a000000000000000000000000000000000000000000000000000000000815260206004820152602a60248201527f455243313135353a2061646472657373207a65726f206973206e6f742061207660448201527f616c6964206f776e657200000000000000000000000000000000000000000000606482015260840161016b565b60009283526001016020908152604080842073ffffffffffffffffffffffffffffffffffffffff95909516845293905250205490565b612dcb613486565b7f66bd28df09c9271bd5696185e1f2db071a0ed825a4f7df621c22ef195c811e9f60005b6005811015612e40576000818152601083016020908152604080832054600f860190925290912054612e219190613963565b838260058110612e3357612e336137d8565b6020020152600101612def565b505090565b612e4d613486565b7f66bd28df09c9271bd5696185e1f2db071a0ed825a4f7df621c22ef195c811e9f60005b6005811015612e40576000818152602a83016020526040902054838260058110612e9d57612e9d6137d8565b6020020152600101612e71565b60408051600180825281830190925260609160009190602080830190803683370190505090508281600081518110612ee457612ee46137d8565b602090810291909101015292915050565b73ffffffffffffffffffffffffffffffffffffffff84163b15613191576040517ff23a6e6100000000000000000000000000000000000000000000000000000000815273ffffffffffffffffffffffffffffffffffffffff85169063f23a6e6190612f6c90899089908890889088906004016139e5565b602060405180830381600087803b158015612f8657600080fd5b505af1925050508015612fd4575060408051601f3d9081017fffffffffffffffffffffffffffffffffffffffffffffffffffffffffffffffe0168201909252612fd191810190613a35565b60015b6130be57612fe0613a77565b806308c379a014156130345750612ff5613a93565b806130005750613036565b806040517f08c379a000000000000000000000000000000000000000000000000000000000815260040161016b9190613b3b565b505b6040517f08c379a000000000000000000000000000000000000000000000000000000000815260206004820152603460248201527f455243313135353a207472616e7366657220746f206e6f6e2d4552433131353560448201527f526563656976657220696d706c656d656e746572000000000000000000000000606482015260840161016b565b7fffffffff0000000000000000000000000000000000000000000000000000000081167ff23a6e61000000000000000000000000000000000000000000000000000000001461318f576040517f08c379a000000000000000000000000000000000000000000000000000000000815260206004820152602860248201527f455243313135353a204552433131353552656365697665722072656a6563746560448201527f6420746f6b656e73000000000000000000000000000000000000000000000000606482015260840161016b565b505b505050505050565b6131a1613486565b7f66bd28df09c9271bd5696185e1f2db071a0ed825a4f7df621c22ef195c811e9f60005b6005811015612e40576000818152601083016020908152604080832054600f8601909252909120546131f79190613963565b61322857600081815260308301602052604090205483826005811061321e5761321e6137d8565b60200201526132de565b6000818152601083016020908152604080832054600f8601909252909120546132519190613963565b6000828152602e8401602052604090205461326a613424565b6132749190613963565b6000838152602f8501602052604090205461328f91906138eb565b6132a190670de0b6b3a76400006138eb565b6132ab9190613928565b60008281526030840160205260409020546132c6919061389f565b8382600581106132d8576132d86137d8565b60200201525b6001016131c5565b6132ee613486565b7f66bd28df09c9271bd5696185e1f2db071a0ed825a4f7df621c22ef195c811e9f6000613319613199565b905060005b600581101561341c5773ffffffffffffffffffffffffffffffffffffffff8516613360576000848260058110613356576133566137d8565b6020020152613414565b6000818152603284016020908152604080832073ffffffffffffffffffffffffffffffffffffffff891680855290835281842054858552603188018452828520918552925290912054670de0b6b3a7640000908484600581106133c5576133c56137d8565b60200201516133d49190613963565b6133de8885612cc7565b6133e891906138eb565b6133f29190613928565b6133fc919061389f565b84826005811061340e5761340e6137d8565b60200201525b60010161331e565b505050919050565b7f66bd28df09c9271bd5696185e1f2db071a0ed825a4f7df621c22ef195c811ecc546000907f66bd28df09c9271bd5696185e1f2db071a0ed825a4f7df621c22ef195c811e9f90611cb09042848183111561347f5781612504565b5090919050565b6040518060a001604052806005906020820280368337509192915050565b7f4e487b7100000000000000000000000000000000000000000000000000000000600052604160045260246000fd5b7fffffffffffffffffffffffffffffffffffffffffffffffffffffffffffffffe0601f830116810181811067ffffffffffffffff82111715613517576135176134a4565b6040525050565b600082601f83011261352f57600080fd5b8135602067ffffffffffffffff82111561354b5761354b6134a4565b8160051b60405161355e838301826134d3565b9283528481018201928281018785111561357757600080fd5b83870192505b84831015613594578235815291830191830161357d565b509695505050505050565b600080604083850312156135b257600080fd5b823567ffffffffffffffff808211156135ca57600080fd5b6135d68683870161351e565b935060208501359150808211156135ec57600080fd5b506135f98582860161351e565b9150509250929050565b600082601f83011261361457600080fd5b60405160a0810181811067ffffffffffffffff82111715613637576136376134a4565b6040528060a084018581111561364c57600080fd5b845b8181101561366657803583526020928301920161364e565b509195945050505050565b600080600080610180858703121561368857600080fd5b6136928686613603565b93506136a18660a08701613603565b939693955050505061014082013591610160013590565b600080604083850312156136cb57600080fd5b82359150602083013567ffffffffffffffff8111156136e957600080fd5b6135f98582860161351e565b6000806040838503121561370857600080fd5b8235915060208084013567ffffffffffffffff8082111561372857600080fd5b818601915086601f83011261373c57600080fd5b81358181111561374e5761374e6134a4565b6040519150613784847fffffffffffffffffffffffffffffffffffffffffffffffffffffffffffffffe0601f84011601836134d3565b808252878482850101111561379857600080fd5b80848401858401376000848284010152508093505050509250929050565b600080604083850312156137c957600080fd5b50508035926020909101359150565b7f4e487b7100000000000000000000000000000000000000000000000000000000600052603260045260246000fd5b600081518084526020808501945080840160005b838110156138375781518752958201959082019060010161381b565b509495945050505050565b6040815260006138556040830185613807565b82810360208401526138678185613807565b95945050505050565b7f4e487b7100000000000000000000000000000000000000000000000000000000600052601160045260246000fd5b600082198211156138b2576138b2613870565b500190565b60008183825b60058110156138dc5781518352602092830192909101906001016138bd565b50505060a08201905092915050565b6000817fffffffffffffffffffffffffffffffffffffffffffffffffffffffffffffffff048311821515161561392357613923613870565b500290565b60008261395e577f4e487b7100000000000000000000000000000000000000000000000000000000600052601260045260246000fd5b500490565b60008282101561397557613975613870565b500390565b6000815180845260005b818110156139a057602081850181015186830182015201613984565b818111156139b2576000602083870101525b50601f017fffffffffffffffffffffffffffffffffffffffffffffffffffffffffffffffe0169290920160200192915050565b600073ffffffffffffffffffffffffffffffffffffffff808816835280871660208401525084604083015283606083015260a06080830152613a2a60a083018461397a565b979650505050505050565b600060208284031215613a4757600080fd5b81517fffffffff000000000000000000000000000000000000000000000000000000008116811461250457600080fd5b600060033d1115613a905760046000803e5060005160e01c5b90565b600060443d1015613aa15790565b6040517ffffffffffffffffffffffffffffffffffffffffffffffffffffffffffffffffc803d016004833e81513d67ffffffffffffffff8160248401118184111715613aef57505050505090565b8285019150815181811115613b075750505050505090565b843d8701016020828501011115613b215750505050505090565b613b30602082860101876134d3565b509095945050505050565b602081526000612504602083018461397a56fea2646970667358221220ae9b63492846d91c85daa96fd3a583465d2a878bd7a3b6cbd636ddd9e588d60764736f6c63430008080033",
  "linkReferences": {},
  "deployedLinkReferences": {}
}