{
  "_format": "hh-sol-artifact-1",
  "contractName": "FirstERC1155Facet",
  "sourceName": "contracts/validator/facets/FirstERC1155Facet.sol",
  "abi": [
    {
      "anonymous": false,
      "inputs": [
        {
          "indexed": true,
          "internalType": "address",
          "name": "account",
          "type": "address"
        },
        {
          "indexed": true,
          "internalType": "address",
          "name": "operator",
          "type": "address"
        },
        {
          "indexed": false,
          "internalType": "bool",
          "name": "approved",
          "type": "bool"
        }
      ],
      "name": "ApprovalForAll",
      "type": "event"
    },
    {
      "anonymous": false,
      "inputs": [
        {
          "indexed": true,
          "internalType": "address",
          "name": "operator",
          "type": "address"
        },
        {
          "indexed": true,
          "internalType": "address",
          "name": "from",
          "type": "address"
        },
        {
          "indexed": true,
          "internalType": "address",
          "name": "to",
          "type": "address"
        },
        {
          "indexed": false,
          "internalType": "uint256[]",
          "name": "ids",
          "type": "uint256[]"
        },
        {
          "indexed": false,
          "internalType": "uint256[]",
          "name": "values",
          "type": "uint256[]"
        }
      ],
      "name": "TransferBatch",
      "type": "event"
    },
    {
      "anonymous": false,
      "inputs": [
        {
          "indexed": true,
          "internalType": "address",
          "name": "operator",
          "type": "address"
        },
        {
          "indexed": true,
          "internalType": "address",
          "name": "from",
          "type": "address"
        },
        {
          "indexed": true,
          "internalType": "address",
          "name": "to",
          "type": "address"
        },
        {
          "indexed": false,
          "internalType": "uint256",
          "name": "id",
          "type": "uint256"
        },
        {
          "indexed": false,
          "internalType": "uint256",
          "name": "value",
          "type": "uint256"
        }
      ],
      "name": "TransferSingle",
      "type": "event"
    },
    {
      "anonymous": false,
      "inputs": [
        {
          "indexed": false,
          "internalType": "string",
          "name": "value",
          "type": "string"
        },
        {
          "indexed": true,
          "internalType": "uint256",
          "name": "id",
          "type": "uint256"
        }
      ],
      "name": "URI",
      "type": "event"
    },
    {
      "inputs": [
        {
          "internalType": "address",
          "name": "account",
          "type": "address"
        },
        {
          "internalType": "uint256",
          "name": "id",
          "type": "uint256"
        }
      ],
      "name": "balanceOf",
      "outputs": [
        {
          "internalType": "uint256",
          "name": "",
          "type": "uint256"
        }
      ],
      "stateMutability": "view",
      "type": "function"
    },
    {
      "inputs": [
        {
          "internalType": "address[]",
          "name": "accounts",
          "type": "address[]"
        },
        {
          "internalType": "uint256[]",
          "name": "ids",
          "type": "uint256[]"
        }
      ],
      "name": "balanceOfBatch",
      "outputs": [
        {
          "internalType": "uint256[]",
          "name": "",
          "type": "uint256[]"
        }
      ],
      "stateMutability": "view",
      "type": "function"
    },
    {
      "inputs": [
        {
          "internalType": "uint256",
          "name": "id",
          "type": "uint256"
        }
      ],
      "name": "currentSupply",
      "outputs": [
        {
          "internalType": "uint256",
          "name": "",
          "type": "uint256"
        }
      ],
      "stateMutability": "view",
      "type": "function"
    },
    {
      "inputs": [
        {
          "internalType": "uint256",
          "name": "id",
          "type": "uint256"
        }
      ],
      "name": "exists",
      "outputs": [
        {
          "internalType": "bool",
          "name": "",
          "type": "bool"
        }
      ],
      "stateMutability": "view",
      "type": "function"
    },
    {
      "inputs": [
        {
          "internalType": "uint256",
          "name": "id",
          "type": "uint256"
        }
      ],
      "name": "existsInCirculation",
      "outputs": [
        {
          "internalType": "bool",
          "name": "",
          "type": "bool"
        }
      ],
      "stateMutability": "view",
      "type": "function"
    },
    {
      "inputs": [
        {
          "internalType": "address",
          "name": "account",
          "type": "address"
        },
        {
          "internalType": "address",
          "name": "operator",
          "type": "address"
        }
      ],
      "name": "isApprovedForAll",
      "outputs": [
        {
          "internalType": "bool",
          "name": "",
          "type": "bool"
        }
      ],
      "stateMutability": "view",
      "type": "function"
    },
    {
      "inputs": [
        {
          "internalType": "uint256",
          "name": "id",
          "type": "uint256"
        }
      ],
      "name": "maxSupply",
      "outputs": [
        {
          "internalType": "uint256",
          "name": "",
          "type": "uint256"
        }
      ],
      "stateMutability": "view",
      "type": "function"
    },
    {
      "inputs": [
        {
          "internalType": "uint256",
          "name": "id",
          "type": "uint256"
        }
      ],
      "name": "name",
      "outputs": [
        {
          "internalType": "string",
          "name": "",
          "type": "string"
        }
      ],
      "stateMutability": "view",
      "type": "function"
    },
    {
      "inputs": [
        {
          "internalType": "uint256",
          "name": "_tokenId",
          "type": "uint256"
        },
        {
          "internalType": "uint256",
          "name": "_salePrice",
          "type": "uint256"
        }
      ],
      "name": "royaltyInfo",
      "outputs": [
        {
          "internalType": "address",
          "name": "",
          "type": "address"
        },
        {
          "internalType": "uint256",
          "name": "",
          "type": "uint256"
        }
      ],
      "stateMutability": "view",
      "type": "function"
    },
    {
      "inputs": [
        {
          "internalType": "address",
          "name": "from",
          "type": "address"
        },
        {
          "internalType": "address",
          "name": "to",
          "type": "address"
        },
        {
          "internalType": "uint256[]",
          "name": "ids",
          "type": "uint256[]"
        },
        {
          "internalType": "uint256[]",
          "name": "amounts",
          "type": "uint256[]"
        },
        {
          "internalType": "bytes",
          "name": "data",
          "type": "bytes"
        }
      ],
      "name": "safeBatchTransferFrom",
      "outputs": [],
      "stateMutability": "nonpayable",
      "type": "function"
    },
    {
      "inputs": [
        {
          "internalType": "address",
          "name": "from",
          "type": "address"
        },
        {
          "internalType": "address",
          "name": "to",
          "type": "address"
        },
        {
          "internalType": "uint256",
          "name": "id",
          "type": "uint256"
        },
        {
          "internalType": "uint256",
          "name": "amount",
          "type": "uint256"
        },
        {
          "internalType": "bytes",
          "name": "data",
          "type": "bytes"
        }
      ],
      "name": "safeTransferFrom",
      "outputs": [],
      "stateMutability": "nonpayable",
      "type": "function"
    },
    {
      "inputs": [
        {
          "internalType": "address",
          "name": "operator",
          "type": "address"
        },
        {
          "internalType": "bool",
          "name": "approved",
          "type": "bool"
        }
      ],
      "name": "setApprovalForAll",
      "outputs": [],
      "stateMutability": "nonpayable",
      "type": "function"
    },
    {
      "inputs": [
        {
          "internalType": "bytes4",
          "name": "interfaceId",
          "type": "bytes4"
        }
      ],
      "name": "supportsInterface",
      "outputs": [
        {
          "internalType": "bool",
          "name": "",
          "type": "bool"
        }
      ],
      "stateMutability": "view",
      "type": "function"
    },
    {
      "inputs": [
        {
          "internalType": "uint256",
          "name": "id",
          "type": "uint256"
        }
      ],
      "name": "symbol",
      "outputs": [
        {
          "internalType": "string",
          "name": "",
          "type": "string"
        }
      ],
      "stateMutability": "view",
      "type": "function"
    },
    {
      "inputs": [
        {
          "internalType": "uint256",
          "name": "tokenId",
          "type": "uint256"
        }
      ],
      "name": "uri",
      "outputs": [
        {
          "internalType": "string",
          "name": "",
          "type": "string"
        }
      ],
      "stateMutability": "view",
      "type": "function"
    }
  ],
  "bytecode": "0x608060405234801561001057600080fd5b50612eec806100206000396000f3fe608060405234801561001057600080fd5b50600436106100f35760003560e01c80634e41a1fb11610097578063a22cb46511610066578063a22cb4651461030f578063b57f087214610322578063e985e9c514610363578063f242432a1461037657600080fd5b80634e41a1fb1461023d5780634f558e79146102505780635b74607714610291578063869f7594146102d057600080fd5b80630e89341c116100d35780630e89341c146101b65780632a55205a146101c95780632eb2c2d6146102085780634e1273f41461021d57600080fd5b8062ad800c146100f8578062fdd58e1461012157806301ffc9a714610142575b600080fd5b61010b6101063660046124c8565b610389565b604051610118919061255b565b60405180910390f35b61013461012f366004612597565b61046c565b604051908152602001610118565b6101a66101503660046125f2565b7fffffffff000000000000000000000000000000000000000000000000000000001660009081527fc8fcad8db84d3cc18b4c41d551ea0ee66dd599cde068d998e57d5e09332c131f602052604090205460ff1690565b6040519015158152602001610118565b61010b6101c43660046124c8565b61047f565b6101dc6101d736600461260f565b610490565b6040805173ffffffffffffffffffffffffffffffffffffffff9093168352602083019190915201610118565b61021b6102163660046127d2565b61061c565b005b61023061022b36600461287c565b6106ea565b6040516101189190612982565b61010b61024b3660046124c8565b610842565b6101a661025e3660046124c8565b60009081527ffd49e457eed3de8d2ad7359e3503e84f3f0c2ba2be33f317d5850642629ff9256020526040902054151590565b61013461029f3660046124c8565b60009081527ffd49e457eed3de8d2ad7359e3503e84f3f0c2ba2be33f317d5850642629ff926602052604090205490565b6101346102de3660046124c8565b60009081527ffd49e457eed3de8d2ad7359e3503e84f3f0c2ba2be33f317d5850642629ff925602052604090205490565b61021b61031d366004612995565b61089f565b6101a66103303660046124c8565b60009081527ffd49e457eed3de8d2ad7359e3503e84f3f0c2ba2be33f317d5850642629ff9266020526040902054151590565b6101a66103713660046129d1565b6108ae565b61021b610384366004612a04565b61090a565b60008181527ffd49e457eed3de8d2ad7359e3503e84f3f0c2ba2be33f317d5850642629ff91a6020526040902080546060917f66bd28df09c9271bd5696185e1f2db071a0ed825a4f7df621c22ef195c811e9f916103e690612a69565b80601f016020809104026020016040519081016040528092919081815260200182805461041290612a69565b801561045f5780601f106104345761010080835404028352916020019161045f565b820191906000526020600020905b81548152906001019060200180831161044257829003601f168201915b5050505050915050919050565b600061047883836109cc565b9392505050565b606061048a82610ad2565b92915050565b60008281527ffd49e457eed3de8d2ad7359e3503e84f3f0c2ba2be33f317d5850642629ff91f6020908152604080832081518083019092525473ffffffffffffffffffffffffffffffffffffffff8116808352740100000000000000000000000000000000000000009091046bffffffffffffffffffffffff169282019290925282917f66bd28df09c9271bd5696185e1f2db071a0ed825a4f7df621c22ef195c811e9f919061059b57506000808052602082815260409182902082518084019093526007015473ffffffffffffffffffffffffffffffffffffffff811683527401000000000000000000000000000000000000000090046bffffffffffffffffffffffff16908201525b60008080527f66bd28df09c9271bd5696185e1f2db071a0ed825a4f7df621c22ef195c811e9f6020527ffd49e457eed3de8d2ad7359e3503e84f3f0c2ba2be33f317d5850642629ff92f546020830151610603906bffffffffffffffffffffffff1688612aec565b61060d9190612b29565b91519791965090945050505050565b73ffffffffffffffffffffffffffffffffffffffff8516331480610645575061064585336108ae565b6106d6576040517f08c379a000000000000000000000000000000000000000000000000000000000815260206004820152602e60248201527f455243313135353a2063616c6c6572206973206e6f7420746f6b656e206f776e60448201527f6572206f7220617070726f76656400000000000000000000000000000000000060648201526084015b60405180910390fd5b6106e38585858585610c02565b5050505050565b6060815183511461077d576040517f08c379a000000000000000000000000000000000000000000000000000000000815260206004820152602960248201527f455243313135353a206163636f756e747320616e6420696473206c656e67746860448201527f206d69736d61746368000000000000000000000000000000000000000000000060648201526084016106cd565b6000835167ffffffffffffffff81111561079957610799612631565b6040519080825280602002602001820160405280156107c2578160200160208202803683370190505b50905060005b845181101561083a5761080d8582815181106107e6576107e6612b64565b602002602001015185838151811061080057610800612b64565b602002602001015161046c565b82828151811061081f5761081f612b64565b602090810291909101015261083381612b93565b90506107c8565b509392505050565b60008181527ffd49e457eed3de8d2ad7359e3503e84f3f0c2ba2be33f317d5850642629ff91b6020526040902080546060917f66bd28df09c9271bd5696185e1f2db071a0ed825a4f7df621c22ef195c811e9f916103e690612a69565b6108aa33838361101f565b5050565b73ffffffffffffffffffffffffffffffffffffffff80831660009081527ffd49e457eed3de8d2ad7359e3503e84f3f0c2ba2be33f317d5850642629ff9196020908152604080832093851683529290529081205460ff16610478565b73ffffffffffffffffffffffffffffffffffffffff8516331480610933575061093385336108ae565b6109bf576040517f08c379a000000000000000000000000000000000000000000000000000000000815260206004820152602e60248201527f455243313135353a2063616c6c6572206973206e6f7420746f6b656e206f776e60448201527f6572206f7220617070726f76656400000000000000000000000000000000000060648201526084016106cd565b6106e3858585858561118e565b60007f66bd28df09c9271bd5696185e1f2db071a0ed825a4f7df621c22ef195c811e9f73ffffffffffffffffffffffffffffffffffffffff8416610a92576040517f08c379a000000000000000000000000000000000000000000000000000000000815260206004820152602a60248201527f455243313135353a2061646472657373207a65726f206973206e6f742061207660448201527f616c6964206f776e65720000000000000000000000000000000000000000000060648201526084016106cd565b600080805260209182526040808220858352600101835280822073ffffffffffffffffffffffffffffffffffffffff871683529092522054905092915050565b60008181527ffd49e457eed3de8d2ad7359e3503e84f3f0c2ba2be33f317d5850642629ff91d6020526040812080546060927f66bd28df09c9271bd5696185e1f2db071a0ed825a4f7df621c22ef195c811e9f929091610b3190612a69565b80601f0160208091040260200160405190810160405280929190818152602001828054610b5d90612a69565b8015610baa5780601f10610b7f57610100808354040283529160200191610baa565b820191906000526020600020905b815481529060010190602001808311610b8d57829003601f168201915b505050505090506000815111610bc857610bc384610ad2565b610bfa565b600080805260208381526040918290209151610bea9260050191849101612be8565b6040516020818303038152906040525b949350505050565b815183517f66bd28df09c9271bd5696185e1f2db071a0ed825a4f7df621c22ef195c811e9f9114610cb5576040517f08c379a000000000000000000000000000000000000000000000000000000000815260206004820152602860248201527f455243313135353a2069647320616e6420616d6f756e7473206c656e6774682060448201527f6d69736d6174636800000000000000000000000000000000000000000000000060648201526084016106cd565b73ffffffffffffffffffffffffffffffffffffffff8516610d58576040517f08c379a000000000000000000000000000000000000000000000000000000000815260206004820152602560248201527f455243313135353a207472616e7366657220746f20746865207a65726f20616460448201527f647265737300000000000000000000000000000000000000000000000000000060648201526084016106cd565b33610d67818888888888611420565b60005b8551811015610f7b576000868281518110610d8757610d87612b64565b602002602001015190506000868381518110610da557610da5612b64565b60209081029190910181015160008080528783526040808220868352600101845280822073ffffffffffffffffffffffffffffffffffffffff8f168352909352919091205490915081811015610e7d576040517f08c379a000000000000000000000000000000000000000000000000000000000815260206004820152602a60248201527f455243313135353a20696e73756666696369656e742062616c616e636520666f60448201527f72207472616e736665720000000000000000000000000000000000000000000060648201526084016106cd565b818103866000016000808152602001908152602001600020600101600085815260200190815260200160002060008d73ffffffffffffffffffffffffffffffffffffffff1673ffffffffffffffffffffffffffffffffffffffff1681526020019081526020016000208190555081866000016000808152602001908152602001600020600101600085815260200190815260200160002060008c73ffffffffffffffffffffffffffffffffffffffff1673ffffffffffffffffffffffffffffffffffffffff1681526020019081526020016000206000828254610f609190612cc6565b9250508190555050505080610f7490612b93565b9050610d6a565b508573ffffffffffffffffffffffffffffffffffffffff168773ffffffffffffffffffffffffffffffffffffffff168273ffffffffffffffffffffffffffffffffffffffff167f4a39dc06d4c0dbc64b70af90fd698a233a518aa5d07e595d983b8c0526c8f7fb8888604051610ff2929190612cde565b60405180910390a46110088188888888886117c0565b61101681888888888861186b565b50505050505050565b7f66bd28df09c9271bd5696185e1f2db071a0ed825a4f7df621c22ef195c811e9f73ffffffffffffffffffffffffffffffffffffffff84811690841614156110e9576040517f08c379a000000000000000000000000000000000000000000000000000000000815260206004820152602960248201527f455243313135353a2073657474696e6720617070726f76616c2073746174757360448201527f20666f722073656c66000000000000000000000000000000000000000000000060648201526084016106cd565b60008080526020828152604080832073ffffffffffffffffffffffffffffffffffffffff888116808652600290920184528285209088168086529084529382902080547fffffffffffffffffffffffffffffffffffffffffffffffffffffffffffffff00168715159081179091559151918252917f17307eab39ab6107e8899845ad3d59bd9653f200f220920489ca2b5937696c31910160405180910390a350505050565b7f66bd28df09c9271bd5696185e1f2db071a0ed825a4f7df621c22ef195c811e9f73ffffffffffffffffffffffffffffffffffffffff8516611252576040517f08c379a000000000000000000000000000000000000000000000000000000000815260206004820152602560248201527f455243313135353a207472616e7366657220746f20746865207a65726f20616460448201527f647265737300000000000000000000000000000000000000000000000000000060648201526084016106cd565b33600061125e86611b0d565b9050600061126b86611b0d565b905061127b838a8a85858a611420565b6000808052602085815260408083208a8452600101825280832073ffffffffffffffffffffffffffffffffffffffff8d16845290915290205486811015611344576040517f08c379a000000000000000000000000000000000000000000000000000000000815260206004820152602a60248201527f455243313135353a20696e73756666696369656e742062616c616e636520666f60448201527f72207472616e736665720000000000000000000000000000000000000000000060648201526084016106cd565b6000808052602086815260408083208b8452600101825280832073ffffffffffffffffffffffffffffffffffffffff8e8116855292528083208a85039055908b16825281208054899290611399908490612cc6565b9091555050604080518981526020810189905273ffffffffffffffffffffffffffffffffffffffff808c16928d821692918816917fc3d58168c5ae7397731d063d5bbf3d657854427343f4c083240f7aacaa2d0f62910160405180910390a4611406848b8b86868b6117c0565b611414848b8b8b8b8b611b58565b50505050505050505050565b82517f66bd28df09c9271bd5696185e1f2db071a0ed825a4f7df621c22ef195c811e9f9060009042825b828110156117b3578373ffffffffffffffffffffffffffffffffffffffff168a73ffffffffffffffffffffffffffffffffffffffff16141580156114ba57508373ffffffffffffffffffffffffffffffffffffffff168973ffffffffffffffffffffffffffffffffffffffff1614155b156117ab576114e28a8983815181106114d5576114d5612b64565b6020026020010151611d14565b1580156115025750611500898983815181106114d5576114d5612b64565b155b15611749578061151e576115158a611da4565b61151e89611da4565b73ffffffffffffffffffffffffffffffffffffffff8a163b158015611558575073ffffffffffffffffffffffffffffffffffffffff89163b155b1561166a5781856000016000808152602001908152602001600020602f0160008a848151811061158a5761158a612b64565b6020026020010151815260200190815260200160002060008c73ffffffffffffffffffffffffffffffffffffffff1673ffffffffffffffffffffffffffffffffffffffff1681526020019081526020016000208190555081856000016000808152602001908152602001600020602f0160008a848151811061160e5761160e612b64565b6020026020010151815260200190815260200160002060008b73ffffffffffffffffffffffffffffffffffffffff1673ffffffffffffffffffffffffffffffffffffffff168152602001908152602001600020819055506117ab565b73ffffffffffffffffffffffffffffffffffffffff8a163b1580156116a5575073ffffffffffffffffffffffffffffffffffffffff89163b15155b156116d75781856000016000808152602001908152602001600020602f0160008a848151811061158a5761158a612b64565b73ffffffffffffffffffffffffffffffffffffffff8a163b15158015611712575073ffffffffffffffffffffffffffffffffffffffff89163b155b156117445781856000016000808152602001908152602001600020602f0160008a848151811061158a5761158a612b64565b6117ab565b6040517f08c379a000000000000000000000000000000000000000000000000000000000815260206004820152601460248201527f556e64657220636f6f6c696e6720706572696f6400000000000000000000000060448201526064016106cd565b60010161144a565b5050505050505050505050565b60005b83518110156110165773ffffffffffffffffffffffffffffffffffffffff8616156118635773ffffffffffffffffffffffffffffffffffffffff861615801590611822575073ffffffffffffffffffffffffffffffffffffffff851615155b1561183e578061183e5761183586611da4565b61183e85611da4565b6118618685838151811061185457611854612b64565b6020026020010151611f85565b505b6001016117c3565b73ffffffffffffffffffffffffffffffffffffffff84163b15611b05576040517fbc197c8100000000000000000000000000000000000000000000000000000000815273ffffffffffffffffffffffffffffffffffffffff85169063bc197c81906118e29089908990889088908890600401612d03565b602060405180830381600087803b1580156118fc57600080fd5b505af192505050801561194a575060408051601f3d9081017fffffffffffffffffffffffffffffffffffffffffffffffffffffffffffffffe016820190925261194791810190612d6e565b60015b611a3457611956612d8b565b806308c379a014156119aa575061196b612da7565b8061197657506119ac565b806040517f08c379a00000000000000000000000000000000000000000000000000000000081526004016106cd919061255b565b505b6040517f08c379a000000000000000000000000000000000000000000000000000000000815260206004820152603460248201527f455243313135353a207472616e7366657220746f206e6f6e2d4552433131353560448201527f526563656976657220696d706c656d656e74657200000000000000000000000060648201526084016106cd565b7fffffffff0000000000000000000000000000000000000000000000000000000081167fbc197c810000000000000000000000000000000000000000000000000000000014611016576040517f08c379a000000000000000000000000000000000000000000000000000000000815260206004820152602860248201527f455243313135353a204552433131353552656365697665722072656a6563746560448201527f6420746f6b656e7300000000000000000000000000000000000000000000000060648201526084016106cd565b505050505050565b60408051600180825281830190925260609160009190602080830190803683370190505090508281600081518110611b4757611b47612b64565b602090810291909101015292915050565b73ffffffffffffffffffffffffffffffffffffffff84163b15611b05576040517ff23a6e6100000000000000000000000000000000000000000000000000000000815273ffffffffffffffffffffffffffffffffffffffff85169063f23a6e6190611bcf9089908990889088908890600401612e4f565b602060405180830381600087803b158015611be957600080fd5b505af1925050508015611c37575060408051601f3d9081017fffffffffffffffffffffffffffffffffffffffffffffffffffffffffffffffe0168201909252611c3491810190612d6e565b60015b611c4357611956612d8b565b7fffffffff0000000000000000000000000000000000000000000000000000000081167ff23a6e610000000000000000000000000000000000000000000000000000000014611016576040517f08c379a000000000000000000000000000000000000000000000000000000000815260206004820152602860248201527f455243313135353a204552433131353552656365697665722072656a6563746560448201527f6420746f6b656e7300000000000000000000000000000000000000000000000060648201526084016106cd565b60008181527ffd49e457eed3de8d2ad7359e3503e84f3f0c2ba2be33f317d5850642629ff9466020908152604080832073ffffffffffffffffffffffffffffffffffffffff861684529091528120547f66bd28df09c9271bd5696185e1f2db071a0ed825a4f7df621c22ef195c811e9f904290811015611d975760019250611d9c565b600092505b505092915050565b7f66bd28df09c9271bd5696185e1f2db071a0ed825a4f7df621c22ef195c811e9f60005b6005811015611ded57611ddb8382611d14565b15611de557505050565b600101611dc8565b506000611df8612046565b90506000611e05846121d2565b90506000611e128561231a565b905060005b6005811015611b0557611e28612436565b600080805260208781526040808320858452602201909152902055838160058110611e5557611e55612b64565b6020908102919091015160008080528783526040808220858352602401909352919091205573ffffffffffffffffffffffffffffffffffffffff861615611f7d57828160058110611ea857611ea8612b64565b6020908102919091015160008080528783526040808220858352602601845280822073ffffffffffffffffffffffffffffffffffffffff8b1683529093529190912055818160058110611efd57611efd612b64565b6020908102919091015160008080528783526040808220858352601e01909352918220805491929091611f31908490612e9f565b9091555050600080805260208681526040808320848452602481018352818420546025909101835281842073ffffffffffffffffffffffffffffffffffffffff8b168552909252909120555b600101611e17565b60007f66bd28df09c9271bd5696185e1f2db071a0ed825a4f7df621c22ef195c811e9f81611fb385856109cc565b611fbb575060015b801561203b57600080805260208381526040808320878452602f8101835281842073ffffffffffffffffffffffffffffffffffffffff8a1680865290845282852085905588855260309091018352818420908452909152902080547fffffffffffffffffffffffffffffffffffffffffffffffffffffffffffffff001690555b506001949350505050565b61204e6124aa565b7f66bd28df09c9271bd5696185e1f2db071a0ed825a4f7df621c22ef195c811e9f60005b60058110156121cd5760008080526020838152604080832084845260108101835281842054600f909101909252909120546120ad9190612e9f565b6120e8576000808052602083815260408083208484526024019091529020548382600581106120de576120de612b64565b60200201526121c5565b60008080526020838152604080832084845260108101835281842054600f9091019092529091205461211a9190612e9f565b60008080526020848152604080832085845260220190915290205461213d612436565b6121479190612e9f565b60008080526020858152604080832086845260230190915290205461216c9190612aec565b61217e90670de0b6b3a7640000612aec565b6121889190612b29565b6000808052602084815260408083208584526024019091529020546121ad9190612cc6565b8382600581106121bf576121bf612b64565b60200201525b600101612072565b505090565b6121da6124aa565b7f66bd28df09c9271bd5696185e1f2db071a0ed825a4f7df621c22ef195c811e9f6000612205612046565b905060005b60058110156123125773ffffffffffffffffffffffffffffffffffffffff851661224c57600084826005811061224257612242612b64565b602002015261230a565b60008080526020848152604080832084845260268101835281842073ffffffffffffffffffffffffffffffffffffffff8a16808652908452828520548686526025909201845282852090855290925290912054670de0b6b3a7640000908484600581106122bb576122bb612b64565b60200201516122ca9190612e9f565b6122d488856109cc565b6122de9190612aec565b6122e89190612b29565b6122f29190612cc6565b84826005811061230457612304612b64565b60200201525b60010161220a565b505050919050565b6123226124aa565b7f66bd28df09c9271bd5696185e1f2db071a0ed825a4f7df621c22ef195c811e9f600061234d612046565b905060005b60058110156123125773ffffffffffffffffffffffffffffffffffffffff851661239457600084826005811061238a5761238a612b64565b602002015261242e565b600080805260208481526040808320848452602501825280832073ffffffffffffffffffffffffffffffffffffffff89168452909152902054670de0b6b3a7640000908383600581106123e9576123e9612b64565b60200201516123f89190612e9f565b61240287846109cc565b61240c9190612aec565b6124169190612b29565b84826005811061242857612428612b64565b60200201525b600101612352565b60008080527f66bd28df09c9271bd5696185e1f2db071a0ed825a4f7df621c22ef195c811e9f60208190527ffd49e457eed3de8d2ad7359e3503e84f3f0c2ba2be33f317d5850642629ff9385461248d9042612493565b91505090565b6000818311156124a35781610478565b5090919050565b6040518060a001604052806005906020820280368337509192915050565b6000602082840312156124da57600080fd5b5035919050565b60005b838110156124fc5781810151838201526020016124e4565b8381111561250b576000848401525b50505050565b600081518084526125298160208601602086016124e1565b601f017fffffffffffffffffffffffffffffffffffffffffffffffffffffffffffffffe0169290920160200192915050565b6020815260006104786020830184612511565b803573ffffffffffffffffffffffffffffffffffffffff8116811461259257600080fd5b919050565b600080604083850312156125aa57600080fd5b6125b38361256e565b946020939093013593505050565b7fffffffff00000000000000000000000000000000000000000000000000000000811681146125ef57600080fd5b50565b60006020828403121561260457600080fd5b8135610478816125c1565b6000806040838503121561262257600080fd5b50508035926020909101359150565b7f4e487b7100000000000000000000000000000000000000000000000000000000600052604160045260246000fd5b7fffffffffffffffffffffffffffffffffffffffffffffffffffffffffffffffe0601f830116810181811067ffffffffffffffff821117156126a4576126a4612631565b6040525050565b600067ffffffffffffffff8211156126c5576126c5612631565b5060051b60200190565b600082601f8301126126e057600080fd5b813560206126ed826126ab565b6040516126fa8282612660565b83815260059390931b850182019282810191508684111561271a57600080fd5b8286015b84811015612735578035835291830191830161271e565b509695505050505050565b600082601f83011261275157600080fd5b813567ffffffffffffffff81111561276b5761276b612631565b6040516127a060207fffffffffffffffffffffffffffffffffffffffffffffffffffffffffffffffe0601f8501160182612660565b8181528460208386010111156127b557600080fd5b816020850160208301376000918101602001919091529392505050565b600080600080600060a086880312156127ea57600080fd5b6127f38661256e565b94506128016020870161256e565b9350604086013567ffffffffffffffff8082111561281e57600080fd5b61282a89838a016126cf565b9450606088013591508082111561284057600080fd5b61284c89838a016126cf565b9350608088013591508082111561286257600080fd5b5061286f88828901612740565b9150509295509295909350565b6000806040838503121561288f57600080fd5b823567ffffffffffffffff808211156128a757600080fd5b818501915085601f8301126128bb57600080fd5b813560206128c8826126ab565b6040516128d58282612660565b83815260059390931b85018201928281019150898411156128f557600080fd5b948201945b8386101561291a5761290b8661256e565b825294820194908201906128fa565b9650508601359250508082111561293057600080fd5b5061293d858286016126cf565b9150509250929050565b600081518084526020808501945080840160005b838110156129775781518752958201959082019060010161295b565b509495945050505050565b6020815260006104786020830184612947565b600080604083850312156129a857600080fd5b6129b18361256e565b9150602083013580151581146129c657600080fd5b809150509250929050565b600080604083850312156129e457600080fd5b6129ed8361256e565b91506129fb6020840161256e565b90509250929050565b600080600080600060a08688031215612a1c57600080fd5b612a258661256e565b9450612a336020870161256e565b93506040860135925060608601359150608086013567ffffffffffffffff811115612a5d57600080fd5b61286f88828901612740565b600181811c90821680612a7d57607f821691505b60208210811415612ab7577f4e487b7100000000000000000000000000000000000000000000000000000000600052602260045260246000fd5b50919050565b7f4e487b7100000000000000000000000000000000000000000000000000000000600052601160045260246000fd5b6000817fffffffffffffffffffffffffffffffffffffffffffffffffffffffffffffffff0483118215151615612b2457612b24612abd565b500290565b600082612b5f577f4e487b7100000000000000000000000000000000000000000000000000000000600052601260045260246000fd5b500490565b7f4e487b7100000000000000000000000000000000000000000000000000000000600052603260045260246000fd5b60007fffffffffffffffffffffffffffffffffffffffffffffffffffffffffffffffff821415612bc557612bc5612abd565b5060010190565b60008151612bde8185602086016124e1565b9290920192915050565b600080845481600182811c915080831680612c0457607f831692505b6020808410821415612c3d577f4e487b710000000000000000000000000000000000000000000000000000000086526022600452602486fd5b818015612c515760018114612c8057612cad565b7fffffffffffffffffffffffffffffffffffffffffffffffffffffffffffffff00861689528489019650612cad565b60008b81526020902060005b86811015612ca55781548b820152908501908301612c8c565b505084890196505b505050505050612cbd8185612bcc565b95945050505050565b60008219821115612cd957612cd9612abd565b500190565b604081526000612cf16040830185612947565b8281036020840152612cbd8185612947565b600073ffffffffffffffffffffffffffffffffffffffff808816835280871660208401525060a06040830152612d3c60a0830186612947565b8281036060840152612d4e8186612947565b90508281036080840152612d628185612511565b98975050505050505050565b600060208284031215612d8057600080fd5b8151610478816125c1565b600060033d1115612da45760046000803e5060005160e01c5b90565b600060443d1015612db55790565b6040517ffffffffffffffffffffffffffffffffffffffffffffffffffffffffffffffffc803d016004833e81513d67ffffffffffffffff8160248401118184111715612e0357505050505090565b8285019150815181811115612e1b5750505050505090565b843d8701016020828501011115612e355750505050505090565b612e4460208286010187612660565b509095945050505050565b600073ffffffffffffffffffffffffffffffffffffffff808816835280871660208401525084604083015283606083015260a06080830152612e9460a0830184612511565b979650505050505050565b600082821015612eb157612eb1612abd565b50039056fea2646970667358221220022b9738a3a754fa643616ff4b879faef108823b5283f9efa05d4f3f6d49596764736f6c63430008080033",
  "linkReferences": {},
  "deployedLinkReferences": {}
}